:040000006F10001964
:1000040000000000000000006F0080086F00E02284
:1000140000000000000000000000000000000000DC
:1000240000000000000000000000000000000000CC
:100034006F004006000000006F00E00500000000B3
:100044006F0080056F0060056F0040056F0020059C
:100054006F0000056F00E0046F00C00400000000A2
:100064006F0060046F0040046F0020046F00000400
:100074006F00E0236F00C003000000006F00600306
:100084006F0040036F0020036F0000036F00E00265
:1000940001A001A001A001A001A001A001A001A054
:1000A40001A001A001A001A001A001A001A001A044
:1000B40001A001A001A001A001A001A0B717004068
:1000C400130770052380E704130780FA2380E704ED
:1000D4002396A70223800704371700408347270588
:1000E400898BEDDF835707053717004083472705C2
:1000F400898BEDFF3717004083472705898BEDDF98
:10010400035507058280B7170040930670052380C6
:10011400D704130780FA2380E70403C6B7041376D1
:10012400F60DA385C70423800704137605022DC6A4
:1001340003C6A700118A0DE22380D7042380E704B5
:1001440003C7A700136747002385E7009307004B05
:1001540001000100FD17EDFFB7170040930670057D
:100164002380D704130780FA2380E7047D8923942E
:10017400A70001000100010001002380070423807F
:10018400D7042380E7049306100537270040A30310
:10019400D780238007048280137605046DDE03C6AE
:1001A400A700418A0DE22380D7042380E70403C714
:1001B400A700136707012385E7009307007D01006B
:1001C4000100FD17EDFFB71700409306700523806B
:1001D400D704130780FA7D892380E7041365050497
:1001E4002394A700010001000100010023800704FB
:1001F4002380D7042380E704930630053727004083
:1002040079B74111814601468145114506C6AD2A9B
:10021400B7170040130770052380E704130780FA1B
:100224002380E70403C76704136717002383E704E5
:1002340023800704B2404101828081460146814502
:1002440011459922B7170040930670052380D704FF
:10025400130780FA2380E7047D562396C702238080
:10026400D7042380E70403C76704136717002383B5
:10027400E7042380070401A0BD473305F50201000C
:100284007D1575FD8280411122C426C206C6AA844A
:10029400014463179400B240224492444101828095
:1002A40005041305803E4204C13F4180DDB7B71702
:1002B4000040130700032388E702854723A6F18E35
:1002C40073002030411106C6A921FDBF2303048019
:1002D40015472303E48001002302A480828083075E
:1002E4006480E3CE07FE2303048082808307648056
:1002F400E3CE07FE03454480828083076480E3CE17
:1003040007FE2302A4808280411126C44AC24EC043
:1003140006C61377F50BAD47AA892E899544630663
:10032400F70019456537653F8D444E854537FD59BE
:10033400FD1463983401B240A24412498249410138
:100344008280135509011375F50F453F2209CDB776
:10035400011126CC06CEB704080051371545BD3728
:10036400713769372AC6A53F32459377150089EB63
:10037400136515001375F50FF240E24405618280A0
:10038400FD14E9FC0145CDBF397126DC4ADA4ED8AB
:1003940052D656D45AD25ED006DE62CE66CCB7E7C9
:1003A40000E07D5783AA070022C603AA470023A0C2
:1003B400E71823A2E718B717004013077005238036
:1003C400E704130780FA2380E70483C74704930BE9
:1003D40075FFB684E20793FBFB0F8546AA892E8B33
:1003E400328937240040E187015763FA76016308B4
:1003F400D5008946130700026313D5000157D98F2E
:1004040093F7F70FB71C00402382FC041147230322
:10041400E4801305F00F5D3D094CD13563697C110F
:10042400B70707003E9B378707007955637EEB02C9
:10043400B3079B00636AF702A9476399F90689E445
:100444008144713D26850DA0DA850945753D050970
:100454000345F9FFFD14050B4D3581C49377FB0F5C
:10046400FDF7FD3569FD7D55B7170040130770058D
:100474002380E704130780FA2380E70403C74704B3
:10048400418B2382E704F250B7E700E023A0571121
:1004940023A24711E25432445259C259325AA25A41
:1004A400125B825B724CE24C21618280A5476395AA
:1004B400F90685691309F00FB3069900B3742B018B
:1004C400B6941349F9FFB3749900856B33796901C4
:1004D400416B9387F9FFB3F7270199E363FC340178
:1004E40093D94900C147E3E637FF99BF0569C1695C
:1004F4007D19D9B71305800D6388690113050002BE
:100504006384790113051008CA85FD3B913521DD0B
:100514004E99B3843441D9B7DA852D45F533CA945D
:10052400E30099F20509D933A30FA9FED5BF938738
:10053400F9FF93F7F70F636CFC0803C75C04B70774
:1005440008001377070219E3B78707007955E37D9D
:10055400FBF033079B00E3E9E7F089476390F90474
:100564008980D549E38E04ECDA850945713B11098C
:100574000327C9FF91472320E48003076480E34EE7
:1005840007FE23033481FD17EDFBFD14110B81C419
:100594009377FB0FE9FF6D3B71F5F1B58547E38771
:1005A400F9F4DA852D458D339389F4FFE38A04E861
:1005B400353B93F7390091EB832604800327090028
:1005C40093074900E39FE6E63E89CE84F1BFB54731
:1005D4006396F9001305900BD5399DB5B147130502
:1005E400B00AE38BF9FE9947639EF902DA852D453B
:1005F400213B81448D4BA149D539639674018327EE
:1006040004802320F9008504E39834FF83270480C1
:1006140013172B01635507002312F90015B5232284
:10062400F90039BD9D476399F90281451305B0046A
:10063400E139BD442320090023220900FD597D31FD
:1006440093F77400CA9703C70700FD14398D2380FC
:10065400A700E39634FFEDB3A1476392F904CD39C3
:100664008144630D0B008D479304C0036308FB00B2
:100674009304000563048B01930440041375C507B8
:10068400E30095DC19459931993905458131268571
:10069400AD3109459D316D39E31405DAE9B391476C
:1006A4006399F9001305600615311539130590098E
:1006B40025B7E38709D8F15469B309CDB7170040CA
:1006C400130770052380E704130780FA2380E704E7
:1006D4002396A702828019C1814799E982803387D2
:1006E400F500834607003307F50085072300D7008C
:1006F400E397C7FEE5B719C1FD5781E982809105EB
:1007040003A7C5FF1105232EE5FE7D16E319F6FEAA
:10071400F5B7797122D417340000130464A91C407E
:1007240006D626D24AD04ECE91C78297973700007C
:1007340023A007A85C4089CB03D5818FBD3F5C40D3
:10074400829703D5A18F953F1C406399071897376B
:10075400000083C7F7B7858B95C797370000A38937
:1007640007B6173700000347D7B6914763FCE70085
:10077400792B9737000083C7D7B5F9178A07A29753
:100784009C4382979737000083C747B9918B89C7E9
:10079400971001E0E78060B61C4491C38297938769
:1007A400418F9843173600000346569E3E8997347E
:1007B40000009384A49D9737000083C7279D9396D8
:1007C4001700BA9683D60600638006109737000098
:1007D40083C7C79B63F2C70886073E978355070004
:1007E4002310070003D5818F2EC623900190F13585
:1007F4009387C1909C43173500000345259913172F
:100804002500BA979C43B2458297AA8903D5A18F44
:100814006D359737000083C76797139717008327B1
:10082400090003D501901345F5FFBA9703D70700D4
:1008340033753501598D2390A70083C704008507BC
:1008440093F7F70F173700002302F79417370000C8
:100854000347D79363E6E70097370000238807929E
:100864001C40ADEF9387419098433E8425CB973746
:10087400000083C757A691CB9737000083C777A59D
:1008840089E7970001E0E78000581C4082972A849A
:1008940031C59C48AA97173700002321F790938706
:1008A40081909C4385CF03D5818F013D228597F0AC
:1008B400FFDFE780801E2254B25092540259F2495D
:1008C40003D5A18F4561D5BB850793F7F70F9736FD
:1008D4000000238DF68AE3E0C7EECDBDB25022546A
:1008E40092540259F249456182809167B7C600402B
:1008F4009387373023A6F6200F10000097370000A7
:100904009387C788884F9387419F9C433167130718
:100914003730F053B7071000FD17918F99833A05CC
:1009240023A6E6205D8D82804111B7170040985FB1
:100934003AC6945F3247E39CE6FE32454101828029
:10094400411106C6D5379736000083C6A681858A2D
:10095400B1C6930730333307F502B337F502398351
:10096400CA07D98F1737000013074782584B014530
:100974006303F7023385E740636BF70037653D088F
:1009840089C637856F0813050590198D3E9517376D
:1009940000002327F780B24041018280E5473307F6
:1009A400F502B337F5022583DE0765BF0327C50FBC
:1009B4008346B50097370000938747919C4F58436F
:1009C4009386160295829043FD1693F6F60F10C394
:1009D400D04350C3904710C7D04750C7904B10CB5B
:1009E400D04B50CB904F10CFD04F50CF91C6130760
:1009F400070293870702C1BF82808347E50193F70B
:100A0400E70FF1EF2A870345F50171E90346070172
:100A14008346870009CA8345A7029727000083C736
:100A2400777463E7F50093F70601C5CF814709CAD8
:100A34008347871503467715C18AA207D18F81CAD8
:100A44008346B7150347C7152207558FBA97D1CBED
:100A540017370000130707933847411122C406C60D
:100A64007D548326070863F386003684184375FB98
:100A7400172700000347076F93168701E18663D9A0
:100A840006029387C7139583172700000347276E31
:100A9400BA9763D006041D8C938701919C43829777
:100AA4003335A400B240224413451500410182802D
:100AB400058B9387C71209CB8A079387F70313051E
:100AC400D007B3D7A702C9B78607FD071305D0031C
:100AD400CDBFE372F4FC3705C0A82A946DBF01456D
:100AE40082808280411122C41384419E18404AC0EE
:100AF40006C61C5F26C21389019E9983858BC1C3D8
:100B04001C5F972400009384647C93F7F7F91CDF3F
:100B14009727000083C7877B93F707048DC39387C8
:100B240001919C4382979727000023A9A77A83C742
:100B3400040093F7F70B172700002309F77885477C
:100B440017270000A306F77883C7440093F7070428
:100B540081EF9387419F9C43D844B8D3930700FC0B
:100B6400172700002306F7768387640063D90700FC
:100B7400832709009C4317270000230CF7741840AF
:100B84001C5F8583858BC9CBF5571CDF01000100F1
:100B94000100010001000100010001000100010049
:100BA4000100010001000100010001000100010039
:100BB4000100010001000100010001000100010029
:100BC4000100010001000100010001000100010019
:100BD4000100010001000100010001000100010009
:100BE40001000100010001000100010001000100F9
:100BF40001000100010001000100010001000100E9
:100C04000100010001000100010001009387419FE0
:100C14009C4313075004B8CB18401C5F9183858B09
:100C240089CFBD571CDF9387419F9C4323A80704AA
:100C3400854717270000230DF76883270900D84349
:100C44000583058B19C7D843759BD8C3D843799BB3
:100C5400D8C3B2402244924402494101828039718E
:100C640006DE16DC1ADA1ED82AD62ED432D236D0B4
:100C74003ACE3ECC42CA46C872C676C47AC27EC058
:100C84009535F250E2525253C2533255A255125680
:100C940082567247E2475248C248324EA24E124F21
:100CA400824F2161730020309387419F944317271B
:100CB40000001307A761BC5289CF83472700858BA7
:100CC40089EB83473700858BFDD797270000238165
:100CD4000760828037C700401306C00393062003D1
:100CE400972500009385855E83278720C18393F72A
:100CF400F7036369F60083278720C18393F7F7031B
:100D040063E6F60083C74500858BF9DF828093870D
:100D1400419F9443172700001307475BBC5289CBBC
:100D240083470700858B91CB972700002382075ABE
:100D340097270000A38E0758828083471700858B6E
:100D4400F1DFDDB79387419F904337C70040C1452A
:100D5400E54683278720C18393F7F70363FBF500F8
:100D640083278720C18393F7F70363E4F6003C529B
:100D7400EDF382801387419E1843AA87185F158379
:100D8400058B25EF0345150015051377C51F19C6F7
:100D9400B386E70083C626002300D60095C59726B0
:100DA400000083C6065393F606040945A1CAB38618
:100DB400E70083C63600054693F5F6066390C5043E
:100DC400E206E18663CC06023385E700834715001B
:100DD40003470500A20793F70770D98F13970701FC
:100DE40041839376074099C6136707802396E19E53
:100DF400014582802396F19EE5BF05458280938656
:100E0400419F8C423685972600009386264C984550
:100E140093170701C183137817203E8663040804DF
:100E24001377072079C303C7260013671700172811
:100E34000000230EE84813070019B8D1130700F87F
:100E4400972500002386E5481387419E0C43370805
:100E54000010D855719B13672700D8D59841336784
:100E6400070198C11377261005C31376061059CECF
:100E740003C7060013671700172600002308E6447B
:100E8400172700002318074483C6460093C7F7FFBB
:100E9400C207E206E186C183184163D10602939634
:100EA400170163DE060630538D4663E9C6008546A6
:100EB40017260000230ED6403453FDFE972600006B
:100EC400938606298386460163DD0600939607010F
:100ED400C18663DC06047053894663E4C600745318
:100EE400FDFE1447F58F1CC7828003C716001367E5
:100EF400170097250000A38BE53C17270000230962
:100F0400073C172700002317073CA9BF03C7360077
:100F14001367170017260000A30BE63A95B785461A
:100F2400172600002306D63A51BF544713960601EC
:100F340063510602B7061000FD1674D3972600000D
:100F44009386C624944E850617260000232CD624A7
:100F540049BFA166D58F71B7397106DE16DC1ADA7E
:100F64001ED82AD62ED432D236D03ACE3ECC42CA5D
:100F740046C872C676C47AC27EC05135F250E25277
:100F84005253C2533255A255125682567247E24703
:100F94005248C248324EA24E124F824F2161730012
:100FA400203017270000130727348346B7019727FB
:100FB400000083C7B736B69793F7F70FFD4663EA89
:100FC400F6044C4B97260000A380F63297270000C6
:100FD40083C7973105473317F70097260000A38F7F
:100FE400F6326D8F1DEF9726000083C67633B3F675
:100FF400D70213050002814733D6F500058A13F89A
:10100400F70F09CE6399E60097270000A38E072DFA
:10101400828081177DB705071377F70F8507E39D56
:10102400A7FC8280938701A09843B7570200938757
:10103400279F8326070913965600635806008326C4
:1010440007091396660063440600FD17FDF38280CA
:1010540051C9AA870145C9C98D07C207C183F19B3C
:10106400C207C18313074003636BF702138701A907
:101074000843138781A814436396A6021727000028
:101084001307070D185B014525C34111C20706C6A6
:101094000545DD8D0297B2400145410182801387E9
:1010A400C1A8F9B70357650005EF03574500636905
:1010B400F702B306F74021466370D60210419386C7
:1010C40087001D8FAA96611790C22392E60023938E
:1010D400060014C12312F5002313B50021058280F4
:1010E400084159BF01458280828001CD938701A9BF
:1010F40003A80700938781A88C430147C28763E351
:10110400B70082809443636FF50663EDA6061386E9
:101114008700E368C5FE03D56700216605066317EB
:10112400C50003C6419A05062382C19A239307008A
:10113400638407031386C1A81042630FF6000356A5
:10114400670019EA83D7470014C383564700B6974C
:10115400A1072312F700BA879843E304B7FA9386EA
:10116400C1A89442E30FD7F883566700D9FA83D60F
:101174004700035647001843A106B2962392D700AE
:0C11840098C382803E87B6879DBF0000A4
:10119000974100209381814C17710020130181E653
:1011A00013054000972500209385C565173600205C
:1011B0001306067E63FAC5008322050023A05500AE
:1011C00011059105E3EAC5FE17D501001305C5BB5E
:1011D000973500209385C57B1386818963FAC50006
:1011E0008322050023A0550011059105E3EAC5FE01
:1011F00013858189976500209385C5A36377B50022
:10120000232005001105E36DB5FE9302800873A04D
:101210000230972200209382E25E93E212007390E4
:10122000523097220000938262B873901234730098
:1012300020303D432A876373C3029377F700BDEFE5
:10124000ADE5937606FF3D8ABA960CC34CC30CC736
:101250004CC74107E36BD7FE11E28280B306C3405F
:101260008A069702000096966780A6002307B700BB
:10127000A306B7002306B700A305B7002305B700F0
:10128000A304B7002304B700A303B7002303B700E8
:10129000A302B7002302B700A301B7002301B700E0
:1012A000A300B7002300B700828093F5F50F939653
:1012B0008500D58D93960501D58D61B7939627004E
:1012C0009702000096968682E78086FA9680C1177C
:1012D0001D8F3E96E374C3F8A5B7B717004003C748
:1012E00077051377E70FA38BE704130700F8A38DA7
:1012F000E7043D47238CE70413075003A38CE7045E
:101300008280B717004003D587005D715ED6420525
:10131000418186C6A2C4A6C2CAC04EDE52DC56DADD
:101320005AD862D466D26AD06ECE9377050C130772
:101330000008814B6388E71813070004639CE714D7
:10134000B7240D8F7D8993840480B3D4A402916760
:10135000938707E8BE94A167938707D0B3D4F402BC
:10136000EFA0B10697C701009387C71B9043D443F2
:10137000EFA0613AEFA0F1472A8B939C040103D9B7
:10138000818993DC0C016315090005691309098043
:10139000B7170040130770052380E704130780FA8E
:1013A0002380E704371A00400547939D0401096C28
:1013B00085662389E704D14A814E8145130D0A04CD
:1013C00013087005130680FA894893DD0D01130C8C
:1013D0000C712943FD1623000D012300CD002316B7
:1013E0002A0323000D0083472A05898BEDDF8357ED
:1013F0000A0583472A05898BEDFF83472A05898BD8
:10140000EDDF83570A05239C2189C207C1833385F9
:1014100097419319050193D90941638409163387CC
:10142000B902635E070C850EC20E93DE0E0163E8FF
:10143000D80D63D9050A3305B04093150501C18560
:10144000C204C18063D7350B096513050571338567
:10145000A502B7170040130770052380E7041307A0
:1014600080FA2380E704239677032380070433451B
:10147000950242054181B640264496440649F259F8
:10148000625AD25A425BB25B225C925C025DF24DC0
:1014900061618280B1E3B77489097D899384048096
:1014A000B3C4A4029167938707E8BE94A1679387AA
:1014B00007D0B3C4F402EFA0417197C7010093872E
:1014C000E7066DB597C7010093874705856403ABB1
:1014D00007009384843855B5130B0000954471BD03
:1014E0003A89D5BDB387FC409399070193D9094147
:1014F00081BF0965130505713385A9028DBF338549
:10150000B74163E4FC003385FD4033058503334474
:10151000B5036345830013150401A9BF4E8536C684
:1015200042C432C2EFA09120DA85EFA00171EFA092
:10153000D119931E050193DE0E41B307D941C207AD
:10154000C183056E3E871246224889482943B24628
:1015500063E3C701368742074183631A27011307F4
:101560001900634430011307F9FF42074183FD1A54
:1015700093FAFA0FCA8BCE85E3940AF6239CE1888E
:1015800059BF0145CDBDB717004003D587005D7138
:1015900086C642054181A2C4A6C2CAC04EDE52DC44
:1015A00056DA5AD85ED662D466D26AD06ECE02C6F9
:1015B0009377050C13070008638BE71413070004E7
:1015C000639FE710B7240D8F7D8993840480B3D483
:1015D000A4029167938707E8BE94A167938707D019
:1015E000B3D4F402EFA0615E97C70100938787F33D
:1015F0009043D443EFA02112EFA0B11F2A89939A00
:10160000040103DBA18993DA0A0163150B00056B62
:10161000130B0B80B7170040130770052380E704F6
:10162000130780FA2380E704939B04010547896927
:10163000056A2389E704D14D014D814C93DB0B01F1
:10164000938909717D1A5A8597200020E7804027E9
:10165000330C5541420C135C0C41239D618963019D
:101660000C16B3079C0363D1070E050D420D135DE5
:101670000D01894763EAA70D63DB0C0A330590412E
:10168000931C050193DC0C41C204C18063D88C0B10
:101690000965130505713385AC02B71700401307C0
:1016A00070052380E704130780FA2380E70432479C
:1016B0002396E702238007043345950242054181C2
:1016C000B640264496440649F259625AD25A425BC1
:1016D000B25B225C925C025DF24D61618280B1E39B
:1016E000B77489097D8993840480B3C4A402916787
:1016F000938707E8BE94A167938707D0B3C4F40229
:10170000EFA0A14C97C70100938747E2D5B597C7D3
:1017100001009387A7E0856403A9070093848438B8
:10172000F9BD130900009544D9BD3E8B29BF33850F
:10173000AA40131C0501135C0C41B9B709651305D8
:1017400005713305AC028DBF63FEAA0033057541F8
:1017500033053503A9473344750363C88700131560
:101760000401B1BF3385AB40E5B76285EFA0017CD2
:10177000CA85EFA0814CEFA04175131D0501135DD3
:101780000D413307AB41420741838565BA876363E7
:10179000B700D287C207C183639A670193071B0012
:1017A000634480019307FBFFC207C183FD1D93FDC6
:1017B000FD0F5AC6E28CE39A0DF6239DF18845B7DA
:1017C0000145FDBD41112A83014E930E407E130F4A
:1017D0000019930F400663EB6E0A93080019130378
:1017E0004006B3781503854E0D4FA14F3373650244
:1017F0000D891335150063E5BE0C1308F6FF794615
:1018000072984208135808013307C70213D617000D
:10181000BE0732976146B3F6C60213068070B386E0
:10182000C6023697A166F58F42075D8FB717004055
:1018300083C6F70293F60608A307D1000346F1001A
:1018400083C6F70293F60608E394C6FE8346F100CA
:1018500093F6F60FF1DE930670052380D704930606
:1018600080FA2380D70423AA070383C6170393E6CD
:101870000608A388D702D8DB03C71703136707043A
:10188000A388E70223800704410182807D13336827
:10189000E3039308E016630E08003368F30393082C
:1018A000D016630808009378330093B81800938823
:1018B000D81633081E01131E0801135E0E0121BF46
:1018C0006393E5030548638608000148630303004A
:1018D0002A8871087298FD15131E0801C205135E4F
:1018E0000E01C18109BF13F8150063F4BF00790828
:1018F000D5B713381800E5BF914763EEB70217C795
:101900000100130727C38A05BA959C41BA978287BD
:10191000B717004003A7470B1345F5FF698F23AAAC
:10192000E70A03A7070B698F23A8E70A03A7070A9B
:10193000798D23A0A70A8280B717004083A6470BA2
:101940001347F5FFF98E23AAD70A83A6070B558DF7
:1019500023A8A70A83A6070A758F23A0E70A828017
:10196000B717004003A7470B498F23AAE70A03A72D
:10197000070B1345F5FF45BFB717004083A6470B7C
:101980001347F5FF758F23AAE70A03A7070A598DA6
:101990004DB7B717004003A7470B498FEDB7B717EF
:1019A000004003D58700420541819377050491EB00
:1019B0009377F5013755E801130505803345F502A6
:1019C00082809377050C130700046397E7009377F1
:1019D000F50137459C1CCDB72165130505D08280E4
:1019E000B7F700E0C8439C47828081473737004003
:1019F000A14663C4C700328582800345B740E38EA9
:101A0000A6FE3385F5000345050085072304A7409E
:101A1000CDB797370020938767449C431757002022
:101A2000130747213E95636EE500176700201307F3
:101A3000673D6368A700173700202321A7423E8532
:101A40008280FD57EDBF411122C406C62A84813F22
:101A50002947B307E502B2408D83B3D787022244FA
:101A60009507B3D7E70237370040C207C183231673
:101A7000F74041018280716541111305052006C6BA
:101A8000D937B7370040130770F82381E7400D4777
:101A9000A381E74013070004A380E740054723879D
:101AA000E740B240410182809387818A9C43411183
:101AB00006C691C382979387C18A9C4391C382973C
:101AC00003D761809307001963F7E70403D581808A
:101AD0009306F01863E4A6049386418A03A30600E4
:101AE00063070300B2401305001941010283050793
:101AF000098F3385A740E5473305F5024207418347
:101B000009839307F7FF3E953345E5021375F50FFB
:101B1000B2404101828013054006DDBF0145CDBFC3
:101B200003A84500411126C206C622C483471800F7
:101B300003480800A944A207B3E70701C2070D68DC
:101B4000C187130828906396070385473284EF50B6
:101B50009048AA8419ED9387018A9C4399CB034549
:101B60001400034704002205598D1335150005059F
:101B70008297B240224426859244410182802D45BD
:101B80003DE7D841411122C426C206C6834717004B
:101B900003470700B684A207D98F0D67930697A164
:101BA00032846396D702093783C741806374F50096
:101BB0002382A18085472390F40083C741802300BE
:101BC000F4000145B240224492444101828013074F
:101BD00087902945E398E7FECC4589472390F40098
:101BE0000946228597200020E780202FD9BF8280D8
:101BF00083474500858BADC7011122CC2A8403554C
:101C000025009385C1AA06CEEF50B037058929C5B6
:101C100003552400014781460546ED45EF50A0706D
:101C20002AC61DC997370020938787D683D7A70276
:101C300001462C002314F10085472315F10083C7CA
:101C400041802300F50003552400EF60700F09C5A3
:101C5000ED452800EF501005F24062440561828096
:101C60008280416541119385C1AA7D1506C6EF703A
:101C7000407EB24097360020938686D641469545F1
:101C8000173500201305C5D041016F70C07023A027
:101C9000A18A8280411122C406C685470944631186
:101CA000F502834706000144238EF18803C7418073
:101CB0006378F700170500001305C5F3EF90D02CEB
:101CC0002285B24022444101828085476301F502AA
:101CD00009C909476302E5020D476306E5020945A4
:101CE000828083C741802380F500014582809387ED
:101CF000C18983C70700C5BF9737002083D7E7C9CD
:101D00002390F500DDB71387C180035707002392A6
:101D1000E500173700201307A7C78356A70203570C
:101D2000A7032383F5002390D5002391E50075BF19
:101D3000411106C6953B83C74180637AF500238233
:101D4000A180170500001305E5EAEF90F023B240EB
:101D500001454101828041677917630CE502411119
:101D600022C406C685472A84639AF5002285224448
:101D7000B2409385C1AA41016F70A06D89476396F7
:101D8000F5008545EF90D01A75D1B240224441014B
:101D900082808280CC41411106C6328503C615007F
:101DA00083C5050022064D8E42068D654186138847
:101DB00075A2630C060F6348C804138845A2630626
:101DC000060B634AC800938535A26309B6062390C3
:101DD0000600294679A0138855A26308060B93854F
:101DE00065A2E316B6FEC1451D4663ECE506454611
:101DF000198E63F3C7003E862390C60097B5010095
:101E00009385857589A8138895A26300060F634E94
:101E1000060B1388A5A2630A060F938505A5E31890
:101E2000B6FA99451D4663EEE502198E63F3C700C5
:101E30003E862390C6009385418131A89D451D466D
:101E400063E1E5022146198E63F3C7003E862390C5
:101E5000C6009385018BBA9597200020E780E007A4
:101E60000146B240328541018280AD451D46E3EA1C
:101E7000E5FE3146198E63F3C7003E862390C60007
:101E800097B5010093850571F9B7B1451D46E3EAA1
:101E9000E5FC3546198E63F3C7003E862390C600E5
:101EA00097B50100938505707DB7C1451D46E3EAEE
:101EB000E5FA4546198E63F3C7003E862390C600B7
:101EC00097B501009385856A79B7C1451D46E3EA58
:101ED000E5F84546198E63F3C7003E862390C60099
:101EE00097B501009385056DBDB7C1451D46E3EA71
:101EF000E5F64546198E63F3C7003E862390C6007B
:101F000097B501009385C567B9B7B5451D46E3EAA6
:101F1000E5F43946198E63F3C7003E862390C60068
:101F200097B50100938545623DB7973600209386AB
:101F3000E6BE4146CD4517350020130525AB6F7031
:101F40008045416541119385C1AB7D1506C622C40C
:101F500026C24AC097340020938404BDEF70604FBE
:101F600097360020938646CE4146C9452685EF70B8
:101F70008042CC4C2A890945893B9387C18283D70B
:101F800007001384C1AC138701832312F40083D7A5
:101F9000A40C035707009385C1AD2310F40083D729
:101FA000A40D2316E40003D7A4102311F4000D455B
:101FB00085472303F4002314E4002307F4002315CA
:101FC00004002133A2850D459526B24022444A855E
:101FD00092440249410182808D679387D7A40145CD
:101FE000631FF6008D472945639BF50085473545FE
:101FF0006397F600834707000145238DF18A8280AD
:102000008D679387D7A4631EF6008D47639BF50009
:1020100083C7A18B2300F70085472390F600014575
:10202000828023900600E5BF82809387418D9C4388
:1020300003C7818C83C6318201E781473E85828058
:1020400003D607006316A60003C66700E308D6FEA2
:102050007D171377F70FA107C5B7B2862E86AA851D
:1020600017B50100130545586FA001220111930512
:1020700000030D4506CEEF30201E930500051145E7
:10208000EF30801D9305C0030545EF30E01C854708
:102090001306F100854513055030A307F100EF70DA
:1020A0008131F240056182808547631AF50011662F
:1020B000130686A9894503C5918C6F10802D894729
:1020C0006317F500894503C5918C6F10204382800A
:1020D00085476398F50019E22380B18C238CC18C6D
:1020E000828009476398E50011E62380F18C03D5CF
:1020F000E18B99AD82809387C18C9C43011122CCE6
:1021000006CE2E8481CB9C4791C78297F2406244D1
:10211000056182806C0013057040EF50F13D32463E
:1021200081452285EF50917ED5B7411193970501E6
:1021300022C406C6C1872E8463DF070003C5918CC5
:10214000EF00105419C1EF00104D2165218DB240F0
:1021500022444101828093F7150091CF1736002069
:10216000130646AF9385418303C5918CEF60917848
:1021700013451400E9BF93F725000145E9DB4D3E07
:102180001166130686A9894503C5918CEF1060205E
:10219000134524006DBF797126D24ECE06D622D4C7
:1021A0004AD052CC9147AA84AE896314F50483D7F0
:1021B000A5001306E100854513055030239FF18AE1
:1021C000230701002380018CEF70E11E9387C18CEF
:1021D0009C4391C7DC4781C7CE8526858297B25044
:1021E000225423A2918C02599254F249624A4561C9
:1021F00082801387418C1843E31AF7FC854503D589
:10220000E18B913E854503D5E18B692BC16703DAEC
:10221000E18BF917631BFA0205449305E1001305EE
:1022200050412380018CA381818223070100EF505C
:10223000B12C8347E100B1E303C7818D9147E317D8
:10224000F7F82D35238C018C51B79387418D03A965
:10225000070003C4818C69D00355290011C9930577
:10226000E100EF50703609C54C455285EF70601E95
:102270007D141374F40F2109F9BF9387018D9C43DA
:1022800083C74700898BCDDB9305000A0D45EF20FE
:10229000B07C9305000A1145EF20107C814505456F
:1022A000EF20907B1306E10085451305503023078E
:1022B0008100EF70411049B70111170500001305A7
:1022C00005E706CE22CCEF1000471384918C85479A
:1022D0001306F10085452300A40013054041A30720
:1022E000F100EF60210A7D55EF40504D7D55EF70B4
:1022F00020132539EFF0FF96392917050000130543
:10230000E5DAEFF0DF9817050000130525D215294F
:10231000034504008545EF007075F2406244056195
:10232000828023A6B18C23A8A18C828023AAB18CA1
:102330002384A18C82809387418C9C43797106D63B
:1023400022D426D24AD04ECE52CC1147639BE7040A
:1023500083C7018C414481CF9387418D8043B284F0
:10236000B68983C7818C03C7318299EB5544228596
:10237000B250225492540259F249624A4561828015
:1023800083464400639AA600834654006396B600D1
:10239000834664006380E606FD1793F7F70F210478
:1023A000E9B709474144E384E7FC2C001305504199
:1023B00023040100EF505114834781008DCB930516
:1023C00000020D45EF205069930500031145EF20F1
:1023D000B06895450545EF20306885473000854554
:1023E000130550302304F100EF60F17C49B7BD398B
:1023F0004144B5BF0355240093056100EF50D01C44
:1024000035D54C4503D5E18BEF50A037058939DD33
:102410001399040113590901014781464A86ED4584
:1024200003D5E18B035A0400EF40F06F2AC64D44F8
:102430001DDD2686CE852314410123152101972019
:102440000020E78080A901462C0003D5E18BEF60D6
:10245000200F2A84E30D05F0ED452800EF5080049D
:1024600039B7C841011122CC06CE3284034615008B
:10247000034505002206498E19CB0D681308B8A440
:102480002D4563090607F2406244056182800D65AF
:102490001308D5A463000603130825A2630C0601E4
:1024A00075781308E85C329842081358080185488B
:1024B00063EE080303D5A50036C632C4BD36B24666
:1024C00015C19387C18C9C4322468345550003A3C5
:1024D0000700A2876244F2400345450036878546DF
:1024E0000561028323900600014571BF1308B5A45E
:1024F0006317060303D681821D45E376C7F8198E5C
:1025000063D3C7003E86CC452390C6004206418275
:10251000BA95228597200020E780209CF1B7930789
:10252000A5A46318F60091472390F6001146CC4508
:10253000CDB7930785906317F60089472390F6007F
:102540000946F5B79307E5A4631AF600DC45239026
:10255000160183C707002300F40079B713057590AF
:10256000E314A6F8D9BF011122CC06CE26CA4AC868
:102570002317D1002D4429EBDC412E89B28403C4FA
:10258000170083C7070022045D8C8D679386D7A44C
:102590006306D400938627A3631FD4020355A900C2
:1025A000693419E101440DA09387C18C9C43834594
:1025B00055000345450003A807002286A687130798
:1025C000E100814602982A842285F2406244D24486
:1025D0004249056182809386C7A46314D40283575D
:1025E000E10005473544E391E7FE03450600130487
:1025F0000008E3EBA7FC9387C18C9C43DC438297E4
:1026000055B793862790631AD4028356E100854715
:10261000EF50601C2A844DF99387418D8356A900A1
:102620009C4303C7818C3DDF03D627006302D60499
:102630007D171377F70FA107FDB79387E7A4E3137F
:10264000F4F68357E10005473544E39FE7F6034579
:10265000060013040008E3E9A7F6DC452380A70081
:102660009387C18C9C433335A0000905DC4341BFEF
:102670001387C18C184303C5470083C5570083C720
:1026800014000328070003C70400A2078946D98F56
:10269000C207C18705476383E7008D460D66A6879D
:1026A0001307E10013062690029839BF0145828086
:1026B00025E303A84500AE888347180003480800B7
:1026C000A207B3E707010D68930EF8A4639AD70336
:1026D00091473548639FF60203A5C8004111B285B2
:1026E000114606C697100020E780207F9387418E11
:1026F0009C4305458297B240014842854101828052
:102700009308289029486396170185476F50A00CBD
:102710002D484285828041654111938541AE7D15EA
:1027200006C6EF601053B2409726002093864659A4
:1027300041469945172500201305855241016F60D8
:10274000904523A2A18E82800111938541AE22CCB7
:1027500006CE2A84EF50E002058929C1014781464F
:102760000546ED452285EF40103C2AC605C997274E
:1027700000209387E74E83D7A70501462C0023143A
:10278000F10085472315F100230005002285EF5055
:10279000305B09C5ED452800EF40D050F24062445F
:1027A0000561828041677917630CE502411122C4FB
:1027B00006C685472A84639AF50022852244B240E2
:1027C000938541AE41016F60D04889476396F5001B
:1027D0008545EF80F07575D1B24022444101828079
:1027E0008280411106C6EFE0DFB1BD4763F4A70068
:1027F000EFE03FB1EFE03FD9BD4763F4A700EFE062
:102800009FD8B24083D5A18903D5818941016F004A
:102810005060411193962500AA852D4506C6971054
:102820000020E780A036B24001454101828041117D
:1028300026C29394250022C44AC02A843289A686DF
:10284000AA850146254506C697100020E78000347A
:10285000A6864A86A285294597100020E780003386
:10286000B240224492440249014541018280011153
:1028700022CC06CE3714004026CA4AC84EC652C4DF
:1028800083447405034AB4058349840503499405C8
:10289000EFE0BFA48347A40593F4F40F137AFA0F73
:1028A00093E71700230DF40493F9F90F1379F90F47
:1028B000B717004003C7A705058B6DFF03D5C705F4
:1028C000A38D4705238C3705A38C2705A38B97047D
:1028D000F2406244D2444249B249224A05618280B0
:1028E00041119397050122C406C6C1872E8463DB7C
:1028F0000700792311C105232165218DB2402244AF
:102900004101828093F7150013C51500E5FB9397ED
:10291000250163D00702EF103171E13537F602006F
:10292000130606E0896503C5818EEF0090260965D0
:10293000E9B7939715010145E3D207FC17B50100EC
:10294000130545D1EF90F12513060064916503C589
:10295000818EEF00102411654DB71D71494697B562
:1029600001009385A5CA17B501001305A5F286CE0F
:10297000EF00F00901E917B50100130565CAEF90F2
:10298000512201A037F700E0F9575CC7FD571CCB77
:102990008566B7E700E023A0D7101306701010C3B8
:1029A000B8434146B0C323A0D718B8C30100010003
:1029B0001306C00381454808EF00407F9727002099
:1029C000938707793ECA896793870780231CF100A4
:1029D000ED47A301F1029307A0102312F102D147A2
:1029E0002303F102A167938707E03ECE970700001B
:1029F000938767E2BEC497070000938787E3BEC64C
:102A000085472304F102B5472308F10297F7FFFF3A
:102A1000938747FD3EDAB7F50700970700009387D5
:102A200047E53EDE8146970700009387C7DB7000CD
:102A3000E1051945BEC097100020E7802015580811
:102A40008147994670003E960346060085070507B4
:102A5000A30AC700E398D7FED24791C70357810165
:102A600085676373F70001A04808EF005050AA85FE
:102A700001C917B501001305E5BBEF90F10001A0F6
:102A8000F64025618280411117050000130585E598
:102A900006C622C4EF00304A1384818E2300A400AE
:102AA0002928034504002244B24037F602001306E9
:102AB00006E0896541016F00D00D411106C622C4B0
:102AC00093067005371400402300D404130780FADE
:102AD0002300E4048347F40293F7A70FA307F4024B
:102AE0002300D4042300E4048347F40293E727007F
:102AF000A307F402FD311305407E2300040481473F
:102B00000147814605468545EFE0DFCB2244B240D0
:102B1000014541016F00D07282807D15954763E7C2
:102B2000A70C17B70100130727B30A053A951C41F4
:102B3000011106CEBA9782872C0013054030EF6052
:102B4000C1792C000545EF30D04517B501001305BC
:102B5000A5B3EF9011058DA817B501001305C5B3F6
:102B6000CDBF83D7A5000D6613060620914503C58A
:102B700021852398F184EF00D00117B501001305DA
:102B8000A5B2C1BF17B501001305C5B2D9B783C738
:102B90002500114717B50100130545B36380E7040D
:102BA00019476396E70283C5650017B50100130551
:102BB000A5B3EF90616D8547300085451305503012
:102BC0002304F100EF60217FF24005618280154708
:102BD000E393E7FE17B501001305C5B2EF90617CE2
:102BE000D9BF17B50100130565B3A5B782803A8830
:102BF0003E8789E6834608006FF00FBE85476395E0
:102C0000F600C2866FF0CFBF8947639FF60041117F
:102C10001306401F894503C5218506C6EF0060776E
:102C2000B2400145410182800145828001119397A4
:102C3000050122CC06CEC1872E8463DD070003C5C3
:102C400021853D2C11C1C12A2165218DF2406244AC
:102C50000561828093F7150013C51500E5FB93F716
:102C6000450099CF83C721851307401F8146214620
:102C7000A14503D50185EF60414113454400F9B7F3
:102C800093F725000145F9D3930700107400094616
:102C9000854505452316F100EFF0EFE9740009467C
:102CA0008545054523160100EFF0EFE813060064A3
:102CB000894503C52185F12D1345240041BF01112C
:102CC000170500001305C5F606CE22CC26CAEF0074
:102CD00090269384218505442380A40070008545B7
:102CE0001305503023068100EF60E16C13860184E8
:102CF0009D4513056030EF60016C17260020130618
:102D0000E6FDF54513057030EF60E16A17B6010086
:102D100013060696D5450145EF40601C8D477000AF
:102D20009145130570402305F10023048100A3059C
:102D3000810002C6A3040100EF50C1643000854544
:102D400013050040EF5001641306910085451305FB
:102D50001040EF5021631306A10085451305204064
:102D6000EF5041621306B100854513055040EF5006
:102D7000616199477000854505452306F100EFE044
:102D80007FF1EFF00F9C97250020938525F41385A4
:102D90008184EFF00FD903C504008545C129F240B5
:102DA0006244D2440561828041111305800406C645
:102DB00097100020E78060B5371700408327870A07
:102DC0008D451305002093E707202324F70AEFE041
:102DD000BFB2EFE05FCA17B501001305A5ABEF90D6
:102DE000415CA53E4D31EF609103EFF0EFCCC13D6A
:102DF00097100020E78040CD23AC05FE1C4191E7F1
:102E0000010001000CC18280BA8703A787FF6DFF14
:102E100023ACB7FE82801DC18346E5FF1307F00F88
:102E20009147639EE600411106C697200020E78087
:102E300000ACB24081473E854101828095473E8586
:102E4000828001E9014582800145B240224441016E
:102E50008280411122C42A84210542059305D004B1
:102E6000418106C697200020E780C09E71DDFD5796
:102E700023200500231285002303F5002105F1B767
:102E80001387018F1C43411122C426C24AC006C6C3
:102E900001440149BA8489E7A1658D250DC401A8C3
:102EA00003C7E7FF6318A7021DC8A165C1269840A4
:102EB000832784FF6317E40223A8F18EFD57232C98
:102EC00004FE230FF4FE2285B240224492440249BC
:102ED0004101828011E03E8983A787FF6DBF3E8458
:102EE000E5BF232CF9FED9BFA9C9411122C406C6EA
:102EF0002A849747002083C777A92E856368F4004A
:102F0000193F0D45B24022444101828083A785FFCD
:102F100099E703C7E5FF9307F00F6305F700E53D69
:102F20001545CDB7238F85FE1385018FF135228599
:102F30002244B240A165410115AE1545828023A807
:102F4000018E8280938781909C4399E33E858280A5
:102F500003D727006316B70003C70700E308A7FEDF
:102F6000DC47E5B74111939705014AC006C622C464
:102F700026C2C1872E8963DE0700193711C1613D62
:102F800021653345A900B2402244924402494101DF
:102F90008280AA860145E5D901443D47B35789405F
:102FA000858B95CB9387C18F8443BD4791E2814741
:102FB000A2978E070545BE943315850013140501AD
:102FC0009C40C8404180829723A0040023A20400B3
:102FD000334524014DBF0504E312E4FC0144CDBF99
:102FE000974700209387C7969C53411122C406C679
:102FF0001384418595C7829723AAA1840840B747C7
:1030000003009387D73F3305F502B7A726009387C0
:1030100037ECB24022443E9523AAA184410182802C
:10302000974700209387879618409C4BBA9723AA0E
:10303000F184E9B79387418F90439746002083C678
:10304000F694814713F7F70F6360D70A17470020FC
:10305000034737A8914763E0E70A9747002083C7F3
:10306000E7AB918BC9EB0111680006CE22CC26CAD2
:10307000EFC00041FD56630FD50C32479747002043
:1030800083C7378E63F3E70C1747002013070790B9
:103090004047174700200347E78C6305D406058B9C
:1030A00021CF51473304E40263F1870A97100020CF
:1030B000E780C007B2476373F400A2871747002078
:1030C0000347378A998F3E95974700209387478813
:1030D0008387470163CD0702B707C0A86369F5027C
:1030E000B70740573E9525A08507139717003297DD
:1030F0000357E7FF21DB8280130790023304E402C9
:1031000005805DB762076187635707001D8D19E968
:103110003705C0A801A8E37BF5FE3707C0A8B307B1
:10312000F7403E959747002093878782DC5382972C
:1031300009ED97470020938767999C4F99C7EF1037
:103140004124EF105102EF102118F2406244D244A2
:10315000056182809747002093874783DC47E38699
:10316000A7FE173700201307A77E83464701BA84BE
:10317000858A9DC65144338487029737002083C7D0
:10318000577EE3F487FC97100020E78020FA9737FA
:10319000002083C7177D1D8C2295838744011DBFA6
:1031A00013049002338487020580C1BF2A9609E583
:1031B00082800505A30FB5FEE31DC5FED5BF81477F
:1031C0003307F5000307070019E33E858280850772
:1031D000C5BF01112E8626CAAA84131506019305C0
:1031E000F004418122CC06CE32C697100020E78041
:1031F00060662A8419C53246A68597100020E780AC
:10320000C0CD2285F2406244D2440561828081476C
:103210006314F600054582803307F5008507B38601
:10322000F5000347070083C6F6FFE383E6FE01458A
:1032300082809307F6FFBE952A966313C5008280AD
:10324000FD1583C715000505A30FF5FEFDB78147E2
:1032500011E9014582803307F50003470700E31AAF
:10326000B7FE8507E319F6FE0545828097370020F3
:1032700083C7D771637FF5001387418F93171500BC
:1032800008433E9583570500DD8D2310B5000145A9
:1032900082800D458280FD57011117370020232DB4
:1032A000F76E9387819022CC80434EC697390020D9
:1032B0009389096A26CA4AC852C456C206CE5AC061
:1032C0002A8981444E8A973A0020938A2A6C1844AE
:1032D00081476374E900B307274103A749021CC46F
:1032E00009CB03A7CA0063F6E700173700202325A0
:1032F000F76AA1E7835524009DE95C44A1E823A473
:10330000F190032BC400228597100020E780205EF7
:103310005A8455FC83274A0285CF6244F240D24446
:103320004249B249224A924A024B056121B3034500
:1033300004002D3F5C4081CB1CC483572400D5DFA3
:10334000A2844044F9B71C44CDDBC5BFDCC455BFE3
:10335000F2406244D2444249B249224A924A024B64
:10336000056182809737002083C757626371F50239
:103370001387418F93171500084393C5F5FF3E95BA
:1033800083570500FD8D2310B500014582800D4552
:1033900082809737002083C7775F6364F50001451B
:1033A0008280411122C426C24AC006C62A842E89C0
:1033B000B284493E01C504C505452DA0936504F0BE
:1033C000C205C181414597100020E780A0480DE16A
:1033D000973700209387C7579C5B81C7A28511450B
:1033E00082970145B24022449244024941018280C1
:1033F000938781909C438DE323A4A1908547232646
:10340000050004C52311250123008500A300F50054
:103410002322050055B7BA87D84775FFC8C7F9BF3B
:1034200045C539715AD0138BC18F22DC26DA4AD8B0
:103430004ED652D45ECE66CA6AC86EC606DE56D274
:1034400062CC3689328AAE89AA8401445A8DB94D3C
:10345000854BF94C03270B00131C3400937AF40FAF
:1034600062971C43A9EF13B5FA0013451500B397F3
:103470008B0063F65D01930714FFB397FB009395F0
:103480000701C181528631371DC983270D000145CF
:10349000E29784C323A23701630409002300590182
:1034A000F2506254D2544259B259225A925A025B93
:1034B000F24B624CD24C424DB24D216182800504E8
:1034C000E31A94F92145E9BF09458280411122C4DC
:1034D00026C24AC006C6AA842E8932845D3DCA85AA
:1034E0002685EFF03FA609C940C10145B2402244FC
:1034F00092440249410182802145CDBF411122C43D
:1035000026C24AC006C6AA842E89EFF0BFA32A8429
:1035100019C1231105009737002083C727476394FB
:10352000970023902191CA8526852D3D014511E004
:103530001945B240224492440249410182807547B4
:10354000636BA7041387C18F1443411126C29314E0
:103550003500A696944222C406C6AA873A84094535
:1035600095C613B5F7003947134515006373F70087
:10357000C5178545B395F500C205C18141371C408B
:103580000145A69723A0070023A20700B2402244CA
:1035900092444101828009458280411106C6EFF0C4
:1035A0007F9A09C50845B240410182800145E5BFC7
:1035B000F54763EDA7049387C18F9C43131735002C
:1035C000BA979843894721C7011126CA06CE93347A
:1035D000F50022CCB94793C4140063F3A700451546
:1035E00005443314A400420441802EC62685A285DA
:1035F0006D378947324609C5A2852685593B8147E3
:10360000F2406244D2443E850561828089473E850E
:103610008280239CA18E239DB18E8280411106C69B
:1036200023A2A1900295B2409737002023AAA73683
:10363000014541018280994763E9B7008A059737C0
:1036400000209387E736BE9588C18280411106C667
:10365000EF60E103714681451735002013054535BC
:10366000EFF0DFB413064002814517350020130543
:10367000E531EFF0BFB323A4019023A20190973767
:10368000002083C7A72E13D527008D8B3E958D472D
:103690003305F5029305101035051375F50F9737AF
:1036A00000202386A72E99473305F5021305050F41
:1036B00097100020E780001A23AEA18E35C99947E4
:1036C000173600200346A62C3306F6028145130662
:1036D000060FEFF0BFAD9387C18F9C439387070F11
:1036E00023A6F190173700200347672A0A07BA97E5
:1036F00023AAF18EEFF0BF8455269387C19098439B
:103700009737002083C7972893962700BA96170605
:1037100000001306668590C293862700850793F7FD
:10372000F70F8A0797350020A382D526BA9790C352
:10373000B240410182809737002083C73725173771
:1037400000200347C72463F1E7021387C1901843A1
:103750009386170017360020A30AD62293962700D7
:10376000369708C33E8582809307F00FE5BF1C4162
:103770006381071A41777D8FB70600208947631B55
:10378000D7180357450063070718411122C419468B
:103790002A849305F00F590506C6EFF05FAB054785
:1037A0008D476303E5161C4481CB58589947630D38
:1037B0000714185C630A07141306C0038145173504
:1037C00000201305E518EFF07F9E1306C003A285C5
:1037D000173500201305C51797000020E780E06F1C
:1037E0009737002083D78717973600209386461691
:1037F00099E793070010173700202311F716973722
:10380000002083C7C71591E7854717370020230895
:10381000F7149737002083C7971491E7ED471737C0
:103820000020A30EF7129737002083C7671391E794
:103830009547173700202305F7129737002083C7D5
:10384000371291E7854717370020A30BF7109737FA
:10385000002083C7371199E783C706011737002077
:10386000A302F7109737002083C7A70F91E7D1472E
:10387000173700202307F70E9737002083C7270F3D
:1038800095E7173700200347E70D13168701618678
:103890009307C002634806009377170093B7170099
:1038A0009387D702173700202303F70C97370020A0
:1038B00083C7370B95E7173700200347A70A13166E
:1038C000870161869307C00263480600937717005B
:1038D00093B717009387D70217370020A303F70881
:1038E0008347D40191E7894717370020A300F708E1
:1038F0009C5691C7829797370020239CA708B9331D
:10390000FD57A38AF1A68147B24022443E8541017A
:10391000828089473E858280011122CC06CE2A848E
:103920002EC6EFF0EFEBB245F240818D33A5A50234
:10393000229562441375F50F05618280011122CC36
:1039400006CE2A842EC6EFF0AFE9B245F240818D53
:1039500033A5A5022295624442054181056182801A
:10396000011122CC06CE2A842EC6EFF06FE7B245B5
:10397000F240818D33B5A5022295624405618280B3
:10398000973700209387C7FC985725C3411122C45D
:1039900026C206C6BE84029717370020035767FF6A
:1039A0002A8441C7BA876373A700AA87C207C18365
:1039B000BA866373E400A286C206C182958F51471E
:1039C0006355F706DC5491C382978547173700206B
:1039D0002302F710EF00516597370020239B87FAE9
:1039E000B24022449244410182809737002083C72D
:1039F000670E9DE7973700209387470D83C7970091
:103A0000850793F7F70F17370020A305F70CA18B55
:103A10009DC7854717370020231EF70A6F00B16640
:103A200097370020A388070AD5BF9737002083C7A0
:103A3000670ADDD72244B24092444101C5B7828073
:103A4000973700209387C7F0D857011122CC06CEB4
:103A50003E8401C72AC60297324509CD23A8A1900A
:103A6000170500201305056E553EF24062440145DE
:103A7000056182808307440163DD070097370020DA
:103A800023A207F2970700209387676623A8F19087
:103A9000C1BF9707002093876769CDBF011122CC72
:103AA000173400201304C4EA084406CE26CA4AC8C4
:103AB00001E90545F2406244D244424905618280F1
:103AC0005C58E5DB185C75D7700085458297184413
:103AD000B247E300F7FE9305E004173500200355D5
:103AE000E5E797100020E780E0D617370020232D68
:103AF000A7EA61D117360020035646E69305F00F7A
:103B0000EFF0CFEA814417390020130929E89737ED
:103B1000002083C7C7E40326C90163C1F4023285CC
:103B200097100020E780A0DC01459737002023ADE7
:103B300007E69737002023AB07E6ADBF9735002097
:103B400083D5C5E1B38795020844185C8981850453
:103B50003E9508C2029765BF411122C41734002068
:103B6000130404DF1C4426C206C64AC09734002052
:103B70009384C4E191EBC84C35E9B24022449244AD
:103B800002490145410182801C5CF5D7DC4C99EF6C
:103B90009305E00417350020035545DC97100020FD
:103BA000E78040CB9737002023A0A7E0C84C61D521
:103BB00017360020035686DA9305F00FEFF00FDF7B
:103BC00001499737002083C787D9D04CE355F9FACC
:103BD0009735002083D585D8338525031C448981FA
:103BE00005093E951C5C08C28297E1BF9710002032
:103BF000E780E0CF9737002023A807DA9737002027
:103C000023A607DA9DBF011156C2973A0020938A76
:103C10002AD483A78A0022CC4AC84EC606CE26CA1A
:103C200052C45AC0AA892E8432896385072203A709
:103C30004A03630707147D476366A714973400207F
:103C40009384C4D403AAC40163170A0A95659385B3
:103C500015E017350020035565D097100020E78048
:103C600060BF9737002023A1A7D42A86630A0510D6
:103C700083A74A0303A58A009735002083D505CE84
:103C80008981829783A78A0003AAC401173700207D
:103C9000232EF7D08947639CF908C1476312F40EBD
:103CA0009735002083D585CB938505FC9147B3C517
:103CB000F5028A05D29503C705009307A005631D89
:103CC000F70A83C715006399370B4A852286910549
:103CD00097000020E7806020DC4C528563934715F5
:103CE0000145F2406244D2444249B249224A924AD2
:103CF000024B056182809850E38EE7F895659385C5
:103D000025E017350020035565C597100020E78092
:103D100060B42A8A35C52A8683A74A0303A58A0088
:103D20009735002083D585C389818297A5B78D47B4
:103D3000639DF900C1476315F4049735002083D5CE
:103D4000E5C1938545FDF199B5B79147639AF900AF
:103D5000631834039735002083D545C0A115E5B716
:103D6000C147639FF900A14763EC870097350020A6
:103D700083D5C5BEC115C1BFDC4C52856397470DC5
:103D8000294585B71307F006568B6361A70A130A06
:103D900005FE1947334AEA0217370020035707BCCC
:103DA000973A0020938A8ABE330AEA023E9A83A792
:103DB0000A026395470183A4CA019DE49305E004C8
:103DC00017350020035585B997100020E78080A89B
:103DD000AA845DD583274B039735002083D505B88A
:103DE0002A8689815285829791451307A00589818A
:103DF00093972500A69783C607006393E60483C6BE
:103E00001700639C360385058A052286A6954A8598
:103E100097000020E780600C83A7CA01E38297EC3B
:103E2000268597100020E78080AC5DBD1307E00772
:103E3000E368A7F4130A05F985B783D5270045BFC2
:103E400083A7CA01E38E97F2268597100020E780AA
:103E500000AA3DB797370020938747B3CC4F8DD149
:103E600091479306A0058983139727002E97034651
:103E70000700E317D6F003461700631C36018507D9
:103E80008A072286BE954A8597000020E780E004D5
:103E900081BD83572700C1BF97370020938747AB69
:103EA000984739C79C5FA9C705476313E5044111CB
:103EB00022C417340020130464AD504C06C60DC64E
:103EC00008509735002083D565A989818297484C91
:103ED00097100020E780A0A19737002023A607AC09
:103EE0009737002023A407ACB240224441018280CE
:103EF0008280011117370020130787A54EC683293A
:103F0000870022CC26CA4AC806CE52C456C2AA840A
:103F10002E843289638A09201C5FBA8A99EB29456D
:103F2000F2406244D2444249B249224A924A05616F
:103F300082805C5BEDD7FD4763E9A70E97390020CF
:103F40009389C9A483A7C901B1CB03A58A0083A71C
:103F500009026395A70689476393F408C147E310F4
:103F6000F4FC173500200355659F9147130505FCA8
:103F70003345F5029317250003A5C9012286CA859A
:103F80003E959307A0052300F500A30095001105B9
:103F900097000020E78060F4014559B79305E004DD
:103FA000173500200355859B97100020E780808AF5
:103FB0009737002023AAA79E49F995B783A74A03FC
:103FC00003A6C9019735002083D545998981829739
:103FD00083A78A0017370020232AF79CADBF8D479F
:103FE000639EF400C147E31CF4F21735002003552B
:103FF000E596130545FD9377C5FFBDBF9147639ACD
:10400000F400E31E94F01735002003552595211583
:10401000DDB7C147E395F4F0A147E3E287F0173538
:1040200000200355A5934115F9B79307F00663EAFD
:10403000A706930705FE1947B3C7E7021737002005
:104040000357C791173A0020130A4A94B387E7022F
:10405000BE998327CA01A9CF83270A02639A37072B
:104060000325CA0191461308A005FD5593D72600E4
:10407000C207C183139727002A9703460700631DD1
:104080000607834817000356270063959806B30672
:10409000D64063CF860485078A072286CA853E9567
:1040A000C5BD9307E007E3ECA7E6930705F979B7E9
:1040B0009305E004173500200355458A970000203A
:1040C000E78040799737002023A0A78E51F581BD66
:1040D00083A74A030326CA019735002083D50588A4
:1040E00089814E8582979737002023A1378D8DBF18
:1040F000A300B700B2869DBFB385860017360020A7
:104100000356C6859105130606FCE3FAC5E01306BF
:1041100034001376C60F1106B29623000701A300E0
:1041200097002311D70085BF973700209387078614
:10413000D44FBE89A1C203A5C90191461308A005A9
:10414000FD5593D72600C207C183139727002A97EE
:104150000346070063160605834817000356270029
:1041600063989800B306D640E3D786F2A300B70061
:10417000B286C1BF8357C700172500200345257E9F
:104180009305E0043305F5024205418197000020C4
:10419000E780406C9737002023A8A78049FD41B3F2
:1041A000172600200356867B9725002083C5257B94
:1041B000B385C502338686001106E3E2C5D681BF0A
:1041C00001458280011106CE2EC6EF70A04501C9BF
:1041D000B245F2400355250005616FA06074F240BE
:1041E000494505618280A38E0192238E019223A20C
:1041F000019223A4019223A6019223A8019223A055
:10420000019223AE0190972700209387277C3707E0
:10421000B40098C33747A000D8C3370710009306EF
:10422000070A94C7B7065000C106D4C7930607050E
:104230004107D8CB3707D007410798CF370784030A
:1042400098D337C70700130707B8D8D3416794CB73
:1042500093060701130717F8D8D7370781FF98DBB4
:104260007D5723AE070094D7239AE702828001117D
:1042700026CAAA84214522CC06CE2E8432C636C454
:104280003AC2EFE01FBC1DC9A2461247324693074F
:1042900000FD2300F5009947A30095002301F500D8
:1042A0002303D500A303E5002312C500AA852285B8
:1042B0006244F240D24405616FE01FC3F2406244A1
:1042C000D2440561828023A2A192828023A4A1927C
:1042D000828023A6A192828023A8A19282800111CC
:1042E00022CC4AC806CE26CA2A890144B3048900D2
:1042F0006368B400F2406244D2444249056182805E
:104300002EC6EFE0FFCD93170501C183A183B2450F
:104310002380F4009307140093F7F70F850463F9E3
:10432000B700CA9709042380A7001374F40F7DBF58
:104330003E847DBFC167172500200355056DFD171D
:104340006302F502411103C6819C9385419306C621
:10435000EF70800EB240FD57172700202317F76A31
:1043600041018280828009C925151375F50F133527
:10437000850E13451500828001458280238005004B
:10438000F94763E2C708797122D426D24ECE56CAC5
:104390005AC806D64AD052CC5EC63684B289AE8A96
:1043A0002A8B814463FF3405B307940003CA0700D6
:1043B000138914001379F90F63050A04B3072A015E
:1043C00063C1F904B307240183CB07005E85613F15
:1043D0000DC99307FAFF2380FA0063906B0313055E
:1043E00019002295B250225492540259F249624A5D
:1043F000D24A424BB24B45618280D29493F4F40F7F
:1044000055B70145C5B701458280411126C2AE842A
:1044100022C49727002023A1C7609727002023AB41
:10442000B75E9727002023A5A75E2A8441469305FF
:10443000F00F26854AC006C60549EFE05FE1631E1E
:104440002503972700209387E75B884BC145413DB3
:1044500041469305F00F2285EFE07FDF8544631628
:1044600095022244972700209387C759B24092446F
:104470000249C847C14541019DB541468145268550
:10448000EFE0FFDCE31625FD6DBF41468145228547
:10449000EFE0FFDBE30795FCB2402244924402497F
:1044A00041018280411122C426C22E84AA841306AF
:1044B00000028145172500201305C55406C6EFE00C
:1044C000FFCE97270020A3809754A385819CEFA05F
:1044D000A046854719C181474945B2402244172764
:1044E00000202301F752924441018280814781CD0F
:1044F00019C98547631BF50083C7550093E707FC7F
:10450000A382F50085473E85828089476317F500C1
:1045100083C7550093F7F703E5B70D478547E314C5
:10452000E5FE03C755001377F70313670704A3825B
:10453000E500D1BF81478DC105C103C75500930672
:10454000000C85471377070C6308D7009306000417
:104550008D476303D70089473E858280411122C47D
:10456000005D06C626C21DC8AA84085009C597006A
:104570000020E780C037485009C597000020E78039
:104580000037085409C597000020E780403622858F
:1045900097000020E780A03523AC0402B2402244FB
:1045A00092444101828009ED9727002083C7A745E7
:1045B000172500201305854681CB13854191828004
:1045C0001725002013058545828017250020034507
:1045D00085438280972700209387C742C8478280FF
:1045E0009727002093870742884B828097270020D7
:1045F00093874741DC4B884382809727002093872D
:104600006740D84B1C4385071CC317250020034572
:10461000953F9307F00F6305F50091656FE01FC5A7
:104620008280011122CC06CE2E8432C6EF70C00EDD
:104630009147B245631FF500938701939C438DC357
:1046400003A30700630E030022856244F240056164
:104650000283938781929C4381C703A34700DDB700
:10466000F2406244054505618280011122CC2A8412
:104670000355450006CE26CA4AC84EC6EF60B06A4A
:1046800035C52A89834405008349C500C13D4A8553
:10469000EF70106203554400EF70800383C7C1932D
:1046A000B1CB6399970483C5D1932685EFF09FB171
:1046B00019E1238E019203554400EF70E005914704
:1046C000631FF500035744009727002083D7E73383
:1046D0006317F700FD57172700202318F732F24021
:1046E0006244D2444249B2490561828081499304BF
:1046F000F00F6DB79307F00FE38FF4FA8346640071
:1047000003564400034524004E87A685EFF03FB6CC
:104710005DB779715EC6AA8B2E8552CC56CA5AC82F
:1047200006D622D426D24AD04ECEAE8A328B368AD4
:10473000EF60705F6DC1045D2A89F1CC9C506145CA
:1047400099C3130540039C5481C75105420541811B
:1047500063050A00710542054181DC5081C7590596
:1047600042054181EFE0EFED2A8455C56146814560
:10477000EFE0DFA39729002083C94928639409004B
:1047800083490900930700FD2300F400A947A30013
:1047900074012301F400230364018C50231254019B
:1047A0001305840191C908C47146930A440397F024
:1047B000FF1FE780807256858C5491C948C45146CA
:1047C000930A450197F0FF1FE78020715685630C1F
:1047D0000A0008C87146D285930AC50197F0FF1FE9
:1047E000E780A06F5685CC5099C548C8594697F0C8
:1047F000FF1FE780806EA2854E85EFE0EFEE22542A
:10480000B2509254F249624AD24A424BB24B4A8564
:1048100002594561A1B3B250225492540259F2494F
:10482000624AD24A424BB24B4561828001114EC668
:10483000AA892E854AC806CE22CC26CA2E89EF60C8
:10484000904E31C59724002083C4441B99E08344D3
:1048500005001945EFE0EFDE2A8415C981451946A8
:10486000EFE0DF94930700FD2300F400B947A300B5
:1048700034012301F40023122401A2856244F24092
:104880004249B2492685D24405616FE0EFE5F24026
:104890006244D2444249B2490561828039715ECE98
:1048A000AA8B2E8526DA4ED652D456D25AD006DEA0
:1048B00022DC4AD8AE84328BB68A3A8ABE8942C696
:1048C000EF60704631C92A894145EFE08FD72A84CD
:1048D00021C541468145EFE07F8D17250020034526
:1048E000E51119E103450900930700FD2300F400D9
:1048F000BD472301F400B247A300740123129400C2
:1049000023046401A304540123054401A3053401D5
:104910005CC4A285EFE04FDDF2506254D25442599C
:10492000B259225A925A025BF24B2161828079710C
:1049300026D2AA8439454AD04ECE06D622D42EC6D7
:10494000B2893689EFE0EFCF21C1B2459307000D60
:104950002310F500B1472A842312B5002301F50086
:10496000CE851905194697F0FF1FE78000572306EB
:104970002401A2852254B2500259F24913F5F40FD2
:10498000925445616FE04FD6B2502254925402596E
:10499000F24945618280172700200347D706930715
:1049A000F00F630DF706411126C2AA84394522C4CF
:1049B00006C64AC0EFE0EFC82A8439C9930700FD54
:1049C0002300F500A3009500230105009725002092
:1049D0009385C5040D05194697F0FF1FE780E04F4A
:1049E000172900201309090283578900A28517257A
:1049F0000020034555012315F400834719002306C1
:104A0000F4002244B2409244024941016FE0CFCD0C
:104A1000B2402244924402494101828082800111C5
:104A200056C2AA8A314526CA4AC84EC652C406CEC4
:104A300022CCAE84328AB6893A89EFE08FC029C988
:104A40002A842685EF60302E1DCD0345050093078F
:104A500000FD2300F4009D47A30054012301F4004E
:104A60002312940023134401231434012315240139
:104A7000A2856244F240D2444249B249224A924A53
:104A800005616FE06FC6172500200345D5F7C1B754
:104A9000F2406244D2444249B249224A924A0561F4
:104AA0008280397162CC2A8C594526DA4AD84ED692
:104AB00052D456D25AD05ECE06DE22DCAE8432C646
:104AC00036C4BA8B3E8BC28A468A83590104034995
:104AD0004104EFE00FB735C53246930700FDA2460B
:104AE0002300F5009547A301C500A300850123011C
:104AF000F5002A8419461105A9C2B68597F0FF1F53
:104B0000E780A03D23066401230A240123157401D4
:104B1000231754012318440123193401A285625438
:104B2000F2504259B259225A925A025BF24B624CED
:104B30002685D25421616FE02FBB8145EFE00FE75E
:104B4000D1B7F2506254D2544259B259225A925AB1
:104B5000025BF24B624C216182809727002083C761
:104B600087EA8DCB4111AA8519461385419106C666
:104B700097F0FF1FE780603693854191172500204D
:104B8000034565E8EFF09F96B240138541914101DE
:104B90006F90105B01458280172700200347B7E61E
:104BA0009307F00F6305F708411126C2AA8429452F
:104BB00022C406C6EFE0EFA82A8429C1930700FDAE
:104BC0002300F500A1472301F500A30095009727D6
:104BD0000020938727E383C7270093854191110520
:104BE000A30FF5FE194697F0FF1FE780002FA2855F
:104BF00017250020034535E1EFE00FAF1727002010
:104C0000034767E08D47631FF7009387C1929C437A
:104C100091CB03A38700630703002244B240924470
:104C200041010283B240224492444101828017270D
:104C30000020034747DD8D47631AF7009387C19231
:104C40009C4389C703A38700E31D03FC828079711D
:104C500022D406D626D24AD04ECE52CC094445C9DB
:104C60002A89035505002E8A5144EF60D00BAA848F
:104C700059CD83C7B19CFD1793F7F70F05474944FA
:104C80006377F7080347C500A1476314F700631073
:104C90000A089C5C4544A5EF916593854571130511
:104CA000C00297000020E780E0BA88DCAA894D4462
:104CB00039CD1306C0028145EFE04FCF835709007D
:104CC0009386490036852391F90071469305490082
:104CD00036C697F0FF1FE780402089472380F90000
:104CE00003C5C400B24603560900611583C5819C03
:104CF00013351500EF90E0192A8463060A00D28567
:104D00002685EF70102601C42685EFF03F852285A9
:104D1000B250225492540259F249624A456182804B
:104D200083C7B19CFD1793F7F70F05476378F70822
:104D3000894751C6011122CC26CA4AC84EC652C460
:104D400006CEAA89368AB2842E89EF60C07D2A8475
:104D5000D14729C9485509C597000020E78020B9E7
:104D6000F1452685EFE0EFC648D4CD4705CD834613
:104D7000C40021478147639FE600630D0A00034793
:104D8000A5010356050193062501AA854E85EF70FE
:104D90002015AA8703474400630F090013676700C3
:104DA0002302E400F2406244D2444249B249224A1A
:104DB0003E850561828013674700DDB7C9473E85A0
:104DC0008280E54763EBA70097270020938707C001
:104DD00006053E9503550500828041657D1582805C
:104DE000011122CC2A842E8526CA06CEAE84EF601D
:104DF00080730DCDB7470F009387F723094563E212
:104E0000870281450A854146EFE04FBAA685231007
:104E100081000A85418023018100A3010100EF8008
:104E2000B069F2406244D244056182804945D5BFF1
:104E3000A384A19C82806F80907E797152CC2A8A53
:104E4000328522D426D24AD04ECE56CA5AC85EC621
:104E500006D662C4AE8BB28A368BBA843E89C289CA
:104E60004684EF60406C15C92A8C63140A021377DC
:104E70004B008347450015CF93E727012302FC0031
:104E80008DEC631C0902639A090205E8ED9B23027D
:104E9000FC00832B8C03639F0B06B2502254925468
:104EA0000259F249624AD24A424BB24B224C456106
:104EB0008280F59B93E70701D1B793E74700230270
:104EC000FC0001CC1C484146A2852324FC021305AA
:104ED0008C0197F0FF1FE780400063910B02D5D84B
:104EE0000325CC0209C597000020E78040A0F145CA
:104EF0002685EFE00FAE2326AC0261BFE30B09F875
:104F00000325CC0209C597000020E780409EF145AB
:104F10004A85C5B79DC483A70B0299EB916593851C
:104F20003571714597000020E780C09223A0AB0245
:104F300003A50B0219C57146A68597F0FF1FE780F0
:104F4000C0F96388090283A74B0299EB91659385A9
:104F50002571594597000020E780C08F23A2AB023E
:104F600003A54B0219C55946CE8597F0FF1FE78070
:104F7000C0F61DC483A78B0299EB916593851571CB
:104F8000514597000020E780E08C23A4AB0203A5E5
:104F90008B0219C55146A28597F0FF1FE780E0F309
:104FA0002254B2509254F249B24B224CCA865A86CD
:104FB0000259424BD6855285D24A624A45616FF00A
:104FC0004FF5011126CA52C406CE22CC4AC84EC69D
:104FD0002A8AAE84EF60205525C5AA893945EFD0CD
:104FE0005FE62A8431CD17290020034929A16314E3
:104FF000090003C909009307000D2310F400AD4711
:105000002301F4009385690013053400194697F0D5
:10501000FF1FE78080EC93F71400858085882306C6
:10502000F400A306940023154401A2856244F240D3
:10503000D244B249224A4A85424905616FD0DFEA2B
:10504000F2406244D2444249B249224A0561828018
:105050009387C191884301CD411106C69700002076
:10506000E780E088B24023AE0190410182808280D7
:10507000011106CE22CC26CA4AC82EC6EF60A04A2D
:1050800039CDB2451729002003494997AA840CD588
:1050900063140900034905004145EFD09FDA2A84D3
:1050A0001DCD9307000D2310F500A5472301F50042
:1050B00083C75400938564001105A30FF5FE1946BC
:1050C00097F0FF1FE78060E19C54A285F2405CC42A
:1050D0006244D2444A85424905616FD0FFE0F24004
:1050E0006244D244424905618280797122D406D655
:1050F0002A842EC6EF6020430DCD8346C50011479C
:10510000AA8749456393E6029C5FB24599C383C56C
:1051100067010808EF70E06D97860000938666F6D9
:10512000100889452285EF607060B25022544561B5
:1051300082805145DDBF83C7B19CFD1793F7F70F00
:105140000547637AF704894721CA411122C426C260
:105150004AC006C6B2842E89EF60E03C2A84D1475B
:1051600005C5630809008347450093E7270023022C
:10517000F5004146A6851305840197F0FF1FE780DF
:10518000C0D59C481CD48147B24022449244024975
:105190003E8541018280C9473E858280797122D453
:1051A00006D62A842EC6EF60003801CDB24522858E
:1051B000230EB1006C08EF704057B2502254456185
:1051C00082805145DDBF6F60E04AC1671387E7FF0A
:1051D0006394E502938781929C4391EB49458280D9
:1051E0004945B2402244924402494101828003A3CE
:1051F0000700E30503FE0283411122C426C24AC010
:1052000006C6FD172A892E84B2846395F50293871A
:1052100081929C4391CB9C4381CB829711E5238E55
:105220002193A38E919275BFA6854A85EFE09FF9E1
:105230004DF9F5B72E85EF60002F5DD1834705004E
:105240000D45E39027FB22852244B2400249A68502
:10525000924441016F90C06C65476362A70441119D
:10526000416722C406C626C27D172A840945638386
:10527000E502C547AE846315F4002E85EF90C0713A
:10528000931714001714002013044474A29723905A
:1052900097000145B2402244924441018280094571
:1052A0008280011106CE2AC6EFE0FFF3EF108003E3
:1052B000EF00E075EF303178324597170020938783
:1052C0006774130700F02391E700238207007D57DE
:1052D0009387819CA380E7002380A700F240954537
:1052E00005616F4010401D7193970501CAC886CEB5
:1052F000A2CCA6CACEC6D2C4D6C2DAC05EDE62DCFA
:1053000066DA6AD8C1872E8963D0074C03C5819CB1
:10531000EFD01FB78964416A856A797B2A84938BB1
:10532000D4007D1AA50A691B15E021653345A90043
:10533000F6406644D6444649B649264A964A064B44
:10534000F25B625CD25C425D25618280834704002F
:105350001307200A639DE70003552400171C002053
:10536000034C7C6A2286D285EFF0AFAB3DAA1307CF
:10537000100903CC919C6397E716834714001547E7
:10538000639EE7002285EFF04FAE2285EFD0BFA8E5
:1053900003C5819CEFD0DFAE2A8479B73947639982
:1053A000E71603554400631B55050C4483C90500EB
:1053B000639D0900850591C919461715002013053D
:1053C000E56597F0FF1FE78040B1171700200347FE
:1053D000676385476318F710638A090097170020F1
:1053E000238207624E85EFF00FDB45B78947171719
:1053F00000202309F760EF90605441BF9387240099
:10540000631AF50683298400638E090C83C709009B
:105410008DE383C7290003C71900A207D98F171787
:1054200000202315F75E83C7390017170020A30B50
:10543000F75C171700200347E75C89476314F70AF6
:1054400083C7090081CB97170020238D075A03C516
:10545000090051BF8D479715002083C5B55A171510
:1054600000200355A55A17170020230DF758EF40C9
:10547000502AF1BF938754006318F5001C4403C5FC
:105480000700EFF06FF111B7B3076501C207C183E1
:105490001147636FF7009387C1929C43E38707EE40
:1054A0009C43E38407EE22858297E31005EE1DA856
:1054B0009387B400631FF500938741929C43E38672
:1054C00007EC9C43E38307ECA2851385B400829725
:1054D000E9BF9387C4006310F5021C4483C707002B
:1054E000E38507EA9307F00FE301FCEAA2856285F2
:1054F000EFD09F9F71BD9387E400E315F5FE93877E
:1055000081929C43E38307E8DC43A285E9F3B5BDC0
:105510003D476397E70403554400E30275FF938713
:105520009401E30EF5FC93873401E31DF5FA971718
:10553000002083D7874D639E4701938781929C43C8
:10554000E38507E4DC43E38207E4A28513853401A5
:10555000BDBF938701939C43E38907E29C43E5B772
:105560001307E003E390E7F88347240005476396B9
:10557000E70E83476400138DC191F1E383270D008B
:10558000D5CB03CC0700A14903457400930C8400DC
:10559000E685EFE03FFA83474401A303A400835864
:1055A00004010358E400035744002A8603453400ED
:1055B0003EC283572401E686E2853EC0CE87EFF0E7
:1055C0004FCE8347340095E7DD47835804010358E5
:1055D000E40083467400835544003EC2835724018F
:1055E000668705463EC06285CE87EF606028A301CE
:1055F000A40083270D0081C71145EFF07FA503C5E7
:10560000C193E30405D883C5D193EFE0BFBBE30E9C
:1056100005D68346340093071003638AF6000356C9
:1056200044004E8783C5C1933685EFE05FC4238E67
:105630000192A1BB171C0020034CFC3CA9B7938727
:10564000C1929C43171C0020034CFC3B91498DDF09
:10565000DC439DDB0145829705BF29476390E70C3A
:1056600083476400938CC191C1E783A70C00A5CF49
:1056700003CC0700A1490345740093068400937787
:105680002500C9C713761500130D44018347040292
:105690008358C4010358A401035744000345340050
:1056A0003EC28357E401E2853EC0CE87EFF06FBF74
:1056B0008347340095E7DD478358C4010358A401AC
:1056C00083467400835544003EC28357E4016A87D1
:1056D00005463EC06285CE87EF608019A301A40015
:1056E00083A70C0009BF171C0020034CDC3159B7FD
:1056F0009387C1929C43171C0020034CDC309149D6
:10570000BDDBDC43ADDB01458297B5B7B68536CE50
:10571000EFE05FE2F2462A86368D8DBF0947639D32
:10572000E700938741929C43E38107C6DC43E38E05
:1057300007C42285829791B92D476399E700938723
:1057400041929C43E38307C49C47D5B70D476397B9
:10575000E70022868D450355440039B11947E3938C
:10576000E7D89305610213051031EF3011372C1083
:1057700013052031EF3071360356640083578102E0
:105780000355440063E8C700835684000357610251
:1057900063F7E60093050002EF90001FFDB6637407
:1057A000E6002313E40063F4D7002314F400035746
:1057B000C4008356A4000356840083556400014846
:1057C0008147EF90201CD1B693F7150081CF9387C6
:1057D00041929C4389C7DC4399C301458297134595
:1057E0001900B9B693F7250081CF9387C1929C43E6
:1057F00089C7DC4399C305458297134529000DBE2F
:1058000093F745000145E38507B2938701929C43D6
:1058100091CF8547171700202308F71E9387C19261
:105820009C4389C7DC4399C305458297971700209D
:105830009387471DC8472C10EF8020312810EFF0C8
:10584000CFB19717002083D7871A91CB1306006436
:105850003386C702914503C5819CEFD09FB31345A2
:105860004900F9B4411122C42A84554506C6EFF017
:105870004FD5B335A00022852244B24041016F903C
:10588000600D797122D406D68D472E84631FF500F2
:1058900003D7A50083D6850003D6650003453400F1
:1058A00083D54500EFF0AF9709A889671387D70024
:1058B0006310E50403C5250019E58547B25022545D
:1058C0003E85456182809387C1919443FDD603C68E
:1058D000360083C50600814802C202C001488147E4
:1058E00001479106EFF0EF9B0545EFF06FF6F1B73A
:1058F0001387E700E303E5FC13873701631AE5002C
:1059000003C525005DD9014781460146814559BF40
:10591000E507E304F5FA41677D178147E310E5FAEF
:1059200003C75500C947E31AF7F883D6E50003D645
:10593000C5000355840083D5A500EF90600641C9DA
:105940005D45EFF00FC83335A000231CA10083454F
:105950004400035524003008EF50702F8357810115
:10596000A9FF6C0813051031EF3031179305E101E1
:1059700013052031EF3071168357C101035784009E
:105980006374F7002314F4008357E1010357A40064
:1059900063F4E7002315F400835784000357A40041
:1059A0006374F7002315F40003552400EFB0802939
:1059B0000357E4008356C4000356A40083558400B3
:1059C0000355240001488147EF80D079FDB5854714
:1059D000231CF100ADBFC1671387E7FF639DE5009E
:1059E0009387C1919C4395C383C707000D47639C70
:1059F000A7006F807076FD1749476396F50093877F
:105A0000C1919C43FDF73A8582804947EDBF2384CD
:105A1000019423A8019423A601949717002093874B
:105A20006700170700001307874798C31707000090
:105A30001307A74AD8C3170700001307075B98C7C7
:105A40009387019417070000130727F998C31707D6
:105A50000000130747E3D8C38280797122D406D6A9
:105A600026D24AD04ECE52CC56CA5AC80347050059
:105A700085472A84630AF704034685009306950048
:105A80009305F1000545EFE07F8F814719C18347FA
:105A900005008346040011476380E6041387C19420
:105AA00018438D46034717006308D70295C70DC7F3
:105AB00019ED0145B250225492540259F249624AFA
:105AC000D24A424B4561828081470145D9B785461C
:105AD0006318D7028D8BF1DF03451400130A2400ED
