:081000006F10801FA4F1010034
:1010080000000000000000006F0080086F00E02270
:1010180000000000000000000000000000000000C8
:1010280000000000000000000000000000000000B8
:101038006F004006000000006F00E005000000009F
:101048006F0080056F0060056F0040056F00200588
:101058006F0000056F00E0046F00C004000000008E
:101068006F0060046F0040046F0020046F000004EC
:101078006F00E0236F00C003000000006F006003F2
:101088006F0040036F0020036F0000036F00E00251
:1010980001A001A001A001A001A001A001A001A040
:1010A80001A001A001A001A001A001A001A001A030
:1010B80001A001A001A001A001A001A0B717004054
:1010C800130770052380E704130780FA2380E704D9
:1010D8002396A70223800704371700408347270574
:1010E800898BEDDF835707053717004083472705AE
:1010F800898BEDFF3717004083472705898BEDDF84
:10110800035507058280B7170040930670052380B2
:10111800D704130780FA2380E70403C6B7041376BD
:10112800F60DA385C70423800704137605022DC690
:1011380003C6A700118A0DE22380D7042380E704A1
:1011480003C7A700136747002385E7009307004BF1
:1011580001000100FD17EDFFB71700409306700569
:101168002380D704130780FA2380E7047D8923941A
:10117800A70001000100010001002380070423806B
:10118800D7042380E7049306100537270040A303FC
:10119800D780238007048280137605046DDE03C69A
:1011A800A700418A0DE22380D7042380E70403C700
:1011B800A700136707012385E7009307007D010057
:1011C8000100FD17EDFFB717004093067005238057
:1011D800D704130780FA7D892380E7041365050483
:1011E8002394A700010001000100010023800704E7
:1011F8002380D7042380E70493063005372700406F
:1012080079B74111814601468145114506C6AD2A87
:10121800B7170040130770052380E704130780FA07
:101228002380E70403C76704136717002383E704D1
:1012380023800704B24041018280814601468145EE
:1012480011459922B7170040930670052380D704EB
:10125800130780FA2380E7047D562396C70223806C
:10126800D7042380E70403C76704136717002383A1
:10127800E7042380070401A0BD473305F5020100F8
:101288007D1575FD8280411122C426C206C6AA8436
:10129800014463179400B240224492444101828081
:1012A80005041305803E4204C13F4180DDB7B717EE
:1012B8000040130700032388E702854723AAF17437
:1012C80073002030411106C6A921FDBF2303048005
:1012D80015472303E48001002302A480828083074A
:1012E8006480E3CE07FE2303048082808307648042
:1012F800E3CE07FE03454480828083076480E3CE03
:1013080007FE2302A4808280411126C44AC24EC02F
:1013180006C61377F50BAD47AA892E89954463064F
:10132800F70019456537653F8D444E854537FD59AA
:10133800FD1463983401B240A24412498249410124
:101348008280135509011375F50F453F2209CDB762
:10135800011126CC06CEB704080051371545BD3714
:10136800713769372AC6A53F32459377150089EB4F
:10137800136515001375F50FF240E244056182808C
:10138800FD14E9FC0145CDBF397126DC4ADA4ED897
:1013980052D656D45AD25ED006DE62CE66CCB7E7B5
:1013A80000E07D5783AA070022C603AA470023A0AE
:1013B800E71823A2E718B717004013077005238022
:1013C800E704130780FA2380E70483C74704930BD5
:1013D80075FFB684E20793FBFB0F8546AA892E8B1F
:1013E800328937240040E187015763FA76016308A0
:1013F800D5008946130700026313D5000157D98F1A
:1014080093F7F70FB71C00402382FC04114723030E
:10141800E4801305F00F5D3D094CD13563697C11FB
:10142800B70707003E9B378707007955637EEB02B5
:10143800B3079B00636AF702A9476399F90689E431
:101448008144713D26850DA0DA850945753D05095C
:101458000345F9FFFD14050B4D3581C49377FB0F48
:10146800FDF7FD3569FD7D55B71700401307700579
:101478002380E704130780FA2380E70403C747049F
:10148800418B2382E704F250B7E700E023A057110D
:1014980023A24711E25432445259C259325AA25A2D
:1014A800125B825B724CE24C21618280A547639596
:1014B800F90685691309F00FB3069900B3742B0177
:1014C800B6941349F9FFB3749900856B33796901B0
:1014D800416B9387F9FFB3F7270199E363FC340164
:1014E80093D94900C147E3E637FF99BF0569C16948
:1014F8007D19D9B71305800D6388690113050002AA
:101508006384790113051008CA85FD3B913521DDF7
:101518004E99B3843441D9B7DA852D45F533CA9449
:10152800E30099F20509D933A30FA9FED5BF938724
:10153800F9FF93F7F70F636CFC0803C75C04B70760
:1015480008001377070219E3B78707007955E37D89
:10155800FBF033079B00E3E9E7F089476390F90460
:101568008980D549E38E04ECDA850945713B110978
:101578000327C9FF91472320E48003076480E34ED3
:1015880007FE23033481FD17EDFBFD14110B81C405
:101598009377FB0FE9FF6D3B71F5F1B58547E3875D
:1015A800F9F4DA852D458D339389F4FFE38A04E84D
:1015B800353B93F7390091EB832604800327090014
:1015C80093074900E39FE6E63E89CE84F1BFB5471D
:1015D8006396F9001305900BD5399DB5B1471305EE
:1015E800B00AE38BF9FE9947639EF902DA852D4527
:1015F800213B81448D4BA149D539639674018327DA
:1016080004802320F9008504E39834FF83270480AD
:1016180013172B01635507002312F90015B5232270
:10162800F90039BD9D476399F90281451305B00456
:10163800E139BD442320090023220900FD597D31E9
:1016480093F77400CA9703C70700FD14398D2380E8
:10165800A700E39634FFEDB3A1476392F904CD39AF
:101668008144630D0B008D479304C0036308FB009E
:101678009304000563048B01930440041375C507A4
:10168800E30095DC1945993199390545813126855D
:10169800AD3109459D316D39E31405DAE9B3914758
:1016A8006399F9001305600615311539130590097A
:1016B80025B7E38709D8F15469B309CDB7170040B6
:1016C800130770052380E704130780FA2380E704D3
:1016D8002396A702828019C1814799E982803387BE
:1016E800F500834607003307F50085072300D70078
:1016F800E397C7FEE5B719C1FD5781E982809105D7
:1017080003A7C5FF1105232EE5FE7D16E319F6FE96
:10171800F5B7797122D4173400001304A4D71C40FC
:1017280006D626D24AD04ECE91C782979737000068
:1017380023A207D65C4089CB03D50178BD3F5C4026
:10174800829703D52178953F1C40639907189737EE
:10175800000083C737E6858B95C797370000A38BB2
:1017680007E417370000034717E5914763FCE700D4
:101778006D2B9737000083C717E4F9178A07A297DC
:101788009C4382979737000083C787E7918B89C767
:10179800971001E0E780604F1C4491C382979387BC
:1017A800C177984317360000034696CC3E89973494
:1017B80000009384E4CB9737000083C767CB9396E8
:1017C8001700BA9683D60600638006109737000084
:1017D80083C707CA63F2C70886073E978355070081
:1017E8002310070003D501782EC623940178F1351C
:1017F800938741799C4317350000034565C7131744
:101808002500BA979C43B2458297AA8903D52178C7
:101818006D359737000083C7A7C51397170083272F
:10182800090003D581781345F5FFBA9703D7070058
:1018380033753501598D2390A70083C704008507A8
:1018480093F7F70F173700002304F7C21737000084
:10185800034717C263E6E70097370000238A07C0EB
:101868001C40ADEF9387C17898433E8425CB9737CA
:10187800000083C797D491CB9737000083C7B7D3AD
:1018880089E7971001E0E78040ED1C4082972A84A1
:1018980031C59C48AA97173700002323F7BE9387C2
:1018A80001799C4385CF03D50178013D22859700B6
:1018B80000E0E780E0E02254B25092540259F24925
:1018C80003D521784561D5BB850793F7F70F973680
:1018D8000000238FF6B8E3E0C7EECDBDB250225426
:1018E80092540259F249456182809167B7C6004017
:1018F8009387373023A6F6200F1000009737000093
:10190800938707B7884F971700009387A7F69C43DC
:10191800316713073730F053B7071000FD17918F61
:1019280099833A0523A6E6205D8D82804111B71779
:101938000040985F3AC6945F3247E39CE6FE324522
:1019480041018280411106C6D5379736000083C60B
:10195800A6AF858AB1C6930730333307F502B3378C
:10196800F5023983CA07D98F17370000130747B024
:10197800584B01456303F7023385E740636BF70073
:1019880037653D0889C637856F0813050590198D99
:101998003E95173700002327F7AEB24041018280F9
:1019A800E5473307F502B337F5022583DE0765BF40
:1019B8000327C50F8346B50097370000938747BFB5
:1019C8009C4F58439386160295829043FD1693F6D2
:1019D800F60F10C3D04350C3904710C7D04750C725
:1019E800904B10CBD04B50CB904F10CFD04F50CF07
:1019F80091C61307070293870702C1BF82808347F6
:101A0800E50193F7E70FF1EF2A870345F50171E93F
:101A1800034607018346870009CA8345A70297370B
:101A2800000083C777A263E7F50093F70601C5CFE7
:101A3800814709CA8347871503467715C18AA207D4
:101A4800D18F81CA8346B7150347C7152207558F1B
:101A5800BA97D1CB17370000130707C13847411190
:101A680022C406C67D548326070863F3860036849D
:101A7800184375FB173700000347079D9316870126
:101A8800E18663D906029387C71395831737000049
:101A98000347279CBA9763D006041D8C93878179E6
:101AA8009C4382973335A400B24022441345150065
:101AB80041018280058B9387C71209CB8A079387D8
:101AC800F7031305D007B3D7A702C9B78607FD07E1
:101AD8001305D003CDBFE372F4FC3705C0A82A94E0
:101AE8006DBF014582808280411122C41714000015
:101AF800130444D718404AC006C61C5F26C21719EB
:101B080000001309E9D59983858BD1C31C5F9734ED
:101B180000009384E4A993F7F7F91CDF97370000D6
:101B280083C707A993F707048DC3938781799C43DB
:101B380082979737000023A5A7A883C7040093F7C7
:101B4800F70B173700002305F7A68547173700005E
:101B5800A302F7A683C7440093F7070491EF9717EA
:101B68000000938727D19C43D844B8D3930700FC3F
:101B7800173700002300F7A48387640063D90700A0
:101B8800832709009C43173700002306F7A2184053
:101B98001C5F8583858BD9CBF5571CDF01000100BD
:101BA8000100010001000100010001000100010025
:101BB8000100010001000100010001000100010015
:101BC8000100010001000100010001000100010005
:101BD80001000100010001000100010001000100F5
:101BE80001000100010001000100010001000100E5
:101BF80001000100010001000100010001000100D5
:101C080001000100010001000100010001000100C4
:101C18000100010001000100010001009717000008
:101C2800938747C59C4313075004B8CB18401C5FE3
:101C38009183858B99CFBD571CDF97170000938739
:101C480067C39C4323A8070485471737000023036D
:101C5800F79683270900D8430583058B19C7D8430E
:101C6800759BD8C3D843799BD8C3B24022449244C9
:101C7800024941018280397106DE16DC1ADA1ED863
:101C88002AD62ED432D236D03ACE3ECC42CA46C814
:101C980072C676C47AC27EC0813DF250E252525377
:101CA800C2533255A255125682567247E2475248DD
:101CB800C248324EA24E124F824F2161730020302B
:101CC80097170000938707BB944317370000130743
:101CD800278EBC5289CF83472700858B89EB8347A2
:101CE8003700858BFDD7973700002385078C8280C6
:101CF80037C700401306C00393062003973500003A
:101D08009385058B83278720C18393F7F70363693E
:101D1800F60083278720C18393F7F70363E6F6006D
:101D280083C74500858BF9DF82809717000093876A
:101D380067B494431737000013078787BC5289CBD1
:101D480083470700858B91CB97370000238407864C
:101D580097370000A3800786828083471700858B0A
:101D6800F1DFDDB7971700009387C7B0904337C7F7
:101D78000040C145E54683278720C18393F7F703D1
:101D880063FBF50083278720C18393F7F70363E498
:101D9800F6003C52EDF3828017170000130787AC5A
:101DA8001843AA87185F1583058B41E3034515007F
:101DB80015051377C51F19C6B386E70083C6260025
:101DC8002300D60095C59726000083C6C67E93F6E5
:101DD80006040945A1CEB386E70083C6360005464A
:101DE80093F5F6066394C504E206E18663C006042B
:101DF8003385E7008347150003470500A20793F7DB
:101E08000770D98F1397070141839376074089CAD2
:101E18001367078097170000239AE7A4014582807B
:101E2800171700002314F7A4D5BF0545828097161D
:101E38000000938626A48C42368597260000938658
:101E48002677984593170701C183137817203E8694
:101E5800630608041377072069C703C726001367BA
:101E68001700172800002306E87413070019B8D1D3
:101E7800130700F897250000238EE5721717000056
:101E88001307479E0C4337080010D855719B1367FA
:101E98002700D8D598413367070198C113772610D2
:101EA80005C31376061059CE03C70600136717003B
:101EB80017260000230EE66E17270000231E076E64
:101EC80083C6460093C7F7FFC207E206E186C183CF
:101ED800184163D106029396170163DE0606305354
:101EE8008D4663E9C6008546172600002304D66C94
:101EF8003453FDFE972600009386C6538386460119
:101F080063DD060093960701C18663DC06047053FF
:101F1800894663E4C6007453FDFE1447F58F1CC759
:101F2800828003C716001367170097250000A38156
:101F3800E56817270000230F076617270000231DF1
:101F48000766A9BF03C736001367170017260000E6
:101F5800A301E66695B7854617260000230CD664CC
:101F680051BF54471396060163510602B706100085
:101F7800FD1674D3972600009386864F944E8506E7
:101F8800172600002322D65049BFA166D58F71B706
:101F9800397106DE16DC1ADA1ED82AD62ED432D2C9
:101FA80036D03ACE3ECC42CA46C872C676C47AC249
:101FB8007EC0B53DF250E2525253C2533255A2553B
:101FC800125682567247E2475248C248324EA24ED3
:101FD800124F824F2161730020301727000013072A
:101FE800E75E8346B7019727000083C77761B697F6
:101FF80093F7F70FFD4663EAF6044C4B972600006B
:10200800A386F65C9727000083C7575C05473317FC
:10201800F70097260000A385F65E6D8F1DEF9726C3
:10202800000083C6365EB3F6D70213050002814767
:1020380033D6F500058A13F8F70F09CE6399E60041
:1020480097270000A3840759828081177DB7050769
:102058001377F70F8507E39DA7FC82809717000089
:10206800938707829843B75702009387279F832651
:102078000709139656006358060083260709139626
:10208800660063440600FD17FDF3828045C1AA87F8
:102098000145D9CD8D07C207C183F19BC207C18312
:1020A80013074003636FF7021717000013074786EB
:1020B8000843171700001307278514436398A602DF
:1020C8001727000013070737185B014535C341116F
:1020D800C20706C60545DD8D0297B240014541019C
:1020E80082801717000013076782D9B70357650066
:1020F80005EF035745006369F702B306F740214629
:102108006370D6021041938687001D8FAA966117C7
:1021180090C22392E6002393060014C12312F5000F
:102128002313B50021058280084149BF01458280FB
:10213800828005C1970700009387877D03A8070061
:10214800970700009387477C8C430147C28763E366
:10215800B700828094436367F50863E5A608138691
:102168008700E368C5FE03D5670021660506631B83
:10217800C500170600000346E66A050617050000B5
:102188002302C56A23930700638607031706000026
:102198001306C6771042630FF6000356670019EA64
:1021A80083D7470014C383564700B697A107231265
:1021B800F700BA879843E30EB7F8970600009386AE
:1021C800E6749442E307D7F883566700D9F283D6BA
:1021D8004700035647001843A106B2962392D7003A
:0C21E80098C382803E87B6879DB7000038
:1021F800972100209381816017610020130101E07D
:1022080017F5FFFF130505E0971500209385055F77
:10221800172600201306467D63FAC50083220500B1
:1022280023A0550011059105E3EAC5FE17D5010065
:10223800130505FB9385C11E1386817263FAC500D9
:102248008322050023A0550011059105E3EAC5FE88
:102258001385817297550020938585CB6377B500E8
:10226800232005001105E36DB5FEB7220000938217
:10227800828873A00230971200209382225893E23A
:10228800120073905230971200009382E273739099
:102298001234730020303D432A876373C302937757
:1022A800F700BDEFADE5937606FF3D8ABA960CC3FD
:1022B8004CC30CC74CC74107E36BD7FE11E28280C1
:1022C800B306C3408A069702000096966780A60068
:1022D8002307B700A306B7002306B700A305B70076
:1022E8002305B700A304B7002304B700A303B7006E
:1022F8002303B700A302B7002302B700A301B70066
:102308002301B700A300B7002300B700828093F52C
:10231800F50F93968500D58D93960501D58D61B7F8
:10232800939627009702000096968682E78086FAA1
:102338009680C1171D8F3E96E374C3F8A5B7B717EB
:10234800004003C777051377E70FA38BE70413074C
:1023580000F8A38DE7043D47238CE70413075003D7
:10236800A38CE7048280B717004003D587005D710E
:102378005ED64205418186C6A2C4A6C2CAC04EDE48
:1023880052DC56DA5AD862D466D26AD06ECE9377C7
:10239800050C13070008814B6388E718130700042E
:1023A800639CE714B7240D8F7D8993840480B3D48C
:1023B800A4029167938707E8BE94A167938707D023
:1023C800B3D4F402EFA0313B97C70100938787513C
:1023D8009043D443EFA0E16EEFA0717C2A8B939CCD
:1023E800040103D9817293DC0C01631509000569A6
:1023F80013090980B7170040130770052380E70405
:10240800130780FA2380E704371A00400547939D95
:102418000401096C85662389E704D14A814E814508
:10242800130D0A0413087005130680FA894893DD12
:102438000D01130C0C712943FD1623000D01230017
:10244800CD0023162A0323000D0083472A05898B14
:10245800EDDF83570A0583472A05898BEDFF8347FC
:102468002A05898BEDDF83570A0523942173C20758
:10247800C183338597419319050193D90941638431
:1024880009163387B902635E070C850EC20E93DE08
:102498000E0163E8D80D63D9050A3305B0409315DA
:1024A8000501C185C204C18063D7350B09651305D1
:1024B80005713385A502B7170040130770052380FF
:1024C800E704130780FA2380E70423967703238021
:1024D80007043345950242054181B6402644964497
:1024E8000649F259625AD25A425BB25B225C925C4C
:1024F800025DF24D61618280B1E3B77489097D891B
:1025080093840480B3C4A4029167938707E8BE94B8
:10251800A167938707D0B3C4F402EFA0D12597C76A
:1025280001009387A73C6DB597C701009387473B88
:10253800856403AB07009384843855B5130B0000FA
:10254800954471BD3A89D5BDB387FC40939907017D
:1025580093D9094181BF0965130505713385A9021E
:102568008DBF3385B74163E4FC003385FD403305F7
:1025780085033344B5036345830013150401A9BFDC
:102588004E8536C642C432C2EFA01155DA85EFA097
:102598009125EFA0514E931E050193DE0E41B3071E
:1025A800D941C207C183056E3E8712462248894831
:1025B8002943B24663E3C701368742074183631A5A
:1025C800270113071900634430011307F9FF420775
:1025D8004183FD1A93FAFA0FCA8BCE85E3940AF663
:1025E8002394E17259BF0145CDBDB717004003D50B
:1025F80087005D7186C642054181A2C4A6C2CAC0D1
:102608004EDE52DC56DA5AD85ED662D466D26AD02A
:102618006ECE02C69377050C13070008638BE71488
:1026280013070004639FE710B7240D8F7D899384F7
:102638000480B3D4A4029167938707E8BE94A16786
:10264800938707D0B3D4F402EFA0F11297C7010023
:10265800938747299043D443EFA0A146EFA0315474
:102668002A89939A040103DBA17293DA0A0163159C
:102678000B00056B130B0B80B71700401307700591
:102688002380E704130780FA2380E704939B04015F
:1026980005478969056A2389E704D14D014D814CB5
:1026A80093DB0B01938909717D1A5A8597100020D5
:1026B800E7808020330C5541420C135C0C41239574
:1026C800617363010C16B3079C0363D1070E050DF4
:1026D800420D135D0D01894763EAA70D63DB0C0A00
:1026E80033059041931C050193DC0C41C204C18061
:1026F80063D88C0B0965130505713385AC02B717D0
:102708000040130770052380E704130780FA23802D
:10271800E70432472396E7022380070433459502EE
:1027280042054181B640264496440649F259625A08
:10273800D25A425BB25B225C925C025DF24D6161EF
:102748008280B1E3B77489097D8993840480B3C416
:10275800A4029167938707E8BE94A167938707D07F
:10276800B3C4F402EFA0310197C70100938707189B
:10277800D5B597C701009387A716856403A90700F5
:1027880093848438F9BD130900009544D9BD3E8B64
:1027980029BF3385AA40131C0501135C0C41B9B746
:1027A8000965130505713305AC028DBF63FEAA00E8
:1027B8003305754133053503A9473344750363C8A9
:1027C800870013150401B1BF3385AB40E5B76285B7
:1027D800EFA09130CA85EFA01101EFA0D129131DF8
:1027E8000501135D0D413307AB4142074183856500
:1027F800BA876363B700D287C207C183639A670148
:1028080093071B00634480019307FBFFC207C18342
:10281800FD1D93FDFD0F5AC6E28CE39A0DF6239534
:10282800F17245B70145FDBD41112A83014E930E52
:10283800407E130F0019930F400663EB6E0A93084E
:10284800001913034006B3781503854E0D4FA14FA9
:10285800337365020D891335150063E5BE0C130843
:10286800F6FF794672984208135808013307C702E1
:1028780013D61700BE0732976146B3F6C602130691
:102888008070B386C6023697A166F58F42075D8FC2
:10289800B717004083C6F70293F60608A307D100CE
:1028A8000346F10083C6F70293F60608E394C6FED2
:1028B8008346F10093F6F60FF1DE93067005238048
:1028C800D704930680FA2380D70423AA070383C674
:1028D800170393E60608A388D702D8DB03C71703B4
:1028E80013670704A388E702238007044101828055
:1028F8007D133368E3039308E016630E080033681A
:10290800F3039308D016630808009378330093B84C
:1029180018009388D81633081E01131E0801135E89
:102928000E0121BF6393E50305486386080001484B
:10293800630303002A8871087298FD15131E0801A5
:10294800C205135E0E01C18109BF13F8150063F4B7
:10295800BF007908D5B713381800E5BF914763EE73
:10296800B70217C701001307E7F88A05BA959C4113
:10297800BA978287B717004003A7470B1345F5FF9F
:10298800698F23AAE70A03A7070B698F23A8E70A19
:1029980003A7070A798D23A0A70A8280B7170040EA
:1029A80083A6470B1347F5FFF98E23AAD70A83A6F8
:1029B800070B558D23A8A70A83A6070A758F23A09E
:1029C800E70A8280B717004003A7470B498F23AA5D
:1029D800E70A03A7070B1345F5FF45BFB7170040E4
:1029E80083A6470B1347F5FF758F23AAE70A03A7AA
:1029F800070A598D4DB7B717004003A7470B498FF2
:102A0800EDB7B717004003D587004205418193779A
:102A1800050491EB9377F5013755E8011305058017
:102A28003345F50282809377050C130700046397FA
:102A3800E7009377F50137459C1CCDB72165130551
:102A480005D0828037E700E01C435443A183E206A7
:102A5800D58F1CC1FD572320F7182322F718828031
:102A6800B7F700E0C8439C4782808147373700406A
:102A7800A14663C4C700328582800345B740E38E10
:102A8800A6FE3385F5000345050085072304A74006
:102A9800CDB79387816A9C431747002013074747A0
:102AA8003E95636CE50017570020130727356366CA
:102AB800A70023A4A16A3E858280FD57EDBF41117E
:102AC80022C406C62A84353F2947B307E502B24027
:102AD8008D83B3D7870222449507B3D7E7023737E8
:102AE8000040C207C1832316F74041018280716507
:102AF80041111305052006C6D937B737004013071B
:102B080070F82381E7400D47A381E74013070004CD
:102B1800A380E74005472387E740B2404101828010
:102B2800411122C406C603C7050089470544631F2F
:102B3800F702D84129448347170003470700A20733
:102B4800D98FC207C187130710EE6391E702238765
:102B5800D172814793F6F60F972500209385C56CAF
:102B68001397070141836369D702014403C6E172E1
:102B780019CE938701739C4399CBDC4389CB972566
:102B880000209385656A0145829723870172228513
:102B9800B2402244410182803307F6000345070012
:102BA8003387F50085072300A7005DBF03C705002D
:102BB80089476315F706D84183471700034707007D
:102BC800A207D98FC207C187130710EE6394E704E1
:102BD80032852390060003C6D17219E2014582802E
:102BE80041112390C600972500209385655406C699
:102BF80097100020E780E02DA38601729387017368
:102C08009C43014589C79C4399C382970145B240BB
:102C18004101828023900600294582802390060086
:102C280005458280058909C99386C1224146914597
:102C38001385C11E6F60304A0145828009C523A8EB
:102C4800A172014582804545828051476362C7026F
:102C58004111172500201305A54D06C6A386C1728C
:102C680097100020E780E026B240014541018280AC
:102C78001305E00F8280CC41411106C6328503C698
:102C8800150083C5050022064D8E42068D654186D6
:102C9800138875A2630C060F6348C804138845A2FD
:102CA8006306060B634AC800938535A26309B60616
:102CB80023900600294679A0138855A26308060BBD
:102CC800938565A2E316B6FEC1451D4663ECE5068D
:102CD8004546198E63F3C7003E862390C60097C504
:102CE8000100938565C389A8138895A26300060F20
:102CF800634E060B1388A5A2630A060F938505A5E4
:102D0800E318B6FA99451D4663EEE502198E63F39A
:102D1800C7003E862390C6009385416B31A89D4528
:102D28001D4663E1E5022146198E63F3C7003E861E
:102D38002390C60093854173BA9597100020E780C9
:102D480040190146B240328541018280AD451D4699
:102D5800E3EAE5FE3146198E63F3C7003E86239009
:102D6800C60097C501009385E5BEF9B7B1451D4674
:102D7800E3EAE5FC3546198E63F3C7003E862390E7
:102D8800C60097C501009385E5BD7DB7C1451D46C1
:102D9800E3EAE5FA4546198E63F3C7003E862390B9
:102DA800C60097C50100938565B879B7C1451D462A
:102DB800E3EAE5F84546198E63F3C7003E8623909B
:102DC800C60097C501009385E5BABDB7C1451D4644
:102DD800E3EAE5F64546198E63F3C7003E8623907D
:102DE800C60097C501009385A5B5B9B7B5451D4679
:102DF800E3EAE5F43946198E63F3C7003E8623906B
:102E0800C60097C50100938525B03DB79386413725
:102E18004146CD45138541246F60F02B83C785005B
:102E280093F70702D9EB03C3050089482E88854725
:102E3800631C130383A84500328EB68E83C718001F
:102E480083C808003A8FA207B3E71701C168938FB8
:102E580018FE638DF7018D18638A17010D68130832
:102E6800289063890705A9473E858280AD47E31D01
:102E78000FFE0547B547E399EEFE8327C8000347D1
:102E88000E002380E7000327C8009387C1736313EC
:102E9800F70001439387C1749843814771D718435A
:102EA80061D7411106C61A850297B24081473E850F
:102EB8004101828085476F40F066A14775B72D456F
:102EC8003DEF03C7050089476317F706D8418347D5
:102ED800170003470700A207D98F4167130547FE6C
:102EE800638AA7006362F502FD07C207C18305472D
:102EF800636FF70085472390F600DC45014583C7DB
:102F080007002300F600828015176386E7002390E8
:102F1800060029458280CC4595474111328523908A
:102F2800F600154606C697100020E78080FAB240E2
:102F380001454101828023900600054582808280F8
:102F480041677917630CE502411122C406C685471B
:102F58002A84639AF50022852244B240938501743D
:102F680041016F60902389476396F5008545EF809E
:102F7800706D75D1B2402244410182808280411136
:102F880022C42A844165938501747D1506C6EF60C5
:102F9800D020170500001305E5FA0588EF801062B8
:102FA80001CC2244B240938601494146C545138568
:102FB800013841016F603012B2402244014541019D
:102FC800828009C523A6A174014582804545828077
:102FD800914763E2A70817C701001307E79A0A0594
:102FE8003A951C41BA978287854761456397F506EC
:102FF80083470600238EF17201458280854761452B
:10300800639DF50483470600A38EF172F5B78547E3
:1030180061456394F50483470600238FF172E9BF85
:1030280085476145639BF50283470600A38FF172CC
:10303800E1B7954761456392F5024111B285138561
:103048004174154606C697100020E78080E8B24014
:10305800014541018280094582808280914763E869
:10306800A70417C70100130767930A053A951C417F
:10307800BA97828783C7C1732380F5000145828090
:1030880083C7D173D5BF83C7E173FDB783C7F17316
:10309800E5B741112E8515469385417406C69710EC
:1030A8000020E78000E3B2400145410182800945E4
:1030B8008280411106C6EFF00FABBD4763F4A7004D
:1030C800EFF06FAAEFF06FD2BD4763F4A700EFF0FF
:1030D800CFD1B24083D5A17203D5817241016F105F
:1030E8002015411193962500AA852D4506C69710EF
:1030F8000020E78020A9B2400145410182804111AA
:1031080026C29394250022C44AC02A843289A686FE
:10311800AA850146254506C697100020E78080A6A7
:10312800A6864A86A285294597100020E78080A5B3
:10313800B240224492440249014541018280011172
:1031480022CC06CE3714004026CA4AC84EC652C4FE
:1031580083447405034AB4058349840503499405E7
:10316800EFF0EF9D8347A40593F4F40F137AFA0F59
:1031780093E71700230DF40493F9F90F1379F90F66
:10318800B717004003C7A705058B6DFF03D5C70513
:10319800A38D4705238C3705A38C2705A38B97049C
:1031A800F2406244D2444249B249224A05618280CF
:1031B80041119397050122C406C6C1872E8463DD99
:1031C8000700EF00D00D19C1EF00D0062165218D51
:1031D800B24022444101828093F7150013C51500BF
:1031E800E5FB9397250163D00702EF107179D1357C
:1031F80037F60200130606E0896503C50175EF007E
:10320800305B0965E9B7939715010145E3D207FCDF
:1032180017B501001305457EEFA06153130600643E
:10322800916503C50175EF00B05811654DB71D7163
:10323800494697B501009385A57717C50100130581
:10324800A5AC86CEEF00903E01E917B50100130545
:103258006577EFA0C14F01A037F700E0F9575CC7C9
:10326800FD571CCB8566B7E700E023A0D7101306EF
:10327800701010C3B8434146B0C323A0D718B8C3D1
:10328800010001001306C00381454808EF00F03330
:1032980097270020938787193ECA896793870780F5
:1032A800231CF100ED57A301F1029307A01023128C
:1032B800F102D1472303F102A167938707E03ECECD
:1032C80097070000938727E2BEC4970700009387FB
:1032D80047E3BEC685472304F102B5472308F10238
:1032E80097F7FFFF938707783EDAB7F50700970748
:1032F8000000938707E53EDE814697070000938725
:1033080087DB7000E1051945BEC097100020E780F3
:10331800608758088147994670003E960346060024
:1033280085070507A30AC700E398D7FED24791C7C8
:103338000357810185676373F70001A04808EF1000
:103348008004AA8501C917B501001305E568EFA037
:10335800612E01A0F6402561828041111705000009
:10336800130545E506C622C4EF00707E1384017577
:103378002300A4002928034504002244B24037F65C
:103388000200130606E0896541016F007042411191
:1033980006C622C493067005371400402300D404DF
:1033A800130780FA2300E4048347F40293F7A70F76
:1033B800A307F4022300D4042300E4048347F4029F
:1033C80093E72700A307F402ED311305407E23009D
:1033D800040481470147814605468545EFF0CFC47F
:1033E8002244B240014541016F10402717B5010042
:1033F800130585636FA0A135011106CE19C589474C
:103408006300F502F2400561828017B501001305DB
:103418002575EFA0C1339305F10001458131DDB772
:1034280017B5010013058575EFA061329305F1000A
:103438000945EDB77D15954763E6A70A17B701005B
:103448001307C75B0A053A951C41011122CC06CE29
:1034580026CABA972E84828717B5010013054569D5
:10346800EFA0E12E91A017B5010013056569CDBF46
:1034780083D4E50017B5010013058569EFA0212D58
:10348800B14763F3970217B5010013056569EFA00B
:10349800012C0355A40083C7016D1307803E8146A4
:1034A80031469945EF609111F2406244D24405617A
:1034B800828017B501001305A5675DB78547130618
:1034C800F100854513055030A307F100EF60514B1B
:1034D80017B501001305456761B717B50100130556
:1034E800A567BDBF82807971170500001305C51750
:1034F80006D622D426D2EF0090659384016D054448
:103508002380A4003008854513055030230C810022
:10351800EF60114713864152FD4513057030EF6087
:1035280031461386416D9D4513056030EF60514566
:103538009305000A0D45EF2090159305000A1145E3
:10354800EF20F0143008914513057040A306810060
:10355800230781002308810002CCA3070100EF5054
:10356800D11E1306D100854513050040EF50F11D0B
:103578001306E100854513051040EF50111D130691
:10358800F100854513052040EF50311C1008854592
:1035980013055040EF50711B7D55EF40C04C7D55D1
:1035A800EF60803CEFF09F867D55D13A7D55EFF076
:1035B8006FE71386C150D5450145EF40E03D894787
:1035C8002307F1008D47A307F100B73732339387FC
:1035D80007133ECCB7373637938747533ECE93878A
:1035E8000172984383C747001306D10085450145FA
:1035F8003AC8230AF100A3068100D93A1306E1006C
:1036080085450545F1321306F10085450945C9325E
:103618003008A1450D456D3A1008954511454D3ABC
:103628001385C16C793A1385416CEFF02FE103C51E
:1036380004008545EF007005B2502254925445614C
:1036480082802E86AA8501456FF02FE0011123069E
:10365800A1008945680006CEA3060100DD37F240C7
:103668000561828001119397050122CC06CE26CAF6
:103678004AC8C1872E8463D0070203C5016D05219E
:1036880011C14D2EA1673D8C2285F2406244D2447F
:1036980042490561828093F715009DC31386015046
:1036A8009385C17603C5016DEF60E1771306803E0F
:1036B800894503C5016DEF00B00F13441400E9B745
:1036C80093F725008DC789451306803E03C5016D14
:1036D800EF00100E2C000D45EFF05F9811E530005B
:1036E800A1450D45EFF0DF8E1344240071BF93F719
:1036F8004500ADC79384C1759040138981758327B0
:1037080009009315C60017B501001305E532BE95EB
:10371800EF9051729C40832509008566B2070146E7
:10372800BE95054597000020E780C0451375F50F45
:1037380009C5293F1344440081BF9C40850723AE37
:10374800F174138701761843E3E0E7F417B5010035
:103758001305C52FEF90B17F0145E1BF01442DB797
:103768001305E00FE5B5411122C417240020130406
:1037780064BB26C22286AA8491469D652D4506C64D
:1037880097000020E78000409306001001469D65E1
:10379800254597000020E780E03E2286230094001C
:1037A8002244B240924491469D6529454101170340
:1037B80000206700233D01456FF0CFA87971972756
:1037C800002083C727B706D622D493C70708114716
:1037D8006360F71A17B701001307C7238A07BA9758
:1037E8009C43BA978287172600200346B6B423A4C1
:1037F800C1769725002083D505B4B76703009205E5
:10380800BE9517B501001305652523A2B176EF9083
:103818007162938741768C4383D681761726002080
:10382800130686B1094597000020E780A035137478
:10383800F50F19C417B5010013050524EF90317170
:1038480022852935B250225445618280972500206F
:1038580083D565AEB76703009205BE95172600208D
:10386800035686AD17B501001305052223A2B176CC
:1038780023A0C17623ACB17423AE0174238A0176E8
:10388800EF90515B938781759443B777030063EF9B
:10389800F600938701769C43370710007D17BA9787
:1038A800B207B69737D706006375F7001305F00F10
:1038B80049BF914503C5016DC92B69B7172600207B
:1038C800034656A723A4C1769725002083D5A5A62D
:1038D800B76703009205BE9517B501001305C51C0F
:1038E80023A2B176EF9011559387817694439387FD
:1038F80041768C4317260020130606A40D45970031
:103908000020E78020281374F50F19C417B50100AB
:103918001305451BEF90B16303C54177418D238A99
:10392800A17605B717B501001305051BEF903162A5
:1039380059350D450D3D294597000020E780601455
:1039480097000020E780A00BF5BD17B5010013050F
:103958006519EF90D15FB707600389073EC6D14567
:10396800B707107368003EC8230A0100D939D9BDCA
:10397800C53BC9BD4111172500201305A59B06C6E7
:1039880097000020E780E054B240410105BD0111D5
:10399800914670009D652D4506CE97000020E78072
:1039A800601E8346C10005479387F6FF93F7F70F1C
:1039B8006367F700A38DD16CF24005618280A38D07
:1039C800E16CDDBF41111305800406C69700002095
:1039D800E78020F3371700408327870A8D451305B2
:1039E800002093E707202324F70AEFE03FF7EFF0E2
:1039F8000F9017B5010013052531EF905155413F40
:103A0800EFF0FF82EFF07F95EF60D121E93C97005E
:103A18000020E780E00A23AC05FE1C4191E7010085
:103A280001000CC18280BA8703A787FF6DFF23AC12
:103A3800B7FE82801DC18346E5FF1307F00F91474B
:103A4800639EE600411106C697100020E78020EE2D
:103A5800B24081473E854101828095473E858280FC
:103A680001E9014582800145B2402244410182803A
:103A7800411122C42A84210542059305D0044181BD
:103A880006C697100020E78020E071DDFD5723204F
:103A98000500231285002303F5002105F1B71387DC
:103AA80081771C43411122C426C24AC006C601447C
:103AB8000149BA8489E7A1658D250DC401A803C70A
:103AC800E7FF6318A7021DC8A165C1269840832790
:103AD80084FF6317E40223ACF176FD57232C04FE20
:103AE800230FF4FE2285B240224492440249410148
:103AF800828011E03E8983A787FF6DBF3E84E5BFC2
:103B0800232CF9FED9BFA9C9411122C406C62A84AB
:103B18009737002083C757152E856368F400193F2F
:103B28000D45B24022444101828083A785FF99E771
:103B380003C7E5FF9307F00F6305F700E53D15455B
:103B4800CDB7238F85FE13858177F13522852244F1
:103B5800B240A165410115AE1545828023AC0176BE
:103B68008280938701799C4399E33E85828003D7BD
:103B780027006316B70003C70700E308A7FEDC4762
:103B8800E5B74111939705014AC006C622C426C26B
:103B9800C1872E8963DE0700193711C1613D216590
:103BA8003345A900B240224492440249410182802F
:103BB800AA860145E5D901443D47B3578940858B1D
:103BC80095CB938741788443BD4791E28147A2977B
:103BD8008E070545BE9433158500131405019C40D6
:103BE800C8404180829723A0040023A204003345E3
:103BF80024014DBF0504E312E4FC0144CDBF97370F
:103C080000209387A7029C53411122C406C613843F
:103C1800C16D95C7829723AEA16C0840B7470300D2
:103C28009387D73F3305F502B7A72600938737EC6C
:103C3800B24022443E9523AEA16C41018280973761
:103C480000209387670218409C4BBA9723AEF16C0B
:103C5800E9B79387C17790439736002083C6D6008B
:103C6800814713F7F70F6360D70A17370020034718
:103C78001714914763E0E70A9737002083C7C717EF
:103C8800918BC9EB0111680006CE22CC26CAEFC081
:103C98002000FD56630FD50C32479737002083C7A5
:103CA80017FA63F3E70C173700201307E7FB4047C1
:103CB800173700200347C7F86305D406058B21CFC3
:103CC80051473304E40263F1870A97000020E78034
:103CD800A045B2476373F400A28717370020034753
:103CE80017F6998F3E9597370020938727F4838797
:103CF800470163CD0702B707C0A86369F502B70794
:103D080040573E9525A0850713971700329703570C
:103D1800E7FF21DB8280130790023304E402058069
:103D28005DB762076187635707001D8D19E937057D
:103D3800C0A801A8E37BF5FE3707C0A8B307F74082
:103D48003E9597370020938767EEDC53829709EDFD
:103D580097370020938747059C4F99C7EF007173E9
:103D6800EF102158EF001167F2406244D244056118
:103D7800828097370020938727EFDC47E386A7FEEA
:103D880017370020130787EA83464701BA84858AD4
:103D98009DC65144338487029737002083C737EA8A
:103DA800E3F487FC97000020E7800038973700206D
:103DB80083C7F7E81D8C2295838744011DBF130430
:103DC8009002338487020580C1BF2A9609E5828064
:103DD8000505A30FB5FEE31DC5FED5BF8147330713
:103DE800F5000307070019E33E8582808507C5BFF4
:103DF80001112E8626CAAA84131506019305F0041C
:103E0800418122CC06CE32C697100020E780C0A799
:103E18002A8419C53246A68597000020E780600BE2
:103E28002285F2406244D24405618280814763144E
:103E3800F600054582803307F5008507B386F5004F
:103E48000347070083C6F6FFE383E6FE0145828049
:103E58009307F6FFBE952A966313C5008280FD1569
:103E680083C715000505A30FF5FEFDB7814711E9C6
:103E7800014582803307F50003470700E31AB7FEC0
:103E88008507E319F6FE054582809737002083C72A
:103E9800B7DD637FF5001387C177931715000843D3
:103EA8003E9583570500DD8D2310B50001458280BE
:103EB8000D458280FD57011117370020232CF7DAB2
:103EC8009387017922CC80434EC697390020938985
:103ED800E9D526CA4AC852C456C206CE5AC02A894B
:103EE80081444E8A973A0020938A0AD81844814719
:103EF8006374E900B307274103A749021CC409CB2F
:103F080003A7CA0063F6E700173700202324F7D673
:103F1800A1E7835524009DE95C44A1E823A8F17832
:103F2800032BC400228597100020E78040A05A8404
:103F380055FC83274A0285CF6244F240D244424965
:103F4800B249224A924A024B056121B30345040053
:103F58002D3F5C4081CB1CC483572400D5DFA2844D
:103F68004044F9B71C44CDDBC5BFDCC455BFF240A3
:103F78006244D2444249B249224A924A024B0561FC
:103F880082809737002083C737CE6371F502138785
:103F9800C17793171500084393C5F5FF3E958357DE
:103FA8000500FD8D2310B500014582800D458280F6
:103FB8009737002083C757CB6364F500014582809B
:103FC800411122C426C24AC006C62A842E89B28458
:103FD800493E01C504C505452DA0936504F0C205F9
:103FE800C181414597100020E780008A0DE197378D
:103FF80000209387A7C39C5B81C7A2851145829740
:104008000145B2402244924402494101828093878B
:1040180001799C438DE323A8A178854723260500D1
:1040280004C52311250123008500A300F5002322E0
:10403800050055B7BA87D84775FFC8C7F9BF45C542
:1040480039715AD0138B417822DC26DA4AD84ED6F9
:1040580052D45ECE66CA6AC86EC606DE56D262CC36
:104068003689328AAE89AA8401445A8DB94D854B66
:10407800F94C03270B00131C3400937AF40F629752
:104088001C43A9EF13B5FA0013451500B3978B002D
:1040980063F65D01930714FFB397FB00939507013F
:1040A800C181528631371DC983270D000145E2972A
:1040B80084C323A237016304090023005901F25085
:1040C8006254D2544259B259225A925A025BF24B64
:1040D800624CD24C424DB24D216182800504E31AF4
:1040E80094F92145E9BF09458280411122C426C2BD
:1040F8004AC006C6AA842E8932845D3DCA852685B3
:10410800EFF03FA609C940C10145B240224492449C
:104118000249410182802145CDBF411122C426C2F6
:104128004AC006C6AA842E89EFF0BFA32A8419C103
:10413800231105009737002083C707B363949700BE
:1041480023942179CA8526852D3D014511E019451D
:10415800B240224492440249410182807547636B10
:10416800A704138741781443411126C293143500DC
:10417800A696944222C406C6AA873A84094595C6DB
:1041880013B5F7003947134515006373F700C517D2
:104198008545B395F500C205C18141371C400145ED
:1041A800A69723A0070023A20700B2402244924406
:1041B8004101828009458280411106C6EFF07F9A4D
:1041C80009C50845B240410182800145E5BFF54770
:1041D80063EDA704938741789C4313173500BA977A
:1041E8009843894721C7011126CA06CE9334F500A2
:1041F80022CCB94793C4140063F3A70045150544BE
:104208003314A400420441802EC62685A2856D374A
:104218008947324609C5A2852685593B8147F24020
:104228006244D2443E850561828089473E8582800A
:104238002390A1782391B1788280411106C623A6E4
:10424800A1780295B2409737002023A9A7A201457B
:1042580041018280994763E9B7008A0597370020B2
:104268009387C7A2BE9588C18280411106C6EF60B8
:1042780061227146814517350020130525A1B13605
:10428800130640028145173500201305E59D353E8C
:1042980023A8017823A601789737002083C7C79AF7
:1042A80013D527008D8B3E958D473305F502930571
:1042B800101035051375F50F973700202387A79A37
:1042C80099473305F5021305050F97000020E7808D
:1042D800A05B23A2A1782DC9994717360020034671
:1042E800C6983306F60281451306060FF93C9387F4
:1042F80041789C439387070F23AAF178173700204A
:104308000347A7960A07BA9723AEF176EFF01F8501
:1043180065269387417998439737002083C7D794B8
:1043280093962700BA96170600001306C68590C212
:1043380093862700850793F7F70F8A07973500209C
:10434800A384D592BA9790C3B2404101828097372F
:10435800002083C77791173700200347079163F13F
:10436800E702138741791843938617001736002010
:10437800A30CD68E93962700369708C33E85828075
:104388009307F00FE5BF1C416383071A41777D8FC0
:10439800B70600208947631DD718035745006309EE
:1043A8000718411122C419462A849305F00F5905AC
:1043B80006C6EFF0BFAB05478D476305E5161C44FD
:1043C80081CB58589947630F0714185C630C07147E
:1043D8001306C00381451735002013052585EFF026
:1043E800DF9E1306C003A285173500201305058438
:1043F80097000020E780E0AD9737002083D7C78378
:10440800973600209386868299E79307001017371E
:1044180000202313F7829737002083C7078291E78C
:10442800854717370020230AF7809737002083C76E
:10443800D78091E7ED4717370020A300F78097272B
:10444800002083C7A77F91E79547172700202307F8
:10445800F77E9727002083C7777E91E78547172740
:104468000020A30DF77C9727002083C7777D99E765
:1044780083C7060117270020A304F77C972700208D
:1044880083C7E77B91E7D147172700202309F77AED
:104498009727002083C7677B95E7172700200347E6
:1044A800277A1316870161869307C00263480600BE
:1044B8009377170093B717009387D7021727002021
:1044C8002305F7789727002083C7777795E717277D
:1044D80000200347E7761316870161869307C00219
:1044E800634806009377170093B717009387D7029E
:1044F80017270020A305F7748347D40191E789475C
:1045080017270020A302F7749C5691C78297972714
:104518000020239EA774913BFD5717170020A3077F
:10452800F7BC8147B24022443E85410182808947D9
:104538003E858280011122CC06CE2A842EC6EFF059
:104548000FECB245F240818D33A5A5022295624455
:104558001375F50F05618280011122CC06CE2A84DD
:104568002EC6EFF0CFE9B245F240818D33A5A50202
:10457800229562444205418105618280011122CC65
:1045880006CE2A842EC6EFF08FE7B245F240818D21
:1045980033B5A502229562440561828097270020E1
:1045A8009387C768985725C3411122C426C206C6F7
:1045B800BE840297172700200357676B2A8441C7D8
:1045C800BA876373A700AA87C207C183BA866373D1
:1045D800E400A286C206C182958F51476355F7064B
:1045E800DC5491C382978547172700202302F77C64
:1045F800EF00113997270020239B8766B240224499
:104608009244410182809727002083C7677A9DE7FB
:10461800972700209387477983C79700850793F7E3
:10462800F70F17270020A305F778A18B9DC78547AB
:1046380017270020231EF7766F00B13A972700202E
:10464800A3880776D5BF9727002083C76776DDD76D
:104658002244B24092444101C5B782809727002086
:104668009387C75CD857011122CC06CE3E8401C778
:104678002AC60297324509CD23ACA1781705002038
:10468800130505AC5D3EF240624401450561828038
:104698008307440163DD07009727002023A2075EF4
:1046A80097070020938727A423ACF178C1BF970709
:1046B8000020938767A7CDBF011122CC17240020C3
:1046C8001304C456084406CE26CA4AC801E905455B
:1046D800F2406244D2444249056182805C58E5DB7D
:1046E800185C75D77000854582971844B247E30077
:1046F800F7FE9305E004172500200355E5539700BE
:104708000020E780601817270020232DA75661D1C5
:1047180017260020035646529305F00FEFF0EFEAF4
:10472800814417290020130929549727002083C79B
:10473800C7500326C90163C1F402328597000020DF
:10474800E780E01E01459727002023AD07529727F1
:10475800002023AB0752ADBF9725002083D5C54D58
:10476800B38795020844185C898185043E9508C280
:10477800029765BF411122C4172400201304044B7B
:104788001C4426C206C64AC0972400209384C44D00
:1047980091EBC84C35E9B2402244924402490145A4
:1047A800410182801C5CF5D7DC4C99EF9305E0044D
:1047B800172500200355454897000020E780C00CC6
:1047C8009727002023A0A74CC84C61D517260020A6
:1047D800035686469305F00FEFF02FDF0149972720
:1047E800002083C78745D04CE355F9FA9725002068
:1047F80083D58544338525031C44898105093E9565
:104808001C5C08C28297E1BF97000020E780201255
:104818009727002023A807469727002023A60746A6
:104828009DBF011156C2972A0020938A2A4083A768
:104838008A0022CC4AC84EC606CE26CA52C45AC0DE
:10484800AA892E8432896385072203A74A0363074E
:1048580007147D476366A714972400209384C440F7
:1048680003AAC40163170A0A9565938515E01725FD
:1048780000200355653C97000020E780E00097275B
:10488800002023A1A7402A86630A051083A74A03AC
:1048980003A58A009725002083D5053A8981829748
:1048A80083A78A0003AAC40117270020232EF73CF8
:1048B8008947639CF908C1476312F40E97250020C5
:1048C80083D58537938505FC9147B3C5F5028A05DD
:1048D800D29503C705009307A005631DF70A83C790
:1048E80015006399370B4A852286910597F0FF1FBB
:1048F800E780205EDC4C5285639347150145F24002
:104908006244D2444249B249224A924A024B056162
:1049180082809850E38EE7F89565938525E0172502
:1049280000200355653197000020E780E0F52A8ACA
:1049380035C52A8683A74A0303A58A009725002040
:1049480083D5852F89818297A5B78D47639DF90007
:10495800C1476315F4049725002083D5E52D938579
:1049680045FDF199B5B79147639AF9006318340387
:104978009725002083D5452CA115E5B7C147639F2E
:10498800F900A14763EC87009725002083D5C52A45
:10499800C115C1BFDC4C52856397470D294585B7C2
:1049A8001307F006568B6361A70A130A05FE194719
:1049B800334AEA021727002003570728972A0020BE
:1049C800938A8A2A330AEA023E9A83A70A026395DF
:1049D800470183A4CA019DE49305E004172500203C
:1049E8000355852597000020E78000EAAA845DD555
:1049F80083274B039725002083D505242A868981A0
:104A08005285829791451307A005898193972500C0
:104A1800A69783C607006393E60483C61700639CC2
:104A2800360385058A052286A6954A8597F0FF1FD5
:104A3800E780204A83A7CA01E38297EC268597007E
:104A48000020E780C0EE5DBD1307E007E368A7F428
:104A5800130A05F985B783D5270045BF83A7CA017F
:104A6800E38E97F2268597000020E78040EC3DB75B
:104A7800972700209387471FCC4F8DD191479306E6
:104A8800A0058983139727002E9703460700E3178D
:104A9800D6F003461700631C360185078A0722866D
:104AA800BE954A8597F0FF1FE780A04281BD8357D6
:104AB8002700C1BF9727002093874717984739C712
:104AC8009C5FA9C705476313E504411122C4172455
:104AD800002013046419504C06C60DC608509725CB
:104AE800002083D5651589818297484C970000205E
:104AF800E780E0E39727002023A6071897270020E0
:104B080023A40718B2402244410182808280011107
:104B180017270020130787114EC68329870022CC48
:104B280026CA4AC806CE52C456C2AA842E843289DE
:104B3800638A09201C5FBA8A99EB2945F2406244CE
:104B4800D2444249B249224A924A056182805C5B5A
:104B5800EDD7FD4763E9A70E972900209389C9106F
:104B680083A7C901B1CB03A58A0083A7090263956E
:104B7800A70689476393F408C147E310F4FC172597
:104B880000200355650B9147130505FC3345F502D5
:104B98009317250003A5C9012286CA853E95930768
:104BA800A0052300F500A3009500110597F0FF1F4D
:104BB800E7802032014559B79305E0041725002006
:104BC8000355850797000020E78000CC9727002031
:104BD80023AAA70A49F995B783A74A0303A6C901D7
:104BE8009725002083D545058981829783A78A0068
:104BF80017270020232AF708ADBF8D47639EF400CE
:104C0800C147E31CF4F2172500200355E5021305FC
:104C180045FD9377C5FFBDBF9147639AF400E31E36
:104C280094F017250020035525012115DDB7C1474C
:104C3800E395F4F0A147E3E287F017250020035538
:104C4800A5FF4115F9B79307F00663EAA70693078E
:104C580005FE1947B3C7E702172700200357C7FD0A
:104C6800172A0020130A4A00B387E702BE99832750
:104C7800CA01A9CF83270A02639A37070325CA0105
:104C880091461308A005FD5593D72600C207C18396
:104C9800139727002A9703460700631D06078348D2
:104CA80017000356270063959806B306D64063CFCE
:104CB800860485078A072286CA853E95C5BD93075F
:104CC800E007E3ECA7E6930705F979B79305E00455
:104CD80017250020035545F697000020E780C0BA45
:104CE8009727002023A0A7FA51F581BD83A74A037F
:104CF8000326CA019725002083D505F489814E85AE
:104D080082979727002023A137F98DBFA300B7000A
:104D1800B2869DBFB3858600172600200356C6F1CC
:104D28009105130606FCE3FAC5E013063400137672
:104D3800C60F1106B29623000701A300970023119E
:104D4800D70085BF97270020938707F2D44FBE89E5
:104D5800A1C203A5C90191461308A005FD5593D723
:104D68002600C207C183139727002A970346070026
:104D780063160605834817000356270063989800B2
:104D8800B306D640E3D786F2A300B700B286C1BF08
:104D98008357C70017250020034525EA9305E0043B
:104DA8003305F5024205418197000020E780C0AD38
:104DB8009727002023A8A7EC49FD41B31726002018
:104DC800035686E79725002083C525E7B385C502E6
:104DD800338686001106E3E2C5D681BF014582808D
:104DE800011106CE2EC6EF60F07301C9B245F2403C
:104DF8000355250005616FA06033F2404945056100
:104E08008280A382017C2382017C23A6017A23A8C5
:104E1800017A23AA017A23AC017A23A4017A23A276
:104E2800017A97270020938727E83707B40098C3AB
:104E38003747A000D8C3370710009306070A94C75E
:104E4800B7065000C106D4C7930607054107D8CB5B
:104E58003707D007410798CF3707840398D337C758
:104E68000700130707B8D8D3416794CB9306070107
:104E7800130717F8D8D7370781FF98DB7D5723AE7C
:104E8800070094D7239AE7028280011126CAAA84D0
:104E9800214522CC06CE2E8432C636C43AC2EFE073
:104EA8003FBC1DC9A24612473246930700FD2300A6
:104EB800F5009947A30095002301F5002303D500C9
:104EC800A303E5002312C500AA8522856244F240A7
:104ED800D24405616FE03FC3F2406244D2440561A9
:104EE800828023A6A17A828023A8A17A828023AA1D
:104EF800A17A828023ACA17A8280011122CC4AC88F
:104F080006CE26CA2A890144B30489006368B4001E
:104F1800F2406244D2444249056182802EC6EFE0E5
:104F28001FCE93170501C183A183B2452380F400E6
:104F38009307140093F7F70F850463F9B700CA972E
:104F480009042380A7001374F40F7DBF3E847DBF3E
:104F5800C16717250020035505D9FD176304F5021D
:104F68004111170600200346A60D9385C17B06C68E
:104F7800EF60103AB240FD57172700202315F7D6E7
:104F880041018280828009C925151375F50F1335F3
:104F9800850E134515008280014582802380050017
:104FA800F94763E2C708797122D426D24ECE56CA91
:104FB8005AC806D64AD052CC5EC63684B289AE8A62
:104FC8002A8B814463FF3405B307940003CA0700A2
:104FD800138914001379F90F63050A04B3072A012A
:104FE80063C1F904B307240183CB07005E85613FE1
:104FF8000DC99307FAFF2380FA0063906B0313052A
:1050080019002295B250225492540259F249624A28
:10501800D24A424BB24B45618280D29493F4F40F4A
:1050280055B70145C5B701458280411126C2AE84F6
:1050380022C49727002023AFC7CA9727002023A997
:10504800B7CA9727002023A3A7CA2A8441469305F5
:10505800F00F26854AC006C60549EFE03FE1631E0A
:105068002503972700209387A7C7884BC14571352B
:1050780041469305F00F2285EFE05FDF8544631614
:105088009502224497270020938787C5B24092440F
:105098000249C847C14541018DB54146814526852C
:1050A800EFE0DFDCE31625FD6DBF41468145228533
:1050B800EFE0DFDBE30795FCB2402244924402496B
:1050C80041018280411122C426C22E84AA8413067B
:1050D8000002814517250020130585C006C6EFE0AC
:1050E800DFCE97270020A38E97BE97070020A38ABC
:1050F80087F4EFA02005854719C181474945B2408B
:10510800224417270020230DF7BC924441018280D6
:10511800814781CD19C98547631BF50083C75500B1
:1051280093E707FCA382F50085473E85828089477F
:105138006317F50083C7550093F7F703E5B70D47E5
:105148008547E314E5FE03C755001377F703136794
:105158000704A382E500D1BF81478DC105C103C7FC
:1051680055009306000C85471377070C6308D70092
:10517800930600048D476303D70089473E858280E4
:10518800411122C4005D06C626C21DC8AA84085063
:1051980009C597F0FF1FE7808079485009C597F047
:1051A800FF1FE780C078085409C597F0FF1FE78004
:1051B8000078228597F0FF1FE780607723AC040210
:1051C800B240224492444101828009ED9727002091
:1051D80083C727B117250020130505B281CB138596
:1051E800C179828017250020130505B18280172513
:1051F8000020034505AF828097270020938747AE9C
:10520800C847828097270020938787AD884B828084
:10521800972700209387C7ACDC4B88438280972769
:1052280000209387E7ABD84B1C4385071CC3172581
:105238000020034515AB9307F00F6305F500916552
:105248006FE0BFC48280011122CC06CE2E8432C604
:10525800EF60D03D9147B245631FF5009387817B8E
:105268009C438DC303A30700630E03002285624499
:10527800F240056102839387017B9C4381C703A3A6
:105288004700DDB7F240624405450561828001119F
:1052980022CC2A840355450006CE26CA4AC84EC6E3
:1052A800EF60701735C52A89834405008349C50016
:1052B800C13D4A85EF70501603554400EF609032A7
:1052C80083C7417CB1CB6399970483C5517C2685FC
:1052D800EFF01FB119E12382017C03554400EF6010
:1052E800F0349147631FF5000357440097270020C7
:1052F80083D7679F6317F700FD57172700202314EC
:10530800F79EF2406244D2444249B2490561828024
:1053180081499304F00F6DB79307F00FE38FF4FA08
:105328008346640003564400034524004E87A6853F
:10533800A93E65B779715EC6AA8B2E8552CC56CA2E
:105348005AC806D622D426D24AD04ECEAE8A328B3E
:10535800368AEF60500C6DC1045D2A89F1CC9C50EF
:10536800614599C3130540039C5481C75105420503
:10537800418163050A00710542054181DC5081C7FE
:10538800590542054181EFE0AFED2A8455C56146D4
:105398008145EFE09FA39729002083C9E99363948F
:1053A800090083490900930700FD2300F400A94779
:1053B800A30074012301F400230364018C50231219
:1053C80054011305840191C908C47146930A440322
:1053D80097F0FF1FE780E0AF56858C5491C948C409
:1053E8005146930A450197F0FF1FE78080AE568526
:1053F800630C0A0008C87146D285930AC50197F064
:10540800FF1FE78000AD5685CC5099C548C859465E
:1054180097F0FF1FE780E0ABA2854E85EFE0AFEE87
:105428002254B2509254F249624AD24A424BB24B89
:105438004A8502594561A9B3B2502254925402597F
:10544800F249624AD24A424BB24B4561828001110D
:105458004EC6AA892E854AC806CE22CC26CA2E89CF
:10546800EF60607B31C59724002083C4E48699E00F
:10547800834405001945EFE0AFDE2A8415C981454C
:105488001946EFE09F94930700FD2300F400B94705
:10549800A30034012301F40023122401A2856244ED
:1054A800F2404249B2492685D24405616FE0AFE532
:1054B800F2406244D2444249B2490561828039715E
:1054C8005ECEAA8B2E8526DA4ED652D456D25AD024
:1054D80006DE22DC4AD8AE84328BB68A3A8ABE8986
:1054E80042C6EF60407331C92A894145EFE04FD782
:1054F8002A8421C541468145EFE03F8D17150020DC
:105508000345857D19E103450900930700FD230044
:10551800F400BD472301F400B247A300740123122D
:10552800940023046401A304540123054401A30542
:1055380034015CC4A285EFE00FDDF2506254D2540E
:105548004259B259225A925A025BF24B2161828027
:10555800797126D2AA8439454AD04ECE06D622D4AD
:105568002EC6B2893689EFE0AFCF21C1B245930785
:10557800000D2310F500B1472A842312B50023013A
:10558800F500CE851905194697F0FF1FE78060944E
:1055980023062401A2852254B2500259F24913F578
:1055A800F40F925445616FE00FD6B25022549254D2
:1055B8000259F24945618280171700200347777224
:1055C8009307F00F630DF706411126C2AA843945E7
:1055D80022C406C64AC0EFE0AFC82A8439C9930777
:1055E80000FD2300F500A300950023010500971591
:1055F8000020938565700D05194697F0FF1FE78019
:10560800408D171900201309A96D83578900A285B9
:10561800171500200345F56C2315F400834719007E
:105628002306F4002244B2409244024941016FE04B
:105638008FCDB24022449244024941018280828047
:10564800011156C2AA8A314526CA4AC84EC652C452
:1056580006CE22CCAE84328AB6893A89EFE04FC0B2
:1056680029C92A842685EF60005B1DCD0345050006
:10567800930700FD2300F4009D47A3005401230174
:10568800F400231294002313440123143401231536
:105698002401A2856244F240D2444249B249224AD6
:1056A800924A05616FE02FC6171500200345756300
:1056B800C1B7F2406244D2444249B249224A924AAE
:1056C80005618280397162CC2A8C594526DA4AD81C
:1056D8004ED652D456D25AD05ECE06DE22DCAE84E6
:1056E80032C636C4BA8B3E8BC28A468A83590104B5
:1056F80003494104EFE0CFB635C53246930700FDB4
:10570800A2462300F5009547A301C500A300850123
:105718002301F5002A8419461105A9C2B68597E028
:10572800FF1FE780007B23066401230A2401231559
:105738007401231754012318440123193401A28545
:105748006254F2504259B259225A925A025BF24BB1
:10575800624C2685D25421616FE0EFBA8145EFE0B3
:10576800CFE6D1B7F2506254D2544259B259225AB4
:10577800925A025BF24B624C21618280971700209B
:1057880083C727568DCB4111AA8519461385C17940
:1057980006C697E0FF1FE780C0739385C179171588
:1057A800002003450554EFF0BF96B2401385C17938
:1057B80041016F90B01901458280171700200347F7
:1057C80057529307F00F6305F708411126C2AA84C0
:1057D800294522C406C6EFE0AFA82A8429C1930749
:1057E80000FD2300F500A1472301F500A300950063
:1057F800971700209387C74E83C727009385C179E1
:105808001105A30FF5FE194697E0FF1FE780606CAE
:10581800A285171500200345D54CEFE0CFAE17172A
:1058280000200347074C8D47631FF7009387417B90
:105838009C4391CB03A38700630703002244B24033
:10584800924441010283B240224492444101828041
:10585800171700200347E7488D47631AF700938717
:10586800417B9C4389C703A38700E31D03FC828017
:10587800797122D406D626D24AD04ECE52CC0944CB
:1058880045CD2A89035505002E8A5144EF60A0387A
:10589800AA845DC197F7FF1F83C7B77AFD1793F7EF
:1058A800F70F054749446379F7080347C500A1473F
:1058B8006314F70063120A089C5C4544B5EF9165D0
:1058C800938545711305C00297F0FF1FE780C0FB61
:1058D80088DCAA894D442DC11306C0028145EFE03A
:1058E800CFCE835709009386490036852391F90066
:1058F80071469305490036C697E0FF1FE780605D53
:1059080089472380F90003C5C400B246035609003D
:10591800611597F5FF1F83C5A57213351500EF8034
:1059280050522A8463060A00D2852685EF70205BD0
:1059380001C42685EFF0DF842285B25022549254A8
:105948000259F249624A4561828097F7FF1F83C76F
:10595800576FFD1793F7F70F05476378F7088947DF
:1059680051C6011122CC26CA4AC84EC652C406CE18
:10597800AA89368AB2842E89EF60E0292A84D14721
:1059880029C9485509C597F0FF1FE78040FAF14536
:105998002685EFE0EFC548D4CD4705CD8346C40042
:1059A80021478147639FE600630D0A000347A5016D
:1059B8000356050193062501AA854E85EF605047D9
:1059C800AA8703474400630F09001367670023028F
:1059D800E400F2406244D2444249B249224A3E8538
:1059E8000561828013674700DDB7C9473E8582801D
:1059F800E54763EBA700971700209387E72A06057A
:105A08003E9503550500828041657D158280011110
:105A180022CC2A842E8526CA06CEAE84EF60A01F2B
:105A28000DCDB7470F009387F723094563E2870237
:105A380081450A854146EFE04FB9A68523108100CC
:105A48000A85418023018100A3010100EF80102114
:105A5800F2406244D244056182804945D5BF97F738
:105A6800FF1FA38FA75C82806F803036797152CC7C
:105A78002A8A328522D426D24AD04ECE56CA5AC84D
:105A88005EC606D662C4AE8BB28A368BBA843E89AD
:105A9800C2894684EF60201815C92A8C63140A024B
:105AA80013774B008347450015CF93E7270123025F
:105AB800FC008DEC631C0902639A090205E8ED9B62
:105AC8002302FC00832B8C03639F0B06B2502254E5
:105AD80092540259F249624AD24A424BB24B224C82
:105AE80045618280F59B93E70701D1B793E74700AB
:105AF8002302FC0001CC1C484146A2852324FC0259
:105B080013058C0197E0FF1FE780A03C63910B020F
:105B1800D5D80325CC0209C597F0FF1FE78020E1FF
:105B2800F1452685EFE0CFAC2326AC0261BFE30B3D
:105B380009F80325CC0209C597F0FF1FE78020DF8D
:105B4800F1454A85C5B79DC483A70B0299EB9165BA
:105B580093853571714597F0FF1FE780E0D223A048
:105B6800AB0203A50B0219C57146A68597E0FF1F76
:105B7800E78020366388090283A74B0299EB916579
:105B880093852571594597F0FF1FE780E0CF23A241
:105B9800AB0203A54B0219C55946CE8597E0FF1FF6
:105BA800E78020331DC483A78B0299EB9165938509
:105BB8001571514597F0FF1FE78000CD23A4AB0274
:105BC80003A58B0219C55146A28597E0FF1FE78000
:105BD80040302254B2509254F249B24B224CCA86F9
:105BE8005A860259424BD6855285D24A624A456145
:105BF8006FF04FF4011126CA52C406CE22CC4AC80F
:105C08004EC62A8AAE84EF60000125C5AA893945A7
:105C1800EFD01FE52A8431CD171900200349C90B9D
:105C28006314090003C909009307000D2310F40049
:105C3800AD472301F4009385690013053400194624
:105C480097E0FF1FE780E02893F714008580858898
:105C58002306F400A306940023154401A285624498
:105C6800F240D244B249224A4A85424905616FD07E
:105C78009FE9F2406244D2444249B249224A05614E
:105C880082809387417A884301CD411106C697F0F7
:105C9800FF1FE780C0C9B24023A2017A4101828078
:105CA8008280011106CE22CC26CA4AC82EC6EF50E1
:105CB800907639CDB245171900200349E901AA8425
:105CC8000CD563140900034905004145EFD05FD99D
:105CD8002A841DCD9307000D2310F500A547230145
:105CE800F50083C75400938564001105A30FF5FEE2
:105CF800194697E0FF1FE780C01D9C54A285F2401B
:105D08005CC46244D2444A85424905616FD0BFDF12
:105D1800F2406244D244424905618280797122D4BA
:105D280006D62A842EC6EF50106F0DCD8346C500C7
:105D38001147AA8749456393E6029C5FB24599C318
:105D480083C567010808EF70C02297860000938614
:105D580046AC100889452285EF60D012B250225413
:105D6800456182805145DDBF97F7FF1F83C7772DB7
:105D7800FD1793F7F70F0547637AF704894721CA98
:105D8800411122C426C24AC006C6B2842E89EF50E9
:105D980090682A84D14705C56308090083474500F0
:105DA80093E727002302F5004146A68513058401E1
:105DB80097E0FF1FE780E0119C481CD48147B24060
:105DC8002244924402493E8541018280C9473E856A
:105DD8008280797122D406D62A842EC6EF50B06309
:105DE80001CDB2452285230EB1006C08EF70A00BDF
:105DF800B2502254456182805145DDBF6F50107802
:105E0800C1671387E7FF6394E5029387017B9C438F
:105E180091EB494582804945B24022449244024967
:105E28004101828003A30700E30503FE02834111B9
:105E380022C426C24AC006C6FD172A892E84B28407
:105E48006395F5029387017B9C4391CB9C4381CB5F
:105E5800829711E52382217DA382917C75BFA68557
:105E68004A85EFE0FFF74DF9F5B72E85EF50B05AA8
:105E78005DD1834705000D45E39027FB2285224429
:105E8800B2400249A685924441016F90202A654795
:105E98006362A7044111416722C406C626C27D1762
:105EA8002A8409456383E502C547AE846315F40077
:105EB8002E85EF90202F9317140017140020130439
:105EC800A4DEA297239097000145B2402244924451
:105ED8004101828009458280011106CE2AC6EFE081
:105EE8005FF2EF10A005EF002077EF40210C32455C
:105EF800971700209387C7DE130700F02391E70068
:105F0800238207007D5797F7FF1F93876713A380A6
:105F1800E7002380A700F240954505616F40E059EE
:105F28001D7193970501CAC886CEA2CCA6CACEC653
:105F3800D2C4D6C2DAC05EDE62DC66DA6AD8C1874D
:105F48002E8963D6074C17F5FF1F0345650FEFD061
:105F58001FB58964416A856A797B2A84938BD4004A
:105F68007D1AA50A691B15E021653345A900F6408D
:105F78006644D6444649B649264A964A064BF25BD9
:105F8800625CD25C425D256182808347040013070E
:105F9800200A639DE70003552400171C0020034CCA
:105FA8005CD42286D285EFF00FAA99A213071009B4
:105FB80017FCFF1F034CDC086399E716834714009E
:105FC80015476390E7022285EFF06FAC2285EFD08A
:105FD8007FA617F5FF1F0345A506EFD05FAC2A84FF
:105FE80059B739476399E71603554400631B5505AC
:105FF8000C4483C90500639D0900850591C91946AC
:1060080017150020130545CF97E0FF1FE78060ECC8
:10601800171700200347C7CC85476318F710638A12
:10602800090097170020238D07CA4E85EFF0CFD8B7
:1060380071BF8947171700202304F7CAEF90C010D3
:1060480071B793872400631AF50683298400638E49
:10605800090C83C709008DE383C7290003C719000A
:10606800A207D98F171700202310F7C883C7390054
:1060780017170020A306F7C617170020034747C6BF
:1060880089476314F70A83C7090081CB9717002053
:10609800238807C403C5090051BF8D479715002001
:1060A80083C515C417150020035505C4171700200C
:1060B8002308F7C2EF406043F1BF93875400631889
:1060C800F5001C4403C50700EFF02FEF01B7B30735
:1060D8006501C207C1831147636FF7009387417B4E
:1060E8009C43E38507EE9C43E38207EE2285829773
:1060F800E31E05EC1DA89387B400631FF500938782
:10610800C17A9C43E38407EC9C43E38107ECA285B6
:106118001385B4008297E9BF9387C4006310F50222
:106128001C4483C70700E38307EA9307F00FE30FD4
:10613800FCE8A2856285EFD01F9D61BD9387E400CE
:10614800E315F5FE9387017B9C43E38107E8DC4375
:10615800A285E9F3A5BD3D476397E70403554400CD
:10616800E30275FF93879401E30EF5FC93873401EE
:10617800E31DF5FA9717002083D7E7B6639E47011A
:106188009387017B9C43E38307E4DC43E38007E4D4
:10619800A28513853401BDBF9387817B9C43E38728
:1061A80007E29C43E5B71307E003E390E7F883476A
:1061B800240005476396E70E83476400138D417AF0
:1061C800F1E383270D00D5CB03CC0700A149034594
:1061D8007400930C8400E685EFE01FF883474401C0
:1061E800A303A400835804010358E40003574400A0
:1061F8002A86034534003EC283572401E686E28599
:106208003EC0CE87EFF00FCC8347340095E7DD47DB
:10621800835804010358E4008346740083554400FE
:106228003EC283572401668705463EC06285CE87F5
:10623800EF50D056A301A40083270D0081C7114554
:10624800EFF03FA403C5417CE30205D883C5517C28
:10625800EFE01FB9E30C05D683463400930710031B
:10626800638AF600035644004E8783C5417C368511
:10627800EFE0BFC12382017C91BB171C0020034CB7
:106288005CA6A9B79387417B9C43171C0020034C4D
:106298005CA591498DDFDC439DDB0145829705BFF5
:1062A80029476390E70C83476400938C417AC1E7E0
:1062B80083A70C00A5CF03CC0700A14903457400B0
:1062C8009306840093772500C9C713761500130D2C
:1062D8004401834704028358C4010358A4010357A7
:1062E8004400034534003EC28357E401E2853EC0C2
:1062F800CE87EFF02FBD8347340095E7DD478358FD
:10630800C4010358A40183467400835544003EC267
:106318008357E4016A8705463EC06285CE87EF5001
:10632800F047A301A40083A70C0009BF171C002095
:10633800034C3C9B59B79387417B9C43171C002017
:10634800034C3C9A9149BDDBDC43ADDB01458297A8
:10635800B5B7B68536CEEFE03FE0F2462A86368DF1
:106368008DBF0947639DE7009387C17A9C43E38FFC
:1063780007C4DC43E38C07C42285829781B92D4783
:106388006399E7009387C17A9C43E38107C49C47DC
:10639800D5B70D476397E70022868D45035544001E
:1063A80019B11947E393E7D8930561021305103132
:1063B800EF30114C2C1013052031EF30714B035680
:1063C8006400835781020355440063E8C70083567D
:1063D80084000357610263F7E60093050002EF802B
:1063E800705BEDB66374E6002313E40063F4D70032
:1063F8002314F4000357C4008356A40003568400F2
:106408008355640001488147EF809058C1B693F7DF
:10641800150081CF9387C17A9C4389C7DC4399C310
:10642800014582971345190099B693F7250081CF46
:106438009387417B9C4389C7DC4399C30545829771
:10644800134529002DB693F745000145E38107B2AE
:106458009387817A9C4391CF8547171700202303A0
:10646800F7889387417B9C4389C7DC4399C30545DB
:106478008297971700209387A786C8472C10EF703C
:1064880090662810EFF08FAF9717002083D7E78327
:1064980081CF130600643386C702914517F5FF1FA5
:1064A800034505BAEFD0DFB013454900C9B441111F
:1064B80022C42A84554506C6EFF08FD3B335A00011
:1064C80022852244B24041016F809049797122D4DB
:1064D80006D68D472E84631FF50003D7A50083D603
:1064E800850003D665000345340083D54500EFF0E9
:1064F8002F9509A889671387D7006310E50403C59A
:10650800250019E58547B25022543E8545618280B1
:106518009387417A9443FDD603C6360083C50600A7
:10652800814802C202C00148814701479106EFF045
:106538006F990545EFF0EFF4F1B71387E700E30330
:10654800E5FC13873701631AE50003C525005DD90B
:10655800014781460146814559BFE507E304F5FA3D
:1065680041677D178147E310E5FA03C75500C9471E
:10657800E31AF7F883D6E50003D6C500035584006F
:1065880083D5A500EF80904241C95D45EFF04FC625
:106598003335A000231CA100834544000355240083
:1065A8003008EF50405883578101A9FF6C08130544
:1065B8001031EF30F12B9305E10113052031EF3055
:1065C800312B8357C101035784006374F7002314E8
:1065D800F4008357E1010357A40063F4E70023158F
:1065E800F400835784000357A4006374F70023154D
:1065F800F40003552400EFA0B0690357E400835664
:10660800C4000356A40083558400035524000148A0
:106618008147EF80F035FDB58547231CF100ADBFFC
:10662800C1671387E7FF639DE5009387417A9C4321
:1066380095C383C707000D47639CA7006F809032FE
:10664800FD1749476396F5009387417A9C43FDF708
:106658003A8582804947EDBF2388017C23AC017CC1
:1066680023AA017C970700209387876917070000F2
:106678001307074898C3170700001307274BD8C309
:10668800170700001307675B98C79387817C170774
:106698000000130727F998C317070000130747E3FB
:1066A800D8C38280797122D406D626D24AD04ECE5B
:1066B80052CC56CA5AC80347050085472A84630A3C
:1066C800F70403468500930695009305F1000545F8
:1066D800EFE0DF8C814719C183470500834604003A
:1066E80011476380E6041387417D18438D460347AD
:1066F80017006308D70295C70DC719ED0145B250B9
:10670800225492540259F249624AD24A424B456194
:10671800828081470145D9B785466318D7028D8B9A
:10672800F1DF03451400130A2400D285EFE0DFA24D
:10673800A300A4001389817D83270900AA8A8149BF
:106748009304F00F99EB05455DBF8946E318D7FA26
:10675800858BF9B7850993F9F90F83C7017D63FB29
:10676800F90203250900139B49005A958347050040
:10677800E38297FE83471500E39E57FD1946D285AD
:106788000905EFD0AFEA79D583240900034704004F
:10679800DA9485EC834604009147E381F6F6832773
:1067A8000900A9DF03C6017D01479305F00FE30740
:1067B800E6F4BE84C10703C507FF630CB50A0507E5
:1067C8001377F70FEDB788C4E5A09147631AF7066A
:1067D800C84405C583478400034605006304F606DC
:1067E800034704009147631BF706C84419C597E09F
:1067F800FF1FE780C01323A60400034584009165AA
:106808009385E571050597E0FF1FE780E00705C55B
:10681800034704009147631CF704C8C483478400F6
:10682800930594000505A30FF5FE0346840097D051
:10683800FF1FE780006A034584003335A000C1B517
:10684800884441BF930594000505EFD02FDE8547A6
:10685800E318F5F85545EFF0AF99BDA8884451DD28
:1068680097E0FF1FE780A00C23A4040079B788C431
:1068780075B72380D40083471400D285138524007C
:10688800A380F400194697D0FF1FE7808064034572
:10689800840091659385F571050597E0FF1FE780F2
:1068A800A0FE05C5034704009147E31EF7F0C8C4DE
:1068B80083478400930594000505A30FF5FE03465E
:1068C800840097D0FF1FE780C06083478400E39C63
:1068D80007E6034504007D15133515000DB50111B4
:1068E80022CC1384817D1C4006CE26CA4AC84EC6D7
:1068F80052C499CF2E8AAA8401490840631299028A
:10690800630C0A0497E0FF1FE780600223AC017C58
:10691800F2406244D2444249B249224A0561828027
:1069280093194900B3073501884709C997E0FF1F44
:10693800E780E0FF1C40CE9723A407001C40CE97B9
:10694800C84709C997E0FF1FE78060FE1C40BE9951
:1069580023A60900050955B745DD1396440081456E
:10696800EFD0AFC6144081477D5613F7F70FE37198
:1069780097FA1397470036972300C7008507F5B79E
:10698800011152C4138A417D83270A0006CE22CC06
:1069980026CA4AC84EC656C25AC0C9CF2A89014417
:1069A80019ED9387817D944399CA03C6017D2A8492
:1069B80081479305F00F13F7F70F6367C70813159F
:1069C80034002105EFD0CF89AA8401E92145EFD011
:1069D8002F89AA8421C501444D49930700FD2380CE
:1069E800F4008547A38024012381F400A381840057
:1069F8005DC41389840023A224018149938A817D7F
:106A0800130BF00F83C7017D63F3F90031E8832787
:106A18000A00A68503C50700EFD0EF8E814503C5A0
:106A2800017D753D03250A0097E0FF1FE78020F0F0
:106A380023AA017CF2406244D2444249B249224A24
:106A4800924A024B056182801397470036970347A5
:106A580007006305B70005041374F40F8507A1BF89
:106A680083A70A0093954900BE9583C705006384F0
:106A780067032300F90083C71500130529007D1457
:106A8800A300F900194689051374F40F97D0FF1F66
:106A9800E78020442109850993F9F90FA5B723A2B6
:106AA8000400B5B7411122C406C62A8415E1094578
:106AB800EFE01FF42A8601C9854517E5FF1F034546
:106AC8002558EFD0EFCE0545EFF07F9E2A8411C9F7
:106AD800854517E5FF1F0345A556EFD00FE422852E
