:040000006F008065A8
:1000040000000000000000006F0080086F00401E28
:1000140000000000000000000000000000000000DC
:1000240000000000000000000000000000000000CC
:100034006F004006000000006F00E00500000000B3
:100044006F0080056F0060056F0040056F0020059C
:100054006F0000056F00E0046F00C00400000000A2
:100064006F0060046F0040046F0020046F00000400
:100074006F00E0036F00C003000000006F00600326
:100084006F0040036F0020036F0000036F00E00265
:1000940001A001A001A001A001A001A001A001A054
:1000A40001A001A001A001A001A001A001A001A044
:1000B40001A001A001A001A001A001A0B717004068
:1000C400930670052380D704130780FA2380E7047E
:1000D40003C6B7041376F60DA385C704238007046B
:1000E400137605022DC603C6A700118A0DE22380EC
:1000F400D7042380E70403C7A700136747002385B9
:10010400E7009307004B01000100FD17EDFFB7174F
:100114000040930670052380D704130780FA2380D8
:10012400E7047D892394A700010001000100010078
:10013400238007042380D7042380E7049306100553
:1001440037270040A303D7802380070482801376D7
:1001540005046DDE03C6A700418A0DE22380D7049F
:100164002380E70403C7A700136707012385E7007B
:100174009307007D01000100FD17EDFFB717004054
:10018400930670052380D704130780FA7D892380A2
:10019400E704136505042394A7000100010001008E
:1001A4000100238007042380D7042380E7049306F7
:1001B40030053727004079B7411181460146814512
:1001C400114506C6B12AB7170040130770052380EE
:1001D400E704130780FA2380E70403C7670413675F
:1001E40017002383E70423800704B240410182807F
:1001F40081460146814511452522B71700409306E3
:1002040070052380D704130780FA2380E7047D5602
:100214002396C7022380D7042380E70403C7670417
:10022400136717002383E7042380070401A0BD4755
:100234003305F50201007D1575FD8280411122C44C
:1002440026C206C6AA84014463179400B24022441D
:1002540092444101828005041305803E4204C13F5B
:100264004180DDB72303048015472303E4800100A4
:100274002302A480828083076480E3CE07FE2303E5
:100284000480828083076480E3CE07FE03454480B4
:10029400828083076480E3CE07FE2302A4808280E9
:1002A400411126C44AC24EC006C61377F50BAD47AA
:1002B400AA892E8995446306F70019456537653F79
:1002C4008D444E854537FD59FD1463983401B24081
:1002D400A2441249824941018280135509011375D0
:1002E400F50F453F2209CDB7011126CC06CEB70440
:1002F400080051371545BD37713769372AC6A53F00
:1003040032459377150089EB136515001375F50FC6
:10031400F240E24405618280FD14E9FC0145CDBF51
:10032400397126DC4ADA4ED852D656D45AD25ED027
:1003340006DE62CE66CCB7E700E07D5783AA0700ED
:1003440022C603AA470023A0E71823A2E718B71779
:100354000040130770052380E704130780FA238005
:10036400E70483C74704930B75FFB684E20793FB46
:10037400FB0F8546AA892E8B328937240040E187FA
:10038400015763FA76016308D50089461307000212
:100394006313D5000157D98F93F7F70FB71C0040AB
:1003A4002382FC0411472303E4801305F00F5D3D11
:1003B400094CD13563697C11B70707003E9B378729
:1003C40007007955637EEB02B3079B00636AF7026B
:1003D400A9476399F90689E48144713D26850DA0F6
:1003E400DA850945753D05090345F9FFFD14050B3B
:1003F4004D3581C49377FB0FFDF7FD3569FD7D55C0
:10040400B7170040130770052380E704130780FA29
:100414002380E70403C74704418B2382E704F25097
:10042400B7E700E023A0571123A24711E254324456
:100434005259C259325AA25A125B825B724CE24C34
:1004440021618280A5476395F90685691309F00F38
:10045400B3069900B3742B01B6941349F9FFB3742E
:100464009900856B33796901416B9387F9FFB3F781
:10047400270199E363FC340193D94900C147E3E6BA
:1004840037FF99BF0569C1697D19D9B71305800D77
:100494006388690113050002638479011305100858
:1004A400CA85FD3B913521DD4E99B3843441D9B7DA
:1004B400DA852D45F533CA94E30099F20509D93359
:1004C400A30FA9FED5BF9387F9FF93F7F70F636CCA
:1004D400FC0803C75C04B70708001377070219E395
:1004E400B78707007955E37DFBF033079B00E3E909
:1004F400E7F089476390F9048980D549E38E04ECD9
:10050400DA850945713B11090327C9FF9147232067
:10051400E48003076480E34E07FE23033481FD1760
:10052400EDFBFD14110B81C49377FB0FE9FF6D3BC9
:1005340071F5F1B58547E387F9F4DA852D458D33F7
:100544009389F4FFE38A04E8353B93F7390091EB90
:10055400832604800327090093074900E39FE6E606
:100564003E89CE84F1BFB5476396F9001305900B1D
:10057400D5399DB5B1471305B00AE38BF9FE994708
:10058400639EF902DA852D45213B81448D4BA149B7
:10059400D53963967401832704802320F9008504E8
:1005A400E39834FF8327048013172B016355070056
:1005B4002312F90015B52322F90039BD9D4763992B
:1005C400F90281451305B004E139BD442320090033
:1005D40023220900FD597D3193F77400CA9703C79C
:1005E4000700FD14398D2380A700E39634FFEDB393
:1005F400A1476392F904CD398144630D0B008D4703
:100604009304C0036308FB009304000563048B0197
:10061400930440041375C507E30095DC194599312B
:100624009939054581312685AD3109459D316D39AD
:10063400E31405DAE9B391476399F90013056006F9
:10064400153115391305900925B7E38709D8F154F5
:0406540069B3000086
:100658009741002093818120178100201301019A7E
:10066800130540009735002093854519173600205B
:100678001306067E63FAC5008322050023A05500F1
:1006880011059105E3EAC5FE17550000130505118C
:1006980097450020938585961386818063FAC50067
:1006A8008322050023A0550011059105E3EAC5FE44
:1006B800138581809385C1066377B50023200500E3
:1006C8001105E36DB5FE9302800873A002309732DE
:1006D80000209382A21293E2120073905230971274
:1006E80000009382429273901234730020303D438D
:1006F8002A876373C3029377F700BDEFADE593765E
:1007080006FF3D8ABA960CC34CC30CC74CC74107B9
:10071800E36BD7FE11E28280B306C3408A069702D4
:10072800000096966780A6002307B700A306B700C7
:100738002306B700A305B7002305B700A304B70035
:100748002304B700A303B7002303B700A302B7002D
:100758002302B700A301B7002301B700A300B70025
:100768002300B700828093F5F50F93968500D58D09
:1007780093960501D58D61B79396270097020000DF
:1007880096968682E78086FA9680C1171D8F3E96D8
:10079800E374C3F8A5B701478147AD46B305E50043
:1007A80083C50500139677008583AE97B297050732
:1007B80093F7F70FE314D7FE3E858280397126DA66
:1007C8004ED652D456D25AD05ECE62CC06DE22DC49
:1007D8004AD8AA898144130B500E130AF00F954B7F
:1007E800194CC14A83C70900638A671385E393E4F8
:1007F8000408F250625426854259D254B259225AFA
:10080800925A025BF24B624C2161828083C7B90025
:10081800138717FF63040710E11763810710FDE0D2
:100828001384051E3D494E852EC6B537B2459387BC
:10083800C1C1834604000347B4001386B6F14517C7
:10084800133717003336C000718F69CB0347D400C4
:100858006316A70C014613181600229803472800B0
:100868008348180003D8070022073367170101CB14
:1008780063070800630547016312070B890705062C
:10088800E31B76FD01461318160022980347F8006B
:100898008348E80003D8070022073367170101CB14
:1008A8006307080063054701631A070789070506F8
:1008B800E31B86FD0347D4010346C4012207518F79
:1008C80003D6070019C611C7630547016318E60474
:1008D80089070347F4010346E4012207518F03D631
:1008E800070019C711C6630547016319C7028907BD
:1008F80093F60604E39F06EE631D09001384051EA4
:100908003D4905BF1389F4FF1379F90F138409FED4
:1009180019BF7D191379F90F011421BF850493F4C8
:10092800F40F93890902E39F54EB9304F00FD1B5B8
:100938004111138681F026C24AC006C62A8922C4FC
:1009480081471307F00FB2841305C0051308F0029E
:1009580093050004B386C70083C6060013F4F70F97
:10096800A1CA6385A600638306013A848507639F4D
:10097800B70211C88947631FF40203C791F09307B0
:10098800A003631DF7029307F0022394F1F0EF2010
:10099800B00B930710046313F50001452300890089
:1009A800B2402244924402494101828022875DB7C5
:1009B8003A84C1B79307F00FE301F4FEB3878400CC
:1009C80023800700EF20500801CD9307100463131C
:1009D800F5000145A2949307C0052380F4007DBF6C
:1009E8001305300BC5BF35714EC706CF22CD26CBB8
:1009F8004AC952C556C35AC1DEDEE2DCE6DAEAD895
:100A0800EED6EF10E05C138781F08147930600046F
:100A1800BA89B385E70083C5050010103E96230008
:100A2800B6008507E397D7FE1305F10111372A8928
:100A38001DC11304E00F2285FA406A44DA444A498A
:100A4800BA492A4A9A4A0A4BF65B665CD65C465D06
:100A5800B65D0D6182801384C1819385C1A19557CC
:100A6800238EF1A0014D014B228AAE8A930BF00F21
:100A7800854D228CAE8C85472384F1F02EC623A6A3
:100A880081F0050BEF30A03993441D00420B03C7DA
:100A980081F093F4F40F135B0B0119CBB245228557
:100AA800313B63007505BD4763F6A7041379F5006C
:100AB800EF20D06281471307000410103E960346CA
:100AC8000600B386F90085072380C600E397E7FE92
:100AD80093041003930CE007130CA00313041003F2
:100AE800D1A06306BD016684E285268D69B762845C
:100AF800E685E5BF0347F10116052A949307170019
:100B080063157709CE970147930500022146B3067E
:100B1800E40083C606006385B6002380D7008507F6
:100B28000507E316C7FE83468400130700026387A0
:100B3800E6001307E0022380E700850721479305B5
:100B480000022D46B306E40083C606006385B6009E
:100B58002380D70085070507E316C7FEEF20105846
:100B6800EF20706E2A8417550000130525A5EF3075
:100B7800B007D1B59410CA9683C606FC33872901FD
:100B880005092300D7001379F90FE315F9FE9DBF76
:100B9800850B93FBFB0F63998B0105041374F40F0A
:100BA800630E8425930B10038347F101CE97A3832B
:100BB800770123839701A382870023829700EF2080
:100BC800A06879D5EF2030682A84E31605E68147C6
:100BD800130700043386F900034606001410BE9676
:100BE8002380C6008507E397E7FE1305F1018933E3
:100BF8007D1B23A461F1EF30601E2A84E31D05E20A
:100C080085472384F1F023A641F1EF3040212A845F
:100C1800E31305E29387C1C13E869306500383D54B
:100C28000700130714001377F70F89C589073A845B
:100C3800E317D7FE9307140093F7F70F93065003B3
:100C4800FD556393D71CB547B354F4023374F402CB
:100C580093F4F40F01C4850493F4F40FCA9493F445
:100C6800F40FBD4763EB971A13945400B30B8A0033
:100C78000114529493175900D29703C7C7005E8591
:100C88002386EB0003C7D700A386EB0003D7E70052
:100C98002397EB0003D707012398EB0003D727011D
:100CA8002399EB0003D74701239AEB0003D7670189
:100CB800239BEB0003D78701239CEB0003D7A701F5
:100CC800239DEB00D84F23AEEB0003C7B700A385E5
:100CD800EB0003C707002380EB0003C71700A380BE
:100CE800EB0003C727002381EB0003C73700A3816C
:100CF800EB0003C747002382EB0003C75700A3821A
:100D0800EB0003C767002383EB0003C77700A383C7
:100D1800EB0003C787002384EB0003C79700A38475
:100D2800EB0083C7A7002385FB00B534C14763F6F2
:100D3800972C9387C1C105473D46C51483D6070044
:100D48002300E400A305C400A300D400A18223016A
:100D5800D40083D6270023060400A306A400A30119
:100D6800D400A1822302D40083D64700230D0400B7
:100D78000507A302D400A1822303D40083D6670009
:100D88001377F70FE907A303D400A1822304D40043
:100D980083D6E7FE0114A304D402A1822305D4025A
:100DA80083D607FF2317D40283D627FF2318D4023C
:100DB80083D647FF2319D40283D667FF231AD402A8
:100DC80083D687FF231BD40283D6A7FF231CD40214
:100DD800A30D040283D6C7FF231ED40283D6E7FFE0
:100DE800231FD402E31C97F41384C19FC144054C0C
:100DF800330CEC40B38424413D4D5DA8850493F445
:100E0800F40FE39D84CD35B113971700329785070A
:100E18002310B70093F7F70F2DB5C147638BF40084
:100E280013945400130404E0B38B8A0001145694FD
:100E380091B5938BC1A11384C19F2DBD2300E400FC
:100E4800A3010401A302B400A303C400A304D400B3
:100E580013588800A1812182A1820507A300B4014B
:100E680023011401230204012303B4002304C40052
:100E78002305D400A305A40123060400A306A400A7
:100E8800231724012318740023195400231AF4018A
:100E9800231BE401231CD401230D0400A30D04002B
:100EA800231EC401231F6400E90701141377F70FF9
:100EB80083D80700B30C870193FCFC0F93FDF80F50
:100EC80003D8270083D5470003D6670083D6870059
:100ED80003D9A70083D3C70083D2E70083DF0701C4
:100EE80003DF270183DE470103DE670103D38701A0
:100EF80093D88800E3949CF4BD4713670704A301C3
:100F08000401A302B40013588800A181A303C400FC
:100F1800A304D4002182A182A305F400A306A4009F
:100F28002300E400A300B4012301140123020401F7
:100F38002303B4002304C4002305D40023060400BB
:100F4800231724012318740023195400231AF401C9
:100F5800231BE401231CD401231D0400231EC40108
:100F6800231F640013850B029387C1A1637DF506D7
:100F7800231005000905E31DF5FE23A461F1EF1018
:100F88002005EF20B0652A84E31705AA8544238449
:100F980091F023A641F1EF10A003EF3000002A845E
:100FA800EF100003E31904A883D7C1A189CB2384D8
:100FB80091F023A651F1EF20507EEF106001EF2051
:100FC800F01181471307000410103E9603460600EF
:100FD800B386F90085072380C600E397E7FEEF2074
:100FE800A0262A8489BC9387C1C1E378F5F8231029
:100FF80005000905E31DF5FE49B79387C1C10547FB
:10100800FDB301111305800406CE22CC26CA37147D
:1010180000404AC84EC652C456C25AC09730002033
:10102800E78080898327840A85451305001093E7A4
:1010380007202324F40A35298D4513050020152996
:101048004D2383451404174500001305A557B7041D
:101058004300EF30A024938781C823A6F1809387AB
:1010680081CC23A8F18037094400EF009037B709F5
:101078006400370A7400512E938444059737002082
:10108800238207FE130929049389F905130A1A060E
:1010980037870040834767000145858B81CF05442A
:1010A80023038700A52BD5476316F5009737002043
:1010B800238A87FA9737002083C7C7FA81E7D5477D
:1010C8006311F50E1305800C97370020238C07F861
:1010D80097300020E7804096EF0070366313050CC8
:1010E8009147238AF1002944174B0000130B0B4F3B
:1010F800974A0000938A8A4F5A85EF30E02EEF1006
:101108006077AA8511CD5685EF3040197D141305F7
:1011180020031374F40F97300020E780E09169FCF6
:1011280003C74101914763FEE70617450000130511
:10113800654CEF30602B974500009385E54C13858F
:1011480081F0EF30602B23AE91C023A021C323A2EE
:1011580031C323A441C3B7075F009387170623A6AB
:10116800F1C2B70761009387470623A8F1C2B70702
:101178002E009387970723AAF1C2B70773009387B6
:10118800370623ACF1C29307600723AEF1C2EFF034
:101198009F85AA8505C1174500001305A547EF30AF
:1011A800E00F1305400697300020E780E0880545EA
:1011B800F521F9BD174500001305C546EF30C022DB
:1011C800CDB76F00700F797122D426D24AD04ECE97
:1011D80052CC56CA5AC85EC662C466C206D6AA842B
:1011E8002E8C0144930900F8138A4104A94A130B71
:1011F8008002938B0101938CC1010D4983C791052E
:10120800B397F4002388F1CC13D78700A388E1CCE7
:1012180013D70701E1832389E1CCA389F1CC238A81
:1012280031CD83470A006285A38AF1CC238B51CD47
:10123800A38B61CD238C01CC83A70B0013D7870127
:10124800A38CE1CC13D70701238DE1CC13D78700FA
:10125800A38DE1CC238EF1CCA38E01CC238F01CCBE
:10126800A38F91CC238001CEEF00905783C70C0049
:1012780093F7F70FB1C72285EF108022238EA100C4
:1012880083C70C0093F7F70F95C303C50C001375BC
:10129800F50FB250225492540259F249624AD24A86
:1012A800424BB24B224C924C456182800504137428
:1012B800F40FE31524F5FD47238EF1007D45D1BFDA
:1012C8000145C1BF797122D426D24AD04ECE52CC24
:1012D80056CA5AC85EC662C406D6AA84AE8B0144F2
:1012E80093894104294A930AA002138B0101138CA4
:1012F800C1010D4983C79105B397F4002388F1CC48
:1013080013D78700A388E1CC13D70701E18323898A
:10131800E1CCA389F1CC238A01CC83C709005E857F
:10132800A38AF1CC238B41CDA38B51CD238C01CC47
:1013380083270B0013D78701A38CE1CC13D70701B0
:10134800238DE1CC13D78700A38DE1CC238EF1CC7C
:10135800A38E01CC238F01CCA38F91CC238001CE07
:10136800EF00104883470C0093F7F70F85E7130544
:10137800800C97200020E780406B0145B250225432
:1013880092540259F249624AD24A424BB24B224C19
:10139800456182802285EF10A010238EA10083472B
:1013A8000C0093F7F70F91C703450C001375F50F61
:1013B800F1B705041374F40FE31E24F3FD47238EDD
:1013C800F1007D4565BF3787004083473700894670
:1013D80093F7F707A301F700834757000347370040
:1013E80093F7F70F1377F70F631BD70093F61700E0
:1013F80099C6918B014581CB238AE100828085477C
:10140800238AF100594582808280411106C6EF0087
:10141800F03B3D479307F00F6379A704938781D08A
:1014280023AEF1FE23A2F1FE238A0100A547A38C77
:10143800F104930700202394F10223AC01029307DF
:101448000004239FF102B78700401387C70123AC2C
:10145800E1FE1387870123A0E1061387C702A107CE
:1014680023ACE1FC23A2F1008147B2403E85410153
:101478008280914763EEB702174700001307471BA6
:101488008A05BA959C41BA978287B717004003A787
:10149800470B1345F5FF698F23AAE70A03A7070B34
:1014A800698F23A8E70A03A7070A798D23A0A70A4B
:1014B8008280B717004083A6470B1347F5FFF98EC4
:1014C80023AAD70A83A6070B558D23A8A70A83A6A4
:1014D800070A758F23A0E70A8280B717004003A781
:1014E800470B498F23AAE70A03A7070B1345F5FF04
:1014F80045BFB717004083A6470B1347F5FF758F05
:1015080023AAE70A03A7070A598D4DB7B717004062
:1015180003A7470B498FEDB7B717004003D58700DE
:10152800420541819377050491EB9377F50137558F
:10153800E801130505803345F50282809377050C91
:10154800130700046397E7009377F50137459C1C60
:10155800CDB72165130505D0828081473737004014
:10156800A14663C4C700328582800345B740E38E35
:10157800A6FE3385F5000345050085072304A7402B
:10158800CDB797370020938767AD9C431387C10673
:101598003E95636EE500177700201307278663687A
:1015A800A70017370020232BA7AA3E858280FD5766
:1015B800EDBF411122C406C62A84B93F2947B307A3
:1015C800E502B2408D83B3D7870222449507B3D78B
:1015D800E70237370040C207C1832316F7404101AD
:1015E8008280716541111305052006C6D937B737C2
:1015F8000040130770F82381E7400D47A381E740B7
:1016080013070004A380E74005472387E740B2405B
:10161800410182808547238AF1008280411106C6F4
:10162800B786004083C7560013874101858B9DCB41
:101638008347070005476307F70083C7160001457E
:10164800858B91EF8547238AF10017450000130524
:1016580065FF8947238AF100EF2010595545B240AC
:10166800410182800347070085470145E3F9E7FE0A
:10167800174500001305C5FD238AF100EF20D05659
:101688005945F1BF37870040834737001375F50781
:1016980093F70708C98FA301F70082808280411160
:1016A800A147014506C622C4A384F18037840040BF
:1016B800D13F834714003D4593F7E70FA300F4009B
:1016C8008347140093F7970F93E72700A300F400CC
:1016D80097200020E7804036834714001305A00FA9
:1016E80093F7D70FA300F40097200020E780E0339A
:1016F80085472303F400B24022444101828003C796
:101708004101854763E5E7008947238AF100B787E8
:10171800004003C757005945058B01CB03C7170085
:10172800014513671700A380E7008280397122DC26
:1017380026DA4AD84ED652D456D25AD05ECE62CC89
:1017480066CA6AC86EC606DEB78700402387B70236
:10175800B78D00402A8A328D2385B7021359450078
:10176800014493846D00094C854AD54C138B410183
:10177800854B894923844D032380840193070032D4
:1017880003C70400098B09E7FD17C207C183EDFBF6
:1017980023840D0283C70400898BE5C783C704002F
:1017A800858B95C723805401953D63149501238447
:1017B800518183470B00638AFB0A83470B006388C8
:1017C800F90A1305800C97200020E780002683C7BC
:1017D8000400898BD9C783C77D0093F70704D1EB31
:1017E80083C77D00394793F7F70F13F5F7006304B4
:1017F800E50829476318E50263020D08FD576303EE
:10180800FD007D1D7D141374F40F05043D4513740C
:10181800F40F97200020E7804021E3FD89F41305A9
:10182800000221A825476309E902B5476304F900C6
:101838006319790579D913650502F2506254D254B7
:101848004259B259225A925A025BF24B624CD24C1C
:10185800424DB24D216182809D8B0D47E39CE7FC90
:101868006DB7FD572380F4004DB75945F9B7554575
:10187800E9B70145D9B71305E002C1B71305A002BE
:101888006DBF1305E00F55BF011126CA4AC8AE84C3
:101898002A891305800C06CE22CC4EC652C456C2E5
:1018A8005AC097200020E780401899C02380040080
:1018B80037840040A14789692306F4021386097119
:1018C80081451305000D9D3563150514930700FD2B
:1018D8002307F4022305F40285472306F402938ABA
:1018E800018183A70A0003C4770003C767002204A5
:1018F800598C61CC630B090C83870700378A004039
:101908009389097163CA07041305800C9720002086
:10191800E780A01183C791806374F4009377F40F74
:101928002306FA0281470347CA026399E7108345F1
:10193800EA024E864145DD3B69ED8347CA021D8CAC
:101948004204418081C88347CA0203C70400BA978A
:101958002380F40055F895A8938AC1801305800C5C
:1019680097200020E780600C8345AA024E86130565
:1019780000096D3B59ED03478A009377F40F6376AE
:10198800870083478A0093F7F70F1D8C4204418034
:1019980091C403C704003E972380E400014793766F
:1019A800F70F6392D7083E9983478A0093F7F70F9A
:1019B80089CB03478A0083C79180FD17F98F91E38C
:1019C80051FCB7870040238607021305800C972037
:1019D8000020E7808005B787004083C7C70213054A
:1019E800000993F7F70F91E341450966130606715D
:1019F8009305000C253B11ED378700408347C7024C
:101A080093F7F70F99C78347870093F7F70F91C3A9
:101A18005D45F2406244D2444249B249224A924A60
:101A2800024B0561828083A60A00BA9603C60600A7
:101A3800B306E90005072380C60095B703A70A0087
:101A48008346090005093E9785072300D70093F7C9
:101A5800F70FD1BD814793850181A1463307F50072
:101A68000346070098413E972300C7008507E39780
:101A7800D7FE82800111A14717450000130545D004
:101A880006CEA384F180F9379305F100138581F51B
:101A9800E53B05E1938781F583C77700A384F1804F
:101AA8000347F1009747000083D7E7CD6373F7003A
:101AB8005D45F2400561828001111745000013055C
:101AC800A5CB06CE22CC79379305F100138581F595
:101AD800653B2A843DE10347F1009747000083D71F
:101AE80007CA5D44636BF70483C7A1F51745000077
:101AF800130585C8A307F100B13F938701819C4373
:101B08000347F1009305F100A38307002383E7004F
:101B1800138581F5953B2A840DE10347F10093076E
:101B2800000463F4E700A307F1000346F10093857E
:101B380081F5138581CCEF20006B2285F240624449
:101B480005618280411126C2AA8417450000130549
:101B5800A5C306C622C4FD3D938701819C438145E8
:101B6800014523819700A3810700393B2A8401E9B5
:101B78002685093E294597200020E780E0EB22854D
:101B8800B2402244924441018280411122C42A84F5
:101B9800174500001305C5BF06C66D3D9387018133
:101BA8009C43B2408145238187002244A3810700DA
:101BB80001454101D1B9411122C42A8417450000C9
:101BC800130505BB06C67935938701819C43B2404E
:101BD8008145238287002244A382070001454101F1
:101BE80065B1B7870040130700F82380E700A3809A
:101BF8000700A381070013078004A386E70003D723
:101C0800C180239CE70003D70181239EE700238539
:101C1800070223870702130790F82380E7001307BA
:101C280000042383E7027D572383E7000547238ABF
:101C3800E1000D472381E7002384018082800111A0
:101C480017450000130585A106CE22CC26CA4AC82E
:101C58004EC6EF206079A13481440144130940063F
:101C6800054597200020E78020DD513C19E58504D3
:101C780093F4F40F636C990E014405041374F40F84
:101C8800E31024FFEFF01F9917450000130505A185
:101C9800EF2080755944D9A0B307890083C5070090
:101CA8004E850504EF20805F1374F40F9317040129
:101CB800C183E3E397FE2945EF20806283578900BB
:101CC8009744000083C464AC26852396F1F48357B7
:101CD800A90083C9C1F52397F1F4AD352A8405E13C
:101CE8001745000013050599A38491F4EF20005BC4
:101CF800E1332A8497440000938444970DC9A28550
:101D08001745000013050598EF20405989470545F8
:101D1800238AF100EFF09F9891A0B307890083C54B
:101D2800070026850504EF2060571374F40F9317F6
:101D3800040103D7A1F5C183E3E1E7FE2945EF20BC
:101D4800205A1304B00F639B090003C761F6A1472B
:101D58006316F7009147238AF10001442285F24077
:101D68006244D2444249B2490561828003C5A1F464
:101D7800EFF0DF92174500001305C594EF200052DD
:101D8800D5392A842DFD9744000083C4D49FA2042A
:101D98009747000083C7279FDD8C138981F59749F2
:101DA80000009389A98C19B74111094506C622C4B8
:101DB80026C297200020E78020C883C7C101A383DB
:101DC800F106EFF04FE0AA873DE503C741018D46D4
:101DD8009307300863F1E60683C64106130610022E
:101DE8002384C1CC7D56938781CCA384C1CC238125
:101DF8000700A38107002382D700A382070023835B
:101E08000700A383070081454134238EA100594769
:101E1800AA876302E50203C581003D89693B03C5C2
:101E280081053D8913650508793383C77106A38346
:101E38000106238EF100B240224492443E854101BE
:101E480082804111054706C6238AE100EFF0AFD72B
:101E580019E113053008B24041018280411122C4C2
:101E680083A7010103A7C10406C601456384E702ED
:101E780083A541FE03A7C1FF23A6F1046308B702A7
:101E88000545EFF04FB4238EA10009E903C5C10150
:101E98001375F50FB2402244410182807D5723AE6D
:101EA800E10423A6E104238401FECDB7054523AE52
:101EB800F104EFF04FB1238EA10069D9C5B74111E4
:101EC80022C483A7010103A7C10506C6014563848F
:101ED800E70283A5C1FF03A741FE23AEF10463080F
:101EE800B7020545EFF02FAE238EA10009E903C51F
:101EF800C1011375F50FB2402244410182807D571C
:101F080023AEE10423A6E104238401FECDB70545F1
:101F180023A6F104EFF02FAB238EA10069D9C5B732
:101F280083A7010183A541FE411103A7C1FF22C474
:101F380006C623A6F1046305B7020545EFF08FB87E
:101F4800238EA10001C97D5723AEE10423A6E10435
:101F5800238401FEB240224403C5C10141018280AD
:101F680023AEF104D9BF83A7010183A5C1FF4111A5
:101F780003A741FE22C406C623AEF1046305B702D7
:101F88000545EFF02FB4238EA10001C97D5723AE7C
:101F9800E10423A6E104238401FEB240224403C5E0
:101FA800C1014101828023A6F104D9BF03C601FE05
:101FB80083A7010303C7510683A60105F917B39741
:101FC800C7003697BA9723A8F100828041458280DE
:101FD800FD5723AEF10423A6F104238401FE828079
:101FE800797126D21307500556CA2384E1CC13070A
:101FF8003005A384E1CC83A781FD13072004238542
:10200800E1CC1307300422D44AD04ECE52CCA3855B
:10201800E1CC06D67D475AC85EC662C42390E70065
:102028002A8483C5710603C5810037060200EFF0D4
:10203800EFEF238EA1005947630FE514938B81CCF2
:1020480015CD938781CC938481CE98439107D8CFBF
:10205800E39D97FE913BDE879853910723AEE7FEF9
:10206800E39C97FE83C5710603C58100370602000D
:10207800EFF0CFEB238EA100631B051683C49B00F2
:1020880003C68B0083C7AB0003C7710683C6BB00BA
:10209800A204D18CC207C58F134707049394860105
:1020A800A383E106DD8C638404108386CB0083D789
:1020B800E10363D40608138B81C891A000C383C5CC
:1020C800710603C5810537060200EFF02FE6238E5F
:1020D800A100631E051403C7710683A6410083D7B8
:1020E800E10313470708A383E10683D6060063E1EB
:1020F800F4189D8C639ED7143E94638B041403A735
:102108000106E3FDF4FA2320670155BF23A08800E8
:102118002390F60083D7E1039D8C3E94EFF00FE106
:10212800238EA1002DE103C7710613470704A3837B
:10213800E1066386040E83D7E10303C88100BA85EC
:102148003706020083A881FF83A681FD4285E3FF4D
:10215800F4FA23A0780123909600814703460400EF
:10216800B38677018507C2072380C600C1830504AB
:10217800E39697FE37060200BA854285EFF00FDB3B
:10218800238EA10079C903A781FF9307E0022320CA
:102198007701630FF506B250225492540259F2495E
:1021A800624AD24A424BB24B224C4561828003C5F7
:1021B800810537060200BA85EFF04FD7238EA100BC
:1021C80079F983C7710603A7410093C707F8A3836A
:1021D800F106FD47238EF10003570700B547631446
:1021E800F70203C541C929C1854763FEA7002254E8
:1021F800B25092540259F249624AD24A424BB24B07
:10220800224C456155B603C5C1011375F50F61B779
:1022180003C581003D89EFF01F9A03C7710683A7A4
:1022280081FF23A0770161B7238E0100ADB783A694
:1022380001061307E00223A06601E31EE5F403C5C7
:1022480081053D8913650508EFF0FF9603C7710600
:1022580083A7010623A0670199BF03C7710683A757
:1022680081FF13470704A383E10623A0770181B701
:1022780063E5D402F1DE9387F6FFC207C1838507C1
:10228800A2975A878346070005040507A30FD4FEC3
:10229800E39A87FE03C7710665BF93960401C1825E
:1022A800D9BF4111294506C697100020E780C0789C
:1022B80003C74104938781CCA386E700C946194721
:1022C8002384D7002387E700930600F80D47A387E8
:1022D800E700A3840700494723850700A385070073
:1022E8002386D700138581CEA389E70023880700BA
:1022F800A388070023890700238A0700A38A070009
:10230800238B0700A38B0700238C0700D1391545C1
:1023180097100020E780407283C7C101014593F7F9
:10232800F70F81CF03C5C101D9471375F50F6309AD
:10233800F500D547630CF5000145B24041018280A4
:102348000547238AE10023AC0102C5BF0947238A58
:10235800E100E5B73971A54722DCA38CF104BD473C
:10236800238AF1FE26DA4AD84ED652D456D25AD00B
:102378005ECE62CC66CA6AC86EC606DE938D81CC14
:10238800938441FF214B930A00F8130A5002A9498C
:10239800854C4D4D81A063FADC0A6308A70BA38026
:1023A800E400013703C541FF03C7140072057D85AA
:1023B800137585F71305850C238EE100971000200F
:1023C800E780806703C741FF7D171377F70F238ADC
:1023D800E1FE25CF03C74104138581CE23846D0117
:1023E800A386ED00A3840D0023850D00A3850D00B1
:1023F80023865D01A3874D0123880D00A3880D0066
:1024080023890D00238A0D00A38A0D00238B0D005C
:10241800A38B0D00238C0D0023873D01A3890D009C
:10242800C13603C7C1011377F70F9306B7FE93F6BA
:10243800F60F35F383C76D0211476382E70421471E
:102448006384E70441476388E70403C79105854728
:10245800B397E700C207C183F25062542394F10294
:1024680003C514004259D254B259225A925A025BF7
:10247800F24B624CD24C424DB24D21618280A38C0A
:10248800310593070040C9BFAD47A38CF1048567A8
:1024980093870780D1B7B147A38CF10485676DBFD7
:1024A800411126C2AA84054506C622C497100020F9
:1024B800E7808058854763F3970683C74101C9467B
:1024C80093F7F70F6388D700C14663F8F600238AAD
:1024D800D10021A09547238AF10083C7C10193F752
:1024E800F70FAD1793F7F70F05476374F700553BE0
:1024F80005C1094597100020E780005403C5C101B4
:10250800D9471375F50F630CF502D5476303F50436
:10251800B2402244924401454101828083C7C101EF
:1025280093F7F70FDDFC094597100020E780C050AE
:1025380003C5C101D9471375F50FE318F5FCB2407F
:1025480022440547238AE10023AC01029244410159
:102558008280B24022440947238AE1009244410123
:10256800828039716EC606DE22DC26DA4AD84ED65B
:1025780052D456D25AD05ECE62CC66CA6AC8EFE050
:102588009FE4AA8D71E983C741010D476376F70E71
:102598009147238AF100EFE0DFC2238EA100AA8DC4
:1025A80045ED938C81CC83C6EC002147639DE60CF6
:1025B80003C6FC002386010299466315D6008546AA
:1025C8002386D10203C77C0183C5BC0003C66C0106
:1025D80083C6EC0103C8DC0103D3E1032207A2068A
:1025E8002382B106518F238A01FEB3E6060103C692
:1025F8004C0183C5BC0103C8810003CE810563106B
:102608006708620661861373F60063460608136856
:102618000301014605436390E6201397850161870E
:102628009376F700138B41FF634607080947238A0F
:10263800E1FEA300BB0013E806016311061A238418
:10264800010161A083C6C1011306E0026300D6221E
:1026580003C7C101937DF70FF25062546E85D254BF
:102668004259B259225A925A025BF24B624CD24CEE
:10267800424DB24D21618280930D3008F1BF13891C
:1026880041FFA300C900FD47238EF10003C7C10124
:10269800937DF70FD1B7136E030905460143E38E07
:1026A800E6F6938741FF238AC1FEA380B700238CF7
:1026B800C105D1BF93E606F90947238AE1FEA300C5
:1026C800BB00238CD104E31C03F603C55C00EFF0C8
:1026D800CFCB238EA100AA8D41F183C641061306F4
:1026E80010FA03A5C1FF2384C1CC7956A384C1CCB9
:1026F800854A938551FF238A01FE23810C00A3811B
:102708000C002382DC00A3820C0023835C01A383DA
:102718000C00EFF06F97238EA1000DF583461B0088
:102728006398560183A6C1FF83C60600238AD1FE9B
:10273800154597100020E7802030FD5623AED104C0
:1027480023A6D10403A5C1FF238401FEA3830106A8
:10275800238201040146130C4002930B00F8194B25
:10276800C94A130A4002A386CC0023848C01A3849F
:102778000C0023850C00A3850C0023867C0123878D
:102788006C01A3875C0123880C00A3880C002389B3
:102798000C00A3894C01238A0C00A38A0C00238B0C
:1027A8000C00A38B0C00238C0C00EFF07F8383C6F6
:1027B800C101054693F6F60F8DE683C641FFB9C2FF
:1027C80083C64104A1E203A5C1FF954783460500DE
:1027D800639AF60285472382F10471B7238CC105F9
:1027E800B9BD83C641FFA9C283C641048947138680
:1027F80016001376F60F63E9D7022382C10403A5F6
:10280800C1FF95B783C741018D4663F1F60495472B
:10281800238AF10091B5938741FF238A61FEA38043
:10282800B7002384010185B5625423820104F25064
:10283800D2544259B259225A925A025BF24B624C14
:10284800D24C424DB24D0545216199B96254F250BE
:10285800D2544259B259225A925A025BF24B624CF4
:10286800D24C424DB24D21616FF0AFDD0145EFF022
:102878008FB47DBD411126C222C406C623A401F02F
:10288800EFE07FB42A8441E183C7410111476372B5
:10289800F708938781CC03C7410423840700A386E4
:1028A800E7001947A384070023850700A3850700CD
:1028B800238607002387E700138581CEA3870700B7
:1028C80023880700A388070023890700A389070036
:1028D800238A0700A38A0700238B0700A38B07001E
:1028E800238C0700EFF0CFEF83C7C10193F7F70FF1
:1028F80099CB83C7C101238AF1FEEFF09F9A03C4E5
:1029080041FF238E81002285B24022449244410136
:102918008280813919C91305000497100020E780C7
:10292800A011813119C12A84F9BFEFF0BFA205E5D2
:10293800938781CC03C6170283C5070283C6270283
:1029480003C7370222064D8EC206D18E6207558F05
:1029580023A4E1F089B703C4C1011374F40F65B768
:1029680083C74101397106DE22DC26DA4AD84ED601
:1029780052D456D25AD05ECE62CC66CA6AC86EC6E7
:1029880011476374F73803A78103FD5723AEF10499
:1029980023A6F104238401FEB7573412937607FF68
:1029A80093870767638AF63693848101A3800400BE
:1029B800238E0102A382010623A201022D6A130AB3
:1029C8005AA5138D41FF23A80100930B900E930D78
:1029D8000004EFF0CFCE6314051283C6140003A6DB
:1029E800C1FF99E68347060093F7D70F638B7717E4
:1029F8008357E61F6398473183CEC103238CD101E7
:102A0800638FBE2F9387EE1BB29783C5A70003C7BA
:102A1800B70003C8870003C59700A301ED00238A08
:102A280001FFA300AD002301BD0083A541FF83C7BB
:102A38004700154723A8B100238AF1FE6387E72AD8
:102A48003D476384E72A7687014F01433545054EA4
:102A58001548BD489DA083C741FFFD1793F7F70FA1
:102A6800930F07019382F6FF6367F500637EDE0E1E
:102A780093F6F20F054F13F7FF0F9307E71BB29773
:102A88006306B70B03C3A70083C5B70083CF9700BE
:102A980023016D00A301BD00A300FD0183C58700CC
:102AA80083C747000543238AB1FE83A541FF238AD4
:102AB800F1FE638F0701638D1701939F870193DFF1
:102AC8008F4193F7F703E3D80FF8238AF1FE71B724
:102AD80023A8B10063040F00A380D400238CE10075
:102AE80083A7410283C65106BE9523A8B100E3928D
:102AF80006EE4107A382E10623A2B102F9B5EFF081
:102B0800AFAAEFF03F85EFF08FBBE30805ECF2507A
:102B18006254D2544259B259225A925A025BF24B29
:102B2800624CD24C424DB24D216182806304030055
:102B380023A8B10063040F00A380D40083C7510603
:102B480013070004238CE100638B071A63990E1A9C
:102B580003C71400238EF10223A20102BD47E31428
:102B6800F7E683A5010105A06302031E23A8B100AF
:102B780063040F00A380D400238CE10083A7C10560
:102B8800BE9523A8B10023ACB102EFF04FB341F1D9
:102B980083A5C1FF1307900E83C7050093F7D70FCE
:102BA8006390E71A83C7D50013978701238EF10234
:102BB800618763420718194786072380E1FE93F768
:102BC800F70F0145194793968701E1861306F7FF2A
:102BD800860763C706101377F60F93F7F70F0545B7
:102BE8007DF38547238001FE238EF10203D565011D
:102BF80023A0A10201E5C85123A0A10283C7450172
:102C080003C63501A207D18F23A0F10081E79C51AB
:102C180023A0F10003C6250183C8150183D68102CC
:102C280003C39105220633661601958283D8E50011
:102C3800B296FD161306B3FFB3D6C6403386160107
:102C480003CF05012A9623A6D1FE23A6110123AAA4
:102C5800C1FE8946630DDF0823A0010283A6010196
:102C6800918F33D7E700369623A8C10423A4E10443
:102C7800C167D11763EBE704239101048567D11776
:102C880063EBE7060547A384E1FE6383080283A795
:102C9800C1FE99CF85476305FF0083A7010289CB51
:102CA80003C5B50011E503C7C500854763E5E70A15
:102CB80083C71400C9EB8547A380F400238E010263
:102CC800A382010623A20102D5B9DC5503D6050368
:102CD80023A6F1FE2391C1040D47A384E1FE75B735
:102CE800E30605F02380E1FE11B77687D5BB2A9667
:102CF80023AAC1FEA5B70947A384E1FE79B7130546
:102D0800200931B51305100919B5EFF09F85E310B7
:102D180005E0EFF02FE485B93D8B93848101A38012
:102D2800E400238E0102A382010623A20102BD470B
:102D3800E316F7C83DB51D472380E1FE1D477DB565
:102D48001305100AE9B31305300AD1B3E3080FE2FB
:102D5800A380D40025B583C74101B69823A61101E5
:102D680011476376F700C147238AF1004DB36254D7
:102D7800F250D2544259B259225A925A025BF24B3B
:102D8800624CD24C424DB24D21616FF08F8B0111D4
:102D98004AC883A7C10426CA22CC06CE4EC623A899
:102DA800F100EFF0EF972A8411E583A7010299EB70
:102DB800238401FE2285F2406244D2444249B2494A
:102DC8000561828003A7010183A541FEBA970545E5
:102DD80023A8F100EFE00FCF03A70101238EA10084
:102DE80003A6010283C7C101118F23A8E10093F74D
:102DF800F70FDDDF03C4C101FD5723AEF10423A69D
:102E0800F104238401FE1374F40F6DB7797152CC69
:102E180003C891FE22D426D24AD006D64ECE56CA30
:102E28005AC85EC689472A89014403A7C1FD6300C1
:102E3800F8128D47630BF810935717001374170097
:102E48003E9783D6810283C7910583A541FE03A6D9
:102E5800C100FD16F98EB357F70003A7C104AE965B
:102E6800B29723ACD10023AEF1FC6382E70203C71B
:102E780081FE09C7293F5DED83A7C1FD23A8F100A5
:102E8800EFE0DFFD45E903C891FE83A68101630FEA
:102E9800090091476308F9168547630FF90E83A760
:102EA800010323AEF1FC05472384E1FE23800104DE
:102EB80089476300F80A0D4783A7C1FD6301E80E3F
:102EC80003C5060013F8F70F83D581021377F500C1
:102ED8009318480003A641FE33671701938441FF06
:102EE80091831377F70FFD15A380F4002381A400C5
:102EF800238AE1FEB307B600638AF61083C716007B
:102F0800A381F400631009086309040E83D7240021
:102F1800918305672391F4005917636CF70A03C777
:102F2800010423AAF1FE3369E900631B090423A8FD
:102F3800F1020145B250225492540259F249624AB0
:102F4800D24A424BB24B456182800A07DDBD060773
:102F5800CDBD03D7060023AAE1FEC167D91763FDDB
:102F6800E70085472380F104630C090083A7C1FDAE
:102F780001452390F6007DBFE31A09FE23A8E1026C
:102F880001454DBF31CC2380E60083A7810103C7EB
:102F98001400A380E7009DBF23AE01FC29B7984227
:102FA800370600101305F6FFB70500F0F98DE98F15
:102FB800CD8F698F23AEF1FC23AAE1FE5916637CFD
:102FC800E60605472380E104E30C09FA9CC20145A3
:102FD80095B705472380E10423AAF1FE014599BF6F
:102FE8002380060183C7340003C7140083A6810128
:102FF800C19B1183D98FA380F60083D72400D20701
:10300800D18301BFFD5723AEF1FC71BD63180902DE
:1030180083C781FE85EB83A7C104850723A8F10038
:10302800EFE0DFE3E31805F083A741FE83C707005D
:10303800A381F400D1BDE31B09F889B711E04287E9
:103048002380E600A933E31705EE83A7C1048507AB
:1030580023A8F100EFE09FE0E31E05EC83A641FE04
:1030680003C70600A381E400E30009EA83C714004C
:1030780001E4419B9183D98F2380F600054723847F
:10308800E1FE59B5797122D466C262C403A88104ED
:1030980003AC01036AC026D24AD04ECE52CC56CADF
:1030A8005AC85EC606D68549938A41FF6364881369
:1030B800050C014523AE81FDEFF05FD523A8810300
:1030C80059ED83A741FF6380071403A88104936720
:1030D800FC0F1367F80FE38BE7FC83C691FEE387C9
:1030E80036FD83A741FE094603D7810223ACF100D0
:1030F8006385C60893562700FD16C206C182370E9F
:103108000010239AD1FE2391DA003687814E7D1E66
:1031180039A0131703014183AE87854E5DCFD04395
:103128001303F7FF93854700B378C601E39308FEBE
:1031380023ACB10063850E0C239AE1FEB70500109D
:10314800B3E68601FD153387E6404D8E0507D0C3EB
:1031580023A8E1026360E80805472384E1FEB25032
:10316800225492540259F249624AD24A424BB24B13
:10317800224C924C024D45618280135617007D16F1
:1031880042064182239AC1FE2391CA003287014335
:1031980039A0139708014183AE87054321CB83D615
:1031A80027009308F7FF93852700E5F623ACB100C5
:1031B80063090304239AE1FEFD562391D70083D6C1
:1031C8002A00B3E686013387E640050723A8E10213
:1031D800E374E8F81305100B59B7336CDC0023AC23
:1031E800B100239A01FE23A88103C9B5336CCC0032
:1031F80023ACB100239A01FE23A8810345BD36877D
:1032080035BF328755BF225423AE81FDB250925448
:103218000259F249624AD24A424BB24B224C924C72
:10322800024D114545616FF07FBE411106C6993DBB
:103238009307100B6305F500B24041018280B2404C
:1032480023A8010241013DBD5D7156DA83C74101E2
:1032580086C6A2C4A6C2CAC04EDE52DC5AD85ED602
:1032680062D466D26AD06ECE3D47637CF72C83C7A2
:1032780041013D47637DF710C147238AF10083C6AA
:1032880081F023830106638606301307C005638730
:10329800E6301307F0026383E630138781F00346B4
:1032A80017009307A0036306F62A3EC483A601FF0E
:1032B80083A7010532C623AAE104138441FF638D65
:1032C800061C83C501FE03C6C1031387E6FF331737
:1032D800B700BA97A382C10623AAF10263020624A3
:1032E80023A8F100EFE0BFBD5DE583D781022395F8
:1032F80001026384072083A5C1FF23ACB10083C703
:103308000500B9CB930D500E2D45930BC005638175
:10331800B70315476394E7009307500E03A84105C8
:10332800834608006388F6081307A0026384E6084A
:1033380083D7A10203D7810293870702C207C183FB
:103348002395F10263FBE71A83A5C1FFBE9523AC61
:10335800B10083C70500C5FF83A641058147130651
:10336800A0029305C0051305F00239A0630EC7003B
:103378006303B7226301A7223387F60003470700D8
:10338800850793F7F70F7DF31305200429A0EFE0D5
:103398005FABE30605EEB640264496440649F2596B
:1033A800625AD25A425BB25B225C925C025DF24D79
:1033B800616182809D8E93B6160036872301D40002
:1033C8003386D500B307E80083C707000346060025
:1033D8009308F0021303E002214E930E0002130F2C
:1033E8001700638EC702F9C76386770D6384170DCC
:1033F800639D670C6304C701631AD6152301E401B2
:10340800A146034724003386D50003460600B307C8
:10341800E80083C70700130F1700E396C7FC0507EA
:1034280085061377F70F2301E40093F6F60FE39A66
:10343800A6FC429783470700A301F40083C7B500A1
:10344800A18BE39707EE2380010483A78101A2459E
:1034580083D6A70103C691FE0D4723A8D1FE6318A2
:10346800E60003D747014207D98E23A8D1FE0347B8
:103478003400630B072403C70104631707240347B9
:10348800240083A741050507BA9723AAF104B24788
:1034980083A70105E39706E203A7C1FE9376F70F1A
:1034A800958F1377F70FA382E10623AAF102E31998
:1034B80007E25DB513070002631EE6021D47E36DD0
:1034C800D7F603C78500E309C7F6A301F40013077D
:1034D800A002E39FE7E483C7B500A18BE39A07E462
:1034E80083A741026389071463C10712FD1723A24A
:1034F800F1023DBDA301F40025BD03C7510683A712
:1035080041037D1785071377F70F23AAF102A382DA
:10351800E106E31707DCA24783A601FFE38E06E274
:10352800014523AED1FCEFF07F8EE31605E683C795
:103538000104E39307E283A641FFA24723A8D1FE33
:10354800B9B7EFF0EFC1E30405D2B1B5A301640048
:10355800C5B393072004E3FAD7D41387B1F023AA9D
:10356800E1049387B1F089A0D84F23A2E10291E644
:103578007D57A382E10623A2010283C741013D478B
:103588006378F718D147238AF10083C70104639948
:103598000716014509B51305300BF5BB138791F0E4
:1035A80023AAE104938791F083C691FE0D476384B3
:1035B800E60603C707003EC436C623A801FE83A754
:1035C80001058146E31B07CE83A6C1FE03C691050C
:1035D800A24513F7F60F998F3317C700094623A89A
:1035E800C1FE238ED102B24623A8F10423A2E10230
:1035F800894623A8D10223A00100A3820106C94756
:10360800238AF1001305100479B3EFD0FFDF83A7F5
:1036180041022D45E1BD83A6C1FE83C707003AC418
:1036280023A8D1FE89C73EC683A7010579B17D5776
:1036380023A2E1027DBF238A01FE83A7410501473A
:10364800130500022148154E15539308E002AD45B5
:103658001DA82300D60083C741FF83A6410599EB27
:1036680003C606006318C6012380660083C741FFAE
:1036780083A64105850793F7F70F238AF1FEB697CE
:103688000507630DB70283A681013E86BA9683C6F5
:103698000600E387A6FEE31E07FB2380170183C706
:1036A80041FF83A6810103A64105850793F7F70F1C
:1036B800238AF1FE83C686003E9661BF23800700F9
:1036C80085472380F10451B303C7B70023A8D1026B
:1036D80023A00100A3820106418BE30707E883C703
:1036E8004101FD5623A2D1023D47637EF700CD4735
:1036F800238AF10083C7010413051004E38D07C86A
:103708001305300449B9EFE0CFF3E31605C8DDB778
:10371800EFE02FF3E31105C88DBD83A601FF01116A
:1037280022CC26CA06CE4AC84EC652C456C2B9CA08
:10373800938781F083C59105D84303C6510683A7B3
:1037480081F03357B700B305C74063FDB70423A81A
:10375800D10203C7C10363EEE70421A883A781F060
:1037680003C7C10383A60103998F23A4F1F063E281
:10377800E704014523AED1FCEFF04FE919E983C70F
:103788000104E9DFFD57A382F106FD5723A4F1F0F8
:103798000145F2406244D2444249B249224A924A1F
:1037A80005618280B297998F23A4F1F083A6010363
:1037B8004DB783C501FE03A601051387E6FF33173E
:1037C800B700B386C7003697A382F10623A8E100A5
:1037D80023A4E1F0014575BF411106C622C4EFF0EC
:1037E8007F8A11CD9307100B6306F500B24022447F
:1037F8004101828023A80102EFF0DF8865F9EFF02C
:103808000FD96DF583A7010303A7410323A8F1FE90
:1038180023A8E100EFE0AFEA71F903D6A10283A77C
:10382800C1FF03A701FF2244B29793560701239DC6
:10383800E700B2400546D0CF239AD70023ACF10069
:1038480041016FE04FF2411183D7210422C423AA1A
:10385800A1FE06C6014589E7B240224441018280A3
:1038680003A78103BA9723A8F100EFE04FE56DF5B0
:1038780003A7C1FF83A641FF22448327871EB240C6
:10388800B6972324F71E41016FE0EFED83C741018E
:10389800238301064D476364F7000145828003A72F
:1038A8004103411106C623A8E100EFE04FE109ED0D
:1038B80003D7A10283A7C1FF0145BA9703C7B70081
:1038C80023ACF100418B01C7B2404101828003A7BC
:1038D8004102B240D8CF41016FE0EFE8411122C464
:1038E80083C7410106C6454793F7F70F6371F70889
:1038F8004947638AE70483C741014D4793F7F70FA8
:103908006361F7022383010683C741013D4763775B
:10391800F702C147238AF1000145B2402244410120
:1039280082805147638BE70483C76106F1DFB93FA3
:103938006DF583C741013D47E36DF7FC2244B24072
:1039480041016FE00FD003C791FE8D47E305F7FAF9
:1039580083C501FE03A6010583C7C1FE05473317CA
:10396800B700B297238EE10223A8F10469B7B240E9
:1039780022441305400B4101828083C781F0CDF7B3
:1039880051B7011122CC83C7410106CE26CA4AC8C5
:103998004EC64947637FF70883C741013D476370B7
:1039A800F708C147238AF10003A7410323A8E100D0
:1039B800EFE0EFD025E903D7A10283A7C1FFBA97AB
:1039C80015572380E700EFE00FDA29ED83A701FF01
:1039D80023AAF1FEA1CB9386F7FF23A8D1FE23A843
:1039E800010219A083A741FF054523AEF1FCEFF0C2
:1039F800EFC10DE983A7010303C70104850723A8C5
:103A0800F1026DD3EFF0AFB811ED03A501036244E5
:103A1800F240D2444249B24905616FF0DFE2EFE07B
:103A28004FC259D1F2406244D2444249B249056179
:103A38008280EFF07F812DD1F2406244D244424926
:103A4800B24905618280797122D406D626D24AD03D
:103A58004ECE52CC56CA5AC85EC6EFF0EFFEA382CD
:103A6800A106630F051093072004630DF500B250FB
:103A7800225492540259F249624AD24A424BB24BFA
:103A88004561828083D6A10283D7810203A701FF03
:103A980063E0F6086319071083A7C1FEA382F10645
:103AA800130A500E83A74103FD1723AAF10223A886
:103AB800F100EFE0CFC045FD03D681022395010256
:103AC8000DCA83A5C1FF83C70500638847259307EF
:103AD800000201A883C606004207418363864603A5
:103AE800BA87B386F50013870702E3E5C7FE239577
:103AF800F10283C75106FD1793F7F70FA382F1066A
:103B0800D5F31305200BA5B703A701FF2395F102F1
:103B180023A8E102EFF00FD79307100B6300F50815
:103B280039F5EFF0CFA621F583A701037D5523A82A
:103B3800F1FEEFF05FD105FD03A7410323A8E100E3
:103B4800EFE0EFB7E31505F283D6A10203A7C1FFA3
:103B58008147369723ACE100A945930800027D48C8
:103B680001A8230007006380061103A781018507C8
:103B78003E9793F6F70FE3E6F5FE23001701F5B736
:103B8800EFF03FE0E31505EE03A701FF23A8E102EC
:103B9800EFF04FCF9307100BE314F5F823A80102B9
:103BA800EFF04FCEB5BF014523AEE1FCEFF00FA615
:103BB800E31F05EA83C7010403A701FFB1DB23A8BC
:103BC800E102EFF02FCC9307100B6309F508E3101F
:103BD80005EA83A701FF094523AEF1FCEFF00FA327
:103BE800E31705E8EFF0AF9AE31305E883D68102FF
:103BF80089CE03A6C1FF81473307F6009107C207A4
:103C080023200700C183E399D7FE83A7010303C6D6
:103C180001FE83A60105F91703C7C103B397C700BF
:103C2800B697A382010623A8F1002395010223AACF
:103C3800F102238AE1FE19EFE5A083C741FF03A73C
:103C48000101FD17050793F7F70F23A8E100238A61
:103C5800F1FEF9C7EFE02FB16DD111BD23A8010224
:103C6800EFF04FC2ADB703A681018D6793871702A6
:103C7800231CF60085475CCE83A741059308E00224
:103C88002D4303C70700B305A60005051375F50FF7
:103C980009CF93861700630917052380E50023AA37
:103CA800D10463046500B687E9BF83A701FF13D772
:103CB8000701231DF600231AE600EFE0CFAAE31858
:103CC80005DA83A601FF03C7410123A8D10223A275
:103CD800010223A00100A3820106BD4663F3E602A8
:103CE8005147238AE10061B323AAD10403C717000F
:103CF8009386270023AAD1042304E6002545B68726
:103D080049B72254B25092540259F249624AD24AEF
:103D1800424BB24B45616FE0CF9203A701FFCDBB89
:103D28007D55EFF05FB2E31405D403A701FFCDB3CF
:103D3800411126C222C4138481F018444C40034523
:103D4800240006C623A8E100EFD0EFC705E9034722
:103D5800240083C79105504083A6010003C881F061
:103D6800B317F700C207C1833E964297B69750C073
:103D780023A0F1002384E1F023010400B24022448F
:103D8800924441018280411126C222C4138481F0E9
:103D980018444C400345240006C623A8E100EFD090
:103DA8006FD205E90347240083C79105504083A6D5
:103DB800010003C881F0B317F700C207C1833E961C
:103DC8004297B69750C023A0F1002384E1F0230165
:103DD8000400B240224492444101828083C74101D9
:103DE8004547637BF70283C5910503A7410203A8F2
:103DF800010083A781F0138581F023220501335741
:103E0800B7006375F70023A4E1F0BA87B397B7004A
:103E180023A0F1006FF07F901305400B828003C749
:103E28004101D14663E8E61683C7410145476373FC
:103E3800F716797122D456CA83A5010083A74102D7
:103E480003C781F003C69105938681F006D626D272
:103E58004AD04ECE52CC5AC85EC662C48D8F2384D7
:103E680001F0B3D7C700A380E6002381060013063C
:103E7800F00F138481F06369F60EA381F6009304B2
:103E8800F00F130B000471C383473400DDCF83C7E1
:103E98005106638C970AEFE06F9183452400D5C1E2
:103EA80083C7910503A70101DD17B357FB4063D60C
:103EB800F5001C44AE97638CE70023AAE1FEEFF0FF
:103EC8003FE759E583A741FF834524001CC403C588
:103ED800C10383C65106034634003307D540137720
:103EE800F70F9377F60F6374C7009377F70F0347BD
:103EF8001400636EF7061D8FBE96BE951377F70FF5
:103F0800B307F64093F6F60FA300E4002301B400CC
:103F1800A301F400A382D106E317D5F683A7010312
:103F2800014523AEF1FCEFE07FEE1DE183C70104FC
:103F380003471400B337F000B307F040A382F1063B
:103F48003DBF83A701011CC459B70345240015E5EB
:103F5800B250225492540259F249624AD24A424B10
:103F6800B24B224C456182809307F00F39B7BA955E
:103F7800BA962301B400A382D1062254B2509254B7
:103F88000259F249624AD24A424BB24B224C45612D
:103F98006FF01FDA1305400B8280797156CA83C708
:103FA800410106D622D426D24AD04ECE52CC5AC887
:103FB8005EC662C466C26AC051476360F71A83C7A7
:103FC80041014547637BF71803C781F0138D81F0E2
:103FD800A300ED006301071283C64101238401F0A9
:103FE80023110D00C9476381D71A83C7510655A00D
:103FF80083C7910503A60101138777FF9307000480
:10400800B3D7E74063D7F60083278D00B697638E52
:10401800C70023AAC1FEEFF01FD76319051083A7B5
:1040280041FF83462D002324FD0083C7510683C525
:10403800C10303461D003387F5401377F70FB29786
:1040480093F7F70F636EE6108D8F369793F7F70F98
:104058002301ED00A300FD0099E703274D0083A786
:10406800C1FF6307F70E83A70103014523AEF1FCE7
:10407800EFE0DFD945ED83C7010403471D00B337DF
:10408800F000B307F04093F7F70FA382F106630F30
:10409800070C1307F00F6395E70483A701FFCDC74B
:1040A80083C7410149476317F70003C791FE8D474E
:1040B8006318F71283A701032326FD00EFF0EF969C
:1040C80035E58327CD00094523AEF1FCEFE01FD489
:1040D80031ED83473D00A3820106FD17A301FD00D2
:1040E800EFD0DFEC83462D00E39406F083A70101AF
:1040F8002324FD001DBF03C7610661E7238401F087
:1041080083C7410123110D0083C781FEB5EB034529
:104118003D0055E103A7010083A6410263F7E600CD
:1041280023A2E10205472383E1060145B250225448
:1041380092540259F249624AD24A424BB24B224C3B
:10414800924C024D45618280EFF00FE959D1F9BFD9
:10415800EFF07FC3E30905F0D1BF1305400BF9B7B2
:104168003307D6002301ED00A382F10683C781FE41
:1041780081EB83472D00C1DFEFF0FFC049D97DB740
:10418800EFE0FFC07DD55DB783C691FE8D47E38E16
:10419800F6E403C6910583A7410283C65106B3D747
:1041A800C700958F93F7F70FE3F1E7E4A300FD004D
:1041B800E39D07E291BF136505F0EFF0CFE839D929
:1041C800B5B72254B25092540259F249624AD24ABF
:1041D800424BB24B224C924C024D45616FF00FEBB3
:1041E8001305100BA1B7B3C7A5008D8B3307C50006
:1041F80081E78D4763EEC700AA876370E50A83C627
:10420800050085078505A38FD7FEE3EAE7FE8280D0
:1042180093763500AA8791CA83C605008507850568
:10422800A38FD7FE93F63700FDB79376C7FF1386A3
:1042380006FE63F0C70683A3050083A2450083AF8B
:10424800850003AFC50083AE050103AE450103A396
:10425800850183A8C5019385450223A0770003A89B
:10426800C5FF23A2570023A4F70123A6E70123A82B
:10427800D70123AAC70123AC670023AE1701938790
:10428800470223AE07FF75B790419107910523AE0A
:10429800C7FEE3EBD7FEE3E4E7F6828039713EDA46
:1042A8002ED232D436D63AD842DC46DE97070020E2
:1042B800938707DB22CC804326CA06CEAA8409C48A
:1042C8001C4C99E32285852B0C44541026862285A4
:1042D80036C6EF00D01CF2406244D244216182808D
:1042E8000111970700209387A7D722CC804306CED9
:1042F800AA8519C41C4C89E72AC622852D2BB245EC
:10430800104422856244F24005616F00907E0111DD
:1043180026CA4AC806CE22CC4EC652C4AA842E89C2
:1043280001C51C4D91E3012B9C4C804499E32685E3
:104338001923971700009387E73B631CF402C040DA
:104348008357C400A18BB1C71C48A1C7FD59294A8E
:104358001C4483450900FD17B1E91CC463DE070648
:104368002286A94526855520FD576308F50229456B
:1043780035A0971700009387E7396314F400804449
:10438800C1B7971700009387E734E31BF4FAC044DA
:1043980045BFA2852685152A55D97D55F240624428
:1043A800D2444249B249224A056182801CC40509A7
:1043B80063D70700184C63CBE700638945011C40AD
:1043C8001387170018C02380B70059B7228626859F
:1043D8002D28E31F35F7D1B71C401387170018C0E5
:1043E80029472380E70061B797070020938747C7CD
:1043F800AA8588436FF0BFF1AA8703C70500850720
:104408008505A38FE7FE75FB8280011122CC26CAA1
:104418004AC806CE4EC6AA842E89328401C51C4DD0
:1044280091E31129971700009387C72C6319F406A5
:10443800C0401C4C1CC48357C400A18BC9C31C4872
:10444800BDCF1C4808409379F90F1379F90F1D8DDA
:104458005C486346F500A2852685752C2DE51C442D
:104468000505FD171CC41C401387170018C02380BE
:1044780037015C486389A7008357C400858B81CBCB
:10448800A9476316F900A285268571240DEDF2402F
:1044980062444A85D2444249B249056182809717ED
:1044A8000000938727276314F400804459B79717AF
:1044B800000093872722E31EF4F6C0449DBFA2851F
:1044C800268521203DDD7D59D9B741119707002068
:1044D800938707B926C2844322C44AC006C62A89DC
:1044E8002E8489C49C4C99E32685B1269717000031
:1044F80093874720631CF402C0400317C400931736
:104508000701C18393F68700B5EE93F607019DEE88
:10451800A5472320F900136707042316E4007D55F7
:10452800B240224492440249410182809717000018
:104538009387471E6314F4008044C1B7971700009F
:1045480093874719E31BF4FAC04445BF918B8DC785
:104558004C5889C9930744046384F5004A85892B1C
:10456800232A04028357C4002322040093F7B7FDCB
:104578002316F4001C481CC08357C40093E7870027
:104588002316F4001C4881EF8357C400130700204A
:1045980093F707286385E700A2854A8595298357FD
:1045A800C40013F7170005C75C4823240400B307A9
:1045B800F0401CCC1C480145A5F78317C40013F72D
:1045C800070839DF93E707042316F40089BF898BAE
:1045D800014791E3584818C4F1BF83D7C5000111BA
:1045E80022CC26CA06CE4AC84EC613F78700AA842C
:1045F8002E8471EFD841634DE000B841634AE00072
:104608000145F2406244D2444249B2490561828080
:1046180058547DD703A904009396370123A00400BA
:1046280063DD060670488357C400918B99C75C40C8
:104638001D8E5C5899C33C401D8E5C540C508146BD
:1046480026858297FD570357C400631DF5009440E3
:10465800F54763E8D706B70740208507B3D7D700E3
:10466800858BA5C31C48232204001CC0931737015F
:1046780063D80700FD576314F5009C4091E368C8B0
:104688004C5823A02401ADDD930744046384F5004E
:1046980026853929232A0402A5B70C5001468546E8
:1046A80026850297FD572A86E31FF5F69C40A5DF6D
:1046B80075476385E70059476394E70423A02401FD
:1046C80081B7136707042316E4007D551DBF83A92E
:1046D8000501E38709F203A905008D8B23A03501A5
:1046E80033093941014791E3D84918C4E35A20F105
:1046F8001C540C50CA864E86268582976349A000B2
:104708008357C40093E707042316F4007DBFAA99D2
:104718003309A940E1BF9C49A5C3011122CC06CEAB
:104728002A8411C51C4D81E72EC63122B245971740
:104738000000938727FC639CF5004C408397C500D5
:104748009DC722856244F24005616FF01FE9971703
:104758000000938727FC6394F5000C44C5B79717AE
:104768000000938727F7E39BF5FC4C44C1BFF24058
:10477800624401450561828001458280411122C45D
:1047880006C62A842316B5002317C5002320050072
:1047980023220500232405002322050623280500DB
:1047A800232A0500232C0500214681451305C5054C
:1047B800EFB0FFF3971700009387E7BE5CD0971719
:1047C8000000938747C11CD497170000938787C5BB
:1047D8005CD497170000938747C800D01CD8B24014
:1047E80022444101828097050000938505F3B1AA10
:1047F800411126C2130680069384F5FFB384C402D0
:104808004AC02E8922C406C693854407B1262A8445
:1048180001CD2320050023222501310508C4138674
:1048280084068145EFB0BFEC2285B2402244924411
:104838000249410182801C4DB5E7411106C622C4D8
:1048480097070000938767FA1CD59717000093878E
:10485800A7F49C43232405042326050423280504E0
:104868006314F50085471CCD2A84352848C0228565
:104878001D2808C42285052848C44840014691459A
:10488800EFF0DFEF08440546A545EFF03FEF484459
:104898000946C945EFF09FEE85471CCCB24022443B
:1048A8004101828082804111971700009387C7EEEB
:1048B80026C284434AC006C69C4C22C42A8981E782
:1048C8002685EFF05FF7938484048044DC40FD176D
:1048D80063D607009C40B9CF8440C5BF0317C40006
:1048E80039E7C17785072322040623200400232201
:1048F8000400232404005CC423280400232A0400A1
:10490800232C0400214681451305C405EFB03FDE82
:10491800232A0402232C0402232404042326040447
:104928002285B24022449244024941018280130404
:10493800840671BF91454A85EFF09FEB88C049FD19
:10494800B1472320F9000144E1BF797122D44AD04C
:1049580052CC56CA5AC85EC606D626D24ECE2A8A27
:10496800AE8A130485040149054BFD5B09ECB2507E
:1049780022544A8592540259F249624AD24A424B19
:10498800B24B45618280044483294400FD1963D4F5
:1049980009000040E1BF83D7C400637BFB00839715
:1049A800E40063877701A6855285829A3369A90056
:1049B80093848406E1BF1971A6DAAE848395E50075
:1049C800A2DC86DE328463DC050083D7C40023A022
:1049D800060093F7070885E7930700401DA03008F5
:1049E80036C6EF00102DB246E34105FE7247BD679B
:1049F800F98F7977BA9793B717009CC2F1BF9307DD
:104A080000041CC0F6506654D654014509618280E2
:104A180083D7C500011122CC06CE26CA4AC8898B85
:104A28002E8489CF930774041CC01CC885475CC8B2
:104A3800F2406244D24442490561828074003000E9
:104A4800AA84EFF05FF7A2452A892685312201ED75
:104A58008317C40013F7072061FFF19B93E7270032
:104A68002316F400C1B797070000938707D89CD492
:104A78008357C40008C008C893E707082316F40042
:104A8800A2475CC8B24791CF8315E4002685EF00A2
:104A9800F02401C98357C400F19B93E7170023163C
:104AA800F4008357C4003369F9002316240149B779
:104AB800DDC183A7C5FF411122C406C626C21384DF
:104AC800C5FF63D307003E94AA84EF00102893879C
:104AD80041819C4381EF2322040023AA8180224440
:104AE800B2402685924441016F005026637EF4004F
:104AF80014403307D4006396E7009843DC433697A5
:104B080018C05CC0D9BFBA87D84319C3E37DE4FE97
:104B180094433386D700631F86001040B29694C32F
:104B28003386D700E31DC7FA10435843B29694C39F
:104B3800D8C375B76375C400B1479CC04DB7104062
:104B4800B306C4006316D70014435843B29614C082
:104B580058C0C0C369B78280011126CA9384350042
:104B6800F19806CE22CC4AC84EC6A104B14763F5D7
:104B7800F404B14463E4B4042A89EF00101D938758
:104B8800418198433A8429E4938781819C4399E73A
:104B980081454A85EF00407E23ACA180A6854A85E1
:104BA800EF00807DFD5963193507B1472320F900CF
:104BB8004A85EF00B01929A0E3DE04FAB1471CC109
:104BC8000145F2406244D2444249B24905618280BB
:104BD8001C40858F63CF0702AD4663F6F6001CC004
:104BE8003E9404C031A05C406313870223AAF1807D
:104BF8004A85EF00B0151305B40093074400619986
:104C08003307F5405DDF3A94898F1CC05DBF5CC3F4
:104C1800C5B72287404085BF130435007198E30269
:104C280085FCB305A4404A85812FE31C35FBB5BF3D
:104C38001C46FD171CC663DA0700184E63C5E7005B
:104C4800A9476394F5006FF04FFC1C422E8513872B
:104C5800170018C22380B7008280011122CC26CA0F
:104C68004AC84EC652C406CE2A89AE893284B304D5
:104C7800D6007D5A63149400014511A883450400A9
:104C88004E864A85EFF0DFFA0504E31545FFF2404A
:104C98006244D2444249B249224A05618280357150
:104CA80022CD26CB4AC94EC706CF52C556C35AC1D4
:104CB800DEDEE2DCE6DAAA89AE843289368409C50A
:104CC8001C4D99E3EFF03FB797170000938787A231
:104CD800639DF40C83A4490083D7C400A18BE5CB62
:104CE8009C48F5C793070002A304F1029307000349
:104CF80002D22305F10222C6930B5002971A000034
:104D0800938A4AA3054C294B4A848347040099C3D4
:104D18006392770FB30C2441638E0C00E6864A86B3
:104D2800A6854E85EFF07FF3FD576307F51E925673
:104D3800E69636D2834704006380071EFD571309A1
:104D4800140002C802CE3ECA02CCA309010482D4D0
:104D58008345090015465685EF00807D1304190028
:104D6800C24759E913F7070109C713070002A30946
:104D7800E10413F7870009C71307B002A309E10488
:104D8800834609001307A0026380E608F2474A84B5
:104D9800814625460347040093051400130707FDC1
:104DA8006379E60AB5CA3ECE85A8971700009387AF
:104DB80067966395F40083A4890039BF97170000AC
:104DC80093874791E39AF4F083A4C90031B7A68585
:104DD8004E85EFF08FEF19D57D55FA406A44DA44D5
:104DE8004A49BA492A4A9A4A0A4BF65B665CD65C33
:104DF8000D618280050411BF330555413315AC00A0
:104E0800C98F3EC82289A9B732479306470018437D
:104E180036C6634907023ACE034704009307E00207
:104E2800631FF704034714009307A002631BF702EC
:104E3800B2470904138747009C433AC663C1070277
:104E48003ECA35A83307E04093E727003ACE3EC86C
:104E5800E1B7B387670385462E84BA9725BFFD5708
:104E6800C5B7050402CA81468147254603470400A1
:104E780093051400130707FD6376E606F1F28345F0
:104E880004000D46171500001305458B552511CD57
:104E9800971700009387878A1D8D93070004B3979F
:104EA800A700424505045D8D2AC8834504001946BC
:104EB800171500001305C588130914002304B1024F
:104EC800852D3DC197B7FFFF9387471395E7424765
:104ED800B2471377071009CF91073EC69257D2976A
:104EE8003ED21DB5B387670385462E84BA97BDBFEA
:104EF8009D07E19BA107D5B7780097060000938628
:104F080006D626860C084E8597000000E7000000AC
:104F1800FD572A8AE314F5FC83D7C40093F70704E6
:104F2800E39C07EA125555BD780097060000938662
:104F380006D326860C084E85012AD9BF797156CA30
:104F48009C49BA8A984522D426D24ECE52CC06D64F
:104F58004AD05AC85EC6AA892E84B284368A63D3D8
:104F6800E700BA879CC00347340419C385079CC06F
:104F78001C4093F7070281C79C4089079CC00329FE
:104F8800040013796900631A0900130B9401FD5B8F
:104F98005C449840998F634CF9041C408346340460
:104FA80093F70702B336D000A5EB13063404D28575
:104FB8004E85829AFD576303F5041C4011469840BC
:104FC800998B544481446397C700B384E64063D304
:104FD800040081441C4418486354F700998FBE9418
:104FE800014969047D5B63982405014509A8854644
:104FF8005A86D2854E85829A631E75017D55B250B8
:10500800225492540259F249624AD24A424BB24B54
:10501800456182800509ADBF3307D400130600033C
:10502800A301C7040347540493871600A29789066F
:10503800A381E7049DBF85462286D2854E85829A44
:10504800E30E65FB050945B7797122D426D24AD00B
:105058004ECE06D652CC56CA5AC8B68983C68501E2
:10506800930790063289AA842E8413863504638DAB
:10507800F60263E2D706930780056388F61863EDA6
:10508800D7006381062293073004638EF60A930AD9
:1050980024042301D404C9A0930730066385F60AC3
:1050A80093074006E395F6FE1C40084393F607086D
:1050B80093054500C5C61C410CC363D807001307F8
:1050C800D002B307F040A301E404970600009386DA
:1050D800A66729476DA8930700076384F61663E55A
:1050E800D7029307E006638BF6189307F006E39060
:1050F800F6FA0C401C4313F80508138547006307AC
:10510800080608C39C438DA893075007E383F6FE5F
:1051180093078007638BF61293073007E399F6F637
:105128001C43D04181459386470014C383AA0700D6
:105138005685FD2E01C53305554148C05C401CC845
:10514800A301040471A81C43930A2404938647000E
:105158009C4314C32301F4048547D5B793F6070489
:105168001C410CC3B9DAC207C18781BF93F5050496
:1051780008C3C9D983D707001307F0066388E60E6A
:10518800970600009386465C2947A30104044C4017
:105198000CC463C5050008406D9908C099E3B28A3C
:1051A80091CDB28AB3F5E702FD1AB69583C505001D
:1051B8002380BA00B3D5E70263F0E70CA147631E6A
:1051C800F7001C40858B91CB58401C4863C7E7000B
:1051D80093070003A38FFAFEFD1A3306564110C841
:1051E8004E87CA867000A2852685EFF03FD57D5A86
:1051F800631E450B7D55B250225492540259F24910
:10520800624AD24A424B45618280A382D5049706FE
:105218000000938666530C40084313F805081C41A8
:105228001105630D080208C313F7150001C793E5BC
:1052380005020CC04147B1FB0C4093F5F5FD0CC0CD
:10524800A9B79C4193E707029CC193078007A30273
:10525800F404970600009386665075BF13F805049A
:1052680008C3E30308FCC207C1837DBF970600009B
:105278009386864D214711BFAE872DB794411C43B5
:10528800CC4913F80608138547006306080008C3CD
:105298009C438CC301A808C393F606049C43F5DA23
:1052A8002390B70023280400B28A1DBF14485686ED
:1052B800CA8526858299E30F45F31C40898B8DE7C3
:1052C800B2474844E359F5F23E8535B785465686D8
:1052D800CA8526858299E30F65F1050A5C44324741
:1052E800998FE345FAFEE9BF014A930A94017D5B71
:1052F800F5B7011122CC06CE2A8409C91C4D99E7BD
:1053080032C62EC4EFF02FD33246A24597070000CD
:105318009387473E6316F60250401C46FD171CC68D
:1053280063D00704184E63C7E70093F7F50F2947C2
:105338006398E70222856244F24005616FF0EF8CC2
:10534800970700009387073D6314F6001044F1B7F0
:105358009707000093870738E311F6FC504475BFA0
:105368001C4213F5F50F1387170018C22380B700E6
:10537800F240624405618280411122C42A842E854C
:1053880023A4010606C6EFC0CF9FFD576317F5009B
:10539800938781069C4391C31CC0B24022444101BB
:1053A8008280411122C42E848395E50006C64522D9
:1053B800634905007C48AA977CC8B2402244410151
:1053C80082808357C4007D777D17F98F2316F400F8
:1053D800EDB783D7C500011122CC26CA4AC84EC6EC
:1053E80006CE93F70710AA842E843289B68991C70E
:1053F8008395E5008946014631228357C4007D77AD
:105408007D17F98F2316F4008315E4006244F240F7
:10541800CE864A86B24942492685D24405613DA8CE
:10542800411122C42E848395E50006C6E128FD5764
:105438000357C400631BF500FD77FD17F98F23168A
:10544800F400B2402244410182808567D98F231637
:10545800F40068C8FDB78395E50005A8411122C48A
:105468002A842E85B285368623A4010606C6EFC097
:10547800CF8EFD576317F500938781069C4391C330
:105488001CC0B240224441018280411122C42A84B6
:105498002E8523A4010606C6CD20FD576317F50007
:1054A800938781069C4391C31CC0B24022444101AA
:1054B8008280411122C42A842E85B28523A4010644
:1054C80006C6D120FD576317F500938781069C43D4
:1054D80091C31CC0B240224441018280411122C4C0
:1054E8002A842E8523A4010606C66520FD57631766
:1054F800F500938781069C4391C31CC0B2402244A7
:1055080041018280411122C42A842E85B2853686C3
:1055180023A4010606C66120FD576317F50093878B
:1055280081069C4391C31CC0B24022444101828041
:1055380093F5F50F2A966314C500014582808347C9
:105548000500E38DB7FE0505FDB782808280411115
:1055580022C42A842E85B285368623A4010606C66F
:10556800A920FD576317F500938781069C4391C3D3
:105578001CC0B2402244410182809307800523A4C5
:10558800F1067D5582809307800523A4F1067D5599
:1055980082809307800523A4F10601458280930742
:1055A800800523A4F1067D5582809307800523A4F6
:1055B800F1067D55828000006B3C31360D000000FD
:1055C800537461727420404368697049443D2530C2
:1055D8003258200A0000000057616974204469733A
:1055E8006B52656164790000253032780A0000004A
:1055F800437265617465204C6F6E67204E616D65FE
:10560800000000002F544342447E312E435356007D
:105618004572726F723A20253032780A0000000015
:10562800437265617420656E640000005EBEFFFF12
:1056380086BEFFFFAEBEFFFFC6BEFFFFE0BEFFFF98
:105648005553422064657620696E00005553422008
:10565800646576206F757400526573657420686F91
:10566800737420706F7274007825303258200000EF
:1056780047657443666744657363723A20000000A7
:10568800496E6974526F6F74446576204572722052
:105698003D20253032580A0044697361626C6520E8
:1056A800686F737420706F727420626563617573BC
:1056B80065206F6620646973636F6E6E656374003E
:1056C80047657444657644657363723A2000000048
:1056D80000000000000000000000000000000000C2
:1056E80000000000000000000000000000000000B2
:1056F80000000000000000000000000000000000A2
:105708000000000000000000000000000000000091
:105718000000000000000000000000000000000081
:105728000000000000000000000000000000000071
:10573800232D302B20000000686C4C0065666745FF
:105748004647000030313233343536373839414234
:105758004344454600000000303132333435363793
:105768003839616263646566000000000201000068
:10577800000000008006000200000400800600010E
:1057880000001200000502000000000000090000EF
:085798000000000000400020A9
:1057A00000000000F856000018570000D85600000E
:1057B00000000000000000000000000000000000E9
:1057C00000000000000000000000000000000000D9
:1057D00000000000000000000000000000000000C9
:1057E00000000000000000000000000000000000B9
:1057F00000000000000000000000000000000000A9
:08580000CC480020004000200C
:00000001FF
