:040000006F1000631A
:1000040000000000000000006F0080086F00604ED8
:1000140000000000000000000000000000000000DC
:1000240000000000000000000000000000000000CC
:100034006F004006000000006F00E00500000000B3
:100044006F0080056F0060056F0040056F0020059C
:100054006F0000056F00E0046F00C00400000000A2
:100064006F0060046F0040046F0020046F00000400
:100074006F00604F6F00C003000000006F0060035A
:100084006F0040036F0020036F0000036F00E00265
:1000940001A001A001A001A001A001A001A001A054
:1000A40001A001A001A001A001A001A001A001A044
:1000B40001A001A001A001A001A001A0B717004068
:1000C400130770052380E704130780FA2380E704ED
:1000D4002396A70223800704371700408347270588
:1000E400898BEDDF835707053717004083472705C2
:1000F400898BEDFF3717004083472705898BEDDF98
:100104000355070582804111814601468145114509
:1001140006C6052BB727004011472383E780B7F7AE
:1001240000E003A707D16D9B23A8E7D003A707D15D
:100134005D9B23A8E7D07300501001000100B2407A
:10014400410182804111814681450146114506C61F
:10015400CD29B727004011472383E780B717004014
:1001640003C7E70283C5E70483D787039166137740
:10017400F70F93E5350063E5D700719B136717000C
:10018400B7170040130670052380C704930680FA4E
:100194002380D704238207022380C7042380D70443
:1001A4002387E7022387B7042380C7042380D70467
:1001B40003C7B70413670702A385E7042380070472
:1001C40037F700E0832507D193E545002328B7D00E
:1001D400832507D1DD992328B7D07300501001007F
:1001E40001002380C7042380D70403C7B70413770F
:1001F400F70DA385E70423800704B2404101828000
:10020400411122C4814681452A840146114506C60E
:100214000D29B727004011472383E780B717004013
:1002240003C7E70283C5E70483D78703916613777F
:10023400F70F93E5350063E5D700719B136717004B
:10024400B7170040130670052380C704930680FA8D
:100254002380D704238207022380C7042380D70482
:100264002387E7022387B7042380070437F700E0D6
:10027400832507D193E545002328B7D02380C704FD
:100284002380D70483C5F70093E50504A387B7004B
:100294002380C7042380D70483C5B70493E50502EC
:1002A400A385B704E57591054D8C2380C7044204EA
:1002B4002380D704418023908702832507D1DD99C9
:1002C4002328B7D073005010010001002380C70415
:1002D4002380D70403C7B704130560041377F70D0D
:1002E400A385E704238007042244B240410189A482
:1002F40001114EC681460146AA898145114506CEA3
:1003040022CC26CA4AC8352EB7270040114723837A
:10031400E780B716004083C7E60203C7E60483D626
:100324008603116693F7F70F1367370063E5C6007A
:10033400F19B93E71700371400401309700523005D
:100344002405930480FA2300940423020402230066
:100354002405230094042307F4022307E404230060
:10036400040413055002A128B7F700E003A707D13E
:100374001367470023A8E7D023002405230094042F
:100384000347F40013670704A307E40023002405CC
:10039400256723009404B3E9E9002310340303A779
:1003A40007D15D9B23A8E7D0730050100100010022
:1003B400F2406244D2444249B24905618280B7178F
:1003C4000040930670052380D704130780FA238026
:1003D400E70403C6B7041376F60DA385C704238088
:1003E4000704137605022DC603C6A700118A0DE281
:1003F4002380D7042380E70403C7A70013674700BB
:100404002385E7009307004B01000100FD17EDFF72
:10041400B7170040930670052380D704130780FAAA
:100424002380E7047D892394A700010001000100D3
:100434000100238007042380D7042380E704930664
:10044400100537270040A303D78023800704828048
:10045400137605046DDE03C6A700418A0DE22380EE
:10046400D7042380E70403C7A70013670701238584
:10047400E7009307007D01000100FD17EDFFB717AA
:100484000040930670052380D704130780FA7D8902
:100494002380E704136505042394A70001000100E9
:1004A40001000100238007042380D7042380E7048C
:1004B400930630053727004079B74111814601463C
:1004C4008145114506C6B52AB717004013077005C4
:1004D4002380E704130780FA2380E70403C7670433
:1004E400136717002383E70423800704B240410104
:1004F40082808146014681451145A122B7170040FB
:10050400930670052380D704130780FA2380E70439
:100514007D562396C7022380D7042380E70403C7AC
:100524006704136717002383E7042380070401A0EB
:10053400BD473305F50201007D1575FD828041112B
:1005440022C426C206C6AA84014463179400B2409A
:10055400224492444101828005041305803E4204F2
:10056400C13F4180DDB7B71700401307000323885C
:10057400E702854723A8F18273002030411106C6A3
:10058400EF008076F5BF2303048015472303E4803E
:1005940001002302A480828083076480E3CE07FEE7
:1005A40023030480828083076480E3CE07FE03452F
:1005B4004480828083076480E3CE07FE2302A48004
:1005C4008280411126C44AC24EC006C61377F50B79
:1005D400AD47AA892E8995446306F7001945653706
:1005E400653F8D444E854537FD59FD1463983401AC
:1005F400B240A24412498249410182801355090143
:100604001375F50F453F2209CDB7011126CC06CE4F
:10061400B704080051371545BD37713769372AC605
:10062400A53F32459377150089EB136515001375C3
:10063400F50FF240E24405618280FD14E9FC0145B6
:10064400CDBF397126DC4ADA4ED852D656D45AD2A6
:100654005ED006DE62CE66CCB7E700E07D5783AAA3
:10066400070022C603AA470023A0E71823A2E7181D
:10067400B7170040130770052380E704130780FAB7
:100684002380E70483C74704930B75FFB684E2070E
:1006940093FBFB0F8546AA892E8B328937240040B1
:1006A400E187015763FA76016308D5008946130789
:1006B40000026313D5000157D98F93F7F70FB71CC6
:1006C40000402382FC0411472303E4801305F00F48
:1006D4005D3D094CD13563697C11B70707003E9B2A
:1006E400378707007955637EEB02B3079B00636A83
:1006F400F702A9476399F90689E48144713D268587
:100704000DA0DA850945753D05090345F9FFFD147A
:10071400050B4D3581C49377FB0FFDF7FD3569FD5E
:100724007D55B7170040130770052380E7041307AE
:1007340080FA2380E70403C74704418B2382E7043C
:10074400F250B7E700E023A0571123A24711E25467
:1007540032445259C259325AA25A125B825B724CC9
:10076400E24C21618280A5476395F90685691309E6
:10077400F00FB3069900B3742B01B6941349F9FF33
:10078400B3749900856B33796901416B9387F9FFE1
:10079400B3F7270199E363FC340193D94900C147B6
:1007A400E3E637FF99BF0569C1697D19D9B7130518
:1007B400800D6388690113050002638479011305C0
:1007C4001008CA85FD3B913521DD4E99B38434412F
:1007D400D9B7DA852D45F533CA94E30099F20509B2
:1007E400D933A30FA9FED5BF9387F9FF93F7F70F6A
:1007F400636CFC0803C75C04B7070800137707029F
:1008040019E3B78707007955E37DFBF033079B00B5
:10081400E3E9E7F089476390F9048980D549E38ED9
:1008240004ECDA850945713B11090327C9FF914797
:100834002320E48003076480E34E07FE230334810E
:10084400FD17EDFBFD14110B81C49377FB0FE9FF3A
:100854006D3B71F5F1B58547E387F9F4DA852D45EC
:100864008D339389F4FFE38A04E8353B93F7390029
:1008740091EB832604800327090093074900E39F33
:10088400E6E63E89CE84F1BFB5476396F9001305C9
:10089400900BD5399DB5B1471305B00AE38BF9FE2A
:1008A4009947639EF902DA852D45213B81448D4B9E
:1008B400A149D53963967401832704802320F90064
:1008C4008504E39834FF8327048013172B016355B1
:1008D40007002312F90015B52322F90039BD9D47FD
:1008E4006399F90281451305B004E139BD4423201D
:1008F400090023220900FD597D3193F77400CA973A
:1009040003C70700FD14398D2380A700E39634FF45
:10091400EDB3A1476392F904CD398144630D0B0013
:100924008D479304C0036308FB009304000563042C
:100934008B01930440041375C507E30095DC194546
:1009440099319939054581312685AD3109459D3166
:100954006D39E31405DAE9B391476399F900130596
:100964006006153115391305900925B7E38709D8B1
:10097400F15469B37D166206618693178601E18797
:1009840063D4070001458280931726003307F500DE
:10099400AE9718439C4363E7E7007D16E37FF7FCBB
:1009A4007D55828005458280FD15E205E18513971A
:1009B4008501618793F7F50F63480700FD151397C9
:1009C40025002A97584365D713851700620561856A
:1009D40082803308B5021C4283A80600B335B502F1
:1009E400C29733B50701AE98469585486367B5004D
:1009F4006394A50063E3070181480C43C6950CC3C7
:100A040088C21CC282808147139787016187634330
:100A1400B7008280139727002A97232007008507B1
:100A2400E5B78147014793968701E18663C5B60020
:100A340013351700828093962700AA96944285075F
:100A4400558FD5B793D755408A07AA979C43054538
:100A54003315B5007D8D828017D3FFDFE702A34AEB
:100A64002A84993705C5931725003E940327C4FFAC
:100A7400814711EB7D1516053E954205418517D337
:100A8400FFDF6700834A05838507E5B70145C5BFD6
:100A940081471397870161876343C7008280139757
:100AA4002700B386E50094422A97850714C3D5B777
:100AB4007D1662066186014793178601E18763D537
:100AC400070013351700828093172600B306F5003C
:100AD400AE9794429C437D16B58F5D8FF1BF8A0516
:100AE400AA9501476363B500828083A6C5FFF1150B
:100AF40093D71600D98F9CC11397F601E5B72A83C3
:100B04000148014701456343D7008280B38705014B
:100B140083A80700B30706019C43C697AA9763847A
:100B2400F80033B517010507B3080301620723A0D2
:100B3400F80061871108C1BF2A8301478147014535
:100B440063C3D70082803388E50083280800330E0E
:100B5400E600032E0E003388A8403308C84163849E
:100B6400080133B508018507B308E300E20723A0B1
:100B74000801E1871107E9B717D3FFDFE702A338BC
:100B84000111B286B2842E86AA850A8575372A8415
:100B9400A6850A857935333480000604133515009B
:100BA400018D056117D3FFDF6700233817D3FFDFFB
:100BB400E702E3324111AA89AE8A328BB68402C2BB
:100BC40002C402C60144131C8401135C8C416349B2
:100BD4009C02939B1400FD1B0549138CF4FFF15CEC
:100BE4003304890162046184634D740592478E0461
:100BF400CE9423AEF4FE410117D3FFDF6700A33187
:100C040013192400B30B2B01014A93172A00D6971A
:100C140083A50B0088437800340050005D3B050A2F
:100C240093178A01E187F11BE351FCFE92474E9929
:100C340005042320F900A2473EC2B24702C63EC4BF
:100C440059B7131A8901135A8A41131D24009317A3
:100C54008A01E18763CF970092470A044E941CC02F
:100C6400A24705091379F90F3EC2B24702C63EC432
:100C740085BFB3079A0313152A00569508417800D7
:100C840034005000050AEA97DA978C439933C1B7C8
:100C940009CDB7170040130770052380E704130735
:100CA40080FA2380E7042396A702828019C1814732
:100CB40099E982803387F500834607003307F500FE
:100CC40085072300D700E397C7FEE5B719C1FD5791
:100CD40081E98280910503A7C5FF1105232EE5FE56
:100CE4007D16E319F6FEF5B7797122D417340000A6
:100CF400130484C11C4006D626D24AD04ECE91C7D6
:100D040082979737000023A107C05C4089CB03D5A5
:100D14004185BD3F5C40829703D56185953F1C406A
:100D2400639907189737000083C717C5858B95C744
:100D340097370000A38207C4173700000347F7C39F
:100D4400914763FCE7009D219737000083C7F7C2F2
:100D5400F9178A07A2979C4382979737000083C7A5
:100D640067C6918B89C7973001E0E780C0521C4465
:100D740091C38297938701859843173600000346F1
:100D840076B63E89973400009384C4B59737000043
:100D940083C747B593961700BA9683D60600638037
:100DA40006109737000083C7E7B363F2C7088607C6
:100DB4003E97835507002310070003D541852EC6AF
:100DC400239E0184F135938781869C431735000067
:100DD400034545B113172500BA979C43B245829742
:100DE400AA8903D561856D359737000083C787AF1E
:100DF400139717008327090003D5C1851345F5FF11
:100E0400BA9703D7070033753501598D2390A7008E
:100E140083C70400850793F7F70F173700002303F0
:100E2400F7AC173700000347F7AB63E6E7009737E3
:100E34000000238907AA1C40ADEF938701869843DD
:100E44003E8425CB9737000083C777B391CB973780
:100E5400000083C797B289E7973001E0E78080F903
:100E64001C4082972A8431C59C48AA9717370000F2
:100E74002322F7A8938741869C4385CF03D54185D8
:100E8400013D2285971001E0E78020642254B2508E
:100E940092540259F24903D561854561D5BB850752
:100EA40093F7F70F97360000238EF6A2E3E0C7EE20
:100EB400CDBDB250225492540259F2494561828008
:100EC4009167B7C600409387373023A6F6200F10EA
:100ED4000000973700009387E7A0884F9387C18A63
:100EE4009C43316713073730F053B7071000FD17E1
:100EF400918F99833A0523A6E6205D8D8280411166
:100F0400B7170040985F3AC6945F3247E39CE6FE09
:100F1400324541018280411106C6D537973600001B
:100F240083C6C699858AB1C6930730333307F50261
:100F3400B337F5023983CA07D98F1737000013076F
:100F4400679A584B01456303F7023385E740636BA7
:100F5400F70037653D0889C637856F081305059086
:100F6400198D3E95173700002328F798B2404101A8
:100F74008280E5473307F502B337F5022583DE07A0
:100F840065BF411122C41384C18918404AC006C6F2
:100F94001C5F26C2138981899983858BC1C31C5F19
:100FA400973400009384049D93F7F7F91CDF973777
:100FB400000083C7279C93F707048DC39387C186DA
:100FC4009C4382979737000023AEA79A83C70400F7
:100FD40093F7F70B17370000230EF7988547173759
:100FE4000000A30BF79883C7440093F7070481EF2D
:100FF4009387C18A9C43D844B8D3930700FC17371E
:101004000000230BF7968387640063D907008327C6
:1010140009009C43173700002301F79618401C5F12
:101024008583858BC9CBF5571CDF010001000100C6
:1010340001000100010001000100010001000100A4
:101044000100010001000100010001000100010094
:101054000100010001000100010001000100010084
:101064000100010001000100010001000100010074
:101074000100010001000100010001000100010064
:101084000100010001000100010001000100010054
:101094000100010001000100010001000100010044
:1010A400010001000100010001009387C18A9C43F3
:1010B40013075004B8CB18401C5F9183858B89CFEC
:1010C400BD571CDF9387C18A9C4323A80704854727
:1010D400173700002302F78A83270900D8430583C2
:1010E400058B19C7D843759BD8C3D843799BD8C3FC
:1010F400B24022449244024941018280397106DEA1
:1011040016DC1ADA1ED82AD62ED432D236D03ACEEB
:101114003ECC42CA46C872C676C47AC27EC09535F1
:10112400F250E2525253C2533255A25512568256CD
:101134007247E2475248C248324EA24E124F824F83
:101144002161730020309387C18A944317370000CC
:1011540013074782BC5289CF83472700858B89EBCD
:1011640083473700858BFDD7973700002386078098
:10117400828037C700401306C003930620039725D7
:1011840000009385257F83278720C18393F7F70386
:101194006369F60083278720C18393F7F70363E627
:1011A400F60083C74500858BF9DF82809387C18A67
:1011B4009443172700001307E77BBC5289CB83476E
:1011C4000700858B91CB972700002387077A972701
:1011D4000000A383077A828083471700858BF1DFA1
:1011E400DDB79387C18A904337C70040C145E546C0
:1011F40083278720C18393F7F70363FBF5008327D5
:101204008720C18393F7F70363E4F6003C52EDF3C0
:1012140082801387C1891843AA87185F1583058BB9
:1012240025EF0345150015051377C51F19C6B386A9
:10123400E70083C626002300D60095C59726000044
:1012440083C6A67393F606040945A1CAB386E700CC
:1012540083C63600054693F5F6066390C504E20698
:10126400E18663CC06023385E70083471500034714
:101274000500A20793F70770D98F139707014183DD
:101284009376074099C6136707802392E18A014544
:1012940082802392F18AE5BF054582809386C18AC4
:1012A4008C423685972600009386C66C9845931722
:1012B4000701C183137817203E866304080413775B
:1012C400072079C303C726001367170017280000F7
:1012D4002303E86A13070019B8D1130700F8972508
:1012E4000000238BE5681387C1890C43370800107D
:1012F400D855719B13672700D8D5984133670701E8
:1013040098C11377261005C31376061059CE03C768
:1013140006001367170017260000230DE66417273D
:101324000000231D076483C6460093C7F7FFC20766
:10133400E206E186C183184163D106029396170140
:1013440063DE060630538D4663E9C60085461726DC
:1013540000002303D6623453FDFE972600009386D3
:10136400A6548386460163DD060093960701C18671
:1013740063DC06047053894663E4C6007453FDFEBF
:101384001447F58F1CC7828003C716001367170024
:1013940097250000A380E55E17270000230E075C55
:1013A40017270000231C075CA9BF03C73600136777
:1013B400170017260000A300E65C95B7854617269C
:1013C4000000230BD65A51BF5447139606016351AC
:1013D4000602B7061000FD1674D397260000938604
:1013E4006650944E8506172600002329D65049BF1F
:1013F400A166D58F71B7397106DE16DC1ADA1ED8EC
:101404002AD62ED432D236D03ACE3ECC42CA46C8A0
:1014140072C676C47AC27EC05135F250E25252533B
:10142400C2533255A255125682567247E247524869
:10143400C248324EA24E124F824F216173002030B7
:10144400172700001307C7548346B70197270000E6
:1014540083C75757B69793F7F70FFD4663EAF60429
:101464004C4B97260000A385F6529727000083C7AC
:10147400375205473317F70097260000A384F65424
:101484006D8F1DEF9726000083C61654B3F6D7025E
:1014940013050002814733D6F500058A13F8F70FC8
:1014A40009CE6399E60097270000A383074F828043
:1014B40081177DB705071377F70F8507E39DA7FC11
:1014C40082809387818B9843B75702009387279F25
:1014D40083260709139656006358060083260709D6
:1014E4001396660063440600FD17FDF3828051C91C
:1014F400AA870145C9C98D07C207C183F19BC207E9
:10150400C18313074003636BF7021387C18C08433D
:101514001387418C14436396A60217270000130710
:10152400A738185B014525C34111C20706C6054506
:10153400DD8D0297B2400145410182801387818C81
:10154400F9B70357650005EF035745006369F702D0
:10155400B306F74021466370D60210419386870094
:101564001D8FAA96611790C22392E600239306006A
:1015740014C12312F5002313B5002105828008410C
:1015840059BF01458280828001CD9387C18C03A815
:1015940007009387418C8C430147C28763E3B700FC
:1015A40082809443636FF50663EDA6061386870075
:1015B400E368C5FE03D56700216605066317C50009
:1015C40003C671880506A383C18823930700638437
:1015D40007031386818C1042630FF60003566700DD
:1015E40019EA83D7470014C383564700B697A10767
:1015F4002312F700BA879843E304B7FA9386818CE1
:101604009442E30FD7F883566700D9FA83D647008C
:10161400035647001843A106B2962392D70098C3F5
:0816240082803E87B6879DBF5E
:10163000974100209381813A177100201301819C0A
:1016400013054000972500209385C51B1736002001
:101650001306C67D63FAC5008322050023A055004A
:1016600011059105E3EAC5FE17C50100130585AB19
:10167000973500209385857B1386018263FAC50028
:101680008322050023A0550011059105E3EAC5FE5C
:101690001385018297650020938545BE6377B50069
:1016A000232005001105E36DB5FE9302800873A0A9
:1016B0000230972200209382E21493E2120073908A
:1016C0005230972200009382628B73901234730021
:1016D0002030397101436EC619A0397141536AC86F
:1016E00066CA62CC5ECE19A0397101535AD056D267
:1016F00052D44ED64AD826DA22DC06DE33016140C7
:10170000828241114AC026C222C406C68282B24DDC
:101710004101024D924C224CB24B4101024B924A84
:10172000224AB2494101024992442244B240410155
:1017300082803D432A876373C3029377F700BDEF2E
:10174000ADE5937606FF3D8ABA960CC34CC30CC731
:101750004CC74107E36BD7FE11E28280B306C3405A
:101760008A069702000096966780A6002307B700B6
:10177000A306B7002306B700A305B7002305B700EB
:10178000A304B7002304B700A303B7002303B700E3
:10179000A302B7002302B700A301B7002301B700DB
:1017A000A300B7002300B700828093F5F50F93964E
:1017B0008500D58D93960501D58D61B79396270049
:1017C0009702000096968682E78086FA9680C11777
:1017D0001D8F3E96E374C3F8A5B73367B500FD537C
:1017E0000D8B79E7B7877F7F9387F7F71041944197
:1017F000B372F6003363F600BE92B3E26200639701
:10180000720C6318D6065041D441B372F6003363AC
:10181000F600BE92B3E262006398720A631BD604BC
:1018200010459445B372F6003363F600BE92B3E2FE
:1018300062006391720A631ED6025045D445B372AA
:10184000F6003363F600BE92B3E26200639A720858
:101850006311D60210499449B372F6003363F6005F
:10186000BE92B3E26200639372085105D105E30FA3
:10187000D6F61317060193970601631CF70013575A
:10188000060193D706013305F7409375F50F91E9EB
:1018900082804183C1833305F7409375F50F91E151
:1018A00082801377F70F93F7F70F3305F7408280A5
:1018B0000346050083C60500050585056313D600AC
:1018C00065FA3305D640828011059105E312D6FEF4
:1018D000014582802105A105E31CD6FC01458280DB
:1018E0003105B105E316D6FC014582804105C105ED
:1018F000E310D6FC01458280B717004003C7770587
:101900001377E70FA38BE704130700F8A38DE70411
:101910003D47238CE70413075003A38CE704828020
:10192000B717004003C7E704930670052380D70468
:101930001377C70F0D89930680FA2380D704498F48
:101940002387E704238007048280B717004003D56C
:1019500087005D715ED64205418186C6A2C4A6C2DB
:10196000CAC04EDE52DC56DA5AD862D466D26AD089
:101970006ECE9377050C13070008814B6388E71838
:1019800013070004639CE714B7240D8F7D899384AB
:101990000480B3D4A4029167938707E8BE94A1673B
:1019A000938707D0B3D4F402EF80313497A70100B6
:1019B0009387475B9043D443EF80E167EF80717575
:1019C0002A8B939C040103D9018293DC0C016315DB
:1019D0000900056913090980B7170040130770054E
:1019E0002380E704130780FA2380E704371A0040B6
:1019F0000547939D0401096C85662389E704D14A54
:101A0000814E8145130D0A0413087005130680FAF0
:101A1000894893DD0D01130C0C712943FD16230039
:101A20000D012300CD0023162A0323000D00834758
:101A30002A05898BEDDF83570A0583472A05898BA1
:101A4000EDFF83472A05898BEDDF83570A05239035
:101A50002183C207C183338597419319050193D927
:101A60000941638409163387B902635E070C850E4A
:101A7000C20E93DE0E0163E8D80D63D9050A330563
:101A8000B04093150501C185C204C18063D7350BF1
:101A90000965130505713385A502B71700401307C3
:101AA00070052380E704130780FA2380E704239658
:101AB0007703238007043345950242054181B640F0
:101AC000264496440649F259625AD25A425BB25BA6
:101AD000225C925C025DF24D61618280B1E3B77479
:101AE00089097D8993840480B3C4A4029167938794
:101AF00007E8BE94A167938707D0B3C4F402EF80D0
:101B0000D11E97A70100938767466DB597A701007F
:101B100093870745856403AB07009384843855B5E4
:101B2000130B0000954471BD3A89D5BDB387FC40C5
:101B30009399070193D9094181BF0965130505717F
:101B40003385A9028DBF3385B74163E4FC0033853B
:101B5000FD40330585033344B50363458300131506
:101B60000401A9BF4E8536C642C432C2EF80114E71
:101B7000DA85EF80911EEF805147931E050193DEB9
:101B80000E41B307D941C207C183056E3E87124695
:101B9000224889482943B24663E3C7013687420792
:101BA0004183631A270113071900634430011307A7
:101BB000F9FF42074183FD1A93FAFA0FCA8BCE85CB
:101BC000E3940AF62390E18259BF0145CDBDB717D2
:101BD000004003D587005D7186C642054181A2C4DD
:101BE000A6C2CAC04EDE52DC56DA5AD85ED662D4DD
:101BF00066D26AD06ECE02C69377050C1307000832
:101C0000638BE71413070004639FE710B7240D8F5D
:101C10007D8993840480B3D4A4029167938707E8F5
:101C2000BE94A167938707D0B3D4F402EF80F10B81
:101C300097A70100938707339043D443EF80A13FD8
:101C4000EF80314D2A89939A040103DB218293DAD4
:101C50000A0163150B00056B130B0B80B7170040CF
:101C6000130770052380E704130780FA2380E70435
:101C7000939B040105478969056A2389E704D14DCF
:101C8000014D814C93DB0B01938909717D1A5A85B3
:101C900097200020E780C0C2330C5541420C135CF2
:101CA0000C412391618363010C16B3079C0363D13C
:101CB000070E050D420D135D0D01894763EAA70D5F
:101CC00063DB0C0A33059041931C050193DC0C4146
:101CD000C204C18063D88C0B096513050571338577
:101CE000AC02B7170040130770052380E704130701
:101CF00080FA2380E70432472396E7022380070413
:101D00003345950242054181B64026449644064932
:101D1000F259625AD25A425BB25B225C925C025D1B
:101D2000F24D61618280B1E3B77489097D89938442
:101D30000480B3C4A4029167938707E8BE94A167A7
:101D4000938707D0B3C4F402EF80217A97A70100EC
:101D50009387C721D5B597A701009387672085642E
:101D600003A9070093848438F9BD13090000954442
:101D7000D9BD3E8B29BF3385AA40131C0501135CD6
:101D80000C41B9B70965130505713305AC028DBF68
:101D900063FEAA003305754133053503A947334473
:101DA000750363C8870013150401B1BF3385AB40C9
:101DB000E5B76285EF809129CA85EF80017AEF80CF
:101DC000D122131D0501135D0D413307AB414207BD
:101DD00041838565BA876363B700D287C207C18331
:101DE000639A670193071B00634480019307FBFF1D
:101DF000C207C183FD1D93FDFD0F5AC6E28CE39A15
:101E00000DF62391F18245B70145FDBD41112A83AD
:101E1000014E930E407E130F0019930F400663EBA3
:101E20006E0A9308001913034006B3781503854E14
:101E30000D4FA14F337365020D891335150063E50E
:101E4000BE0C1308F6FF7946729842081358080131
:101E50003307C70213D61700BE0732976146B3F6A1
:101E6000C60213068070B386C6023697A166F58F48
:101E700042075D8FB717004083C6F70293F6060846
:101E8000A307D1000346F10083C6F70293F60608C4
:101E9000E394C6FE8346F10093F6F60FF1DE930657
:101EA00070052380D704930680FA2380D70423AAE1
:101EB000070383C6170393E60608A388D702D8DB77
:101EC00003C7170313670704A388E70223800704E7
:101ED000410182807D133368E3039308E016630EAB
:101EE00008003368F3039308D0166308080093785A
:101EF000330093B818009388D81633081E01131EB8
:101F00000801135E0E0121BF6393E5030548638654
:101F100008000148630303002A8871087298FD15C0
:101F2000131E0801C205135E0E01C18109BF13F81B
:101F3000150063F4BF007908D5B713381800E5BF62
:101F40004111B7170040985F3AC6945F3247E39C4F
:101F5000E6FE324541018280914763EEB70217A742
:101F60000100130727018A05BA959C41BA97828719
:101F7000B717004003A7470B1345F5FF698F23AA46
:101F8000E70A03A7070B698F23A8E70A03A7070A35
:101F9000798D23A0A70A8280B717004083A6470B3C
:101FA0001347F5FFF98E23AAD70A83A6070B558D91
:101FB00023A8A70A83A6070A758F23A0E70A8280B1
:101FC000B717004003A7470B498F23AAE70A03A7C7
:101FD000070B1345F5FF45BFB717004083A6470B16
:101FE0001347F5FF758F23AAE70A03A7070A598D40
:101FF0004DB7B717004003A7470B498FEDB7B71789
:10200000004003D58700420541819377050491EB99
:102010009377F5013755E801130505803345F5023F
:1020200082809377050C130700046397E70093778A
:10203000F50137459C1CCDB72165130505D082807D
:1020400037E700E01C435443A183E206D58F1CC14F
:10205000FD572320F7182322F718828013178500D5
:10206000B7E700E023A0E710618123A2A7108280D8
:10207000B7F700E0C8439C4782808147373700406C
:10208000A14663C4C700328582800345B740E38E12
:10209000A6FE3385F5000345050085072304A74008
:1020A000CDB797370020938767139C4317570020BD
:1020B0001307C71C3E95636EE500176700201307E2
:1020C00067D46368A700173700202329A7103E852F
:1020D0008280FD57EDBF411122C406C62A84053710
:1020E0002947B307E502B2408D83B3D78702224464
:1020F0009507B3D7E70237370040C207C1832316DD
:10210000F74041018280716541111305052006C623
:10211000D937B7370040130770F82381E7400D47E0
:10212000A381E74013070004A380E7400547238706
:10213000E740B240410182802382018223A40182D0
:10214000B717004003A7070CB706C0FFFD16758F31
:1021500023A0E70C03A7070DB7064000558F23A85F
:10216000E70C03A7070C3D9B23A0E70C03A7070D73
:102170001367070123A8E70C828023A4A18213061A
:102180004006894503C5C1826F30F143B71700404F
:1021900003A5470C83A7470C598113451500C18B34
:1021A000058999E31365250083C74182638CA700E5
:1021B0002382A18201C99387818203A3070063035D
:1021C000030002838280411106C6EFF00FF8BD477D
:1021D00063F4A700EFF06FF7DD3ABD4763F3A700A4
:1021E000FD32B24083D5218203D5018241016F3097
:1021F000314C411193962500AA852D4506C697209E
:102200000020E78040C4B240014541018280411175
:1022100026C29394250022C44AC02A843289A68605
:10222000AA850146254506C697200020E780A0C163
:10223000A6864A86A285294597200020E780A0C06F
:10224000B240224492440249014541018280011179
:1022500022CC06CE3714004026CA4AC84EC652C405
:1022600083447405034AB4058349840503499405EE
:10227000EFF08FE88347A40593F4F40F137AFA0F75
:1022800093E71700230DF40493F9F90F1379F90F6D
:10229000B717004003C7A705058B6DFF03D5C7051A
:1022A000A38D4705238C3705A38C2705A38B9704A3
:1022B000F2406244D2444249B249224A05618280D6
:1022C00041119397050122C406C6C1872E8463DAA3
:1022D0000700EF30816119C1EF30815A2165218DEE
:1022E0001DA093F7150013C5150091EF93F7250076
:1022F00099CF693D1306000A894503C5C182EF30B5
:10230000912C13452400B2402244410182809397CE
:10231000250163D00702EF50013F753537F6020003
:10232000130606E0896503C5C182EF30D12909652E
:102330007DB7939715010145E3D707FC17A5010069
:10234000130505C9EF80F11C13060064916503C5F0
:10235000C182EF305127116559B71D71494697A5C4
:102360000100938565C217B50100130525B786CE18
:10237000A2CCEF30110C01E917A50100130505C22D
:10238000EF80311901A037F700E0F9575CC7FD571E
:102390001CCB0564B7E700E023A0871093067010FC
:1023A00014C3B843C146B4C323A08718B8C30100FF
:1023B00001001306C00381454808EF3071069737C6
:1023C00000209387A7783ECAA167938707E03ECE97
:1023D00097070000938727E2BEC497070000938702
:1023E00047E3BEC6B5472308F1029707000093876D
:1023F00067C83EDA970700009387A7E53EDE970798
:102400000000938787DCBEC0ED47A301F102B70748
:10241000142D9387A7103ED2B7F5070085472304F4
:10242000F1028146970700009387C7117000E1050C
:1024300019453EDC231C810097200020E780A0A0E6
:1024400058088147994670003E9603460600850766
:102450000507A30AC700E398D7FED24791C70357E1
:10246000810185676373F70001A04808EF30113AD6
:10247000AA8501C917A50100130585B3EF80217551
:1024800001A0F640664425618280411117050000D5
:10249000130545E306C622C4EF30D1331384C1824D
:1024A0002300A4003D280D2A41390345040022449D
:1024B000B24037F60200130606E0896541016F302D
:1024C0009110B7170040130770052380E704130726
:1024D00080FA2380E704C8DB23A801822380070455
:1024E0008280411106C622C493067005371400404D
:1024F0002300D404130780FA2300E4048347F40282
:1025000093F7A70FA307F4022300D4042300E404E5
:102510008347F40293E72700A307F4026D31130504
:10252000407E2300040481470147814605468545D6
:10253000EFF0DF8D2244B240014541016F30D153AD
:10254000011122CC2A84680006CE26CAD53CCD3A99
:10255000B307A4406376A400B707C0A8A297898FE9
:102560003737E2A181170117637AF7003245FD344E
:102570000945F2406244D244056182802285913748
:102580003245E93C373700408347574093F707040B
:10259000B1C3938401839C400D45E1FF69459710C9
:1025A0000020E78020469C408DC31305D402B70766
:1025B000C0A863F7A700370540571305D502229539
:1025C000093797100020E78040340545EFF04FB5FC
:1025D000014545B701004DBFB71700401306700510
:1025E0002380C704930680FA2380D70403C7E7003B
:1025F000136787002387E7002380C7042380D7045D
:1026000003C7170313670702A388E70223800704A1
:1026100037070010B7E700E023A0E71082804111E0
:1026200097A501009385C59F17A501001305C5B2A5
:1026300006C6EF80C15917A501001305E5B2EF806A
:102640000159B240294541016F80615C411197A554
:1026500001009385259E17A501001305E5AF06C669
:10266000EF80E15617A501001305C5ADEF80215697
:10267000B240294541016F808159411197A5010060
:102680009385859C17A50100130505AD06C6EF804F
:102690000154B240294541016F806157411122C464
:1026A00017A50100130545AB2E8497A5010093855E
:1026B000659A06C6EF80A1512945EF8041550DC4AA
:1026C00097A501009385059917A501001305C5A8D5
:1026D000EF80E14FA28517A501001305E5BCEF804F
:1026E000014F2945EF80A1522244B240056603C53F
:1026F0004183130606C8854541016F30C16C79716D
:1027000022D426D24AD02E842A89B28481457146A9
:10271000480006D6EFF0EF81973700209387C783F4
:10272000DC4783D70700231421012313F100EF00B6
:1027300090458547A305F100930700192305A100E3
:102740003EC62686FD57A2854800230AF100EF0009
:10275000F045B25022549254025945618280411191
:1027600022C406C6834705002A849DC397A501009D
:102770009385C59217A501001305059EEF8021459D
:102780004C4017A501001305A5B8EF80414471A87E
:102790005841B707CF009387777D631AF71A97A53B
:1027A00001009385A58F17A501001305E59AEF8019
:1027B00001421C448356E4008355C40003C607004D
:1027C00017A50100130545B6EF8061402945EF804C
:1027D00001440356C4000C441385810D972000204A
:1027E000E78000CD83C7810D1307200A638AE700C5
:1027F0001307300A6380E712B2402244410182800D
:102800000357C4008D4797A501009385258917A517
:102810000100130565946300F702EF80413B17A5A3
:102820000100130565B2EF80813A2244B240294588
:1028300041016F80C13DEF80813917A5010013056B
:1028400025B2EF80C1382945EF80613C0355E40093
:10285000930720F805469385810D238CF10C4535AF
:102860009377F50F2A8495C797A501009385058373
:1028700017A501001305458EEF8061359375F40FA0
:1028800017A50100130585B1EF8061342945EF805C
:10289000013897A501009385658017A501001305F0
:1028A000A58BEF80C13217A50100130565B0EF803D
:1028B00001322945EF80A1354165930730FA05467D
:1028C0009385810D7D15238CF10C153D9377F50FC4
:1028D0002A8495C7979501009385457C17A501002B
:1028E00013058587EF80A12E9375F40F17A50100BE
:1028F0001305C5AAEF80A12D2945EF80413105665A
:10290000130606C891452244B24003C541834101E4
:102910006F30614B0357C40085476301F7029795F9
:1029200001009385A57717A501001305E582EF80C7
:10293000012A17A501001305E5AAF5B58357E400A0
:102940000566130606C8239FF182A1456DBFB70730
:10295000CC009387777D631AF702979501009385E2
:10296000E573179501001305257FEF8041261C4470
:102970008356E4008355C40003C6070017A5010071
:102980001305859AEF80A1244DB5B707CE00938734
:10299000777DE303F7E697950100938525701795FA
:1029A00001001305657BEF8081224C4017A50100D3
:1029B000130505A5D9BB011122CC9795010093857C
:1029C000E56F2A84179501001305057906CEEF807F
:1029D0000120A28517A50100130585BFEF80211FE7
:1029E0002945EF80C122938781819843DC432146AA
:1029F0002C0005453AC43EC6193315C52A8497955F
:102A000001009385A56B179501001305E574EF8010
:102A1000011CA28517A5010013050588EF80211B65
:102A20002945EF80C11EF240624405618280411158
:102A300022C406C6834705002A8485CB97950100EA
:102A40009385C5631795010013050571EF80211863
:102A50004C40179501001305E57CEF804117224497
:102A6000B240294541016F80811A58411DEF979569
:102A700001009385A560179501001305E56DEF80B2
:102A80000115179501001305657BEF804114294559
:102A9000EF80E1172244B240116603C5418313065B
:102AA00006E8914541016F300132A1679386D70353
:102AB0006311D702979501009385455C1795010036
:102AC00013058569EF80A11017950100130505789E
:102AD0006DBFED07979501009385455A1795010045
:102AE000130585676315F702EF80610E17950100E6
:102AF00013050577EF80A10D2945EF804111224490
:102B0000B24003C54183914541016F30C134EF802C
:102B1000010C4C4017A501001305858E3DBF4111E6
:102B200006C6EF90502B19E5EF101037B240410167
:102B30006F20E074B24041018280411197950100FD
:102B400093850553179501001305056106C6EF80AF
:102B500001082945EF80A10BB2404101C9B74111DD
:102B600006C622C485476398F502979501009385B0
:102B70002552179501001305255EEF804105179535
:102B8000010013052573EF8081042244B2402945DA
:102B900041016F80C1072E84894797950100938575
:102BA000254F179501001305255B6319F400EF808D
:102BB0000102179501001305A571F1B7EF802101FE
:102BC000A2851795010013056572EF80410075BF5E
:102BD000011122CC2EC62A84979501009385454881
:102BE000179501001305455706CEEF70517E32460A
:102BF000A2851795010013056570EF70517D294579
:102C0000EF80E10083C7018481EF9727002093873D
:102C1000A734DC4703D70700C167FD17631DF70022
:102C20006244F240116603C54183130606E89145EC
:102C300005616F304119F2406244056182804111A3
:102C400022C406C693F725002E8499CF0566130685
:102C50000696894503C54183EF30E11613452400EC
:102C6000B24022444101828093F71500A1CF9727FB
:102C700000209387672EDC4703D50700EF00A12DC6
:102C800015C90545EF80D05F979501009385C54430
:102C9000179501001305454CEF70717317950100EE
:102CA00013054533EF70B1722945EF705176134526
:102CB00014007DB713060064854503C54183EF30DA
:102CC0008110F5B793F745008DCB9795010093855B
:102CD000A5401795010013052548EF70516F179512
:102CE000010013056530EF70916E2945EF70317268
:102CF000EF10107D13454400A5B793F785000145FB
:102D0000A5D3854503D5E183EFE0B0559795010044
:102D10009385853C1795010013050544EF70316BD1
:102D2000179501001305852DEF70716A2945EF7025
:102D3000116E134584002DB701113546979501009A
:102D40009385C54317A501001305859506CE22CCB2
:102D5000EF20316E01E91795010013052524EF706E
:102D6000517B01A0972700209387C7543EC48567F5
:102D700093870780970500009385A5DE17950000CF
:102D8000130565E93EC6EF80B067B7F507008146D9
:102D900013868183E105194597100020E780A00A7A
:102DA0001946938581831385810F97100020E78052
:102DB00020703400138681839795010093854567C1
:102DC0001795010013054568EF10303B2A840DC9A3
:102DD000979501009385452F179501001305C53779
:102DE000EF70F15EA285179501001305253AEF708B
:102DF000115E2945EF70B161F24062440561828045
:102E0000EF707032179501001305452EEF007058D2
:102E1000EF40303EEFE0B06D17250020130585111F
:102E2000EFE0905A179501001305452DEFE0F06D86
:102E30002A84EF100032EFA01013EF10210AEF20C8
:102E4000804BEF10900CEFC0F06F979501009385C9
:102E5000A527179501001305253009C8EF703157D4
:102E6000A285179501001305A53451B7EF703156AF
:102E70001795010013050536EF7071552945EF7060
:102E80001159EFC0905285472380F184EF90A074D0
:102E900031C99795010093852523179501001305E6
:102EA000A52BEF70D1521795010013052534EF7053
:102EB00011522945EF70B155854503C54183EF2077
:102EC000F15D979501009385252017950100130565
:102ED000A528EF70D14F1795010013056533EF70EA
:102EE000114F01BF2D39F1BF411117050000130526
:102EF00045D506C622C4EF30E10D1384418323007B
:102F0000A4001725002013052505EF0050012D35DD
:102F1000EFF08FA217050000130525AAEFF0EFA52B
:102F2000034504002244B240130600648945410170
:102F30006F2071690111354697950100938505242D
:102F4000179501001305C57506CEEF20914E01E9D6
:102F5000179501001305454CEF70B15B01A0EF50D0
:102F6000D1192AC6EF108139EF10C118EF60706BCC
:102F7000F24032450561828041111305800406C686
:102F800097100020E780E0C3371700408327870AA7
:102F90008D451305002093E707202324F70AEFE06F
:102FA000BFFBEFF04F9617A50100130525F3EF7057
:102FB0005156179501001305A56EEF709155EFF06E
:102FC000CFB9EFF08FCCBD37053797100020E780E1
:102FD00020DB014582804111B2862E86AA852D45CF
:102FE00006C697100020E78000E6B2400145410187
:102FF0008280AE860146AA8525451713002067000A
:1030000083E49307000463E6C7021D71A2CC2A84FF
:10301000080886CE32C6EF703130B2461008A2855D
:10302000294597100020E78000E2F64066442561BC
:103030008280395582809387418418429C4383D68D
:1030400045000345070083C5C70003564600639645
:10305000A50083D5E700638DD502011106CE238636
:10306000A7002397D700B705CF00DC4B9385757D6C
:1030700005077D162EC2230001003AC42316C100A5
:103080002317D10099C30A858297F2400561828097
:1030900082806D713C083EC6B707E500232291107F
:1030A0003EC8AA843C083285232611103ECA232438
:1030B0008110232021112E89EF2080432A849795A7
:1030C00001009385A53D179501001305E508EF70F4
:1030D0001130A285179501001305454CEF70312F73
:1030E0002945EF70D132B705CB009385757D680017
:1030F000EF00D023A2856800EF20203501478146EC
:103100007000CA852685EF00B04215C52A849795C0
:1031100001009385A538179501001305E503EF70AD
:10312000112BA2851795010013050548EF70312A70
:103130002945EF70D12D8320C110032481108324F1
:103140004110032901105161828093874184184204
:103150009C43797122D406D60348070083C807012F
:103160002A8483D64500035546006396080183D818
:103170002701638DD8022388070105072399D7000B
:103180003708CC00DC4B1308787D3ACC1307F5FFE9
:1031900042CA23080100231EE100231FD10099C762
:1031A000080832C62EC482973246A2452285D535FC
:1031B000B2502254456182806D713C083EC0B70711
:1031C000E5003EC23C083EC4232611102324811092
:1031D0002322911023170100231801002319010055
:1031E000231A0100231B01009727002083D7C7DA89
:1031F00099E3C167FD172316F1009727002083D7B5
:10320000C7D981EB938741849C439C43DC4783D798
:10321000070017240020130424D8584C2317F1006A
:1032200083574400484B2318F10005ED97950100A2
:103230009385C52D17950100130505F2EF7031191F
:10324000179501001305C52DEF7071182945EF7012
:10325000111C8320C110032481108324411051616B
:1032600082809727002083C797D399E7EF20416199
:103270005C4C23AA0700F1BFFD1797260020A3800E
:10328000F6D203560701834704014C470A85230BF6
:10329000F100EF20A019938741849C4301478146A8
:1032A00088430A866C00EF00B028AA8405C9979568
:1032B00001009385A525179501001305E5E9EF7039
:1032C0001111A6851795010013054526EF703110E1
:1032D0002945EF70D1135C4CC84B49BF972700209C
:1032E00083C7F7CBEDDB1044854503C58184EF2010
:1032F000912D85B7DC4DDC4B99C7904503C5818482
:1033000091456F20512C82805C4EDC4BA1C7B9C126
:10331000411122C417950100130505E42E849795E9
:1033200001009385E51C06C6EF70710AA28517950A
:1033300001001305E521EF7091092945EF70310D6A
:103340002244B24003C581841306400691454101E1
:103350006F2071278280411122C41724002013049A
:10336000A4C11C4C06C689C7DC4399C34C4882974C
:103370005C4CC84BEF20C1505C4CB240224423AAA5
:103380000700410182801387E1808347070093068D
:10339000F00B850793F7F70F63E7F6002387F180BB
:1033A000034507008280930700F8CDBF835745008F
:1033B000638D070C01114AC8172900201309C9BDE4
:1033C00052C4032AC90106CE22CC03274A0126CAC9
:1033D0004EC6F15729EB1307D00DFD576365C7049F
:1033E0002A841305860042054181B284AE89EF200C
:1033F000E14B232AAA000325C9015C4995EF979563
:1034000001009385E50C179501001305E5D4EF70D5
:10341000017C179501001305E51BEF70417B2945E1
:10342000EF70E17EDD57F2406244D2444249B24936
:10343000224A3E850561828093874400B705CF000C
:103440002319F5009385757D3105EF00206E032566
:10345000C901834564003105EF10307F0325C901A0
:103460002686CE853105EF10707C7146A2854A858F
:10347000EF70816A504401CA854503C58184EF20FD
:10348000911481474DB70D3BEDBFFD573E858280BE
:10349000411122C417240020130404B05C4C06C65A
:1034A000C84BEF20E13D5C4C2244B24023AA070008
:1034B00003C58184854541016F20F119411126C260
:1034C000938441849C4006C622C4BDCFDC43ADCF6B
:1034D0005CC12300B5002A8497950100938585FA85
:1034E00017950100130545C7EF70616E2945EF7010
:1034F00001729C4023A4070023A207009727002005
:10350000938787A7DC4FDC4B99C32955A9359727AB
:103510000020938767A8DC4FDC4B91C3953F89451A
:1035200003C58184EF203113914503C58184EF20C9
:1035300091129C4003A347016308030022852244A3
:10354000B240924441010283B2402244924441017C
:1035500082800111328506CE22CC26CA2E84EF103D
:103560003079AA8497950100938505F51795010098
:10357000130585BEEF70A165030784000356640040
:1035800083554400A68617950100130565FEEF706C
:1035900001642945EF70A1679727002083C7279E04
:1035A000639797000145453B81450A85013FF240FD
:1035B0006244D244056182806D71232481102326E8
:1035C00011102322911093F745002E84638F07106A
:1035D0003C083EC0B707E5003EC23C083EC4231786
:1035E00001002318010023190100231A0100231BE5
:1035F00001009727002083D7279899E3C167FD171B
:103600002316F1009727002083D7279781EB938714
:1036100041849C439C43DC4783D707001727002045
:10362000130787952317F100544F8357470023183A
:10363000F100DC4A95EF97950100938525EC1795ED
:103640000100130565B1EF7081581795010013054E
:1036500025EDEF70C1572945EF70615B13454400BC
:103660008320C11003248110832441105161828082
:103670009727002083C7B7902555B5C7FD17172694
:103680000020A30EF68E03D6060183470701CC4621
:103690000A85230BF100EF107059938741849C43F6
:1036A000172700201307478D97A60100938606A6CB
:1036B00088430A866C00AD2DAA844DD197950100F0
:1036C0009385C5E317950100130505A9EF702150F7
:1036D000A68517950100130565E5EF70414F294553
:1036E000EF70E1522685853995BF93F7250099CF74
:1036F000414681452808EF20A1522555A9392808BF
:103700009305F00F653B1345240099BF93F715000F
:103710000145B9D7EFF05FAA1345140091B75C4D8E
:10372000411106C688C317050000130525E923A229
:10373000F184EF20310AB2402384A1840145410184
:103740008280EFD27FFA2A8408452E89B28909C97E
:1037500000C1970500009385C5736105EF00F10A6C
:1037600081447D5AEF10A00363C3A4048144EF1089
:10377000000463C6A404973700209387A7409C43A6
:10378000DC47B307F94091872302F4006381090401
:103790008327C900B307F4409587A302F4001C4CAB
:1037A00089C79C4799C3228582976FD03FF75C44B5
:1037B000139714008504BA972390470165B71C48F6
:1037C000139714008504BA97239007004DB78327F9
:1037D00089000547B307F4409587A302F400835797
:1037E0000400638EE7028DC309476384E7040D4735
:1037F000E397E7FA97970100938747391CCC97978F
:1038000001009387A73911A897970100938787FF35
:103810001CCC979701009387E7FF5CC849B797973F
:103820000100938727EB1CCC97970100938787EBC8
:10383000EDB7979701009387273A1CCC9797010023
:103840009387873AD9BF85E1EFD2BFEB0046184492
:103850008347940075839D8B6315F700EF009019E3
:1038600048C46FD05FEC8280EFD21FE81389350027
:10387000C16442094111AA890144F1141359090193
:10388000054A2EC6EF00B071B2456346A40001455B
:1038900041016FD0BFE883A7090013171400BA973E
:1038A00083D707006388B7006394970063742A0185
:1038B0000504C1BF0545E9BFEFD23FE2AA892E89C1
:1038C000328BB6843A8ABE8AEF80F0504DC126858D
:1038D000EF10B0318D4763E5A7007D556FD07FE3D2
:1038E00083DB4400EF00B0712A84EF0090729307ED
:1038F000740031443305850263C5A702EF003070C0
:10390000EF00F06F2A84EF00D07093077400314409
:103910003305850263CDA702EF00706E9307450063
:1039200019A8EF00106F330585021307F0179307EE
:10393000C017E357A7FC2D55E3C277FB63000B02CA
:10394000D6865286A6854A85EFF0806F41BFEF008C
:10395000506C330585029307C5FFF1BF83274900EB
:103960001385C90083D52700013779F9BDB769559B
:10397000B5B7973700202399A72097370020938762
:103980006720904381470C463307F5004207418387
:103990006393B70082805446139847008507C29608
:1039A0002390E600D5B7973700209387A71D9C4347
:1039B00003C587008280173500200355E51C8280EF
:1039C000EFD23FD4C1671387D7FF6307E50263686F
:1039D000A700F117630EF50001456FD0DFD4138700
:1039E000E7FF630EE500FD171D8D13351500F5B7D4
:1039F000EF40A0387D15D5BFEF402016E5BFEF4062
:103A00008014CDBFEFD2FFCF4111AA8401442EC64E
:103A1000EF00F059B2456346A400014541016FD063
:103A20009FD09C48131514003E9583570500E387EB
:103A3000B7FE0504E9BF03485500814693F7F60F2A
:103A400063E5070181473E8582805845939756007C
:103A5000BA9703D727006316B70003D70700E3041C
:103A6000C7FE8506E1BF8346450001479377F70F00
:103A700063E4D700814711A81C45131657000507BA
:103A8000B29703D60700E313B6FE3E858280EFD2DD
:103A9000BFC593170501C187973A0020938A8A0E04
:103AA0006353F00883A70A00C0479C4703570400EC
:103AB000198D420541816366F500014422856FD06E
:103AC000FFC512052A94DDBFDC4713944900014A63
:103AD0003E94834744006341FA02014A83475400FD
:103AE0006346FA028509C20993D9090183A70A002E
:103AF0009847E3EBE9FCD1B71C4413195A00A6859B
:103B00003E994A85013709ED050AE1B75C4413196E
:103B10005A00A6853E994A85F53519E1050A7DBF0B
:103B2000E30209FC61BFAA848149C9B7EFD27FBD16
:103B30001C452A8481E79307C5001CC51C44231239
:103B400004001CC09307F00F63E9B70093F5F50F6D
:103B50002285EF10900F6FD01FBD93940501C167B0
:103B6000C18063F7F500A6852285EF10B011E5B797
:103B7000C18193F5F50F2285EF10300DA6852285C2
:103B8000EF10F00DC9BF973700209387A7FF884338
:103B900082801C4599C79737002023A5A7FE0145C1
:103BA00082807D558280973700209387A7FD9843B8
:103BB00083474500484792073E958280EFD27FB405
:103BC000617100451C183EC6B70780013EC81C182D
:103BD0003ECA8357440002CE02D002CC231EF1001D
:103BE000834784002A8902D22301F1023C083ED493
:103BF00002D6553F835705002316F102EF30706758
:103C00002307A1025C4003556400F18313F71700FA
:103C10008347F10252055181F99BD98FA307F10225
:103C2000EFF0603339C5AA8403550500EF80901B7F
:103C300083D704002AD26800231CF10083D7240014
:103C4000231DF1001C4803D647008C43EF10007E73
:103C50008347B400CA8617960100130626A1811770
:103C6000A305F4006C004810EFF0803D5D616FD05B
:103C70009FAB2155E5BF1C45B1CF03C5A7008946C1
:103C800013576500630BD7028D46630ED702854636
:103C90006300D702130740063305E50203C7B700E8
:103CA000418B15CB83C7B700BD8B3355F540828060
:103CB0001375F5031307803EC5B709671375F50340
:103CC00013070771D1BF372709001375F5031307D1
:103CD000077CD9B701458280EFD2BFA203A9850036
:103CE000630409048347B900AE8493F7070E91CFAC
:103CF00003459900930520030D810505B305B50221
:103D000088446105EF00413C05A02E85AD372A842B
:103D100001CDCD218325C900B307B54063F88700E5
:103D20002E94B305A440E9FD6FD0FF9F8545C9BF20
:103D3000EFD23F9D2A8403D50500011132C636C457
:103D40003AC22EC002CA02CC02CEEF80B009824530
:103D50002ACA22852ECC813D03570500231EE1008F
:103D6000EF303051A24632469247230FA1003687EA
:103D70004C08B28622850146EFF01FB405616FD072
:103D80009F9AEFD21F9861711C183EC6B707800139
:103D90003EC81C183ECA3C0800453ED4AA8402CC4A
:103DA00002CE02D002D202D6FD3B83570500355920
:103DB0002316F102EF30F04B2307A10209C4835709
:103DC000440091E721594A855D616FD0DF95035525
:103DD000640052055181EFF000182A8965D58347A8
:103DE000B40093F7070E89C713058401EF00412F34
:103DF00083574400231EF100834784002301F1020E
:103E00005C4003550900D98313F707088347110263
:103E1000231CA10093F7F707D98FA300F102835762
:103E20002900231DF1005C40F18313F7170083473D
:103E3000F102F99BD98FA307F102EF80A07A2AD271
:103E400051D1834794006800139757008347B4000B
:103E5000FD8BD98FA305F4001C4803D647008C4383
:103E6000EF10C05CA6871797010013072780740026
:103E700005464C102685EFF03FA42A8929D58347B3
:103E8000B400A685FD8BA305F400B9352DBFEFD294
:103E90005F87832485FE2A8441112685E93B834779
:103EA00034FF93F7070E9DC32AC62685EFF01FD176
:103EB00019C9834734FFB245FD8BA309F4FE81C5C0
:103EC0002285EF00612041016FD0FF856DDD8327E2
:103ED000C4FF2685829765F9834734FF93F7070E61
:103EE00081C72285EF00C11F032584FE593DE1BF34
:103EF000EFD22FFE9C4141112A8903C70700894751
:103F00002E8493566700638CF6020D466382C604C6
:103F10009307F0076302F7022E85EF10605DAA8415
:103F20008149C16B130C490097370020938787C5DF
:103F30009C43984763ECE90241016FD04FFD03D7E2
:103F400045008547E3FAE7FE2E85EF10405EC1BFCE
:103F500003D74500E3F2E7FE2E85EF106059AA84EF
:103F60002285EF10405AC204C98C5DBFDC4703555F
:103F7000A900139A49003E9A93170501C187635D12
:103F8000F00083570A006395A70263E57403832753
:103F9000CA00034D5A001DA0A1672167A98F13070E
:103FA000F7EFE374F7FE63950900EFF07FA171FD71
:103FB00085099DBF83278A00034D4A00835DA900C0
:103FC00003576900216A138BC7003AC6814A33CA76
:103FD0004D01631E5D0197370020938727BB9C43EB
:103FE000E1DBA2866286814526858297D1B7A167EB
:103FF0009387F7EF930C4BFF63F04703B2455A8565
:10400000EFF09F8619CD03278B00104719CA104384
:104010006380C4023107D5BFEE856685EFF09F9EB1
:1040200071FD93861A0093FAF60F130B0B0255B726
:10403000835644005C43E3EDF6F622853AC6EF1062
:10404000203AA1679387D7042A8A035D4400324748
:1040500063E897008347D90093E707F8A306F900C0
:104060001C4766852286E2858297C1670844FD1752
:10407000337AFA00529508C02312A40115BF97376E
:104080000020938727B09843814715C31447814781
:1040900063FFD500939745004C47BE9519C903C7E8
:1040A000550081476375E600DC451606B2973E85EC
:1040B000828003C745008147E37BE6FE16069C45E8
:1040C000F5B7EFD26FE2AA892E8A8144973A002091
:1040D000938A4AAB83A70A00984763E4E4006FD051
:1040E000EFE3DC471394440001493E9413BB1400F2
:1040F00083474400634BF900014913BB1400834715
:104100005400634FF9008504F1B708449317590030
:104110005287DA860146A2853E9582990509C9BF74
:104120004844931759005287DA860546A2853E9582
:1041300082990509E9B7EFD2CFDC814517F5FFFF7A
:104140001305656097370020239007A49D3F6FD02B
:104150008FDD973700209387E7A29C4399CBEFD25E
:104160004FDA814517F5FFFF1305E55D993F6FD0E5
:104170008FDB8280EFD24FD741112315E1002E89CA
:10418000B284B6893A8681460147ED452A84EF20FC
:1041900001442AC61DCD0356A100CE85EF60D1177C
:1041A000CA852285EF20A156058915C122850146C1
:1041B0002C0023149100EF20416C2A8409C5ED45A1
:1041C0002800EF20414F228541016FD02FD549446F
:1041D000FDB76554CDBF5C41FD175CC18280EFD255
:1041E0004FD2EF10F12A95473305F50281450D8135
:1041F0006FD06FD3EFD2EFD0EF10912995473305F1
:10420000F5020D816FD02FD2EFD2AFCF035505004D
:10421000EF2021186FD02FD1EFD2AFCE035505007C
:104220003287AE86171600200356E6DD973500204C
:104230009385059681376FD00FCFEFD28FCCEF509B
:10424000310F6FD04FCEEFD2CFCB97350020938573
:104250002594EF20616901456FD0EFCCEFD26FCA92
:10426000814517150020035505D6EF2061546FD006
:104270008FCBEFD20FC99735002093856592EF2041
:10428000A16601456FD02FCAEFD2AFC78145171580
:104290000020035545D9EF20A1516FD0CFC8EFD2F0
:1042A0004FC62E85EF608067EF6080706FD0AFC71C
:1042B000EFD22FC5EF6040786FD0EFC65C49E117B1
:1042C0005CC95CC583572501A1072319F5008357F5
:1042D0000501A1072318F5008280F1473305F50297
:1042E000973700209387C78D9C433E9582808D47EA
:1042F0006317F60603D74600854763F2E706EFD259
:104300004FC0368536842E89EF10801E39C1835701
:10431000440093140501C18063ED97022285EF10DC
:10432000201DFD14231294009307A002630EF500D4
:104330009307B0026301F50293079002631BF50037
:104340002285EFD0901031A00146CA852285EF80EA
:1043500030196FD04FBD2285EF00705ADDBF8280CB
:1043600097360020938606869C42014599CF984354
:10437000D442173600202327E6846396D700973669
:10438000002023A3E6841385C7FE8280EFD26FB797
:104390007D2E7144330585029145EF70906C01E5E7
:1043A00065556FD04FB89737002023A9A7804526C1
:1043B000330585029145EF70D06A7DD19737002093
:1043C00023A0A7806926972700202393A77E412654
:1043D00097270020239FA77C978701009387472E6C
:1043E00017270020232AF77C97070000938747EDC3
:1043F000172700202320F77C014565B7EFD26FB067
:10440000AA85172500201305A57AEF1040226FD04A
:104410008FB1EFD20FAFDD37EF10E02297270020EA
:104420009387477A9C4381CF1387C7FE09CB83D5F7
:10443000C7FF1725002013056579EFF0F0486FD00E
:104440008FAEEFD20FAC293F11C9834785002A8474
:1044500093F7070491E70355E500653F6FD0AFACD4
:104460008347C50093044501172900201309897566
:1044700085E3832709005CC99727002023A497744C
:1044800083274900E1FF9727002023AF9772F9B7F0
:10449000FD172306F5006105EF60805F8307840048
:1044A00063C907048347840093E707F82304F400F3
:1044B000EF10415A4205A94741813375F502834700
:1044C000840093F707FCC98F2304F4008347D400CA
:1044D0003E951C402318A40089CF984319CB8347ED
:1044E000C4005040814585073305F50242054181EE
:1044F0000297832709005CC89727002023A4976CA4
:104500008327490089E79727002023AF976A8347CD
:10451000C400A9D783550401172500201305056B96
:10452000EFF0903A25BFEFD2CF9D972700209387D9
:10453000677E9C4701448583858B81EFAE84B2857D
:104540003A86EF10A0152A8409C5EF10A00C8294BA
:1045500008CC22856FD02F9DEFD20F9941112E8963
:1045600032C6AA89692C324713060502CA86970506
:1045700000009385C5D617250020130565636537B0
:104580002A8429CD9304C500DD261946AA852685EF
:10459000EF00D06985452685EF00B06617850100DC
:1045A0001305C50F4E95834505002685EF00F0697C
:1045B0005C4831468145A1075CC85CC4835724012F
:1045C000E1172319F40083570401E1172318F400BD
:1045D0001C4C3E85EFD0EF95A304250122854101B7
:1045E0006FD0CF93EFD2EF914111AA842EC632C47F
:1045F000EF10A004004DB2452246834784000CC052
:1046000050C093F7F70393E707042304F40023183B
:1046100004002685EF10000083479400A946231765
:10462000A40013D7370005073307D7029D8B8507F2
:104630002306F400A306E40083C70401D8488507D5
:10464000230FF7FE172700201307C7575843232AC5
:104650000400930744011DEB172700202326F7567B
:10466000172700202320F756172400201304045690
:104670002285EFF0301B1C44858B5D8D09E581455B
:104680002285EFF0702441016FD0EF891CC31727FA
:104690000020232BF752C9BFEFD2AF869705000049
:1046A000938525C50145EFF09FBF01456FD0AF87CA
:1046B000EFD22F85EFF0DFBF6FD0EF868347C500C5
:1046C000A1E7EFD20F842A840355E500EFF01FD352
:1046D00015C98347840093F7F7FB2304F4001C40BB
:1046E00091C7DC4381C74C4001458297EFF05FC71B
:1046F000172500201305854DEFF0901E0355E400AB
:10470000EFF03FD16FD02F828280EFC29FFF9727BB
:1047100000209387274B970500009385C5D2172566
:1047200000201305A54A23A0070023A20700EFF0ED
:10473000D00D6FC05FFF1C4D91CBDC4381CBEFC22E
:104740005FFC8345070082976FC0FFFD828097273B
:1047500000209387E7499C4303C507008280972781
:1047600000209387E7489C4303C517008280972762
:1047700000209387E7479C4303C527008280972743
:1047800000209387E7469C4303C547008280972714
:1047900000209387E7459C4303C537008280972715
:1047A00000209387E7449C4303C5570082809727E6
:1047B00000209387E7439C4303C5670082809727C7
:1047C00000209387E7429C4303C5770082809727A8
:1047D00000209387E7419C4303C587008280972789
:1047E00000209387E7409C4303C59700828097276A
:1047F00000209387E73F9C4303C5A700828097274B
:1048000000209387E73E9C4303C5B70011E11D4597
:104810008280972700209387A73D9C4303C5C7004C
:104820008280972700209387A73C9C4303C5D7002D
:104830008280972700209387A73B9C4303C5E7000E
:104840008280972700209387A73A9C4303D50701CE
:104850008280972700209387A7399C4303C52701AF
:104860008280972700209387A7389C4303D5470170
:104870008280972700209387A7379C4303D5670141
:104880008280972700209387A7369C4303D5870112
:104890008280972700209387A7359C4303C5A701F3
:1048A0008280972700209387A7349C4303C5B701D4
:1048B0008280972700209387A7339C4303C5C701B5
:1048C0008280972700209387A7329C4303C5D70196
:1048D0008280972700209387A7319C4303C5070256
:1048E0008280972700209387A7309C4303C5170237
:1048F0008280972700209387A72F9C4303C5270218
:104900008280972700209387A72E9C43C8538280DC
:10491000972700209387C72D9C438857828097272D
:1049200000209387E72C9C4303D5C70282809727FA
:1049300000209387E72B9C4303D5E70219E1130579
:10494000800C8280972700209387872A9C4303C589
:104950000703828097270020938787299C43C85BA1
:104960008280972700209387272888438280972773
:1049700000209387A7278843828019E17D55828094
:10498000F5DE984265DFFDD9172700201307873829
:104990001847AA877155058B6319072203C50700BD
:1049A0001547E37DA7FC03C737001305F0057D1706
:1049B0001377F70FE364E5FC03C35700E30003FC40
:1049C00083C86700E38C08FA03C777004945791765
:1049D0001377F70FE364E5FA03C7A700114813053F
:1049E000F7FF1375F50FE36BA8F803CE97000D489A
:1049F0001305FEFF1375F50FE362A8F803C8B700AF
:104A00006309080065181378F80F1305600DE36754
:104A100005F703C5C700794879151375F50FE36FDE
:104A2000A8F403C8D7000D457D181378F80FE36785
:104A300005F503D80701930E401751184208135883
:104A40000801E3ED0EF303C8E7007D181378F80FB3
:104A5000E36605F303C827017D181378F80FE36FA9
:104A600005F103C88700C54E75181378F80FE3E702
:104A70000EF103D86701856E938EBEE06D18420873
:104A800013580801E3EC0EEF03D847016D184208F4
:104A900013580801E3E40EEF03D8870179184208A0
:104AA00013580801E36C05ED03C8A7017D181378BE
:104AB000F80FE36505ED03C5B7011D487D151375B6
:104AC000F50FE36DA8EA03C5D70171487915137591
:104AD000F50FE365A8EA03D5E7011308E00F7D159C
:104AE00042054181E36CA8E803C5070249487915EE
:104AF0001375F50FE364A8E8C85301C937C834003B
:104B00005915130858BFE36BA8E603A8870237C5F9
:104B10003400130555BF5918E36205E71725002037
:104B20002326C50C03C60501172500202322F50CFA
:104B30000545E375C5E403D82501D049337606035E
:104B4000E31E06E203C61501E30A06E2172600206B
:104B5000232CB60883C5270001466387A50003C63A
:104B60001700F1453306B60283C707039305C00259
:104B700072971A071307C70516031A9796084697E0
:104B8000B387B70241553E97329742074183636E20
:104B9000E802EFC21FB73685EF70C076EFE06030F5
:104BA0002A84EF90602C2A94EFD040342A94EF703E
:104BB000500E2A94EFF08FFD2A94EF2010612A9472
:104BC000EF50A06122956FC01FB68280EFC27FB305
:104BD0004111A307A100EF80502D9305F1001705A7
:104BE0000000130585B5EFF0CFCD014541016FC041
:104BF0009FB3EFC29FAE172400201304A411032813
:104C000084007959936818009724002023A8141170
:104C100013781800631E0800BA84BE89368B328A66
:104C20002E89AA8AEFE03FD87D15269509E53159EE
:104C30004A856FC01FAEEFE01FD77D152695A1678F
:104C4000E357F5FE972700209387C74398433E8C90
:104C5000814B11C70145EFD0604D933B15004A854C
:104C6000DA865686D285EF80603D2A8911CD1C44B4
:104C7000F99B172700202323F70A83270C00CDDB9D
:104C8000E3880BFA82976DB726859727002023A526
:104C90000708EFE01FCE4146CE85172500201305FB
:104CA000E510EF507167EFB020170325040BEFB04C
:104CB00020190545EFB0201F0545EFF03FF18DBFEE
:104CC00097270020938707059C47858BD5C7EFC2A0
:104CD0005FA3172500201305A50B9727002023AB02
:104CE00007029727002023A907029727002023A760
:104CF0000702EFF0E03EEF30D07FEFF08016EFF0EC
:104D0000001B97270020938767FF9C4381C70545B9
:104D1000EF605055972700209387C7F89C4389C7B9
:104D200041657D15EF500067EFD02049EFB0A00F2F
:104D300097270020938707139C4313971701635409
:104D40000700EFC070549727002023A1070697277C
:104D5000002023AF07049727002023AD07049727DF
:104D6000002023AB0704EFF0BF949D23EFF0AFBC0E
:104D7000EFC050766FC03F9B8280EFC2FF962A84BF
:104D80009304140201112E85B289A685214636C6E8
:104D90003A89EF5011561DE1B24638082686CE8575
:104DA00013059404EF40804021462C084A85EF50BB
:104DB00051541335150005616FC05F960145E5BF7D
:104DC000EFC23F949305450617250020130585E2A1
:104DD000EFF0802F6FC03F95EFC2BF9241112EC6FA
:104DE000EFF04FC1B24588C141016FC0DF93EFC200
:104DF000BF8FAA842E84EF701001AA898545228571
:104E0000A92583C7E4011389940899E3138904034E
:104E1000CE8522851D2D214693051902228539252F
:104E200097270020938707EF8C432285EF00606867
:104E30002146938584022285D52B6FC03F8EEFC219
:104E4000DF893971EFC0705F9305400645EDEF7063
:104E50008078630E05109727002083C767DB13B7A0
:104E60001700972600202385E6DA014489CFC16424
:104E700017290020130909EA9309400EFD14EFF0E9
:104E80001F966348A408EFF0EFB64169B7290900FF
:104E9000096AFD7A2A8B81447D199389F97B130A6B
:104EA0000A71938A8AC7EFF09F9363D5A404130411
:104EB000400EB3878402172700201307A7E50324B9
:104EC000070B3E948357C4016386270918403307B4
:104ED000EB4063EAE900834744008507B387470353
:104EE000D6976369F706014681450945EFF0CFE69D
:104EF000AA8B29E1EF2090598547631FF504896546
:104F000093850571172500201305C5CEEFF0C01B52
:104F1000A1A8B30734030327090BBA9703D7C70126
:104F20006308970003C75700A38207002382E700A6
:104F30000504B1B79305C5002285EFF05FEB5E85F0
:104F40002286977501009385A576EFF0AFE95E851F
:104F5000EF00606F850481BF97270020938787DB70
:104F60009C478D83858BC1FF21616FC08FFA0146FD
:104F70008545094502D002D202D402D6EFF0CFDD3A
:104F8000AA847DD1EFC0B04A1389C4002A84814528
:104F90004A8565290C4041464A85492983294400B0
:104FA000638809084E8502D802DA02DC02DEEF507F
:104FB00011572ACE141005462C0808184ECCEF4085
:104FC00080161375F50F2DE58355840093E52500B4
:104FD0004A854D2911460C104A8589290146977545
:104FE00001009385656D2685EFF0CFDF2685EF0004
:104FF00080655C40B5DB014685450D45EFF0CFD5BA
:10500000AA843DD148401389C400EF5051512AC6AB
:105010004A85E12E3246636AC5004C404A853921F3
:10502000014681452685EFF0EFDB2685292D2DBF32
:105030008355840071BFEFC2CFEC97270020938780
:1050400067CD9C4719CD93E78700172500201305EE
:1050500065BA172700202323F7CCEFF080056FC037
:105060008FECDD9B17270020232AF7CAEF20104280
:105070007DF5172500201305E5B7EFF06006C5B7ED
:10508000EFC2AFE54169AA892E8AB28A368BBA8B04
:105090008144172C0020130CECC7930C400E7D1993
:1050A000EFF0EFF363C4A40001442DA03384940314
:1050B00083270C0B3E948357C401638027055A87CE
:1050C000D6865286CE8513050403EFF01FCB11C59B
:1050D00023800B0022856FC0CFE38347F40191CF7B
:1050E0005A87D6865286CE8513059408EFF0FFC8FE
:1050F00009C585472380FB00F1BF850455B7835759
:105100004500638D0716EFC22FDE01112A84CD26DC
:1051100019C58547630AF50405616FC02FE0EFC02C
:10512000D0317DF9835744004947ED9BE396E7FE74
:10513000C1452285612CAA842285D52E03574400BF
:1051400002CE91472A896317F700228519293C0866
:105150002ACC3ECEEFC0B02D5C55DDDF74084A8608
:10516000A685054582974DBF03574400D147E3F517
:10517000E7FA032A0400C1690149972A0020938AAB
:105180006AB9130B400EFD19EFF06FE56344A90CEB
:105190002285032A0400A92EA1452A8922853D24BF
:1051A000AA8422857D2E14402A86AA89780826851D
:1051B000CA85EFF0FFECAA8425D103C7F401894723
:1051C0006315F7008347C101A1DB5546D2851385DE
:1051D0006400EF5071140145EF70C04001C583D7E2
:1051E000C401B1EB972700209387C7B29C47935522
:1051F0001900858913D73700058B11CB8983858BDF
:105200006397B70001452EC6EFF0FFE2B2454E8529
:10521000EF7020450346C1012A8493751900268545
:10522000EF80803831C92685EF702040268511C077
:105230000145EF70806AEF2070258547E31EF5EC8D
:1052400083C754001307F00FE388E7EC8507A382B8
:10525000F400D9B5B304690383A70A0BBE9483D7BE
:10526000C401638937015546D28513856400EF5028
:10527000510871D1050909BF5DDC5DBF8280EFC2B5
:10528000AFC6EF70403511CDC1640144172900202D
:10529000130949A89309400EFD14EFF04FD4634A57
:1052A000A400172500201305E594EFE090606FC07F
:1052B000EFC6330534038327090B3E958357C50199
:1052C0006386970023120500EF7020360504F1B7BE
:1052D00097270020938707A49C478D83858B99EBA4
:1052E000EFC22FC2172500201305C590EFE0505FD5
:1052F0006FC06FC38280EFC2CFC097050000938557
:1053000045B4172500201305E58EEFE010506FC05F
:105310008FC183C7F5FF2E858507A38FF5FE828099
:1053200083C7F5FFFD1793F7F70FA38FF5FE89EB02
:10533000EFC22FBD1385F5FFEF0081546FC0AFBEE4
:105340008280EFC20FBC8841050542054181EF0014
:10535000E15509C585472300F50005056FC0AFBCC1
:105360001C41035745008D8FBA951CC12312B5000F
:105370003E85828093D78500A2051441DD8D835739
:1053800045001387E6FF18C189072312F50013D6DD
:1053900085004111238FB6FEA38FC6FE4101828096
:1053A00018419307F7FF1CC1835745008507231257
:1053B000F500A30FB7FE8280835745008D8F23121F
:1053C000F5001C41BE950CC12E858280AA8703D7AB
:1053D000470008410D8FAA952392E7008CC3828075
:1053E000184108453305A74082808357450003577D
:1053F00065001D8F1C4108453385A7403305A74034
:105400008280EFC20FB041112EC62A84EFF0FFFD5B
:10541000B2456373B50001A0835744000840BE95B0
:105420002312B4003E9541016FC0EFAFEFC26FADE4
:1054300041112E84B28532C6EFF0BFFC3246A28500
:10544000EF50816D41016FC00FAEEFC28FAB2E8464
:105450008545EFF01FFB230085006FC0CFACEFC286
:105460004FAA41112317B1008945EFF09FF98347F7
:10547000E1002300F5008347F100A300F50041019E
:105480006FC06FAAEFC2EFA793D78500A2054111A5
:10549000DD8D2317B1008945EFF0BFF68347E100AA
:1054A0002300F5008347F100A300F50041016FC020
:1054B0008FA7EFC20FA51397850193D78501C1660A
:1054C000938606F0D98F13D78500758FD98FA205E3
:1054D0003707FF00F98D4111DD8D2EC69145EFF0A4
:1054E0005FF26C001146EF50216341016FC0AFA322
:1054F000EFC22FA11C41854503C40700EFF0DFEB8D
:1055000022856FC04FA2EFC2CF9F1C414111894538
:1055100003C7070083C717002307E100A307F100B3
:10552000EFF09FE90355E10041016FC0CF9FEFC24B
:105530004F9D1C414111894503C7070083C71700D0
:105540002307E100A307F100EFF01FE78357E10015
:10555000410113D58700A2075D8D420541816FC0CF
:105560008F9CEFC20F9A0C4141112A8411466800AA
:10557000EF50815A91452285EFF01FE4B247C16692
:10558000938606F01397870113D58701598D13D79A
:105590008700758F598DA2073707FF00F98F5D8D42
:1055A00041016FC04F981C45BE950CC18280AE87EB
:1055B000944391E6584101EF0CC15CC1828003C75E
:1055C000570013671700A382E700B687D5B70CC34F
:1055D000EDB7AA87084119CD1841D44398C3631386
:1055E000D500D8C32A87034657009376160081E674
:1055F000232007008280944381CA8C4203A847007D
:105600008CC363930601CCC3799A14C3A302C70069
:105610003687D1BF1C45DC471D8DB777DBB6938736
:1056200077DB09853305F502420541818280F14728
:10563000B385F50248452E9582808347450085074E
:105640002302F5008280EFC2CF8B2A8419E06FC05D
:105650008F8D83474400E5DFFD1793F7F70F230293
:10566000F400F5F71C4403D7270005072391E70052
:10567000DC4399C3228582974C4889CD83475400E7
:10568000898B99E71C4422859C479C439C478297C1
:10569000232A04000040232004004DBFEFC26F8680
:1056A0008357250041112EC691E70144228541010F
:1056B0006FC06F87035705008147F146E307F7FE88
:1056C000B385D702404585072E948345440008C41E
:1056D000F5F5B247AA8481E7232A040009A81C45EE
:1056E0006C0022859C439C43829748C85DDD8547BA
:1056F0002312F400B24723200400231804002319C6
:10570000F4005C485CC483D72400FD172391F400A7
:1057100071BFEFB21FFF971700209387A74F8843F1
:1057200023260500232405004105EFE0701B6FB020
:105730009FFFEFB21FFD171400201304A44D1C405F
:10574000411189CF9C472300B5002AC65CC1EFF008
:105750005FFC1C40DC4399C33245829741016FB026
:105760009FFC034745001DEB584DAA877D550DCB87
:10577000EFB23FF91CC3DC479716002023ACE64884
:10578000F156130507012390D70097050000938574
:105790008501EFE0900701456FB0FFF87D558280ED
:1057A0008280EFB21FF60111614681452800EFB0FB
:1057B0005FF8971700209387E7459C4328009305DF
:1057C000F00FDC473EC6EFF0DFF605616FB0BFF5C6
:1057D00097170020938707449C43D847A167938776
:1057E000C7026312F70A397106DE22DC26DA80006E
:1057F0004AD84ED652D456D23285B284EFF05FCF1B
:10580000AA892685EFF03FD02318A4FC2685EFF067
:105810009FCF2319A4FC2685EFF0FFCE83D7440049
:105820000A8A231AA4FC858393F7F70F230EF4FC4E
:105830008607BD0793F7073F3301F1408A8A014984
:105840008347C4FD6365F902CE85130584FC232CD0
:1058500054FDEFF01FEE5281130104FCF25062542C
:10586000D2544259B259225A925A216182802685D5
:10587000EFF07FC993171900D69705092390A70069
:105880001379F90F75BF82809717002093878738A7
:105890009C43D847A1679387A7026310F70A397121
:1058A00006DE22DC26DA80004AD84ED652D456D202
:1058B0003285B284EFF0DFC3AA892685EFF0BFC43A
:1058C000FD572318A4FC26852319F4FCEFF0BFC371
:1058D00083D744000A8A231AA4FC858393F7F70F21
:1058E000230EF4FC8607BD0793F7073F3301F14011
:1058F0008A8A01498347C4FD6365F902CE85130591
:1059000084FC232C54FDEFF0DFE25281130104FCF0
:10591000F2506254D2544259B259225A925A2161D9
:1059200082802685EFF03FBE93171900D6970509B0
:105930002390A7001379F90F75BF82809717002075
:105940009387472D9C43D847A16789076318F708B9
:10595000397106DE22DC26DA80004AD84ED652D4CF
:1059600056D232853289EFF0BFB8AA894A85EFF066
:105970009FB9835749000A8A2318A4FC858393F7AB
:10598000F70F230CF4FC8607BD0793F7073F33019D
:10599000F1408A8A8144834784FD63E5F402CE8521
:1059A000130584FC232A54FDEFF0BFD85281130164
:1059B00004FCF2506254D2544259B259225A925ABB
:1059C000216182804A85EFF01FB493971400D69727
:1059D00085042390A70093F4F40F75BF8280971776
:1059E0000020938727239C43D847A1679387E70428
:1059F0006312F70A397106DE22DC26DA80004AD803
:105A00004ED652D456D23285B284EFF07FAEAA89F8
:105A10002685EFF05FAF2318A4FC2685EFF0BFAE1C
:105A2000231AA4FC2685EFF01FAE83D744000A8A10
:105A30002319A4FC858393F7F70F230EF4FC860744
:105A4000BD0793F7073F3301F1408A8A0149834735
:105A5000C4FD6365F902CE85130584FC232C54FD37
:105A6000EFF03FCD5281130104FCF2506254D25446
:105A70004259B259225A925A216182802685EFF00A
:105A80009FA893171900D69705092390A7001379AB
:105A9000F90F75BF8280971700209387A7179C4343
:105AA000D847A1679387C7046310F70A397106DEE8
:105AB00022DC26DA80004AD84ED652D456D232851D
:105AC000B284EFF0FFA2AA892685EFF0DFA3FD578D
:105AD0002318A4FC2685231AF4FCEFF0DFA283D759
