:04C000006F00006D60
:10C0040000000000000000006F0080086F00E022C4
:10C01400000000000000000000000000000000001C
:10C02400000000000000000000000000000000000C
:10C034006F004006000000006F00E00500000000F3
:10C044006F0080056F0060056F0040056F002005DC
:10C054006F0000056F00E0046F00C00400000000E2
:10C064006F0060046F0040046F0020046F00000440
:10C074006F00E0236F00C003000000006F00600346
:10C084006F0040036F0020036F0000036F00E002A5
:10C0940001A001A001A001A001A001A001A001A094
:10C0A40001A001A001A001A001A001A001A001A084
:10C0B40001A001A001A001A001A001A0B7170040A8
:10C0C400130770052380E704130780FA2380E7042D
:10C0D4002396A702238007043717004083472705C8
:10C0E400898BEDDF83570705371700408347270502
:10C0F400898BEDFF3717004083472705898BEDDFD8
:10C10400035507058280B717004093067005238006
:10C11400D704130780FA2380E70403C6B704137611
:10C12400F60DA385C70423800704137605022DC6E4
:10C1340003C6A700118A0DE22380D7042380E704F5
:10C1440003C7A700136747002385E7009307004B45
:10C1540001000100FD17EDFFB717004093067005BD
:10C164002380D704130780FA2380E7047D8923946E
:10C17400A7000100010001000100238007042380BF
:10C18400D7042380E7049306100537270040A30350
:10C19400D780238007048280137605046DDE03C6EE
:10C1A400A700418A0DE22380D7042380E70403C754
:10C1B400A700136707012385E7009307007D0100AB
:10C1C4000100FD17EDFFB7170040930670052380AB
:10C1D400D704130780FA7D892380E70413650504D7
:10C1E4002394A7000100010001000100238007043B
:10C1F4002380D7042380E7049306300537270040C3
:10C2040079B74111814601468145114506C661222F
:10C21400B7170040130770052380E704130780FA5B
:10C224002380E70403C76704136717002383E70425
:10C2340023800704B2404101828081460146814542
:10C244001145912AB7170040930670052380D7043F
:10C25400130780FA2380E7047D562396C7022380C0
:10C26400D7042380E70403C76704136717002383F5
:10C27400E7042380070401A0BD473305F50201004C
:10C284007D1575FD8280411122C426C206C6AA848A
:10C29400014463179400B2402244924441018280D5
:10C2A40005041305803E4204C13F4180DDB7B71742
:10C2B4000040130700032388E7028547170700009F
:10C2C400232EF75273002030411122C406C637448E
:10C2D4000020832704808297EDBF23030480154741
:10C2E4002303E48001002302A48082808307648006
:10C2F400E3CE07FE23030480828083076480E3CEB9
:10C3040007FE03454480828083076480E3CE07FEF2
:10C314002302A4808280411126C44AC24EC006C6AC
:10C324001377F50BAD47AA892E8995446306F70068
:10C3340019456537653F8D444E854537FD59FD14D4
:10C3440063983401B240A244124982494101828077
:10C35400135509011375F50F453F2209CDB7011196
:10C3640026CC06CEB704080051371545BD377137C2
:10C3740069372AC6A53F32459377150089EB1365C3
:10C3840015001375F50FF240E24405618280FD1437
:10C39400E9FC0145CDBF397126DC4ADA4ED852D6C4
:10C3A40056D45AD25ED006DE62CE66CCB7E700E041
:10C3B4007D5783AA070022C603AA470023A0E718D3
:10C3C40023A2E718B7170040130770052380E7047A
:10C3D400130780FA2380E70483C74704930B75FF90
:10C3E400B684E20793FBFB0F8546AA892E8B32891C
:10C3F40037240040E187015763FA76016308D500CA
:10C404008946130700026313D5000157D98F93F7A8
:10C41400F70FB71C00402382FC0411472303E48078
:10C424001305F00F5D3D094CD13563697C11B707E5
:10C4340007003E9B378707007955637EEB02B307FD
:10C444009B00636AF702A9476399F90689E481446A
:10C45400713D26850DA0DA850945753D050903451D
:10C46400F9FFFD14050B4D3581C49377FB0FFDF7E0
:10C47400FD3569FD7D55B71700401307700523800E
:10C48400E704130780FA2380E70403C74704418BBA
:10C494002382E704F250B7E700E023A0571123A258
:10C4A4004711E25432445259C259325AA25A125BC9
:10C4B400825B724CE24C21618280A5476395F90648
:10C4C40085691309F00FB3069900B3742B01B69470
:10C4D4001349F9FFB3749900856B33796901416B92
:10C4E4009387F9FFB3F7270199E363FC340193D9E8
:10C4F4004900C147E3E637FF99BF0569C1697D1962
:10C50400D9B71305800D638869011305000263849C
:10C51400790113051008CA85FD3B913521DD4E993B
:10C52400B3843441D9B7DA852D45F533CA94E30091
:10C5340099F20509D933A30FA9FED5BF9387F9FF53
:10C5440093F7F70F636CFC0803C75C04B707080094
:10C554001377070219E3B78707007955E37DFBF0EA
:10C5640033079B00E3E9E7F089476390F904898086
:10C57400D549E38E04ECDA850945713B110903279B
:10C58400C9FF91472320E48003076480E34E07FE3C
:10C5940023033481FD17EDFBFD14110B81C4937744
:10C5A400FB0FE9FF6D3B71F5F1B58547E387F9F4BE
:10C5B400DA852D458D339389F4FFE38A04E8353B0E
:10C5C40093F7390091EB832604800327090093072E
:10C5D4004900E39FE6E63E89CE84F1BFB547639602
:10C5E400F9001305900BD5399DB5B1471305B00A71
:10C5F400E38BF9FE9947639EF902DA852D45213BC9
:10C6040081448D4BA149D5396396740183270480F5
:10C614002320F9008504E39834FF8327048013174B
:10C624002B01635507002312F90015B52322F900E5
:10C6340039BD9D476399F90281451305B004E13979
:10C64400BD442320090023220900FD597D3193F7BD
:10C654007400CA9703C70700FD14398D2380A7000F
:10C66400E39634FFEDB3A1476392F904CD398144D5
:10C67400630D0B008D479304C0036308FB00930410
:10C68400000563048B01930440041375C507E3009C
:10C6940095DC194599319939054581312685AD31A6
:10C6A40009459D316D39E31405DAE9B3914763997E
:10C6B400F90013056006153115391305900925B7DE
:08C6C400E38709D8F15469B3C2
:10C6D0009781FF1F9381011317C1FF1F13018192DF
:10C6E00017050000130545929785FF1F9385851157
:10C6F0001786FF1F1306867D63FAC5008322050097
:10C7000023A0550011059105E3EAC5FE1735000089
:10C710001305C54B9385816C1386817E63FAC50032
:10C720008322050023A0550011059105E3EAC5FE0B
:10C730001385817E97A5FF1F9385053F6377B5001D
:10C74000232005001105E36DB5FEB722000093829A
:10C75000828873A002309782FF1F9382A20A93E21D
:10C760001200739052309712000093824229739006
:10C7700012346F30F008730020303D432A87637312
:10C78000C3029377F700BDEFADE5937606FF3D8AD0
:10C79000BA960CC34CC30CC74CC74107E36BD7FE1A
:10C7A00011E28280B306C3408A0697020000969683
:10C7B0006780A6002307B700A306B7002306B700CB
:10C7C000A305B7002305B700A304B7002304B700EF
:10C7D000A303B7002303B700A302B7002302B700E7
:10C7E000A301B7002301B700A300B7002300B700DF
:10C7F000828093F5F50F93968500D58D939605016C
:10C80000D58D61B793962700970200009696868291
:10C81000E78086FA9680C1171D8F3E96E374C3F8B1
:10C82000A5B7B717004003C777051377E70FA38BAA
:10C83000E704130700F8A38DE7043D47238CE704C2
:10C8400013075003A38CE7048280B717004003D579
:10C8500087005D715ED64205418186C6A2C4A6C22C
:10C86000CAC04EDE52DC56DA5AD862D466D26AD0DA
:10C870006ECE9377050C13070008814B6388E71889
:10C8800013070004639CE714B7240D8F7D899384FC
:10C890000480B3D4A4029167938707E8BE94A1678C
:10C8A000938707D0B3D4F402EF10406897370000A5
:10C8B0009387C7F19043D443EF10001CEF109029E9
:10C8C0002A8B939C040103D9817E93DC0C016315B0
:10C8D0000900056913090980B7170040130770059F
:10C8E0002380E704130780FA2380E704371A004007
:10C8F0000547939D0401096C85662389E704D14AA5
:10C90000814E8145130D0A0413087005130680FA41
:10C91000894893DD0D01130C0C712943FD1623008A
:10C920000D012300CD0023162A0323000D008347A9
:10C930002A05898BEDDF83570A0583472A05898BF2
:10C94000EDFF83472A05898BEDDF83570A05239482
:10C95000217FC207C183338597419319050193D97C
:10C960000941638409163387B902635E070C850E9B
:10C97000C20E93DE0E0163E8D80D63D9050A3305B4
:10C98000B04093150501C185C204C18063D7350B42
:10C990000965130505713385A502B7170040130714
:10C9A00070052380E704130780FA2380E7042396A9
:10C9B0007703238007043345950242054181B64041
:10C9C000264496440649F259625AD25A425BB25BF7
:10C9D000225C925C025DF24D61618280B1E3B774CA
:10C9E00089097D8993840480B3C4A40291679387E5
:10C9F00007E8BE94A167938707D0B3C4F402EF1091
:10CA0000E052973700009387E7DC6DB59737000059
:10CA1000938787DB856403AB07009384843855B51F
:10CA2000130B0000954471BD3A89D5BDB387FC4016
:10CA30009399070193D9094181BF096513050571D0
:10CA40003385A9028DBF3385B74163E4FC0033858C
:10CA5000FD40330585033344B50363458300131557
:10CA60000401A9BF4E8536C642C432C2EF1030025F
:10CA7000DA85EF10A052EF10607B931E050193DE64
:10CA80000E41B307D941C207C183056E3E871246E6
:10CA9000224889482943B24663E3C70136874207E3
:10CAA0004183631A270113071900634430011307F8
:10CAB000F9FF42074183FD1A93FAFA0FCA8BCE851C
:10CAC000E3940AF62394E17E59BF0145CDBDB71723
:10CAD000004003D587005D7186C642054181A2C42E
:10CAE000A6C2CAC04EDE52DC56DA5AD85ED662D42E
:10CAF00066D26AD06ECE02C69377050C1307000883
:10CB0000638BE71413070004639FE710B7240D8FAE
:10CB10007D8993840480B3D4A4029167938707E846
:10CB2000BE94A167938707D0B3D4F402EF100040FE
:10CB300097370000938787C99043D443EF00D073A1
:10CB4000EF1050012A89939A040103DBA17E93DA46
:10CB50000A0163150B00056B130B0B80B717004020
:10CB6000130770052380E704130780FA2380E70486
:10CB7000939B040105478969056A2389E704D14D20
:10CB8000014D814C93DB0B01938909717D1A5A8504
:10CB90009780FF1FE780C0D2330C5541420C135CD5
:10CBA0000C412395617F63010C16B3079C0363D18D
:10CBB000070E050D420D135D0D01894763EAA70DB0
:10CBC00063DB0C0A33059041931C050193DC0C4197
:10CBD000C204C18063D88C0B0965130505713385C8
:10CBE000AC02B7170040130770052380E704130752
:10CBF00080FA2380E70432472396E7022380070464
:10CC00003345950242054181B64026449644064983
:10CC1000F259625AD25A425BB25B225C925C025D6C
:10CC2000F24D61618280B1E3B77489097D89938493
:10CC30000480B3C4A4029167938707E8BE94A167F8
:10CC4000938707D0B3C4F402EF10402E973700004B
:10CC5000938747B8D5B5973700009387E7B68564C3
:10CC600003A9070093848438F9BD13090000954493
:10CC7000D9BD3E8B29BF3385AA40131C0501135C27
:10CC80000C41B9B70965130505713305AC028DBFB9
:10CC900063FEAA003305754133053503A9473344C4
:10CCA000750363C8870013150401B1BF3385AB401A
:10CCB000E5B76285EF10A05DCA85EF10202EEF105A
:10CCC000E056131D0501135D0D413307AB414207CB
:10CCD00041838565BA876363B700D287C207C18382
:10CCE000639A670193071B00634480019307FBFF6E
:10CCF000C207C183FD1D93FDFD0F5AC6E28CE39A66
:10CD00000DF62395F17E45B70145FDBD41112A83FE
:10CD1000014E930E407E130F0019930F400663EBF4
:10CD20006E0A9308001913034006B3781503854E65
:10CD30000D4FA14F337365020D891335150063E55F
:10CD4000BE0C1308F6FF7946729842081358080182
:10CD50003307C70213D61700BE0732976146B3F6F2
:10CD6000C60213068070B386C6023697A166F58F99
:10CD700042075D8FB717004083C6F70293F6060897
:10CD8000A307D1000346F10083C6F70293F6060815
:10CD9000E394C6FE8346F10093F6F60FF1DE9306A8
:10CDA00070052380D704930680FA2380D70423AA32
:10CDB000070383C6170393E60608A388D702D8DBC8
:10CDC00003C7170313670704A388E7022380070438
:10CDD000410182807D133368E3039308E016630EFC
:10CDE00008003368F3039308D016630808009378AB
:10CDF000330093B818009388D81633081E01131E09
:10CE00000801135E0E0121BF6393E50305486386A5
:10CE100008000148630303002A8871087298FD1511
:10CE2000131E0801C205135E0E01C18109BF13F86C
:10CE3000150063F4BF007908D5B713381800E5BFB3
:10CE4000914763EEB70217370000130727998A0549
:10CE5000BA959C41BA978287B717004003A7470B42
:10CE60001345F5FF698F23AAE70A03A7070B698F0C
:10CE700023A8E70A03A7070A798D23A0A70A8280BF
:10CE8000B717004083A6470B1347F5FFF98E23AA77
:10CE9000D70A83A6070B558D23A8A70A83A6070ADE
:10CEA000758F23A0E70A8280B717004003A7470BBE
:10CEB000498F23AAE70A03A7070B1345F5FF45BFD0
:10CEC000B717004083A6470B1347F5FF758F23AABA
:10CED000E70A03A7070A598D4DB7B717004003A704
:10CEE000470B498FEDB7B717004003D587004205C0
:10CEF00041819377050491EB9377F5013755E8016C
:10CF0000130505803345F50282809377050C1307DE
:10CF100000046397E7009377F50137459C1CCDB774
:10CF20002165130505D0828037E700E01C43544398
:10CF3000A183E206D58F1CC1FD572320F7182322B9
:10CF4000F7188280B7F700E0C8439C47828081478A
:10CF500037370040A14663C4C7003285828003454D
:10CF6000B740E38EA6FE3385F5000345050085072F
:10CF70002304A740CDB79387817C9C4317A7FF1F4D
:10CF8000130787BA3E95636CE50017B7FF1F1307B9
:10CF900067E76366A70023A4A17C3E858280FD57D6
:10CFA000EDBF411122C406C62A84353F2947B30785
:10CFB000E502B2408D83B3D7870222449507B3D7E9
:10CFC000E70237370040C207C1832316F74041010B
:10CFD0008280716541111305052006C6D937B73720
:10CFE0000040130770F82381E7400D47A381E74015
:10CFF00013070004A380E74005472387E740B240BA
:10D0000041018280411122C406C603C70500894739
:10D010000544631FF702D84129448347170003479B
:10D020000700A207D98FC207C187130710EE6391CB
:10D03000E7022387D17E814793F6F60F9785FF1F7E
:10D040009385050E1397070141836369D702014455
:10D0500003C6E17E19CE9387017F9C4399CBDC43C5
:10D0600089CB9785FF1F9385A50B01458297238761
:10D07000017E2285B2402244410182803307F600BE
:10D08000034507003387F50085072300A7005DBF30
:10D0900003C7050089476314F706D8418347170083
:10D0A00003470700A207D98FC207C187130710EEF5
:10D0B0006393E70432852390060003C6D17E19E20C
:10D0C00001458280C167FC47411106C62390C60016
:10D0D0009785FF1F938545F58297A386017E9387E9
:10D0E000017F9C43014589C79C4399C382970145B1
:10D0F000B24041018280239006002945828023901E
:10D10000060005458280058919C9C16703A3071375
:10D1100093868170414691451385816C0283014558
:10D12000828009C523A8A17E014582804545828071
:10D1300051476361C702A386C17EC167FC474111A5
:10D1400006C61785FF1F130525EE8297B2400145DD
:10D15000410182801305E00F8280411106C6EFF085
:10D16000CFEEBD4763F4A700EFF02FEE8D32BD4741
:10D1700063F3A700A93AC167B24003A3472183D54F
:10D18000A17E03D5817E4101028341119396250042
:10D19000AA852D4506C69780FF1FE78000A0B240F4
:10D1A000014541018280411126C29394250022C489
:10D1B0004AC02A843289A686AA850146254506C624
:10D1C0009780FF1FE780609DA6864A86A285294535
:10D1D0009780FF1FE780609CB2402244924402493E
:10D1E000014541018280011122CC06CE3714004056
:10D1F00026CA4AC84EC652C483447405034AB405BD
:10D200008349840503499405EFF0AFE18347A40502
:10D2100093F4F40F137AFA0F93E71700230DF40435
:10D2200093F9F90F1379F90FB717004003C7A70552
:10D23000058B6DFF03D5C705A38D4705238C3705E7
:10D24000A38C2705A38B9704F2406244D244424941
:10D25000B249224A0561828041119397050122C497
:10D2600006C626C2C1872E8463DF0700C164FC5452
:10D27000829719C1BC5482972165218DB240224406
:10D2800092444101828093F7150013C51500FDF704
:10D290009397250163D20702C16483A7C41E8297B6
:10D2A0006D3DBC4C37F60200130606E0896503C5E8
:10D2B000417F82970965D1B7939715010145E3DF57
:10D2C00007FA1725000013052557EF104038C167EE
:10D2D000BC4F13060064916503C5417F82971165B9
:10D2E00069BF1D71A2CC41645C5C485886CE49463A
:10D2F000972500009385C54F829701E91725000007
:10D3000013054550EF10A03401A037F700E0F9579E
:10D310005CC7FD571CCB8566B7E700E023A0D7109C
:10D320001306701010C3B8434146B0C323A0D718EA
:10D33000B8C3010001003C441306C00381454808FE
:10D3400082979787FF1F9387E7FD3ECA8967938778
:10D350000780231CF100ED57A301F1029307A010F1
:10D360002312F102D1472303F102A167938707E05B
:10D370003ECE97070000938787E1BEC49707000061
:10D380009387A7E2BEC685472304F102B547230869
:10D39000F10297070000938727BB3EDAB7F5070035
:10D3A00097070000938767E43EDE814697070000F9
:10D3B0009387E7DA7000E1051945BEC09770FF1F3B
:10D3C000E780A07D58088147994670003E96034645
:10D3D000060085070507A30AC700E398D7FED247D2
:10D3E00091C70357810185676373F70001A0C16787
:10D3F00083A7470A48088297AA8501C91725000014
:10D4000013058541EF10001301A0F6406644256125
:10D410008280411126C2C16483A7040806C622C4C3
:10D4200017050000130585E382971384417F2300CD
:10D43000A400392803450400224403A38405B24014
:10D44000924437F60200130606E089654101028323
:10D45000411106C622C4930670053714004023000C
:10D46000D404130780FA2300E4048347F40293F7FB
:10D47000A70FA307F4022300D4042300E404834786
:10D48000F40293E72700A307F402C1398147230080
:10D4900004041305407E0147814605468545EFF0AB
:10D4A000FF86C1672244B24003A3470701454101FB
:10D4B0000283172500001305253B6F1040197D15C9
:10D4C000954763EAA70A17270000130727370A05BD
:10D4D0003A951C41011122CC06CE26CABA972E8459
:10D4E00082871725000013056542EF104016A1A0A2
:10D4F0001725000013058542CDBF83D4E50017250D
:10D5000000001305A542EF108014B14763F59702A0
:10D510001725000013058542EF106013C16703A8AB
:10D52000871A0355A40083C7817D1307803E814677
:10D53000314699450298F2406244D24405618280A6
:10D5400017250000130585404DB78547A307F10057
:10D55000C16783A747171306F100854513055030AF
:10D560008297172500001305E53F41B717250000F6
:10D57000130545409DBF8280011122CC4164832761
:10D58000040806CE26CA170500001305C50B8297AE
:10D590009384817D85472380A400A307F10083271E
:10D5A00044171306F10085451305503082978327F1
:10D5B000441713864174FD45130570308297832705
:10D5C00044171386C17D9D451305603082978327DC
:10D5D0004415930500020D45829783274415930552
:10D5E000000211458297832704157D558297832772
:10D5F00044137D5582977D553936832784141386CD
:10D60000C172D545014582971385017D193E3C487D
:10D6100003C5040085458297F2406244D244056107
:10D6200082802E86AA85014521B601112306A1001C
:10D630008945680006CEA3060100E537F240056182
:10D64000828041119397050122C406C626C24AC0B2
:10D65000C1872E8463D30702C164FC5403C5817D56
:10D66000829719C1BC548297A1673D8C2285B24034
:10D670002244924402494101828093F715009DC7DC
:10D68000C16483A7441A138601729785FF1F93858F
:10D69000659803C5817D8297BC4C1306803E894501
:10D6A00003C5817D829713441400C9B793F7250001
:10D6B00081CFC167BC4F1306803E894503C5817D7C
:10D6C0008297134424005DB793F74500ADCF97844C
:10D6D000FF1F9384249390401789FF1F13094992D9
:10D6E000832709009315C600172500001305C518E8
:10D6F000BE95EF0030649C40832509008566B20723
:10D700000146BE9505459770FF1FE78000491375D8
:10D71000F50F09C5193F1344440089BF9C40850794
:10D720001787FF1F2320F78E1787FF1F1307C78D4B
:10D730001843E3EDE7F21725000013052515EF0068
:10D7400010710145C1BF014415B71305E00FF1BDCC
:10D75000411122C41784FF1F130444AC26C2228641
:10D76000AA8491469D652D4506C69770FF1FE780E8
:10D77000C0429306001001469D6525459770FF1F26
:10D78000E780A0412286230094002244B2409244C4
:10D7900091469D65294541011773FF1F6700E33FCF
:10D7A00001456FF06FF879719787FF1F83C707A84E
:10D7B00006D693C707081147636DF71A17270000AD
:10D7C000130747098A07BA979C43BA9782879785B8
:10D7D000FF1F83D5C5A51786FF1F034636A59205F3
:10D7E000172500001305850B9787FF1F23A2C7820B
:10D7F0009787FF1F23ACB780EF00D0539787FF1F99
:10D800009387C7808C439786FF1F83D666801786D1
:10D81000FF1F1306E6A109459770FF1FE780E03759
:10D820001375F50F1935B250456182809785FF1F3A
:10D8300083D5E59F92051786FF1F0356669F172520
:10D840000000130565079777FF1F23A1B77C977723
:10D85000FF1F23ABC77A9777FF1F23A3B77A97776A
:10D86000FF1F23A1077A9777FF1F2389077AEF000D
:10D87000704C9777FF1F9387A7789443856763E081
:10D88000F6029777FF1F938727789C43370710008E
:10D890007D17BA97B207B69731676375F70013051E
:10D8A000F00F49B709456D35C167BC4B914503C5BC
:10D8B000817D82978DBF9785FF1F83D545971786FA
:10D8C000FF1F0346B6969205172500001305C500F5
:10D8D0009777FF1F23AEC7729777FF1F23A8B772F2
:10D8E000EF0050459777FF1F938787729443977790
:10D8F000FF1F9387A7718C431786FF1F130646935C
:10D900000D459770FF1FE78040299777FF1F83C75A
:10D91000E7705D8D1375F50F9777FF1F2380A77054
:10D9200011B7172500001305E5FCEF0050528D3D9F
:10D930000545393D29459770FF1FE780001585672C
:10D9400082979770FF1FE780000CF1BD172500003C
:10D95000130505FBEF00B04FB707C00089073EC6AF
:10D96000D145B707107368003EC8230A0100553936
:10D970005DBDE13B4DBDC167FC47411106C6178542
:10D98000FF1F1305A58A8297B240410129BD0111ED
:10D99000914670009D652D4506CE9770FF1FE7806C
:10D9A000C01F0347C10089469307F7FF93F7F70F9E
:10D9B00063E1F604A381E17E83C5317E1725000073
:10D9C0001305C5FBEF00103703C7317E8547631F82
:10D9D000F700172500001305A5FBEF00504715457C
:10D9E0009770FF1FE780600A85678297F2400561A4
:10D9F00082808547A381F17EC1B741111305800460
:10DA000006C622C49770FF1FE78020F0371400403D
:10DA10008327840A8D451305002093E707202324DC
:10DA2000F40AEFF0EFC1EFF0CFDAC167C85BEF00A7
:10DA30001042B13F834744049D8B9DC303C7317E91
:10DA40008D47631FF70017250000130565F4EF00ED
:10DA5000104015459770FF1FE78020038567829768
:10DA6000EFF03F887D32C16783A7071A8297293676
:10DA70009770FF1FE780800539714AD813D9450197
:10DA80004ED652D456D29399C50006DE22DC26DA51
:10DA90005AD05ECE1379F97F2A8A93D9C90093DAD6
:10DAA000F501630D090E9307F07F6306F91813540F
:10DAB000D5018E09B36934013704800033E489004D
:10DAC00093143500130919C08149814B13D74601BE
:10DAD000139AC6001377F77FB285135ACA0013DB77
:10DAE000F601630B07109307F07F6303F704935766
:10DAF000D6010E0A33EA4701130717C0B7078000A3
:10DB0000B367FA00931536003A99814833C76A0122
:10DB1000BD463A851308190063E83617172600003A
:10DB20001306C6E78A09B29983A60900B2968286CF
:10DB3000B367CA001309F97F6399071293E92900B3
:10DB400081458948E1B701479307F07F3704080012
:10DB500081443204D20731807E075D8C598CA285C6
:10DB6000F250625426854259D254B259225A925ADE
:10DB7000025BF24B216182805A853E84AE84C68B63
:10DB80008947638DFB0E8D47E38FFBFA85472A8714
:10DB9000639CFB3881470144814465BF33E4A9009D
:10DBA00061C036C632C4638B092A4E85EF0030113E
:10DBB0002246B246AA87130755FF7544938487FF10
:10DBC000198CB399990033548A0033643401B31427
:10DBD0009A0013D746011309D0C0139AC6001377D1
:10DBE000F77F3309F9408149814BB285135ACA0046
:10DBF00013DBF601E31907EEB367CA00B1C7630F81
:10DC00000A22528532C4EF00900B22462A879306DF
:10DC100055FFF547930587FF958F331ABA00B35721
:10DC2000F600B3E74701B315B6003309E94013091D
:10DC3000D9C08148E1BD33E4A90001ECA149814488
:10DC40001309F07F894B59B593E91900814585483F
:10DC500075BD4E84AA84B1491309F07F8D4BBDB5C3
:10DC6000914981440149854B95B593E93900D287A3
:10DC70008D4869BD89475685E397FBF02A8793074E
:10DC8000F07F01448144F1B5C16E1386FEFF93D647
:10DC9000040113DE0501F18CF18D33869502338387
:10DCA000B6029358060133059E021A95AA98B382CC
:10DCB000C60363F36800F692C16F1383FFFF33F569
:10DCC000670093D30701B3F76800C2073373660098
:10DCD0003E933306950293D80801B387A602135FDB
:10DCE0000601B3849302BE94FA94B38E760263F372
:10DCF000F400FE9E416A9307FAFF935F0401B37636
:10DD0000F400B3F9F4007D8EC1803384D502C209DA
:10DD1000338FD401B299CE98B307DE02935E04012B
:10DD2000B385BF02AE97BE9E330EFE0363F3BE0003
:10DD3000529EC1679385F7FF33F6BE006D8C420695
:10DD4000229693DE0E01B305D502769E3385AF028F
:10DD500013D40501B386D302AA96A296B38FF30318
:10DD600063F3A600BE9F41657D15B3F7A600C20709
:10DD70006D8DAA97B3855800B3B93501FA97B2955E
:10DD80003384370133B6C500B30EC4013385CE00EA
:10DD900033343401B3B7E701C18F33BECE0113D49E
:10DDA00006013336C5003E943366CE009394950049
:10DDB00032947E94B3E46400260493567501B33420
:10DDC0009000DD8193179500CD8C558CDD8C9317D9
:10DDD000740063DB070093D7140085889316F40161
:10DDE000DD8CD58C058042899307F93F6357F00895
:10DDF00093F6740081CE93F6F40011466388C60052
:10DE000093864400B3B496002694B68493167400A7
:10DE100063D80600B70700FFFD177D8C9307094004
:10DE20009306E07F63CDF60E93D634009314D401AD
:10DE30002604D58C318093F7F77F21BB328532C41D
:10DE4000BD2D93065501F147130705022246E3D283
:10DE5000D7DC6115B317A6008145C1BB8D2513071B
:10DE60005501F145930705022246B246E3D7E5D4B2
:10DE700061153314AA008144A9BB85469D8EB1E784
:10DE80001309E941B3972401B3D4D4003319240111
:10DE9000B337F000B3649900DD8C93F77400B35688
:10DEA000D40081CF93F7F40011466388C7009387AD
:10DEB0004400B3B49700A696BE849397860063D8B7
:10DEC000070485470144814469B113068003E34395
:10DED000D6CC7D46E356D6FA0556B307F6409305F1
:10DEE00000023356F4006387B6001309E943B31701
:10DEF0002401DD8CB3349000D18C93F6740001447E
:10DF000099CA93F7F40011468146E392C7FA139435
:10DF100096003180F6068D80D58C81471DB9930718
:10DF2000F07F0144814435B142897DBD411106C66F
:10DF300022C426C205CD9357F541B3C4A7009D8CDA
:10DF40002A842685AD2B9306E041898EA9477D80E2
:10DF500093F6F67F63CDA7022D47098FB3D7E40070
:10DF60005505B207B394A400B18329A001448146AA
:10DF700081478144B207D206B1837E04D58FC18F19
:10DF8000B24022442685BE859244410182805515C7
:10DF9000B397A400B207B1838144E9BF797122D459
:10DFA000135475014ECE52CC9319950006D626D245
:10DFB0004AD056CA5AC81374F40F93D99900135A09
:10DFC000F50169C49307F00F6308F40E93973900C5
:10DFD00037070004B3E9E700130414F88144014B48
:10DFE00013D77501939A95001377F70F93DA9A0078
:10DFF00013D9F50145CF9307F00F630CF7028E0A92
:10E00000130717F8B7070004B3EAFA003A94014679
:10E0100033452A01BD47AA869305140063E0971093
:10E02000172700001307879B8A04BA949C40BA976D
:10E0300082871304F40F63960A0C93E424000946C4
:10E04000C1BF01451307F00FB7074000B25022547B
:10E05000A6075E07A5837E05D98F92540259F2491F
:10E06000624AD24A424B5D8D45618280CA86D6891A
:10E07000328B8947630FFB088D47E304FBFC854720
:10E0800036856310FB1A01478147C9B7639D0904B0
:10E0900013D77501939A95001377F70F91440144B4
:10E0A000054B93DA9A0013D9F50131F7639D0A0005
:10E0B00093E414000546A9BF63920902A144130426
:10E0C000F00F094B31BF5685DD2E9307B5FF098C44
:10E0D000B39AFA001304A4F801461DBFB144130417
:10E0E000F00F0D4BF5BD4E852EC6D12E9307B5FF13
:10E0F0001304A0F8B399F900098C8144014BB2458F
:10E10000C5B593E434000D4621B78947D286E3159F
:10E11000FBF636851307F00F81470DBF4163930669
:10E12000F3FF13D6090193D80A01B3F7D900B3FA64
:10E13000DA0033885703B389F80213570801B30A8A
:10E140005603D6994E9733061603637357011A96F2
:10E15000C167FD17B376F7003378F800C206C296A0
:10E160009399660093570701B3393001E982B2975A
:10E170009A07B3E6D900B3E9D7009397490063D96A
:10E18000070013D7190093F71900B369F7002E841D
:10E190001307F4076350E00493F7790099C793F7E6
:10E1A000F90091466383D70091099397490063D999
:10E1B0000700B70700F8FD17B3F9F90013070408C3
:10E1C0009307E00F63CBE70493976900A583137768
:10E1D000F70FADBD8547B386E74011C76D460147D0
:10E1E0008147E345D6E61307E4093397E90033375F
:10E1F000E000B3D7D900D98F13F7770019C713F709
:10E20000F70091466303D700910713975700634CBB
:10E2100007009A07A583014715BD1307F00F814733
:10E2200035B52E84B5B7054781470DB53706800053
:10E23000135775019307F6FF1377F70F9305E00760
:10E24000B3F6A7009357F50163FCE5009305D009E9
:10E2500063FAE500370500801345F5FF3E9582809F
:10E260000145828093055009D18E63CDE5001306E8
:10E2700060093307E64033D7E6003305E040F5F3A5
:10E280003A8582801307A7F63397E600FDB7411160
:10E2900006C622C426C20DCD9357F54133C4A7004C
:10E2A0001D8CAA842285212C9307E0093387A7407F
:10E2B00093076009FD8063CCE702A1469377F70FCF
:10E2C00063D5A60061153314A4002604258021A07F
:10E2D000814481470144260413559400B2402244EE
:10E2E000DE07FE045D8D458D9244410182809307D7
:10E2F000900963DDE7009307B5019546B317F40075
:10E30000898E3354D400B337F0005D8C954763D6C3
:10E31000A7009307B5FF3314F400B70600FCFD1601
:10E32000937774003376D40085C39377F4009145D6
:10E33000638CB70011069317560063D70700930745
:10E34000F009758E3387A7401314660025809377F4
:10E35000F70F51B793D645019397C50093F6F67F13
:10E36000B183138616008E071357D5011376E67F07
:10E37000FD815D8F9318350035CE138806C893074D
:10E38000E00F63DD07018147139597009306F00FB7
:10E39000DE062581FE05558D4D8D82806355000B6F
:10E3A000931765000E07B337F000D98F93D8D801C3
:10E3B000B3E7170113F777006301071013F7F700AE
:10E3C00091466303D7009107370700047D8F75C717
:10E3D000130718001306F00F9376F70FE305C7FA3B
:10E3E0009A07A58313959700DE062581FE05558DB6
:10E3F0004D8D8280B367170199EE85CF95479A07B7
:10E40000A5831395970093F6F60FDE062581FE058A
:10E41000558D4D8D8280A5DBB70740001395970081
:10E420009306F00FDE0681452581FE05558D4D8D45
:10E4300082808147139597008146DE062581FE057F
:10E44000558D4D8D8280A5576348F804F9473706EE
:10E450008000B38707417D45598E6351F504795794
:10E4600033070741130500023357E6006388A7000E
:10E47000938626CAB316D600B3E8D800B337100186
:10E48000D98F13F77700014815FB1397570085467E
:10E49000E34807F48146A5B781468DB7938626C821
:10E4A0003397D8003337E000B316D600B3D8F8005E
:10E4B000B367D700B3E7F800E9B7C28689B7C16789
:10E4C000637EF5029307F00F1307000263ECA700C9
:10E4D0009717000093878754AA9703C50700330551
:10E4E000A740828021819717000093872753AA971E
:10E4F00003C5070061473305A7408280B7070001C5
:10E50000636EF50061819717000093872751AA97E2
:10E5100003C5070021473305A74082804181971733
:10E5200000009387A74FAA9703C50700414733050B
:10E53000A740828039713EDA2ED232D436D63AD80C
:10E5400042DC46DE9387417E22CC804326CA06CE3B
:10E55000AA8409C41C4C99E3228515230C44541049
:10E560002686228536C6EF007018F2406244D244F7
:10E5700021618280011126CA4AC806CE22CC4EC62D
:10E5800052C4AA842E8901C51C4D91E3CD299C4C0F
:10E59000804499E32685E521971700009387075A61
:10E5A000631CF402C0408357C400A18BB1C71C4850
:10E5B000A1C7FD59294A1C4483450900FD17B1E94B
:10E5C0001CC463DE07062286A94526857120FD57F7
:10E5D0006308F502294535A097170000938707586F
:10E5E0006314F4008044C1B7971700009387075362
:10E5F000E31BF4FAC04445BFA2852685312A55D9CC
:10E600007D55F2406244D2444249B249224A0561F2
:10E6100082801CC4050963D70700184C63CBE70050
:10E62000638945011C401387170018C02380B70079
:10E6300059B7228626850D20E31F35F7D1B71C4038
:10E640001387170018C029472380E70061B7938715
:10E65000417EAA85884339BF011122CC26CA4AC807
:10E6600006CE4EC6AA842E89328401C51C4D91E384
:10E670003921971700009387674C6319F406C0404F
:10E680001C4C1CC48357C400A18BC9C31C48BDCFFC
:10E690001C4808409379F90F1379F90F1D8D5C48D8
:10E6A0006346F500A2852685652C2DE51C440505ED
:10E6B000FD171CC41C401387170018C023803701A6
:10E6C0005C486389A7008357C400858B81CBA94729
:10E6D0006316F900A285268561240DEDF24062449F
:10E6E0004A85D2444249B2490561828097170000A9
:10E6F0009387C7466314F400804459B79717000006
:10E700009387C741E31EF4F6C0449DBFA2852685CA
:10E7100021203DDD7D59D9B741119387417E26C225
:10E72000844322C44AC006C62A892E8489C49C4CCC
:10E7300099E32685A9269717000093872740631C35
:10E74000F402C0400317C40093170701C18393F676
:10E750008700B5EE93F607019DEEA5472320F9004B
:10E76000136707042316E4007D55B2402244924407
:10E77000024941018280971700009387273E631466
:10E78000F4008044C1B79717000093872739E31B33
:10E79000F4FAC04445BF918B8DC74C5889C9930783
:10E7A00044046384F5004A859123232A0402835795
:10E7B000C4002322040093F7B7FD2316F4001C487D
:10E7C0001CC08357C40093E787002316F4001C483D
:10E7D00081EF8357C4001307002093F70728638550
:10E7E000E700A2854A85A5218357C40013F71700C7
:10E7F00005C75C4823240400B307F0401CCC1C4828
:10E800000145A5F78317C40013F7070839DF93E71D
:10E8100007042316F40089BF898B014791E3584808
:10E8200018C4F1BF83D7C500011122CC26CA06CE79
:10E830004AC84EC613F78700AA842E8471EFD841C8
:10E84000634DE000B841634AE0000145F240624494
:10E85000D2444249B2490561828058547DD703A908
:10E8600004009396370123A0040063DD0606704878
:10E870008357C400918B99C75C401D8E5C5899C327
:10E880003C401D8E5C540C50814626858297FD5776
:10E890000357C400631DF5009440F54763E8D706AD
:10E8A000B70740208507B3D7D700858BA5C31C4881
:10E8B000232204001CC09317370163D80700FD57BB
:10E8C0006314F5009C4091E368C84C5823A02401D0
:10E8D000ADDD930744046384F50026850129232ACE
:10E8E0000402A5B70C500146854626850297FD57C0
:10E8F0002A86E31FF5F69C40A5DF75476385E70090
:10E9000059476394E70423A0240181B713670704E0
:10E910002316E4007D551DBF83A90501E38709F295
:10E9200003A905008D8B23A0350133093941014727
:10E9300091E3D84918C4E35A20F11C540C50CA86FC
:10E940004E86268582976349A0008357C40093E7CB
:10E9500007042316F4007DBFAA993309A940E1BF3B
:10E960009C49B9CF011122CC06CE2A8411C51C4D79
:10E9700081E72EC62922B245971700009387071C0E
:10E98000639BF5004C408397C50095C72285624480
:10E99000F240056141BD971700009387271C6394DF
:10E9A000F5000C44CDB79717000093872717E39C19
:10E9B000F5FC4C44C9BFF2406244014505618280C8
:10E9C00001458280411122C406C62A842316B5005F
:10E9D0002317C5002320050023220500232405005A
:10E9E0002322050623280500232A0500232C0500E1
:10E9F000214681451305C505EFD03FD89717000084
:10EA00009387E7B65CD097170000938747B91CD46B
:10EA100097170000938787BD5CD4971700009387F2
:10EA200047C000D01CD8B2402244410182809705E3
:10EA30000000938525F389AA411126C2130680069A
:10EA40009384F5FFB384C4024AC02E8922C406C64B
:10EA500093854407A1262A8401CD23200500232283
:10EA60002501310508C4138684068145EFD0FFD007
:10EA70002285B240224492440249410182801C4DC9
:10EA8000BDE3411106C622C497070000938767FAC9
:10EA90001CD597170000938727139C432324050454
:10EAA00023260504232805046314F50085471CCD9F
:10EAB0002A841D2848C02285052808C422852D20C7
:10EAC00048C4484001469145F53D08440546A545E2
:10EAD000D53D48440946C945F53585471CCCB2406B
:10EAE0002244410182808280411197170000938760
:10EAF000A70D26C284434AC006C69C4C22C42A895C
:10EB000099E32685AD3F938484048044DC40FD175F
:10EB100063D607009C40B9CF8440C5BF0317C4002B
:10EB200039E7C17785072322040623200400232226
:10EB30000400232404005CC423280400232A0400C6
:10EB4000232C0400214681451305C405EFD0FFC2E4
:10EB5000232A0402232C040223240404232604046D
:10EB60002285B2402244924402494101828013042A
:10EB7000840671BF91454A85C13588C051FDB147B2
:10EB80002320F9000144E9BF797122D44AD052CC44
:10EB900056CA5AC85EC606D626D24ECE2A8AAE8A33
:10EBA000130485040149054BFD5B09ECB250225466
:10EBB0004A8592540259F249624AD24A424BB24BB8
:10EBC00045618280044483294400FD1963D409000F
:10EBD0000040E1BF83D7C400637BFB008397E40060
:10EBE00063877701A6855285829A3369A900938449
:10EBF0008406E1BF1971A6DAAE848395E500A2DC34
:10EC000086DE328463DC050083D7C40023A00600BF
:10EC100093F7070885E7930700401DA0300836C624
:10EC2000EF00B026B246E34105FE7247BD67F98F9B
:10EC30007977BA9793B717009CC2F1BF9307000486
:10EC40001CC0F6506654D65401450961828083D7B2
:10EC5000C500011122CC06CE26CA4AC8898B2E8453
:10EC600089CF930774041CC01CC885475CC8F24058
:10EC70006244D24442490561828074003000AA8413
:10EC8000953FA2452A892685112A01ED8317C400E4
:10EC900013F7072069FFF19B93E727002316F40081
:10ECA000C9B7970700009387C7D89CD48357C4007F
:10ECB00008C008C893E707082316F400A2475CC8F9
:10ECC000B24791CF8315E4002685EF00301F01C9BC
:10ECD0008357C400F19B93E717002316F400835772
:10ECE000C4003369F9002316240151B7DDC583A799
:10ECF000C5FF411122C406C626C21384C5FF63D3D3
:10ED000007003E94AA84EF0050239767FF1F938764
:10ED100027319C4391EF232204009767FF1F23A113
:10ED200087302244B2402685924441016F00102171
:10ED3000637EF40014403307D4006396E7009843E1
:10ED4000DC43369718C05CC0C9BFBA87D84319C323
:10ED5000E37DE4FE94433386D700631F86001040B2
:10ED6000B29694C33386D700E31DC7FA10435843C5
:10ED7000B29694C3D8C375B76375C400B1479CC03D
:10ED80004DB71040B306C4006316D7001443584370
:10ED9000B29614C058C0C0C369B78280011126CA98
:10EDA00093843500F19806CE22CC4AC84EC6A10401
:10EDB000B14763F9F404B14463E8B4042A89EF006D
:10EDC000D0179767FF1F9387A72598433A8439E4A4
:10EDD0009767FF1F938707259C4381EB81454A85F1
:10EDE000A12F9767FF1F23AFA722A6854A85A927D2
:10EDF000FD59631B3507B1472320F9004A85EF0011
:10EE0000F01329A0E3DA04FAB1471CC10145F2402E
:10EE10006244D2444249B249056182801C40858FD8
:10EE200063C10704AD4663F6F6001CC03E9404C0FF
:10EE300001A85C40631587021767FF1F2322F71E96
:10EE40004A85EF00B00F1305B400930744006199A1
:10EE50003307F5404DDF3A94898F1CC04DBF5CC32A
:10EE6000C5B722874040A5B7130435007198E30069
:10EE700085FCB305A4404A85C125E31A35FBA5BF2F
:10EE80001C46FD171CC663DA0700184E63C5E70071
:10EE9000A9476394F5006FF02FFC1C422E85138761
:10EEA000170018C22380B7008280011122CC26CA25
:10EEB0004AC84EC652C406CE2A89AE893284B304EB
:10EEC000D6007D5A63149400014509A883450400C7
:10EED0004E864A8575370504E31645FFF2406244C5
:10EEE000D2444249B249224A05618280357122CD1D
:10EEF00026CB4AC94EC706CF52C556C35AC1DEDE1D
:10EF0000E2DCE6DAAA89AE843289368401C51C4D7A
:10EF100091E3B53697170000938747C2639BF40CC3
:10EF200083A4490083D7C400A18BF5C79C48E5C7DB
:10EF300093070002A304F1029307000302D2230502
:10EF4000F10222C6930B5002971A0000938A0AC35B
:10EF5000054C294B4A848347040099C36390770F7B
:10EF6000B30C2441638D0C00E6864A86A6854E8547
:10EF70002D3FFD576306F51E9256E69636D283471F
:10EF80000400638F071CFD571309140002C802CE4A
:10EF90003ECA02CCA309010482D483450900154668
:10EFA0005685BD2F13041900C24759E913F707010D
:10EFB00009C713070002A309E10413F7870009C773
:10EFC0001307B002A309E104834609001307A00256
:10EFD0006380E608F2474A848146254603470400D9
:10EFE00093051400130707FD6379E60AB5CA3ECE00
:10EFF00085A897170000938767B66395F40083A4EC
:10F0000089000DB797170000938747B1E39CF4F090
:10F0100083A4C90001BFA6854E85EFF0EFEF09D9A3
:10F020007D55FA406A44DA444A49BA492A4A9A4A1A
:10F030000A4BF65B665CD65C0D618280050421BFDD
:10F04000330555413315AC00C98F3EC82289B1B78D
:10F05000324793064700184336C6634907023ACE43
:10F06000034704009307E002631FF70403471400FB
:10F070009307A002631BF702B247090413874700F6
:10F080009C433AC663C107023ECA35A83307E04035
:10F0900093E727003ACE3EC8E1B7B38767038546BA
:10F0A0002E84BA9725BFFD57C5B7050402CA81460D
:10F0B000814725460347040093051400130707FD05
:10F0C0006376E606F1F2834504000D46171500004D
:10F0D000130545ABB12511CD97170000938787AA7B
:10F0E0001D8D93070004B397A700424505045D8D6D
:10F0F0002AC8834504001946171500001305C5A842
:10F10000130914002304B102212D3DC19717FFFFFD
:10F11000938747EF95E74247B2471377071009CF28
:10F1200091073EC69257D2973ED22DB5B38767035B
:10F1300085462E84BA97BDBF9D07E19BA107D5B731
:10F14000780097060000938686D626860C084E85A2
:10F1500097000000E7000000FD572A8AE314F5FC41
:10F1600083D7C40093F70704E39C07EA125555BD03
:10F17000780097060000938686D326860C084E8575
:10F18000012AD9BF797156CA9C49BA8A984522D4B6
:10F1900026D24ECE52CC06D64AD05AC85EC6AA89CE
:10F1A0002E84B284368A63D3E700BA879CC00347B3
:10F1B000340419C385079CC01C4093F7070281C71C
:10F1C0009C4089079CC00329040013796900631AD5
:10F1D0000900130B9401FD5B5C449840998F634CCC
:10F1E000F9041C408346340493F70702B336D00079
:10F1F000A5EB13063404D2854E85829AFD5763032E
:10F20000F5041C4011469840998B544481446397FF
:10F21000C700B384E64063D3040081441C4418480B
:10F220006354F700998FBE94014969047D5B63982C
:10F230002405014509A885465A86D2854E85829ABD
:10F24000631E75017D55B250225492540259F24901
:10F25000624AD24A424BB24B456182800509ADBF3A
:10F260003307D40013060003A301C7040347540463
:10F2700093871600A2978906A381E7049DBF854660
:10F280002286D2854E85829AE30E65FB050945B735
:10F29000797122D426D24AD04ECE06D652CC56CA46
:10F2A0005AC8B68983C68501930790063289AA8415
:10F2B0002E8413863504638DF60263E2D706930726
:10F2C00080056387F61863EDD700638006229307F5
:10F2D0003004638EF60A930A24042301D404C9A0DF
:10F2E000930730066385F60A93074006E395F6FE1A
:10F2F0001C40084393F6070893054500C5C61C410A
:10F300000CC363D807001307D002B307F040A30172
:10F31000E404971600009386A68729476DA89307F3
:10F3200000076383F61663E5D7029307E006638A56
:10F33000F6189307F006E390F6FA0C401C4313F816
:10F340000508138547006307080608C39C438DA87A
:10F3500093075007E383F6FE93078007638AF6124C
:10F3600093073007E399F6F61C43D0418145938615
:10F37000470014C383AA070056855D2601C53305DF
:10F38000554148C05C401CC8A301040471A81C433B
:10F39000930A2404938647009C4314C32301F40476
:10F3A0008547D5B793F607041C410CC3B9DAC207E9
:10F3B000C18781BF93F5050408C3C9D983D7070066
:10F3C0001307F0066387E60E970600009386467CD7
:10F3D0002947A30104044C400CC463C50500084040
:10F3E0006D9908C099E3B28A91CDB28AB3F5E7026C
:10F3F000FD1AB69583C505002380BA00B3D5E70290
:10F4000063FFE70AA147631EF7001C40858B91CB81
:10F4100058401C4863C7E70093070003A38FFAFE18
:10F42000FD1A3306564110C84E87CA867000A28561
:10F430002685893B7D5A631E450B7D55B25022546B
:10F4400092540259F249624AD24A424B4561828043
:10F45000A382D50497060000938686730C40084368
:10F4600013F805081C411105630D080208C313F7C2
:10F47000150001C793E505020CC04147B9FB0C40DC
:10F4800093F5F5FD0CC0B1B79C4193E707029CC111
:10F4900093078007A302F404970600009386867002
:10F4A00075BF13F8050408C3E30308FCC207C18352
:10F4B0007DBF970600009386A66D214719BFAE87D2
:10F4C00035B794411C43CC4913F80608138547000F
:10F4D0006306080008C39C438CC301A808C393F6C5
:10F4E00006049C43F5DA2390B70023280400B28A6F
:10F4F00025BF14485686CA8526858299E30F45F3B1
:10F500001C40898B8DE7B2474844E359F5F23E85AC
:10F5100035B785465686CA8526858299E30F65F1FB
:10F52000050A5C443247998FE345FAFEE9BF014A78
:10F53000930A94017D5BF5B7411122C42A842E857C
:10F540009777FF1F23A0075E06C6EFD0DFA2FD5707
:10F550006319F5009777FF1F9387C75C9C4391C39E
:10F560001CC0B240224441018280411122C42E8439
:10F570008395E50006C6E122634905007C48AA9709
:10F580007CC8B2402244410182808357C4007D7709
:10F590007D17F98F2316F400EDB783D7C50001114D
:10F5A00022CC26CA4AC84EC606CE93F70710AA84B4
:10F5B0002E843289B68991C78395E5008946014634
:10F5C00035228357C4007D777D17F98F2316F40009
:10F5D0008315E4006244F240CE864A86B24942492D
:10F5E0002685D24405613DA8411122C42E8483950D
:10F5F000E50006C6E528FD570357C400631BF50068
:10F60000FD77FD17F98F2316F400B2402244410123
:10F6100082808567D98F2316F40068C8FDB783956B
:10F62000E50025A8411122C42A842E85B28536869C
:10F630009777FF1F23A8074E06C6EFD05F91FD57AF
:10F640006319F5009777FF1F9387C74D9C4391C3BC
:10F650001CC0B240224441018280411122C42A844C
:10F660002E859777FF1F23AF074A06C61922FD573D
:10F670006319F5009777FF1F9387C74A9C4391C38F
:10F680001CC0B240224441018280411122C42A841C
:10F690002E85B2859777FF1F23A6074806C6D5207B
:10F6A000FD576319F5009777FF1F9387A7479C4382
:10F6B00091C31CC0B240224441018280411122C446
:10F6C0002A842E859777FF1F23AE074406C6D120D4
:10F6D000FD576319F5009777FF1F9387A7449C4355
:10F6E00091C31CC0B240224441018280411122C416
:10F6F0002A842E85B28536869777FF1F23A407427A
:10F7000006C64520FD576319F5009777FF1F9387BD
:10F7100067419C4391C31CC0B24022444101828096
:10F7200093F5F50F2A966314C5000145828083473F
:10F730000500E38DB7FE0505FDB78280828041118B
:10F7400022C42A842E85B28536869777FF1F23AB85
:10F75000073C06C6B928FD576319F5009777FF1FC8
:10F760009387473C9C4391C31CC0B2402244410153
:10F770008280930780051777FF1F2325F73A7D5571
:10F780008280930780051777FF1F232DF7387D555B
:10F790008280930780051777FF1F2325F7380145DF
:10F7A0008280930780051777FF1F232DF7367D553D
:10F7B0008280930780051777FF1F2325F7367D5535
:10F7C00082800000CDCCCCBF9A9999999999B9BF04
:10F7D0009A9999999999F9BF80D6FFFFA8D6FFFF0A
:10F7E000D0D6FFFFE8D6FFFF02D7FFFF43483537EB
:10F7F000785F424C455F4C49425F56322E320000E2
:10F80000686561642066696C65206572726F722E2E
:10F810002E2E00004C494220696E69742065727278
:10F820006F7220636F64653A202578202E2E2E0A91
:10F83000000000002A200000AADCFFFFB8DCFFFF68
:10F8400012DDFFFFC2DCFFFF08DDFFFF34DDFFFF3D
:10F850007EDFFFFFDCDFFFFF66E0FFFFD2E0FFFFA0
:10F86000FCE0FFFF4F54412053656E6420436F6DF1
:10F8700070200D0045524153453A25303878206EAE
:10F88000756D3A25640D0A00455241534520436F7A
:10F890006D706C6574650D004941505F50524F4D5D
:10F8A0003A2025303878206C656E3A2564200D0AA0
:10F8B000000000004941505F455241534520737498
:10F8C0006172743A25303878206E756D3A25640D72
:10F8D0000A0000004941505F5645524946593A20B6
:10F8E00025303878206C656E3A2564200D0A0000BA
:10F8F0004941505F454E44200D0000004941505F92
:10F90000494E464F200D0000496E697469616C696B
:10F910007A65642E2E000000416476657274697306
:10F92000696E672E2E000000436F6E6E656374650E
:10F93000642E2E200000000053656E642055706414
:10F940006174650D00000000436F6E6E6563746541
:10F9500064204164766572746973696E672E2E0047
:10F96000446973636F6E6E65637465642E2E000068
:10F970004572726F722E2E00496D61676520466C6C
:10F98000616720253032780A000000006A756D70CA
:10F990002041707020000000F0E2FFFFE2E1FFFF75
:10F9A000E2E1FFFFE0E1FFFFE8E1FFFFE8E1FFFF49
:10F9B000AEE1FFFFE0E1FFFFE8E1FFFFAEE1FFFFA7
:10F9C000E8E1FFFFE0E1FFFFDCE2FFFFDCE2FFFF39
:10F9D000DCE2FFFFAEE1FFFF44E7FFFF96E6FFFF3B
:10F9E00096E6FFFF94E6FFFF9AE6FFFF9AE6FFFF29
:10F9F0006AE6FFFF94E6FFFF9AE6FFFF6AE6FFFF75
:10FA00009AE6FFFF94E6FFFF32E7FFFF32E7FFFFD2
:10FA100032E7FFFF6AE6FFFF000102020303030370
:10FA2000040404040404040405050505050505058E
:10FA3000050505050505050506060606060606066E
:10FA40000606060606060606060606060606060656
:10FA5000060606060606060607070707070707073E
:10FA60000707070707070707070707070707070726
:10FA70000707070707070707070707070707070716
:10FA80000707070707070707070707070707070706
:10FA900007070707070707070808080808080808EE
:10FAA00008080808080808080808080808080808D6
:10FAB00008080808080808080808080808080808C6
:10FAC00008080808080808080808080808080808B6
:10FAD00008080808080808080808080808080808A6
:10FAE0000808080808080808080808080808080896
:10FAF0000808080808080808080808080808080886
:10FB00000808080808080808080808080808080875
:10FB100008080808080808080000000000000000A5
:10FB200000000000000000000000000000000000D5
:10FB300000000000000000000000000000000000C5
:10FB400000000000000000000000000000000000B5
:10FB500000000000000000000000000000000000A5
:10FB60000000000000000000000000000000000095
:10FB70000000000000000000232D302B20000000BA
:10FB8000686C4C006566674546470000303132338B
:10FB90003435363738394142434445460000000089
:10FBA00030313233343536373839616263646566F3
:10FBB00000000000E0FE000002000000B4FB0000B6
:08FBC000E1FE0000644F00208B
:10FBC800020000000C00010001000000B8FB00006A
:10FBD800020000001200010001000000CC4F0020CC
:10FBE80002000000C0FB000003000000EC4F0020F2
:10FBF800020000001600010001000000144F002060
:10FC080090D0000004D00000000000004F544120B4
:10FC18004368616E6E656C00BED400000000000091
:10FC2800000000004F54414F54415F4F54414F541E
:10FC3800415F4F54410000000000000012094F547A
:10FC4800414F54415F4F54414F54415F4F54410518
:10FC58001206000C00020A0000000000000000006C
:10FC680038FB000058FB000018FB000000000000F3
:10FC7800000000000000000000000000000000007C
:10FC8800000000000000000000000000000000006C
:10FC9800000000000000000000000000000000005C
:10FCA800000000000000000000000000000000004C
:10FCB800000000000000000000000000000000003C
:10FCC800246B00200E000000B2D4000076D900009A
:10FCD800FF0000000201060302E0FFFF644F00205E
:040000030000C00039
:00000001FF
