:040000006F108005F8
:1000040000000000000000006F0080086F00E02284
:1000140000000000000000000000000000000000DC
:1000240000000000000000000000000000000000CC
:100034006F004006000000006F00E00500000000B3
:100044006F0080056F0060056F0040056F0020059C
:100054006F0000056F00E0046F00C00400000000A2
:100064006F0060046F0040046F0020046F00000400
:100074006F00E0236F00C003000000006F00600306
:100084006F0040036F0020036F0000036F00E00265
:1000940001A001A001A001A001A001A001A001A054
:1000A40001A001A001A001A001A001A001A001A044
:1000B40001A001A001A001A001A001A0B717004068
:1000C400130770052380E704130780FA2380E704ED
:1000D4002396A70223800704371700408347270588
:1000E400898BEDDF835707053717004083472705C2
:1000F400898BEDFF3717004083472705898BEDDF98
:10010400035507058280B7170040930670052380C6
:10011400D704130780FA2380E70403C6B7041376D1
:10012400F60DA385C70423800704137605022DC6A4
:1001340003C6A700118A0DE22380D7042380E704B5
:1001440003C7A700136747002385E7009307004B05
:1001540001000100FD17EDFFB7170040930670057D
:100164002380D704130780FA2380E7047D8923942E
:10017400A70001000100010001002380070423807F
:10018400D7042380E7049306100537270040A30310
:10019400D780238007048280137605046DDE03C6AE
:1001A400A700418A0DE22380D7042380E70403C714
:1001B400A700136707012385E7009307007D01006B
:1001C4000100FD17EDFFB71700409306700523806B
:1001D400D704130780FA7D892380E7041365050497
:1001E4002394A700010001000100010023800704FB
:1001F4002380D7042380E704930630053727004083
:1002040079B74111814601468145114506C6AD2A9B
:10021400B7170040130770052380E704130780FA1B
:100224002380E70403C76704136717002383E704E5
:1002340023800704B2404101828081460146814502
:1002440011459922B7170040930670052380D704FF
:10025400130780FA2380E7047D562396C702238080
:10026400D7042380E70403C76704136717002383B5
:10027400E7042380070401A0BD473305F50201000C
:100284007D1575FD8280411122C426C206C6AA844A
:10029400014463179400B240224492444101828095
:1002A40005041305803E4204C13F4180DDB7B71702
:1002B4000040130700032388E702854723ACF1803D
:1002C40073002030411106C6A921FDBF2303048019
:1002D40015472303E48001002302A480828083075E
:1002E4006480E3CE07FE2303048082808307648056
:1002F400E3CE07FE03454480828083076480E3CE17
:1003040007FE2302A4808280411126C44AC24EC043
:1003140006C61377F50BAD47AA892E899544630663
:10032400F70019456537653F8D444E854537FD59BE
:10033400FD1463983401B240A24412498249410138
:100344008280135509011375F50F453F2209CDB776
:10035400011126CC06CEB704080051371545BD3728
:10036400713769372AC6A53F32459377150089EB63
:10037400136515001375F50FF240E24405618280A0
:10038400FD14E9FC0145CDBF397126DC4ADA4ED8AB
:1003940052D656D45AD25ED006DE62CE66CCB7E7C9
:1003A40000E07D5783AA070022C603AA470023A0C2
:1003B400E71823A2E718B717004013077005238036
:1003C400E704130780FA2380E70483C74704930BE9
:1003D40075FFB684E20793FBFB0F8546AA892E8B33
:1003E400328937240040E187015763FA76016308B4
:1003F400D5008946130700026313D5000157D98F2E
:1004040093F7F70FB71C00402382FC041147230322
:10041400E4801305F00F5D3D094CD13563697C110F
:10042400B70707003E9B378707007955637EEB02C9
:10043400B3079B00636AF702A9476399F90689E445
:100444008144713D26850DA0DA850945753D050970
:100454000345F9FFFD14050B4D3581C49377FB0F5C
:10046400FDF7FD3569FD7D55B7170040130770058D
:100474002380E704130780FA2380E70403C74704B3
:10048400418B2382E704F250B7E700E023A0571121
:1004940023A24711E25432445259C259325AA25A41
:1004A400125B825B724CE24C21618280A5476395AA
:1004B400F90685691309F00FB3069900B3742B018B
:1004C400B6941349F9FFB3749900856B33796901C4
:1004D400416B9387F9FFB3F7270199E363FC340178
:1004E40093D94900C147E3E637FF99BF0569C1695C
:1004F4007D19D9B71305800D6388690113050002BE
:100504006384790113051008CA85FD3B913521DD0B
:100514004E99B3843441D9B7DA852D45F533CA945D
:10052400E30099F20509D933A30FA9FED5BF938738
:10053400F9FF93F7F70F636CFC0803C75C04B70774
:1005440008001377070219E3B78707007955E37D9D
:10055400FBF033079B00E3E9E7F089476390F90474
:100564008980D549E38E04ECDA850945713B11098C
:100574000327C9FF91472320E48003076480E34EE7
:1005840007FE23033481FD17EDFBFD14110B81C419
:100594009377FB0FE9FF6D3B71F5F1B58547E38771
:1005A400F9F4DA852D458D339389F4FFE38A04E861
:1005B400353B93F7390091EB832604800327090028
:1005C40093074900E39FE6E63E89CE84F1BFB54731
:1005D4006396F9001305900BD5399DB5B147130502
:1005E400B00AE38BF9FE9947639EF902DA852D453B
:1005F400213B81448D4BA149D539639674018327EE
:1006040004802320F9008504E39834FF83270480C1
:1006140013172B01635507002312F90015B5232284
:10062400F90039BD9D476399F90281451305B0046A
:10063400E139BD442320090023220900FD597D31FD
:1006440093F77400CA9703C70700FD14398D2380FC
:10065400A700E39634FFEDB3A1476392F904CD39C3
:100664008144630D0B008D479304C0036308FB00B2
:100674009304000563048B01930440041375C507B8
:10068400E30095DC19459931993905458131268571
:10069400AD3109459D316D39E31405DAE9B391476C
:1006A4006399F9001305600615311539130590098E
:1006B40025B7E38709D8F15469B309CDB7170040CA
:1006C400130770052380E704130780FA2380E704E7
:1006D4002396A702828019C1814799E982803387D2
:1006E400F500834607003307F50085072300D7008C
:1006F400E397C7FEE5B719C1FD5781E982809105EB
:1007040003A7C5FF1105232EE5FE7D16E319F6FEAA
:10071400F5B7797122D417240000130424291C404E
:1007240006D626D24AD04ECE91C78297972700008C
:1007340023AE07265C4089CB03D58182BD3F5C4054
:10074400829703D5A182953F1C4063990718972788
:10075400000083C7B727858B95C797270000A38719
:1007640007261727000003479726914763FCE700F5
:100774009D219727000083C79725F9178A07A29719
:100784009C4382979727000083C70729918B89C7C9
:10079400970000E0E78060A51C4491C3829793878B
:1007A40041829843172600000346161E3E8997246B
:1007B40000009384641D9727000083C7E71C939669
:1007C4001700BA9683D606006380061097270000A8
:1007D40083C7871B63F2C70886073E9783550700C4
:1007E4002310070003D581822EC623980182F13598
:1007F4009387C1839C43172500000345E51813170D
:100804002500BA979C43B2458297AA8903D5A18251
:100814006D359727000083C7271713971700832781
:10082400090003D501831345F5FFBA9703D70700E1
:1008340033753501598D2390A70083C704008507BC
:1008440093F7F70F172700002300F714172700006A
:100854000347971363E6E7009727000023860712F0
:100864001C40ADEF9387418398433E8425CB972763
:10087400000083C7171691CB9727000083C737154D
:1008840089E797F0FFDFE780A0411C4082972A8424
:1008940031C59C48AA9717270000232FF70E93878A
:1008A40081839C4385CF03D58182013D228597E0D6
:1008B400FFDFE780E02C2254B25092540259F249EF
:1008C40003D5A1824561D5BB850793F7F70F97261A
:1008D4000000238BF60AE3E0C7EECDBDB2502254EC
:1008E40092540259F249456182809167B7C600402B
:1008F4009387373023A6F6200F10000097270000B7
:1009040093878708884F938781859C4331671307B2
:100914003730F053B7071000FD17918F99833A05CC
:1009240023A6E6205D8D82804111B7170040985FB1
:100934003AC6945F3247E39CE6FE32454101828029
:10094400411106C6D5379726000083C66601858AFD
:10095400B1C6930730333307F502B337F502398351
:10096400CA07D98F1727000013070702584B014500
:100974006303F7023385E740636BF70037653D088F
:1009840089C637856F0813050590198D3E9517277D
:1009940000002325F700B24041018280E547330778
:1009A400F502B337F5022583DE0765BF411122C482
:1009B4001384818418404AC006C61C5F26C213896A
:1009C40041849983858BC1C31C5F97240000938461
:1009D400A4FF93F7F7F91CDF9727000083C7C7FE2E
:1009E40093F707048DC3938701849C4382979727C9
:1009F400000023A3A7FE83C7040093F7F70B172770
:100A040000002303F7FC854717270000A300F7FC29
:100A140083C7440093F7070481EF938781859C4340
:100A2400D844B8D3930700FC172700002300F7FA33
:100A34008387640063D90700832709009C43172731
:100A440000002306F7F818401C5F8583858BC9CB0B
:100A5400F5571CDF01000100010001000100010045
:100A6400010001000100010001000100010001007A
:100A7400010001000100010001000100010001006A
:100A8400010001000100010001000100010001005A
:100A9400010001000100010001000100010001004A
:100AA400010001000100010001000100010001003A
:100AB400010001000100010001000100010001002A
:100AC400010001000100010001000100010001001A
:100AD40001000100938781859C4313075004B8CB20
:100AE40018401C5F9183858B89CFBD571CDF93878A
:100AF40081859C4323A80704854717270000230703
:100B0400F7EC83270900D8430583058B19C7D8431D
:100B1400759BD8C3D843799BD8C3B240224492442E
:100B2400024941018280397106DE16DC1ADA1ED8C8
:100B34002AD62ED432D236D03ACE3ECC42CA46C879
:100B440072C676C47AC27EC09535F250E2525253D0
:100B5400C2533255A255125682567247E247524842
:100B6400C248324EA24E124F824F21617300203090
:100B7400938781859443172700001307E7E4BC5249
:100B840089CF83472700858B89EB83473700858B83
:100B9400FDD797270000238B07E2828037C70040E8
:100BA4001306C00393062003972500009385C5E12F
:100BB40083278720C18393F7F7036369F6008327AC
:100BC4008720C18393F7F70363E6F60083C74500E4
:100BD400858BF9DF828093878185944317270000F2
:100BE400130787DEBC5289CB83470700858B91CBE3
:100BF40097270000238C07DC97270000A38807DCD5
:100C0400828083471700858BF1DFDDB79387818569
:100C1400904337C70040C145E54683278720C183F9
:100C240093F7F70363FBF50083278720C18393F7CA
:100C3400F70363E4F6003C52EDF38280138781846A
:100C44001843AA87185F1583058B25EF0345150004
:100C540015051377C51F19C6B386E70083C626009A
:100C64002300D60095C59726000083C646D693F682
:100C740006040945A1CAB386E70083C636000546C3
:100C840093F5F6066390C504E206E18663CC06029A
:100C94003385E7008347150003470500A20793F750
:100CA4000770D98F1397070141839376074099C63C
:100CB400136707802398E184014582802398F18497
:100CC400E5BF05458280938681858C4236859726CB
:100CD4000000938666CF984593170701C183137864
:100CE40017203E86630408041377072079C303C7DB
:100CF400260013671700172800002308E8CC130701
:100D04000019B8D1130700F8972500002380E5CC1B
:100D1400138781840C4337080010D855719B1367DF
:100D24002700D8D598413367070198C11377261057
:100D340005C31376061059CE03C7060013671700C0
:100D4400172600002302E6C817270000231207C84D
:100D540083C6460093C7F7FFC207E206E186C18354
:100D6400184163D106029396170163DE06063053D9
:100D74008D4663E9C6008546172600002308D6C4BD
:100D84003453FDFE97260000938646BC83864601B5
:100D940063DD060093960701C18663DC0604705385
:100DA400894663E4C6007453FDFE1447F58F1CC7DF
:100DB400828003C716001367170097250000A385D8
:100DC400E5C017270000230307C0172700002311DD
:100DD40007C0A9BF03C73600136717001726000012
:100DE400A305E6BE95B78546172600002300D6BEA8
:100DF40051BF54471396060163510602B70610000B
:100E0400FD1674D397260000938606B8944E850683
:100E1400172600002326D6B849BFA166D58F71B71F
:100E2400397106DE16DC1ADA1ED82AD62ED432D24E
:100E340036D03ACE3ECC42CA46C872C676C47AC2CE
:100E44007EC05135F250E2525253C2533255A2552C
:100E5400125682567247E2475248C248324EA24E58
:100E6400124F824F216173002030172700001307AF
:100E740067B78346B7019727000083C7F7B9B697CA
:100E840093F7F70FFD4663EAF6044C4B97260000F0
:100E9400A38AF6B49727000083C7D7B4054733174E
:100EA400F70097260000A389F6B66D8F1DEF9726ED
:100EB400000083C6B6B6B3F6D70213050002814715
:100EC40033D6F500058A13F8F70F09CE6399E600C7
:100ED40097270000A38807B1828081177DB7050793
:100EE4001377F70F8507E39DA7FC828093874186DC
:100EF4009843B75702009387279F832607091396C1
:100F04005600635806008326070913966600634457
:100F14000600FD17FDF3828051C9AA870145C9C99E
:100F24008D07C207C183F19BC207C1831307400326
:100F3400636BF70213878187084313870187144380
:100F44006396A60217270000130747A0185B014504
:100F540025C34111C20706C60545DD8D0297B2407F
:100F640001454101828013874187F9B70357650022
:100F740005EF035745006369F702B306F7402146BE
:100F84006370D6021041938687001D8FAA9661175D
:100F940090C22392E6002393060014C12312F500A5
:100FA4002313B50021058280084159BF0145828081
:100FB400828001CD9387818703A8070093870187E7
:100FC4008C430147C28763E3B70082809443636F15
:100FD400F50663EDA60613868700E368C5FE03D510
:100FE4006700216605066317C50003C6C1870506A9
:100FF400238EC186239307006384070313864187E6
:101004001042630FF6000356670019EA83D74700BE
:1010140014C383564700B697A1072312F700BA8773
:101024009843E304B7FA938641879442E30FD7F8D1
:1010340083566700D9FA83D64700035647001843FE
:10104400A106B2962392D70098C382803E87B687C2
:041054009DBF00003C
:10105800974100209381810617710020130101FA3E
:101068001305400097250020938545791736002001
:101078001306067E63FAC5008322050023A05500E7
:1010880011059105E3EAC5FE177500001305851AD9
:10109800973500209385C57B1386018163FAC500C7
:1010A8008322050023A0550011059105E3EAC5FE3A
:1010B8001385018197550020938505216377B50035
:1010C800232005001105E36DB5FE9302800873A087
:1010D8000230972200209382627293E2120073908A
:1010E8005230971200009382A2EB7390123473006F
:1010F80020303D432A876373C3029377F700BDEF1F
:10110800ADE5937606FF3D8ABA960CC34CC30CC76F
:101118004CC74107E36BD7FE11E28280B306C34098
:101128008A069702000096966780A6002307B700F4
:10113800A306B7002306B700A305B7002305B70029
:10114800A304B7002304B700A303B7002303B70021
:10115800A302B7002302B700A301B7002301B70019
:10116800A300B7002300B700828093F5F50F93968C
:101178008500D58D93960501D58D61B79396270087
:101188009702000096968682E78086FA9680C117B5
:101198001D8F3E96E374C3F8A5B7B717004003C781
:1011A80077051377E70FA38BE704130700F8A38DE0
:1011B800E7043D47238CE70413075003A38CE70497
:1011C8008280B717004003D587005D715ED642055F
:1011D800418186C6A2C4A6C2CAC04EDE52DC56DA17
:1011E8005AD862D466D26AD06ECE9377050C1307AC
:1011F8000008814B6388E71813070004639CE71411
:10120800B7240D8F7D8993840480B3D4A402916799
:10121800938707E8BE94A167938707D0B3D4F402F5
:10122800EF50C03397770000938747C79043D44364
:10123800EF409067EF5000752A8B939C040103D907
:10124800018193DC0C016315090005691309098004
:10125800B7170040130770052380E704130780FAC7
:101268002380E704371A00400547939D0401096C61
:1012780085662389E704D14A814E8145130D0A0406
:1012880013087005130680FA894893DD0D01130CC5
:101298000C712943FD1623000D012300CD002316F0
:1012A8002A0323000D0083472A05898BEDDF835726
:1012B8000A0583472A05898BEDFF83472A05898B11
:1012C800EDDF83570A0523982181C207C18333853F
:1012D80097419319050193D9094163840916338706
:1012E800B902635E070C850EC20E93DE0E0163E839
:1012F800D80D63D9050A3305B04093150501C1859A
:10130800C204C18063D7350B0965130505713385A0
:10131800A502B7170040130770052380E7041307D9
:1013280080FA2380E7042396770323800704334554
:10133800950242054181B640264496440649F25931
:10134800625AD25A425BB25B225C925C025DF24DF9
:1013580061618280B1E3B77489097D8993840480CF
:10136800B3C4A4029167938707E8BE94A1679387E3
:1013780007D0B3C4F402EF50601E9777000093873C
:1013880067B26DB597770000938707B1856403ABA3
:1013980007009384843855B5130B0000954471BD3C
:1013A8003A89D5BDB387FC409399070193D9094180
:1013B80081BF0965130505713385A9028DBF338582
:1013C800B74163E4FC003385FD40330585033344AE
:1013D800B5036345830013150401A9BF4E8536C6BE
:1013E80042C432C2EF50A04DDA85EF50201EEF50B4
:1013F800E046931E050193DE0E41B307D941C207AB
:10140800C183056E3E871246224889482943B24661
:1014180063E3C701368742074183631A270113072D
:101428001900634430011307F9FF42074183FD1A8D
:1014380093FAFA0FCA8BCE85E3940AF62398E180D3
:1014480059BF0145CDBDB717004003D587005D7171
:1014580086C642054181A2C4A6C2CAC04EDE52DC7D
:1014680056DA5AD85ED662D466D26AD06ECE02C632
:101478009377050C13070008638BE7141307000420
:10148800639FE710B7240D8F7D8993840480B3D4BC
:10149800A4029167938707E8BE94A167938707D052
:1014A800B3D4F402EF50800B977700009387079F1F
:1014B8009043D443EF40503FEF50C04C2A89939A51
:1014C800040103DB218193DA0A0163150B00056B24
:1014D800130B0B80B7170040130770052380E70430
:1014E800130780FA2380E704939B04010547896961
:1014F800056A2389E704D14D014D814C93DB0B012B
:10150800938909717D1A5A8597200020E780C03A8F
:10151800330C5541420C135C0C41239961816301E2
:101528000C16B3079C0363D1070E050D420D135D1E
:101538000D01894763EAA70D63DB0C0A3305904167
:10154800931C050193DC0C41C204C18063D88C0B49
:101558000965130505713385AC02B71700401307F9
:1015680070052380E704130780FA2380E7043247D5
:101578002396E702238007043345950242054181FB
:10158800B640264496440649F259625AD25A425BFA
:10159800B25B225C925C025DF24D61618280B1E3D4
:1015A800B77489097D8993840480B3C4A4029167C0
:1015B800938707E8BE94A167938707D0B3C4F40262
:1015C800EF40D079977700009387C78DD5B5977787
:1015D80000009387678C856403A907009384843887
:1015E800F9BD130900009544D9BD3E8B29BF338549
:1015F800AA40131C0501135C0C41B9B70965130512
:1016080005713305AC028DBF63FEAA003305754131
:1016180033053503A9473344750363C88700131599
:101628000401B1BF3385AB40E5B76285EF5020298F
:10163800CA85EF40B079EF506022131D0501135D94
:101648000D413307AB41420741838565BA87636320
:10165800B700D287C207C183639A670193071B004B
:10166800634480019307FBFFC207C183FD1D93FDFF
:10167800FD0F5AC6E28CE39A0DF62399F18045B71F
:101688000145FDBD41112A83014E930E407E130F83
:101698000019930F400663EB6E0A930800191303B1
:1016A8004006B3781503854E0D4FA14F337365027D
:1016B8000D891335150063E5BE0C1308F6FF79464E
:1016C80072984208135808013307C70213D6170047
:1016D800BE0732976146B3F6C60213068070B3861A
:1016E800C6023697A166F58F42075D8FB71700408F
:1016F80083C6F70293F60608A307D1000346F10054
:1017080083C6F70293F60608E394C6FE8346F10003
:1017180093F6F60FF1DE930670052380D70493063F
:1017280080FA2380D70423AA070383C6170393E606
:101738000608A388D702D8DB03C717031367070473
:10174800A388E70223800704410182807D13336860
:10175800E3039308E016630E08003368F303930865
:10176800D016630808009378330093B8180093885C
:10177800D81633081E01131E0801135E0E0121BF7F
:101788006393E50305486386080001486303030083
:101798002A8871087298FD15131E0801C205135E88
:1017A8000E01C18109BF13F8150063F4BF00790861
:1017B800D5B713381800E5BF914763EEB70217672E
:1017C80000001307A76E8A05BA959C41BA978287CD
:1017D800B717004003A7470B1345F5FF698F23AAE6
:1017E800E70A03A7070B698F23A8E70A03A7070AD5
:1017F800798D23A0A70A8280B717004083A6470BDC
:101808001347F5FFF98E23AAD70A83A6070B558D30
:1018180023A8A70A83A6070A758F23A0E70A828050
:10182800B717004003A7470B498F23AAE70A03A766
:10183800070B1345F5FF45BFB717004083A6470BB5
:101848001347F5FF758F23AAE70A03A7070A598DDF
:101858004DB7B717004003A7470B498FEDB7B71728
:10186800004003D58700420541819377050491EB39
:101878009377F5013755E801130505803345F502DF
:1018880082809377050C130700046397E70093772A
:10189800F50137459C1CCDB72165130505D082801D
:1018A800B7F700E0C8439C4782808147373700403C
:1018B800A14663C4C700328582800345B740E38EE2
:1018C800A6FE3385F5000345050085072304A740D8
:1018D800CDB797370020938767FE9C4317570020A2
:1018E8001307879E3E95636EE50017670020130770
:1018F800E7506368A700173700202321A7FC3E851F
:101908008280FD57EDBF411122C406C62A84813F5B
:101918002947B307E502B2408D83B3D78702224433
:101928009507B3D7E70237370040C207C1832316AC
:10193800F74041018280716541111305052006C6F3
:10194800D937B7370040130770F82381E7400D47B0
:10195800A381E74013070004A380E74005472387D6
:10196800E740B24041018280411106C6EFF07F8511
:10197800BD4763F4A700EFF0DF84F134BD4763F39C
:10198800A700D134B24083D5218103D5018141011B
:101998006F00F03A411193962500AA852D4506C699
:1019A80097200020E780001EB24001454101828057
:1019B800411126C29394250022C44AC02A84328940
:1019C800A686AA850146254506C697200020E780F9
:1019D800601BA6864A86A285294597200020E780B5
:1019E800601AB24022449244024901454101828072
:1019F800011122CC06CE3714004026CA4AC84EC66A
:101A080052C483447405034AB405834984050349D1
:101A18009405EFF08FF88347A40593F4F40F137A35
:101A2800FA0F93E71700230DF40493F9F90F1379CC
:101A3800F90FB717004003C7A705058B6DFF03D53E
:101A4800C705A38D4705238C3705A38C2705A38BD2
:101A58009704F2406244D2444249B249224A05619D
:101A6800828041119397050122C406C6C1872E843E
:101A780063DB0700752311C1B52B2165218DB240A9
:101A880022444101828093F7150013C51500E5FB38
:101A98009397250163D00702EF10503CF13537F6D4
:101AA8000200130606E0896503C54181EF00501C5A
:101AB8000965E9B7939715010145E3D207FC176556
:101AC800000013056544EF50201E1306006491655D
:101AD80003C54181EF00D01911654DB71D71494605
:101AE800976500009385C53D176500001305C5502F
:101AF80086CEEF00700101E9176500001305853DEA
:101B0800EF50801A01A037F700E0F9575CC7FD577E
:101B18001CCB8566B7E700E023A0D710130670102A
:101B280010C3B8434146B0C323A0D718B8C30100B7
:101B380001001306C00381454808EF00C07B9737B2
:101B48000020938727E03ECA896793870780231C74
:101B5800F100ED47A301F1029307A0102312F1024F
:101B6800D1472303F102A167938707E03ECE970789
:101B78000000938767E2BEC497070000938787E356
:101B8800BEC685472304F102B5472308F10297072B
:101B98000000938727D13EDAB7F5070097070000C2
:101BA800938747E53EDE814697070000938707DC69
:101BB8007000E1051945BEC097200020E78080FC31
:101BC80058088147994670003E96034606008507E7
:101BD8000507A30AC700E398D7FED24791C7035762
:101BE800810185676373F70001A04808EF00702A38
:101BF800AA8501C9176500001305052FEF409076E7
:101C080001A0F640256182804111170500001305E7
:101C180085E506C622C4EF005024138441812300C1
:101C2800A4002928034504002244B24037F60200E4
:101C3800130606E0896541016F009003411106C64D
:101C480022C493067005371400402300D4041307F8
:101C580080FA2300E4048347F40293F7A70FA3074D
:101C6800F4022300D4042300E4048347F40293E736
:101C78002700A307F402CD391305407E230004048E
:101C880081470147814605468545ED3A2244B240E1
:101C9800014541016F00D04A91476301F514411194
:101CA80006C622C426C24AC063E0A70289472E841A
:101CB800B2846308F5028D476306F50CB2402244EE
:101CC800924402494101828093072002630DF5087E
:101CD80093074002630CF50ED147E311F5FE9145D9
:101CE80051A8A1ED8305060017650000130505221C
:101CF8001769000013094923EF40D06683C5140013
:101D0800176500001305C521EF40D06583C714008F
:101D1800636AF4002244B2409244024929454101D1
:101D28006F405068B387840083C527004A8505043F
:101D3800EF4050631374F40FD1BF9377140099C721
:101D4800176500001305851EEF40107609883DD4FD
:101D58002244B24092440249176500001305C51D8C
:101D680041016F407074176500001305251EEF4090
:101D7800B073A1452244B2409244024903C5C181CF
:101D88004101E1A3DDF9830506001765000013058D
:101D9800251D1769000013092919EF40B05C83C598
:101DA8001400176500001305A517EF40B05B83C743
:101DB8001400E371F4F6B387840083C527004A85CD
:101DC8000504EF40305A1374F40FD5B717650000B7
:101DD8001305451AEF40506DC14569BF914503C5CC
:101DE800C18145B741119397050122C406C6C18731
:101DF8002E8463DB07002D2411C1ED2A2165218D76
:101E0800B24022444101828093F7150091CB13061A
:101E1800803E894503C5C181A12D13451400CDB766
:101E280093F7250095CFEF20D0261735002013050E
:101E380025A2834705009306F00F1306F00FFD1740
:101E4800A945173700202305F7A0EF10706A13067D
:101E5800803E894503C5C181212D134524004DB716
:101E680093F7450085CBEF20D022173500201305C6
:101E7800259E834705009306F00F1306F00F85078C
:101E8800A945173700202305F79CEF208047134505
:101E98004400BDB793F785008DCB17650000130587
:101EA800A510EF4070604145EF20200E83C7C18127
:101EB80009C913064006A1453E855D2B13458400DC
:101EC80081B71306803E8945C5BF93F705010145D3
:101ED800E38807F2176500001305C50EEF40D05CD4
:101EE8001305800CEF20104C11C913060019C145C9
:101EF80003C5C181B52B1345040119B79306F00F2B
:101F08001306F00FA9451735002013056594EF2037
:101F1800403FD5B779711306000281450A8506D678
:101F280022D4D12E17050000130505ECEF00E0724E
:101F3800B7477671938797123EC4B7575500938772
:101F480057553EC6FD573ECA85472300F1009707FF
:101F580000009387A7D41384C1813EC8ED5723009E
:101F6800A400230EF1000A859147A30CF100EF109D
:101F78009045AA851765000013050501EF40903EBE
:101F88001765000013058501EF4010520345040052
:101F9800A145652EB2502254456182804111130536
:101FA800800406C697200020E780A09537170040D8
:101FB8008327870A8D451305002093E707202324EC
:101FC800F70AEFF06FFFEFF01F9717650000130592
:101FD8002500EF40704D176500001305E501EF403F
:101FE800B04CED3C1531EF2050732D379720002071
:101FF800E78000AD1DC18346E5FF1307F00F914749
:10200800639EE600411106C697200020E780207AEB
:10201800B24081473E854101828095473E85828056
:10202800138701821C43411122C426C24AC006C636
:1020380001440149BA8489E7A165D1210DC401A8E9
:1020480003C7E7FF6318A7021DC8A165FD2C9840C8
:10205800832784FF6317E40223A0F182FD57232C12
:1020680004FE230FF4FE2285B24022449244024922
:102078004101828011E03E8983A787FF6DBF3E84BE
:10208800E5BF232CF9FED9BF23A001828280938764
:1020980081839C4399E33E85828003D7270063169A
:1020A800B70003C70700E308A7FEDC47E5B74111FF
:1020B800939705014AC006C622C426C2C1872E8945
:1020C80063DE0700B13F11C1353721653345A900EB
:1020D800B24022449244024941018280AA860145C5
:1020E800E5D901443D47B3578940858B95CB938704
:1020F800C1828443BD4791E28147A2978E07054577
:10210800BE9433158500131405019C40C8404180D6
:10211800829723A0040023A20400334524014DBF65
:102128000504E312E4FC0144CDBF974700209387E0
:1021380067019C53411122C406C61384418095C788
:10214800829723A2A1800840B74703009387D73F0F
:102158003305F502B7A72600938737ECB24022442F
:102168003E9523A2A1804101828097470020938752
:10217800270118409C4BBA9723A2F180E9B79387AF
:10218800418290439746002083C696FF814713F704
:10219800F70F6360D70A174700200347D702914714
:1021A80063E0E70A9747002083C78706918BC9EB4E
:1021B8000111680006CE22CC26CAEF009065FD56B4
:1021C800630FD50C32479747002083C7D7F863F3CE
:1021D800E70C174700201307A7FA404717470020C6
:1021E800034787F76305D406058B21CF514733048E
:1021F800E40263F1870A97200020E780A0F2B24743
:102208006373F400A287174700200347D7F4998F18
:102218003E95974700209387E7F28387470163CD70
:102228000702B707C0A86369F502B70740573E958C
:1022380025A085071397170032970357E7FF21DB7F
:102248008280130790023304E40205805DB76207B9
:102258006187635707001D8D19E93705C0A801A8D4
:10226800E37BF5FE3707C0A8B307F7403E959747CD
:102278000020938727EDDC53829709ED97470020CC
:10228800938707F49C4F99C7EF001077EF10A05081
:10229800EF00F06AF2406244D244056182809747B9
:1022A80000209387E7EDDC47E386A7FE1747002069
:1022B800130747E983464701BA84858A9DC6514476
:1022C800338487029747002083C7F7E8E3F487FC45
:1022D80097200020E78000E59747002083C7B7E7ED
:1022E8001D8C2295838744011DBF130490023384FB
:1022F80087020580C1BF2A9609E582800505A30FDC
:10230800B5FEE31DC5FED5BF81476314F60005453C
:1023180082803307F5008507B386F5000347070079
:1023280083C6F6FFE383E6FE01458280814711E913
:10233800014582803307F50003470700E31AB7FE1B
:102348008507E319F6FE054582809747002083C775
:1023580037E3637FF500138741829317150008431D
:102368003E9583570500DD8D2310B5000145828019
:102378000D458280FD570111174700202328F7E0FB
:102388009387818322CC80434EC697490020938946
:1023980069DB26CA4AC852C456C206CE5AC02A8920
:1023A80081444E8A974A0020938A8ADD18448147DF
:1023B8006374E900B307274103A749021CC409CB8A
:1023C80003A7CA0063F6E700174700202320F7DCBD
:1023D800A1E7835524009DE95C44A1E823ACF18280
:1023E800032BC400228597200020E780403C5A84B4
:1023F80055FC83274A0285CF6244F240D2444249C1
:10240800B249224A924A024B056195BB0345040032
:102418002D3F5C4081CB1CC483572400D5DFA284A8
:102428004044F9B71C44CDDBC5BFDCC455BFF240FE
:102438006244D2444249B249224A924A024B056157
:1024480082809747002083C7B7D36371F50213874B
:10245800418293171500084393C5F5FF3E958357AE
:102468000500FD8D2310B500014582800D45828051
:102478009747002083C7D7D06364F5000145828061
:10248800411122C426C24AC006C62A842E89B284B3
:10249800FD3E01C504C505452DA0936504F0C205A0
:1024A800C181414597200020E780C0260DE197476C
:1024B8000020938727C99C5B81C7A2851145829715
:1024C8000145B240224492440249410182809387E7
:1024D80081839C438DE323ACA18285472326050095
:1024E80004C52311250123008500A300F50023223C
:1024F800050055B7BA87D84775FFC8C7F9BF411156
:1025080022C426C24AC006C6AA842E8949362A840D
:1025180019C1231105009747002083C767C6639434
:10252800970023982183CA852685213F014511E01C
:102538001945B240224492440249410182802394C1
:10254800A1822395B1828280411106C623AAA18265
:102558000295B2409747002023AEA7C2014541012A
:102568008280994763E9B7008A05974700209387D7
:1025780067C3BE9588C18280411106C6EF30302DF1
:1025880071468145174500201305C5C1AD331306B3
:102598004002814517450020130585BEA93B23ACA1
:1025A800018223AA01829747002083C767BB13D5FE
:1025B80027008D8B3E958D473305F5029305101046
:1025C80035051375F50F97470020238CA7BA99474F
:1025D8003305F5021305050F97200020E7808013C7
:1025E80023A6A18225C9994717460020034666B944
:1025F8003306F60281451306060FF5399387C18223
:102608009C439387070F23AEF182174700200347A7
:1026180047B70A07BA9723A2F182BD3441269387A8
:10262800C18398439747002083C797B5939627009F
:10263800BA96170600001306C6A790C2938627000D
:10264800850793F7F70F8A0797450020A38AD5B225
:10265800BA9790C3B240410182809747002083C750
:1026680037B2174700200347C7B163F1E702138762
:10267800C18318439386170017460020A302D6B0DB
:1026880093962700369708C33E8582809307F00FFC
:10269800E5BF1C41638F071841777D8FB70600207F
:1026A80089476319D718035745006305071841116F
:1026B80022C419462A849305F00F590506C6BD3170
:1026C80005478D476302E5161C4481CB5858994746
:1026D800630C0714185C630907141306C0038145CB
:1026E80017450020130505A639311306C003A28536
:1026F80017450020130505A597100020E780607D89
:102708009747002083D7C7A497460020938686A3BF
:1027180099E79307001017470020231BF7A2974754
:10272800002083C707A391E78547174700202302A6
:10273800F7A29747002083C7D7A191E7ED4717472E
:102748000020A308F7A09747002083C7A7A091E718
:10275800954717470020230FF79E9747002083C708
:10276800779F91E7854717470020A305F79E97476E
:10277800002083C7779E99E783C706011747002083
:10278800A30CF79C9747002083C7E79C91E7D147A4
:10279800174700202301F79C9747002083C7679CB1
:1027A80095E7174700200347279B13168701618683
:1027B8009307C002634806009377170093B7170082
:1027C8009387D70217470020230DF79897470020D3
:1027D80083C7779895E7174700200347E7971316AD
:1027E800870161869307C002634806009377170044
:1027F80093B717009387D70217470020A30DF794C4
:102808008347D40191E7894717470020A30AF79423
:102818009C5691C78297974700202396A796A93B75
:10282800FD572387F1868147B24022443E85410106
:10283800828089473E858280011122CC06CE2A8477
:102848002EC6EFF09F8EB245F240818D33A5A502CA
:10285800229562441375F50F05618280011122CC1F
:1028680006CE2A842EC6EFF05F8CB245F240818DE9
:1028780033A5A50222956244420541810561828003
:10288800974700209387078C985725C3411122C486
:1028980026C206C6BE840297174700200357A78E94
:1028A8002A8441C7BA876373A700AA87C207C1836E
:1028B800BA866373E400A286C206C182958F514727
:1028C8006355F706DC5491C3829785471747002064
:1028D800230CF78EEF009058974700202395878A9E
:1028E800B24022449244410182809747002083C726
:1028F800A78D9DE7974700209387878C83C797000C
:10290800850793F7F70F17470020A30FF78AA18BC6
:102918009DC78547174700202318F78A6F00D059AD
:1029280097470020A382078AD5BF9747002083C70F
:10293800A789DDD72244B24092444101C5B78280BD
:102948009747002093870780D857011122CC06CEDD
:102958003E8401C72AC60297324509CD23A0A18427
:10296800171500201305857DC536F24062440145E0
:10297800056182808307440163DD070097470020D3
:1029880023AC0780971700209387E77523A0F1846D
:10299800C1BF971700209387E778CDBF011122CCDC
:1029A800173400201304047A084406CE26CA4AC8FD
:1029B80001E90545F2406244D244424905618280FA
:1029C8005C58E5DB185C75D770008545829718441C
:1029D800B247E300F7FE9305E004173500200355DE
:1029E800257797200020E780E0D21737002023279B
:1029F800A77A61D117360020035686759305F00F24
:102A0800EFF07F8F814417390020130969779737D2
:102A1800002083C707740326C90163C1F402328505
:102A280097200020E780A0D801459737002023A7EA
:102A380007769737002023A50776ADBF9735002086
:102A480083D50571B38795020844185C898185048C
:102A58003E9508C2029765BF011156C2973A0020F9
:102A6800938A4A6E83A78A0022CC4AC84EC606CEED
:102A780026CA52C45AC0AA892E843289638507227D
:102A880003A74A03630707147D476366A7149734AF
:102A980000209384E46E03AAC40163170A0A9565AB
:102AA800938515E0173500200355856A9720002087
:102AB800E78040C69737002023A2A76E2A86630ABC
:102AC800051083A74A0303A58A009735002083D5FC
:102AD80025688981829783A78A0003AAC4011737CA
:102AE8000020232FF76A8947639CF908C1476312BE
:102AF800F40E9735002083D5A565938505FC91478D
:102B0800B3C5F5028A05D29503C705009307A0054A
:102B1800631DF70A83C715006399370B4A85228618
:102B2800910597100020E780C03ADC4C52856393EA
:102B380047150145F2406244D2444249B249224A0B
:102B4800924A024B056182809850E38EE7F89565BA
:102B5800938525E0173500200355855F97200020D1
:102B6800E78040BB2A8A35C52A8683A74A0303A57E
:102B78008A009735002083D5A55D89818297A5B7FE
:102B88008D47639DF900C1476315F404973500200C
:102B980083D5055C938545FDF199B5B79147639A4F
:102BA800F900631834039735002083D5655AA115B9
:102BB800E5B7C147639FF900A14763EC87009735E4
:102BC800002083D5E558C115C1BFDC4C52856397F9
:102BD800470D294585B71307F006568B6361A70A89
:102BE800130A05FE1947334AEA021737002003572C
:102BF8002756973A0020938AAA58330AEA023E9A3F
:102C080083A70A026395470183A4CA019DE493053B
:102C1800E004173500200355A55397200020E780CE
:102C280060AFAA845DD583274B039735002083D5F1
:102C380025522A8689815285829791451307A005D6
:102C4800898193972500A69783C607006393E604B6
:102C580083C61700639C360385058A052286A695D8
:102C68004A8597100020E780C02683A7CA01E3821F
:102C780097EC268597200020E78060B35DBD130799
:102C8800E007E368A7F4130A05F985B783D5270099
:102C980045BF83A7CA01E38E97F2268597200020B7
:102CA800E780E0B03DB7973700209387674DCC4F5A
:102CB8008DD191479306A0058983139727002E97F6
:102CC80003460700E317D6F003461700631C3601D6
:102CD80085078A072286BE954A8597100020E780D7
:102CE800401F81BD83572700C1BF973700209387B6
:102CF8006745984739C79C5FA9C705476313E5042B
:102D0800411122C41734002013048447504C06C6CE
:102D18000DC608509735002083D585438981829751
:102D2800484C97200020E78080A89737002023A7E9
:102D380007469737002023A50746B24022444101A1
:102D4800828082800111173700201307A73F4EC6E3
:102D58008329870022CC26CA4AC806CE52C456C246
:102D6800AA842E843289638A09201C5FBA8A99EB67
:102D78002945F2406244D2444249B249224A924A21
:102D8800056182805C5BEDD7FD4763E9A70E973943
:102D980000209389E93E83A7C901B1CB03A58A0026
:102DA80083A709026395A70689476393F408C14777
:102DB800E310F4FC173500200355853991471305B6
:102DC80005FC3345F5029317250003A5C9012286A2
:102DD800CA853E959307A0052300F500A30095003A
:102DE800110597100020E780C00E014559B79305DB
:102DF800E004173500200355A53597200020E7800B
:102E080060919737002023ABA73849F995B783A776
:102E18004A0303A6C9019735002083D56533898104
:102E2800829783A78A0017370020232BF736ADBF78
:102E38008D47639EF400C147E31CF4F21735002068
:102E480003550531130545FD9377C5FFBDBF914770
:102E5800639AF400E31E94F0173500200355452FBC
:102E68002115DDB7C147E395F4F0A147E3E287F008
:102E7800173500200355C52D4115F9B79307F006FE
:102E880063EAA706930705FE1947B3C7E702173792
:102E980000200357E72B173A0020130A6A2EB3873E
:102EA800E702BE998327CA01A9CF83270A02639A3A
:102EB80037070325CA0191461308A005FD5593D786
:102EC8002600C207C183139727002A9703460700E5
:102ED800631D060783481700035627006395980665
:102EE800B306D64063CF860485078A072286CA853B
:102EF8003E95C5BD9307E007E3ECA7E6930705F900
:102F080079B79305E0041735002003556524972009
:102F18000020E78020809737002023A1A72851F5BB
:102F280081BD83A74A030326CA019735002083D5AC
:102F3800252289814E8582979737002023A237273B
:102F48008DBFA300B700B2869DBFB3858600173634
:102F580000200356E61F9105130606FCE3FAC5E0B8
:102F6800130634001376C60F1106B2962300070124
:102F7800A30097002311D70085BF973700209387B8
:102F88002720D44FBE89A1C203A5C90191461308C1
:102F9800A005FD5593D72600C207C18313972700C4
:102FA8002A97034607006316060583481700035649
:102FB800270063989800B306D640E3D786F2A300AB
:102FC800B700B286C1BF8357C70017350020034535
:102FD80045189305E0043305F50242054181971031
:102FE8000020E78020739737002023A9A71A49FDFE
:102FF80041B3173600200356A6159735002083C520
:103008004515B385C502338686001106E3E2C5D6A9
:1030180081BF9737002083C7D716638007124111F5
:1030280026C206C6AA8422C44AC07D55CDC8973791
:1030380000209387671EB8475DC31739002013091E
:103048006910030549019735002083C57511850569
:103058007D540548B708C0A8130E000C83467700B6
:103068008327070863990605035307078356070351
:10307800637DD3060346D700631906070326070FA7
:103088002DE60326470935E20346F700631FC60508
:10309800705FB386664079163306D60283264708E2
:1030A800B356D602B297AE96C206C182231BD70684
:1030B80063500504958F63F387003E84184359FFD6
:1030C800938701849C4382976368A402B307A44052
:1030D8009CC09C4035476361F70423A00400B240BC
:1030E8002244924402494101828083566707C9B746
:1030F800E3F2D7FCC6977DBFB307854063DB0700C3
:1031080083074901E3C407FCB707C0A8A297898FC2
:10311800C1B723A0040075BFCD179CC08307490120
:1031280063D50700130534FF5DBFB147E3EC87FEA5
:103138003705C0A84D1522955DB77D5582809386C9
:10314800818490429737002083C7E7001397870050
:103158000C4293F7F703A2074D8FB78500014D8FF7
:1031680018C21842F1759385F50F6D8FD98F1CC25F
:1031780037170040930770052300F704930780FA78
:103188002300F70401000100173600200346A6FCBF
:10319800D14763FBC7048357270293E7070123112D
:1031A800F7029C424567130787E7D8D7984FA1666F
:1031B800558F98CF984FE1769386F607758F8D6671
:1031C80093860650558F98CF13072015D8DB97178D
:1031D800002093870715B20737070014B183D98FEA
:1031E80037E700E07CD7828083572702C207C18374
:1031F800BD9BC207C18365B717370020130747FC7B
:103208009387C1849C43544B184F096694CBD4CB05
:1032180098CFD8CF9447D18E94C7D847518FD8C765
:1032280094470566D18E94C7D847518FD8C798431D
:103238001367270098C398431367070298C38280CF
:10324800938741859C4399CB944BD04B9842518F9F
:1032580098C294439C479842D98F9CC29387818592
:103268009C43A8CB1713002067000313938741855D
:103278009C4399CBD44390479842518F98C2D447E6
:10328800DC4B9842D98F9CC2171300206700030EAD
:10329800938741859C4399CB944BD04B9842518F4F
:1032A80098C294439C479842D98F9CC29387818542
:1032B8009C43094798C3171300206700230B938783
:1032C80041859C4399CB944BD04B9842518F98C2DF
:1032D80094439C479842D98F9CC2938781859C438D
:1032E800A8CB1713002067002312938741859C43BE
:1032F80099CBD44390479842518F98C2D447DC4B1E
:103308009842D98F9CC2171300206700830C973707
:10331800002083C747E413D7170097570000938707
:10332800A7CBBA970385070082809737002083C709
:10333800D7E98DE7173700200347F7E89307B7FF6A
:1033480093F7F70F894663EBF60097370020238E33
:10335800E7E6854717370020A309F7E68280138739
:1033680081851C4394438D8A85C2B44BE19AB4CBC2
:10337800944393E6860094C39C438D83858B89C7C9
:1033880001000100010001001C4323A807049387E2
:1033980041859C4399CBD44390479842518F98C21A
:1033A800944BDC4B9842D98F9CC297370020A38C52
:1033B80007E08280938681859C4298430D8B05C3E4
:1033C800B84B619BB8CB98431367870098C39C435D
:1033D8008D83858B89C70100010001000100938757
:1033E80081849C4337080010D857719B13672700C6
:1033F800D8D798433367070198C3984F370800F91F
:103408007D1833770701370800023367070198CF23
:10341800984F137737F81367870198CF138741863A
:10342800032807000327C802759B2326E8021377A1
:10343800F6079043137606F8598E90C388C7CCC315
:1034480097370020238E07D697370020A38C07D6FE
:10345800984297370020238707D6FD475CC3938798
:1034680041859C4399CBD0438C471442CD8E14C2DE
:10347800D047DC4B1442D58F1CC285679387870BD6
:103488009736002023A4F6D485471CC393079005DC
:103498003CCB8280411197370020A38807D222C4F1
:1034A80006C626C217340020034424D29547631861
:1034B800F40697370020938727D6985F3E84834683
:1034C8007700A9CA03465700B755550037C5898EF6
:1034D80093855555130565EDF13D9736002083C654
:1034E80096CE9387A6FF93F7F70F0547636AF70011
:1034F80097370020238BD7CC97370020A387E7CCBA
:10350800954717370020A300F7CC1C5C130710FA67
:103518002383E700B24022449244410182809947C4
:10352800631DF40297340020938404CFBC4003C782
:1035380077006DD303C65700B755550037C5898E38
:1035480093855555130565EDB53597370020A38C40
:1035580087C6BC40130710FB65BF9D47E31CF4FA00
:103568009737002083C787C7858B17360020034607
:1035780016C99736002083C686C89DC39737002092
:103588009387C7C7C84309CD834515000905EF00D0
:10359800505749D1854717370020A308F7C29DBF68
:1035A80081450145EDB7011126CA4AC84EC6C16416
:1035B8003709006AB70900AC22CC52C406CE0544CC
:1035C800FD141309E9089389690C130A000205E838
:1035D8009305000F4145EFF02FA6B707CD6A2205E6
:1035E8009387E7085D8DF2406244D2444249B2496C
:1035F800224A0561828005041374F40FC9BFA685A9
:103608000145EFF0AFA59317850013F7071033E5D1
:10361800270119C333E5370181470147E145B3560F
:10362800F50085073356F500858A058A6307D600B5
:1036380005071377F70FE3E0E5FCE39247FF8147BF
:103648001306F003ED463357F5001377F70345D714
:10365800E303C7FA8507E398D7FE71B797370020C9
:10366800938707B69C4FA1CB411106C622C4693681
:10367800138481850D22EF105019D1341C40130793
:10368800D005B8CBEF10F04BEF20701BEF10F02EE9
:10369800EF1070368547173700202307F7B21C4014
:1036A80023A807045931B240224497370020A38C3D
:1036B80007B0410182808280411122C41734002062
:1036C800130404B01C4C06C626C285CB938481859E
:1036D8009C401307D005B8CBEF10F0319C4023A8CD
:1036E800070483478400850717370020230EF7ACAB
:1036F8002D3997370020A38807ACB2402244924462
:103708004101828023AA0184B7C7004023A6F1841F
:103718001387073023A2E1841387072023ACE184B1
:103728009387071037D7004023A2E18623A4F184AA
:103738000547411197370020A387E7A822C417340B
:103748000020130424A01C4006C69736002023A39B
:10375800F6A8938707119736002023AFF6A6973768
:1037680000202383E7A6DD3D37E700E0B707100018
:103778002320F710B70620002320D71003074401A1
:1037880063570700138781851843FD177CD3B24020
:10379800224441018280938781859C4393060005DA
:1037A8002947D4CBD8CF9305C008CCD31306C00380
:1037B800D0D7CCDBD0DFF4C3F8C71307600FB8CF7E
:1037C800316713073730D8C797170020938707E565
:1037D800370700F07D8FB7E600E0B207F8C2B18383
:1037E80037070015D98FBCD68280938781849C4384
:1037F800B70600F9FD16984F758FB7060004558F68
:1038080098CF984F137737F81367C70198CF138766
:1038180041861443F5CD37B724001307F7E96361F0
:10382800A7089843137707F81367570298C3054703
:103838006394E500130585C1D856370810FE7D1836
:1038480013672700D8D64167130707A03356E50248
:103858003377E5021305A00F7D8A93154601F042E0
:10386800337606014D8EF0C2F042B705FCFF6D8E2F
:103878002A073357A7023A073983518FF8C21737F7
:1038880000200347A795098B19CB98431377F707AF
:10389800936607049843137707F8558F98C3828077
:1038A800370725001306F7486363A6023767DBFF6F
:1038B800130707932A971306007D3357C7027D170E
:1038C80090431377F707137606F8518F85B71307D8
:1038D80007496318E5009843137707F813676702E9
:1038E800B1B737D725001307F777636DA700376798
:1038F800DBFF130707932A971306007D3357C70288
:1039080079177DBF9843137707F81367770239BF94
:10391800D856759BD8D61377F5078843137505F8DD
:10392800498F98C3A9BF938701849C43011122CC76
:103938004EC606CE26CA4AC852C456C28297973780
:1039480000209387A78B804781496308A406BE841B
:10395800972700209387077F038747013E8963588D
:103968000706018D135455009737002083C7A78891
:103978009379F5016360F404370AC0A8B70A405781
:1039880097100020E78020CE9C449736002083C6FD
:103998008686139756003E9783074901158C63C5A1
:1039A80007006363470156979737002023ACE784E5
:1039B800E378D4FC1604B3693401F24062444E85BE
:1039C800D2444249B249224A924A05618280E37A46
:1039D80085F8B707C0A833848740229561B79387D5
:1039E80001849C43411122C406C626C28297973798
:1039F80000209387A78080476309A406BE84972781
:103A08000020938727748387470163D80704018DB3
:103A1800135455009727002083C7E77D6367F40494
:103A280097100020E78020C498449727002083C778
:103A3800877C9396570036971D8C9726002023A3E2
:103A4800E67CE37FF4FC2244B24092441725002030
:103A58000345D5788145410149BBE37A85FAB70723
:103A6800C0A833848740229565B7B2402244924467
:103A780041018280411106C697270020238B0778D1
:103A8800EFF0FF8D01458145EFE0BFADB240014544
:103A980041018280011126CA97240020938404746E
:103AA80083C7040022CC06CE4AC8858B1724002081
:103AB800130404716385070E83472400858BE1C7CF
:103AC80097270020238F076EEFF04FFA65379C4841
:103AD8000146814505458297834734002689858BB1
:103AE800C1C7084C97270020A38D076C8145130692
:103AF800F100972700202387076C97100020E780A4
:103B0800A093AA850DE11C4C9306F00F03C707008C
:103B1800630BD7009727002083C7576E6385D700AC
:103B28006303F70089458307090063C707001C4C36
:103B38000347F1002380E70083270901104C09455A
:103B480082979727002083C7A76C898B81CB8545EF
:103B5800172500200345056CEFE02FFFF240624473
:103B6800D244424905618280938781859C43BC5336
:103B7800F5F797270020238707649C48014681456D
:103B880049458297E1BFFD35EFE09FCF9727002099
:103B9800238A07629C48014681454545DDB783472E
:103BA8003400858B99CFF93597270020A38B0760C0
:103BB80097270020238807609C48014681450545D2
:103BC800C9B74D3DE1B71C4963820712411122C4B0
:103BD80006C6834705002A8493F7070489C75C4112
:103BE8000945638107101306000281451725002047
:103BF8001305C55EEFE02FF0A28513060002172516
:103C080000201305A55D97000020E780802C17246D
:103C180000201304A45C5C4891E7FD571727002097
:103C28002328F75C9727002083C7D75C99E7930779
:103C3800800217270020A30FF75A9727002083C771
:103C4800875B91E7A147172700202306F75A972794
:103C5800002083C7575A91E7C54717270020A30CB0
:103C6800F7589727002083C7275991E7ED5717275B
:103C780000202303F7589727002083C7F75791E7B9
:103C8800ED5717270020A309F75697270020938799
:103C9800E756C84309C597100020E78040B1972729
:103CA800002023AF075483470400858B85C317255D
:103CB80000200345755493059004090597100020CA
:103CC800E78040A59727002023ACA752834714001C
:103CD800014517270020A30EF7521C441727002080
:103CE8002324F752B2402244410182800545828054
:103CF800797126D2972400209384444E9C4406D69A
:103D080022D44AD04ECE52CC56CA5AC85EC6638C0C
:103D18000726138A818583270A0098430D8B09C7D4
:103D280098431367870098C3172900201309094D82
:103D380083474901B689B28A898B2E842A8B9D4B89
:103D480089EB83C7040093F707049DC38945C840DE
:103D58002DA0D13EE3FFABFE9727002083C7A749DC
:103D68009607D117E3E7A7FE83474901898BF1DB63
:103D780081451725002003457546EFF01FA78326C8
:103D88000A009307A0051727002003472745BCCA48
:103D9800937707046380071CD040B797DBFF9387AE
:103DA80007813E96E1679387076A63F5C71A930709
:103DB800000DBCD2938781849C439044058B136784
:103DC800E70190C7D044D0C3D8C20347690113673D
:103DD800270097260020238EE64217270020A30FEE
:103DE800374117270020230B5741D857B70600F053
:103DF800FD16719BD8D79843972900209389493C91
:103E0800758F98C303A5490163090B142300550155
:103E1800A30085002286DA85090597000020E7803F
:103E2800400B9387C1849C4303A74901814517052B
:103E38000000130565C698CB972700202383073811
:103E480097270020A38F073697270020238C073653
:103E5800EFE02FF1EFF06FCD8D4717270020A30477
:103E6800F7369727002083C727399D07920717271A
:103E78000020232DF73483270A00B8537DFF2167DC
:103E880013073730D8C7131744001307C71CB8D314
:103E9800130700F8972600202386E63231671307B8
:103EA8003730D8C783474901898B95CF93870184D9
:103EB8009C438297172700201307C7280307470149
:103EC80083278900635E07081D8D03C704000D81E1
:103ED80083A74901418B49CF370780006205130743
:103EE800F72F598D88C3EFF0AFBA9387418698436F
:103EF80001455C578583858BB9C3DC40C1659385D3
:103F080005A0938787C1B3D6B702370810FE7D187E
:103F1800B3F7B702FD8A139646017443B3F6060158
:103F2800D18E74C39306A00F3706FCFFAA07B3D738
:103F3800D7027443F18EBA07B983D58F7CC3B250C8
:103F4800225492540259F249624AD24A424BB24B25
:103F5800456182809307000AA9BD23205501D1B588
:103F6800E374F5F63707C0A8B307F7403E95B1BF2D
:103F780009041374F40FA38087003E9423000400FF
:103F8800A300A4008DB705455DBF39715AD09727A6
:103F98000020238F0726172B0020034B2B244AD8F9
:103FA80093671B002A89130671009945414506DE6F
:103FB80022DC26DA4ED652D456D25ECE62CC66CAFF
:103FC8006AC817270020230BF720EFE0FFA8631724
:103FD800052619469305F00F13057100EFE00FB59C
:103FE8008547630DF52489472300F1001946972575
:103FF8000020938585161305110097000020E7809F
:1040080040EDEFF0CFB0172A0020130A2A1F83478C
:104018007A0193840184A306A10017270020A30F27
:10402800F71A8327CA00A16CB16A17270020232B2F
:10403800F71A9C40056C9729002093896918829784
:104048009727002023A4A71C938B3C30938A3A30EF
:10405800130CECEB034601009546B9450A8549392E
:1040680083C72900858BFDD797270020238B07144A
:10407800EFF0CF9F83C73900858B6387071E03A5A1
:10408800890197270020A38E0712014681459727AB
:1040980000202388071297000020E780E0392A8D46
:1040A8006314051C03A48901954703472400631D75
:1040B800F71A1946972500209385250A13059400B9
:1040C800EFE08FA485476311F51A83A749011947C3
:1040D8001305A00598C3938781859C431307C044A3
:1040E80023A67701B8D3130700F897260020238B5F
:1040F800E60C23A65701EFF0AF9497000020E78065
:10410800E02683C72900858B638007169727002040
:104118002389070A9C4082979727002023A4A70E8B
:10412800EFF05F9597270020A384070E97270020BC
:10413800A386070A8347340101469305000217271F
:104148000020A309F70A8347440117270020230406
:10415800F70A8347540117270020A30EF7080347DF
:1041680004018347F40022075D8F83471401C207C7
:104178005D8F83472401E207D98F17270020232367
:10418800F706034774018347640122075D8F83475D
:104198008401C2075D8F83479401E207D98F1727EF
:1041A80000202327F70417270020A3050706014747
:1041B800B3D6E700858A89C6050D137DFD0F054630
:1041C8000507E317B7FE09C697270020A384A705AC
:1041D8008347A40113068002914517270020230B6B
:1041E800F70097270020238B67FF894717250020B2
:1041F8000345450217270020230CF700EFE04FA7DF
:104208000347010085478144631BF7001306340008
:1042180099454145EFE01FB30545EFE01FADF2506A
:10422800625426854259D254B259225A925A025B94
:10423800F24B624CD24C424D21618280854719462F
:1042480097250020938565F1130511002300F100DF
:1042580097000020E780E0C719469745000093853E
:10426800E5DA1305710051BBEFF06F8F630F09009A
:104278007D191379F90F631A0900EFF0AFFF854430
:1042880097270020238C67F559BF938781859C4326
:1042980083460100094723A677016399E6041307BB
:1042A800E06EB8D3130700F897260020238CE6F0B9
:1042B80023A65701B8537DFF9C40829717270020FB
:1042C800130747E80307470183270A0163530702D7
:1042D8001D8D93870CD0E3FFA7D6EFE06FDA9C40E3
:1042E80082979727002023A3A7F2ADB323A08707BF
:1042F80055BFE37FF5FC3707C0A8B307F7403E95E5
:10430800C9BF011126CA938481859C404EC652C4F8
:10431800984356C25AC006CE22CC4AC80D8B2A8A68
:10432800AE89328BB68A05C3B84B619BB8CB98432C
:104338001367870098C39C438D83858B89C70100C9
:1043480001000100010017240020130424EB834717
:10435800440117290020130969E8918B99E78347DD
:10436800090093F707046395071681451725002070
:104378000345D5E6EFF06FC7938781849C430327F5
:104388008900B706001098C70327C900D8C3D857B3
:10439800719B13672700D8D79843558F98C38347D5
:1043A80009009840858B93E7E7015CC397270020B5
:1043B800A38767E597270020238357E55C43858B10
:1043C800ADC75C4085E3172500200345F5E293055A
:1043D8009004090597000020E780C0339727002044
:1043E80023A0A7E25C400545F1CB1727002003472F
:1043F80007E12380E7005C4063000A0E638E090C26
:10440800A380370148404E86D285090597000020D1
:10441800E78020AC9387C1849C435840D8CB93074E
:10442800000417270020230DF7D8EFE01FF083477B
:10443800640193E7470017270020230CF7DC972730
:104448000020A38F07D697270020A38D07D697278C
:104458000020238907D69D4717270020A305F7D6F4
:1044680097270020938707CE9C5791CB13060064AB
:10447800C145172500200345E5D9EFD07FFF938775
:1044880041859C4399CBD44390479842518F98C219
:10449800D447DC4B9842D98F9CC29727002083C70A
:1044A800A7D59D079207172700202321F7D29C4004
:1044B8000547014598C313079005B8CBF2406244FD
:1044C800D2444249B249224A924A024B056182804B
:1044D80085450325490079BDA380070025BF3971AB
:1044E80026DA97240020938464CF83C7040022DC53
:1044F80006DE4AD84ED6858B17240020130444CCF8
:10450800638407308347040097290020938909CFE3
:10451800858B638E072A93874186984303298401F4
:104528005C578583858BA1C3DC40C165938505A055
:10453800B3D6B702370510FE7D15B3F7B702FD8A6B
:10454800139646017443E98ED18E74C39306A00F67
:104558003706FCFFAA07B3D7D7027443F18EBA0710
:10456800B983D58F7CC381451306F1014A85972706
:104578000020238707C497000020E780E0EBAA8586
:104588000DE19727002083C797C79306F00F638A2A
:10459800D700184C034707006305D7006303F700EB
:1045A80089458387040063CE0712639E05128347FB
:1045B800F1012300F90083C74901918B95C783470F
:1045C8001900CA9703C7070093070008631EF7007E
:1045D8005C481307F00F98C383C7040093E70701EB
:1045E80017270020230CF7BE83A74900138781856E
:1045F800184383C71700A166938636309387070A46
:1046080054C792073CD3930700F897260020238BC2
:10461800F6BAB167938737305CC71305A005EFE09A
:104628001FCA97000020E780C0DAEFE05FD3972623
:10463800002083C6E6BD93F74600638C071417274E
:104648000020130727B0030647011C48635E060CC9
:10465800F11717270020232DF7B61C4803A7890058
:10466800635C060C3387E7408347190093958601FE
:10467800E185CA9783C717008E0763DE050C63F3CD
:10468800E70C1D8F9306000263EBE6001848635E93
:10469800060AB307F740172700202325F7B68945F0
:1046A80017250020034505B7EFD03FCA83C704008C
:1046B800C18BF9CB03A5490017260020034636B461
:1046C8009726002083C6A6B34DCD8345150009055E
:1046D8000D3983C70400BD9B172700202300F7B0BE
:1046E80015A8E38A05EC2EC6EFE07FC7104C9C485E
:1046F800B2450D45829703A54900172600200346B9
:1047080016B09726002083C686AF01CD83451500D5
:104718000905C53EF2506254D2544259B25921613A
:10472800828081450145F5B70D47E363F7F2370706
:10473800C0A87117BA9731BFE3F6E7F2B705C0A86A
:10474800AE970DB73387E74035BFE374F7F4B70684
:10475800C0A836973DBF1848635F0600B307F74007
:1047680093E606F817270020232EF7A8972700209E
:104778002380D7AA2DB7E373F7FE3706C0A8329770
:10478800F1BF81450145A9B783471900F917A3006F
:10479800F900EFF02FAE9C48104C81450D458297EB
:1047A80083471400858B99CB97270020A38A07A0FD
:1047B8009C480146814511458297A9BF972700204B
:1047C800238207A09C48014681455145F5B703A5BA
:1047D800490017260020034696A29726002083C684
:1047E80006A205C1834515000905213E972700202B
:1047F800938747959C5B894591DF1305100882973D
:1048080011BF81450145D5B783471400858BA9CFD2
:1048180097270020A386079AEFF0CFA5084C9306A8
:10482800F00F014903470500630BD70097270020C5
:1048380083C7F79C6385D7006303F700094983871B
:10484800040063D007020146814597000020E780F5
:10485800A0BE3365A9009375F50F9C48104C0D4513
:10486800A1BF2A868145D5B79726002083C62699F9
:10487800172600200346B69881450145EFF07FA82A
:10488800972700209387078C9C5BE38507E885457D
:10489800ADB797270020238E079697270020938788
:1048A800E795C843411106C609C597000020E7806F
:1048B80000F09727002023A507949727002083C797
:1048C800D79081CF17270020034727909D4763166D
:1048D800F70097270020A38A078E9726002083C613
:1048E800968E9387B6FF93F7F70F0547636AF7002D
:1048F80097270020238BD78C97270020A387E78C46
:10490800EFE0FFA5C145172500200345A590EFD08E
:104918001FBF01458145EFD0DFC4B24001454101C9
:104928008280411106C622C4AD379727002093879D
:10493800E78C03C77701DC47A1451725002003450D
:10494800658D97260020A38BE68817270020232B48
:10495800F788EFD0DFBA9145172500200345858BEE
:10496800EFD0FFB99727002083C7878A13F727005E
:10497800172400201304848619CF1C48014681455A
:10498800130520028297B2402244972700202381F2
:10499800078841018280918BFDD71C4801468145DB
:1049A80013054002C5B7797126D297240020938455
:1049B800E48483C7440106D622D44AD04ECE52CCD2
:1049C80056CA5AC85EC6898BD1CF972A002083CA97
:1049D800EA8093E71A0121698569316A171700206F
:1049E800230EF77E0144171B0020130B6B7D938B5E
:1049F800818513093930938929F9130A3A309716B2
:104A0800002083C6B67F171600200346267F8145FF
:104A18000145EFF0EFAD83472B00858BEDD397175A
:104A280000202380077AEFE07F8483473B00858B53
:104A3800A9C7EFF02F8497170020A384077883C7AE
:104A480044018545171500200345C57C93E707F801
:104A580017170020230EF77AEFD03F8F9717002003
:104A6800238E5777B250225492540259F249624A1F
:104A7800D24A424BB24B45618280EFE0BFFF05044A
:104A88001374F40FA1476314F400613DC1BF83A7F9
:104A98000B00130700F823A6270123A03707971652
:104AA80000202381E67223A64701B8537DFF81BF0A
:104AB800411122C406C693F715002E84B9C397176F
:104AC800002083C7E77413F7270015C7E207E187BB
:104AD80017150020034505741306000563DA07005F
:104AE80017160020034616719307000A3306F602CC
:104AF8009145EFD0FF9713451400B240224441017D
:104B0800828093F72500B1C39717002083C74770A9
:104B180013F7470005CBE207E18717150020034587
:104B2800656F1306000A63DC0700171600200346AA
:104B3800766C9307000A3306F60213068602A1452F
:104B4800EFD01F93134524004DBF93F7450089C745
:104B5800993D1345440055B793F7850099CB9717AE
:104B6800002083C7E76A918B91C3653B1345840096
:104B780069B793F705010145C9D3EFD07FD017175F
:104B88000020034757649D47631BF7001306006422
:104B9800C145171500200345E567EFD07F8D134504
:104BA8000401A1BF5971D6CA971A002083CA0A63A3
:104BB80086D6A2D4A6D2CAD0CECED2CCDAC8DEC689
:104BC800E2C4E6C2EAC06EDE93F71A0063850734D2
:104BD80097170020238E076217190020130909620E
:104BE80093E71A0017170020230AF75E8347790115
:104BF8001946971500209385455617170020A30FCF
:104C0800F75C8327C9002A84130551011717002070
:104C1800232AF75C9547230AF10097F0FF1FE780E6
:104C2800402BEFE05F9893578500171B0020130B6C
:104C3800EB5A2301F10293570501A301F1028347BF
:104C48009B01A300A1026181A302F1028357AB017A
:104C58002302A102938401842313F10283274B01C9
:104C68003ED483478B012306F102EFE04FEAA30607
:104C7800A10202C415C49C4016048297971700200D
:104C88009387474C838747012A9463C90700B7076E
:104C9800C0A86365F400B70740573E9485473EC4F3
:104CA8009C4082979717002023A2A7569546130683
:104CB800F00FE9454808EFF0CFE48547631705187A
:104CC800A16CB16B138D3C30938B3B30971900204E
:104CD8009389094F938D818583C75900858B638E8E
:104CE800071A97170020A38F074CEFE00FE083C740
:104CF8000900858B638C071803AC89011306310101
:104D08008145628597170020238C074A97F0FF1F7B
:104D1800E78080722A8A631B051683462C000547A4
:104D2800032849006393E614130598001946930570
:104D38003C0097F0FF1FE780C01983A70D001307F9
:104D4800C0441305A00523A6A701B8D3130700F88C
:104D5800971600202388E64623A677019307802527
:104D68003AC6171700202323F746EFE04FD597F0F0
:104D7800FF1FE780006683C719003247858B63876A
:104D8800071097170020A38D074283A70D009306ED
:104D9800001923A6A701B4D3971600202384E6425E
:104DA80023A67701EFE06FD483C70900858BF9CF7D
:104DB800971700202386074083A7890103C70700A8
:104DC80099476315F70C9C4082979717002023ABEF
:104DD800A742EFF01FAC97170020A3810740971751
:104DE8000020238D573F825783254B01814613D7D7
:104DF80087008347410213060002E207D98F17177D
:104E080000202321F73E9147171700202312F7406F
:104E180097170020A3800740814733D7F500058BFB
:104E280009C7050A137AFA0F85468507E397C7FE6F
:104E380089C697170020A38F473D8945171500207D
:104E48000345453DEFD06FD08147B6502654965460
:104E58000659F649664AD64A464BB64B264C964CF6
:104E6800064DF25D3E856561828009466390C60203
:104E78001946971500209385452E13059C0042C6B8
:104E8800EFD08FC805473248E300E5EA9546130698
:104E9800F00FE9454808EFF0CFC6A24785C79C4008
:104EA8008297636D8500018D634E0500EFF07F9E4C
:104EB8009717002023845733854741BF3305A44003
:104EC800E34605FE9C4082971717002013078727A3
:104ED8000307470183270901635707021D8D93873D
:104EE8000CD0E3FBA7DEEFD0BF999C4082979717C1
:104EF800002023ADA73095461306F00FE945480872
:104F0800EFF02FC0E1B3E37BF5FC3707C0A8B30788
:104F1800F7403E95E9B789470DBF411106C622C43F
:104F2800EFE04FFE171400201304442D714681450D
:104F38002285EFD04FBCFD5717050000130585B734
:104F48001CC0EFD08FF1230CA400954517F5FFFF87
:104F580013052559EFD0EFE0B24022440145410145
:104F680082809387418694430566D846518FD8C678
:104F7800514701007D1775FF9043FD76FD16584691
:104F8800758F58C6514701007D1775FF9443056614
:104F9800D846518FD8C6514701007D1775FF9443F5
:104FA800D84613671700D8C6514701007D1775FF0B
:104FB8009443D846799BD8C6514701007D1775FFA1
:104FC8009443D84613671700D8C6514701007D1788
:104FD80075FF9443D84613670710D8C65147010098
:104FE8007D1775FF9443D8461377F7EFD8C6514716
:104FF80001007D1775FF98435C4793E707105CC76E
:10500800D1470100FD17F5FF8280411106C6913F87
:10501800938741869C43130700483703009098D72D
:10502800B8477D13370E0020337767003367C70111
:10503800B8C7B847B70600F9FD16758F37060004DC
:10504800518FB8C7B8473706F9FF7D16419B1367DC
:105058009700B8C7B847B7080080B70E0002718F2D
:10506800B8C7B847370600FF7D1633671701B8C7BA
:10507800F84745757D1E619B13673700F8C7F847E9
:105088001377F7F813670703F8C7EC4793F5F58F1D
:1050980093E50530ECC7F847718FF8C7F8471166F4
:1050A8003367D701F8C703A807051307F5FF7D7510
:1050B8003378E8003368C80023A8070503A8470524
:1050C8007D15137808FF1368C80023AA0705F04B5D
:1050D80013660608F0CBF04B698EF0CBC85F798D6C
:1050E8002167598DC8DFCC5F37070040F58DB3E5E0
:1050F800D501CCDFD05FB70570003376C601598E75
:10510800D0DFD05709674D8ED0D7D057F18ED4D77E
:10511800D45775767D16F18ED98ED4D7D4573706E5
:10512800FDFF7D1637070200F18ED98ED4D7945B28
:10513800C19A94DB945B93F6F6F094DB945B93F658
:10514800F68F94DB985BB70600504D8F98DB985B21
:1051580033776700558F98DB985FB70608FFFD1611
:10516800758FB7061800558F98DF985FB3681701D9
:1051780023AC1703B24041018280138741861C4348
:1051880041767D16B44BF18EB4CB94473706200098
:10519800D18E94C7D44793E60601D4C7D447BD9AA5
:1051A800D4C7010001000100010014430566DC4674
:1051B80093E70701DCC6DC42D18FDCC283A7C609AE
:1051C800A183858BE5DF01000100010001001C437C
:1051D800416603A7C709B44BD18EB4CB9376F701C8
:1051E800B84B019B558FB8CB9847B706E0FFFD1623
:1051F800758F98C7828013884186417703C60186D8
:10520800832708007D1763180610B44FC165411144
:10521800F98EB4CF9447C16E3D4FCD8E94C78D4F54
:105228008147414E83260800CC4693F5F5EFCCC65E
:10523800CC42B3E5D501CCC2CC4693E50510CCC62B
:1052480083A5C608A1818589E5DD0100010001006B
:1052580001008326080003A5C608CC423D89F98DC4
:10526800CCC26305E50105061376F60F814513F3F5
:10527800F50F636AF3006311F30493080101C695FF
:105288002388A5FE15A8AE888505B302B10083C2A0
:10529800F2FFE37E55FCBE8593020101AE9283C303
:1052A800F2FEFD1593F5F50F238872FEE316B3FEA3
:1052B8000C08AE982388A8FE6308F601850793F7C3
:1052C800F70FE391C7F731C28347010021476371A4
:1052D800F702F5172300F10083470100BD8B1397F0
:1052E8007700BC4E93F7F787D98FBCCE41018280F7
:1052F80011476374F700F917F1BF05476374F700A6
:10530800FD17C9BFF1FB8D47F1B7BC4E93F7F7877F
:1053180093E70728D9BFB44F4166F98EB4CF9447B5
:10532800D18E94C7D44793F6F6EFD4C7D443758F7C
:10533800D8C3D44793E60610D4C7D843518FD8C3EF
:105348008280397122DC138441861C4006DE26DA0D
:105358004AD84ED652D456D25AD05ECE62CC66CAFD
:105368006AC86EC6D843FD76FD161377F7EFD8C323
:105378009857758F98D7D857B70602003D9BD8D74E
:105388009847558F98C7D84313670701D8C3138721
:10539800C18514433757341213078767E38DE648EE
:1053A800D84381749384F40F799BD8C3985FB1660E
:1053B800658F558F98DFD84313671700D8C397F0C8
:1053C800FF1FE78060321C4003A707091377F70324
:1053D8002384E18603A7470929831377F707A38561
:1053E800E186D843B96693860670799BD8C3985FDF
:1053F800658F558F98DFD84313671700D8C397F088
:10540800FF1FE780602E1C4003A707091377F703E7
:105418002385E18603A7470929831377F707A3861E
:10542800E186D843B56693860630799BD8C3985FE2
:10543800658F558F98DFD84313671700D8C397F047
:10544800FF1FE780602A18408327070993F7F703AF
:10545800A384F18683274709A98393F7F70723864F
:10546800F1861C4003CC918683C6818603A7070A70
:10547800B386864113F6F600419B518F23A0E70AB5
:10548800130760023387E6021306700283A5070A32
:105498007D7E130EFE0F93F5F5F01305400245735C
:1054A8007D13130430023347C702B708F1FFFD1814
:1054B80013082002930E10027D4FF94FF542F14375
:1054C8006D4DD14B454BBD443949314AAD4AB5497B
:1054D8003D8B12074D8F9305500223A0E70A3387AF
:1054E800B60283A5070AB3F5C5013347C7023D8B4A
:1054F80022074D8F23A0E70A3387A60283A5070A50
:10550800370500F17D15B3F565003347C7023D8BBC
:1055180032074D8F23A0E70A3387860283A5070A3F
:105528006144B3F515013347C7023D8B42074D8FE0
:1055380023A0E70A3387060383A5070A370810FF65
:105548007D18B3F505013347C7023D8B52074D8FD0
:1055580023A0E70A3387D60383A5070AB70E0010EE
:10556800FD1EE98D3347C7023D8B62074D8F23A08F
:10557800E70A139756003347C7029315C70103A7D5
:10558800070A3377D7014D8F23A0E70A3387E6034D
:105598005D4F3347C7029375F70003A7470A419B3E
:1055A8004D8F23A2E70A3387F60383A5470AD94F0D
:1055B80093F5F5F03347C7023D8B12074D8F23A2B1
:1055C800E70A3387560283A5470AD542B3F5C501D2
:1055D8003347C7023D8B22074D8F23A2E70A338743
:1055E800760283A5470ACD43B3F565003347C70262
:1055F8003D8B32074D8F23A2E70A3387A60383A585
:10560800470A494DB3F515013347C7023D8B420799
:105618004D8F23A2E70A69473387E60283A5470A25
:10562800B3F505013347C7023D8B52074D8FE5455A
:1056380023A2E70A3387B60283A5470AE98D3347D1
:10564800C7023D8B62074D8F23A2E70A3387860284
:105658000D443347C7029315C70103A7470A337799
:10566800D7014D8F23A2E70A3387E603254F334737
:10567800C7029375F70003A7870A419B4D8F23A4A0
:10568800E70A3387F60383A5870A9D4F93F5F5F05C
:105698003347C7023D8B12074D8F23A4E70A338790
:1056A800560283A5870A9942B3F5C5013347C70255
:1056B8003D8B22074D8F23A4E70A3387760383A502
:1056C800870AB3F565003347C7023D8B32074D8F14
:1056D80023A4E70A3387760283A5870A9543B3F59F
:1056E80015013347C7023D8B42074D8F23A4E70AB4
:1056F8003387A60383A5870A294DB3F505013347E8
:10570800C7023D8B52074D8F23A4E70A33876603F0
:1057180083A5870AE98D3347C7023D8B62074D8F02
:1057280093954600B3C5C50223A4E70A03A7870AD1
:105738003377D701F2054D8FB385960223A4E70A84
:1057480003A7C70A419BB3C5C502BD894D8F23A6D0
:10575800E70A3387260383A5C70A93F5F5F033478D
:10576800C7023D8B12074D8FB3C5860223A6E70AF1
:1057780003A7C70A3377C701BD89A2054D8F23A6A2
:10578800E70A3387460383A5C70AB3F5650033479D
:10579800C7023D8B32074D8F23A6E70A338756038E
:1057A80083A5C70AB3F515013347C7023D8B4207E6
:1057B8004D8F23A6E70A3387A60383A5C70AB3F547
:1057C80005013347C7023D8B52074D8F23A6E70AD1
:1057D8003387E60383A5C70AE98D3347C7023D8BA4
:1057E80062074D8F93953600B3C5C50223A6E70A15
:1057F80003A7C70A3377D701F2054D8FB385F603A0
:1058080023A6E70A03A7070B419BB3C5C502BD89B9
:105818004D8F23A8E70A3387560283A5070B93F514
:10582800F5F03347C7023D8B12074D8F23A8E70ACF
:105838003387760283A5070BB3F5C5013347C70243
:105848003D8B22074D8F23A8E70A1397260033477D
:10585800C70283A5070BB3F565003D8B32074D8F53
:10586800B3C5360323A8E70A03A7070B3377170145
:10587800BD89C2054D8F23A8E70A13971600334741
:10588800C70283A5070BB3F505013D8B52074D8F62
:10589800B3C5C60223A8E70A03A7070B698FBD890A
:1058A800E2054D8F23A8E70A03A7070B930580029B
:1058B8003377D70123A8E70A03C7A1863307EC404B
:1058C800B34DB70283AC470B93FC0CFFB34B770384
:1058D80093FDFD00B3ECBC0123AA970B83AC470BE7
:1058E800CD4D93FCFCF093FBFB00920BB3EB7C01DA
:1058F80023AA770BB30B870283AC470BB3FCCC010D
:10590800B3CBBB0293FBFB00A20BB3EB7C01B34C04
:10591800A70323AA770B83AB470BB3FB6B0093FC5E
:10592800FC00B20CB3EB9B0123AA770BA14BB34B42
:10593800770383AC470BB3FC1C0193FBFB00C20B42
:10594800B3EB7C0123AA770BB30B570283AC470B4D
:10595800B3FC0C01B3CBBB0293FBFB00D20BB3EB44
:105968007C0123AA770BB30BF70383AC470BB3FC7B
:10597800AC00B3CBBB0293FBFB00E20BB3EB7C01A7
:10598800B34C770223AA770B83AB470BB3FBDB013E
:10599800F20CB3EB9B01B30CE70323AA770B83ABA1
:1059A800870B93FB0BFFB3CCBC02B30A570393FCE2
:1059B800FC00B3EB9B0123AC770B914B83AC870BBB
:1059C80093FCFCF0B34B7703330A470393FBFB00CC
:1059D800920BB3EB7C0123AC770B83AB870BD54CD5
:1059E800B3FBCB01B3CABA02B309370393FAFA007F
:1059F800A20AB3EA5B0123AC570B83AA870BD94BE6
:105A0800B3FA6A00334ABA0233092703137AFA0051
:105A1800320A33EA4A0123AC470B03AA870BE14A4F
:105A2800337A1A01B3C9B902B304970293F9F9009A
:105A3800C209B3693A0123AC370B83A9870B654ABE
:105A4800B3F909013349B902B3C4B4021379F900AF
:105A5800520933E9290123AC270B03A9870BE9492C
:105A68003379A900330B6703BD88E204B364990056
:105A78001319470023AC970A83A4870BB3F4D40106
:105A88003349B902334BBB027209B3E4240123AC96
:105A9800970A83A4C70BC198137BFB0033EB6401FF
:105AA800C944B304970223AE670B03A9C70B5D4B28
:105AB8001379F9F0B3C4B402BD889204B3649900B1
:105AC80023AE970AB304B70303A9C70BF54D33797F
