:040000006F10004B32
:1000040000000000000000006F0080086F00E02284
:1000140000000000000000000000000000000000DC
:1000240000000000000000000000000000000000CC
:100034006F004006000000006F00E00500000000B3
:100044006F0080056F0060056F0040056F0020059C
:100054006F0000056F00E0046F00C00400000000A2
:100064006F0060046F0040046F0020046F00000400
:100074006F00E0236F00C003000000006F00600306
:100084006F0040036F0020036F0000036F00E00265
:1000940001A001A001A001A001A001A001A001A054
:1000A40001A001A001A001A001A001A001A001A044
:1000B40001A001A001A001A001A001A0B717004068
:1000C400130770052380E704130780FA2380E704ED
:1000D4002396A70223800704371700408347270588
:1000E400898BEDDF835707053717004083472705C2
:1000F400898BEDFF3717004083472705898BEDDF98
:10010400035507058280B7170040930670052380C6
:10011400D704130780FA2380E70403C6B7041376D1
:10012400F60DA385C70423800704137605022DC6A4
:1001340003C6A700118A0DE22380D7042380E704B5
:1001440003C7A700136747002385E7009307004B05
:1001540001000100FD17EDFFB7170040930670057D
:100164002380D704130780FA2380E7047D8923942E
:10017400A70001000100010001002380070423807F
:10018400D7042380E7049306100537270040A30310
:10019400D780238007048280137605046DDE03C6AE
:1001A400A700418A0DE22380D7042380E70403C714
:1001B400A700136707012385E7009307007D01006B
:1001C4000100FD17EDFFB71700409306700523806B
:1001D400D704130780FA7D892380E7041365050497
:1001E4002394A700010001000100010023800704FB
:1001F4002380D7042380E704930630053727004083
:1002040079B74111814601468145114506C6B52A93
:10021400B7170040130770052380E704130780FA1B
:100224002380E70403C76704136717002383E704E5
:1002340023800704B2404101828081460146814502
:100244001145A122B7170040930670052380D704F7
:10025400130780FA2380E7047D562396C702238080
:10026400D7042380E70403C76704136717002383B5
:10027400E7042380070401A0BD473305F50201000C
:100284007D1575FD8280411122C426C206C6AA844A
:10029400014463179400B240224492444101828095
:1002A40005041305803E4204C13F4180DDB7B71702
:1002B4000040130700032388E702854723AEF18833
:1002C40073002030411106C6EF008076F5BF23038A
:1002D400048015472303E48001002302A480828064
:1002E40083076480E3CE07FE2303048082808307B0
:1002F4006480E3CE07FE03454480828083076480E4
:10030400E3CE07FE2302A4808280411126C44AC2A0
:100314004EC006C61377F50BAD47AA892E899544BE
:100324006306F70019456537653F8D444E854537AB
:10033400FD59FD1463983401B240A2441249824924
:1003440041018280135509011375F50F453F2209B8
:10035400CDB7011126CC06CEB70408005137154598
:10036400BD37713769372AC6A53F324593771500E3
:1003740089EB136515001375F50FF240E24405612E
:100384008280FD14E9FC0145CDBF397126DC4ADACF
:100394004ED852D656D45AD25ED006DE62CE66CC41
:1003A400B7E700E07D5783AA070022C603AA4700E7
:1003B40023A0E71823A2E718B71700401307700516
:1003C4002380E704130780FA2380E70483C74704E4
:1003D400930B75FFB684E20793FBFB0F8546AA894E
:1003E4002E8B328937240040E187015763FA760166
:1003F4006308D5008946130700026313D50001572B
:10040400D98F93F7F70FB71C00402382FC041147E0
:100414002303E4801305F00F5D3D094CD135636976
:100424007C11B70707003E9B378707007955637E29
:10043400EB02B3079B00636AF702A9476399F906C5
:1004440089E48144713D26850DA0DA850945753D11
:1004540005090345F9FFFD14050B4D3581C4937758
:10046400FB0FFDF7FD3569FD7D55B71700401307F8
:1004740070052380E704130780FA2380E70403C789
:100484004704418B2382E704F250B7E700E023A03E
:10049400571123A24711E25432445259C259325AD5
:1004A400A25A125B825B724CE24C21618280A547A6
:1004B4006395F90685691309F00FB3069900B374BF
:1004C4002B01B6941349F9FFB3749900856B337902
:1004D4006901416B9387F9FFB3F7270199E363FC43
:1004E400340193D94900C147E3E637FF99BF056951
:1004F400C1697D19D9B71305800D63886901130596
:1005040000026384790113051008CA85FD3B913507
:1005140021DD4E99B3843441D9B7DA852D45F533BD
:10052400CA94E30099F20509D933A30FA9FED5BFF4
:100534009387F9FF93F7F70F636CFC0803C75C0418
:10054400B70708001377070219E3B787070079553F
:10055400E37DFBF033079B00E3E9E7F08947639011
:10056400F9048980D549E38E04ECDA850945713BA9
:1005740011090327C9FF91472320E48003076480FE
:10058400E34E07FE23033481FD17EDFBFD14110B2D
:1005940081C49377FB0FE9FF6D3B71F5F1B5854796
:1005A400E387F9F4DA852D458D339389F4FFE38AE3
:1005B40004E8353B93F7390091EB83260480032745
:1005C400090093074900E39FE6E63E89CE84F1BF24
:1005D400B5476396F9001305900BD5399DB5B1471E
:1005E4001305B00AE38BF9FE9947639EF902DA8595
:1005F4002D45213B81448D4BA149D5396396740126
:10060400832704802320F9008504E39834FF83279B
:10061400048013172B01635507002312F90015B545
:100624002322F90039BD9D476399F90281451305D9
:10063400B004E139BD442320090023220900FD59F7
:100644007D3193F77400CA9703C70700FD14398DF1
:100654002380A700E39634FFEDB3A1476392F90426
:10066400CD398144630D0B008D479304C0036308A7
:10067400FB009304000563048B0193044004137589
:10068400C507E30095DC1945993199390545813150
:100694002685AD3109459D316D39E31405DAE9B399
:1006A40091476399F900130560061531153913054F
:1006B400900925B7E38709D8F15469B37D1662061A
:1006C400618693178601E18763D407000145828020
:1006D400931726003307F500AE9718439C4363E74E
:1006E400E7007D16E37FF7FC7D5582800545828017
:1006F400FD15E205E18513978501618793F7F50FF1
:1007040063480700FD15139725002A97584365D7BA
:10071400138517006205618582803308B5021C4287
:1007240083A80600B335B502C29733B50701AE9866
:10073400469585486367B5006394A50063E30701A4
:1007440081480C43C6950CC388C21CC28280814771
:100754001397870161876343B7008280139727004B
:100764002A97232007008507E5B781470147939619
:100774008701E18663C5B60013351700828093961E
:100784002700AA9694428507558FD5B793D755402D
:100794008A07AA979C4305453315B5007D8D828051
:1007A40017D3FFDFE702235E2A84993705C5931721
:1007B40025003E940327C4FF814711EB7D151605E0
:1007C4003E954205418517D3FFDF6700035E05832D
:1007D4008507E5B70145C5BF814713978701618741
:1007E4006343C700828013972700B386E5009442D1
:1007F4002A97850714C3D5B77D166206618601471B
:1008040093178601E18763D50700133517008280AB
:1008140093172600B306F500AE9794429C437D16C9
:10082400B58F5D8FF1BF8A05AA9501476363B50053
:10083400828083A6C5FFF11593D71600D98F9CC17A
:100844001397F601E5B72A8301480147014563433D
:10085400D7008280B387050183A80700B307060188
:100864009C43C697AA976384F80033B5170105071C
:10087400B3080301620723A0F80061871108C1BF10
:100884002A8301478147014563C3D70082803388A7
:10089400E50083280800330EE600032E0E0033889B
:1008A400A8403308C8416384080133B508018507AB
:1008B400B308E300E20723A00801E1871107E9B7C1
:1008C40017D3FFDFE702234C0111B286B2842E86D0
:1008D400AA850A8575372A84A6850A85793533342D
:1008E4008000060413351500018D056117D3FFDF61
:1008F4006700A34B17D3FFDFE70263464111AA89C0
:10090400AE8A328BB68402C202C402C60144131CEE
:100914008401135C8C4163499C02939B1400FD1B6E
:100924000549138CF4FFF15C33048901620461848A
:10093400634D740592478E04CE9423AEF4FE4101B8
:1009440017D3FFDF6700234513192400B30B2B01D2
:10095400014A93172A00D69783A50B008843780091
:10096400340050005D3B050A93178A01E187F11BAF
:10097400E351FCFE92474E9905042320F900A24757
:100984003EC2B24702C63EC459B7131A8901135A6C
:100994008A41131D240093178A01E18763CF9700CE
:1009A40092470A044E941CC0A24705091379F90F13
:1009B4003EC2B24702C63EC485BFB3079A031315AD
:1009C4002A0056950841780034005000050AEA9739
:1009D400DA978C439933C1B709CDB7170040130791
:1009E40070052380E704130780FA2380E704239625
:1009F400A702828019C1814799E982803387F50073
:100A0400834607003307F50085072300D700E397E3
:100A1400C7FEE5B719C1FD5781E98280910503A797
:100A2400C5FF1105232EE5FE7D16E319F6FEF5B785
:100A3400797122D417340000130484281C4006D68C
:100A440026D24AD04ECE91C782979737000023A969
:100A540007265C4089CB03D5818EBD3F5C408297DD
:100A640003D5A18E953F1C40639907189737000062
:100A740083C71737858B95C797370000A38207363E
:100A8400173700000347F735914763FCE700792BDC
:100A94009737000083C7F734F9178A07A2979C4356
:100AA40082979737000083C76738918B89C797303F
:100AB40002E0E780403D1C4491C382979387418EB6
:100AC4009843173600000346761D3E89973400008C
:100AD4009384C41C9737000083C7471C9396170060
:100AE400BA9683D60600638006109737000083C742
:100AF400E71A63F2C70886073E9783550700231059
:100B0400070003D5818E2EC62398018EF135938775
:100B1400C18F9C4317350000034545181317250062
:100B2400BA979C43B2458297AA8903D5A18E6D35A5
:100B34009737000083C78716139717008327090088
:100B440003D5018F1345F5FFBA9703D70700337513
:100B54003501598D2390A70083C70400850793F7B7
:100B6400F70F17370000230BF7121737000003475E
:100B7400F71263E6E70097370000238107121C4051
:100B8400ADEF9387418F98433E8425CB9737000080
:100B940083C7772591CB9737000083C7972489E7CC
:100BA400973002E0E780E0D21C4082972A8431C566
:100BB4009C48AA9717370000232AF70E9387818F42
:100BC4009C4385CF03D5818E013D2285971001E09A
:100BD400E780606E2254B25092540259F24903D510
:100BE400A18E4561D5BB850793F7F70F97360000B3
:100BF4002386F60AE3E0C7EECDBDB25022549254E8
:100C04000259F249456182809167B7C600409387D3
:100C1400373023A6F6200F10000097370000938783
:100C2400E707884F9387C19E9C433167130737308A
:100C3400F053B7071000FD17918F99833A0523A647
:100C4400E6205D8D82804111B7170040985F3AC657
:100C5400945F3247E39CE6FE3245410182804111B4
:100C640006C6D5379736000083C6C600858AB1C646
:100C7400930730333307F502B337F5023983CA07D4
:100C8400D98F1737000013076701584B01456303D9
:100C9400F7023385E740636BF70037653D0889C683
:100CA40037856F0813050590198D3E951737000099
:100CB4002320F700B24041018280E5473307F50263
:100CC400B337F5022583DE0765BF0327C50F8346C7
:100CD400B50097370000938767109C4F584393865D
:100CE400160295829043FD1693F6F60F10C3D04377
:100CF40050C3904710C7D04750C7904B10CBD04B30
:100D040050CB904F10CFD04F50CF91C6130707024E
:100D140093870702C1BF82808347E50193F7E70FFA
:100D2400F1EF2A870345F50171E90346070183467C
:100D3400870009CA8345A7029737000083C797F342
:100D440063E7F50093F70601C5CF814709CA8347D6
:100D5400871503467715C18AA207D18F81CA8346B6
:100D6400B7150347C7152207558FBA97D1CB173745
:100D74000000130727123847411122C406C67D54C8
:100D84008326070863F386003684184375FB1737F8
:100D94000000034727EE93168701E18663D9060214
:100DA4009387C713958317370000034747EDBA9716
:100DB40063D006041D8C938701909C43829733353E
:100DC400A400B24022441345150041018280058BE2
:100DD4009387C71209CB8A079387F7031305D007B4
:100DE400B3D7A702C9B78607FD071305D003CDBF44
:100DF400E372F4FC3705C0A82A946DBF01458280D4
:100E04008280411122C41384C19D18404AC006C681
:100E14001C5F26C21389819D9983858BC1C31C5F86
:100E240097340000938484FB93F7F7F91CDF97371A
:100E3400000083C7A7FA93F707048DC39387019033
:100E44009C4382979737000023A2A7FA83C7040024
:100E540093F7F70B173700002302F7F88547173786
:100E64000000A30FF7F683C7440093F7070481EF4C
:100E74009387C19E9C43D844B8D3930700FC17378B
:100E84000000230FF7F48387640063D907008327E6
:100E940009009C43173700002305F7F418401C5F32
:100EA4008583858BC9CBF5571CDF01000100010048
:100EB4000100010001000100010001000100010026
:100EC4000100010001000100010001000100010016
:100ED4000100010001000100010001000100010006
:100EE40001000100010001000100010001000100F6
:100EF40001000100010001000100010001000100E6
:100F040001000100010001000100010001000100D5
:100F140001000100010001000100010001000100C5
:100F2400010001000100010001009387C19E9C4360
:100F340013075004B8CB18401C5F9183858B89CF6D
:100F4400BD571CDF9387C19E9C4323A80704854794
:100F5400173700002306F7E883270900D8430583E1
:100F6400058B19C7D843759BD8C3D843799BD8C37D
:100F7400B24022449244024941018280397106DE22
:100F840016DC1ADA1ED82AD62ED432D236D03ACE6D
:100F94003ECC42CA46C872C676C47AC27EC0953573
:100FA400F250E2525253C2533255A255125682564F
:100FB4007247E2475248C248324EA24E124F824F05
:100FC4002161730020309387C19E9443173700003A
:100FD4001307C7E0BC5289CF83472700858B89EB71
:100FE40083473700858BFDD797370000238A07DEB8
:100FF400828037C700401306C00393062003973549
:1010040000009385A5DD83278720C18393F7F70329
:101014006369F60083278720C18393F7F70363E6A8
:10102400F60083C74500858BF9DF82809387C19ED4
:10103400944317370000130767DABC5289CB834700
:101044000700858B91CB97370000238B07D8973700
:101054000000A38707D8828083471700858BF1DFC0
:10106400DDB79387C19E904337C70040C145E5462D
:1010740083278720C18393F7F70363FBF500832756
:101084008720C18393F7F70363E4F6003C52EDF342
:1010940082801387C19D1843AA87185F1583058B27
:1010A40025EF0345150015051377C51F19C6B3862B
:1010B400E70083C626002300D60095C597360000B6
:1010C40083C626D293F606040945A1CAB386E7006F
:1010D40083C63600054693F5F6066390C504E2061A
:1010E400E18663CC06023385E70083471500034796
:1010F4000500A20793F70770D98F1397070141835F
:101104009376074099C6136707802392E19E0145B1
:1011140082802392F19EE5BF054582809386C19E1D
:101124008C42368597360000938646CB98459317B4
:101134000701C183137817203E86630408041377DC
:10114400072079C303C72600136717001738000068
:101154002307E8C813070019B8D1130700F8973517
:101164000000238FE5C61387C19D0C433708001088
:10117400D855719B13672700D8D598413367070169
:1011840098C11377261005C31376061059CE03C7EA
:10119400060013671700173600002301E6C417374B
:1011A4000000231107C483C6460093C7F7FFC20794
:1011B400E206E186C183184163D1060293961701C2
:1011C40063DE060630538D4663E9C600854617364E
:1011D40000002307D6C03453FDFE973600009386E3
:1011E40026A88386460163DD060093960701C1861F
:1011F40063DC06047053894663E4C6007453FDFE41
:101204001447F58F1CC7828003C7160013671700A5
:1012140097350000A384E5BC17370000230207BC00
:1012240017370000231007BCA9BF03C73600136794
:10123400170017360000A304E6BA95B7854617369B
:101244000000230FD6B851BF5447139606016351CB
:101254000602B7061000FD1674D397360000938675
:10126400E6A3944E8506173600002325D6A449BF6D
:10127400A166D58F71B7397106DE16DC1ADA1ED86D
:101284002AD62ED432D236D03ACE3ECC42CA46C822
:1012940072C676C47AC27EC05135F250E2525253BD
:1012A400C2533255A255125682567247E2475248EB
:1012B400C248324EA24E124F824F21617300203039
:1012C40017370000130747B38346B7019737000069
:1012D40083C7D7B5B69793F7F70FFD4663EAF604CD
:1012E4004C4B97360000A389F6B09737000083C7AC
:1012F400B7B005473317F70097360000A388F6B256
:101304006D8F1DEF9736000083C696B2B3F6D702F1
:1013140013050002814733D6F500058A13F8F70F49
:1013240009CE6399E60097370000A38707AD828052
:1013340081177DB705071377F70F8507E39DA7FC92
:1013440082809387819F9843B75702009387279F92
:101354008326070913965600635806008326070957
:101364001396660063440600FD17FDF3828051C99D
:10137400AA870145C9C98D07C207C183F19BC2076A
:10138400C18313074003636BF7021387C1A80843A3
:10139400138741A814436396A60217370000130766
:1013A400278C185B014525C34111C20706C60545B4
:1013B400DD8D0297B240014541018280138781A8E7
:1013C400F9B70357650005EF035745006369F70252
:1013D400B306F74021466370D60210419386870016
:1013E4001D8FAA96611790C22392E60023930600EC
:1013F40014C12312F5002313B5002105828008418E
:1014040059BF01458280828001CD9387C1A803A87A
:101414000700938741A88C430147C28763E3B70061
:1014240082809443636FF50663EDA60613868700F6
:10143400E368C5FE03D56700216605066317C5008A
:1014440003C6C1990506238EC198239307006384BC
:101454000703138681A81042630FF6000356670042
:1014640019EA83D7470014C383564700B697A107E8
:101474002312F700BA879843E304B7FA938681A846
:101484009442E30FD7F883566700D9FA83D647000E
:10149400035647001843A106B2962392D70098C377
:0814A40082803E87B6879DBFE0
:1014B000974100209381016C17710020130181B4C2
:1014C00013054000972500209385C533173600206B
:1014D0001306C67D63FAC5008322050023A05500CC
:1014E00011059105E3EAC5FE1715030013058529CB
:1014F000973500209385857B1386818763FAC50025
:101500008322050023A0550011059105E3EAC5FEDD
:1015100013858187976500209385C5226377B50081
:10152000232005001105E36DB5FE9302800873A02A
:101530000230972200209382E22C93E212007390F3
:10154000523097220000938222D973901234730094
:101550002030397101436EC619A0397141536AC8F0
:1015600066CA62CC5ECE19A0397101535AD056D2E8
:1015700052D44ED64AD826DA22DC06DE3301614048
:10158000828241114AC026C222C406C68282B24D5E
:101590004101024D924C224CB24B4101024B924A06
:1015A000224AB2494101024992442244B2404101D7
:1015B00082803D432A876373C3029377F700BDEFB0
:1015C000ADE5937606FF3D8ABA960CC34CC30CC7B3
:1015D0004CC74107E36BD7FE11E28280B306C340DC
:1015E0008A069702000096966780A6002307B70038
:1015F000A306B7002306B700A305B7002305B7006D
:10160000A304B7002304B700A303B7002303B70064
:10161000A302B7002302B700A301B7002301B7005C
:10162000A300B7002300B700828093F5F50F9396CF
:101630008500D58D93960501D58D61B793962700CA
:101640009702000096968682E78086FA9680C117F8
:101650001D8F3E96E374C3F8A5B73367B500FD53FD
:101660000D8B79E7B7877F7F9387F7F71041944118
:10167000B372F6003363F600BE92B3E26200639782
:10168000720C6318D6065041D441B372F60033632E
:10169000F600BE92B3E262006398720A631BD6043E
:1016A00010459445B372F6003363F600BE92B3E280
:1016B00062006391720A631ED6025045D445B3722C
:1016C000F6003363F600BE92B3E26200639A7208DA
:1016D0006311D60210499449B372F6003363F600E1
:1016E000BE92B3E26200639372085105D105E30F25
:1016F000D6F61317060193970601631CF7001357DC
:10170000060193D706013305F7409375F50F91E96C
:1017100082804183C1833305F7409375F50F91E1D2
:1017200082801377F70F93F7F70F3305F740828026
:101730000346050083C60500050585056313D6002D
:1017400065FA3305D640828011059105E312D6FE75
:10175000014582802105A105E31CD6FC014582805C
:101760003105B105E316D6FC014582804105C1056E
:10177000E310D6FC01458280B717004003C7770508
:101780001377E70FA38BE704130700F8A38DE70493
:101790003D47238CE70413075003A38CE7048280A2
:1017A000B717004003D587005D715ED642054181C1
:1017B00086C6A2C4A6C2CAC04EDE52DC56DA5AD8C9
:1017C00062D466D26AD06ECE9377050C13070008F8
:1017D000814B6388E71813070004639CE714B72460
:1017E0000D8F7D8993840480B3D4A402916793877D
:1017F00007E8BE94A167938707D0B3D4F402EFD073
:10180000F24F97F70200938767779043D443EFD066
:10181000B203EFE022112A8B939C040103D9818744
:1018200093DC0C0163150900056913090980B717DA
:101830000040130770052380E704130780FA238014
:10184000E704371A00400547939D0401096C85663B
:101850002389E704D14A814E8145130D0A041308F8
:101860007005130680FA894893DD0D01130C0C7185
:101870002943FD1623000D012300CD0023162A0362
:1018800023000D0083472A05898BEDDF83570A0566
:1018900083472A05898BEDFF83472A05898BEDDF76
:1018A00083570A05239C2187C207C183338597414B
:1018B0009319050193D90941638409163387B90245
:1018C000635E070C850EC20E93DE0E0163E8D80D31
:1018D00063D9050A3305B04093150501C185C204DB
:1018E000C18063D7350B0965130505713385A502E2
:1018F000B7170040130770052380E704130780FA29
:101900002380E70423967703238007043345950259
:1019100042054181B640264496440649F259625A2E
:10192000D25A425BB25B225C925C025DF24D616115
:101930008280B1E3B77489097D8993840480B3C43C
:10194000A4029167938707E8BE94A167938707D0A5
:10195000B3C4F402EFD0923A97F7020093878762FC
:101960006DB597F702009387E760856403AB0700C6
:101970009384843855B5130B0000954471BD3A89A2
:10198000D5BDB387FC409399070193D9094181BF25
:101990000965130505713385A9028DBF3385B741EC
:1019A00063E4FC003385FD40330585033344B50310
:1019B0006345830013150401A9BF4E8536C642C492
:1019C00032C2EFD0D269DA85EFD0523AEFD012634B
:1019D000931E050193DE0E41B307D941C207C183AF
:1019E000056E3E871246224889482943B24663E382
:1019F000C701368742074183631A2701130719007D
:101A0000634430011307F9FF42074183FD1A93FA3B
:101A1000FA0FCA8BCE85E3940AF6239CE18659BF60
:101A20000145CDBDB717004003D587005D7186C65F
:101A300042054181A2C4A6C2CAC04EDE52DC56DABB
:101A40005AD85ED662D466D26AD06ECE02C693777A
:101A5000050C13070008638BE71413070004639F4A
:101A6000E710B7240D8F7D8993840480B3D4A4023A
:101A70009167938707E8BE94A167938707D0B3D493
:101A8000F402EFD0B22797F702009387274F9043D5
:101A9000D443EFD0625BEFD0F2682A89939A0401B5
:101AA00003DBA18793DA0A0163150B00056B130BA7
:101AB0000B80B7170040130770052380E704130756
:101AC00080FA2380E704939B040105478969056A2E
:101AD0002389E704D14D014D814C93DB0B019389A0
:101AE00009717D1A5A8597200020E78060DD330C4C
:101AF0005541420C135C0C41239D618763010C1618
:101B0000B3079C0363D1070E050D420D135D0D0154
:101B1000894763EAA70D63DB0C0A33059041931CE8
:101B2000050193DC0C41C204C18063D88C0B0965AC
:101B3000130505713385AC02B71700401307700514
:101B40002380E704130780FA2380E70432472396B3
:101B5000E702238007043345950242054181B640E0
:101B6000264496440649F259625AD25A425BB25B05
:101B7000225C925C025DF24D61618280B1E3B774D8
:101B800089097D8993840480B3C4A40291679387F3
:101B900007E8BE94A167938707D0B3C4F402EFD0DF
:101BA000F21597F702009387E73DD5B597F7020046
:101BB0009387473C856403A9070093848438F9BD63
:101BC000130900009544D9BD3E8B29BF3385AA4037
:101BD000131C0501135C0C41B9B7096513050571A8
:101BE0003305AC028DBF63FEAA0033057541330592
:101BF0003503A9473344750363C8870013150401EF
:101C0000B1BF3385AB40E5B76285EFD05245CA8599
:101C1000EFD0D215EFD0923E131D0501135D0D419B
:101C20003307AB41420741838565BA876363B700D9
:101C3000D287C207C183639A670193071B0063447D
:101C400080019307FBFFC207C183FD1D93FDFD0FBC
:101C50005AC6E28CE39A0DF6239DF18645B70145FD
:101C6000FDBD41112A83014E930E407E130F0019D2
:101C7000930F400663EB6E0A9308001913034006A6
:101C8000B3781503854E0D4FA14F337365020D894F
:101C90001335150063E5BE0C1308F6FF79467298FC
:101CA0004208135808013307C70213D61700BE07AE
:101CB00032976146B3F6C60213068070B386C60239
:101CC0003697A166F58F42075D8FB717004083C630
:101CD000F70293F60608A307D1000346F10083C676
:101CE000F70293F60608E394C6FE8346F10093F6E6
:101CF000F60FF1DE930670052380D704930680FA71
:101D00002380D70423AA070383C6170393E6060894
:101D1000A388D702D8DB03C7170313670704A38878
:101D2000E70223800704410182807D133368E303C7
:101D30009308E016630E08003368F3039308D01687
:101D4000630808009378330093B818009388D81676
:101D500033081E01131E0801135E0E0121BF639399
:101D6000E5030548638608000148630303002A88E9
:101D700071087298FD15131E0801C205135E0E014D
:101D8000C18109BF13F8150063F4BF007908D5B706
:101D900013381800E5BF914763EEB70217F702004A
:101DA0001307C71E8A05BA959C41BA978287B71751
:101DB000004003A7470B1345F5FF698F23AAE70AE5
:101DC00003A7070B698F23A8E70A03A7070A798DE2
:101DD00023A0A70A8280B717004083A6470B1347AA
:101DE000F5FFF98E23AAD70A83A6070B558D23A8E2
:101DF000A70A83A6070A758F23A0E70A8280B71770
:101E0000004003A7470B498F23AAE70A03A7070B44
:101E10001345F5FF45BFB717004083A6470B13478F
:101E2000F5FF758F23AAE70A03A7070A598D4DB757
:101E3000B717004003A7470B498FEDB7B71700400E
:101E400003D58700420541819377050491EB937791
:101E5000F5013755E801130505803345F502828009
:101E60009377050C130700046397E7009377F50158
:101E700037459C1CCDB72165130505D08280B7F787
:101E800000E0C8439C478280814737370040A14625
:101E900063C4C700328582800345B740E38EA6FE47
:101EA0003385F5000345050085072304A740CDB71A
:101EB000973700209387074C9C4317670020130730
:101EC00067883E95636EE50017670020130787F368
:101ED0006368A70017370020232EA7483E8582801D
:101EE000FD57EDBF411122C406C62A84813F294710
:101EF000B307E502B2408D83B3D78702224495072A
:101F0000B3D7E70237370040C207C1832316F74033
:101F100041018280716541111305052006C6D9373C
:101F2000B7370040130770F82381E7400D47A381BE
:101F3000E74013070004A380E74005472387E740F5
:101F4000B240410182802D4549E703C7050089471A
:101F5000631DF706D841411106C6834717000347A2
:101F600007003285A207D98F4167130627FE6384D5
:101F7000C7046369F60005176382E7022390060031
:101F800029453DA0130647FE638CC7021517E3974A
:101F9000E7FE95472390F600154629A0D5472390E4
:101FA000F6005546CC4597200020E780E024014507
:101FB000B2404101828085472390F6000546DDB797
:101FC000CD472390F6004D46F1BF2390060005450E
:101FD0008280828083C7850093F70702E1E3411185
:101FE00006C622C426C24AC003C9050009432E887A
:101FF0008547631B690203A345003284B684834787
:10200000130003430300A207B3E767004163130E05
:1020100013FE6382C7030D13638B67040D681308F7
:10202000289063850707A947B24022449244024999
:102030003E8541018280AD4765FB5547B547E36565
:10204000D7FE0325C8005546A28597200020E780CB
:10205000A01A01499387C1889843814771D71843D3
:1020600061D72686A2854A850297814775BFAD470D
:1020700045FF5547B547E369D7FA0325C8005546DC
:10208000A28597200020E7802017E9B72244B240BC
:1020900092440249854741016F808115A1473E85E1
:1020A000828041677917630CE502411122C406C69C
:1020B00085472A84639AF50022852244B24093859D
:1020C000018841016F90716589476396F5008545E8
:1020D000EFC0811275D1B2402244410182808280DA
:1020E000411122C42A844165938501887D1506C665
:1020F000EF90B162170500001305E5FA0588EFC0FF
:10210000210705C02244B24097360020938606CBB3
:102110004146C54517350020130545B941016F906B
:102120001154B240224401454101828009C523A6D1
:10213000A18801458280454582801147636EA706CC
:1021400097F602009386C6E50A05369518414111B7
:1021500006C63697AE87B285028755476145639AB2
:10216000E70055461385C1A997200020E780C008E5
:102170000145B2404101828005476145E39BE7FE8E
:1021800005461385C187CDB755476145E393E7FE03
:102190005546138541ABC9BF4D476145E39BE7FCFD
:1021A0004D461385C1ACC9B715476145E393E7FCBC
:1021B0001546138541884DBF09458280411122C4CF
:1021C0002E849385018826C206C6AA84EF70117DED
:1021D000058915C197370020938747AD83D7A70B93
:1021E000A285B2402310F400224426859244014681
:1021F00041016F807161B2402244924449454101DE
:1022000082802388018823AA0188B717004003A78A
:10221000070CB706C0FFFD16758F23A0E70C03A7B8
:10222000070DB7064000558F23A8E70C03A7070C3E
:102230003D9B23A0E70C03A7070D1367070123A805
:10224000E70C828023AAA18813064006894503C5AE
:1022500081896F301116B717004003A5470C83A77B
:10226000470C598113451500C18B058999E3136506
:10227000250083C70189638CA7002388A18801C931
:102280009387418903A307006303030002838280CD
:10229000411106C6EFF0CFD0BD4763F4A700EFF0C1
:1022A0002FD0EFF02FF8BD4763F4A700EFF08FF7C2
:1022B000B24083D5A18703D5818741016F30513862
:1022C000411193962500AA852D4506C6972000202A
:1022D000E780E08BB240014541018280411126C276
:1022E0009394250022C44AC02A843289A686AA85EE
:1022F0000146254506C697200020E7804089A6862E
:102300004A86A285294597200020E7804088B24070
:10231000224492440249014541018280011122CCAC
:1023200006CE3714004026CA4AC84EC652C483445B
:102330007405034AB4058349840503499405EFF005
:10234000AFC38347A40593F4F40F137AFA0F93E70E
:102350001700230DF40493F9F90F1379F90FB71748
:10236000004003C7A705058B6DFF03D5C705A38DE7
:102370004705238C3705A38C2705A38B9704F240D0
:102380006244D2444249B249224A056182804111E5
:102390009397050122C406C6C1872E8463DA07001D
:1023A000EF30612E19C1EF3061272165218D1DA00D
:1023B00093F7150013C5150091EF93F7250099CFFA
:1023C000593D1306000A894503C58189EF30617EB6
:1023D00013452400B2402244410182809397250195
:1023E00063D00702EF403271653537F602001306FD
:1023F00006E0896503C58189EF30A17B09657DB75A
:10240000939715010145E3D707FC17F50200130563
:10241000E5BEEFD0321113060064916503C58189D2
:10242000EF302179116559B71D71494697F50200C2
:10243000938545B817050300130505EC86CEA2CC9D
:10244000EF30E15D01E917F502001305E5B7EFD0C4
:10245000720D01A037F700E0F9575CC7FD571CCBA0
:102460000564B7E700E023A087109306701014C33B
:10247000B843C146B4C323A08718B8C30100010004
:102480001306C00381454808EF30415397470020A9
:10249000938787A73ECAED47A301F1029307A010D7
:1024A0002312F102D1472303F102A167938707E0CA
:1024B0003ECE970700009387E7E0BEC49707000071
:1024C000938707E2BEC685472304F102B547230878
:1024D000F102970700009387C79A3EDAB7F5070025
:1024E000970700009387C7E33EDE81469707000009
:1024F000938747DA7000E1051945BEC0231C8100AF
:1025000097100020E780A06858088147994670001E
:102510003E960346060085070507A30AC700E39811
:10252000D7FED24791C70357810185676373F700D0
:1025300001A04808EF309126AA8501C917F50200CD
:102540001305C5A9EFD0C26901A0F6406644256114
:1025500082804111170500001305A5E306C622C4B9
:10256000EF305120138481892300A4003128513990
:10257000034504002244B24037F60200130606E089
:10258000896541016F30E162411106C622C493069C
:102590007005371400402300D404130780FA230089
:1025A000E4048347F40293F7A70FA307F402230080
:1025B000D4042300E4048347F40293E72700A3072D
:1025C000F402F9311305407E2300040481470147DA
:1025D000814605468545EFF0CFE82244B2400145EB
:1025E00041016F30F148411197F50200938545B6DE
:1025F00017F50200130585CC06C6EFD0625E17F50D
:1026000002001305A5CCEFD0A25DB24029454101DF
:102610006FD00261411197F502009385A5B417F5BB
:1026200002001305A5C906C6EFD0825B17F50200AC
:10263000130585C7EFD0C25AB240294541016FD07A
:10264000225E411122C406C6834705002A849DC329
:1026500097F502009385C5B617F50200130505C668
:10266000EFD002584C4017F50200130565D4EFD0A7
:1026700022571DA058411DE797F50200938545B4E8
:1026800017F50200130585C3EFD0825517F5020038
:10269000130585D3EFD0C2542244B24029454101ED
:1026A0006FD00258A1679386D7036311D70297F5BD
:1026B00002009385E5B017F50200130525C0EFD0A1
:1026C000225217F50200130525D1E9B7ED0797F55A
:1026D00002009385E5AE17F50200130525BE6319C8
:1026E000F700EFD0E24F17F50200130525D05DB7D4
:1026F000EFD0024F4C4017F50200130525D185BFDE
:10270000411197F50200938525A717F502001305DF
:10271000E5BA06C6EFD0C24CB240294541016FD0A0
:102720002250797122D426D24AD02E842A8981451A
:10273000B2844800714606D6EFE0BFE79737002025
:1027400093870787DC4783D70700231421012313CE
:10275000F100EF0010799547A305F1009307401FA2
:102760003EC6FD572305A100230AF100EF10000823
:102770002686A2854800EF003079B2502254925448
:10278000025945618280411122C406C626C2834790
:1027900005002A849DC397F502009385E5A417F5EB
:1027A00002001305A5B1EFD0A2434C4017F502007B
:1027B000130585CDEFD0C242C1A05841B707CF0065
:1027C0009387777D631AF72097F502009385C5A15B
:1027D00017F50200130585AEEFD082401C448356E6
:1027E000E4008355C40003C6070017F50200130573
:1027F00025CBEFD0E23E2945EFD082420356C400FC
:102800000C441385012E97200020E780E09E03C72B
:10281000012E9306200A8357C400630CD702930647
:10282000300A6300D71893062008631AD7120547A9
:102830006380E71497F502009385059B17F5020066
:102840001305C5A7EFD0C23917F50200130505D14E
:1028500015A00D4797F502009385059917F502001D
:102860001305C5A56381E702EFD0823717F5020093
:10287000130505C5EFD0C2362244B2409244294523
:1028800041016FD0E239EFD0A23517F502001305F0
:10289000A5C4EFD0E2342945EFD082380355E400D7
:1028A000930720F805469385012E2380F12E953D50
:1028B0009377F50FAA8495C797F502009385C59283
:1028C00017F502001305859FEFD0823193F5F40FC1
:1028D00017F50200130505C4EFD082302945EFD06B
:1028E000223497F502009385259017F50200130511
:1028F000E59CEFD0E22E17F502001305E5C2EFD0FC
:10290000222E2945EFD0C2314165930730FA0546A2
:102910009385012E7D152380F12E21359377F50FB8
:10292000AA8495C797F502009385058C17F50200D8
:102930001305C598EFD0C22A93F5F40F17F50200DE
:10294000130545BDEFD0C2292945EFD0622D05669C
:10295000130606C8A14503C5018AEF3081258355BA
:10296000C40008442244B240924441016F10805296
:10297000914503C5018AEF30C13A97F5020093856E
:10298000A58617F5020013056593EFD0622517F5AC
:102990000200130565BEEFD0A2242945EFD04228DE
:1029A0007DBF05476381E70297F502009385C583E4
:1029B00017F5020013058590EFD0822217F502006B
:1029C000130505BD45BD8357E4000566130606C81B
:1029D000239AF18AC14541B7B707CC009387777D29
:1029E000631AF70297F502009385058017F5020038
:1029F0001305C58CEFD0C21E1C448356E4008355DA
:102A0000C40003C6070017F50200130565A9EFD03F
:102A1000221D61B7B707CE009387777D6302F70267
:102A200097E502009385457C17F50200130505899B
:102A3000EFD0021B4C4017F502001305259D9DBBEE
:102A4000B2402244924441018280011122CC97E598
:102A500002009385657B2A8417F50200130505861D
:102A600006CEEFD0E217A28517F50200130585CF39
:102A7000EFD002172945EFD0A21A93878186984399
:102A8000DC4321462C0003D561813EC63AC451394E
:102A90009377F50F9DC72A8497E502009385C57645
:102AA00017F5020013058581EFD082139375F40F9B
:102AB00017F5020013058598EFD082122945EFD053
:102AC0002216F2406244056182804111014506C62A
:102AD00023AE018A239B018A238C018AEF10804C4C
:102AE00097E502009385C56B17E502001305057D88
:102AF000EFD0020F17F5020013050596EFD0420E36
:102B0000B240294541016FD0A211411122C406C62D
:102B100026C293F715002E84638507108146172679
:102B2000002013066646854503D5018BEF60700AC9
:102B300005C597E502009385656717E50200130553
:102B4000E577EFD0E20917E502001305654BEFD0FA
:102B500022092945EFD0C20C97E50200938505654F
:102B600017E5020013058575EFD0820717E502000F
:102B70001305454AEFD0C2062945EFD0620A9724D3
:102B800000209384E442DC44054726852390E70037
:102B9000EFC0D07797E502009385456117E5020005
:102BA0001305C571EFD0C20317E502001305C54731
:102BB000EFD002032945EFD0A2069C4803D76181DC
:102BC00026852390E700EFC0107697E502009385F5
:102BD000E55D17E502001305656EEFD0620017E5AD
:102BE00002001305E545EFC0B27F2945EFD042034F
:102BF000930710F82380F12E83D7C18AA380F12E8A
:102C00001385012EA18391452381F12EA381012EED
:102C1000EF10402813451400B24022449244410171
:102C2000828093F72500C1C303D7618B35CB938690
:102C3000C18B944297F702009387078403C6818B68
:102C4000814513858137EF209006AA8431C997E525
:102C500002009385255D17E5020013052566EFC088
:102C60003278A68517E502001305053FEFC05277BD
:102C70002945EFC0F27A239B018A930710F823803D
:102C8000F12E83D7C18AA380F12EA1832381F12E57
:102C900091458D471385012EA381F12EEF10801FE2
:102CA0001345240095BF93F745009DC797E50200A3
:102CB0009385455717E5020013054560EFC0527232
:102CC00017E502001305053BEFC092712945EFC0DF
:102CD00032751345440089B793F785009DCB97E57E
:102CE00002009385255417E502001305255DEFC00A
:102CF000326F17E5020013052539EFC0726E2945C2
:102D0000EFC01272239B018AEF2050071345840005
:102D100021B793F705010145E38007F0854503D509
:102D2000418BEFE0D02D97E502009385A54F17E585
:102D300002001305A558EFC0B26A17E5020013059B
:102D4000E535EFC0F2692945EFC0926D13450401E6
:102D5000E1B5411122C497E502009385A5472A8475
:102D600017E502001305855506C6EFC072674C4093
:102D700017E5020013054561EFC092662945EFC0D3
:102D8000326A034704009307F00F6319F70297E5CF
:102D900002009385254417E5020013052552EFC074
:102DA00032644C4017E502001305055FEFC0526323
:102DB0002244B240294541016FC09266B24022448C
:102DC0004101828085CD411122C417E5020013051F
:102DD000E54E2E8497E502009385C53A06C6EFC0FE
:102DE0003260A28517E5020013054566EFC0525F09
:102DF0002244B240294541016FC092628280411154
:102E000022C426C22E84AA8497E502009385453801
:102E100017E502001305854A06C6EFC0725C294516
:102E2000EFC012602398918A2396818A85470545D1
:102E30002397F18AEF1000179727002093874717F1
:102E4000DC4703D70700C167FD17631DF700224465
:102E5000B240924403C5018A1306000A8545410128
:102E60006F203155B24022449244410182800111C9
:102E7000354697E502009385A54617F50200130530
:102E800065AF06CE22CCEF20913901E917E50200AB
:102E900013058513EFC0126901A0972700209387BF
:102EA000677B3EC4B7F50700856793870780814637
:102EB0001386418AE10519453EC697100020E78038
:102EC00000CD19469385418A1385C13097100020A3
:102ED000E780803234001386418A97E502009385AB
:102EE000656E17E502001305656FEF20C0342A8474
:102EF0000DC997E502009385E53117E5020013053A
:102F0000E53BEFC0F24DA28517E502001305453EF3
:102F1000EFC0124D2945EFC0B250F2406244056146
:102F20008280EF80802E17E5020013056532EF10D6
:102F30008054EF508039EFE05035172500201305FD
:102F4000E503EFE0302217E5020013056531EFE0FD
:102F500090352A84EF10D02EEFA0A05AEF00D15167
:102F6000EF20F046EF20000AEFC0903797E502000F
:102F70009385452A17E502001305453409C8EFC0BB
:102F80003246A28517E502001305C53851B7EFC0D8
:102F9000324517E502001305253AEFC07244294572
:102FA000EFC01248EFC0301AEF90004697E50200DC
:102FB0009385452629C117E5020013052530EFC08A
:102FC000324217E502001305A538EFC072412945CA
:102FD000EFC0124597E502009385C52317E502006F
:102FE0001305C52DEFC0D23F17E502001305853844
:102FF000EFC0123F05B717E502001305252CEFC0FF
:10300000323E17E5020013052545EFC0723D294504
:10301000EFC012410145EF00F0786DBF411106C6C7
:10302000EF90F260EF00D04C17050000130525AEBD
:10303000EF2051732380A18A17250020130545F73F
:10304000EF0010242D35EFF0CF9BB24017050000A4
:103050001305E59F41016FF0EF9E411126C2938455
:10306000012E22C42E862E84AA85268506C6971098
:103070000020E780601883C7012E1307100A638BB6
:10308000E712636BF7001307000A6381E704B2409D
:1030900022449244410182801307200A638AE71682
:1030A0001307F00AE395E7FE8547630BF41C97E5E9
:1030B00002009385651817E5020013052520EFC06F
:1030C000323217E502001305250715A09D47630955
:1030D000F40297E502009385251617E50200130513
:1030E000E51DEFC0F22F17E50200130565FDEFC0E7
:1030F000322F2244B2409244294541016FC05232DE
:1031000083C7112EA5C783D7412E03D7212EC2070F
:10311000D98F23AEF18A83C7640097E502009385B7
:10312000A51117E5020013056519238CF18AEFC07C
:10313000322B9387C18B8C4303C6818B17E502002A
:103140001305C5F9EFC0D2292945EFC0722DA38020
:10315000012E2244B2409244930700F82380F12EBE
:103160009D451385012E41016F00D052EF20A04CE8
:103170002391A12E935705012A842382F12E935780
:1031800085010145A382F12EEF20A04B2383A12EC0
:1031900097E502009385450A17E50200130505121D
:1031A000EFC0122403C6612EA28517E502001305A5
:1031B00065F449BFCD476301F40297E502009385AA
:1031C000A50717E502001305650FEFC0722117E58B
:1031D00002001305A5F321BF41469385112E1385E7
:1031E000813797100020E780200183C7212F03C774
:1031F000112FA207D98F239BF18A1306000A894554
:103200002244B240924403C5018A41016F20711AE1
:103210008D476301F40297E502009385E50117E508
:1032200002001305A509EFC0B21B17E50200130544
:10323000252975BD83C7212EA20703C5112E5D8DDB
:103240000D46A685EFF0EFCD9377F50F2A8485C75D
:1032500097E50200938545FE17E502001305050674
:10326000EFC012189375F40F17E50200130585EBF4
:10327000EFC01217BDBD05661306062C914549B770
:103280002244B2409244239B018A41016F20002FC7
:103290000111354697E502009385850417E5020084
:1032A0001305456D06CEEF20817701E917E5020091
:1032B0001305C52FEFC0122701A0EF5002232AC625
:1032C000EF00915DEF00D13CEF70E043F2403245FA
:1032D0000561828041111305800406C69700002015
:1032E000E780A062371700408327870A8D451305C2
:1032F000002093E707202324F70AEFE0DFA9EFE09F
:103300007FC117F50200130525FFEFC0B22117E5B5
:10331000020013052566EFC0F220EFF0EF90EFF00A
:103320004FA3BD37E53997000020E780E0790145DC
:1033300082804111B2862E86AA852D4506C6971039
:103340000020E780C084B240014541018280AE8602
:103350000146AA852545171300206700438393077C
:10336000000463E6C7021D71A2CC2A84080886CE39
:1033700032C6EFC0827BB2461008A285294597105D
:103380000020E780C080F640664425618280395580
:1033900082809387018C18429C4383D64500034565
:1033A000070083C5C700035646006396A50083D572
:1033B000E700638DD502011106CE2386A70023976F
:1033C000D700B705CF00DC4B9385757D05077D16CB
:1033D0002EC2230001003AC42316C1002317D100D6
:1033E00099C30A858297F2400561828082806D715F
:1033F0003C083EC6B707E500232291103EC8AA84C8
:103400003C083285232611103ECA23248110232034
:1034100021112E89EF20501B2A8497E50200938505
:10342000252117E50200130565E9EFC0627BA2853F
:1034300017E502001305C52FEFC0827A2945EFC0BA
:10344000227EB705CB009385757D6800EF00507C28
:10345000A2856800EF20F00C014781467000CA8504
:103460002685EF10201B15C52A8497E50200938559
:10347000251C17E50200130565E4EFC06276A285FE
:1034800017E502001305852BEFC082752945EFC0B3
:1034900022798320C1100324811083244110032941
:1034A0000110516182809387018C18429C4379718D
:1034B00022D406D60348070083C807012A8483D68E
:1034C0004500035546006396080183D82701638DA4
:1034D000D8022388070105072399D7003708CC00B5
:1034E000DC4B1308787D3ACC1307F5FF42CA23085A
:1034F0000100231EE100231FD10099C7080832C62E
:103500002EC482973246A2452285D535B250225428
:10351000456182806D713C083EC0B707E5003EC240
:103520003C083EC42326111023248110232291102D
:10353000231701002318010023190100231A010099
:10354000231B01009727002083D787AA99E3C1672F
:10355000FD172316F1009727002083D787A981EB59
:103560009387018C9C439C43DC4783D70700172437
:1035700000201304E4A7584C2317F100835744009C
:10358000484B2318F10005ED97E50200938545119E
:1035900017E50200130585D2EFC0826417E502002B
:1035A00013054511EFC0C2632945EFC06267832050
:1035B000C110032481108324411051618280972718
:1035C000002083C757A399E7EF2041055C4C23AA4D
:1035D0000700F1BFFD1797260020A38EF6A0035623
:1035E0000701834704014C470A85230BF100EF20B4
:1035F00060719387018C9C430147814688430A860A
:103600006C00EF102001AA8405C997E5020093859C
:10361000250917E50200130565CAEFC0625CA6859F
:1036200017E502001305C509EFC0825B2945EFC00D
:10363000225F5C4CC84B49BF9727002083C7B79BCC
:10364000EDDB1044854503C5418CEF20815685B7DD
:10365000DC4DDC4B99C7904503C5418C91456F20EB
:10366000415582805C4EDC4BA1C7B9C1411122C4D7
:1036700017E50200130585C42E8497E502009385A3
:10368000650006C6EFC0C255A28517E50200130506
:103690006505EFC0E2542945EFC082582244B2408C
:1036A00003C5418C13064006914541016F206150CE
:1036B0008280411122C417240020130464911C4C01
:1036C00006C689C7DC4399C34C4882975C4CC84BFB
:1036D000EF10D1745C4CB240224423AA0700410190
:1036E00082801387A181834707009306F00B85072B
:1036F00093F7F70F63E7F600238DF180034507008A
:103700008280930700F8CDBF83574500638D070C77
:1037100001114AC8172900201309898D52C4032AB0
:10372000C90106CE22CC03274A0126CA4EC6F1574C
:1037300029EB1307D00DFD576365C7042A841305D1
:10374000860042054181B284AE89EF10F16F232AD1
:10375000AA000325C9015C4995EF97E5020093850E
:1037600065F017E50200130565B5EFC0624717E580
:103770000200130565FFEFC0A2462945EFC0424A8B
:10378000DD57F2406244D2444249B249224A3E8562
:103790000561828093874400B705CF002319F500A7
:1037A0009385757D3105EF00B0460325C90183453A
:1037B00064003105EF20E0560325C9012686CE8539
:1037C0003105EF2020547146A2854A85EFC0E235CD
:1037D000504401CA854503C5418CEF20813D814796
:1037E0004DB70D3BEDBFFD573E858280411122C490
:1037F000171400201304C47F5C4C06C6C84BEF109E
:10380000F1615C4C2244B24023AA070003C5418CFD
:10381000854541016F20E150411126C29384018CFE
:103820009C4006C622C4BDCFDC43ADCF5CC12300A3
:10383000B5002A8497E50200938505DE17E50200AE
:103840001305C5A7EFC0C2392945EFC0623D9C40B2
:1038500023A4070023A20700971700209387477728
:10386000DC4FDC4B99C32955A93597170020938766
:103870002778DC4FDC4B91C3953F894503C5418CCC
:10388000EF20214A914503C5418CEF2081499C409E
:1038900003A347016308030022852244B2409244F7
:1038A00041010283B24022449244410182800111CD
:1038B000328506CE22CC26CA2E84EF20E050AA8480
:1038C00097E50200938585D817E502001305059F4B
:1038D000EFC002310307840003566400835544009F
:1038E000A68617E502001305E5E1EFC0622F294522
:1038F000EFC002339717002083C7E76D63979700E7
:103900000145453B81450A85013FF2406244D2446E
:10391000056182806D7123248110232611102322DA
:10392000911093F745002E84638107123C083EC036
:10393000B707E5003EC23C083EC423170100231828
:10394000010023190100231A0100231B010097170E
:10395000002083D7E76799E3C167FD172316F100BD
:103960009717002083D7E76681EB9387018C9C43F0
:103970009C43DC4783D707001717002013074765D0
:103980002317F100544F835747002318F100DC4AF6
:1039900095EF97E502009385A5CF17E50200130583
:1039A000E591EFC0E22317E502001305A5D0EFC0B3
:1039B00022232945EFC0C226134544008320C110AD
:1039C00003248110832441105161828097170020C5
:1039D00083C777602555BDC7FD1717160020A30CB8
:1039E000F65E03D6060183470701CC460A85230B02
:1039F000F100EF2020319387018C9C4317170020A2
:103A00001307075D97F60200938686D388430A86DC
:103A10006C00EF003040AA8445D197E50200938501
:103A200025C717E5020013056589EFC0621BA6854F
:103A300017E502001305C5C8EFC0821A2945EFC07B
:103A4000221E2685EFF0FFC685BF93F7250085C3AC
:103A5000414681452808EF1071762555EFF07FC566
:103A600028089305F00F4D3B1345240081BF93F7C1
:103A700015000145A1D7EFF0FFA9134514003DBF84
:103A80005C4D411106C688C3170500001305C5E843
:103A900023A0F18CEF20014DB2402382A18C01457F
:103AA000410182802A86B305B04017E50200130564
:103AB000A5D86FC0E212797106D622D401C9894710
:103AC0006307F502B2502254456182802800328497
:103AD00097000020E780407217E502001305C5E259
:103AE000EFC04224A2852800EFF02FD7E1BF2800C5
:103AF00097000020E780407017E50200130585E27B
:103B0000EFC04222C1B783D7818D6390A702239D66
:103B1000B18C239EC18C239FD18C2E8617E5020089
:103B2000130585CFBE856FC0A20B17E502001305F4
:103B300025D06FC0221F03574500011106CE83D741
:103B4000818D631FF702C167F917894503C501829B
:103B500023ACF18C23AE018CEF20A11C914503C551
:103B60000182EF20011C85471306F10085451305EE
:103B70005030A307F100EF908202F240056182808D
:103B800017E502001305C5CAEFC0C219FDB77D15C0
:103B9000954763EEA71417E70200130767C60A05E7
:103BA0003A951C41011122CC06CEBA972E84828709
:103BB00017E502001305C5C9EFC0C216D5A003C79B
:103BC00025009947631CF7002E85B53783456400AF
:103BD00017E502001305C5C8EFC0820017E5020013
:103BE0001305C5C9D1BF03C7250095476312F70266
:103BF000C16703D7818DF91703D5A500630FF700BF
:103C0000EF90A22017E50200130545C8EFC082110E
:103C100017E50200130505CA45B7239CA18C83D77D
:103C2000E500096613060690239DF18C83D70501F4
:103C300003C50182239EF18C83D72501A145239FD3
:103C4000F18CEF1011770566130606C8914503C580
:103C50000182EF1011760356E4008355A40017E5A6
:103C600002001305E5C3EFB0B2775DB717E50200B8
:103C7000130505C591B783C5250091476396F502E5
:103C8000854717E50200130525C5A307F100EFC01E
:103C900062091306F100854513055030EF8032703C
:103CA000F2406244056182809947639DF500228558
:103CB00059358345640017E50200130565BAEFB076
:103CC0003272F9BF9547639FF5008347140017E5EB
:103CD0000200130565C0E39107EE17E50200130526
:103CE00065C1D9BD17E50200130545C1C9BF828072
:103CF0001D71170500001305A51E86CEA2CCA6CA0D
:103D0000EF20412693840182994705442380A40033
:103D10002310F102700093074006854513055030CB
:103D2000231CF10223068100EF8072671716002022
:103D300013064631B14513057030EF8052661716F1
:103D400000201306A62DB54513056030EF803265BF
:103D50001010894513051031EF80726430188945C1
:103D600013052031EF80B263930500050D45EF4048
:103D70008100930500051145EF30F17F3018914522
:103D80001305704023008100230281002306810077
:103D900002DC23000102EF70725D0A86854513057F
:103DA0000040EF70B25C5000854513051040EF7085
:103DB000F25B1010854513052040EF70325B7000F8
:103DC000854513055040EF70725A7D55EF50B14054
:103DD0007D55EF8061117D55EFE08FB01716002003
:103DE0001306C624D5450145EF501131554681458E
:103DF0000810EFD00FFC894755468145281823004D
:103E000081022300F100EFD0CFFA8D474D46814566
:103E10006800230CF102EFD0CFF991472306F1009F
:103E200093870187984383C747001010D545014504
:103E30003AC22304F100EFE04FB00A8685450545FC
:103E4000EFE0AFAF3018D5450945EFE00FAF700098
:103E5000CD450D45EFE06FAE500095451145EFE0C3
:103E6000CFADC1671387818DF9171CC323220700CB
:103E70001385C181EFE08FAB1385818CEF60F22C4D
:103E800003C504008545EF103140F6406644D64432
:103E900025618280011122CC2E862A842315B1004F
:103EA00001478146ED4503D5818D06CEEF5051691E
:103EB0000356A100A2852AC697000020E780C033E0
:103EC0002C0003D5818DEFE06FAF09C5ED452800CB
:103ED000EF50F17EF24062440561828079719397E0
:103EE000050122D406D6C1872E8463DF070003C5EF
:103EF0000182EF10417919C1EF1041722165218DC6
:103F0000B25022544561828093F7150091CF171665
:103F100000201306E60F9385018D03C50182EF8013
:103F2000F21B13451400E9BF93F725009DC7130644
:103F30000064894503C50182EF10B1474D468145B4
:103F40006800EFD00FE7930780F86800CD4523069F
:103F5000F10089371345240065B793F7850085C3C1
:103F600083C701821307401F814613064006994507
:103F700003D5818DEF80F20F1345840051B793F77D
:103F800045000145B5DF03D5818DEF80D267056619
:103F9000130606C8914503C50182EF1091411345F0
:103FA0004400B9BF011106CE35C18547171700205F
:103FB000A30BF7069305F100130550309717002067
:103FC00023840706EF80F22F8347F100A9C7130669
:103FD000F100854513055030A3070100EF80323C06
:103FE0001716002013068603B54513056030EF80D1
:103FF000123B8547A307F1001306F1008545130521
:104000005030EF80D239F24005618280971700204E
:10401000A38B070045B71716002013062600B545E9
:1040200013056030F9BFEFD22FD42A8408452E89BA
:10403000B28909C900C197050000938525746105FF
:10404000EFF0705681447D5AEF10000563C3A4045D
:104050008144EF10600563C6A4049737002093875E
:1040600027EE9C43DC47B307F94091872302F40015
:10407000638109048327C900B307F4409587A3022D
:10408000F4001C4C89C79C4799C3228582976FD046
:10409000EFD05C44139714008504BA97239047012E
:1040A00065B71C48139714008504BA97239007003E
:1040B0004DB7832789000547B307F4409587A302CE
:1040C000F40083570400638EE7028DC309476384BD
:1040D000E7040D47E397E7FA97E70200938747D88D
:1040E0001CCC97E702009387A7D811A897E7020096
:1040F0009387879E1CCC97E702009387E79E5CC856
:1041000049B797E702009387278A1CCC97E70200FC
:104110009387878AEDB797E70200938727D91CCC4E
:1041200097E70200938787D9D9BF85E1EFD26FC5A2
:10413000004618448347940075839D8B6315F700F0
:10414000EF00501A48C46FD00FC68280EFD2CFC1A3
:1041500013893500C16442094111AA890144F1144F
:1041600013590901054A2EC6EF001073B245634684
:10417000A400014541016FD06FC283A70900131746
:104180001400BA9783D707006388B7006394970039
:1041900063742A010504C1BF0545E9BFEFD2EFBB37
:1041A000AA892E89328BB6843A8ABE8AEF80C025CE
:1041B0004DC12685EF10F0308D4763E5A7007D5592
:1041C0006FD02FBD83DB4400EF0010732A84EF0013
:1041D000F0739307740031443305850263C5A70269
:1041E000EF009071EF0050712A84EF003072930756
:1041F000740031443305850263CDA702EF00D06F10
:104200009307450019A8EF00707033058502130766
:10421000F0179307C017E357A7FC2D55E3C277FBB0
:1042200063000B02D6865286A6854A85EFE0103BD6
:1042300041BFEF00B06D330585029307C5FFF1BFA5
:10424000832749001385C90083D52700013779F9F1
:10425000BDB76955B5B7973700202395A7CE9737D7
:1042600000209387E7CD904381470C463307F50044
:10427000420741836393B7008280544613984700F6
:104280008507C2962390E600D5B79737002093871D
:1042900027CB9C4303C58700828017350020035538
:1042A00065CA8280EFD2EFADC1671387D7FF63077E
:1042B000E5026368A700F117630EF50001456FD0B2
:1042C0008FAE1387E7FF630EE500FD171D8D1335D5
:1042D0001500F5B7EF40E0377D15D5BFEF4060150D
:1042E000E5BFEF40C013CDBFEFD2AFA94111AA8403
:1042F00001442EC6EF00505BB2456346A400014561
:1043000041016FD04FAA9C48131514003E95835766
:104310000500E387B7FE0504E9BF03485500814661
:1043200093F7F60F63E5070181473E858280584584
:1043300093975600BA9703D727006316B70003D7A1
:104340000700E304C7FE8506E1BF83464500014739
:104350009377F70F63E4D700814711A81C45131624
:1043600057000507B29703D60700E313B6FE3E8554
:104370008280EFD26F9F93170501C187973A002083
:10438000938A0ABC6353F00883A70A00C0479C477E
:1043900003570400198D420541816366F50001440D
:1043A00022856FD0AF9F12052A94DDBFDC4713949E
:1043B0004900014A3E94834744006341FA02014A9E
:1043C000834754006346FA028509C20993D909015B
:1043D00083A70A009847E3EBE9FCD1B71C44131903
:1043E0005A00A6853E994A85013709ED050AE1B7CD
:1043F0005C4413195A00A6853E994A85F53519E1A2
:10440000050A7DBFE30209FC61BFAA848149C9B7DF
:10441000EFD22F971C452A8481E79307C5001CC55E
:104420001C44231204001CC09307F00F63E9B7007B
:1044300093F5F50F2285EF10D00E6FD0CF969394A1
:104440000501C167C18063F7F500A6852285EF10DD
:10445000F010E5B7C18193F5F50F2285EF10700CD0
:10446000A6852285EF10300DC9BF973700209387AE
:1044700027AD884382801C4599C79737002023A128
:10448000A7AC014582807D558280973700209387B5
:1044900027AB984383474500484792073E95828063
:1044A000EFD22F8E617100451C183EC6B707800100
:1044B0003EC81C183ECA8357440002CE02D002CC2C
:1044C000231EF100834784002A8902D22301F102CE
:1044D0003C083ED402D6553F835705002316F1020F
:1044E000EF30B0662307A1025C4003556400F183FE
:1044F00013F717008347F10252055181F99BD98FB9
:10450000A307F102EFE0E07E39C5AA840355050058
:10451000EF70707083D704002AD26800231CF1006A
:1045200083D72400231DF1001C4803D647008C4389
:10453000EF10407D8347B400CA8617D602001306E9
:1045400026408117A305F4006C004810EFE0100925
:104550005D616FD04F852155E5BF1C45B1CF03C5C7
:10456000A700894613576500630BD7028D46630E7B
:10457000D70285466300D702130740063305E502DC
:1045800003C7B700418B15CB83C7B700BD8B33552D
:10459000F54082801375F5031307803EC5B70967A0
:1045A0001375F50313070771D1BF3727090013757A
:1045B000F5031307077CD9B701458280EFC27FFC62
:1045C00003A98500630409048347B900AE8493F707
:1045D000070E91CF03459900930520030D81050532
:1045E000B305B50288446105EFF0D00705A02E851C
:1045F000AD372A8401CDFD218325C900B307B5401D
:1046000063F887002E94B305A440E9FD6FC0BFF99D
:104610008545C9BFEFC2FFF62A8403D50500011105
:1046200032C636C43AC22EC002CA02CC02CEEF70E5
:10463000905E82452ACA22852ECCEFF01FE50357F3
:104640000500231EE100EF305050A246324692474B
:10465000230FA10036874C08B28622850146EFF071
:10466000FFB305616FC03FF4EFC2BFF161711C1869
:104670003EC6B70780013EC81C183ECA3C0800452C
:104680003ED4AA8402CC02CE02D002D202D6EFF0EF
:10469000DFDF8357050035592316F102EF30F04A6A
:1046A0002307A10209C48357440091E721594A8591
:1046B0005D616FC05FEF0355640052055181EFE00B
:1046C00040632A8965D58347B40093F7070E89C7ED
:1046D00013058401EFF0807A83574400231EF10014
:1046E000834784002301F1025C4003550900D9830C
:1046F00013F7070883471102231CA10093F7F7075C
:10470000D98FA300F10283572900231DF1005C40DB
:10471000F18313F717008347F102F99BD98FA307A1
:10472000F102EF70504F2AD251D1834794006800B4
:10473000139757008347B400FD8BD98FA305F4006E
:104740001C4803D647008C43EF10C05BA68717D7E1
:1047500002001307E71E740005464C102685EFF093
:10476000FFA32A8929D58347B400A685FD8BA3051D
:10477000F400EFF0BFE425BFEFC2BFE0832485FE65
:104780002A8441112685EFF05FDD834734FF93F7DC
:10479000070E9DC32AC62685EFF09FD019C983470F
:1047A00034FFB245FD8BA309F4FE81C52285EFF0ED
:1047B000606B41016FC03FDF6DDD8327C4FF26853D
:1047C000829765F9834734FF93F7070E81C72285E7
:1047D000EFF0C06A032584FEEFF01FE9D9BFEFC2F6
:1047E0005FD79C4141112A8903C7070089472E845E
:1047F00093566700638CF6020D466382C6049307E6
:10480000F0076302F7022E85EF10005CAA8481494D
:10481000C16B130C490097270020938767729C4354
:10482000984763ECE90241016FC07FD603D745008A
:104830008547E3FAE7FE2E85EF10E05CC1BF03D7A2
:104840004500E3F2E7FE2E85EF100058AA8422858A
:10485000EF10E058C204C98C5DBFDC470355A900C6
:10486000139A49003E9A93170501C187635DF000D2
:1048700083570A006395A70263E574038327CA0080
:10488000034D5A001DA0A1672167A98F1307F7EFF9
:10489000E374F7FE63950900EFF0DFA071FD850971
:1048A0009DBF83278A00034D4A00835DA9000357FB
:1048B0006900216A138BC7003AC6814A33CA4D0189
:1048C000631E5D0197270020938707689C43E1DB07
:1048D000A2866286814526858297D1B7A167938794
:1048E000F7EF930C4BFF63F04703B2455A85EFF0A7
:1048F000FF8519CD03278B00104719CA1043638029
:10490000C4023107D5BFEE856685EFF0FF9D71FDCE
:1049100093861A0093FAF60F130B0B0255B78356C2
:1049200044005C43E3EDF6F622853AC6EF10C0384A
:10493000A1679387D7042A8A035D4400324763E85E
:1049400097008347D90093E707F8A306F9001C47AF
:1049500066852286E2858297C1670844FD17337A0F
:10496000FA00529508C02312A40115BF9727002012
:104970009387075D9843814715C31447814763FFB9
:10498000D500939745004C47BE9519C903C75500FC
:1049900081476375E600DC451606B2973E85828046
:1049A00003C745008147E37BE6FE16069C45F5B745
:1049B000EFC29FBBAA892E8A8144972A0020938A3E
:1049C0002A5883A70A00984763E4E4006FC01FBD1C
:1049D000DC471394440001493E9413BB1400834701
:1049E0004400634BF900014913BB14008347540092
:1049F000634FF9008504F1B70844931759005287B3
:104A0000DA860146A2853E9582990509C9BF4844C8
:104A1000931759005287DA860546A2853E958299FA
:104A20000509E9B7EFC2FFB5814517F5FFFF13058B
:104A3000C55F97270020239707509D3F6FC0BFB6E3
:104A4000972700209387C74F9C4381CFEFC27FB346
:104A5000814517F5FFFF1305455DEFF07FF56FC04A
:104A60009FB48280EFC25FB041112315E1002E890F
:104A7000B284B6893A8681460147ED452A84EF50D3
:104A8000212C2AC61DCD0356A100CE85EFB0E20928
:104A9000CA852285EF508170058915C1228501469E
:104AA0002C0023149100EF6021562A8409C5ED459E
:104AB0002800EF50C140228541016FC03FAE4944FC
:104AC000FDB76554CDBF5C41FD175CC18280EFC26C
:104AD0005FABEF00B17A95473305F50281450D8153
:104AE0006FC07FACEFC2FFA9EF0051799547330546
:104AF000F5020D816FC03FABEFC2BFA803550500A3
:104B0000EF20810A6FC03FAAEFC2BFA7035505007F
:104B10003287AE8617060020035666589725002078
:104B20009385C542EFF01FF46FC0FFA7EFC27FA5CA
:104B3000EF80A22D6FC03FA7EFC2BFA49725002032
:104B40009385C540EF70613D01456FC0DFA5EFC2A1
:104B50005FA381451705002003556550EF50912153
:104B60006FC07FA4EFC2FFA1972500209385053F6A
:104B7000EF70A13A01456FC01FA3EFC29FA081450E
:104B8000170500200355A553EF50D11E6FC0BFA1DC
:104B9000EFC23F9F2E85EF60A066EF60A06F6FC0F1
:104BA0009FA0EFC21F9EEF6060776FC0DF9F5C49E0
:104BB000E1175CC95CC583572501A1072319F500DE
:104BC00083570501A1072318F5008280F1473305BB
:104BD000F502972700209387673A9C433E95828091
:104BE0008D476317F60603D74600854763F2E7064D
:104BF000EFC23F99368536842E89EF10E01C39C10B
:104C00008357440093140501C18063ED9702228508
:104C1000EF10801BFD14231294009307A002630E73
:104C2000F5009307B0026301F50293079002631B3E
:104C3000F5002285EFC0305B31A00146CA85228590
:104C4000EF70306D6FC03F962285EF00D058DDBF0A
:104C50008280972600209386A6329C42014599CFF8
:104C60009843D44217260020232CE6306396D700C1
:104C70009726002023A8E6301385C7FE8280EFC266
:104C80005F90D9267144330585029145EF708040CD
:104C900001E565556FC03F919727002023AEA72CF3
:104CA0006526330585029145EF70C03E7DD197277B
:104CB000002023A5A72C492E972700202398A72A58
:104CC0006126972700202394A72A97D7020093876D
:104CD00067CC17270020232FF7289707000093871A
:104CE00047ED172700202325F728014565B7EFC2B8
:104CF0005F89AA851725002013054527EF10A020FE
:104D00006FC07F8AEFC2FF87EFF07FFEEF10202198
:104D1000972700209387C7269C4381CF1387C7FE20
:104D200009CB83D5C7FF172500201305E525EFF034
:104D300060136FC05F87EFC2DF84EFF09FF119C986
:104D4000834785002A8493F7070499E70355E50014
:104D5000EFF05FFB6FC03F858347C50093044501BB
:104D6000172900201309C92185E3832709005CC99D
:104D70009727002023A6972083274900E1FF972744
:104D8000002023A19720F9B7FD172306F500610540
:104D9000EF60405E8307840063C907048347840093
:104DA00093E707F82304F400EF0091244205A94794
:104DB00041813375F5028347840093F707FCC98F5F
:104DC0002304F4008347D4003E951C402318A4001C
:104DD00089CF984319CB8347C4005040814585074C
:104DE0003305F502420541810297832709005CC81B
:104DF0009727002023A697188327490089E797273C
:104E0000002023A197188347C400A9D78355040124
:104E10001725002013054517EFF0C00425BFEFC28A
:104E20004FF6972700209387A72A9C470144858344
:104E3000858B81EFAE84B2853A86EF10A0132A8469
:104E400009C5EF10A00A829408CC22856FC0AFF587
:104E5000EFC28FF141112E8932C6AA89712C3247D7
:104E600013060502CA8697050000938565D61725A7
:104E700000201305A50FEFF09FFA2A8429CD930493
:104E8000C50065261946AA852685EF00B0678545C9
:104E90002685EF00906417D50200130565AD4E9589
:104EA000834505002685EF00D0675C483146814583
:104EB000A1075CC85CC483572401E1172319F400DF
:104EC00083570401E1172318F4001C4C3E85EFC002
:104ED0004FEEA3042501228541016FC02FECEFC2E4
:104EE0004FEA4111AA842EC632C4EF108002004D51
:104EF000B2452246834784000CC050C093F7F703A5
:104F000093E707042304F400231804002685EF0028
:104F1000F07D83479400A9462317A40013D73700D8
:104F200005073307D7029D8B85072306F400A306E8
:104F3000E40083C70401D8488507230FF7FE17272D
:104F400000201307E7035843232A04009307440172
:104F50001DEB172700202327F70217270020232106
:104F6000F70217240020130424022285EFE0506585
:104F70001C44858B5D8D09E581452285EFE0906EAF
:104F800041016FC04FE21CC317270020232CF7FEFE
:104F9000C9BFEFC20FDF970500009385A5C4014587
:104FA000EFF01FBF01456FC00FE0EFC28FDDEFF0E4
:104FB0005FBF6FC04FDF8347C500A1E7EFC26FDC63
:104FC0002A840355E500EFF09FD215C9834784007A
:104FD00093F7F7FB2304F4001C4091C7DC4381C71F
:104FE0004C4001458297EFF0DFC6172500201305DE
:104FF000A5F9EFE0B0680355E400EFF0BFD06FC053
:105000008FDA8280EFC2EFD797270020938747F788
:1050100097050000938565D2172500201305C5F676
:1050200023A0070023A20700EFE0F0576FC0AFD71F
:105030001C4D91CBDC4381CBEFC2AFD4834507003D
:1050400082976FC04FD6828097270020938707F6FC
:105050009C4303C50700828097270020938707F5AC
:105060009C4303C51700828097270020938707F48D
:105070009C4303C52700828097270020938707F36E
:105080009C4303C54700828097270020938707F23F
:105090009C4303C53700828097270020938707F140
:1050A0009C4303C55700828097270020938707F011
:1050B0009C4303C56700828097270020938707EFF2
:1050C0009C4303C57700828097270020938707EED3
:1050D0009C4303C58700828097270020938707EDB4
:1050E0009C4303C59700828097270020938707EC95
:1050F0009C4303C5A700828097270020938707EB76
:105100009C4303C5B70011E11D458280972700200D
:105110009387C7E99C4303C5C70082809727002077
:105120009387C7E89C4303C5D70082809727002058
:105130009387C7E79C4303C5E70082809727002039
:105140009387C7E69C4303D50701828097270020F9
:105150009387C7E59C4303C52701828097270020DA
:105160009387C7E49C4303D547018280972700209B
:105170009387C7E39C4303D567018280972700206C
:105180009387C7E29C4303D587018280972700203D
:105190009387C7E19C4303C5A7018280972700201E
:1051A0009387C7E09C4303C5B701828097270020FF
:1051B0009387C7DF9C4303C5C701828097270020E0
:1051C0009387C7DE9C4303C5D701828097270020C1
:1051D0009387C7DD9C438857828097270020938759
:1051E000E7DC9C4303D5C702828097270020938782
:1051F000E7DB9C4303D5E70219E11305800C8280AD
:1052000097270020938787DA9C4303C50703828092
:1052100097270020938787D99C43C85B8280972774
:105220000020938727D88843828097270020938780
:10523000A7D78843828019E17D558280F5DE9842A8
:1052400065DFFDD917270020130787E81847AA87CD
:105250007155058B6319072203C507001547E37DC8
:10526000A7FC03C737001305F0057D171377F70F69
:10527000E364E5FC03C35700E30003FC83C8670055
:10528000E38C08FA03C77700494579171377F70FBE
:10529000E364E5FA03C7A70011481305F7FF137588
:1052A000F50FE36BA8F803CE97000D481305FEFF3A
:1052B0001375F50FE362A8F803C8B7006309080087
:1052C00065181378F80F1305600DE36705F703C53C
:1052D000C700794879151375F50FE36FA8F403C873
:1052E000D7000D457D181378F80FE36705F503D84F
:1052F0000701930E40175118420813580801E3EDB7
:105300000EF303C8E7007D181378F80FE36605F382
:1053100003C827017D181378F80FE36F05F103C860
:105320008700C54E75181378F80FE3E70EF103D820
:105330006701856E938EBEE06D1842081358080110
:10534000E3EC0EEF03D847016D184208135808012B
:10535000E3E40EEF03D887017918420813580801D7
:10536000E36C05ED03C8A7017D181378F80FE3651A
:1053700005ED03C5B7011D487D151375F50FE36DE8
:10538000A8EA03C5D701714879151375F50FE365D0
:10539000A8EA03D5E7011308E00F7D154205418116
:1053A000E36CA8E803C50702494879151375F50FA2
:1053B000E364A8E8C85301C937C834005915130875
:1053C00058BFE36BA8E603A8870237C5340013056E
:1053D00055BF5918E36205E7172500202326C5BCF1
:1053E00003C60501172500202322F5BC0545E375FA
:1053F000C5E403D82501D04933760603E31E06E24F
:1054000003C61501E30A06E217260020232CB6B8CE
:1054100083C5270001466387A50003C61700F14531
:105420003306B60283C707039305C00272971A07B3
:105430001307C70516031A9796084697B387B7024E
:1054400041553E97329742074183636EE802EFC2AF
:105450004F933685EF60304EEFD0607E2A84EF8028
:10546000607A2A94EFC050022A94EF60B0652A94C3
:10547000EFF0FF802A94EF20D0622A94EF5020644E
:1054800022956FC04F928280EFC2AF8F4111A30768
:10549000A100EF70507B9305F10017050000130584
:1054A00065B9EFF0EFD0014541016FC0CF8FEFC27A
:1054B000CF8A172400201304A4C10328840079593B
:1054C000936818009724002023A814C113781800AB
:1054D000631E0800BA84BE89368B328A2E89AA8A56
:1054E000EFE0BFDA7D15269509E531594A856FC091
:1054F0004F8AEFE09FD97D152695A167E357F5FE0A
:1055000097270020938787F398433E8C814B11C7E0
:105510000145EFC0701B933B15004A85DA8656861D
:10552000D285EF70D0142A8911CD1C44F99B17271E
:1055300000202323F7BA83270C00CDDBE3880BFA86
:1055400082976DB726859727002023A507B8EFE03F
:105550009FD04146CE85172500201305E5C0EFA05A
:10556000C25CEFA020650325040BEFA02067054572
:10557000EFA0206D0545EFF03FF18DBF972700208C
:10558000938707B59C47858BD5C7EFB29FFF17253B
:1055900000201305A5BB9727002023AB07B2972750
:1055A000002023A907B29727002023A707B2EFE026
:1055B000F00CEF404002EFE08064EFE000699727D5
:1055C0000020938767AF9C4381C70545EF601012A9
:1055D000972700209387C7A89C4389C741657D15FD
:1055E000EF508069EFC03017EFA0A05D9727002033
:1055F0009387C7C29C431397170163540700EFC0FA
:1056000060229727002023A107B69727002023AF09
:1056100007B49727002023AD07B49727002023ABBA
:1056200007B4EFF09F984923EFF0CFBFEFC040449D
:105630006FB07FF7828097270020938767A9884300
:105640008280EFB21FF4EF60105DEF60F05E6FB02C
:105650009FF5EFB27FF12A849304140201112E8585
:10566000B289A685214636C63A89EFA0A2491DE136
:10567000B24638082686CE8513059404EF40404193
:1056800021462C084A85EFA0E24713351500056135
:105690006FB0DFF00145E5BFEFB2BFEE9305450601
:1056A000172500201305C590EFE0C07B6FB0BFEF5A
:1056B000EFB23FED41112EC6EFF0CFC2B24588C127
:1056C00041016FB05FEEEFB23FEAAA842E84EF6033
:1056D000B056AA8985452285A92583C7E401138987
:1056E000940899E313890403CE8522851D2D214654
:1056F0009305190222853925972700209387479D16
:105700008C432285EF0060682146938584022285C0
:10571000D52B6FB0BFE8EFB25FE43971EFC0A02BBB
:105720009305400645EDEF60304E630E0510972758
:10573000002083C7A78913B7170097260020238767
:10574000E688014489CFC1641729002013094998CC
:105750009309400EFD14EFF03F986348A408EFF062
:105760006FB84169B7290900096AFD7A2A8B81441B
:105770007D199389F97B130A0A71938A8AC7EFF01E
:10578000BF9563D5A4041304400EB3878402172782
:1057900000201307E7930324070B3E948357C401AB
:1057A0006386270918403307EB4063EAE900834723
:1057B00044008507B3874703D6976369F706014618
:1057C00081450945EFF0CFE8AA8B29E1EF209059F8
:1057D0008547631FF50489659385057117150020BA
:1057E0001305057DEFE00068A1A8B3073403032784
:1057F000090BBA9703D7C7016308970003C757007F
:10580000A38207002382E7000504B1B79305C50012
:105810002285EFF05FEB5E85228697C502009385B7
:105820006516EFF0CFEB5E85EF00606F850481BFFA
:10583000972700209387C7899C478D83858BC1FF5D
:1058400021616FB01FD501468545094502D002D2BE
:1058500002D402D6EFF0CFDFAA847DD1EFC0E016EC
:105860001389C4002A8481454A8565290C40414634
:105870004A85492983294400638809084E8502D84E
:1058800002DA02DC02DEEFA0A24A2ACE141005469C
:105890002C0808184ECCEF4040171375F50F2DE576
:1058A0008355840093E525004A854D2911460C1047
:1058B0004A858929014697C502009385250D2685CD
:1058C000EFF0EFE12685EF0080655C40B5DB014637
:1058D00085450D45EFF0CFD7AA843DD148401389C7
:1058E000C400EFA0E2442AC64A85E12E3246636A2C
:1058F000C5004C404A853921014681452685EFF097
:105900000FDE2685292D2DBF8355840071BFEFB290
:105910005FC7971700209387A77B9C4719CD93E714
:105920008700171500201305A568171700202325E9
:10593000F77AEFE0C0516FB01FC7DD9B171700204B
:10594000232CF778EF2010427DF517150020130562
:105950002566EFE0A052C5B7EFB23FC04169AA8902
:105960002E8AB28A368BBA8B8144171C0020130C06
:105970002C76930C400E7D19EFF00FF663C4A40053
:1059800001442DA03384940383270C0B3E9483574A
:10599000C401638027055A87D6865286CE851305B3
:1059A0000403EFF01FCB11C523800B0022856FB0DD
:1059B0005FBE8347F40191CF5A87D6865286CE8543
:1059C00013059408EFF0FFC809C585472380FB0045
:1059D000F1BF850455B783574500638D0716EFB2B5
:1059E000BFB801112A84CD2619C58547630AF5047D
:1059F00005616FB0BFBAEFB0107E7DF983574400E8
:105A00004947ED9BE396E7FEC1452285612CAA84B8
:105A10002285D52E0357440002CE91472A89631769
:105A2000F700228519293C082ACC3ECEEFB0F07948
:105A30005C55DDDF74084A86A685054582974DBF13
:105A400003574400D147E3F5E7FA032A0400C1698C
:105A50000149971A0020938AAA67130B400EFD197B
:105A6000EFF08FE76344A90C2285032A0400A92ED6
:105A7000A1452A8922853D24AA8422857D2E1440B1
:105A80002A86AA8978082685CA85EFF0FFECAA84C1
:105A900025D103C7F40189476315F7008347C10186
:105AA000A1DB5546D28513856400EFA002080145AD
:105AB000EF60701601C583D7C401B1EB97170020C2
:105AC000938707619C4793551900858913D7370041
:105AD000058B11CB8983858B6397B70001452EC653
