:040000006F008065A8
:1000040000000000000000006F0080086F00401E28
:1000140000000000000000000000000000000000DC
:1000240000000000000000000000000000000000CC
:100034006F004006000000006F00E00500000000B3
:100044006F0080056F0060056F0040056F0020059C
:100054006F0000056F00E0046F00C00400000000A2
:100064006F0060046F0040046F0020046F00000400
:100074006F00E0036F00C003000000006F00600326
:100084006F0040036F0020036F0000036F00E00265
:1000940001A001A001A001A001A001A001A001A054
:1000A40001A001A001A001A001A001A001A001A044
:1000B40001A001A001A001A001A001A0B717004068
:1000C400930670052380D704130780FA2380E7047E
:1000D40003C6B7041376F60DA385C704238007046B
:1000E400137605022DC603C6A700118A0DE22380EC
:1000F400D7042380E70403C7A700136747002385B9
:10010400E7009307004B01000100FD17EDFFB7174F
:100114000040930670052380D704130780FA2380D8
:10012400E7047D892394A700010001000100010078
:10013400238007042380D7042380E7049306100553
:1001440037270040A303D7802380070482801376D7
:1001540005046DDE03C6A700418A0DE22380D7049F
:100164002380E70403C7A700136707012385E7007B
:100174009307007D01000100FD17EDFFB717004054
:10018400930670052380D704130780FA7D892380A2
:10019400E704136505042394A7000100010001008E
:1001A4000100238007042380D7042380E7049306F7
:1001B40030053727004079B7411181460146814512
:1001C400114506C6B12AB7170040130770052380EE
:1001D400E704130780FA2380E70403C7670413675F
:1001E40017002383E70423800704B240410182807F
:1001F40081460146814511452522B71700409306E3
:1002040070052380D704130780FA2380E7047D5602
:100214002396C7022380D7042380E70403C7670417
:10022400136717002383E7042380070401A0BD4755
:100234003305F50201007D1575FD8280411122C44C
:1002440026C206C6AA84014463179400B24022441D
:1002540092444101828005041305803E4204C13F5B
:100264004180DDB72303048015472303E4800100A4
:100274002302A480828083076480E3CE07FE2303E5
:100284000480828083076480E3CE07FE03454480B4
:10029400828083076480E3CE07FE2302A4808280E9
:1002A400411126C44AC24EC006C61377F50BAD47AA
:1002B400AA892E8995446306F70019456537653F79
:1002C4008D444E854537FD59FD1463983401B24081
:1002D400A2441249824941018280135509011375D0
:1002E400F50F453F2209CDB7011126CC06CEB70440
:1002F400080051371545BD37713769372AC6A53F00
:1003040032459377150089EB136515001375F50FC6
:10031400F240E24405618280FD14E9FC0145CDBF51
:10032400397126DC4ADA4ED852D656D45AD25ED027
:1003340006DE62CE66CCB7E700E07D5783AA0700ED
:1003440022C603AA470023A0E71823A2E718B71779
:100354000040130770052380E704130780FA238005
:10036400E70483C74704930B75FFB684E20793FB46
:10037400FB0F8546AA892E8B328937240040E187FA
:10038400015763FA76016308D50089461307000212
:100394006313D5000157D98F93F7F70FB71C0040AB
:1003A4002382FC0411472303E4801305F00F5D3D11
:1003B400094CD13563697C11B70707003E9B378729
:1003C40007007955637EEB02B3079B00636AF7026B
:1003D400A9476399F90689E48144713D26850DA0F6
:1003E400DA850945753D05090345F9FFFD14050B3B
:1003F4004D3581C49377FB0FFDF7FD3569FD7D55C0
:10040400B7170040130770052380E704130780FA29
:100414002380E70403C74704418B2382E704F25097
:10042400B7E700E023A0571123A24711E254324456
:100434005259C259325AA25A125B825B724CE24C34
:1004440021618280A5476395F90685691309F00F38
:10045400B3069900B3742B01B6941349F9FFB3742E
:100464009900856B33796901416B9387F9FFB3F781
:10047400270199E363FC340193D94900C147E3E6BA
:1004840037FF99BF0569C1697D19D9B71305800D77
:100494006388690113050002638479011305100858
:1004A400CA85FD3B913521DD4E99B3843441D9B7DA
:1004B400DA852D45F533CA94E30099F20509D93359
:1004C400A30FA9FED5BF9387F9FF93F7F70F636CCA
:1004D400FC0803C75C04B70708001377070219E395
:1004E400B78707007955E37DFBF033079B00E3E909
:1004F400E7F089476390F9048980D549E38E04ECD9
:10050400DA850945713B11090327C9FF9147232067
:10051400E48003076480E34E07FE23033481FD1760
:10052400EDFBFD14110B81C49377FB0FE9FF6D3BC9
:1005340071F5F1B58547E387F9F4DA852D458D33F7
:100544009389F4FFE38A04E8353B93F7390091EB90
:10055400832604800327090093074900E39FE6E606
:100564003E89CE84F1BFB5476396F9001305900B1D
:10057400D5399DB5B1471305B00AE38BF9FE994708
:10058400639EF902DA852D45213B81448D4BA149B7
:10059400D53963967401832704802320F9008504E8
:1005A400E39834FF8327048013172B016355070056
:1005B4002312F90015B52322F90039BD9D4763992B
:1005C400F90281451305B004E139BD442320090033
:1005D40023220900FD597D3193F77400CA9703C79C
:1005E4000700FD14398D2380A700E39634FFEDB393
:1005F400A1476392F904CD398144630D0B008D4703
:100604009304C0036308FB009304000563048B0197
:10061400930440041375C507E30095DC194599312B
:100624009939054581312685AD3109459D316D39AD
:10063400E31405DAE9B391476399F90013056006F9
:10064400153115391305900925B7E38709D8F154F5
:0406540069B3000086
:100658009741002093818120178100201301019A7E
:10066800130540009735002093854519173600205B
:100678001306067E63FAC5008322050023A05500F1
:1006880011059105E3EAC5FE17350000130505F1CC
:1006980097450020938585961386818063FAC50067
:1006A8008322050023A0550011059105E3EAC5FE44
:1006B80013858180938501966377B5002320050013
:1006C8001105E36DB5FE9302800873A002309732DE
:1006D80000209382A21293E2120073905230970284
:1006E80000009382820B73901234730020303D43D4
:1006F8002A876373C3029377F700BDEFADE593765E
:1007080006FF3D8ABA960CC34CC30CC74CC74107B9
:10071800E36BD7FE11E28280B306C3408A069702D4
:10072800000096966780A6002307B700A306B700C7
:100738002306B700A305B7002305B700A304B70035
:100748002304B700A303B7002303B700A302B7002D
:100758002302B700A301B7002301B700A300B70025
:100768002300B700828093F5F50F93968500D58D09
:1007780093960501D58D61B79396270097020000DF
:1007880096968682E78086FA9680C1171D8F3E96D8
:10079800E374C3F8A5B779711305800406D622D48B
:1007A80026D24AD04ECE52CC56CA5AC85EC662C469
:1007B80066C297300020E78020101545973000204A
:1007C800E780802785450545292E37140040832773
:1007D800840A85451305001093E707202324F40AAB
:1007E800B12C8D4513050020912C992983451404BB
:1007F800173500001305C5989384C181EF10E06890
:1008080023A691809387C18523A8F180EF009028C3
:1008180017350000130505984169EF10C07B973A1A
:100828000000938A2A987D19173A0000130A0A9C37
:100838009389C189378B0040854B554C83476B00A2
:100848000145858B91CB23037B01B121631685017B
:1008580097470020238877819747002083C78780A0
:1008680099E3631385031305800C97370020238BC6
:10087800077E97300020E780201CEF00B061AA8532
:1008880001C55685EF106060EF10205CAA8519C578
:10089800173500001305C592EF10205F13053003CC
:1008A800EF00B03F630125091374F50F22853D233E
:1008B800630404109307F4FF3147B387E702CE9728
:1008C80083CC870093F7FC006382071293958C0111
:1008D800E185FD8593F5050C014613E50C098D238B
:1008E800AA85631A050E93CC0C08630A040C7D14C0
:1008F80031453304A4024E942304940103448B002D
:100908001374F40F19CC173500001305258DEF105B
:10091800C057814C93F7FC0F63E6870A2945EF100F
:10092800005B0545FD2613053002EF001037E3078D
:1009380025F11374F50F2285552161C09307F4FF43
:100948003147B387E702CE9703CB87009377FB0045
:10095800638F070C93158B01E185FD8593F5050CD5
:10096800014613650B09E929AA855DE5134B0B08B8
:1009780041C87D1431453304A4024E942304640114
:10098800B787004003C487001374F40F1DC0138594
:10099800C181EF003037173500001305A588EF1027
:1009A800C04E014B9377FB0F63EF87042945EF1087
:1009B80000520545B92EBDBD83CC418D21B7238A90
:1009C800918D2DBFB387940183C507005285850C8F
:1009D800EF10A04B81B79307A002E304F5F4173595
:1009E800000013052581EF10404A25BF1735000088
:1009F80013058581EF10205E2DB703CB418DB9B764
:100A0800238A618DB5BFB387640183C5070052850A
:100A1800050BEF10804779B79307A002E30BF5F8B1
:100A28001735000013050581EF10204659B7173513
:100A380000001305A581EF10005AA5BF914763EE8A
:100A4800B70217370000130767828A05BA959C41D9
:100A5800BA978287B717004003A7470B1345F5FFDE
:100A6800698F23AAE70A03A7070B698F23A8E70A58
:100A780003A7070A798D23A0A70A8280B717004029
:100A880083A6470B1347F5FFF98E23AAD70A83A637
:100A9800070B558D23A8A70A83A6070A758F23A0DD
:100AA800E70A8280B717004003A7470B498F23AA9C
:100AB800E70A03A7070B1345F5FF45BFB717004023
:100AC80083A6470B1347F5FF758F23AAE70A03A7E9
:100AD800070A598D4DB7B717004003A7470B498F31
:100AE800EDB7B717004003C7470203C7570211ED18
:100AF800130770052380E704130780FA2380E704AF
:100B080023820702238007048280411106C622C47B
:100B180026C24AC093F7050893F63500054789C7EA
:100B28008981858913E7250037140040130970056A
:100B380023002405930480FA230094042302E4028A
:100B4800A302D40223000404054597300020E7805F
:100B5800C0ED23002405230094048347440293E74F
:100B6800C7002302F40223000404B2402244924442
:100B7800024941018280B717004003D5870042052A
:100B880041819377050491EB9377F5013755E80197
:100B9800130505803345F50282809377050C13070A
:100BA80000046397E7009377F50137459C1CCDB7A0
:100BB8002165130505D08280814737370040A1465B
:100BC80063C4C700328582800345B740E38EA6FE22
:100BD8003385F5000345050085072304A740CDB7F5
:100BE80097370020938787479C43138701963E9544
:100BF800636EE50017770020130747206368A70096
:100C080017370020232CA7443E858280FD57EDBF6F
:100C1800411122C406C62A84B93F2947B307E50211
:100C2800B2408D83B3D7870222449507B3D7E70232
:100C380037370040C207C1832316F740410182803D
:100C4800716541111305052006C6D937B73700402D
:100C5800130770F82381E7400D47A381E740130786
:100C68000004A380E74005472387E740B2404101DD
:100C78008280B787004003C707001377F70B2380EC
:100C8800E70003C767021377F7072383E702828029
:100C98002396018C8280411106C63787004083471E
:100CA800570003C5C18C858B9DCF11C5834717009D
:100CB8000145858B95E7E93FB787004083C7570013
:100CC800172500001305C55B858393C71700858B1F
:100CD8002387F18C85472386F18CEF10C02F55456B
:100CE800B240410182806DDD65371725000013058C
:100CF800E559EF10402E5945E5B73787004083473F
:100D080037001375F50793F70708C98FA301F70094
:100D1800828011C1B9BF378700408347070093E736
:100D280007042300F70082804111A147014506C648
:100D380022C4A384F18037840040C137834714005C
:100D480093F7E70FA300F4002D37834714003D45C0
:100D580093F7970F93E72700A300F400973000203C
:100D6800E78080CD834714001305A00F93F7D70FB2
:100D7800A300F40097300020E78020CB85472303A9
:100D8800F400B24022444101828083C7C18C81E7CC
:100D980085472386F18CB787004003C7570059451C
:100DA800058B05CF03C71700058B19EF03C757003D
:100DB800098B933617002387D18C19C703C71700EF
:100DC80013674700A380E700378700408347170071
:100DD800014593E71700A300F7008280411106C67A
:100DE80022C431C1B1477D153305F5021384C18989
:100DF8002A9403451400113703452400193F8347FB
:100E080024009DEB3787004083476702130540069F
:100E180093E707082303F7022244B240410117333E
:100E28000020670083C003C5D18CC13D2244B24075
:100E380003C5E18C4101F1BDB240224441018280E9
:100E4800397122DC26DA4AD84ED652D456D25AD034
:100E58005ECE62CC66CA6AC86EC606DEB787004038
:100E68002387B702B78D0040AA89328D2385B70240
:100E780013594500014493846D00094B054AD54B2D
:100E8800854A7D5CB94C23843D0323806401930724
:100E9800003203C70400098B09E7FD17C207C183A5
:100EA800EDFB23840D0283C70400898BE5C383C748
:100EB8000400858B9DC323804401F13B63147501B5
:100EC8002384418183C7C18CD5C76387570B13051A
:100ED800800C97300020E78040B583C70400898BD9
:100EE800D9C783C77D0093F70704C9EB83C77D0083
:100EF80093F7F70F13F5F70063049509294763196A
:100F0800E50263020D08FD576303FD007D1D7D1496
:100F18001374F40F3D4597300020E78000B10504B5
:100F28001374F40F8947E3F087F61305000221A82C
:100F380025476309E902B5476304F90063185905B1
:100F480071D913650502F2506254D2544259B2590C
:100F5800225A925A025BF24B624CD24C424DB24D2D
:100F6800216182809D8B0D47E39CE7FC65B7238058
:100F780084014DB75945C1BF5545F1B70145E1B7A2
:100F88001305E002C9B71305A00275BF1305E00FEA
:100F98005DBF011126CA4AC8AE842A891305800C90
:100FA80006CE22CC4EC652C456C25AC09730002034
:100FB800E780A0A799C02380040037840040A14798
:100FC80089692306F4021386097181451305000D0A
:100FD800853D63150514930700FD2307F4022305D7
:100FE800F40285472306F402938A018183A70A0045
:100FF80003C4770003C767002204598C61CC630BD4
:10100800090C83870700378A00409389097163CAEE
:1010180007041305800C97300020E78000A183C7E0
:1010280091806374F4009377F40F2306FA028147E2
:101038000347CA026399E7108345EA024E86414591
:10104800013569ED8347CA021D8C4204418081C87D
:101058008347CA0203C70400BA972380F40055F8EF
:1010680095A8938AC1801305800C97300020E780EB
:10107800C09B8345AA024E8613050009D13359ED5A
:1010880003478A009377F40F6376870083478A00C3
:1010980093F7F70F1D8C4204418091C403C70400E5
:1010A8003E972380E40001479376F70F6392D708B1
:1010B8003E9983478A0093F7F70F89CB03478A0045
:1010C80083C79180FD17F98F91E351FCB7870040E2
:1010D800238607021305800C97300020E780E094F0
:1010E800B787004083C7C7021305000993F7F70FB6
:1010F80091E341450966130606719305000C89338F
:1011080011ED378700408347C70293F7F70F99C758
:101118008347870093F7F70F91C35D45F240624418
:10112800D2444249B249224A924A024B056182801E
:1011380083A60A00BA9603C60600B306E9000507A7
:101148002380C60095B703A70A008346090005094E
:101158003E9785072300D70093F7F70FD1BD814746
:1011680093850181A1463307F5000346070098419E
:101178003E972300C7008507E397D7FE82800111B9
:10118800A147172500001305253E06CEA384F1804C
:10119800F9379305F1001385C18DE53B05E1938788
:1011A800C18D83C77700A384F1800347F100972797
:1011B800000083D7C73B6373F7005D45F2400561C4
:1011C80082800111172500001305853906CE413F9D
:1011D8009305F1001385C18D6D3B29E10347F100AB
:1011E8009727000083D727385D456369F70283C7CF
:1011F800E18D172500001305A536A307F1008537F3
:10120800938701819C430347F1009305F100A38371
:1012180007002383E7001385C18DA53BF2400561D4
:101228008280411126C2AA8417250000130545347F
:1012380006C622C42D37938701819C438145014509
:1012480023819700A3810700A9332A8401E9268511
:101258006D34294597200020E780007E2285B24022
:101268002244924441018280411122C42A841725D4
:1012780000001305653006C6DD35938701819C4360
:10128800B2408145238187002244A381070001459C
:10129800410101B3411122C406C6378400409307B7
:1012A80000F82300F400A3000400A301040093073E
:1012B8008004A306F40083D7C180231CF40083D7DD
:1012C8000181231EF4002305040223070402930767
:1012D80090F82300F400930700042303F402FD5759
:1012E8002303F400EFF0DF9A8D472301F400B240A6
:1012F80022442384018041018280797152CC56CAEC
:1013080006D622D426D24AD04ECE5AC85EC662C469
:10131800AA8A2E8ABDC131479387F5FFB387E702B2
:101328001387418ABA9723900700239107009307F0
:10133800FAFF3147B387E7021389C189014481491C
:10134800154C0D4B938BC18C3E9983C73A0083C6CD
:101358002A00A207D58F63E7F9022945EF00303745
:101368002285B250225492540259F249624AD24A12
:10137800424BB24B224C45618280239A018C239BBD
:10138800018C75B7B3843A0183C714006396870547
:1013980083C734008D8B6391670583C72400139737
:1013A80087016187635A0702BD8B3307890063147D
:1013B8000A0033878B002304F700B3878B0083C5AB
:1013C8008700050417250000130505ED1374F40FB5
:1013D800EF00B02BE3638BF803C70400C147E3EECB
:1013E800E7F64E979379F70F8DB7B9C531479387CD
:1013F800F5FFB387E7021387418ABA97239007005E
:1014080023910700B1489386F5FFB3861603034678
:101418003500834725009388C18922065D8E0947D8
:1014280081470148154F894F138EC18CB698C14228
:101438006369C80001458280239A018C239B018C33
:10144800D1B733030501834613006395E60383464A
:1014580033008D8A6390F60383462300939E8601AA
:1014680093DE8E41BD8A85C563DE0E00C697238450
:10147800D700854783460300E3EED2FA36981378FF
:10148800F80F7DB746972304D7000D47E5B763D417
:101498000E00F297E9BF7297FDB783C6F18CA54796
:1014A8006390F60203C7C18C894763FBE70003C654
:1014B800818D85479385C18931488948637CF600C9
:1014C800639FA60203C5C18C133535003305A040C0
:1014D800420505A01387F7FF330707032E97034339
:1014E8003700631AA3000347070063F6E800139563
:1014F800070141818280850793F7F70FC1B74165DE
:101508007D158280B717000201119387179206CEC6
:101518003EC4C167034715003EC683470500D98FFF
:1015280003473500D98F03474500D98F0347550036
:10153800D98F03476500D98F03477500D98F85EF89
:10154800834725009387D7FA9DE793850181A146B4
:10155800300098413E96034606003E9785072300D3
:10156800C700E397D7FE930571001385C18D153425
:10157800F240056182800145E5BF011122CC2A8431
:10158800172500001305C50026CA4AC806CE1389C8
:101598000181F1368327090081449305F1002382F4
:1015A8008700A38297001385C18DE53215E11725C1
:1015B80000001305E5FC6536832709009305F10053
:1015C8001385C18D23828700A3829700EFF07F9C4B
:1015D800F2406244D24442490561828001111725D4
:1015E8000000130565FA06CE9D3E9305F1001385AC
:1015F800C18DEFF01F9A11E90347F100972700000A
:1016080083D7E7F86373F7005D45F2400561828090
:10161800938701819C43011106CE130730FA23807A
:10162800E70011472382A700A38007002381070052
:10163800A3810700A38207002383E700A383070091
:101648009305F1001385C18DEFF0BF9419E50347A9
:10165800F1008D4763E3E7005D45F2400561828054
:10166800938701819C43130730022380E7000D47CD
:101678002381B7002382A700A380E700A381070086
:10168800A382070023830700A38307008145014540
:101698006FF03F900111172500001305A5D106CE64
:1016A80022CC26CA4AC84EC652C456C2EF00B0124F
:1016B800EFF08FE781440144130940060545972060
:1016C8000020E7806037EFF04FEC19E5850493F4CC
:1016D800F40F63619928014405041374F40FE31FA0
:1016E80024FDEFF0EFDA17250000130525DAEF00E7
:1016F800900E5944F1A8B387840083C507004E852E
:101708000504EF0080781374F40F93170401C18364
:10171800E3E327FF2945EF00807B83D7840017295F
:101728000000034909E54A852398F18C83D7A40072
:1017380083C9018E2399F18CED342A8405E117259C
:101748000000130525C8A386218DEF000074953C81
:101758002A8417290000130969A915C5A285172528
:101768000000130525D1EF00407289472386F18CCC
:10177800A9A8B387840083C507004A850504EF003C
:10178800C0701374F40F9317040103D7E18DC1835C
:10179800E3E1E7FE2945EF00807303C9118E6394E6
:1017A800091083C9A18EA147639EF9024A856D3C41
:1017B8002A844DF58D472386F18C172500001305E3
:1017C80065C1A387318DEF0010010545EFF06FD497
:1017D8002285F2406244D2444249B249224A924A9E
:1017E800056182809D476395F90203C7B18E8547DD
:1017F8006312F7144A858D3C2A842DF18D47238680
:10180800F18C172500001305E5BDA387318D65BF51
:101818008D476391F91203C7B18E854763ECE710D2
:1018280081451385C18DD13CAA8517250000130574
:1018380065BCEF0080654A8583C9C18E35342A842A
:10184800E31E05F01D3B0DE50149972A0000938A28
:10185800EA99130A0004B387240183C50700568553
:101868000509EF008062E31849FF2945EF0020666B
:101878008D472386F18C8547639BF90093073002D7
:10188800A387F18C17250000130545B82DBF89479C
:10189800639FF90A93073003A387F18C172500008B
:1018A800130505B80DB7A5476396F908053B2A84C3
:1018B800E31605EA83C5E18D17250000130545B732
:1018C800E92303C7E18D914763E1E704238CE18CA9
:1018D8004A85EFF07F992A84E31205E88D4723862D
:1018E800F18CA547A387F18C85441389C189B14937
:1018F800172A0000130ACAB483C7818D63FA9700B8
:1019080017250000130505B67DBD238CF18CC9B7DA
:101918009387F4FFB3873703A1452685CA972380A9
:1019280007003D3B01C5A68552858523850493F4B0
:10193800F40FD9B74A85EFF03F932A84E31005E204
:101948008D472386F18CFD57A387F18CBDBD130409
:10195800B00F29B503C5E18CEFF0AFBB1725000028
:10196800130545B51D23EFF09F812A84E31805DE92
:10197800172900000349B9BF22099727000083C728
:1019880007BF3369F9009384C18D972900009389B3
:10199800E985A5BB938701819C4313073002238007
:1019A800E70005472381B7002382A700A380E7004B
:1019B800A3810700A382070023830700A3830700EE
:1019C800814501456FF0EFDC79714ECEAA85AA8971
:1019D800172500001305859622D406D626D24AD0AC
:1019E80052CC56CA5AC85EC662C466C21304E00F17
:1019F8006929638909224E85EFF04FBE172500003B
:101A0800130545AB5921EFF08FF72A84631C052095
:101A18001389F9FF314A330A4903138BC18D835760
:101A28008B009384C189938B090193FBFB0F5E851F
:101A380083CA018E269A2312FA008357AB00231318
:101A4800FA00EFF00FFE2A84631E051CA3007A013A
:101A580017250000130505970D29EFF08FF62A8446
:101A68006312051C03CA118E971B0000938B0B7819
:101A78009317040103D7E18DC18363EDE706294578
:101A8800B92183CBA18E639C0A16A147639EFB06EE
:101A9800314433048902CE851385C18DEFF0FF945C
:101AA8009149971A0000938A2A7F269483458400D7
:101AB800FD19568593F9F90FC92E0504E39809FE17
:101AC800294531215285EFF02FFA2A8435E9B147AB
:101AD8003309F9028D47172500001305A58FCA940D
:101AE8002380F400A147A381F400F5210545EFF018
:101AF8004FA20DAAB3078B0083C507005E850504B6
:101B080069261374F40FADB78D47639BFB1203C7A7
:101B1800B18E854763E6E712CE851385C18D83CBE9
:101B2800018EEFF08FFDAA85172500001305858C1F
:101B3800A92E528583CAC18EEFF00FF32A8441C1C2
:101B4800A28517250000130525858126B14733098D
:101B5800F902894726992300F90049BF5285EFF019
:101B6800DFA109ED8149B3073B0183C50700628501
:101B78008509212EE39999FF2945912E050A137AA3
:101B8800FA0FE31D7AFDB149B30939030D4B8547B7
:101B9800A69923806901639CFA0293073002A38106
:101BA800F90063F94A01171500001305E57A2521A4
:101BB800A381690117250000130545853DB7014A32
:101BC800171C0000130C8C62930C00045DBF0947BE
:101BD8006385EA001304B00FA5B713073003A38188
:101BE800E90063F94701171500001305E576E526B6
:101BF800A38169011725000013058582FDB5A54756
:101C08006390FA04B147B307F902171500001305EA
:101C18002576A697A38157017D2E228585459D3B74
:101C28002A844DD92285B250225492540259F2493D
:101C3800624AD24A424BB24B224C924C4561828056
:101C4800314433048902CE851385C18DEFF0EFF955
:101C58009149171B0000130B2B64269483458400BD
:101C6800FD195A8593F9F90F0D240504E39809FE27
:101C78002945B12C5285EFF02FDF2A84E31205ECB9
:101C8800B147B307F9020D47A6972380E70063938E
:101C98000A00DE8AB1473309F902CA94A3815401C4
:101CA800B1B5797122D426D24ECE52CC56CA5AC872
:101CB8005EC662C406D64AD066C205449384C18D06
:101CC800B149138AC189854A171B0000130B0B629F
:101CD800971B0000938B4B5F171C0000130C4C5C88
:101CE80083C7818D014563FF8700B2502254925407
:101CF8000259F249624AD24A424BB24B224C924CA8
:101D080045618280EFF08F8D2285EFF07F9071FD25
:101D180003C7040083C7E18D058B01C793F617003D
:101D280081E6C1466398D70A1309F4FFB30C390357
:101D38002285D29C23905C01EFF09F8D5DF583C7CF
:101D48001400A2856285898B13B717002381EC00E4
:101D580091C35E851D2A1305800C97200020E7801B
:101D6800A0CD91452285EFF0BF8F41F15A85A5247A
:101D7800054597200020E78020CC2285EFF05F8979
:101D88002DF583C70400C18BE5F71305400697209E
:101D98000020E78060CAD1452285ED3EC1452285F5
:101DA800D53E21F52285EFF0BF8621F183C70400D7
:101DB800858B91E73309390352992300090022855D
:101DC8002131E31405F20545EFE0BFF4050413746F
:101DD800F40F39B7898B95CFC5452285653E171510
:101DE800000013056552C52A91452285EFF05F87EB
:101DF800E31D05EE054597200020E780E0C3228516
:101E0800EFF01F81E31305EE83C70400C18BFDF3D8
:101E180075BF4DFF1309F4FFB3073903D29783C782
:101E2800070099C7A285171500001305654FB1284B
:101E38003309390383C72400858B5299230009008D
:101E4800D1D7C1452285B93651B703C7C18C894757
:101E580063FBE70203C7F18CA5476316F70241113C
:101E6800014506C6EFE09FF72D3DAA8511C5171558
:101E780000001305E53411280545EFE09FE9B2405D
:101E88000145410182800145828039713EDA2ED2B6
:101E980032D436D63AD842DC46DE972700209387DC
:101EA800271C22CC804326CA06CEAA8409C41C4C0F
:101EB80099E32285A92B0C4454102686228536C620
:101EC800EF00901AF2406244D244216182800111ED
:101ED800972700209387C71822CC804306CEAA856F
:101EE80019C41C4C89E72AC622851523B24510441B
:101EF80022856244F24005616F00107C011126CAF8
:101F08004AC806CE22CC4EC652C4AA842E8901C520
:101F18001C4D91E3ED299C4C804499E32685C52905
:101F2800971700009387075C631CF402C04083572F
:101F3800C400A18BB1C71C48A1C7FD59294A1C443C
:101F480083450900FD17B1E91CC463DE0706228634
:101F5800A94526854128FD576308F502294535A07E
:101F6800971700009387075A6314F4008044C1B799
:101F78009717000093870755E31BF4FAC04445BF41
:101F8800A2852685052255D97D55F2406244D24462
:101F98004249B249224A056182801CC4050963D7B7
:101FA8000700184C63CBE700638945011C40138781
:101FB800170018C02380B70059B7228626851D2030
:101FC800E31F35F7D1B71C401387170018C02947FE
:101FD8002380E70061B79727002093876708AA85C1
:101FE800884329BF011122CC26CA4AC806CE4EC64C
:101FF800AA842E89328401C51C4D91E309299717BB
:1020080000009387274E6319F406C0401C4C1CC47B
:102018008357C400A18BC9C31C48BDCF1C480840C6
:102028009379F90F1379F90F1D8D5C486346F50014
:10203800A2852685752C2DE51C440505FD171CC4B5
:102048001C401387170018C0238037015C48638938
:10205800A7008357C400858B81CBA9476316F90075
:10206800A285268571240DEDF24062444A85D2444A
:102078004249B249056182809717000093878748D3
:102088006314F400804459B7971700009387874377
:10209800E31EF4F6C0449DBFA285268521203DDDC0
:1020A8007D59D9B7411197270020938767FB26C22E
:1020B800844322C44AC006C62A892E8489C49C4CFB
:1020C80099E32685A926971700009387A741631CE3
:1020D800F402C0400317C40093170701C18393F6A5
:1020E8008700B5EE93F607019DEEA5472320F9007A
:1020F800136707042316E4007D55B2402244924436
:10210800024941018280971700009387A73F631413
:10211800F4008044C1B7971700009387A73AE31BE0
:10212800F4FAC04445BF918B8DC74C5889C99307B1
:1021380044046384F5004A859123232A04028357C3
:10214800C4002322040093F7B7FD2316F4001C48AB
:102158001CC08357C40093E787002316F4001C486B
:1021680081EF8357C4001307002093F7072863857E
:10217800E700A2854A85A5218357C40013F71700F5
:1021880005C75C4823240400B307F0401CCC1C4856
:102198000145A5F78317C40013F7070839DF93E74C
:1021A80007042316F40089BF898B014791E3584837
:1021B80018C4F1BF83D7C500011122CC26CA06CEA8
:1021C8004AC84EC613F78700AA842E8471EFD841F7
:1021D800634DE000B841634AE0000145F2406244C3
:1021E800D2444249B2490561828058547DD703A937
:1021F80004009396370123A0040063DD06067048A7
:102208008357C400918B99C75C401D8E5C5899C355
:102218003C401D8E5C540C50814626858297FD57A4
:102228000357C400631DF5009440F54763E8D706DB
:10223800B70740208507B3D7D700858BA5C31C48AF
:10224800232204001CC09317370163D80700FD57E9
:102258006314F5009C4091E368C84C5823A02401FE
:10226800ADDD930744046384F50026850129232AFC
:102278000402A5B70C500146854626850297FD57EE
:102288002A86E31FF5F69C40A5DF75476385E700BE
:1022980059476394E70423A0240181B7136707040F
:1022A8002316E4007D551DBF83A90501E38709F2C4
:1022B80003A905008D8B23A0350133093941014756
:1022C80091E3D84918C4E35A20F11C540C50CA862B
:1022D8004E86268582976349A0008357C40093E7FA
:1022E80007042316F4007DBFAA993309A940E1BF6A
:1022F8009C49B9CF011122CC06CE2A8411C51C4DA8
:1023080081E72EC62922B245971700009387871DBB
:10231800639BF5004C408397C50095C722856244AE
:10232800F240056141BD971700009387A71D63948C
:10233800F5000C44CDB7971700009387A718E39CC6
:10234800F5FC4C44C9BFF2406244014505618280F6
:1023580001458280411122C406C62A842316B5008D
:102368002317C50023200500232205002324050088
:102378002322050623280500232A0500232C05000F
:10238800214681451305C505EFE06FB69717000094
:102398009387C7BD5CD097170000938727C01CD4CC
:1023A80097170000938767C45CD49717000093873A
:1023B80027C700D01CD8B24022444101828097052B
:1023C8000000938525F389AA411126C213068006C9
:1023D8009384F5FFB384C4024AC02E8922C406C67A
:1023E8009385440781262A8401CD232005002322D2
:1023F8002501310508C4138684068145EFE02FAF17
:102408002285B240224492440249410182801C4DF7
:10241800BDE3411106C622C497070000938767FAF7
:102428001CD597170000938727179C43232405047E
:1024380023260504232805046314F50085471CCDCD
:102448002A841D2848C02285052808C422852D20F5
:1024580048C4484001469145F53D08440546A54510
:10246800D53D48440946C945F53585471CCCB24099
:10247800224441018280828041119717000093878E
:10248800A71126C284434AC006C69C4C22C42A8986
:1024980099E32685AD3F938484048044DC40FD178E
:1024A80063D607009C40B9CF8440C5BF0317C4005A
:1024B80039E7C17785072322040623200400232255
:1024C8000400232404005CC423280400232A0400F5
:1024D800232C0400214681451305C405EFE02FA1F4
:1024E800232A0402232C040223240404232604049C
:1024F8002285B24022449244024941018280130459
:10250800840671BF91454A85C13588C051FDB147E0
:102518002320F9000144E9BF797122D44AD052CC72
:1025280056CA5AC85EC606D626D24ECE2A8AAE8A61
:10253800130485040149054BFD5B09ECB250225494
:102548004A8592540259F249624AD24A424BB24BE6
:1025580045618280044483294400FD1963D409003D
:102568000040E1BF83D7C400637BFB008397E4008E
:1025780063877701A6855285829A3369A900938477
:102588008406E1BF1971A6DAAE848395E500A2DC62
:1025980086DE328463DC050083D7C40023A00600EE
:1025A80093F7070885E7930700401DA0300836C653
:1025B800EF00902CB246E34105FE7247BD67F98FE4
:1025C8007977BA9793B717009CC2F1BF93070004B5
:1025D8001CC0F6506654D65401450961828083D7E1
:1025E800C500011122CC06CE26CA4AC8898B2E8482
:1025F80089CF930774041CC01CC885475CC8F24087
:102608006244D24442490561828074003000AA8441
:10261800953FA2452A892685312201ED8317C400FA
:1026280013F7072069FFF19B93E727002316F400AF
:10263800C9B7970700009387C7D89CD48357C400AD
:1026480008C008C893E707082316F400A2475CC827
:10265800B24791CF8315E4002685EF00902401C985
:102668008357C400F19B93E717002316F4008357A0
:10267800C4003369F9002316240151B7DDC183A7CB
:10268800C5FF411122C406C626C21384C5FF63D301
:1026980007003E94AA84EF00B027938741819C43AA
:1026A80081EF2322040023AA81802244B240268598
:1026B800924441016F00F025637EF4001440330713
:1026C800D4006396E7009843DC43369718C05CC093
:1026D800D9BFBA87D84319C3E37DE4FE9443338650
:1026E800D700631F86001040B29694C33386D70084
:1026F800E31DC7FA10435843B29694C3D8C375B7BD
:102708006375C400B1479CC04DB71040B306C40000
:102718006316D70014435843B29614C058C0C0C3B8
:1027280069B78280011126CA93843500F19806CED4
:1027380022CC4AC84EC6A104B14763F5F404B1449B
:1027480063E4B4042A89EF00B01C9387418198435D
:102758003A8429E4938781819C4399E781454A8596
:10276800EF00E07D23ACA180A6854A85EF00207D9F
:10277800FD5963193507B1472320F9004A85EF0051
:10278800501929A0E3DE04FAB1471CC10145F24003
:102798006244D2444249B249056182801C40858F17
:1027A80063CF0702AD4663F6F6001CC03E9404C032
:1027B80031A05C406313870223AAF1804A85EF00A9
:1027C80050151305B4009307440061993307F54089
:1027D8005DDF3A94898F1CC05DBF5CC3C5B7228793
:1027E800404085BF130435007198E30285FCB305AA
:1027F800A4404A85A927E31C35FBB5BF1C46FD1735
:102808001CC663DA0700184E63C5E700A94763943E
:10281800F5006FF02FFD1C422E851387170018C294
:102828002380B7008280011122CC26CA4AC84EC62E
:1028380052C406CE2A89AE893284B304D6007D5AA2
:1028480063149400014509A8834504004E864A850F
:1028580075370504E31645FFF2406244D244424905
:10286800B249224A05618280357122CD26CB4AC9F8
:102878004EC706CF52C556C35AC1DEDEE2DCE6DAE1
:10288800AA89AE843289368409C51C4D99E3EFF0D4
:102898001FB8971700009387E7C4639CF40C83A4C0
:1028A800490083D7C400A18BFDC79C48EDC7930797
:1028B8000002A304F1029307000302D22305F102E8
:1028C80022C6930B5002971A0000938AAAC5054C9A
:1028D800294B4A848347040099C36391770FB30C4B
:1028E8002441638D0C00E6864A86A6854E85253FE1
:1028F800FD576307F51E9256E69636D283470400C5
:102908006380071EFD571309140002C802CE3ECA91
:1029180002CCA309010482D48345090015465685D3
:10292800EF00607D13041900C24759E913F7070146
:1029380009C713070002A309E10413F7870009C7B1
:102948001307B002A309E104834609001307A00294
:102958006380E608F2474A84814625460347040017
:1029680093051400130707FD6379E60AB5CA3ECE3E
:1029780085A8971700009387E7B86395F40083A4A8
:10298800890005B7971700009387C7B3E39BF4F056
:1029980083A4C90039B7A6854E85EFF0AFF001D9F9
:1029A8007D55FA406A44DA444A49BA492A4A9A4A59
:1029B8000A4BF65B665CD65C0D618280050419BF24
:1029C800330555413315AC00C98F3EC82289A9B7D4
:1029D800324793064700184336C6634907023ACE82
:1029E800034704009307E002631FF704034714003A
:1029F8009307A002631BF702B24709041387470035
:102A08009C433AC663C107023ECA35A83307E04073
:102A180093E727003ACE3EC8E1B7B38767038546F8
:102A28002E84BA9725BFFD57C5B7050402CA81464B
:102A3800814725460347040093051400130707FD43
:102A48006376E606F1F2834504000D46171500008B
:102A58001305C5AD4D2511CD97170000938707AD18
:102A68001D8D93070004B397A700424505045D8DAB
:102A78002AC883450400194617150000130545ABFD
:102A8800130914002304B102BD253DC197D7FFFFE8
:102A98009387C75695E74247B2471377071009CF80
:102AA80091073EC69257D2973ED225B5B3876703A2
:102AB80085462E84BA97BDBF9D07E19BA107D5B770
:102AC800780097060000938646D626860C084E8521
:102AD80097000000E7000000FD572A8AE314F5FC80
:102AE80083D7C40093F70704E39C07EA125555BD42
:102AF800780097060000938646D326860C084E85F4
:102B0800012AD9BF797156CA9C49BA8A984522D4F4
:102B180026D24ECE52CC06D64AD05AC85EC6AA890C
:102B28002E84B284368A63D3E700BA879CC00347F1
:102B3800340419C385079CC01C4093F7070281C75A
:102B48009C4089079CC00329040013796900631A13
:102B58000900130B9401FD5B5C449840998F634C0A
:102B6800F9041C408346340493F70702B336D000B7
:102B7800A5EB13063404D2854E85829AFD5763036C
:102B8800F5041C4011469840998B5444814463973E
:102B9800C700B384E64063D3040081441C4418484A
:102BA8006354F700998FBE94014969047D5B63986B
:102BB8002405014509A885465A86D2854E85829AFC
:102BC800631E75017D55B250225492540259F24940
:102BD800624AD24A424BB24B456182800509ADBF79
:102BE8003307D40013060003A301C70403475404A2
:102BF80093871600A2978906A381E7049DBF85469F
:102C08002286D2854E85829AE30E65FB050945B773
:102C1800797122D426D24AD04ECE06D652CC56CA84
:102C28005AC8B68983C68501930790063289AA8453
:102C38002E8413863504638DF60263E2D706930764
:102C480080056387F61863EDD70063800622930733
:102C58003004638EF60A930A24042301D404C9A01D
:102C6800930730066385F60A93074006E395F6FE58
:102C78001C40084393F6070893054500C5C61C4148
:102C88000CC363D807001307D002B307F040A301B1
:102C9800E404971600009386268A29476DA89307AF
:102CA80000076383F61663E5D7029307E006638A95
:102CB800F6189307F006E390F6FA0C401C4313F855
:102CC8000508138547006307080608C39C438DA8B9
:102CD80093075007E383F6FE93078007638AF6128B
:102CE80093073007E399F6F61C43D0418145938654
:102CF800470014C383AA07005685F52E01C533057E
:102D0800554148C05C401CC8A301040471A81C4379
:102D1800930A2404938647009C4314C32301F404B4
:102D28008547D5B793F607041C410CC3B9DAC20727
:102D3800C18781BF93F5050408C3C9D983D70700A4
:102D48001307F0066387E60E970600009386C67E93
:102D58002947A30104044C400CC463C5050008407E
:102D68006D9908C099E3B28A91CDB28AB3F5E702AA
:102D7800FD1AB69583C505002380BA00B3D5E702CE
:102D880063FFE70AA147631EF7001C40858B91CBC0
:102D980058401C4863C7E70093070003A38FFAFE57
:102DA800FD1A3306564110C84E87CA867000A285A0
:102DB8002685893B7D5A631E450B7D55B2502254AA
:102DC80092540259F249624AD24A424B4561828082
:102DD800A382D50497060000938606760C40084324
:102DE80013F805081C411105630D080208C313F701
:102DF800150001C793E505020CC04147B9FB0C401B
:102E080093F5F5FD0CC0B1B79C4193E707029CC14F
:102E180093078007A302F4049706000093860673BD
:102E280075BF13F8050408C3E30308FCC207C18390
:102E38007DBF9706000093862670214719BFAE878D
:102E480035B794411C43CC4913F80608138547004D
:102E58006306080008C39C438CC301A808C393F603
:102E680006049C43F5DA2390B70023280400B28AAD
:102E780025BF14485686CA8526858299E30F45F3EF
:102E88001C40898B8DE7B2474844E359F5F23E85EB
:102E980035B785465686CA8526858299E30F65F13A
:102EA800050A5C443247998FE345FAFEE9BF014AB7
:102EB800930A94017D5BF5B7011122CC06CE2A84D2
:102EC80009C91C4D99E732C62EC4EFF04FD43246DB
:102ED800A245970700009387E7606316F602504003
:102EE8001C46FD171CC663D00704184E63C7E700CD
:102EF80093F7F50F29476398E70222856244F24069
:102F080005616FF02F8E970700009387A75F631402
:102F1800F6001044F1B7970700009387A75AE3110A
:102F2800F6FC504475BF1C4213F5F50F13871700C4
:102F380018C22380B700F2406244056182804111C3
:102F480022C42A842E8523AE019406C6EFD05FC919
:102F5800FD576317F5009387C1959C4391C31CC027
:102F6800B240224441018280411122C42E848395BB
:102F7800E50006C64522634905007C48AA977CC837
:102F8800B2402244410182808357C4007D777D1777
:102F9800F98F2316F400EDB783D7C500011122CCB1
:102FA80026CA4AC84EC606CE93F70710AA842E84AE
:102FB8003289B68991C78395E50089460146312251
:102FC8008357C4007D777D17F98F2316F400831586
:102FD800E4006244F240CE864A86B24942492685D8
:102FE800D24405613DA8411122C42E848395E50091
:102FF80006C6E128FD570357C400631BF500FD779B
:10300800FD17F98F2316F400B24022444101828053
:103018008567D98F2316F40068C8FDB78395E50046
:1030280005A8411122C42A842E85B285368623AE8E
:10303800019406C6EFD05FB8FD576317F500938774
:10304800C1959C4391C31CC0B24022444101828077
:10305800411122C42A842E8523AE019406C6CD20B0
:10306800FD576317F5009387C1959C4391C31CC016
:10307800B240224441018280411122C42A842E8513
:10308800B28523AE019406C6D120FD576317F5001B
:103098009387C1959C4391C31CC0B240224441010F
:1030A8008280411122C42A842E8523AE019406C64B
:1030B8006520FD576317F5009387C1959C4391C31D
:1030C8001CC0B240224441018280411122C42A849A
:1030D8002E85B285368623AE019406C66120FD573B
:1030E8006317F5009387C1959C4391C31CC0B240F8
:1030F80022444101828093F5F50F2A966314C50096
:103108000145828083470500E38DB7FE0505FDB7BD
:1031180082808280411122C42A842E85B285368617
:1031280023AE019406C6A920FD576317F5009387BF
:10313800C1959C4391C31CC0B24022444101828086
:103148009307800523AEF1947D558280930780050F
:1031580023AEF1947D5582809307800523AEF194C8
:10316800014582809307800523AEF1947D558280C6
:103178009307800523AEF1947D5582805374617264
:103188007420404368697049443D253032580A002C
:10319800576169742044657669636520496E00004B
:1031A800456E756D416C6C526F6F74446576206521
:1031B8007272203D20253032580A0000456E756D28
:1031C800416C6C487562506F727420657272203D54
:1031D80020253032580A00004D6F757365206461F0
:1031E80074613A2000000000782530325820000031
:1031F8004D6F757365206572726F72202530327855
:103208000A0000004D6F757365206E6F20696E743B
:1032180065727275707420656E64706F696E740083
:103228006B6579626F61726420646174613A200031
:103238006B6579626F617264206572726F722025A6
:103248003032780A000000006B6579626F61726441
:10325800206E6F20696E7465727275707420656E69
:1032680064706F696E740000ECD7FFFF14D8FFFF1D
:103278003CD8FFFF54D8FFFF6ED8FFFF55534220BC
:1032880064657620696E0000555342206465762097
:103298006F7574002530327820000000466F756E17
:1032A800642066756C6C207370656564206465764F
:1032B800696365206F6E20706F7274202531640A0F
:1032C80000000000466F756E64206C6F7720737085
:1032D80065656420646576696365206F6E20706F2C
:1032E8007274202531640A00526573657420706F0A
:1032F800727420616E64207468656E2077616974E9
:1033080020696E00446576696365206F6E20706F72
:103318007274206572726F720000000044657669ED
:103328006365206F6E20706F72742025316420727F
:10333800656D6F7665640A00496E69742064657608
:1033480020404578744875622D706F72745F25311E
:10335800642000005553425F4445565F434C415337
:10336800535F484944205265616479005468697321
:103378002070726F6772616D20646F6E277420739E
:103388007570706F7274204C6576656C20322048B9
:1033980055420000496E69744465764F6E487562FF
:1033A80020457272203D20253032580A0000000066
:1033B800526573657420686F737420706F7274003F
:1033C80047657443666744657363723A200000007A
:1033D8005553422D4469736B20526561647900002E
:1033E8005553422D5072696E74205265616479009C
:1033F800416E616C797A65486964496E74456E649A
:103408007020253032780A005553422D4B65796279
:103418006F61726420526561647900005553422DD2
:103428004D6F757365205265616479004D61782030
:10343800506F72743A253032582000004578742D48
:1034480048554220506F72745F2531642320706F95
:10345800776572206F6E206572726F720A000000C5
:103468005553422D48554220526561647900000049
:10347800496E6974526F6F74446576204572722084
:103488003D20253032580A0044697361626C65201A
:10349800686F737420706F727420626563617573EE
:1034A80065206F6620646973636F6E6E6563740070
:1034B80047657444657644657363723A200000007A
:1034C80000000000000000000000000000000000F4
:1034D80000000000000000000000000000000000E4
:1034E80000000000000000000000000000000000D4
:1034F80000000000000000000000000000000000C4
:1035080000000000000000000000000000000000B3
:1035180000000000000000000000000000000000A3
:10352800232D302B20000000686C4C006566674531
:103538004647000030313233343536373839414266
:1035480043444546000000003031323334353637C5
:103558003839616263646566000000008006000215
:1035680000000400800600010000120000050200AF
:103578000000000000090000000000008106002291
:1035880000004100A006002900000900210A0000EF
:083598000000000000400020CB
:1035A00000000000E834000008350000C8340000C6
:1035B000000000000000000000000000000000000B
:1035C00000000000000000000000000000000000FB
:1035D00000000000000000000000000000000000EB
:1035E00000000000000000000000000000000000DB
:1035F00000000000000000000000000000000000CB
:08360000C04100200040002041
:00000001FF
