:040000006F108005F8
:1000040000000000000000006F0080086F00E02284
:1000140000000000000000000000000000000000DC
:1000240000000000000000000000000000000000CC
:100034006F004006000000006F00E00500000000B3
:100044006F0080056F0060056F0040056F0020059C
:100054006F0000056F00E0046F00C00400000000A2
:100064006F0060046F0040046F0020046F00000400
:100074006F00E0236F00C003000000006F00600306
:100084006F0040036F0020036F0000036F00E00265
:1000940001A001A001A001A001A001A001A001A054
:1000A40001A001A001A001A001A001A001A001A044
:1000B40001A001A001A001A001A001A0B717004068
:1000C400130770052380E704130780FA2380E704ED
:1000D4002396A70223800704371700408347270588
:1000E400898BEDDF835707053717004083472705C2
:1000F400898BEDFF3717004083472705898BEDDF98
:10010400035507058280B7170040930670052380C6
:10011400D704130780FA2380E70403C6B7041376D1
:10012400F60DA385C70423800704137605022DC6A4
:1001340003C6A700118A0DE22380D7042380E704B5
:1001440003C7A700136747002385E7009307004B05
:1001540001000100FD17EDFFB7170040930670057D
:100164002380D704130780FA2380E7047D8923942E
:10017400A70001000100010001002380070423807F
:10018400D7042380E7049306100537270040A30310
:10019400D780238007048280137605046DDE03C6AE
:1001A400A700418A0DE22380D7042380E70403C714
:1001B400A700136707012385E7009307007D01006B
:1001C4000100FD17EDFFB71700409306700523806B
:1001D400D704130780FA7D892380E7041365050497
:1001E4002394A700010001000100010023800704FB
:1001F4002380D7042380E704930630053727004083
:1002040079B74111814601468145114506C6AD2A9B
:10021400B7170040130770052380E704130780FA1B
:100224002380E70403C76704136717002383E704E5
:1002340023800704B2404101828081460146814502
:1002440011459922B7170040930670052380D704FF
:10025400130780FA2380E7047D562396C702238080
:10026400D7042380E70403C76704136717002383B5
:10027400E7042380070401A0BD473305F50201000C
:100284007D1575FD8280411122C426C206C6AA844A
:10029400014463179400B240224492444101828095
:1002A40005041305803E4204C13F4180DDB7B71702
:1002B4000040130700032388E702854723A8F1843D
:1002C40073002030411106C6A921FDBF2303048019
:1002D40015472303E48001002302A480828083075E
:1002E4006480E3CE07FE2303048082808307648056
:1002F400E3CE07FE03454480828083076480E3CE17
:1003040007FE2302A4808280411126C44AC24EC043
:1003140006C61377F50BAD47AA892E899544630663
:10032400F70019456537653F8D444E854537FD59BE
:10033400FD1463983401B240A24412498249410138
:100344008280135509011375F50F453F2209CDB776
:10035400011126CC06CEB704080051371545BD3728
:10036400713769372AC6A53F32459377150089EB63
:10037400136515001375F50FF240E24405618280A0
:10038400FD14E9FC0145CDBF397126DC4ADA4ED8AB
:1003940052D656D45AD25ED006DE62CE66CCB7E7C9
:1003A40000E07D5783AA070022C603AA470023A0C2
:1003B400E71823A2E718B717004013077005238036
:1003C400E704130780FA2380E70483C74704930BE9
:1003D40075FFB684E20793FBFB0F8546AA892E8B33
:1003E400328937240040E187015763FA76016308B4
:1003F400D5008946130700026313D5000157D98F2E
:1004040093F7F70FB71C00402382FC041147230322
:10041400E4801305F00F5D3D094CD13563697C110F
:10042400B70707003E9B378707007955637EEB02C9
:10043400B3079B00636AF702A9476399F90689E445
:100444008144713D26850DA0DA850945753D050970
:100454000345F9FFFD14050B4D3581C49377FB0F5C
:10046400FDF7FD3569FD7D55B7170040130770058D
:100474002380E704130780FA2380E70403C74704B3
:10048400418B2382E704F250B7E700E023A0571121
:1004940023A24711E25432445259C259325AA25A41
:1004A400125B825B724CE24C21618280A5476395AA
:1004B400F90685691309F00FB3069900B3742B018B
:1004C400B6941349F9FFB3749900856B33796901C4
:1004D400416B9387F9FFB3F7270199E363FC340178
:1004E40093D94900C147E3E637FF99BF0569C1695C
:1004F4007D19D9B71305800D6388690113050002BE
:100504006384790113051008CA85FD3B913521DD0B
:100514004E99B3843441D9B7DA852D45F533CA945D
:10052400E30099F20509D933A30FA9FED5BF938738
:10053400F9FF93F7F70F636CFC0803C75C04B70774
:1005440008001377070219E3B78707007955E37D9D
:10055400FBF033079B00E3E9E7F089476390F90474
:100564008980D549E38E04ECDA850945713B11098C
:100574000327C9FF91472320E48003076480E34EE7
:1005840007FE23033481FD17EDFBFD14110B81C419
:100594009377FB0FE9FF6D3B71F5F1B58547E38771
:1005A400F9F4DA852D458D339389F4FFE38A04E861
:1005B400353B93F7390091EB832604800327090028
:1005C40093074900E39FE6E63E89CE84F1BFB54731
:1005D4006396F9001305900BD5399DB5B147130502
:1005E400B00AE38BF9FE9947639EF902DA852D453B
:1005F400213B81448D4BA149D539639674018327EE
:1006040004802320F9008504E39834FF83270480C1
:1006140013172B01635507002312F90015B5232284
:10062400F90039BD9D476399F90281451305B0046A
:10063400E139BD442320090023220900FD597D31FD
:1006440093F77400CA9703C70700FD14398D2380FC
:10065400A700E39634FFEDB3A1476392F904CD39C3
:100664008144630D0B008D479304C0036308FB00B2
:100674009304000563048B01930440041375C507B8
:10068400E30095DC19459931993905458131268571
:10069400AD3109459D316D39E31405DAE9B391476C
:1006A4006399F9001305600615311539130590098E
:1006B40025B7E38709D8F15469B309CDB7170040CA
:1006C400130770052380E704130780FA2380E704E7
:1006D4002396A702828019C1814799E982803387D2
:1006E400F500834607003307F50085072300D7008C
:1006F400E397C7FEE5B719C1FD5781E982809105EB
:1007040003A7C5FF1105232EE5FE7D16E319F6FEAA
:10071400F5B7797122D4172400001304A4541C40A3
:1007240006D626D24AD04ECE91C78297972700008C
:1007340023AA07525C4089CB03D50186BD3F5C40A8
:10074400829703D52186953F1C4063990718972704
:10075400000083C73760858B95C797270000A38B5C
:10076400075E172700000347175F914763FCE70004
:100774009D219727000083C7175EF9178A07A29760
:100784009C4382979727000083C78761918B89C711
:10079400979000E0E780E0A11C4491C3829793877F
:1007A400C185984317260000034696493E8997243D
:1007B40000009384E4489727000083C76748939612
:1007C4001700BA9683D606006380061097270000A8
:1007D40083C7074763F2C70886073E978355070018
:1007E4002310070003D501862EC623940186F13514
:1007F400938741879C4317250000034565441317DD
:100804002500BA979C43B2458297AA8903D52186CD
:100814006D359727000083C7A742139717008327D6
:10082400090003D581861345F5FFBA9703D707005E
:1008340033753501598D2390A70083C704008507BC
:1008440093F7F70F17270000230CF73E1727000034
:100854000347173F63E6E700972700002382073E1C
:100864001C40ADEF9387C18698433E8425CB9727E0
:10087400000083C7974E91CB9727000083C7B74DDD
:1008840089E7978000E0E78080431C4082972A84B0
:1008940031C59C48AA9717270000232BF73A938762
:1008A40001879C4385CF03D50186013D228597E0CE
:1008B400FFDFE780E02A2254B25092540259F249F1
:1008C40003D521864561D5BB850793F7F70F972696
:1008D40000002387F636E3E0C7EECDBDB2502254C4
:1008E40092540259F249456182809167B7C600402B
:1008F4009387373023A6F6200F10000097270000B7
:1009040093870734884F938741929C433167130739
:100914003730F053B7071000FD17918F99833A05CC
:1009240023A6E6205D8D82804111B7170040985FB1
:100934003AC6945F3247E39CE6FE32454101828029
:10094400411106C6D5379726000083C6E62C858A52
:10095400B1C6930730333307F502B337F502398351
:10096400CA07D98F172700001307872D584B014555
:100974006303F7023385E740636BF70037653D088F
:1009840089C637856F0813050590198D3E9517277D
:1009940000002321F72CB24041018280E547330750
:1009A400F502B337F5022583DE0765BF411122C482
:1009B4001384419118404AC006C61C5F26C213899D
:1009C40001919983858BC1C31C5F97240000938494
:1009D400243893F7F7F91CDF9727000083C74737BC
:1009E40093F707048DC3938781879C438297972746
:1009F400000023A7A73683C7040093F7F70B172734
:100A040000002307F734854717270000A304F734B1
:100A140083C7440093F7070481EF938741929C4373
:100A2400D844B8D3930700FC172700002304F732F7
:100A34008387640063D90700832709009C43172731
:100A44000000230AF73018401C5F8583858BC9CBCF
:100A5400F5571CDF01000100010001000100010045
:100A6400010001000100010001000100010001007A
:100A7400010001000100010001000100010001006A
:100A8400010001000100010001000100010001005A
:100A9400010001000100010001000100010001004A
:100AA400010001000100010001000100010001003A
:100AB400010001000100010001000100010001002A
:100AC400010001000100010001000100010001001A
:100AD40001000100938741929C4313075004B8CB53
:100AE40018401C5F9183858B89CFBD571CDF93878A
:100AF40041929C4323A80704854717270000230B32
:100B0400F72483270900D8430583058B19C7D843E5
:100B1400759BD8C3D843799BD8C3B240224492442E
:100B2400024941018280397106DE16DC1ADA1ED8C8
:100B34002AD62ED432D236D03ACE3ECC42CA46C879
:100B440072C676C47AC27EC09535F250E2525253D0
:100B5400C2533255A255125682567247E247524842
:100B6400C248324EA24E124F824F21617300203090
:100B7400938741929443172700001307671DBC52C3
:100B840089CF83472700858B89EB83473700858B83
:100B9400FDD797270000238F071A828037C70040AC
:100BA4001306C00393062003972500009385451A76
:100BB40083278720C18393F7F7036369F6008327AC
:100BC4008720C18393F7F70363E6F60083C74500E4
:100BD400858BF9DF82809387419294431727000025
:100BE40013070717BC5289CB83470700858B91CB2A
:100BF400972700002380071697270000A38C07146B
:100C0400828083471700858BF1DFDDB7938741929C
:100C1400904337C70040C145E54683278720C183F9
:100C240093F7F70363FBF50083278720C18393F7CA
:100C3400F70363E4F6003C52EDF38280138741919D
:100C44001843AA87185F1583058B25EF0345150004
:100C540015051377C51F19C6B386E70083C626009A
:100C64002300D60095C59726000083C6C60E93F6CA
:100C740006040945A1CAB386E70083C636000546C3
:100C840093F5F6066390C504E206E18663CC06029A
:100C94003385E7008347150003470500A20793F750
:100CA4000770D98F1397070141839376074099C63C
:100CB40013670780239EE19001458280239EF19073
:100CC400E5BF05458280938641928C4236859726FE
:100CD40000009386E607984593170701C1831378AC
:100CE40017203E86630408041377072079C303C7DB
:100CF40026001367170017280000230CE8041307C5
:100D04000019B8D1130700F8972500002384E504DF
:100D1400138741910C4337080010D855719B136712
:100D24002700D8D598413367070198C11377261057
:100D340005C31376061059CE03C7060013671700C0
:100D4400172600002306E6001727000023160700D5
:100D540083C6460093C7F7FFC207E206E186C18354
:100D6400184163D106029396170163DE06063053D9
:100D74008D4663E9C600854617260000230CD6FC81
:100D84003453FDFE972600009386C6E7838646010A
:100D940063DD060093960701C18663DC0604705385
:100DA400894663E4C6007453FDFE1447F58F1CC7DF
:100DB400828003C716001367170097250000A389D4
:100DC400E5F817270000230707F817270000231565
:100DD40007F8A9BF03C736001367170017260000DA
:100DE400A309E6F695B78546172600002304D6F630
:100DF40051BF54471396060163510602B70610000B
:100E0400FD1674D397260000938686E3944E8506D8
:100E1400172600002322D6E449BFA166D58F71B7F7
:100E2400397106DE16DC1ADA1ED82AD62ED432D24E
:100E340036D03ACE3ECC42CA46C872C676C47AC2CE
:100E44007EC05135F250E2525253C2533255A2552C
:100E5400125682567247E2475248C248324EA24E58
:100E6400124F824F216173002030172700001307AF
:100E7400E7EF8346B7019727000083C777F2B69759
:100E840093F7F70FFD4663EAF6044C4B97260000F0
:100E9400A38EF6EC9727000083C757ED0547331759
:100EA400F70097260000A38DF6EE6D8F1DEF9726B1
:100EB400000083C636EFB3F6D7021305000281475C
:100EC40033D6F500058A13F8F70F09CE6399E600C7
:100ED40097270000A38C07E9828081177DB7050757
:100EE4001377F70F8507E39DA7FC8280938701930F
:100EF4009843B75702009387279F832607091396C1
:100F04005600635806008326070913966600634457
:100F14000600FD17FDF3828051C9AA870145C9C99E
:100F24008D07C207C183F19BC207C1831307400326
:100F3400636BF7021387019C08431387819B144357
:100F44006396A602172700001307C7CB185B014559
:100F540025C34111C20706C60545DD8D0297B2407F
:100F64000145410182801387C19BF9B7035765008E
:100F740005EF035745006369F702B306F7402146BE
:100F84006370D6021041938687001D8FAA9661175D
:100F940090C22392E6002393060014C12312F500A5
:100FA4002313B50021058280084159BF0145828081
:100FB400828001CD9387019C03A807009387819BBE
:100FC4008C430147C28763E3B70082809443636F15
:100FD400F50663EDA60613868700E368C5FE03D510
:100FE4006700216605066317C50003C6C18D0506A3
:100FF400238EC18C23930700638407031386C19B4C
:101004001042630FF6000356670019EA83D74700BE
:1010140014C383564700B697A1072312F700BA8773
:101024009843E304B7FA9386C19B9442E30FD7F83D
:1010340083566700D9FA83D64700035647001843FE
:10104400A106B2962392D70098C382803E87B687C2
:041054009DBF00003C
:10105800974100209381011617710020130101FAAE
:101068001305400097250020938545791736002001
:101078001306067E63FAC5008322050023A05500E7
:1010880011059105E3EAC5FE176501001305052D55
:10109800973500209385C57B1386818463FAC50044
:1010A8008322050023A0550011059105E3EAC5FE3A
:1010B8001385818497550020938585606377B500F3
:1010C800232005001105E36DB5FE9302800873A087
:1010D8000230972200209382627293E2120073908A
:1010E8005230971200009382A2D873901234730082
:1010F80020303D432A876373C3029377F700BDEF1F
:10110800ADE5937606FF3D8ABA960CC34CC30CC76F
:101118004CC74107E36BD7FE11E28280B306C34098
:101128008A069702000096966780A6002307B700F4
:10113800A306B7002306B700A305B7002305B70029
:10114800A304B7002304B700A303B7002303B70021
:10115800A302B7002302B700A301B7002301B70019
:10116800A300B7002300B700828093F5F50F93968C
:101178008500D58D93960501D58D61B79396270087
:101188009702000096968682E78086FA9680C117B5
:101198001D8F3E96E374C3F8A5B7B717004003C781
:1011A80077051377E70FA38BE704130700F8A38DE0
:1011B800E7043D47238CE70413075003A38CE70497
:1011C8008280B717004003D587005D715ED642055F
:1011D800418186C6A2C4A6C2CAC04EDE52DC56DA17
:1011E8005AD862D466D26AD06ECE9377050C1307AC
:1011F8000008814B6388E71813070004639CE71411
:10120800B7240D8F7D8993840480B3D4A402916799
:10121800938707E8BE94A167938707D0B3D4F402F5
:10122800EF40C10B97670100938747AC9043D443C5
:10123800EF30913FEF40014D2A8B939C040103D975
:10124800818493DC0C016315090005691309098081
:10125800B7170040130770052380E704130780FAC7
:101268002380E704371A00400547939D0401096C61
:1012780085662389E704D14A814E8145130D0A0406
:1012880013087005130680FA894893DD0D01130CC5
:101298000C712943FD1623000D012300CD002316F0
:1012A8002A0323000D0083472A05898BEDDF835726
:1012B8000A0583472A05898BEDFF83472A05898B11
:1012C800EDDF83570A0523942185C207C18333853F
:1012D80097419319050193D9094163840916338706
:1012E800B902635E070C850EC20E93DE0E0163E839
:1012F800D80D63D9050A3305B04093150501C1859A
:10130800C204C18063D7350B0965130505713385A0
:10131800A502B7170040130770052380E7041307D9
:1013280080FA2380E7042396770323800704334554
:10133800950242054181B640264496440649F25931
:10134800625AD25A425BB25B225C925C025DF24DF9
:1013580061618280B1E3B77489097D8993840480CF
:10136800B3C4A4029167938707E8BE94A1679387E3
:1013780007D0B3C4F402EF30717697670100938702
:1013880067976DB5976701009387C795856403AB29
:1013980007009384843855B5130B0000954471BD3C
:1013A8003A89D5BDB387FC409399070193D9094180
:1013B80081BF0965130505713385A9028DBF338582
:1013C800B74163E4FC003385FD40330585033344AE
:1013D800B5036345830013150401A9BF4E8536C6BE
:1013E80042C432C2EF40A125DA85EF303176EF40B2
:1013F800E11E931E050193DE0E41B307D941C207D2
:10140800C183056E3E871246224889482943B24661
:1014180063E3C701368742074183631A270113072D
:101428001900634430011307F9FF42074183FD1A8D
:1014380093FAFA0FCA8BCE85E3940AF62394E184D3
:1014480059BF0145CDBDB717004003D587005D7171
:1014580086C642054181A2C4A6C2CAC04EDE52DC7D
:1014680056DA5AD85ED662D466D26AD06ECE02C632
:101478009377050C13070008638BE7141307000420
:10148800639FE710B7240D8F7D8993840480B3D4BC
:10149800A4029167938707E8BE94A167938707D052
:1014A800B3D4F402EF309163976701009387078400
:1014B8009043D443EF305117EF40C1242A89939ABF
:1014C800040103DBA18493DA0A0163150B00056BA1
:1014D800130B0B80B7170040130770052380E70430
:1014E800130780FA2380E704939B04010547896961
:1014F800056A2389E704D14D014D814C93DB0B012B
:10150800938909717D1A5A8597200020E780C03A8F
:10151800330C5541420C135C0C41239561856301E2
:101528000C16B3079C0363D1070E050D420D135D1E
:101538000D01894763EAA70D63DB0C0A3305904167
:10154800931C050193DC0C41C204C18063D88C0B49
:101558000965130505713385AC02B71700401307F9
:1015680070052380E704130780FA2380E7043247D5
:101578002396E702238007043345950242054181FB
:10158800B640264496440649F259625AD25A425BFA
:10159800B25B225C925C025DF24D61618280B1E3D4
:1015A800B77489097D8993840480B3C4A4029167C0
:1015B800938707E8BE94A167938707D0B3C4F40262
:1015C800EF30D151975701009387C772D5B5975718
:1015D800010093872771856403A9070093848438E1
:1015E800F9BD130900009544D9BD3E8B29BF338549
:1015F800AA40131C0501135C0C41B9B70965130512
:1016080005713305AC028DBF63FEAA003305754131
:1016180033053503A9473344750363C88700131599
:101628000401B1BF3385AB40E5B76285EF402101C6
:10163800CA85EF30B151EF30717A131D0501135D82
:101648000D413307AB41420741838565BA87636320
:10165800B700D287C207C183639A670193071B004B
:10166800634480019307FBFFC207C183FD1D93FDFF
:10167800FD0F5AC6E28CE39A0DF62395F18445B71F
:101688000145FDBD41112A83014E930E407E130F83
:101698000019930F400663EB6E0A930800191303B1
:1016A8004006B3781503854E0D4FA14F337365027D
:1016B8000D891335150063E5BE0C1308F6FF79464E
:1016C80072984208135808013307C70213D6170047
:1016D800BE0732976146B3F6C60213068070B3861A
:1016E800C6023697A166F58F42075D8FB71700408F
:1016F80083C6F70293F60608A307D1000346F10054
:1017080083C6F70293F60608E394C6FE8346F10003
:1017180093F6F60FF1DE930670052380D70493063F
:1017280080FA2380D70423AA070383C6170393E606
:101738000608A388D702D8DB03C717031367070473
:10174800A388E70223800704410182807D13336860
:10175800E3039308E016630E08003368F303930865
:10176800D016630808009378330093B8180093885C
:10177800D81633081E01131E0801135E0E0121BF7F
:101788006393E50305486386080001486303030083
:101798002A8871087298FD15131E0801C205135E88
:1017A8000E01C18109BF13F8150063F4BF00790861
:1017B800D5B713381800E5BF914763EEB70217573E
:1017C80001001307A7538A05BA959C41BA978287E7
:1017D800B717004003A7470B1345F5FF698F23AAE6
:1017E800E70A03A7070B698F23A8E70A03A7070AD5
:1017F800798D23A0A70A8280B717004083A6470BDC
:101808001347F5FFF98E23AAD70A83A6070B558D30
:1018180023A8A70A83A6070A758F23A0E70A828050
:10182800B717004003A7470B498F23AAE70A03A766
:10183800070B1345F5FF45BFB717004083A6470BB5
:101848001347F5FF758F23AAE70A03A7070A598DDF
:101858004DB7B717004003A7470B498FEDB7B71728
:10186800004003D58700420541819377050491EB39
:101878009377F5013755E801130505803345F502DF
:1018880082809377050C130700046397E70093772A
:10189800F50137459C1CCDB72165130505D082801D
:1018A800B7F700E0C8439C4782808147373700403C
:1018B800A14663C4C700328582800345B740E38EE2
:1018C800A6FE3385F5000345050085072304A740D8
:1018D800CDB7973700209387E70D9C431757002013
:1018E800130707DE3E95636EE500176700201307B0
:1018F800E7506368A70017370020232DA70A3E8505
:101908008280FD57EDBF411122C406C62A84813F5B
:101918002947B307E502B2408D83B3D78702224433
:101928009507B3D7E70237370040C207C1832316AC
:10193800F74041018280716541111305052006C6F3
:10194800D937B7370040130770F82381E7400D47B0
:10195800A381E74013070004A380E74005472387D6
:10196800E740B24041018280411106C6EFF07F8511
:10197800BD4763F4A700EFF0DF84F134BD4763F39C
:10198800A700D134B24083D5A18403D58184410115
:101998006F00D053411193962500AA852D4506C6A0
:1019A80097200020E780001EB24001454101828057
:1019B800411126C29394250022C44AC02A84328940
:1019C800A686AA850146254506C697200020E780F9
:1019D800601BA6864A86A285294597200020E780B5
:1019E800601AB24022449244024901454101828072
:1019F800011122CC06CE3714004026CA4AC84EC66A
:101A080052C483447405034AB405834984050349D1
:101A18009405EFF08FF88347A40593F4F40F137A35
:101A2800FA0F93E71700230DF40493F9F90F1379CC
:101A3800F90FB717004003C7A705058B6DFF03D53E
:101A4800C705A38D4705238C3705A38C2705A38BD2
:101A58009704F2406244D2444249B249224A05619D
:101A6800828041119397050122C406C6C1872E843E
:101A780063DB0700E92111C1B1292165218DB2403D
:101A880022444101828093F7150013C51500E5FB38
:101A98009397250163D00702EFA01044F13537F67C
:101AA8000200130606E0896503C5C184EF00501AD9
:101AB8000965E9B7939715010145E3D207FC175566
:101AC800010013056529EF40810113060064916543
:101AD80003C5C184EF00D01711654DB71D71494684
:101AE800975501009385C522175501001305453602
:101AF80086CEEF00A07D01E9175501001305852268
:101B0800EF30F17D01A037F700E0F9575CC7FD57CA
:101B18001CCB8566B7E700E023A0D710130670102A
:101B280010C3B8434146B0C323A0D718B8C30100B7
:101B380001001306C00381454808EF00007397377A
:101B480000209387A70B3ECA896793870780231CC9
:101B5800F100ED47A301F1029307A0102312F1024F
:101B6800D1472303F102A167938707E03ECE970789
:101B78000000938767E2BEC497070000938787E356
:101B8800BEC685472304F102B5472308F10297072B
:101B98000000938727D13EDAB7F5070097070000C2
:101BA800938747E53EDE814697070000938707DC69
:101BB8007000E1051945BEC097200020E78080FC31
:101BC80058088147994670003E96034606008507E7
:101BD8000507A30AC700E398D7FED24791C7035762
:101BE800810185676373F70001A04808EF0070431F
:101BF800AA8501C91755010013050514EF30F159DD
:101C080001A0F640256182804111170500001305E7
:101C180085E506C622C4EF00503D1384C184230025
:101C2800A4002928034504002244B24037F60200E4
:101C3800130606E0896541016F009001411106C64F
:101C480022C493067005371400402300D4041307F8
:101C580080FA2300E4048347F40293F7A70FA3074D
:101C6800F4022300D4042300E4048347F40293E736
:101C78002700A307F402CD391305407E230004048E
:101C880081470147814605468545ED3A2244B240E1
:101C9800014541016F00F06541119397050122C488
:101CA80006C6C1872E8463DD070003C55185412C14
:101CB80011C10D242165218DB24022444101828049
:101CC80093F715000145EDDB175501001305456530
:101CD800EFE0705B13451400C5B783472500011179
:101CE80022CC06CE26CA4AC84EC652C456C25AC0CC
:101CF80005472A846384E70A91CF35476380E70460
:101D0800F2406244D2444249B249224A924A024BC2
:101D180005618280014685450D45EFE070586244B3
:101D2800F240D2444249B249224A924A024B1755DC
:101D380001001305A50205616F30715A03C741857B
:101D48009D47E3EFE7FA834945001309550001442D
:101D5800938481A003C541856366A4020E05090525
:101D680026951946CA8597200020E780801683C7E4
:101D7800418513973700BA948507A3803401238AD5
:101D8800F184BDBF9315340089051946A6954A8587
:101D9800352B3DF505041374F40F6DBF175501007D
:101DA8001305C5FCEF30B15383473400A5E3014662
:101DB80085450D45EFE0D04E6244F240D244424999
:101DC800B249224A924A024B17550100130545FBB6
:101DD80005616F30913CA6854E85EF30113C139B11
:101DE800340001495C405285DA97CA9783C52700B9
:101DF8000509EF30913AE31759FF2945EF30F13DD6
:101E0800850483473400E3C8F4FC55B781449759E7
:101E18000100938929F8175A0100130AAAF8994A68
:101E2800CDB7011117050000130545E706CE22CCF2
:101E3800EF00B01B13845185A1471306F10023005E
:101E4800A40085451305E030A307F100EFE0F06337
:101E580085659385052C0945EF20C03F034504009F
:101E68008545E121F24062440561828041111305F4
:101E7800800406C697200020E780A0A837170040F6
:101E88008327870A8D451305002093E7072023241D
:101E9800F70AEFF07F92453417550100130545FB0B
:101EA800EF30F14325398D33EFF0A0049D3F9720A3
:101EB8000020E780E0C023AC05FE1C4191E701004B
:101EC80001000CC18280BA8703A787FF6DFF23AC8E
:101ED800B7FE82801DC18346E5FF1307F00F9147C7
:101EE800639EE600411106C697300020E780208CEB
:101EF800B24081473E854101828095473E85828078
:101F080001E9014582800145B240224441018280B5
:101F1800411122C42A84210542059305D004418138
:101F280006C697200020E780E07E71DDFD5723205C
:101F38000500231285002303F5002105F1B7138757
:101F480081851C43411122C426C24AC006C60144E9
:101F58000149BA8489E7A16585250DC401A803C78D
:101F6800E7FF6318A7021DC8A165C126984083270B
:101F780084FF6317E40223ACF184FD57232C04FE8D
:101F8800230FF4FE2285B2402244924402494101C3
:101F9800828011E03E8983A787FF6DBF3E84E5BF3D
:101FA800232CF9FED9BFA9C9411122C406C62A8427
:101FB8009747002083C757482E856368F400193F68
:101FC8000D45B24022444101828083A785FF99E7ED
:101FD80003C7E5FF9307F00F6305F700E53D1545D7
:101FE800CDB7238F85FE13858185F135228522445F
:101FF800B240A165410115AE1545828023AC01842C
:102008008280938701879C4399E33E85828003D72A
:1020180027006316B70003C70700E308A7FEDC47DD
:10202800E5B74111939705014AC006C622C426C2E6
:10203800C1872E8963DE0700193711C1613D21650B
:102048003345A900B24022449244024941018280AA
:10205800AA860145E5D901443D47B3578940858B98
:1020680095CB938741868443BD4791E28147A297E8
:102078008E070545BE9433158500131405019C4051
:10208800C8404180829723A0040023A2040033455E
:1020980024014DBF0504E312E4FC0144CDBF97477A
:1020A80000209387A7359C53411122C406C6138488
:1020B800418095C7829723A2A1800840B7470300B3
:1020C8009387D73F3305F502B7A72600938737ECE8
:1020D800B24022443E9523A2A180410182809747C5
:1020E80000209387673518409C4BBA9723A2F1804C
:1020F800E9B79387C18590439746002083C6D633B6
:10210800814713F7F70F6360D70A17470020034783
:102118001744914763E0E70A9747002083C7C747FA
:10212800918BC9EB0111680006CE22CC26CAEF803C
:102138003010FD56630FD50C32479747002083C7F0
:10214800172D63F3E70C174700201307E72E4047C6
:10215800174700200347C72B6305D406058B21CFFB
:1021680051473304E40263F1870A97200020E7808F
:1021780060FBB2476373F400A28717470020034748
:102188001729998F3E95974700209387272783879C
:10219800470163CD0702B707C0A86369F502B7070F
:1021A80040573E9525A08507139717003297035788
:1021B800E7FF21DB8280130790023304E4020580E5
:1021C8005DB762076187635707001D8D19E93705F9
:1021D800C0A801A8E37BF5FE3707C0A8B307F740FE
:1021E8003E959747002093876721DC53829709ED36
:1021F80097470020938747359C4F99C7EFA0600801
:10220800EFA06061EF90507CF2406244D2440561D7
:1022180082809747002093872722DC47E386A7FE22
:10222800174700201307871D83464701BA84858A0C
:102238009DC65144338487029747002083C7371DC2
:10224800E3F487FC97200020E780C0ED9747002043
:1022580083C7F71B1D8C2295838744011DBF130478
:102268009002338487020580C1BF2A9609E58280DF
:102278000505A30FB5FEE31DC5FED5BF814733078E
:10228800F5000307070019E33E8582808507C5BF6F
:1022980001112E8626CAAA84131506019305F00497
:1022A800418122CC06CE32C697200020E7808046A6
:1022B8002A8419C53246A68597200020E78060C188
:1022C8002285F2406244D2440561828081476314CA
:1022D800F600054582803307F5008507B386F500CB
:1022E8000347070083C6F6FFE383E6FE01458280C5
:1022F8009307F6FFBE952A966313C5008280FD15E5
:1023080083C715000505A30FF5FEFDB7814711E941
:10231800014582803307F50003470700E31AB7FE3B
:102328008507E319F6FE054582809747002083C795
:10233800B710637FF5001387C1859317150008430D
:102348003E9583570500DD8D2310B5000145828039
:102358000D458280FD570111174700202324F70EF1
:102368009387018722CC80434EC6974900209389E2
:10237800E90826CA4AC852C456C206CE5AC02A8993
:1023880081444E8A974A0020938A0A0B1844814751
:102398006374E900B307274103A749021CC409CBAA
:1023A80003A7CA0063F6E70017470020232CF708A5
:1023B800A1E7835524009DE95C44A1E823A8F186A0
:1023C800032BC400228597200020E780403E5A84D2
:1023D80055FC83274A0285CF6244F240D2444249E1
:1023E800B249224A924A024B056121B303450400CF
:1023F8002D3F5C4081CB1CC483572400D5DFA284C9
:102408004044F9B71C44CDDBC5BFDCC455BFF2401E
:102418006244D2444249B249224A924A024B056177
:1024280082809747002083C737016371F5021387BD
:10243800C18593171500084393C5F5FF3E9583574B
:102448000500FD8D2310B500014582800D45828071
:102458009747002083C757FE6364F50001458280D3
:10246800411122C426C24AC006C62A842E89B284D3
:10247800493E01C504C505452DA0936504F0C20574
:10248800C181414597200020E780C0280DE197478A
:1024980000209387A7F69C5B81C7A2851145829788
:1024A8000145B24022449244024941018280938707
:1024B80001879C438DE323A8A18685472326050031
:1024C80004C52311250123008500A300F50023225C
:1024D800050055B7BA87D84775FFC8C7F9BF45C5BE
:1024E80039715AD0138B418622DC26DA4AD84ED667
:1024F80052D45ECE66CA6AC86EC606DE56D262CCB2
:102508003689328AAE89AA8401445A8DB94D854BE1
:10251800F94C03270B00131C3400937AF40F6297CD
:102528001C43A9EF13B5FA0013451500B3978B00A8
:1025380063F65D01930714FFB397FB0093950701BA
:10254800C181528631371DC983270D000145E297A5
:1025580084C323A237016304090023005901F25000
:102568006254D2544259B259225A925A025BF24BDF
:10257800624CD24C424DB24D216182800504E31A6F
:1025880094F92145E9BF09458280411122C426C238
:102598004AC006C6AA842E8932845D3DCA8526852E
:1025A8008D3409C940C10145B240224492440249D0
:1025B800410182802145CDBF411122C426C24AC0B3
:1025C80006C6AA842E89353C2A8419C12311050020
:1025D8009747002083C747E6639497002394218791
:1025E800CA8526853D3D014511E01945B240224482
:1025F80092440249410182807547636BA70413879F
:1026080041861443411126C293143500A69694427C
:1026180022C406C6AA873A84094595C613B5F700A9
:102628003947134515006373F700C5178545B395FA
:10263800F500C205C18149371C400145A69723A072
:10264800070023A20700B24022449244410182803D
:1026580009458280411106C6EFF0BF9A09C50845B1
:10266800B240410182800145E5BFF54763EDA7040B
:10267800938741869C4313173500BA979843894737
:1026880021C7011126CA06CE9334F50022CCB947DA
:1026980093C4140063F3A700451505443314A4003C
:1026A800420441802EC62685A2856D378947324669
:1026B80009C5A2852685693B8147F2406244D24418
:1026C8003E850561828089473E8582802390A18668
:1026D8002391B1868280411106C623A6A186029560
:1026E800B2409747002023A3A7D601454101828025
:1026F800994763E9B7008A0597470020938707D66B
:10270800BE9588C18280411106C6EFE090057146EA
:10271800814517450020130565D4813E1306400204
:10272800814517450020130525D1813623A8018648
:1027380023A601869747002083C707CE13D5270015
:102748008D8B3E958D473305F502930510103505A1
:102758001375F50F974700202381A7CE99473305B6
:10276800F5021305050F97200020E780A0FA23A2A1
:10277800A1862DC9994717460020034606CC330683
:10278800F60281451306060FCD34938741869C4394
:102798009387070F23AAF186174700200347E7C945
:1027A8000A07BA9723AEF184EFF05F854D26938729
:1027B800418798439747002083C717C893962700F7
:1027C800BA96170600001306068690C2938627005D
:1027D800850793F7F70F8A0797450020A38ED5C47E
:1027E800BA9790C3B240410182809747002083C7BF
:1027F800B7C417470020034747C463F1E7021387AC
:10280800418718439386170017460020A306D6C2AF
:1028180093962700369708C33E8582809307F00F6A
:10282800E5BF1C416380071A41777D8FB7060020FA
:102838008947631AD71803574500630607184111DB
:1028480022C419462A849305F00F590506C67D3C13
:1028580005478D476303E5161C4481CB58589947B3
:10286800630D0714185C630A07141306C003814537
:1028780017450020130585B8EFF03F9F1306C003E6
:10288800A28517450020130565B797100020E7803B
:1028980040649747002083D727B797460020938640
:1028A800E6B599E79307001017470020231EF7B4F1
:1028B8009747002083C767B591E7854717470020EA
:1028C8002305F7B49747002083C737B491E7ED474E
:1028D80017470020A30BF7B29747002083C707B319
:1028E80091E79547174700202302F7B29747002042
:1028F80083C7D7B191E7854717470020A308F7B0EA
:102908009747002083C7D7B099E783C706011747C1
:102918000020A30FF7AE9747002083C747AF91E782
:10292800D147174700202304F7AE9747002083C7F5
:10293800C7AE95E717470020034787AD13168701F1
:1029480061869307C002634806009377170093B720
:1029580017009387D702174700202300F7AC974743
:10296800002083C7D7AA95E717470020034747AA3F
:102978001316870161869307C002634806009377A0
:10298800170093B717009387D70217470020A300B3
:10299800F7A88347D40191E7894717470020A30D7B
:1029A800F7A69C5691C78297974700202399A7A816
:1029B800993BFD57A382F19A8147B24022443E8554
:1029C8004101828089473E858280011122CC06CE52
:1029D8002A842EC6EFF0AFECB245F240818D33A5C4
:1029E800A502229562441375F50F056182800111D5
:1029F80022CC06CE2A842EC6EFF06FEAB245F2400A
:102A0800818D33A5A5022295624442054181056165
:102A18008280011122CC06CE2A842EC6EFF02FE840
:102A2800B245F240818D33B5A50222956244056115
:102A38008280974700209387679C985725C3411148
:102A480022C426C206C6BE84029717470020035731
:102A5800079F2A8441C7BA876373A700AA87C2075A
:102A6800C183BA866373E400A286C206C182958FC9
:102A780051476355F706DC5491C38297854717473A
:102A880000202307F7ACEF903045974700202398A4
:102A9800879AB2402244924441018280974700209D
:102AA80083C707AB9DE7974700209387E7A983C7AC
:102AB8009700850793F7F70F17470020A30AF7A891
:102AC800A18B9DC78547174700202313F7A86F9050
:102AD800904697470020A38D07A6D5BF97470020AB
:102AE80083C707A7DDD72244B24092444101C5B746
:102AF80082809747002093876790D857011122CC8E
:102B080006CE3E8401C72AC60297324509CD23ACBA
:102B1800A1861715002013056562753EF2406244D0
:102B28000145056182808307440163DD07009747FB
:102B3800002023AF0790971700209387C75A23AC2C
:102B4800F186C1BF971700209387C75DCDBF0111DC
:102B580022CC174400201304648A084406CE26CAEF
:102B68004AC801E90545F2406244D2444249056138
:102B780082805C58E5DB185C75D7700085458297C4
:102B88001844B247E300F7FE9305E0041745002018
:102B98000355858797200020E780C0B71747002096
:102BA800232AA78A61D1174600200356E685930594
:102BB800F00FEFF08FEB8144174900201309C98704
:102BC8009747002083C767840326C90163C1F402BD
:102BD800328597200020E78080BD01459747002077
:102BE80023AA07869747002023A80786ADBF9745E5
:102BF800002083D56581B38795020844185C8981D4
:102C080085043E9508C2029765BF411122C4173456
:102C180000201304A47E1C4426C206C64AC097445A
:102C280000209384648191EBC84C35E9B24022447A
:102C3800924402490145410182801C5CF5D7DC4C75
:102C480099EF9305E004173500200355E57B97209D
:102C58000020E78020AC9737002023ADA77EC84C22
:102C680061D5173600200356267A9305F00FEFF04A
:102C7800CFDF01499737002083C72779D04CE35528
:102C8800F9FA9735002083D52578338525031C4428
:102C9800898105093E951C5C08C28297E1BF97208F
:102CA8000020E780C0B09737002023A5077A973720
:102CB800002023A3077A9DBF011156C2973A00202E
:102CC800938ACA7383A78A0022CC4AC84EC606CE06
:102CD80026CA52C45AC0AA892E843289638507221B
:102CE80003A74A03630707147D476366A71497344D
:102CF80000209384647403AAC40163170A0A9565C3
:102D0800938515E01735002003550570972000209E
:102D1800E78040A09737002023AEA7722A86630A6F
:102D2800051083A74A0303A58A009735002083D599
:102D3800A56D8981829783A78A0003AAC4011737E2
:102D48000020232BF7708947639CF908C147631259
:102D5800F40E9735002083D5256B938505FC9147A4
:102D6800B3C5F5028A05D29503C705009307A005E8
:102D7800631DF70A83C715006399370B4A852286B6
:102D8800910597100020E780C014DC4C52856393AE
:102D980047150145F2406244D2444249B249224AA9
:102DA800924A024B056182809850E38EE7F8956558
:102DB800938525E0173500200355056597200020E9
:102DC800E78040952A8A35C52A8683A74A0303A542
:102DD8008A009735002083D5256389818297A5B716
:102DE8008D47639DF900C1476315F40497350020AA
:102DF80083D58561938545FDF199B5B79147639A68
:102E0800F900631834039735002083D5E55FA115D1
:102E1800E5B7C147639FF900A14763EC8700973581
:102E2800002083D5655EC115C1BFDC4C5285639710
:102E3800470D294585B71307F006568B6361A70A26
:102E4800130A05FE1947334AEA02173700200357C9
:102E5800A75B973A0020938A2A5E330AEA023E9AD1
:102E680083A70A026395470183A4CA019DE49305D9
:102E7800E004173500200355255997200020E780E6
:102E88006089AA845DD583274B039735002083D5B5
:102E9800A5572A8689815285829791451307A005EF
:102EA800898193972500A69783C607006393E60454
:102EB80083C61700639C360385058A052286A69576
:102EC8004A8597100020E780C00083A7CA01E382E3
:102ED80097EC268597200020E780608D5DBD13075D
:102EE800E007E368A7F4130A05F985B783D5270037
:102EF80045BF83A7CA01E38E97F226859720002055
:102F0800E780E08A3DB7973700209387E752CC4F98
:102F18008DD191479306A0058983139727002E9793
:102F280003460700E317D6F003461700631C360173
:102F380085078A072286BE954A8597100020E78074
:102F480040F981BD83572700C1BF97370020938779
:102F5800E74A984739C79C5FA9C705476313E50443
:102F6800411122C4173400201304044D504C06C6E6
:102F78000DC608509735002083D505498981829769
:102F8800484C97200020E78080829737002023A3B1
:102F9800074C9737002023A1074CB2402244410137
:102FA80082808280011117370020130727454EC6FB
:102FB8008329870022CC26CA4AC806CE52C456C2E4
:102FC800AA842E843289638A09201C5FBA8A99EB05
:102FD8002945F2406244D2444249B249224A924ABF
:102FE800056182805C5BEDD7FD4763E9A70E9739E1
:102FF80000209389694483A7C901B1CB03A58A003E
:1030080083A709026395A70689476393F408C14714
:10301800E310F4FC173500200355053F91471305CD
:1030280005FC3345F5029317250003A5C90122863F
:10303800CA853E959307A0052300F500A3009500D7
:10304800110597100020E780C0E8014559B793059E
:10305800E004173500200355253B97100020E78032
:10306800606B9737002023A7A73E49F995B783A738
:103078004A0303A6C9019735002083D5E53889811D
:10308800829783A78A00173700202327F73CADBF14
:103098008D47639EF400C147E31CF4F21735002006
:1030A80003558536130545FD9377C5FFBDBF914789
:1030B800639AF400E31E94F0173500200355C534D5
:1030C8002115DDB7C147E395F4F0A147E3E287F0A6
:1030D80017350020035545334115F9B79307F00616
:1030E80063EAA706930705FE1947B3C7E702173730
:1030F800002003576731173A0020130AEA33B387D1
:10310800E702BE998327CA01A9CF83270A02639AD7
:1031180037070325CA0191461308A005FD5593D723
:103128002600C207C183139727002A970346070082
:10313800631D060783481700035627006395980602
:10314800B306D64063CF860485078A072286CA85D8
:103158003E95C5BD9307E007E3ECA7E6930705F99D
:1031680079B79305E004173500200355E529971032
:103178000020E780205A9737002023ADA72C51F56F
:1031880081BD83A74A030326CA019735002083D54A
:10319800A52789814E8582979737002023AE372B44
:1031A8008DBFA300B700B2869DBFB38586001736D2
:1031B8000020035666259105130606FCE3FAC5E0D0
:1031C800130634001376C60F1106B29623000701C2
:1031D800A30097002311D70085BF97370020938756
:1031E800A725D44FBE89A1C203A5C90191461308DA
:1031F800A005FD5593D72600C207C1831397270062
:103208002A970346070063160605834817000356E6
:10321800270063989800B306D640E3D786F2A30048
:10322800B700B286C1BF8357C700173500200345D2
:10323800C51D9305E0043305F50242054181971049
:103248000020E780204D9737002023A5A72049FDBF
:1032580041B3173600200356261B9735002083C537
:10326800C51AB385C502338686001106E3E2C5D6C2
:1032780081BF01458280011106CE2EC6EF40402352
:1032880001C9B245F2400355250005616F70C06061
:10329800F240494505618280A382018A2382018A1E
:1032A80023A6018823A8018823AA018823AC0188C2
:1032B80023A4018823A20188973700209387C71B7E
:1032C8003707B40098C33747A000D8C337071000A2
:1032D8009306070A94C7B7065000C106D4C79306D9
:1032E80007054107D8CB3707D007410798CF3707DD
:1032F800840398D337C70700130707B8D8D34167A3
:1033080094CB93060701130717F8D8D7370781FF1F
:1033180098DB7D5723AE070094D7239AE702828073
:10332800011126CAAA84214522CC06CE2E8432C693
:1033380036C43AC2EFE0DFBC1DC9A2461247324686
:10334800930700FD2300F5009947A300950023018A
:10335800F5002303D500A303E5002312C500AA85C1
:1033680022856244F240D24405616FE0DFC3F24037
:103378006244D2440561828023A6A188828023A862
:10338800A188828023AAA188828023ACA188828018
:10339800011122CC4AC806CE26CA2A890144B304A0
:1033A80089006368B400F2406244D244424905612E
:1033B80082802EC6EFE0BFCE93170501C183A1839B
:1033C800B2452380F4009307140093F7F70F8504A0
:1033D80063F9B700CA9709042380A7001374F40F90
:1033E8007DBF3E847DBFC167173500200355A50CFE
:1033F800FD176302F502411103C601909385C18947
:1034080006C6EF30506CB240FD5717370020231422
:10341800F70A41018280828009C925151375F50FC5
:103428001335850E1345150082800145828023805F
:103438000500F94763E2C708797122D426D24ECE37
:1034480056CA5AC806D64AD052CC5EC63684B28905
:10345800AE8A2A8B814463FF3405B307940003CAFC
:103468000700138914001379F90F63050A04B307D9
:103478002A0163C1F904B307240183CB07005E85E1
:10348800613F0DC99307FAFF2380FA0063906B032D
:10349800130519002295B250225492540259F24948
:1034A800624AD24A424BB24B45618280D29493F42D
:1034B800F40F55B70145C5B701458280411126C2B1
:1034C800AE8422C49737002023AEC7FE973700206A
:1034D80023A8B7FE9737002023A2A7FE2A844146D7
:1034E8009305F00F26854AC006C60549EFE01FE29E
:1034F800631E250397370020938787FB884BC145B8
:10350800413D41469305F00F2285EFE03FE08544B9
:1035180063169502224497370020938767F9B240D3
:1035280092440249C847C14541019DB5414681457C
:103538002685EFE0BFDDE31625FD6DBF41468145D9
:103548002285EFE0BFDCE30795FCB24022449244B9
:10355800024941018280411122C426C22E84AA84D4
:1035680013060002814517350020130565F406C6C9
:10357800EFE0BFCF97370020A38D97F2A38181900A
:10358800EF700033854719C181474945B24022444D
:1035980017370020230EF7F09244410182808147BB
:1035A80081CD19C98547631BF50083C7550093E78B
:1035B80007FCA382F50085473E858280894763170B
:1035C800F50083C7550093F7F703E5B70D4785471F
:1035D800E314E5FE03C755001377F70313670704E1
:1035E800A382E500D1BF81478DC105C103C755003E
:1035F8009306000C85471377070C6308D7009306DA
:1036080000048D476303D70089473E8582804111B6
:1036180022C4005D06C626C21DC8AA84085009C572
:1036280097100020E780A018485009C5971000207F
:10363800E780E017085409C597100020E780201795
:10364800228597100020E780801623AC0402B24040
:10365800224492444101828009ED9737002083C7B4
:1036680047E517350020130525E681CB1385C1876B
:10367800828017350020130525E582801735002044
:10368800034525E3828097370020938767E2C84780
:103698008280973700209387A7E1884B82809737ED
:1036A80000209387E7E0DC4B88438280973700202F
:1036B800938707E0D84B1C4385071CC317350020A8
:1036C800034535DF9307F00F6305F50091656FE05B
:1036D800DFC58280011122CC06CE2E8432C6EF309F
:1036E800706C9147B245631FF500938781899C43AD
:1036F8008DC303A30700630E030022856244F240D2
:1037080005610283938701899C4381C703A347000E
:10371800DDB7F2406244054505618280011122CC83
:103728002A840355450006CE26CA4AC84EC6EF303D
:1037380070482DC52A89834405008349C500C13DC9
:103748004A85EF40D03B03554400EF30306183C7D2
:10375800418AA9CB6398970483C5518A2685213E5F
:1037680019E12382018A03554400EF30B063914781
:10377800631FF500035744009737002083D7A7D36A
:103788006317F700FD57173700202316F7D2F240CA
:103798006244D2444249B249056182808149930416
:1037A800F00F75B79307F00FE38FF4FA83466400C0
:1037B80003564400034524004E87A685953665B711
:1037C80079715EC6AA8B2E8552CC56CA5AC806D6BF
:1037D80022D426D24AD04ECEAE8A328B368AEF30E9
:1037E800703D6DC1045D2A89F1CC9C50614599C337
:1037F800130540039C5481C7510542054181630567
:103808000A00710542054181DC5081C7590542050E
:103818004181EFE0EFEE2A8455C561468145EFE02E
:10382800DFA49739002083C929C863940900834914
:103838000900930700FD2300F400A947A3007401C1
:103848002301F400230364018C502312540113054F
:10385800840191C908C47146930A44039700002063
:10386800E780206756858C5491C948C45146930A0D
:10387800450197000020E780C0655685630C0A0063
:1038880008C87146D285930AC50197000020E780D1
:1038980040645685CC5099C548C8594697000020C1
:1038A800E7802063A2854E85EFE0EFEF2254B25007
:1038B8009254F249624AD24A424BB24B4A85025963
:1038C8004561B1B3B250225492540259F249624A46
:1038D800D24A424BB24B4561828001114EC6AA8939
:1038E8002E854AC806CE22CC26CA2E89EF30902CC7
:1038F80031C59734002083C424BB99E08344050074
:103908001945EFE0EFDF2A8415C981451946EFE034
:10391800DF95930700FD2300F400B947A3003401A5
:103928002301F40023122401A2856244F240424993
:10393800B2492685D24405616FE0EFE6F240624461
:10394800D2444249B2490561828039715ECEAA8B60
:103958002E8526DA4ED652D456D25AD006DE22DC2E
:103968004AD8AE84328BB68A3A8ABE8942C6EF30CC
:10397800702431C92A894145EFE08FD82A8421C5AE
:1039880041468145EFE07F8E173500200345C5B1DC
:1039980019E103450900930700FD2300F400BD4722
:1039A8002301F400B247A3007401231294002304F6
:1039B8006401A304540123054401A30534015CC434
:1039C800A285EFE04FDEF2506254D2544259B25908
:1039D800225A925A025BF24B21618280797126D277
:1039E800AA8439454AD04ECE06D622D42EC6B289EC
:1039F8003689EFE0EFD021C1B2459307000D2310BF
:103A0800F500B1472A842312B5002301F500CE85BD
:103A18001905194697000020E780A04B23062401CA
:103A2800A2852254B2500259F24913F5F40F925468
:103A380045616FE04FD7B250225492540259F2496F
:103A480045618280173700200347B7A69307F00F18
:103A5800630DF706411126C2AA84394522C406C659
:103A68004AC0EFE0EFC92A8439C9930700FD230053
:103A7800F500A300950023010500973500209385E4
:103A8800A5A40D05194697000020E7808044173942
:103A980000201309E9A183578900A2851735002062
:103AA800034535A12315F400834719002306F400C4
:103AB8002244B2409244024941016FE0CFCEB24065
:103AC800224492440249410182808280011156C2F7
:103AD800AA8A314526CA4AC84EC652C406CE22CC46
:103AE800AE84328AB6893A89EFE08FC129C92A841F
:103AF8002685EF30300C1DCD03450500930700FDEA
:103B08002300F4009D47A30054012301F40023126D
:103B18009400231344012314340123152401A2859E
:103B28006244F240D2444249B249224A924A05616B
:103B38006FE06FC7173500200345B597C1B7F2404E
:103B48006244D2444249B249224A924A056182807B
:103B5800397162CC2A8C594526DA4AD84ED652D4C5
:103B680056D25AD05ECE06DE22DCAE8432C636C4C9
:103B7800BA8B3E8BC28A468A8359010403494104A1
:103B8800EFE00FB835C53246930700FDA246230083
:103B9800F5009547A301C500A30085012301F500A1
:103BA8002A8419461105A9C2B68597000020E78026
:103BB800403223066401230A2401231574012317C4
:103BC80054012318440123193401A2856254F25088
:103BD8004259B259225A925A025BF24B624C2685DC
:103BE800D25421616FE02FBC8145EFE00FE8D1B7D7
:103BF800F2506254D2544259B259225A925A025B34
:103C0800F24B624C216182809737002083C7678A14
:103C18008DCB4111AA8519461385C18706C6970021
:103C28000020E780002B9385C187173500200345C6
:103C38004588EFF0DF96B2401385C18741016F6078
:103C4800B0470145828017370020034797869307BE
:103C5800F00F6305F708411126C2AA84294522C43A
:103C680006C6EFE0EFA92A8429C1930700FD2300C7
:103C7800F500A1472301F500A30095009737002020
:103C88009387078383C727009385C1871105A30FEF
:103C9800F5FE194697000020E780A023A285173576
:103CA800002003451581EFE00FB0173700200347C8
:103CB80047808D47631FF700938741899C4391CBC9
:103CC80003A38700630703002244B24092444101E2
:103CD8000283B24022449244410182801727002087
:103CE8000347277D8D47631AF700938741899C43D3
:103CF80089C703A38700E31D03FC8280797122D45E
:103D080006D626D24AD04ECE52CC094445C92A8975
:103D1800035505002E8A5144EF30C069AA8459CD55
:103D280083C73190FD1793F7F70F05474944637729
:103D3800F7080347C500A1476314F70063100A0892
:103D48009C5C4544A5EF9165938545711305C002B8
:103D580097100020E780009C88DCAA894D4439CD63
:103D68001306C0028145EFE04FD0835709009386C0
:103D7800490036852391F90071469305490036C6F6
:103D880097000020E780E01489472380F90003C5E5
:103D9800C400B24603560900611583C50190133566
:103DA8001500EF50F0712A8463060A00D285268533
:103DB800EF40100001C42685EFF07F852285B250C0
:103DC800225492540259F249624A4561828083C75B
:103DD8003190FD1793F7F70F05476378F708894780
:103DE80051C6011122CC26CA4AC84EC652C406CEB4
:103DF800AA89368AB2842E89EF30C05B2A84D147DB
:103E080029C9485509C597100020E780409AF1450F
:103E18002685EFE0EFC748D4CD4705CD8346C400DB
:103E280021478147639FE600630D0A000347A50108
:103E38000356050193062501AA854E85EF30306F9C
:103E4800AA8703474400630F09001367670023022A
:103E5800E400F2406244D2444249B249224A3E85D3
:103E68000561828013674700DDB7C9473E858280B8
:103E7800E54763EBA700972700209387E75F0605D0
:103E88003E9503550500828041657D1582800111AC
:103E980022CC2A842E8526CA06CEAE84EF308051E5
:103EA8000DCDB7470F009387F723094563E28702D3
:103EB80081450A854146EFE04FBBA6852310810066
:103EC8000A85418023018100A3010100EF50B04120
:103ED800F2406244D244056182804945D5BFA3803F
:103EE800A19082806F509056797152CC2A8A32857F
:103EF80022D426D24AD04ECE56CA5AC85EC606D654
:103F080062C4AE8BB28A368BBA843E89C289468433
:103F1800EF30404A15C92A8C63140A0213774B0004
:103F28008347450015CF93E727012302FC008DEC5A
:103F3800631C0902639A090205E8ED9B2302FC0051
:103F4800832B8C03639F0B06B25022549254025960
:103F5800F249624AD24A424BB24B224C45618280B6
:103F6800F59B93E70701D1B793E747002302FC00CD
:103F780001CC1C484146A2852324FC0213058C0170
:103F880097000020E780E0F463910B02D5D8032561
:103F9800CC0209C597100020E7806081F14526858D
:103FA800EFE00FAF2326AC0261BFE30B09F803254E
:103FB800CC0209C597000020E780607FF1454A855B
:103FC800C5B79DC483A70B0299EB9165938535719D
:103FD800714597000020E780E07323A0AB0203A59A
:103FE8000B0219C57146A68597000020E78060EE90
:103FF8006388090283A74B0299EB91659385257124
:10400800594597000020E780E07023A2AB0203A582
:104018004B0219C55946CE8597000020E78060EB12
:104028001DC483A78B0299EB916593851571514542
:1040380097000020E780006E23A4AB0203A58B0243
:1040480019C55146A28597000020E78080E82254D0
:10405800B2509254F249B24B224CCA865A8602593F
:10406800424BD6855285D24A624A45616FF04FF578
:10407800011126CA52C406CE22CC4AC84EC62A8A84
:10408800AE84EF30203325C5AA893945EFD05FE7E4
:104098002A8431CD172900200349094163140900F6
:1040A80003C909009307000D2310F400AD4723014D
:1040B800F400938569001305340019469700002021
:1040C800E78020E193F71400858085882306F400B3
:1040D800A306940023154401A2856244F240D24409
:1040E800B249224A4A85424905616FD0DFEBF24066
:1040F8006244D2444249B249224A05618280938788
:104108004188884301CD411106C697000020E78009
:10411800006AB24023A20188410182808280011195
:1041280006CE22CC26CA4AC82EC6EF30A02839CDE2
:10413800B2451729002003492937AA840CD56314EE
:104148000900034905004145EFD09FDB2A841DCDB6
:104158009307000D2310F500A5472301F50083C739
:104168005400938564001105A30FF5FE19469700C6
:104178000020E78000D69C54A285F2405CC46244CB
:10418800D2444A85424905616FD0FFE1F24062445A
:10419800D244424905618280797122D406D62A84A4
:1041A8002EC6EF30202101CDB2452285230EB10065
:1041B8006C08EF40603CB250225445618280514502
:1041C800DDBF6F30E033C1671387E7FF6394E50213
:1041D800938701899C4391EB494582804945B240C8
:1041E8002244924402494101828003A30700E30567
:1041F80003FE0283411122C426C24AC006C6FD1727
:104208002A892E84B2846395F502938701899C4399
:1042180091CB9C4381CB829711E52382218BA3828A
:10422800918A75BFA6854A85EFF0EF844DF9F5B7F9
:104238002E85EF3020185DD1834705000D45E390AA
:1042480027FB22852244B2400249A68592444101B7
:104258006F60806465476362A7044111416722C4A7
:1042680006C626C27D172A8409456383E502C54729
:10427800AE846315F4002E85EF60C06993171400AF
:10428800172400201304441FA29723909700014588
:10429800B240224492444101828009458280011142
:1042A80006CE2AC6EFE05FFFEF10A00CEF00E07526
:1042B800EFC0B0053245972700209387671F130783
:1042C80000F02391E700238207007D579387019030
:1042D800A380E7002380A700F240954505616F1091
:1042E800B0291D7193970501CAC886CEA2CCA6CA6B
:1042F800CEC6D2C4D6C2DAC05EDE62DC66DA6AD85E
:10430800C1872E8963D0074C03C50190EFD03FC306
:104318008964416A856A797B2A84938BD4007D1AE3
:10432800A50A691B15E021653345A900F6406644D6
:10433800D6444649B649264A964A064BF25B625C21
:10434800D25C425D25618280834704001307200AFE
:10435800639DE70003552400172C0020034C7C15AF
:104368002286D285EFF00FB73DAA1307100903CCB8
:1043780011906397E716834714001547639EE7007B
:104388002285EFF0AFB92285EFD0DFB403C50190E5
:10439800EFD0FFBA2A8479B739476399E7160355EE
:1043A8004400631B55050C4483C90500639D09003F
:1043B800850591C91946172500201305E5109700B2
:1043C8000020E78000B1172700200347670E8547C4
:1043D8006318F710638A090097270020238A070CBF
:1043E8004E85EFF02FE645B78947172700202301B0
:1043F800F70CEF60204C41BF93872400631AF50641
:1044080083298400638E090C83C709008DE383C761
:10441800290003C71900A207D98F17270020231DD9
:10442800F70883C7390017270020A303F7081727C1
:1044380000200347E70789476314F70A83C7090081
:1044480081CB972700202385070603C5090051BFA4
:104458008D479725002083C5B505172500200355EE
:10446800A505172700202305F704EF10F013F1BF67
:10447800938754006318F5001C4403C50700EFF048
:104488008FFC11B7B3076501C207C1831147636F7A
:10449800F700938741899C43E38707EE9C43E384B5
:1044A80007EE22858297E31005EE1DA89387B400D6
:1044B800631FF5009387C1889C43E38607EC9C4300
:1044C800E38307ECA2851385B4008297E9BF93873D
:1044D800C4006310F5021C4483C70700E38507EA9C
:1044E8009307F00FE301FCEAA2856285EFD0BFAB2A
:1044F80071BD9387E400E315F5FE938701899C431A
:10450800E38307E8DC43A285E9F3B5BD3D4763973C
:10451800E70403554400E30275FF93879401E30E13
:10452800F5FC93873401E31DF5FA9727002083D71C
:1045380087F8639E4701938701899C43E38507E4D5
:10454800DC43E38207E4A28513853401BDBF93876A
:1045580081899C43E38907E29C43E5B71307E0039D
:10456800E390E7F88347240005476396E70E8347FF
:104578006400138D4188F1E383270D00D5CB03CC6C
:104588000700A14903457400930C8400E685EFF009
:104598008F8583474401A303A4008358040103586B
:1045A800E400035744002A86034534003EC283577B
:1045B8002401E686E2853EC0CE87EFF06FD98347B7
:1045C800340095E7DD47835804010358E400834627
:1045D8007400835544003EC283572401668705460C
:1045E8003EC06285CE87EF30800DA301A4008327EB
:1045F8000D0081C71145EFF09FB003C5418AE30460
:1046080005D883C5518AEFE01FC7E30E05D6834658
:10461800340093071003638AF600035644004E875C
:1046280083C5418A3685EFE0BFCF2382018AA1BBCB
:10463800172C0020034CFCE7A9B7938741899C43BA
:10464800172C0020034CFCE691498DDFDC439DDBF1
:104658000145829705BF29476390E70C83476400AB
:10466800938C4188C1E783A70C00A5CF03CC070032
:10467800A149034574009306840093772500C9C7B0
:1046880013761500130D4401834704028358C401AF
:104698000358A40103574400034534003EC283571E
:1046A800E401E2853EC0CE87EFF08FCA834734002D
:1046B80095E7DD478358C4010358A4018346740075
:1046C800835544003EC28357E4016A8705463EC0CD
:1046D8006285CE87EF20B07EA301A40083A70C00DB
:1046E80009BF172C0020034CDCDC59B7938741899C
:1046F8009C43172C0020034CDCDB9149BDDBDC43D9
:10470800ADDB01458297B5B7B68536CEEFE0BFED94
:10471800F2462A86368D8DBF0947639DE700938749
:10472800C1889C43E38107C6DC43E38E07C4228526
:10473800829791B92D476399E7009387C1889C4375
:10474800E38307C49C47D5B70D476397E7002286E4
:104758008D450355440039B11947E393E7D89305CC
:10476800610213051031EFC080442C10130520316D
:10477800EFC0E043035664008357810203554400A9
:1047880063E8C700835684000357610263F7E600B5
:1047980093050002EF600017FDB66374E60023136B
:1047A800E40063F4D7002314F4000357C4008356CD
:1047B800A400035684008355640001488147EF60D4
:1047C8002014D1B693F7150081CF9387C1889C43F5
:1047D80089C7DC4399C30145829713451900B9B6C7
:1047E80093F7250081CF938741899C4389C7DC4390
:1047F80099C305458297134529000DBE93F74500D7
:104808000145E38507B2938781889C4391CF85470B
:10481800172700202300F7CA938741899C4389C73B
:10482800DC4399C30545829797270020938747C89B
:10483800C8472C10EF5040142810EFF0EFBC972712
:10484800002083D787C591CB130600643386C7023F
:10485800914503C50190EFD0BFBF13454900F9B496
:10486800411122C42A84554506C6EFF06FE0B335DE
:10487800A00022852244B24041016F606005797131
:1048880022D406D68D472E84631FF50003D7A500D2
:1048980083D6850003D665000345340083D54500DB
:1048A800EFF0CFA209A889671387D7006310E50442
:1048B80003C5250019E58547B25022543E85456158
:1048C8008280938741889443FDD603C6360083C50A
:1048D8000600814802C202C001488147014791068B
:1048E800EFF00FA70545EFF09F81F1B71387E700B9
:1048F800E303E5FC13873701631AE50003C52500C8
:104908005DD9014781460146814559BFE507E30462
:10491800F5FA41677D178147E310E5FA03C75500AB
:10492800C947E31AF7F883D6E50003D6C50003554F
:10493800840083D5A500EF50707E41C95D45EFF036
:104948002FD33335A000231CA10083454400035511
:1049580024003008EF20901883578101A9FF6C08C4
:1049680013051031EFC0A0249305E1011305203190
:10497800EFC0E0238357C101035784006374F70035
:104988002314F4008357E1010357A40063F4E700FC
:104998002315F400835784000357A4006374F700B9
:1049A8002315F40003552400EF6000450357E40085
:1049B8008356C4000356A40083558400035524007D
:1049C80001488147EF50D071FDB58547231CF100A0
:1049D800ADBFC1671387E7FF639DE50093874188F3
:1049E8009C4395C383C707000D47639CA7006F507E
:1049F800706EFD1749476396F500938741889C437D
:104A0800FDF73A8582804947EDBF2388018A23ACA8
:104A1800018A23AA018A97270020938767AB170783
:104A280000001307874798C3170700001307A74A12
:104A3800D8C3170700001307E75A98C79387818AD6
:104A480017070000130727F998C317070000130773
:104A580047E3D8C38280797122D406D626D24AD0B9
:104A68004ECE52CC56CA5AC80347050085472A84F9
:104A7800630AF70403468500930695009305F10041
:104A88000545EFE0DF9A814719C183470500834652
:104A9800040011476380E6041387418B18438D4651
:104AA800034717006308D70295C70DC719ED0145DD
:104AB800B250225492540259F249624AD24A424BA5
:104AC8004561828081470145D9B785466318D70279
:104AD8008D8BF1DF03451400130A2400D285EFE023
:104AE8009FB0A300A4001389818B83270900AA8A99
:104AF80081499304F00F99EB05455DBF8946E3189A
:104B0800D7FA858BF9B7850993F9F90F83C7018B14
:104B180063FBF90203250900139B49005A95834753
:104B28000500E38297FE83471500E39E57FD19466B
:104B3800D2850905EFD08FF979D583240900034779
:104B48000400DA9485EC834604009147E381F6F685
:104B580083270900A9DF03C6018B01479305F00FDE
:104B6800E307E6F4BE84C10703C507FF630CB50A73
:104B780005071377F70FEDB788C4E5A09147631AC7
:104B8800F706C84405C58347840003460500630447
:104B9800F606034704009147631BF706C84419C586
:104BA80097000020E780A0C023A6040003458400E6
:104BB80091659385E571050597000020E78080B52C
:104BC80005C5034704009147631CF704C8C483471D
:104BD8008400930594000505A30FF5FE03468400A1
:104BE80097F0FF1FE780E02E034584003335A000CF
:104BF800C1B5884441BF930594000505EFD00FED7A
:104C08008547E318F5F85545EFF08FA6BDA8884409
:104C180051DD97000020E78080B923A4040079B70C
:104C280088C475B72380D40083471400D2851385C0
:104C38002400A380F400194697F0FF1FE78060293D
:104C48000345840091659385F5710505970000205B
:104C5800E78040AC05C5034704009147E31EF7F021
:104C6800C8C483478400930594000505A30FF5FE87
:104C78000346840097F0FF1FE780A0258347840040
:104C8800E39C07E6034504007D15133515000DB5B3
:104C9800011122CC1384818B1C4006CE26CA4AC837
:104CA8004EC652C499CF2E8AAA840149084063127D
:104CB8009902630C0A0497000020E78040AF23ACF8
:104CC800018AF2406244D2444249B249224A05610B
:104CD800828093194900B3073501884709C99700AD
:104CE8000020E780C0AC1C40CE9723A407001C40DE
:104CF800CE97C84709C997000020E78040AB1C4001
:104D0800BE9923A60900050955B745DD1396440049
:104D18008145EFD08FD5144081477D5613F7F70FA3
:104D2800E37197FA1397470036972300C700850762
:104D3800F5B7011152C4138A418B83270A0006CEA6
:104D480022CC26CA4AC84EC656C25AC0C9CF2A89DA
:104D5800014419ED9387818B944399CA03C6018B4B
:104D68002A8481479305F00F13F7F70F6367C70885
:104D7800131534002105EFD0AF98AA8401E9214525
:104D8800EFD00F98AA8421C501444D49930700FD2F
:104D98002380F4008547A38024012381F400A381A4
:104DA80084005DC41389840023A224018149938A65
:104DB800818B130BF00F83C7018B63F3F90031E884
:104DC80083270A00A68503C50700EFD0CF9D81453C
:104DD80003C5018B753D03250A0097000020E78075
:104DE800009D23AA018AF2406244D2444249B24952
:104DF800224A924A024B05618280139747003697F0
:104E0800034707006305B70005041374F40F85070B
:104E1800A1BF83A70A0093954900BE9583C70500E3
:104E2800638467032300F90083C71500130529006D
:104E38007D14A300F900194689051374F40F97F03F
:104E4800FF1FE78000092109850993F9F90FA5B724
:104E580023A20400B5B7411122C406C62A8405E17D
:104E68000945EFF0EF802A8611C5854503C50190F5
:104E7800EFD00FDE0545EFF0BF9E2A8401C98545B6
:104E880003C50190EFD04FF322856535B240224427
:104E980005454101828089671387B700631AE500D9
:104EA8009387418B9C439DC39C4503C5070065B709
:104EB8001387C7008147631CE5009C4503C50700AD
:104EC800854711C59387418B9C43F5F381473E8500
:104ED8008280797106D622D426D24AD04ECE52CCC0
:104EE80056CA5AC85EC679C983473500AA8985C794
:104EF800404115C05945EFE0BFF7931A850193DA91
:104F08008A410149138A418B130B000DB54B83C7A6
:104F18003900636DF900B250225492540259F24993
:104F2800624AD24A424BB24B45618280830784026F
:104F380063CD570783270A00ADCB2285EFF0BFB1B9
:104F48002DC5034584005105EFC09FFBAA8431CDD0
:104F58002310650123017501834704001946930551
:104F68002400A301F5008307840215052303F50037
:104F780083471400A30FF5FE97F0FF1FE78060F545
:104F8800034684002386C4001DC61385440188C8CF
:104F98009305940097F0FF1FE780A0F383270A008A
:104FA800A68503C50700EFD00F80050913049402F6
:104FB8001379F90FA9BF23A80400CDB79387418BB4
:104FC8009C43B1DBBD332254B25092540259F2498A
:104FD800624AD24A424BB24B014545616FF05F8845
:104FE800797106D622D426D24AD04ECE52CC56CA91
:104FF8005AC85EC671C183473500AA8985C744412E
:1050080095C05945EFE0DFE6931A850193DA8A41A6
:105018000149138A418B130B00FDC14B83C739002B
:10502800636DF900B250225492540259F249624A0F
:10503800D24A424BB24B456182808387F40063C8F1
:10504800570783270A00A5C75145EFC07FEB2A847D
:1050580039CD23006501A30005002301750183C72D
:105068000400194693852400A301F5008387F40002
:105078001505A306F50083C71400A30FF5FE97F0E6
:10508800FF1FE78000E583C784009385940013051C
:10509800C400A305F400194697F0FF1FE78060E3FA
:1050A80083270A00A28503C50700EFC0DFEF0509C3
:1050B800C1041379F90F9DB79387418B9C43BDD3E6
:1050C800EFF03FC72254B25092540259F249624A53
:1050D800D24A424BB24B014545616FF06FF8938756
:1050E800418B9C43C1E703C73190298BC94741C312
:1050F8007971916522D49385D5712A84114506D694
:1051080026D297F0FF1FE780E06023AAA18ACD4747
:1051180021C91146A28597F0FF1FE78080DB15455E
:10512800EFE01FD5AA841945EFE09FD42AC693055E
:10513800F1011305F041EFA090310347F1019717F2
:10514800002083C70737B336F000324611C38906FB
:105158000347340003452400A685EF502077AA872B
:10516800B250225492543E8545618280C5473E859F
:10517800828083C73190A18B1385818A91E3014591
:105188006FE0EF9F411122C485452A8403C5018B36
:1051980006C6EFF0FFAF83C73190A98BA5CB1715D3
:1051A80000201305E5322388818AEFE0EF9C138401
:1051B800818B1C4091C74D45B240224441018280F9
:1051C80003C5018B19E10145C5BF91659385B5718B
:1051D800120597F0FF1FE780E05323ACA18A61DD39
:1051E80003C6018B12068145EFD02F88104083C675
:1051F800018B8147FD5513F7F70FE376D7FC13971B
:10520800470032972300B7008507F5B70145238883
:10521800018AEFE06F9645BF93878188884301CD67
:10522800411106C697F0FF1FE7806058B24023A4DB
:105238000188410182808280011122CC06CE8D47EF
:105248002E846316F50603C73500E94703D54500E4
:105258006318F7009717002083D7E7256385A7060B
:10526800EF20401509C5835764002317F50003573D
:10527800A400835684000356640083554400034504
:105288003400EFE0BF84035744009717002083D70A
:1052980087226308F7008547F24062443E8505612E
:1052A8008280FD57171700202317F720EDB789676D
:1052B800CD07631DF50083C7250031476385E700E7
:1052C8004547E39AE7FCEFE00F92F1B741677D1796
:1052D8008147E313E5FC83C655004947E39EE6FA98
:1052E80083C5450003552400300023140100EF1046
:1052F800D07955B7797122D4138481881C4006D699
:1053080026D24AD00545A5C30D45EFE07FB6AA844D
:105318001145EFE0FFB52A899305F1011305F04126
:10532800EFA0F0120347F1019717002083C7671811
:10533800B336F00011C389061C4036C603C53700D2
:1053480093854700EFE0AFA51040B2462A8783480F
:10535800B6000348A6009307460003462600CA8500
:105368002685EF50A055B2502254925402594561F7
:105378008280FD572384F180239E018A23A2018C19
:1053880023A4018C23A6018C971700209387071567
:10539800170700001307A70798C31707000013078C
:1053A800A725D8C317070000130707F598C797075D
:1053B80000009387A7E823A0F18C8280411126C2C0
:1053C800938481889C4006C622C49DCB2A840D45BF
:1053D800EFC01FB3AA8519CD930700FD2300F50080
:1053E8008D47A30085002301F5009C4003C50700F5
:1053F800EFC07FBB11C42244B2409244410129BD91
:10540800B2402244924441018280797126D2835469
:105418004500896706D622D44AD04ECE52CC13878F
:105428006700639DE402938781889C43014481CF90
:105438001845034507000DE10547A380E70005452A
:10544800EF50804805442285B250225492540259A4
:10545800F249624A456182809537EDB71387970014
:105468006365970403C781809307F00FE30CF7FC8B
:105478001C45114503C40700EFC09FA8AA8579D130
:10548800930700FD2300F50089472301F500F9770C
:10549800E117BE9493B41400A3008500A3019500FE
:1054A80003C58180EFC03FB071BFA9070144E39CE9
:1054B800F4F813898188832709004A8AC9D71845CF
:1054C80003C41700854783490700630DF402971743
:1054D800002083C727FEBDF70D45EFC07FA2AA8530
:1054E80005C1930700FD2300F5009147A30035018E
:1054F8002301F5008327090003C50700EFC0BFAAF1
:10550800213B89B79387418C9C4391EF0145EFE09C
:105518003F962A8611C6894503C50190EFC05FF3FF
:1055280083270A00A9A003C60700938617009305DE
:10553800F1000545EFD0BFEF71D983470500858B92
:10554800F1D70545EFE0DF929307B003AA8463FD26
:10555800A7025D6613060670894503C5019093840A
:1055680044FCEFD08F82239E918A83270900094744
:10557800A380E7009717002083C7C7F399CB971735
:105588000020238907F2C1B5130600643306C5025B
:1055980051B74E85253545BD411126C29384818872
:1055A8009C4006C622C4A1C383C707000D44639D5F
:1055B800A702894503C50190EFD00F80914503C527
:1055C8000190239E018AEFC03FFF97170020A38315
:1055D80007EE9C400145A38087002244B2409244D4
:1055E80041016F50602E49442285B24022449244C2
:1055F80041018280411106C685476311F50683D7AC
:10560800C18BA1C7171700200347C7EA1DEF13076F
:10561800B0036367F702894503C50190EFC0DFF95E
:105628009307006403D6C18B3306F602894503C588
:105638000190EFC0FFE1239E018AB24041018280C0
:10564800938747FC239EF18ACDBF938781889C432B
:10565800EDD7B24003C5070041013DBF938781885C
:105668009C43E1DF83C73190918BE1DB894503C51A
:105678000190EFC07FF4B240239E018A41016FF090
:10568800BFB983C73190958BCDC79387418C99E17A
:105698009387C18C9C43D1CFFD4763EEC70811C2E5
:1056A800D9CA411122C426C206C64AC02384A18091
:1056B800B6843284A1C11389418C032509007D4633
:1056C80081450505EFC07FBA03250900A685228616
:1056D800050597E0FF1FE780C07F83250900228525
:1056E800238085002244B240924402498505410145
:1056F8006F50001D1389C18C032509007D46814523
:105708000505EFC09FB603250900A6852286050575
:1057180097E0FF1FE780E07B83250900228523802F
:1057280085002244B24092440249850541016F50E8
:105738006019494582800945828083C73190918BE1
:1057480099CF41111385018C06C6EFD01FC4B24012
:10575800FD57171700202310F7D641018280014515
:105768006FD0BFC29387418C8843411122C406C6BB
:1057780026C23E8419C597F0FF1FE780400323A285
:10578800018C9387C18C884319C597F0FF1FE78068
:10579800000223A6018C9384019083C73400958B63
:1057A800A5CF17150020130565D3EFD0BFBD83C75C
:1057B8003400958B99E74D45B2402244924441010B
:1057C80082809164938564711305000297F0FF1F2E
:1057D800E78040F423A2A18C79DD130600028145FD
:1057E800EFC0BFA8938554711305000297F0FF1FFF
:1057F800E78040F223A6A18C01C913060002814567
:10580800EFC0BFA601454DBF084097F0FF1FE780D6
:1058180000FA23A2018C45B70145EFD0BFB6DDB72A
:10582800E9CA011152C42E8A854522CC4EC656C2F9
:1058380006CE26CA4AC8AA8AB6893284EF101058FA
:10584800D14715C183C7818D83C6918D814419E0E5
:10585800B684BE861387018D184393974400BA9780
:1058680063EDD400D547F2406244D2444249B2497C
:10587800224A924A3E85056182803E89C10703D744
:1058880027FF09C7850493F4F40FD9BF29CC956580
:10589800938525C01305000297F0FF1FE78080E776
:1058A8002326A90061D113060002814593840404CC
:1058B800EFC0BF9B2311990023000900231359014E
:1058C80015C41387018E8347940010432304F900FD
:1058D800118C8327C90011841180238E870023A08F
:1058E8002901814749B723260900F9B7230449014B
:1058F800FDB785473E8582809387018D984383C590
:10590800818D81476395F5008146368582800356EF
:105918002700BA8619C2E30AA6FE850793F7F70F90
:105928004107CDB79387018D984303C6818D814781
:105938006315F60081463685828083552700BA862E
:1059480089C583454700E388A5FE850793F7F70FC8
:105958004107F9BF9387018E984383C5B18D81476D
:105968006395F50081463685828003560700BA861E
:1059780019C2E30AA6FE850793F7F70F4107CDB7CB
:105988009387018D9C4303C8918D01476315E800F7
:1059980081463685828003D62700BE8619CA03D67B
:1059A80067006318A600D04709C603562600E3021D
:1059B800B6FE05071377F70FC107C9BF411122C407
:1059C800404526C206C6AA8415C0484409C597F0B2
:1059D800FF1FE780C0DD484809C597F0FF1FE78033
:1059E80000DD228597F0FF1FE78060DC26854146B1
:1059F8008145EFC09F87B2402244FD57A384F4003D
:105A0800924441018280011122CC2A840355250049
:105A180006CE2EC6EF109008324622858145EF004B
:105A2800F06522856244F240056149BF05C5035708
:105A38002500411122C406C62A8409CBDD45EF00A2
:105A4800D06722852244B24041018DBFB240224432
:105A5800410182808280411126C231479304C5FFEB
:105A68003387E40297170020938707A806C622C445
:105A78003E978356A7006397B602484305C53E8400
:105A88009307F00F6306F60083470500639CC70081
:105A980097F0FF1FE780A0D1B147B387F402A29720
:105AA80023A20700B240224492444101828041115E
:105AB80022C42E8426C24946AA848145228506C668
:105AC800EFC0AFFAB9CC83C7C401139747009387D7
