:040000006F10004B32
:1000040000000000000000006F0080086F00E02284
:1000140000000000000000000000000000000000DC
:1000240000000000000000000000000000000000CC
:100034006F004006000000006F00E00500000000B3
:100044006F0080056F0060056F0040056F0020059C
:100054006F0000056F00E0046F00C00400000000A2
:100064006F0060046F0040046F0020046F00000400
:100074006F00E0236F00C003000000006F00600306
:100084006F0040036F0020036F0000036F00E00265
:1000940001A001A001A001A001A001A001A001A054
:1000A40001A001A001A001A001A001A001A001A044
:1000B40001A001A001A001A001A001A0B717004068
:1000C400130770052380E704130780FA2380E704ED
:1000D4002396A70223800704371700408347270588
:1000E400898BEDDF835707053717004083472705C2
:1000F400898BEDFF3717004083472705898BEDDF98
:10010400035507058280B7170040930670052380C6
:10011400D704130780FA2380E70403C6B7041376D1
:10012400F60DA385C70423800704137605022DC6A4
:1001340003C6A700118A0DE22380D7042380E704B5
:1001440003C7A700136747002385E7009307004B05
:1001540001000100FD17EDFFB7170040930670057D
:100164002380D704130780FA2380E7047D8923942E
:10017400A70001000100010001002380070423807F
:10018400D7042380E7049306100537270040A30310
:10019400D780238007048280137605046DDE03C6AE
:1001A400A700418A0DE22380D7042380E70403C714
:1001B400A700136707012385E7009307007D01006B
:1001C4000100FD17EDFFB71700409306700523806B
:1001D400D704130780FA7D892380E7041365050497
:1001E4002394A700010001000100010023800704FB
:1001F4002380D7042380E704930630053727004083
:1002040079B74111814601468145114506C6B52A93
:10021400B7170040130770052380E704130780FA1B
:100224002380E70403C76704136717002383E704E5
:1002340023800704B2404101828081460146814502
:100244001145A122B7170040930670052380D704F7
:10025400130780FA2380E7047D562396C702238080
:10026400D7042380E70403C76704136717002383B5
:10027400E7042380070401A0BD473305F50201000C
:100284007D1575FD8280411122C426C206C6AA844A
:10029400014463179400B240224492444101828095
:1002A40005041305803E4204C13F4180DDB7B71702
:1002B4000040130700032388E702854723A2F18A3D
:1002C40073002030411106C6EF008076F5BF23038A
:1002D400048015472303E48001002302A480828064
:1002E40083076480E3CE07FE2303048082808307B0
:1002F4006480E3CE07FE03454480828083076480E4
:10030400E3CE07FE2302A4808280411126C44AC2A0
:100314004EC006C61377F50BAD47AA892E899544BE
:100324006306F70019456537653F8D444E854537AB
:10033400FD59FD1463983401B240A2441249824924
:1003440041018280135509011375F50F453F2209B8
:10035400CDB7011126CC06CEB70408005137154598
:10036400BD37713769372AC6A53F324593771500E3
:1003740089EB136515001375F50FF240E24405612E
:100384008280FD14E9FC0145CDBF397126DC4ADACF
:100394004ED852D656D45AD25ED006DE62CE66CC41
:1003A400B7E700E07D5783AA070022C603AA4700E7
:1003B40023A0E71823A2E718B71700401307700516
:1003C4002380E704130780FA2380E70483C74704E4
:1003D400930B75FFB684E20793FBFB0F8546AA894E
:1003E4002E8B328937240040E187015763FA760166
:1003F4006308D5008946130700026313D50001572B
:10040400D98F93F7F70FB71C00402382FC041147E0
:100414002303E4801305F00F5D3D094CD135636976
:100424007C11B70707003E9B378707007955637E29
:10043400EB02B3079B00636AF702A9476399F906C5
:1004440089E48144713D26850DA0DA850945753D11
:1004540005090345F9FFFD14050B4D3581C4937758
:10046400FB0FFDF7FD3569FD7D55B71700401307F8
:1004740070052380E704130780FA2380E70403C789
:100484004704418B2382E704F250B7E700E023A03E
:10049400571123A24711E25432445259C259325AD5
:1004A400A25A125B825B724CE24C21618280A547A6
:1004B4006395F90685691309F00FB3069900B374BF
:1004C4002B01B6941349F9FFB3749900856B337902
:1004D4006901416B9387F9FFB3F7270199E363FC43
:1004E400340193D94900C147E3E637FF99BF056951
:1004F400C1697D19D9B71305800D63886901130596
:1005040000026384790113051008CA85FD3B913507
:1005140021DD4E99B3843441D9B7DA852D45F533BD
:10052400CA94E30099F20509D933A30FA9FED5BFF4
:100534009387F9FF93F7F70F636CFC0803C75C0418
:10054400B70708001377070219E3B787070079553F
:10055400E37DFBF033079B00E3E9E7F08947639011
:10056400F9048980D549E38E04ECDA850945713BA9
:1005740011090327C9FF91472320E48003076480FE
:10058400E34E07FE23033481FD17EDFBFD14110B2D
:1005940081C49377FB0FE9FF6D3B71F5F1B5854796
:1005A400E387F9F4DA852D458D339389F4FFE38AE3
:1005B40004E8353B93F7390091EB83260480032745
:1005C400090093074900E39FE6E63E89CE84F1BF24
:1005D400B5476396F9001305900BD5399DB5B1471E
:1005E4001305B00AE38BF9FE9947639EF902DA8595
:1005F4002D45213B81448D4BA149D5396396740126
:10060400832704802320F9008504E39834FF83279B
:10061400048013172B01635507002312F90015B545
:100624002322F90039BD9D476399F90281451305D9
:10063400B004E139BD442320090023220900FD59F7
:100644007D3193F77400CA9703C70700FD14398DF1
:100654002380A700E39634FFEDB3A1476392F90426
:10066400CD398144630D0B008D479304C0036308A7
:10067400FB009304000563048B0193044004137589
:10068400C507E30095DC1945993199390545813150
:100694002685AD3109459D316D39E31405DAE9B399
:1006A40091476399F900130560061531153913054F
:1006B400900925B7E38709D8F15469B37D1662061A
:1006C400618693178601E18763D407000145828020
:1006D400931726003307F500AE9718439C4363E74E
:1006E400E7007D16E37FF7FC7D5582800545828017
:1006F400FD15E205E18513978501618793F7F50FF1
:1007040063480700FD15139725002A97584365D7BA
:10071400138517006205618582803308B5021C4287
:1007240083A80600B335B502C29733B50701AE9866
:10073400469585486367B5006394A50063E30701A4
:1007440081480C43C6950CC388C21CC28280814771
:100754001397870161876343B7008280139727004B
:100764002A97232007008507E5B781470147939619
:100774008701E18663C5B60013351700828093961E
:100784002700AA9694428507558FD5B793D755402D
:100794008A07AA979C4305453315B5007D8D828051
:1007A40017D3FFDFE702235E2A84993705C5931721
:1007B40025003E940327C4FF814711EB7D151605E0
:1007C4003E954205418517D3FFDF6700035E05832D
:1007D4008507E5B70145C5BF814713978701618741
:1007E4006343C700828013972700B386E5009442D1
:1007F4002A97850714C3D5B77D166206618601471B
:1008040093178601E18763D50700133517008280AB
:1008140093172600B306F500AE9794429C437D16C9
:10082400B58F5D8FF1BF8A05AA9501476363B50053
:10083400828083A6C5FFF11593D71600D98F9CC17A
:100844001397F601E5B72A8301480147014563433D
:10085400D7008280B387050183A80700B307060188
:100864009C43C697AA976384F80033B5170105071C
:10087400B3080301620723A0F80061871108C1BF10
:100884002A8301478147014563C3D70082803388A7
:10089400E50083280800330EE600032E0E0033889B
:1008A400A8403308C8416384080133B508018507AB
:1008B400B308E300E20723A00801E1871107E9B7C1
:1008C40017D3FFDFE702234C0111B286B2842E86D0
:1008D400AA850A8575372A84A6850A85793533342D
:1008E4008000060413351500018D056117D3FFDF61
:1008F4006700A34B17D3FFDFE70263464111AA89C0
:10090400AE8A328BB68402C202C402C60144131CEE
:100914008401135C8C4163499C02939B1400FD1B6E
:100924000549138CF4FFF15C33048901620461848A
:10093400634D740592478E04CE9423AEF4FE4101B8
:1009440017D3FFDF6700234513192400B30B2B01D2
:10095400014A93172A00D69783A50B008843780091
:10096400340050005D3B050A93178A01E187F11BAF
:10097400E351FCFE92474E9905042320F900A24757
:100984003EC2B24702C63EC459B7131A8901135A6C
:100994008A41131D240093178A01E18763CF9700CE
:1009A40092470A044E941CC0A24705091379F90F13
:1009B4003EC2B24702C63EC485BFB3079A031315AD
:1009C4002A0056950841780034005000050AEA9739
:1009D400DA978C439933C1B709CDB7170040130791
:1009E40070052380E704130780FA2380E704239625
:1009F400A702828019C1814799E982803387F50073
:100A0400834607003307F50085072300D700E397E3
:100A1400C7FEE5B719C1FD5781E98280910503A797
:100A2400C5FF1105232EE5FE7D16E319F6FEF5B785
:100A3400797122D417340000130484381C4006D67C
:100A440026D24AD04ECE91C782979737000023A969
:100A540007365C4089CB03D5018EBD3F5C4082974D
:100A640003D5218E953F1C406399071897370000E2
:100A740083C71747858B95C797370000A38207461E
:100A8400173700000347F745914763FCE700792BCC
:100A94009737000083C7F744F9178A07A2979C4346
:100AA40082979737000083C76748918B89C797401F
:100AB40002E0E780E0BD1C4491C382979387C18D17
:100AC4009843173600000346762D3E89973400007C
:100AD4009384C42C9737000083C7472C9396170040
:100AE400BA9683D60600638006109737000083C742
:100AF400E72A63F2C70886073E9783550700231049
:100B0400070003D5018E2EC62394018EF1359387F9
:100B1400418F9C43173500000345452813172500D2
:100B2400BA979C43B2458297AA8903D5218E6D3525
:100B34009737000083C78726139717008327090078
:100B440003D5818E1345F5FFBA9703D70700337594
:100B54003501598D2390A70083C70400850793F7B7
:100B6400F70F17370000230BF7221737000003474E
:100B7400F72263E6E70097370000238107221C4031
:100B8400ADEF9387C18E98433E8425CB9737000001
:100B940083C7773591CB9737000083C7973489E7AC
:100BA400973002E0E78080531C4082972A8431C545
:100BB4009C48AA9717370000232AF71E9387018FB2
:100BC4009C4385CF03D5018E013D2285972001E00A
:100BD400E78000EF2254B25092540259F24903D5EF
:100BE400218E4561D5BB850793F7F70F9736000033
:100BF4002386F61AE3E0C7EECDBDB25022549254D8
:100C04000259F249456182809167B7C600409387D3
:100C1400373023A6F6200F10000097370000938783
:100C2400E717884F9387419E9C43316713073730FA
:100C3400F053B7071000FD17918F99833A0523A647
:100C4400E6205D8D82804111B7170040985F3AC657
:100C5400945F3247E39CE6FE3245410182804111B4
:100C640006C6D5379736000083C6C610858AB1C636
:100C7400930730333307F502B337F5023983CA07D4
:100C8400D98F1737000013076711584B01456303C9
:100C9400F7023385E740636BF70037653D0889C683
:100CA40037856F0813050590198D3E951737000099
:100CB4002320F710B24041018280E5473307F50253
:100CC400B337F5022583DE0765BF0327C50F8346C7
:100CD400B50097370000938767209C4F584393864D
:100CE400160295829043FD1693F6F60F10C3D04377
:100CF40050C3904710C7D04750C7904B10CBD04B30
:100D040050CB904F10CFD04F50CF91C6130707024E
:100D140093870702C1BF82808347E50193F7E70FFA
:100D2400F1EF2A870345F50171E90346070183467C
:100D3400870009CA8345A7029737000083C7970332
:100D440063E7F50093F70601C5CF814709CA8347D6
:100D5400871503467715C18AA207D18F81CA8346B6
:100D6400B7150347C7152207558FBA97D1CB173745
:100D74000000130727223847411122C406C67D54B8
:100D84008326070863F386003684184375FB1737F8
:100D94000000034727FE93168701E18663D9060204
:100DA4009387C713958317370000034747FDBA9706
:100DB40063D006041D8C9387818F9C4382973335BF
:100DC400A400B24022441345150041018280058BE2
:100DD4009387C71209CB8A079387F7031305D007B4
:100DE400B3D7A702C9B78607FD071305D003CDBF44
:100DF400E372F4FC3705C0A82A946DBF01458280D4
:100E04008280411122C41384419D18404AC006C601
:100E14001C5F26C21389019D9983858BC1C31C5F06
:100E2400973400009384840B93F7F7F91CDF97370A
:100E3400000083C7A70A93F707048DC39387818FA4
:100E44009C4382979737000023A2A70A83C7040014
:100E540093F7F70B173700002302F7088547173776
:100E64000000A30FF70683C7440093F7070481EF3C
:100E74009387419E9C43D844B8D3930700FC17370B
:100E84000000230FF7048387640063D907008327D6
:100E940009009C43173700002305F70418401C5F22
:100EA4008583858BC9CBF5571CDF01000100010048
:100EB4000100010001000100010001000100010026
:100EC4000100010001000100010001000100010016
:100ED4000100010001000100010001000100010006
:100EE40001000100010001000100010001000100F6
:100EF40001000100010001000100010001000100E6
:100F040001000100010001000100010001000100D5
:100F140001000100010001000100010001000100C5
:100F2400010001000100010001009387419E9C43E0
:100F340013075004B8CB18401C5F9183858B89CF6D
:100F4400BD571CDF9387419E9C4323A80704854714
:100F5400173700002306F7F883270900D8430583D1
:100F6400058B19C7D843759BD8C3D843799BD8C37D
:100F7400B24022449244024941018280397106DE22
:100F840016DC1ADA1ED82AD62ED432D236D03ACE6D
:100F94003ECC42CA46C872C676C47AC27EC0953573
:100FA400F250E2525253C2533255A255125682564F
:100FB4007247E2475248C248324EA24E124F824F05
:100FC4002161730020309387419E944317370000BA
:100FD4001307C7F0BC5289CF83472700858B89EB61
:100FE40083473700858BFDD797370000238A07EEA8
:100FF400828037C700401306C00393062003973549
:1010040000009385A5ED83278720C18393F7F70319
:101014006369F60083278720C18393F7F70363E6A8
:10102400F60083C74500858BF9DF82809387419E54
:10103400944317370000130767EABC5289CB8347F0
:101044000700858B91CB97370000238B07E89737F0
:101054000000A38707E8828083471700858BF1DFB0
:10106400DDB79387419E904337C70040C145E546AD
:1010740083278720C18393F7F70363FBF500832756
:101084008720C18393F7F70363E4F6003C52EDF342
:1010940082801387419D1843AA87185F1583058BA7
:1010A40025EF0345150015051377C51F19C6B3862B
:1010B400E70083C626002300D60095C597360000B6
:1010C40083C626E293F606040945A1CAB386E7005F
:1010D40083C63600054693F5F6066390C504E2061A
:1010E400E18663CC06023385E70083471500034796
:1010F4000500A20793F70770D98F1397070141835F
:101104009376074099C613670780239EE19C0145A7
:101114008280239EF19CE5BF054582809386419E93
:101124008C42368597360000938646DB98459317A4
:101134000701C183137817203E86630408041377DC
:10114400072079C303C72600136717001738000068
:101154002307E8D813070019B8D1130700F8973507
:101164000000238FE5D61387419D0C4337080010F8
:10117400D855719B13672700D8D598413367070169
:1011840098C11377261005C31376061059CE03C7EA
:10119400060013671700173600002301E6D417373B
:1011A4000000231107D483C6460093C7F7FFC20784
:1011B400E206E186C183184163D1060293961701C2
:1011C40063DE060630538D4663E9C600854617364E
:1011D40000002307D6D03453FDFE973600009386D3
:1011E40026B88386460163DD060093960701C1860F
:1011F40063DC06047053894663E4C6007453FDFE41
:101204001447F58F1CC7828003C7160013671700A5
:1012140097350000A384E5CC17370000230207CCE0
:1012240017370000231007CCA9BF03C73600136784
:10123400170017360000A304E6CA95B7854617368B
:101244000000230FD6C851BF5447139606016351BB
:101254000602B7061000FD1674D397360000938675
:10126400E6B3944E8506173600002325D6B449BF4D
:10127400A166D58F71B7397106DE16DC1ADA1ED86D
:101284002AD62ED432D236D03ACE3ECC42CA46C822
:1012940072C676C47AC27EC05135F250E2525253BD
:1012A400C2533255A255125682567247E2475248EB
:1012B400C248324EA24E124F824F21617300203039
:1012C40017370000130747C38346B7019737000059
:1012D40083C7D7C5B69793F7F70FFD4663EAF604BD
:1012E4004C4B97360000A389F6C09737000083C79C
:1012F400B7C005473317F70097360000A388F6C236
:101304006D8F1DEF9736000083C696C2B3F6D702E1
:1013140013050002814733D6F500058A13F8F70F49
:1013240009CE6399E60097370000A38707BD828042
:1013340081177DB705071377F70F8507E39DA7FC92
:1013440082809387019F9843B75702009387279F12
:101354008326070913965600635806008326070957
:101364001396660063440600FD17FDF3828051C99D
:10137400AA870145C9C98D07C207C183F19BC2076A
:10138400C18313074003636BF702138741A8084323
:101394001387C1A714436396A602173700001307E7
:1013A400279C185B014525C34111C20706C60545A4
:1013B400DD8D0297B240014541018280138701A867
:1013C400F9B70357650005EF035745006369F70252
:1013D400B306F74021466370D60210419386870016
:1013E4001D8FAA96611790C22392E60023930600EC
:1013F40014C12312F5002313B5002105828008418E
:1014040059BF01458280828001CD938741A803A8FA
:1014140007009387C1A78C430147C28763E3B700E2
:1014240082809443636FF50663EDA60613868700F6
:10143400E368C5FE03D56700216605066317C5008A
:1014440003C641990506238AC19823930700638440
:101454000703138601A81042630FF60003566700C2
:1014640019EA83D7470014C383564700B697A107E8
:101474002312F700BA879843E304B7FA938601A8C6
:101484009442E30FD7F883566700D9FA83D647000E
:10149400035647001843A106B2962392D70098C377
:0814A40082803E87B6879DBFE0
:1014B000974100209381016917710020130181B4C5
:1014C00013054000972500209385C533173600206B
:1014D0001306C67D63FAC5008322050023A05500CC
:1014E00011059105E3EAC5FE17250300130545B56F
:1014F000973500209385857B1386C18763FAC500E5
:101500008322050023A0550011059105E3EAC5FEDD
:1015100013850188976500209385C5326377B500F0
:10152000232005001105E36DB5FE9302800873A02A
:101530000230972200209382E22C93E212007390F3
:10154000523097220000938242FF7390123473004E
:101550002030397101436EC619A0397141536AC8F0
:1015600066CA62CC5ECE19A0397101535AD056D2E8
:1015700052D44ED64AD826DA22DC06DE3301614048
:10158000828241114AC026C222C406C68282B24D5E
:101590004101024D924C224CB24B4101024B924A06
:1015A000224AB2494101024992442244B2404101D7
:1015B00082803D432A876373C3029377F700BDEFB0
:1015C000ADE5937606FF3D8ABA960CC34CC30CC7B3
:1015D0004CC74107E36BD7FE11E28280B306C340DC
:1015E0008A069702000096966780A6002307B70038
:1015F000A306B7002306B700A305B7002305B7006D
:10160000A304B7002304B700A303B7002303B70064
:10161000A302B7002302B700A301B7002301B7005C
:10162000A300B7002300B700828093F5F50F9396CF
:101630008500D58D93960501D58D61B793962700CA
:101640009702000096968682E78086FA9680C117F8
:101650001D8F3E96E374C3F8A5B73367B500FD53FD
:101660000D8B79E7B7877F7F9387F7F71041944118
:10167000B372F6003363F600BE92B3E26200639782
:10168000720C6318D6065041D441B372F60033632E
:10169000F600BE92B3E262006398720A631BD6043E
:1016A00010459445B372F6003363F600BE92B3E280
:1016B00062006391720A631ED6025045D445B3722C
:1016C000F6003363F600BE92B3E26200639A7208DA
:1016D0006311D60210499449B372F6003363F600E1
:1016E000BE92B3E26200639372085105D105E30F25
:1016F000D6F61317060193970601631CF7001357DC
:10170000060193D706013305F7409375F50F91E96C
:1017100082804183C1833305F7409375F50F91E1D2
:1017200082801377F70F93F7F70F3305F740828026
:101730000346050083C60500050585056313D6002D
:1017400065FA3305D640828011059105E312D6FE75
:10175000014582802105A105E31CD6FC014582805C
:101760003105B105E316D6FC014582804105C1056E
:10177000E310D6FC01458280B717004003C7770508
:101780001377E70FA38BE704130700F8A38DE70493
:101790003D47238CE70413075003A38CE7048280A2
:1017A000B717004003D587005D715ED642054181C1
:1017B00086C6A2C4A6C2CAC04EDE52DC56DA5AD8C9
:1017C00062D466D26AD06ECE9377050C13070008F8
:1017D000814B6388E71813070004639CE714B72460
:1017E0000D8F7D8993840480B3D4A402916793877D
:1017F00007E8BE94A167938707D0B3D4F402EFE063
:101800008250970703009387E7F79043D443EFE0B4
:101810004204EFE0D2112A8B939C040103D9018882
:1018200093DC0C0163150900056913090980B717DA
:101830000040130770052380E704130780FA238014
:10184000E704371A00400547939D0401096C85663B
:101850002389E704D14A814E8145130D0A041308F8
:101860007005130680FA894893DD0D01130C0C7185
:101870002943FD1623000D012300CD0023162A0362
:1018800023000D0083472A05898BEDDF83570A0566
:1018900083472A05898BEDFF83472A05898BEDDF76
:1018A00083570A0523902189C207C1833385974155
:1018B0009319050193D90941638409163387B90245
:1018C000635E070C850EC20E93DE0E0163E8D80D31
:1018D00063D9050A3305B04093150501C185C204DB
:1018E000C18063D7350B0965130505713385A502E2
:1018F000B7170040130770052380E704130780FA29
:101900002380E70423967703238007043345950259
:1019100042054181B640264496440649F259625A2E
:10192000D25A425BB25B225C925C025DF24D616115
:101930008280B1E3B77489097D8993840480B3C43C
:10194000A4029167938707E8BE94A167938707D0A5
:10195000B3C4F402EFE0223B97070300938707E349
:101960006DB597070300938767E1856403AB0700B4
:101970009384843855B5130B0000954471BD3A89A2
:10198000D5BDB387FC409399070193D9094181BF25
:101990000965130505713385A9028DBF3385B741EC
:1019A00063E4FC003385FD40330585033344B50310
:1019B0006345830013150401A9BF4E8536C642C492
:1019C00032C2EFE0626ADA85EFE0E23AEFE0A2636A
:1019D000931E050193DE0E41B307D941C207C183AF
:1019E000056E3E871246224889482943B24663E382
:1019F000C701368742074183631A2701130719007D
:101A0000634430011307F9FF42074183FD1A93FA3B
:101A1000FA0FCA8BCE85E3940AF62390E18859BF6A
:101A20000145CDBDB717004003D587005D7186C65F
:101A300042054181A2C4A6C2CAC04EDE52DC56DABB
:101A40005AD85ED662D466D26AD06ECE02C693777A
:101A5000050C13070008638BE71413070004639F4A
:101A6000E710B7240D8F7D8993840480B3D4A4023A
:101A70009167938707E8BE94A167938707D0B3D493
:101A8000F402EFE04228970703009387A7CF904323
:101A9000D443EFD0125CEFE082692A89939A040163
:101AA00003DB218893DA0A0163150B00056B130B26
:101AB0000B80B7170040130770052380E704130756
:101AC00080FA2380E704939B040105478969056A2E
:101AD0002389E704D14D014D814C93DB0B019389A0
:101AE00009717D1A5A8597200020E78060DD330C4C
:101AF0005541420C135C0C412391618963010C1622
:101B0000B3079C0363D1070E050D420D135D0D0154
:101B1000894763EAA70D63DB0C0A33059041931CE8
:101B2000050193DC0C41C204C18063D88C0B0965AC
:101B3000130505713385AC02B71700401307700514
:101B40002380E704130780FA2380E70432472396B3
:101B5000E702238007043345950242054181B640E0
:101B6000264496440649F259625AD25A425BB25B05
:101B7000225C925C025DF24D61618280B1E3B774D8
:101B800089097D8993840480B3C4A40291679387F3
:101B900007E8BE94A167938707D0B3C4F402EFE0CF
:101BA000821697070300938767BED5B59707030092
:101BB0009387C7BC856403A9070093848438F9BD63
:101BC000130900009544D9BD3E8B29BF3385AA4037
:101BD000131C0501135C0C41B9B7096513050571A8
:101BE0003305AC028DBF63FEAA0033057541330592
:101BF0003503A9473344750363C8870013150401EF
:101C0000B1BF3385AB40E5B76285EFE0E245CA85F9
:101C1000EFE06216EFE0223F131D0501135D0D4159
:101C20003307AB41420741838565BA876363B700D9
:101C3000D287C207C183639A670193071B0063447D
:101C400080019307FBFFC207C183FD1D93FDFD0FBC
:101C50005AC6E28CE39A0DF62391F18845B7014507
:101C6000FDBD41112A83014E930E407E130F0019D2
:101C7000930F400663EB6E0A9308001913034006A6
:101C8000B3781503854E0D4FA14F337365020D894F
:101C90001335150063E5BE0C1308F6FF79467298FC
:101CA0004208135808013307C70213D61700BE07AE
:101CB00032976146B3F6C60213068070B386C60239
:101CC0003697A166F58F42075D8FB717004083C630
:101CD000F70293F60608A307D1000346F10083C676
:101CE000F70293F60608E394C6FE8346F10093F6E6
:101CF000F60FF1DE930670052380D704930680FA71
:101D00002380D70423AA070383C6170393E6060894
:101D1000A388D702D8DB03C7170313670704A38878
:101D2000E70223800704410182807D133368E303C7
:101D30009308E016630E08003368F3039308D01687
:101D4000630808009378330093B818009388D81676
:101D500033081E01131E0801135E0E0121BF639399
:101D6000E5030548638608000148630303002A88E9
:101D700071087298FD15131E0801C205135E0E014D
:101D8000C18109BF13F8150063F4BF007908D5B706
:101D900013381800E5BF914763EEB7021707030039
:101DA0001307479F8A05BA959C41BA978287B71750
:101DB000004003A7470B1345F5FF698F23AAE70AE5
:101DC00003A7070B698F23A8E70A03A7070A798DE2
:101DD00023A0A70A8280B717004083A6470B1347AA
:101DE000F5FFF98E23AAD70A83A6070B558D23A8E2
:101DF000A70A83A6070A758F23A0E70A8280B71770
:101E0000004003A7470B498F23AAE70A03A7070B44
:101E10001345F5FF45BFB717004083A6470B13478F
:101E2000F5FF758F23AAE70A03A7070A598D4DB757
:101E3000B717004003A7470B498FEDB7B71700400E
:101E400003D58700420541819377050491EB937791
:101E5000F5013755E801130505803345F502828009
:101E60009377050C130700046397E7009377F50158
:101E700037459C1CCDB72165130505D08280B7F787
:101E800000E0C8439C478280814737370040A14625
:101E900063C4C700328582800345B740E38EA6FE47
:101EA0003385F5000345050085072304A740CDB71A
:101EB00097370020938707499C4317670020130733
:101EC00067983E95636EE50017670020130787F358
:101ED0006368A700173700202326A7463E85828027
:101EE000FD57EDBF411122C406C62A84813F294710
:101EF000B307E502B2408D83B3D78702224495072A
:101F0000B3D7E70237370040C207C1832316F74033
:101F100041018280716541111305052006C6D9373C
:101F2000B7370040130770F82381E7400D47A381BE
:101F3000E74013070004A380E74005472387E740F5
:101F4000B240410182802D4549E703C7050089471A
:101F5000631DF706D841411106C6834717000347A2
:101F600007003285A207D98F4167130627FE6384D5
:101F7000C7046369F60005176382E7022390060031
:101F800029453DA0130647FE638CC7021517E3974A
:101F9000E7FE95472390F600154629A0D5472390E4
:101FA000F6005546CC4597200020E780E024014507
:101FB000B2404101828085472390F6000546DDB797
:101FC000CD472390F6004D46F1BF2390060005450E
:101FD0008280828083C7850093F70702E1E3411185
:101FE00006C622C426C24AC003C9050009432E887A
:101FF0008547631B690203A345003284B684834787
:10200000130003430300A207B3E767004163130E05
:1020100013FE6382C7030D13638B67040D681308F7
:10202000289063850707A947B24022449244024999
:102030003E8541018280AD4765FB5547B547E36565
:10204000D7FE0325C8005546A28597200020E780CB
:10205000A01A0149938741899843814771D7184352
:1020600061D72686A2854A850297814775BFAD470D
:1020700045FF5547B547E369D7FA0325C8005546DC
:10208000A28597200020E7802017E9B72244B240BC
:1020900092440249854741016F803116A1473E8530
:1020A000828041677917630CE502411122C406C69C
:1020B00085472A84639AF50022852244B24093859D
:1020C000818841016FA0016689476396F5008545C7
:1020D000EFC0311375D1B240224441018280828029
:1020E000411122C42A844165938581887D1506C6E5
:1020F000EFA04163170500001305E5FA0588EFC05E
:10210000D10705C02244B24097360020938606CB03
:102110004146C54517350020130545B941016FA05B
:10212000A154B240224401454101828009C523AA3D
:10213000A18801458280454582801147636EA706CC
:1021400097F60200938646660A05369518414111B6
:1021500006C63697AE87B285028755476145639AB2
:10216000E7005546138541A997200020E780C00865
:102170000145B2404101828005476145E39BE7FE8E
:10218000054613854188CDB755476145E393E7FE82
:1021900055461385C1AAC9BF4D476145E39BE7FC7E
:1021A0004D46138541ACC9B715476145E393E7FC3C
:1021B00015461385C1884DBF09458280411122C44F
:1021C0002E849385818826C206C6AA84EF80A17DCD
:1021D000058915C197370020938747AD83D7A70B93
:1021E000A285B2402310F400224426859244014681
:1021F00041016F900162B24022449244494541013D
:102200008280238C018823AE0188B717004003A782
:10221000070CB706C0FFFD16758F23A0E70C03A7B8
:10222000070DB7064000558F23A8E70C03A7070C3E
:102230003D9B23A0E70C03A7070D1367070123A805
:10224000E70C828023AEA18813064006894503C5AA
:10225000018A6F40A116B717004003A5470C83A75A
:10226000470C598113451500C18B058999E3136506
:10227000250083C78189638CA700238CA18801C9AD
:102280009387C18903A3070063030300028382804D
:10229000411106C6EFF0CFD0BD4763F4A700EFF0C1
:1022A0002FD0EFF02FF8BD4763F4A700EFF08FF7C2
:1022B000B24083D5218803D5018841016F40E138C0
:1022C000411193962500AA852D4506C6972000202A
:1022D000E780E08BB240014541018280411126C276
:1022E0009394250022C44AC02A843289A686AA85EE
:1022F0000146254506C697200020E7804089A6862E
:102300004A86A285294597200020E7804088B24070
:10231000224492440249014541018280011122CCAC
:1023200006CE3714004026CA4AC84EC652C483445B
:102330007405034AB4058349840503499405EFF005
:10234000AFC38347A40593F4F40F137AFA0F93E70E
:102350001700230DF40493F9F90F1379F90FB71748
:10236000004003C7A705058B6DFF03D5C705A38DE7
:102370004705238C3705A38C2705A38B9704F240D0
:102380006244D2444249B249224A056182804111E5
:102390009397050122C406C6C1872E8463DA07001D
:1023A000EF30112F19C1EF3011282165218D1DA0AB
:1023B00093F7150013C5150091EF93F7250099CFFA
:1023C000593D1306000A894503C5018AEF30117F84
:1023D00013452400B2402244410182809397250195
:1023E00063D00702EF50C271653537F6020013065D
:1023F00006E0896503C5018AEF30517C09657DB728
:10240000939715010145E3D707FC17F50200130563
:10241000653FEFE0C21113060064916503C5018AB0
:10242000EF30D179116559B71D71494697F5020012
:102430009385C538170503001305857686CEA2CC93
:10244000EF30915E01E917F5020013056538EFE002
:10245000020E01A037F700E0F9575CC7FD571CCB0F
:102460000564B7E700E023A087109306701014C33B
:10247000B843C146B4C323A08718B8C30100010004
:102480001306C00381454808EF30F15397470020F9
:10249000938787B73ECAED47A301F1029307A010C7
:1024A0002312F102D1472303F102A167938707E0CA
:1024B0003ECE970700009387E7E0BEC49707000071
:1024C000938707E2BEC685472304F102B547230878
:1024D000F102970700009387C79A3EDAB7F5070025
:1024E000970700009387C7E33EDE81469707000009
:1024F000938747DA7000E1051945BEC0231C8100AF
:1025000097100020E780A06858088147994670001E
:102510003E960346060085070507A30AC700E39811
:10252000D7FED24791C70357810185676373F700D0
:1025300001A04808EF402127AA8501C917F502002C
:102540001305452AEFD0726A01A0F6406644256162
:1025500082804111170500001305A5E306C622C4B9
:10256000EF40E1201384018A2300A400312851396F
:10257000034504002244B24037F60200130606E089
:10258000896541016F309163411106C622C49306EB
:102590007005371400402300D404130780FA230089
:1025A000E4048347F40293F7A70FA307F402230080
:1025B000D4042300E4048347F40293E72700A3072D
:1025C000F402F9311305407E2300040481470147DA
:1025D000814605468545EFF0CFE82244B2400145EB
:1025E00041016F4081491387013A8147BA851D46F1
:1025F0008356070089CE139547002E9554411398B2
:1026000036006346080013982600635708008507C4
:102610004107E39FC7FC014582809386013A8147C9
:1026200036871D4683D506006396A50092073305BD
:10263000F70082808507C106E396C7FE01458280C8
:10264000D8414111A16722C406C626C29386B701AC
:102650002A846306D7089387D7036305F7044DEFF1
:1026600097F502009385852317F502001305854D24
:10267000EFD0B25717F502001305C54DEFD0F25653
:102680002945EFD0925A835764007D77F98F93E7FD
:1026900057002313F40089471CC4B24022449244DB
:1026A0004101828097F502009385451F17F50200CE
:1026B00013054549EFD0725317F502001305454B3A
:1026C000EFD0B2522945EFD05256835764007D7740
:1026D000F98F93E757002313F4008D4775BF97F5E3
:1026E00002009385A51B17F502001305A545EFD041
:1026F000D24F17F5020013056549EFD0124F294557
:10270000EFD0B252835764007D77F98F93E757007B
:102710002313F400914749B7AE8417F5020013055F
:10272000654297F5020093856517EFD0124CCC40B7
:1027300017F502001305C547EFD0324B2244B240D3
:102740009244294541016FD0524E411197F5020044
:102750009385C51017F502001305C53E06C6EFD0D8
:10276000D248B240294541016FD0324C411122C4B8
:1027700097F50200938505182A8417F502001305C2
:10278000653C06C6EFD072462945EFD0124A584044
:10279000A16793879704631BF70403D5218B69C155
:1027A000EFF0807D03D5218B8D3D835765007D77CC
:1027B0007D17F98F23240500231005002313F5004E
:1027C00097F502009385051317F502001305853769
:1027D000EFD0B24117F502001305C529EFD0F24042
:1027E0002244B240294541016FD03244ED3B05E11E
:1027F00097F502009385051017F50200130585343F
:10280000EFD0B23E17F5020013050528C1BF83467D
:1028100004001307F00F6390E60497F50200938518
:10282000650D17F502001305E531EFD0123C4C4061
:1028300017F5020013050527EFD0323B2945EFD0ED
:10284000D23E2244B24003C5818A1306803E8545AC
:1028500041016F30B1365C45A2859C438297D5B764
:10286000B240224441018280411122C406C68347FE
:1028700005002A849DC397F502009385E50817F5A6
:1028800002001305252CEFD052364C4017F50200FC
:1028900013054545EFD0723571A05841B707CF00F9
:1028A0009387777D6318F70E97F502009385C5052A
:1028B00017F5020013050529EFD032331C44835667
:1028C000E4008355C40003C6070017F50200130592
:1028D000E542EFD092312945EFD032350356C4009E
:1028E0000C441385C13897200020E780E09003C78F
:1028F000C138930720086317F7080357C4008547BA
:102900006308F70297F502009385050017F50200AA
:1029100013054523EFD0722D17F5020013058540EE
:10292000EFD0B22C2244B240294541016FD0F22FA2
:10293000914503C5818AEF30713F0355E400EFF004
:10294000A0630355E400D139835765007D777D1777
:10295000F98F23240500231005002313F50097F5B4
:102960000200938565FA17F502001305A51DEFD047
:10297000D22717F502001305A53CEFD012272945F1
:10298000EFD0B22A8355C40008442244B24041012A
:102990006F10701DB707CE009387777D631AF7021B
:1029A00097F50200938545F617F502001305851982
:1029B000EFD0B2231C448356E4008355C40003C601
:1029C000070017F5020013052539EFD0122245BF85
:1029D000B707CC009387777D6302F70297F5020073
:1029E000938585F217F502001305C515EFD0F21F88
:1029F0004C4017F502001305653869BDB24022440A
:102A000041018280397126DA4AD84ED6AE84AA892D
:102A1000328981457146480006DE22DCEFE07FB94D
:102A200005442313810023143101EF00707A9307CA
:102A300000192305A1003EC64A86FD57A685480019
:102A4000A3058100230AF100EF00107BF2506254CD
:102A5000D2544259B259216182801C45411106C6A7
:102A600022C426C209476382E7060D476382E70A4C
:102A7000054463918702835505000355450017F708
:102A800002001307E72085460146EF406050AA8404
:102A900001E901442285B2402244924441018280EE
:102AA00097F50200938505E117F5020013058509E6
:102AB000EFD0B213A68517F502001305E510EFD08D
:102AC000D2122945EFD07216F1B70356050003550F
:102AD00045009307707D01478546B285EF40804CE5
:102AE0002A8445D997F502009385C5DC17F50200C5
:102AF00013054505EFD0720FA28517F502001305E7
:102B0000650FEFD0920E2945EFD03212054459B728
:102B100003560500035545009307707D0147B166D4
:102B2000B285EF40C0492A842DD597F502009385E0
:102B300065D817F502001305E500EFD0120BA2854A
:102B400017F502001305850D6DBFD841411122C450
:102B500006C626C22A841DCFA1679387D703630DBB
:102B6000F706AE8417F502001305C5FD97F50200C0
:102B7000938585D3EFD07207CC4017F5020013057B
:102B80002503EFD092062244B240924429454101E8
:102B90006FD0B20997F50200938505D117F50200B1
:102BA000130545FAEFD0720417F50200130505F47A
:102BB000EFD0B2032945EFD05207835764007D77E9
:102BC000F98F93E717002313F40089471CC4B24020
:102BD000224492444101828097F502009385C5CC3E
:102BE00017F50200130505F6EFD0320017F50200C5
:102BF000130585F1EFD0627F2945EFD0120383578B
:102C000064007D77F98F93E717002313F400914751
:102C100075BF411122C406C62A841385013A0DE00E
:102C20002A8781471D4883580700639F080613942D
:102C300047002A942312B4002310C4002311D400A7
:102C40001387013A81479D458356070099CE630E4D
:102C5000D60093964700AA96D4421398360063464E
:102C60000800139826006359080685074107E39D6D
:102C7000B7FC81471397D70083576400F976FD1698
:102C8000F58FD98F2313F4001397270163490700A9
:102C900013060064854503C5818AEF3021722285C1
:102CA000B24022444101828085074107E39D07F736
:102CB00097F50200938545BD17F50200130585E8D9
:102CC000EFD0A27217F502001305C5E5EFD0E2714F
:102CD0002945EFD08275E1B7854769BF411122C40C
:102CE0004AC02E842A8997F50200938525BE17F5E0
:102CF0000200130525E506C626C2EFD0026F29455E
:102D0000EFD0A2720545EFF0205515C5AA8497F5BE
:102D100002009385A5BB17F502001305A5E2EFD0CD
:102D2000C26CA68517F50200130585F2EFD0E26BA1
:102D30002945EFD0826F2285EFF03F8E19C583576A
:102D40006500139737016341070685462286CA85C9
:102D5000C9350DE997F50200938545B717F50200CF
:102D6000130545DEEFD0626817F50200130585F004
:102D7000EFD0A2672244B240924402492945410162
:102D80006FD0A26A97070300938707265CC503C725
:102D9000418B8357650019CF7D77F98F93E7170033
:102DA0002313F50085471CC5B240224492440249D2
:102DB000410182807D77F98F93E717002313F50097
:102DC0009147D5B7011122CC26CA2E84AA8497F543
:102DD0000200938565B117F502001305A5D606CE4E
:102DE00032C6EFD082602945EFD022642285EFF011
:102DF000DF82B24619C58357650013973701634FC9
:102E000007042286A685313505E997F502009385EA
:102E1000A5AD17F502001305E5D2EFD0025D17F559
:102E20000200130525E5EFD0425C6244F240D24433
:102E3000294505616FD0625F970703009387471BA1
:102E40005CC503C7418B8357650011CF7D77F98F30
:102E500093E757002313F50085471CC5F2406244F1
:102E6000D244056182807D77F98F93E75700231361
:102E7000F5009147DDB7411122C497F50200938513
:102E8000A5AA2A8417F502001305C5CB06C6EFD004
:102E9000C255A28517F502001305C50AEFD0E2540A
:102EA0002945EFD0825883D7013BC9CF97F502005F
:102EB000938585A717F502001305C5C8EFD0E25228
:102EC00083D5013B17F50200130545BFEFD0E25152
:102ED0002945EFD08255930720FA03D5013B23867D
:102EE000F138A386A138935785000D469385C138E4
:102EF0002387F138013E9377F50F2A848DCB97F520
:102F00000200938565A217F502001305A5C3EFD053
:102F1000C24D9375F40F17F50200130525BBEFD0D2
:102F2000C24C2244B240294541016FD00250224494
:102F3000B240056603C5818A1306062C91454101FE
:102F40006F30C147B240224441018280011122CC3E
:102F500006CE26CA93F715002E8463880712EFF079
:102F60008FE8AA841DE597F502009385A59017F5D3
:102F70000200130525BDEFD0424717F502001305E7
:102F8000A5B0EFD082462945EFD0224A1344140061
:102F9000F1A0035765008567FD177D8FB306F70025
:102FA000FD8E835765007D76F18FD58F2313F50055
:102FB00045EF97F502009385E58B17F502001305A1
:102FC00065B8EFD0824217F502001305E583EFD014
:102FD000C2412945EFD0624503D50400EFE0D07926
:102FE00003D50400EFF06FE3835765007D777D170D
:102FF000F98F2313F500232405002310050097F50E
:1030000002009385258717F502001305A5B3EFD0BD
:10301000C23D17F502001305A5D2EFD0023D2945A8
:10302000EFD0A2401386013A8146328505489D457E
:1030300083570600B1C7139746002A975C439394C1
:10304000370063CF0402F583858B639B07038357A7
:103050006700F976FD16F58F2313F7002285F240FD
:103060006244D244056182805C45DC438297E30F71
:1030700005F083D764000567D98F2393F4005DB70B
:1030800085064106E396B6FA11B793F72500D9C72E
:1030900083D7013BADCB97F502009385A58A17F541
:1030A0000200130525AAEFD0423483D5013B17E572
:1030B00002001305E576EFD042332945EFD0E23622
:1030C000938701879C4311466C0003D5013B3EC6A4
:1030D000EFF05F939377F50FAA8495C797F50200F9
:1030E0009385458617F502001305C5A5EFD0E22F9D
:1030F00093F5F40F17E5020013050574EFD0E22EE7
:103100002945EFD08232096613060690894503C52A
:10311000818AEF30A12A1344240089B793F7450030
:103120009DC797F502009385E58117F50200130509
:1031300065A1EFD0822B17E502001305E570EFD0F3
:10314000C22A2945EFD0622E1344440001BF014436
:1031500031B71C45411106C622C405476387E70005
:103160000947638CE704054505A083550500035511
:10317000450017F702001307A7B185460146EF3057
:1031800030612A8411E50145B24022444101828028
:1031900097E502009385C57217F502001305859A1D
:1031A000EFD0A224A28517F502001305E5A1EFD008
:1031B000C2232945EFD062277DB70356050003558A
:1031C00045009307707D05478546B285EF30905DD9
:1031D0002A8455D997E502009385856E17F502007C
:1031E00013054596EFD06220A28517F5020013055E
:1031F00065A075BF411122C417F50200130585941F
:103200002E8497E502009385256606C6EFD0E21D61
:10321000A28517F502001305A58CEFD0021D2945E4
:10322000EFD0A22095476319F4002244B2408545AF
:10323000054541016FF020062244B2400545410199
:103240006FF08001411122C426C22A84AE8417F592
:1032500002001305258F97E502009385256806C6B1
:10326000EFD0A21829450588EFD0221C29C0954629
:10327000014681452685EF2060662A840DC997E5C1
:1032800002009385A56517F502001305A58BEFD005
:10329000C215A28517F50200130585A2EFD0E2142E
:1032A0002244B2409244294541016FD00218B240F5
:1032B00022449244410182800111354697E5020083
:1032C0009385056F17F50200130545F506CE22CC50
:1032D000EF20917501E917E502001305654FEFD066
:1032E000022501A097270020938747333EC4B7F5F6
:1032F000070085679387478B81461386C18AE1055E
:1033000019453EC697100020E780608819469385CE
:10331000C18A1385814297100020E780E0ED3400D8
:103320001386C18A97F50200938545A817F5020018
:10333000130545A9EF2060352A840DC997E50200E1
:103340009385455F17E502001305C57FEFD0E209BD
:10335000A28517E502001305A566EFD002092945ED
:10336000EFD0A20CF240624405618280EF80205AC7
:1033700017E502001305455EEF1000559387013AEB
:103380001387014123A4070023900700C107E39B93
:10339000E7FEEF508064EFE070671725002013050B
:1033A000A5BBEFE0304B17E502001305E55BEFE04E
:1033B000B0672A84EF10102EEFA0F004EF10610C1C
:1033C000EF205048EF204009EFC0D06197E50200A0
:1033D0009385455617E502001305C57609C8EFD059
:1033E000C200A28517E502001305C55FBDB7EFC097
:1033F000D27F17E5020013052561EFC0127F294532
:10340000EFD0A202EFC070448547238AF18AEF9083
:10341000E06F29C597E502009385C55117E50200C5
:1034200013054572EFC0727C17E502001305455F76
:10343000EFC0B27B2945EFC0527F97E5020093852C
:10344000654F17E502001305E56FEFC0127A17E527
:1034500002001305E560EFC0527911B797F702003B
:1034600093870784054781460146814517F5020089
:1034700013050584EF20C04C2A8461D197E5020032
:103480009385454B17E502001305C56BEFC0F27538
:10349000A28517E502001305E55AC1B5411106C61C
:1034A00022C4EFA06219EF001052170500001305A7
:1034B00025AAEF30C12B1384818A2300A40017258D
:1034C00000201305A5ABEF00301EFD33EFE07FD3E6
:1034D000170500001305659AEFE0DFD603450400E9
:1034E0002244B24005661306062C894541016F202F
:1034F000F16C0111354697E502009385654B17F590
:1035000002001305A5D106CEEF20115201E917F5EF
:10351000020013052588EFD0820101A0EF50827DC3
:103520002AC6EF100138EF104117EF70100EF2406D
:1035300032450561828041111305800406C697005B
:103540000020E780803C371700408327870A8D459D
:103550001305002093E707202324F70AEFE0BF8339
:10356000EFE05F9B17F5020013058563EFC0327C27
:1035700017F50200130585CAEFC0727BEFE0DFEAA2
:10358000EFE03FFDBD37193F97000020E780C053B3
:10359000014582804111B2862E86AA852D4506C638
:1035A00097000020E780A05EB24001454101828083
:1035B000AE860146AA852545170300206700235DD6
:1035C0009307000463E6C7021D71A2CC2A84080891
:1035D00086CE32C6EFC01256B2461008A2852945E3
:1035E00097000020E780A05AF6406644256182805B
:1035F000395582809387818B18429C4383D645003E
:103600000345070083C5C700035646006396A5001F
:1036100083D5E700638DD502011106CE2386A7006E
:103620002397D700B705CF00DC4B9385757D050741
:103630007D162EC2230001003AC42316C1002317B1
:10364000D10099C30A858297F24005618280828009
:103650006D713C083EC6B707E500232291103EC8B5
:10366000AA843C083285232611103ECA23248110E7
:10367000232021112E89EF20903C2A8497E5020017
:103680009385C57917E502001305C54BEFC0F255C8
:10369000A28517F502001305A587EFC0125529452D
:1036A000EFC0B258B705CD009385757D6800EF1067
:1036B000401BA2856800EF20302E01478146700034
:1036C000CA852685EF10203A15C52A8497E50200A1
:1036D0009385C57417E502001305C546EFC0F25087
:1036E000A28517F5020013056583EFC01250294526
:1036F000EFC0B2538320C1100324811083244110F2
:103700000329011051618280797122D452CC2E8418
:103710002A8A97E502009385E57117E502001305F3
:10372000654206D626D24AD004424ECE328983590B
:103730004600EFC0924B03572400830684000356D3
:1037400064008355440017F502001305A582EFC0FD
:10375000D2492945EFC0724D9387818B9C4303C7A3
:10376000040083C607016398E6000356440083D62D
:10377000E700630AD6022388E70083564400370730
:10378000CE001307777D2397D700DC4B8504FD1906
:103790003AC22300010026C4231631012317D100A9
:1037A00099C30A8582974A86A28552855535B250BB
:1037B000225492540259F249624A456182806D71E5
:1037C0003C083EC0B707E5003EC23C083EC4232685
:1037D0001110232481102322911023170100231894
:1037E000010023190100231A0100231B0100971770
:1037F000002083D7A77A99E3C167FD172316F1004C
:103800009717002083D7A77981EB9387818B9C43FF
:103810009C43DC4783D70700171400201304047867
:10382000584C2317F10083574400484B2318F100EC
:1038300005ED97E502009385A56617E502001305DF
:103840006530EFC0923A17E5020013056569EFC0D5
:10385000D2392945EFC0723D8320C1100324811065
:1038600083244110516182809717002083C77773AA
:1038700099E7EF20415B5C4C23AA0700F1BFFD17DD
:1038800097160020A38FF6700356070183470401A3
:103890004C470A85230BF100EF20300E9387818B74
:1038A0009C430147814688430A866C00EF10A01BA9
:1038B000AA8405C997E502009385855E17E5020095
:1038C00013054528EFC07232A68517E502001305DF
:1038D000E561EFC092312945EFC032355C4CC84BF1
:1038E00049BF9717002083C7D76BEDDB1044854590
:1038F00003C5C18BEF20912C85B7411122C426C28C
:103900002E84AA8497E502009385855B17E5020063
:103910001305452306C6EFC0522DA68517E5020004
:103920001305C571EFC0722C2945EFC012305C4CF5
:10393000DC4B99CB10442244B240924403C5C18B66
:10394000914541016F209127B240224492444101A8
:1039500082805C4EDC4BA1C7B9C1411122C417E57E
:1039600002001305251E2E8497E5020093858554D9
:1039700006C6EFC09227A28517E502001305456D24
:10398000EFC0B2262945EFC0522A2244B24003C5F7
:10399000C18B13064006914541016F203122828080
:1039A000411122C417140020130444611C4C06C6A4
:1039B00089C7DC4399C34C4882975C4CC84BEF20C5
:1039C00081465C4CB240224423AA07004101828018
:1039D0001387518B83470700850793F7F70F93965B
:1039E0008701E18663C70600A38AF18A03450700C1
:1039F0008280A38A018ADDBF83574500638D070C4F
:103A000001114AC8171900201309495952C4032A41
:103A1000C90106CE22CC03274A0126CA4EC6F15759
:103A200029EB1307D00DFD576365C7042A841305DE
:103A3000860042054181B284AE89EF208141232A6C
:103A4000AA000325C9015C4995EF97E5020093851B
:103A5000654117E502001305E50EEFC0121917E5E1
:103A6000020013052554EFC052182945EFC0F21B80
:103A7000DD57F2406244D2444249B249224A3E856F
:103A80000561828093874400B705CF002319F500B4
:103A90009385757D3105EF00D05C0325C901834511
:103AA00064003105EF20406F0325C9012686CE85CD
:103AB0003105EF20806C7146A2854A85EFC09207E0
:103AC000504401CA854503C5C18BEF20310F8147A2
:103AD0004DB7F531EDBFFD573E85828083574500D8
:103AE0006383071401114AC8171900201309094DEF
:103AF0004EC68329C90106CE22CC03A7490126CA96
:103B000052C4F15729EB1307D00DFD576365C70465
:103B10002A841305860042054181B2842E8AEF2053
:103B2000413323AAA9000325C9015C4995EF97E514
:103B300002009385253517E502001305A500EFC0A7
:103B4000D20A17E502001305E545EFC0120A294520
:103B5000EFC0B20DDD57F2406244D2444249B2494F
:103B6000224A3E850561828093874400B709CC00D4
:103B70002319F5009385797D3105EF00904E0325DB
:103B8000C901834564003105EF2000610325C901A7
:103B90002686D2853105EF20405E7146A2854A8592
:103BA000EFC042799387818B9C43B9E397E502008C
:103BB0009385052517E502001305C5F8EFC0F2024D
:103BC00017E502001305453FEFC032022945EFC05B
:103BD000D2055044914503C5C18BEF20217E1306C9
:103BE000007D894503C5C18BEF20417D8147A5B785
:103BF000984705C397E502009385852017E50200E5
:103C0000130545F4EFC0627E17E502001305853DFC
:103C100065BF3707CB009389797D1307777D23A292
:103C2000370198C77DB7FD573E858280411122C478
:103C300017140020130484365C4C06C6C84BEF20D2
:103C4000811E5C4C2244B24023AA070003C5C18BED
:103C5000854541016F20910D1387818B1C43BDCB9E
:103C6000411126C2BA84D84306C622C439CF2300E4
:103C7000B50058C123A4070023A20700971700200E
:103C80009387C733DC4F2A84DC4B99C32955093B02
:103C90009717002093878730DC4FDC4B91C379372F
:103CA000894503C5C18BEF207108914503C5C18BC0
:103CB000EF20D1079C4003A347016308030022853E
:103CC0002244B240924441010283B24022449244D1
:103CD0004101828082800111328506CE22CC26CA23
:103CE0002E84EF20C055AA8497E50200938505161F
:103CF00017E50200130505E5EFC0226F03078400F6
:103D00000356640083554400A68617E50200130598
:103D1000A523EFC0826D2945EFC0227197170020BF
:103D200083C7272A639897000145EFF07FC7814535
:103D30000A851D37F2406244D244056182806D716C
:103D400023248110232611102322911093F71500AC
:103D50002E8489CFEFF0BFA6134514008320C11035
:103D600003248110832441105161828093F7250040
:103D700085C3414681452808EF20E1442555EFF0F1
:103D80003FC228089305F00FC13D13452400F9B741
:103D900093F745000145F9D33C083EC0B707E5005D
:103DA0003EC23C083EC4231701002318010023191A
:103DB0000100231A0100231B01009717002083D75D
:103DC000E71F99E3C167FD172316F100971700203D
:103DD00083D7E71E81EB9387818B9C439C43DC4711
:103DE00083D70700171700201307471D2317F1007B
:103DF000544F835747002318F100DC4A9DE797E5AD
:103E000002009385A50C17E502001305A5D3EFC0AA
:103E1000C25D17E502001305A50CEFC0025D294540
:103E2000EFC0A2601345440015BF9717002083C759
:103E300057192555BDC7FD1717160020A303F618FF
:103E400003D6060183470701CC460A85230BF10000
:103E5000EF20A0329387818B9C4317170020130714
:103E6000E71597F602009386661988430A866C0068
:103E7000EF00703FAA845DD597E5020093850505A4
:103E800017E50200130505CCEFC02256A68517E5FD
:103E900002001305A505EFC042552945EFC0E258C1
:103EA0002685EFF0FFAFBDBF5C4D411106C688C34C
:103EB000170500001305E5E823ACF18AEF20310B6C
:103EC000B240238EA18A0145410182802A86B30532
:103ED000B04017E502001305A51E6FC002515D71C9
:103EE000A2C486C6A6C2328409C989476305F50CF7
:103EF000B6402644964461618280680097000020A5
:103F0000E780802F17E5020013058528EFC02262A5
:103F100097E502009385451717E50200130585C252
:103F2000EFC0A24C83D5013B17E50200130505B98C
:103F3000EFC0A24B2945EFC0424F83D4013BCDD8FF
:103F4000714681454810EFD0CFE697F7020093877E
:103F5000A70A83D70700231491022313F102EFF07D
:103F60003FA78D47A305F102930700192305A1027E
:103F70003ED62286FD576C004810230AF102EFF06E
:103F8000FFB59377F50F2A84A5D797E502009385AF
:103F9000A50F17E502001305E5BAEFC002459375BA
:103FA000F40F17E5020013056520EFC00244294510
:103FB000EFC0A24735BF680097000020E780C0230C
:103FC00017E502001305851FEFC0625697E5020052
:103FD0009385850B17E502001305C5B6EFC0E240D7
:103FE00083D5013C17E502001305051FEFC0E23F32
:103FF0002945EFC0824383D4013C91B783D7018D1B
:104000006390A7022399B18C239AC18C239BD18CF6
:104010002E8617E502001305A508BE856FC0E23C99
:1040200017E50200130545096FC0625003574500AC
:10403000011106CE83D7018D631FF702C167F917FF
:10404000894503C5018223A8F18C23AA018CEF20A6
:10405000E14D914503C50182EF20414D854713068F
:10406000F100854513055030A307F100EF90C233EE
:10407000F2400561828017E502001305E503EFC0F9
:10408000024BFDB77D15954763EEA71217E70200B7
:10409000130707FE0A053A951C41411122C406C6C2
:1040A000BA972E84828717E502001305E5022244A1
:1040B000B24041016FC0A24703C725009947631C66
:1040C000F7002E85A5378345640017E50200130528
:1040D000A501EFC0823117E502001305A502C1BF9B
:1040E00003C7250095476312F702C16703D7018D07
:1040F000F91703D5A500630FF700EF90A25117E55C
:10410000020013052501EFC0824217E502001305E6
:10411000E50271BF2398A18C83D7E50009661306D9
:1041200006902399F18C83D7050103C50182239A58
:10413000F18C83D72501A145239BF18CEF20012829
:104140000566130606C8914503C50182EF200127C5
:104150000356E4008355A40017E502001305C5FCCF
:10416000EFC0A2285DB717E502001305E5FD81B792
:1041700083C5250091476397F50017E502001305F5
:1041800025FE35B79947639FF50022854535834560
:10419000640017E50200130525F52244B2404101F1
:1041A0006FC0A2249547639AF50083471400F1F786
:1041B00017E50200130585FCDDBD17E502001305B8
:1041C00065FCE1BF82801D71170500001305651EA7
:1041D00086CEA2CCA6CAEF2081599384018299474A
:1041E00005442380A4002310F102700093074006C9
:1041F000854513055030231CF10223068100EF9002
:10420000A21A171600201306A6DFF1451305703019
:10421000EF908219138641829D4513056030EF901F
:10422000A2181010894513051031EF90E2173018CD
:10423000894513052031EF902217930500050D45A0
:10424000EF400134930500051145EF40613330180C
:10425000914513057040230081002302810023064D
:10426000810002DC23000102EF80E2100A8685450E
:1042700013050040EF8022105000854513051040C3
:10428000EF80620F1010854513052040EF80A20ECD
:104290007000854513055040EF80E20D7D55EF50CD
:1042A00031747D55EF80E1447D55EFD07FE31716E3
:1042B0000020130666D3D5450145EF50916455465D
:1042C00081450810EFD0EFAE894755468145281843
:1042D000230081022300F100EFD0AFAD8D474D46A2
:1042E00081456800230CF102EFD0AFAC9147230663
:1042F000F10093874187984383C747001010D54545
:1043000001453AC22304F100EFD03FE30A86854518
:104310000545EFD09FE23018D5450945EFD0FFE1C4
:104320007000CD450D45EFD05FE15000954511453A
:10433000EFD0BFE0C1671387018DF9171CC323229B
:1043400007001385C181EFD07FDE1385018CEF60FC
:10435000726003C504008545EF10B173F6406644F2
:10436000D64425618280011122CC2E862A84231511
:10437000B10001478146ED4503D5018D06CEEF60C2
:10438000C11C0356A100A2852AC697000020E78021
:10439000A0E62C0003D5018DEFD05FE209C5ED4505
:1043A0002800EF606132F2406244056182807971D9
:1043B0009397050122D406D6C1872E8463DF0700B8
:1043C00003C50182EF10D12C19C1EF10D125216551
:1043D000218DB25022544561828093F7150091CF10
:1043E00017160020130686BF9385818C03C50182B2
:1043F000EF80724F13451400E9BF93F725009DC766
:1044000013060064894503C50182EF10317B4D46D8
:1044100081456800EFD0EF99930780F86800CD459B
:104420002306F10089371345240065B793F785000B
:1044300085C383C7018213074006814613064006E1
:10444000994503D5018DEF8072431345840051B720
:1044500093F745000145B5DF03D5018DEF90421B71
:104460000566130606C8914503C50182EF10117554
:1044700013454400B9BFEFD22F8F2A8408452E89F7
:10448000B28909C900C1970500009385457461058B
:10449000EF00011281447D5AEF10400563C3A4046C
:1044A0008144EF10A00563C6A404973700209387CA
:1044B00027B99C43DC47B307F94091872302F400F6
:1044C000638109048327C900B307F4409587A302D9
:1044D000F4001C4C89C79C4799C3228582976FD0F2
:1044E000EF8B5C44139714008504BA97239047011F
:1044F00065B71C48139714008504BA9723900700EA
:104500004DB7832789000547B307F4409587A30279
:10451000F40083570400638EE7028DC30947638468
:10452000E7040D47E397E7FA97E702009387C71D73
:104530001CCC97E702009387271E11A897E702007B
:10454000938707E41CCC97E70200938767E45CC875
:1045500049B797E702009387A7CF1CCC97E70200E3
:10456000938707D0EDB797E702009387A71E1CCC6F
:1045700097E702009387071FD9BF85E1EFD26F80CD
:10458000004618448347940075839D8B6315F7009C
:10459000EF00901A48C46FD00F818280EFC2DFFC19
:1045A00013893500C16442094111AA890144F114FB
:1045B00013590901054A2EC6EF005073B2456346F0
:1045C000A400014541016FC07FFD83A709001317B7
:1045D0001400BA9783D707006388B70063949700E5
:1045E00063742A010504C1BF0545E9BFEFC2FFF6A8
:1045F000AA892E89328BB6843A8ABE8AEF8000510E
:104600004DC12685EF1050338D4763E5A7007D55DA
:104610006FC03FF883DB4400EF0050732A84EF0043
:1046200030749307740031443305850263C5A702D3
:10463000EF00D071EF0090712A84EF007072930741
:10464000740031443305850263CDA702EF0010707A
:104650009307450019A8EF00B070330585021307D2
:10466000F0179307C017E357A7FC2D55E3C277FB5C
:1046700063000B02D6865286A6854A85EFE0B076A7
:1046800041BFEF00F06D330585029307C5FFF1BF11
:10469000832749001385C90083D52700013779F99D
:1046A000BDB76955B5B797370020239DA7989737B1
:1046B00000209387E798904381470C463307F50025
:1046C000420741836393B7008280544613984700A2
:1046D0008507C2962390E600D5B7973700209387C9
:1046E00027969C4303C58700828017350020035519
:1046F00065958280EFC2FFE8C1671387D7FF630724
:10470000E5026368A700F117630EF50001456FC06D
:104710009FE91387E7FF630EE500FD171D8D133535
:104720001500F5B7EF40E0637D15D5BFEF40604160
:10473000E5BFEF40C03FCDBFEFC2BFE44111AA8447
:1047400001442EC6EF00905BB2456346A4000145CC
:1047500041016FC05FE59C48131514003E958357D7
:104760000500E387B7FE0504E9BF0348550081460D
:1047700093F7F60F63E5070181473E858280584530
:1047800093975600BA9703D727006316B70003D74D
:104790000700E304C7FE8506E1BF834645000147E5
:1047A0009377F70F63E4D700814711A81C451316D0
:1047B00057000507B29703D60700E313B6FE3E8500
:1047C0008280EFC27FDA93170501C187973A0020F4
:1047D000938A0A876354F00883A70A00C0479C475E
:1047E00003570400198D420541816366F5000144B9
:1047F00022856FC0BFDA12052A94DDBFDC4713940F
:104800004900014A3E94834744006341FA02014A49
:10481000834754006346FA028509C20993D9090106
:1048200083A70A009847E3EBE9FCD1B71C441319AE
:104830005A00A6853E994A85013711ED050AE1B770
:104840005C4413195A00A6853E994A85EFF0DFEEC5
:1048500019E1050A75BFE30109FC59BFAA84814922
:10486000C1B7EFC21FD21C452A8481E79307C50058
:104870001CC51C44231204001CC09307F00F63E9FD
:10488000B70093F5F50F2285EF1010116FC0BFD15F
:1048900093940501C167C18063F7F500A685228561
:1048A000EF103013E5B7C18193F5F50F2285EF10B6
:1048B000B00EA6852285EF10700FC9BF9727002084
:1048C00093870778884382801C4599C797270020E3
:1048D00023A8A776014582807D55828097270020F6
:1048E00093870776984383474500484792073E954C
:1048F0008280EFC21FC9617100451C183EC6B70710
:1049000080013EC81C183ECA8357440002CE02D024
:1049100002CC231EF100834784002A8902D223019E
:10492000F1023C083ED402D6553F835705002316BA
:10493000F102EF4080122307A1025C40035564009E
:10494000F18313F717008347F10252055181F99B58
:10495000D98FA307F102EFE0703A39C5AA84035555
:104960000500EF80801B83D704002AD26800231C37
:10497000F10083D72400231DF1001C4803D6470013
:104980008C43EF10807F8347B400CA8617E602008D
:10499000130686858117A305F4006C004810EFE02C
:1049A00090445D616FC03FC02155E5BF1C45B1CF4C
:1049B00003C5A700894613576500630BD7028D46D0
:1049C000630ED70285466300D702130740063305FE
:1049D000E50203C7B700418B15CB83C7B700BD8B7A
:1049E0003355F54082801375F5031307803EC5B734
:1049F00009671375F50313070771D1BF372709003E
:104A00001375F5031307077CD9B701458280EFC200
:104A10005FB703A98500630409048347B900AE8426
:104A200093F7070E91CF03459900930520030D815D
:104A30000505B305B50288446105EFF0504305A0B4
:104A40002E85AD372A8401CDC5298325C900B3073A
:104A5000B54063F887002E94B305A440E9FD6FC00C
:104A60009FB48545C9BFEFC2DFB12A8403D50500D5
:104A7000011132C636C43AC22EC002CA02CC02CEDE
:104A8000EF80A00982452ACA22852ECCEFF01FE5CF
:104A900003570500231EE100EF30307CA24632466A
:104AA0009247230FA10036874C08B2862285014623
:104AB000EFF0DFB305616FC01FAFEFC29FAC617154
:104AC0001C183EC6B70780013EC81C183ECA3C08E9
:104AD00000453ED4AA8402CC02CE02D002D202D635
:104AE000EFF0DFDF8357050035592316F102EF3071
:104AF000D0762307A10209C48357440091E72159C6
:104B00004A855D616FC03FAA03556400520551811B
:104B1000EFE0D01E2A8965D58347B40093F7070ECE
:104B200089C713058401EFF0103683574400231E14
:104B3000F100834784002301F1025C400355090022
:104B4000D98313F7070883471102231CA10093F7A9
:104B5000F707D98FA300F10283572900231DF10025
:104B60005C40F18313F717008347F102F99BD98F5B
:104B7000A307F102EF70707A2AD251D183479400D3
:104B80006800139757008347B400FD8BD98FA305A6
:104B9000F4001C4803D647008C43EF10005EA68744
:104BA00017D7020013074764740005464C1026858A
:104BB000EFF0DFA32A8929D58347B400A685FD8BB2
:104BC000A305F400EFF0BFE425BFEFC29F9B832451
:104BD00085FE2A8441112685EFF05FDD834734FF8F
:104BE00093F7070E9DC32AC62685EFF09FD019C9FB
:104BF000834734FFB245FD8BA309F4FE81C52285AE
:104C0000EFF0F02641016FC01F9A6DDD8327C4FFCE
:104C10002685829765F9834734FF93F7070E81C78E
:104C20002285EFF05026032584FEEFF01FE9D9BF5F
:104C3000EFC23F929C4141112A8903C7070089476F
:104C40002E8493566700638CF6020D466382C60479
:104C50009307F0076302F7022E85EF10405EAA84E7
:104C60008149C16B130C4900972700209387473D6A
:104C70009C43984763ECE90241016FC05F9103D701
:104C800045008547E3FAE7FE2E85EF10205FC1BFA0
:104C900003D74500E3F2E7FE2E85EF10405AAA84C1
:104CA0002285EF10205BC204C98C5DBFDC47035531
:104CB000A900139A49003E9A93170501C187635DC5
:104CC000F00083570A006395A70263E57403832706
:104CD000CA00034D5A001DA0A1672167A98F1307C1
:104CE000F7EFE374F7FE63950900EFF0BFA071FDE5
:104CF00085099DBF83278A00034D4A00835DA90073
:104D000003576900216A138BC7003AC6814A33CA28
:104D10004D01631E5D01972700209387E7329C4376
:104D2000E1DBA2866286814526858297D1B7A1679D
:104D30009387F7EF930C4BFF63F04703B2455A8517
:104D4000EFF0DF8519CD03278B00104719CA1043F8
:104D50006380C4023107D5BFEE856685EFF0DF9D25
:104D600071FD93861A0093FAF60F130B0B0255B7D9
:104D7000835644005C43E3EDF6F622853AC6EF1015
:104D8000003BA1679387D7042A8A035D440032471A
:104D900063E897008347D90093E707F8A306F90073
:104DA0001C4766852286E2858297C1670844FD1705
:104DB000337AFA00529508C02312A40115BF972731
:104DC00000209387E7279843814715C314478147FD
:104DD00063FFD500939745004C47BE9519C903C79B
:104DE000550081476375E600DC451606B2973E859F
:104DF000828003C745008147E37BE6FE16069C459B
:104E0000F5B7EFC26FF6AA892E8A8144972A00204F
:104E1000938A0A2383A70A00984763E4E4006FC0DB
:104E2000EFF7DC471394440001493E9413BB140090
:104E300083474400634BF900014913BB14008347C7
:104E40005400634FF9008504F1B7084493175900E3
:104E50005287DA860146A2853E9582990509C9BF27
:104E60004844931759005287DA860546A2853E9535
:104E700082990509E9B7EFC2CFF0814517F5FFFF29
:104E80001305A55F97270020239E071AEFF07FF7F1
:104E90006FC06FF1972700209387871A9C4381CFBB
:104EA000EFC22FEE814517F5FFFF1305055DEFF00B
:104EB0005FF56FC04FEF8280EFC20FEB41112315FA
:104EC000E1002E89B284B6893A8681460147ED45D4
:104ED0002A84EF5081672AC61DCD0356A100CE85D6
:104EE000EFB04245CA852285EF50F12B058915C1E7
:104EF000228501462C0023149100EF6091112A8431
:104F000009C5ED452800EF50217C228541016FC085
:104F1000EFE84944FDB76554CDBF5C41FD175CC166
:104F20008280EFC20FE6EF10013695473305F50298
:104F300081450D816FC02FE7EFC2AFE4EF10A134C0
:104F400095473305F5020D816FC0EFE5EFC26FE3C2
:104F500003550500EF20E1456FC0EFE4EFC26FE2BB
:104F6000035505003287AE86170600200356E60F6C
:104F7000972500209385850DEFF01FF46FC0AFE2F9
:104F8000EFC22FE0EF8002696FC0EFE1EFC26FDF89
:104F9000972500209385850BEF70C17801456FC080
:104FA0008FE0EFC20FDE8145170500200355E507AE
:104FB000EF50F15C6FC02FDFEFC2AFDC9725002010
:104FC0009385C509EF70017601456FC0CFDDEFC253
:104FD0004FDB8145170500200355250BEF50315A53
:104FE0006FC06FDCEFC2EFD92E85EF60B011EF60BC
:104FF000B01A6FC04FDBEFC2CFD8EF6070226FC026
:105000008FDA5C49E1175CC95CC583572501A107AC
:105010002319F50083570501A1072318F5008280A5
:10502000F1473305F50297270020938727059C4316
:105030003E9582808D476317F60603D74600854765
:1050400063F2E706EFC2EFD3368536842E89EF1080
:10505000001F39C18357440093140501C18063EDDB
:1050600097022285EF10A01DFD14231294009307D0
:10507000A002630EF5009307B0026301F5029307E7
:105080009002631BF5002285EFD0E00431A00146B9
:10509000CA852285EF8020186FC0EFD02285EF00EF
:1050A000F05ADDBF828097260020938666FD9C42E1
:1050B000014599CF9843D442172600202322E6FCCD
:1050C0006396D7009726002023AEE6FA1385C7FE25
:1050D0008280EFC20FCBD9267144330585029145FA
:1050E000EF70806B01E565556FC0EFCB972700200F
:1050F00023A4A7F86526330585029145EF70C069A2
:105100007DD19727002023ABA7F6492E97270020B3
:10511000239EA7F4612697270020239AA7F497D708
:1051200002009387A711172700202325F7F497077C
:105130000000938747ED17270020232BF7F2014546
:1051400065B7EFC20FC4AA8517250020130505F225
:10515000EF10C0226FC02FC5EFC2AFC2EFF07FFECD
:10516000EF10402397270020938787F19C4381CF3E
:105170001387C7FE09CB83D5C7FF1725002013056A
:10518000A5F0EFF0C04E6FC00FC2EFC28FBFEFF0BF
:105190009FF119C9834785002A8493F7070499E78B
:1051A0000355E500EFF05FFB6FC0EFBF8347C5001D
:1051B0009304450117290020130989EC85E383270F
:1051C00009005CC99727002023AC97EA8327490090
:1051D000E1FF9727002023A797EAF9B7FD172306D9
:1051E000F5006105EF6050098307840063C9070477
:1051F0008347840093E707F82304F400EF00F15F8E
:105200004205A94741813375F5028347840093F72E
:1052100007FCC98F2304F4008347D4003E951C404B
:105220002318A40089CF984319CB8347C40050406A
:10523000814585073305F5024205418102978327A1
:1052400009005CC89727002023AC97E28327490018
:1052500089E79727002023A797E28347C400A9D7AF
:105260008355040117250020130505E2EFF02040C7
:1052700025BFEFC20FB197270020938767F59C47A2
:1052800001448583858B81EFAE84B2853A86EF1029
:10529000C0152A8409C5EF10C00C829408CC228561
:1052A0006FC06FB0EFC24FAC41112E8932C6AA89D0
:1052B000712C324713060502CA86970500009385B4
:1052C00065D617250020130565DAEFF09FFA2A84CA
:1052D00029CD9304C50065261946AA852685EF00C9
:1052E000D06985452685EF00B06617D50200130505
:1052F000A5F24E95834505002685EF00F0695C48D0
:1053000031468145A1075CC85CC483572401E1177D
:105310002319F40083570401E1172318F4001C4CEF
:105320003E85EFC00FA9A3042501228541016FC06E
:10533000EFA6EFC20FA54111AA842EC632C4EF100A
:10534000A004004DB2452246834784000CC050C0E3
:1053500093F7F70393E707042304F40023180400EA
:105360002685EF10000083479400A9462317A40068
:1053700013D7370005073307D7029D8B8507230610
:10538000F400A306E40083C70401D8488507230F6F
:10539000F7FE172700201307A7CE5843232A04003F
:1053A000930744011DEB17270020232DF7CC172767
:1053B00000202327F7CC172400201304E4CC2285F7
:1053C000EFF0A0201C44858B5D8D09E58145228589
:1053D000EFF0E02941016FC00F9D1CC3172700208B
:1053E0002322F7CAC9BFEFC2CF9997050000938562
:1053F000A5C40145EFF01FBF01456FC0CF9AEFC2B2
:105400004F98EFF05FBF6FC00F9A8347C500A1E7C9
:10541000EFC22F972A840355E500EFF09FD215C9FC
:105420008347840093F7F7FB2304F4001C4091C7E3
:10543000DC4381C74C4001458297EFF0DFC617255A
:105440000020130565C4EFF000240355E400EFF0DD
:10545000BFD06FC04F958280EFC2AF9297270020D8
:10546000938707C297050000938565D21725002012
:10547000130585C123A0070023A20700EFF0401306
:105480006FC06F921C4D91CBDC4381CBEFC26F8F0D
:105490008345070082976FC00F9182809727002075
:1054A0009387C7C09C4303C50700828097270020CD
:1054B0009387C7BF9C4303C51700828097270020AE
:1054C0009387C7BE9C4303C527008280972700208F
:1054D0009387C7BD9C4303C5470082809727002060
:1054E0009387C7BC9C4303C5370082809727002061
:1054F0009387C7BB9C4303C5570082809727002032
:105500009387C7BA9C4303C5670082809727002012
:105510009387C7B99C4303C57700828097270020F3
:105520009387C7B89C4303C58700828097270020D4
:105530009387C7B79C4303C59700828097270020B5
:105540009387C7B69C4303C5A70082809727002096
:105550009387C7B59C4303C5B70011E11D45828001
:1055600097270020938787B49C4303C5C700828098
:1055700097270020938787B39C4303C5D700828079
:1055800097270020938787B29C4303C5E70082805A
:1055900097270020938787B19C4303D5070182801A
:1055A00097270020938787B09C4303C527018280FB
:1055B00097270020938787AF9C4303D547018280BC
:1055C00097270020938787AE9C4303D5670182808D
:1055D00097270020938787AD9C4303D5870182805E
:1055E00097270020938787AC9C4303C5A70182803F
:1055F00097270020938787AB9C4303C5B701828020
:1056000097270020938787AA9C4303C5C701828000
:1056100097270020938787A99C4303C5D7018280E1
:1056200097270020938787A89C43885782809727D5
:1056300000209387A7A79C4303D5C70282809727A2
:1056400000209387A7A69C4303D5E70219E1130521
:10565000800C828097270020938747A59C4303C531
:105660000703828097270020938747A49C43C85B49
:105670008280972700209387E7A28843828097271C
:105680000020938767A28843828019E17D5582803C
:10569000F5DE984265DFFDD917270020130747B3D1
:1056A0001847AA877155058B6319072203C50700A0
:1056B0001547E37DA7FC03C737001305F0057D17E9
:1056C0001377F70FE364E5FC03C35700E30003FC23
:1056D00083C86700E38C08FA03C777004945791748
:1056E0001377F70FE364E5FA03C7A7001148130522
:1056F000F7FF1375F50FE36BA8F803CE97000D487D
:105700001305FEFF1375F50FE362A8F803C8B70091
:105710006309080065181378F80F1305600DE36737
:1057200005F703C5C700794879151375F50FE36FC1
:10573000A8F403C8D7000D457D181378F80FE36768
:1057400005F503D80701930E401751184208135866
:105750000801E3ED0EF303C8E7007D181378F80F96
:10576000E36605F303C827017D181378F80FE36F8C
:1057700005F103C88700C54E75181378F80FE3E7E5
:105780000EF103D86701856E938EBEE06D18420856
:1057900013580801E3EC0EEF03D847016D184208D7
:1057A00013580801E3E40EEF03D887017918420883
:1057B00013580801E36C05ED03C8A7017D181378A1
:1057C000F80FE36505ED03C5B7011D487D15137599
:1057D000F50FE36DA8EA03C5D70171487915137574
:1057E000F50FE365A8EA03D5E7011308E00F7D157F
:1057F00042054181E36CA8E803C5070249487915D1
:105800001375F50FE364A8E8C85301C937C834001D
:105810005915130858BFE36BA8E603A8870237C5DC
:105820003400130555BF5918E36205E7172500201A
:10583000232CC58603C60501172500202328F586DD
:105840000545E375C5E403D82501D0493376060341
:10585000E31E06E203C61501E30A06E2172600204E
:105860002322B68483C5270001466387A50003C6AB
:105870001700F1453306B60283C707039305C0023C
:1058800072971A071307C70516031A9796084697C3
:10589000B387B70241553E97329742074183636E03
:1058A000E802EFB21FCE3685EF603079EFD0D03905
:1058B0002A84EF8070252A94EFC0B03D2A94EF70BF
:1058C000A0102A94EFF0FF802A94EF30800E2A94E3
:1058D000EF50300F22956FB01FCD828097270020A8
:1058E0009387078F9C47858B99E77D5582807D55EF
:1058F00041016FB05FCBEFB2DFC841112A842E8522
:1059000036C632C42EC2EF70402175D1B24622464F
:1059100092452285EFC0D004E1BFEFB29FC641118E
:10592000A307A100EF8060229305F1001705000096
:10593000130585B5EFF0EFCC014541016FB0BFC64F
:10594000EFB2BFC117240020130484880328840009
:105950007959936818009724002023AF148713788F
:105960001800631E0800BA84BE89368B328A2E89DD
:10597000AA8AEFE09FD67D15269509E531594A851B
:105980006FB03FC1EFE07FD57D152695A167E35746
:10599000F5FE97270020938767BA98433E8C814B8A
:1059A00011C70145EFC0F052933B15004A85DA86D6
:1059B0005686D285EF70F03B2A8911CD1C44F99BA5
:1059C00017270020232AF78083270C00CDDBE388EC
:1059D0000BFA82976DB726859717002023AC077EB8
:1059E000EFE07FCC4146CE85172500201305C58703
:1059F000EFA05214EFA0500C0325040BEFA0500EA3
:105A00000545EFA050140545EFF03FF18DBF971706
:105A100000209387E77B9C47858BD5C7EFB27FB685
:105A200017250020130585829717002023A2077AE7
:105A30009717002023A0077A9717002023AE077836
:105A4000EFE07044EF406029EFE0101CEFE09020A1
:105A500097170020938747769C4381C70545EF60E1
:105A60003039971700209387A76F9C4389C74165FA
:105A70007D15EF50B010EFC0B04EEFA0D0049727C7
:105A800000209387A7899C4313971701635407004D
:105A9000EFC020479717002023A8077C9717002006
:105AA00023A6077C9717002023A4077C97170020C4
:105AB00023A2077CEFF0BF949D23EFF0CFBBEFC094
:105AC00040736FB05FAE8280EFB21FAA2A84930446
:105AD000140201112E85B289A685214636C63A895F
