:040000006F10401429
:1000040000000000000000006F0080086F00401E28
:1000140000000000000000000000000000000000DC
:1000240000000000000000000000000000000000CC
:100034006F004006000000006F00E00500000000B3
:100044006F0080056F0060056F0040056F0020059C
:100054006F0000056F00E0046F00C00400000000A2
:100064006F0060046F0040046F0020046F00000400
:100074006F00401F6F00C003000000006F006003AA
:100084006F0040036F0020036F0000036F00E00265
:1000940001A001A001A001A001A001A001A001A054
:1000A40001A001A001A001A001A001A001A001A044
:1000B40001A001A001A001A001A001A0B717004068
:1000C400930670052380D704130780FA2380E7047E
:1000D40003C6B7041376F60DA385C704238007046B
:1000E400137605022DC603C6A700118A0DE22380EC
:1000F400D7042380E70403C7A700136747002385B9
:10010400E7009307004B01000100FD17EDFFB7174F
:100114000040930670052380D704130780FA2380D8
:10012400E7047D892394A700010001000100010078
:10013400238007042380D7042380E7049306100553
:1001440037270040A303D7802380070482801376D7
:1001540005046DDE03C6A700418A0DE22380D7049F
:100164002380E70403C7A700136707012385E7007B
:100174009307007D01000100FD17EDFFB717004054
:10018400930670052380D704130780FA7D892380A2
:10019400E704136505042394A7000100010001008E
:1001A4000100238007042380D7042380E7049306F7
:1001B40030053727004079B7411181460146814512
:1001C400114506C6AD2AB7170040130770052380F2
:1001D400E704130780FA2380E70403C7670413675F
:1001E40017002383E70423800704B240410182807F
:1001F40081460146814511459922B717004093066F
:1002040070052380D704130780FA2380E7047D5602
:100214002396C7022380D7042380E70403C7670417
:10022400136717002383E7042380070401A0BD4755
:100234003305F50201007D1575FD8280411122C44C
:1002440026C206C6AA84014463179400B24022441D
:1002540092444101828005041305803E4204C13F5B
:100264004180DDB7B7170040130700032388E70276
:10027400854723A2F18673002030411106C6A921C7
:10028400FDBF2303048015472303E48001002302F8
:10029400A480828083076480E3CE07FE2303048066
:1002A400828083076480E3CE07FE03454480828016
:1002B40083076480E3CE07FE2302A4808280411179
:1002C40026C44AC24EC006C61377F50BAD47AA89A9
:1002D4002E8995446306F70019456537653F8D44BB
:1002E4004E854537FD59FD1463983401B240A2444C
:1002F4001249824941018280135509011375F50F92
:10030400453F2209CDB7011126CC06CEB70408001B
:1003140051371545BD37713769372AC6A53F324570
:100324009377150089EB136515001375F50FF240EB
:10033400E24405618280FD14E9FC0145CDBF3971B9
:1003440026DC4ADA4ED852D656D45AD25ED006DECD
:1003540062CE66CCB7E700E07D5783AA070022C6C9
:1003640003AA470023A0E71823A2E718B717004001
:10037400130770052380E704130780FA2380E7043A
:1003840083C74704930B75FFB684E20793FBFB0F07
:100394008546AA892E8B328937240040E18701578C
:1003A40063FA76016308D5008946130700026313D4
:1003B400D5000157D98F93F7F70FB71C004023825C
:1003C400FC0411472303E4801305F00F5D3D094C41
:1003D400D13563697C11B70707003E9B3787070057
:1003E4007955637EEB02B3079B00636AF702A94762
:1003F4006399F90689E48144713D26850DA0DA8567
:100404000945753D05090345F9FFFD14050B4D35F7
:1004140081C49377FB0FFDF7FD3569FD7D55B71753
:100424000040130770052380E704130780FA238034
:10043400E70403C74704418B2382E704F250B7E77C
:1004440000E023A0571123A24711E2543244525929
:10045400C259325AA25A125B825B724CE24C21613D
:100464008280A5476395F90685691309F00FB306E1
:100474009900B3742B01B6941349F9FFB37499002E
:10048400856B33796901416B9387F9FFB3F72701D2
:1004940099E363FC340193D94900C147E3E637FF8C
:1004A40099BF0569C1697D19D9B71305800D6388A2
:1004B4006901130500026384790113051008CA85D4
:1004C400FD3B913521DD4E99B3843441D9B7DA85AA
:1004D4002D45F533CA94E30099F20509D933A30FE6
:1004E400A9FED5BF9387F9FF93F7F70F636CFC0858
:1004F40003C75C04B70708001377070219E3B7873B
:1005040007007955E37DFBF033079B00E3E9E7F04F
:1005140089476390F9048980D549E38E04ECDA8530
:100524000945713B11090327C9FF91472320E48042
:1005340003076480E34E07FE23033481FD17EDFBBC
:10054400FD14110B81C49377FB0FE9FF6D3B71F52B
:10055400F1B58547E387F9F4DA852D458D33938921
:10056400F4FFE38A04E8353B93F7390091EB8326E3
:1005740004800327090093074900E39FE6E63E89C8
:10058400CE84F1BFB5476396F9001305900BD539B6
:100594009DB5B1471305B00AE38BF9FE9947639EF5
:1005A400F902DA852D45213B81448D4BA149D5398A
:1005B40063967401832704802320F9008504E3985B
:1005C40034FF8327048013172B016355070023127C
:1005D400F90015B52322F90039BD9D476399F90245
:1005E40081451305B004E139BD44232009002322C9
:1005F4000900FD597D3193F77400CA9703C70700BA
:10060400FD14398D2380A700E39634FFEDB3A14791
:100614006392F904CD398144630D0B008D47930433
:10062400C0036308FB009304000563048B01930477
:1006340040041375C507E30095DC194599319939D0
:10064400054581312685AD3109459D316D39E31468
:1006540005DAE9B391476399F9001305600615318A
:1006640015391305900925B7E38709D8F15469B3FF
:1006740009CDB7170040130770052380E70413075B
:1006840080FA2380E7042396A702828019C1814758
:1006940099E982803387F500834607003307F50024
:1006A40085072300D700E397C7FEE5B719C1FD57B7
:1006B40081E98280910503A7C5FF1105232EE5FE7C
:1006C4007D16E319F6FEF5B7797122D417240000DC
:1006D4001304C46C1C4006D626D24AD04ECE91C711
:1006E40082979727000023AB076A5C4089CB03D528
:1006F4004188BD3F5C40829703D56188953F1C408B
:10070400639907189727000083C7D779858B95C706
:1007140097270000A3880778172700000347B778B6
:10072400914763FCE700792B9727000083C7B777CD
:10073400F9178A07A2979C4382979727000083C7DB
:10074400277B918B89C7971001E0E78020011C4427
:1007540091C3829793870188984317260000034624
:10076400B6613E89972400009384046197270000B2
:1007740083C7876093961700BA9683D60600638072
:1007840006109727000083C7275F63F2C708860710
:100794003E97835507002310070003D541882EC6D2
:1007A40023960188F135938781899C43172500009E
:1007B4000345855C13172500BA979C43B24582977D
:1007C400AA8903D561886D359727000083C7C75A66
:1007D400139717008327090003D5C1881345F5FF34
:1007E400BA9703D7070033753501598D2390A700B5
:1007F40083C70400850793F7F70F17270000230D1D
:10080400F756172700000347375763E6E700972793
:100814000000238307561C40ADEF9387018998435A
:100824003E8425CB9727000083C7376891CB972751
:10083400000083C7576789E7971001E0E780609756
:100844001C4082972A8431C59C48AA971727000028
:10085400232CF752938741899C4385CF03D5418844
:10086400013D228597E0FFDFE780E0512254B2503A
:1008740092540259F24903D561884561D5BB850775
:1008840093F7F70F972600002388F64EE3E0C7EEB0
:10089400CDBDB250225492540259F249456182802E
:1008A4009167B7C600409387373023A6F6200F1010
:1008B4000000972700009387274C884F938701985F
:1008C4009C43316713073730F053B7071000FD1707
:1008D400918F99833A0523A6E6205D8D828041118C
:1008E400B7170040985F3AC6945F3247E39CE6FE30
:1008F400324541018280411106C6D5379726000052
:1009040083C60645858AB1C6930730333307F5029B
:10091400B337F5023983CA07D98F172700001307A5
:10092400A745584B01456303F7023385E740636BE2
:10093400F70037653D0889C637856F0813050590AC
:10094400198D3E95172700002322F744B240410138
:100954008280E5473307F502B337F5022583DE07C6
:1009640065BF0327C50F8346B5009727000093870B
:1009740027539C4F58439386160295829043FD1645
:1009840093F6F60F10C3D04350C3904710C7D04717
:1009940050C7904B10CBD04B50CB904F10CFD04F73
:1009A40050CF91C61307070293870702C1BF828005
:1009B4008347E50193F7E70FF1EF2A870345F50134
:1009C40071E9034607018346870009CA8345A702E4
:1009D4009727000083C7D73763E7F50093F706012D
:1009E400C5CF814709CA8347871503467715C18A4E
:1009F400A207D18F81CA8346B7150347C7152207BB
:100A0400558FBA97D1CB172700001307675638477D
:100A1400411122C406C67D548326070863F3860069
:100A24003684184375FB1727000003476732931673
:100A34008701E18663D906029387C7139583172735
:100A4400000003478731BA9763D006041D8C93874F
:100A5400C1899C4382973335A400B2402244134594
:100A6400150041018280058B9387C71209CB8A0741
:100A74009387F7031305D007B3D7A702C9B786072F
:100A8400FD071305D003CDBFE372F4FC3705C0A8FE
:100A94002A946DBF014582808280411122C413844F
:100AA400019718404AC006C61C5F26C21389C19626
:100AB4009983858BC1C31C5F972400009384443EB3
:100AC40093F7F7F91CDF9727000083C7673D93F777
:100AD40007048DC39387C1899C438297972700009D
:100AE40023A8A73C83C7040093F7F70B172700003C
:100AF4002308F73A854717270000A305F73A83C769
:100B0400440093F7070481EF938701989C43D844EA
:100B1400B8D3930700FC172700002305F738838711
:100B2400640063D90700832709009C43172700004A
:100B3400230BF73618401C5F8583858BC9CBF5578B
:100B44001CDF01000100010001000100010001009F
:100B54000100010001000100010001000100010089
:100B64000100010001000100010001000100010079
:100B74000100010001000100010001000100010069
:100B84000100010001000100010001000100010059
:100B94000100010001000100010001000100010049
:100BA4000100010001000100010001000100010039
:100BB4000100010001000100010001000100010029
:100BC4000100938701989C4313075004B8CB184045
:100BD4001C5F9183858B89CFBD571CDF9387019858
:100BE4009C4323A80704854717270000230CF72AF2
:100BF40083270900D8430583058B19C7D843759B00
:100C0400D8C3D843799BD8C3B24022449244024902
:100C140041018280397106DE16DC1ADA1ED82AD622
:100C24002ED432D236D03ACE3ECC42CA46C872C650
:100C340076C47AC27EC09535F250E2525253C25302
:100C44003255A255125682567247E2475248C2485C
:100C5400324EA24E124F824F21617300203093878F
:100C6400019894431727000013078723BC5289CFA8
:100C740083472700858B89EB83473700858BFDD716
:100C84009727000023800722828037C7004013067D
:100C9400C0039306200397250000938565208327CE
:100CA4008720C18393F7F7036369F60083278720BE
:100CB400C18393F7F70363E6F60083C74500858B8A
:100CC400F9DF828093870198944317270000130764
:100CD400271DBC5289CB83470700858B91CB97276F
:100CE40000002381071C97270000A38D071A828028
:100CF40083471700858BF1DFDDB793870198904315
:100D040037C70040C145E54683278720C18393F751
:100D1400F70363FBF50083278720C18393F7F70369
:100D240063E4F6003C52EDF3828013870197184385
:100D3400AA87185F1583058B25EF03451500150554
:100D44001377C51F19C6B386E70083C626002300A0
:100D5400D60095C59726000083C6E61493F60604CC
:100D64000945A1CAB386E70083C63600054693F554
:100D7400F6066390C504E206E18663CC0602338579
:100D8400E7008347150003470500A20793F70770A0
:100D9400D98F1397070141839376074099C6136748
:100DA4000780239CE19601458280239CF196E5BF50
:100DB40005458280938601988C42368597260000EB
:100DC4009386060E984593170701C183137817205D
:100DD4003E86630408041377072079C303C72600FB
:100DE4001367170017280000230DE80A13070019DA
:100DF400B8D1130700F8972500002385E50A138767
:100E040001970C4337080010D855719B13672700CE
:100E1400D8D598413367070198C11377261005C3C5
:100E24001376061059CE03C706001367170017265A
:100E340000002307E606172700002317070683C6CA
:100E4400460093C7F7FFC207E206E186C183184153
:100E540063D106029396170163DE060630538D466E
:100E640063E9C600854617260000230DD6023453D5
:100E7400FDFE97260000938666EC8386460163DDBB
:100E8400060093960701C18663DC06047053894605
:100E940063E4C6007453FDFE1447F58F1CC78280BB
:100EA40003C716001367170097250000A38AE5FE01
:100EB40017270000230807FE17270000231607FE44
:100EC400A9BF03C736001367170017260000A30A3B
:100ED400E6FC95B78546172600002305D6FC51BFCE
:100EE40054471396060163510602B7061000FD1617
:100EF40074D397260000938626E8944E8506172619
:100F040000002327D6E849BFA166D58F71B7397190
:100F140006DE16DC1ADA1ED82AD62ED432D236D001
:100F24003ACE3ECC42CA46C872C676C47AC27EC0A5
:100F34005135F250E2525253C2533255A255125611
:100F440082567247E2475248C248324EA24E124F6E
:100F5400824F21617300203017270000130707F622
:100F64008346B7019727000083C797F8B69793F78E
:100F7400F70FFD4663EAF6044C4B97260000A38F57
:100F8400F6F29727000083C777F305473317F70076
:100F940097260000A38EF6F46D8F1DEF97260000B0
:100FA40083C656F5B3F6D70213050002814733D63C
:100FB400F500058A13F8F70F09CE6399E600972721
:100FC4000000A38D07EF828081177DB70507137793
:100FD400F70F8507E39DA7FC82809387C198984308
:100FE400B75702009387279F832607091396560055
:100FF40063580600832607091396660063440600B7
:10100400FD17FDF3828051C9AA870145C9C98D071F
:10101400C207C183F19BC207C18313074003636BFB
:10102400F702138781A10843138701A11443639630
:10103400A60217270000130767D0185B014525C3D4
:101044004111C20706C60545DD8D0297B240014530
:1010540041018280138741A1F9B70357650005EF69
:10106400035745006369F702B306F74021466370EE
:10107400D6021041938687001D8FAA96611790C2ED
:101084002392E6002393060014C12312F5002313D0
:10109400B50021058280084159BF014582808280C4
:1010A40001CD938781A103A80700938701A18C43F5
:1010B4000147C28763E3B70082809443636FF506F8
:1010C40063EDA60613868700E368C5FE03D56700B3
:1010D400216605066317C50003C601930506238828
:1010E400C1922393070063840703138641A110422E
:1010F400630FF6000356670019EA83D7470014C349
:1011040083564700B697A1072312F700BA8798437E
:10111400E304B7FA938641A19442E30FD7F88356C8
:101124006700D9FA83D64700035647001843A1063F
:10113400B2962392D70098C382803E87B6879DBF1C
:10114400974100209381C11617710020130141EBD0
:1011540013054000972500209385856A17360020E3
:101164001306067E63FAC5008322050023A05500FA
:1011740011059105E3EAC5FE17D50100130505D253
:10118400973500209385C57B1386018663FAC500D5
:101194008322050023A0550011059105E3EAC5FE4D
:1011A4001385018697550020938545676377B500BD
:1011B400232005001105E36DB5FE9302800873A09A
:1011C4000230972200209382A26393E2120073906C
:1011D4005230971200009382E2EB73901234730042
:1011E40020303D432A876373C3029377F700BDEF32
:1011F400ADE5937606FF3D8ABA960CC34CC30CC783
:101204004CC74107E36BD7FE11E28280B306C340AB
:101214008A069702000096966780A6002307B70007
:10122400A306B7002306B700A305B7002305B7003C
:10123400A304B7002304B700A303B7002303B70034
:10124400A302B7002302B700A301B7002301B7002C
:10125400A300B7002300B700828093F5F50F93969F
:101264008500D58D93960501D58D61B7939627009A
:101274009702000096968682E78086FA9680C117C8
:101284001D8F3E96E374C3F8A5B7B717004003C794
:1012940077051377E70FA38BE704130700F8A38DF3
:1012A400E7043D47238CE70413075003A38CE704AA
:1012B400828041112A83014E930E407E130F001940
:1012C400930F400663EB6E0A93080019130340065C
:1012D400B3781503854E0D4FA14F337365020D8905
:1012E4001335150063E5BE0C1308F6FF79467298B2
:1012F4004208135808013307C70213D61700BE0764
:1013040032976146B3F6C60213068070B386C602EE
:101314003697A166F58F42075D8FB717004083C6E5
:10132400F70293F60608A307D1000346F10083C62B
:10133400F70293F60608E394C6FE8346F10093F69B
:10134400F60FF1DE930670052380D704930680FA26
:101354002380D70423AA070383C6170393E606084A
:10136400A388D702D8DB03C7170313670704A3882E
:10137400E70223800704410182807D133368E3037D
:101384009308E016630E08003368F3039308D0163D
:10139400630808009378330093B818009388D8162C
:1013A40033081E01131E0801135E0E0121BF63934F
:1013B400E5030548638608000148630303002A889F
:1013C40071087298FD15131E0801C205135E0E0103
:1013D400C18109BF13F8150063F4BF007908D5B7BC
:1013E40013381800E5BF914763EEB70217C7010031
:1013F4001307872A8A05BA959C41BA978287B7173B
:10140400004003A7470B1345F5FF698F23AAE70A9A
:1014140003A7070B698F23A8E70A03A7070A798D97
:1014240023A0A70A8280B717004083A6470B13475F
:10143400F5FFF98E23AAD70A83A6070B558D23A897
:10144400A70A83A6070A758F23A0E70A8280B71725
:10145400004003A7470B498F23AAE70A03A7070BFA
:101464001345F5FF45BFB717004083A6470B134745
:10147400F5FF758F23AAE70A03A7070A598D4DB70D
:10148400B717004003A7470B498FEDB7B7170040C4
:1014940003D58700420541819377050491EB937747
:1014A400F5013755E801130505803345F5028280BF
:1014B4009377050C130700046397E7009377F5010E
:1014C40037459C1CCDB72165130505D08280B7F73D
:1014D40000E0C8439C478280814737370040A146DB
:1014E40063C4C700328582800345B740E38EA6FEFD
:1014F4003385F5000345050085072304A740CDB7D0
:10150400973700209387C75A9C4317570020130727
:10151400E7303E95636EE500177700201307478E8A
:101524006368A700173700202324A7583E858280CC
:10153400FD57EDBF411122C406C62A84813F2947C5
:10154400B307E502B2408D83B3D7870222449507DF
:10155400B3D7E70237370040C207C1832316F740E9
:1015640041018280716541111305052006C6D937F2
:10157400B7370040130770F82381E7400D47A38174
:10158400E74013070004A380E74005472387E740AB
:10159400B24041018280411193962500AA852D45D0
:1015A40006C697200020E7808059B24001454101DA
:1015B4008280411126C29394250022C44AC02A8401
:1015C4003289A686AA850146254506C697200020AD
:1015D400E780E056A6864A86A28529459720002002
:1015E400E780E055B240224492440249014541015A
:1015F4008280011122CC06CE3714004026CA4AC884
:101604004EC652C483447405034AB4058349840511
:10161400034994059D398347A40593F4F40F137A81
:10162400FA0F93E71700230DF40493F9F90F1379D4
:10163400F90FB717004003C7A705058B6DFF03D546
:10164400C705A38D4705238C3705A38C2705A38BDA
:101654009704F2406244D2444249B249224A0561A5
:10166400828041119397050122C406C6C1872E8446
:1016740063DD0700EF00502F19C1EF0050282165EA
:10168400218DB24022444101828093F7150013C595
:101694001500E5FB9397250163DF0700EF30A15E9A
:1016A40037F60200130606E0896503C50186EF00DC
:1016B400D07C0965F1B7939715010145E3D307FC85
:1016C40017C5010013050503EFA071651306006437
:1016D400916503C50186EF00507A116555B71D71F8
:1016E400494697C50100938565FC17C5010013059C
:1016F400A53C86CEEF00306001E917C50100130553
:1017040025FCEFA0D16101A037F700E0F9575CC7D1
:10171400FD571CCB8566B7E700E023A0D71013065E
:10172400701010C3B8434146B0C323A0D718B8C340
:10173400010001001306C00381454808EF009055DD
:10174400973700209387475F3ECA8967938707804E
:10175400231CF100ED57A301F1029307A0502312BB
:10176400F102D1472303F102A167938707E03ECE3C
:1017740097070000938767E2BEC49707000093872A
:1017840087E3BEC6B5472308F102B7F507009707FC
:101794000000938707D43EDA8146970700009387B9
:1017A40087E57000E10519453EDE97200020E780BB
:1017B400003958088147994670003E960346060052
:1017C40085070507A30AC700E398D7FED24791C748
:1017D4000357810185676373F70001A04808EF1080
:1017E4004026AA8501C917C501001305A5EEEFA07F
:1017F400714101A0F6402561828041111705000066
:10180400130565E606C622C4EF1020201384018662
:101814002300A4002928034504002244B24037F6DB
:101824000200130606E0896541016F00106541114D
:1018340006C6B7170040130770052380E704130793
:1018440080FA2380E70403C7F7021305407E81462C
:1018540013677700A387E7022380070401478147C2
:1018640005468545B934B240014541016F10604ACF
:10187400411117C501001305E50706C6EFA091380D
:10188400B2408547A386F18641018280B305B0400A
:1018940017C501001305C5106FA0D1368347250075
:1018A4003547636BF72217C701001307E7E48A077C
:1018B400BA979C43797122D406D626D24AD04ECE0A
:1018C400BA972A84828703C74187A54763E8E70656
:1018D40003494500930955008144138481A303C53A
:1018E400418763E4A4060E0509051946CE852295B1
:1018F40097200020E780805983C54187939735005E
:10190400850593F5F50F1386F5FFA2970E0622962B
:10191400A3802701238AB1868348760003486600A2
:101924008347560003474600834636000346260095
:1019340017C501001305C5F0EFA0D12CB2502254F5
:1019440092540259F2494561828093953400890585
:101954001946A2954E85EF00103A6DF1850493F473
:10196400F40FB5BF05041374F40F83C74187637B79
:10197400F4009315340089051946A6954A85EF00AD
:1019840090376DD183C74187639C870217C50100D7
:10199400130585EDEFA0B138014685450D45238A31
:1019A4000186EF60011217C50100130565E8EFA079
:1019B400113769B70144938481A31389418075B7B2
:1019C40017C50100130585EBEFA07135938781A33B
:1019D4000E04930624003E9403461400BE968145EB
:1019E4000145EF60210A0566130606C89305001039
:1019F40003C5A187EF00704817C50100130505E969
:101A04007DB79305001003C5A187EF00905D834562
:101A14001400A1E90355A4008947A38AF186239AF7
:101A2400A1808547A386F18603C6A1879307700F1B
:101A34006C002316F100EF40A04013060064A1459A
:101A440003C5A187EF0070431306006493050020CB
:101A540003C5A187EF00704217C50100130505E413
:101A6400B9B717C50100130565E4EFA0B11917C58F
:101A740001001305E5DBEFA0912A238A01860146C4
:101A840085450D45EF60E10355BDA38A0186F957ED
:101A94009305000803C5A187239AF1802386018654
:101AA40023950186238A0186A3860186EF0070535D
:101AB4008345640017C50100130505E1EFA09114E7
:101AC40017C501001305C5D6EFA071254DBF17C575
:101AD4000100130525E1E1BD8280011122CC36C647
:101AE40006CE2E84EF00407EB24637460F00130622
:101AF40006243376C50291CAB28517C501001305C1
:101B040025E932C6EFA01110324622856244F24024
:101B1400814505616F70C10681E9B28517C5010071
:101B2400130505E06FA0110E8547639DF50017C5E9
:101B34000100130525E009C617C50100130585E05A
:101B44006FA0F11D89476398F50017C501001305BF
:101B540065E07DD682808D47E39EF5FE17C50100C2
:101B6400130545E071DEB28517C501001305C5E014
:101B740055BF79719397050126D206D622D44AD04F
:101B8400C187AE8463D5072603C5A187F12B2A84B8
:101B94000DC5034705009307000B631EF70083C7B9
:101BA400518709478345450013098500638FE70082
:101BB4004A85EF407001228599232165258DB25015
:101BC400225492540259456182800D476381E50293
:101BD40005476390E50203478500631AF7028345CE
:101BE400C50017C501001305A5B4EFA0B101A38674
:101BF4000186034744009307F007631AF7008355EF
:101C0400840017C50100130525B4EFA0A17F834705
:101C140044002D476387E7020547639CE7020347B7
:101C24008400A9466311D7048345C40017C5010085
:101C3400130545B2EFA0017DA386018683454400C8
:101C440085BF5C4417C501001305C5B183C50700F2
:101C5400D5B74D476393E70217C501001305C5B215
:101C6400EFA0F10BD1BFC9466315D7028345C40069
:101C740017C50100130505B075BF6D47639BE700E9
:101C84001387018718438357A400BA9723A8F186C2
:101C940075B703C7C1865DD385466319D7081D4749
:101CA400639CE7028357840085CB5C4417C501001D
:101CB400130585AE83C5170003C6370003C70700A5
:101CC40083C72700A2052206D98D5D8E239CB18689
:101CD400239BC186EFA00173834744001D4763958E
:101CE400E70403471400E947E39AE7F483D78187BD
:101CF400B1D72314F1009387618783D7070009477D
:101D04002386E1862315F100F9779387271023169C
:101D1400F100FD5703C6A1872C0003D54181230799
:101D2400F100EF40A01B19BF05477DBF8946631929
:101D3400D70625476394E7028357840085C35C4430
:101D440017C50100130505A883C5170083C707003D
:101D5400A205DD8D2395B186EFA0C16A83474400B7
:101D64002547639DE70203471400E947E398E7EC3E
:101D74008D472386F1869387818783D707002314B1
:101D8400F1009387618783D707002315F100930738
:101D940020202316F10093079002ADBF0547F9B741
:101DA4008D46E31DD7E825476390E70483578400F5
:101DB40085CF584493050004130600648347170035
:101DC4000347070003C5A187A207D98F2394F1868F
:101DD400A3860186EF00700A83D5818617C50100AA
:101DE4001305C5A0EFA001622386018681BD93F788
:101DF400150091CF17360020130686B49385C18051
:101E040003C5A187EF50B14213C514004DBB93F72E
:101E1400051081CB41657D15EF70B12813C5041001
:101E240079BB93F7850085CB81572314F100239563
:101E34000186239B0186239C0186854783C6A1874F
:101E440009462C0003D541812386F186EF406027A3
:101E540013C58400ADB393F7050189CF130780251B
:101E640081465146D14503D54181EF50114513C5F3
:101E74000401B1B393F70502CDC383C7D186A5E7A7
:101E840003C7618183D7A18603D541812DC723145C
:101E9400F1000147854781460546C94523180100DD
:101EA4002315F100EF40A00B2AC615CD9307A0051A
:101EB4002300F50003C6A1872C0003D54181EF4020
:101EC40060020DE58547A386F18683C7618193B7D8
:101ED4001700130600649305000203C5A187238B32
:101EE400F180EF00807913C50402D1B9C9452800F7
:101EF400EF40804DCDBF03C6A1872C002314F10011
:101F0400EF30907D6DF18547A386F18683C76181AB
:101F140093B71700238BF180F9B793F70504B5C382
:101F240083C7D186B9E79387818683D707000147A2
:101F340081462314F10009468947C94503D54181E7
:101F4400231801002315F100EF4060012AC615C1D2
:101F540085472300F500B24703C6A1872C00A38060
:101F6400070003D54181EF30F07719E58547A38653
:101F7400F18613C50404A1B1C9452800EF40C0444B
:101F8400CDBF93F705088DC303D54181EF7031119F
:101F94000566130606969305000803C5A187EF009E
:101FA400C06D13C5040821B993F705200145E388E2
:101FB40007C0938701878C4317C5010013058586E5
:101FC400EFA04144130600649305002003C5A187D4
:101FD40023A801865D2513C50420D5B60111170574
:101FE4000000130545B906CE22CCEF00102213845D
:101FF400A18785652300A400938505960945EF20F4
:10200400805299451D45EF20005299452145EF2006
:102014008051930540063545EF20E05085470D4734
:10202400700091451305F0402304F100A304F1006E
:102034002305E100A305F10002C6EF60F15B300067
:10204400854513058040EF60315B1306910085459B
:1020540013059040EF60515A1306A10085451305FE
:10206400A040EF6071591306B10085451305D040B7
:10207400EF609158EF40506603450400EF40D011E3
:10208400034504008545F921F240624405618280DC
:1020940041111305800406C697200020E7800082C2
:1020A400371700408327870A8D451305002093E7DF
:1020B40007202324F70AEFF00FB3EFF0AFCA17C5D8
:1020C40001001305659FEFA08145EFF04FE1EFF0AC
:1020D400CFF2EF70417F193797200020E780E09915
:1020E40023AC05FE1C4191E7010001000CC1828074
:1020F400BA8703A787FF6DFF23ACB7FE82801DC19B
:102104008346E5FF1307F00F9147639EE6004111F4
:1021140006C697200020E780A078B24081473E851C
:102124004101828095473E85828001E90145828094
:102134000145B240224441018280411122C42A84D3
:10214400210542059305D004418106C6972000204D
:10215400E780606B71DDFD572320050023128500A5
:102164002303F5002105F1B71387C1871C434111EF
:1021740022C426C24AC006C601440149BA8489E77A
:10218400A16585250DC401A803C7E7FF6318A7024D
:102194001DC8A165C1269840832784FF6317E40204
:1021A40023AEF186FD57232C04FE230FF4FE228573
:1021B400B2402244924402494101828011E03E89A6
:1021C40083A787FF6DBF3E84E5BF232CF9FED9BFEB
:1021D400A9C9411122C406C62A849747002083C78F
:1021E40077392E856368F400193F0D45B2402244C7
:1021F4004101828083A785FF99E703C7E5FF930721
:10220400F00F6305F700E53D1545CDB7238F85FE37
:102214001385C187F13522852244B240A16541016D
:1022240015AE1545828023AE01868280938741894D
:102234009C4399E33E85828003D727006316B70049
:1022440003C70700E308A7FEDC47E5B741119397EE
:1022540005014AC006C622C426C2C1872E8963DE90
:102264000700193711C1613D21653345A900B2400A
:1022740022449244024941018280AA860145E5D95B
:1022840001443D47B3578940858B95CB938781881B
:102294008443BD4791E28147A2978E070545BE94CA
:1022A40033158500131405019C40C8404180829772
:1022B40023A0040023A20400334524014DBF0504D8
:1022C400E312E4FC0144CDBF974700209387C7265F
:1022D4009C53411122C406C61384818195C78297F9
:1022E40023ACA1800840B74703009387D73F330549
:1022F400F502B7A72600938737ECB24022443E95F7
:1023040023ACA180410182809747002093878726D0
:1023140018409C4BBA9723ACF180E9B793870188A6
:1023240090439746002083C6F624814713F7F70F9E
:102334006360D70A174700200347B736914763E025
:10234400E70A9747002083C7673A918BC9EB0111CD
:10235400680006CE22CC26CAEFC0F02EFD56630FCD
:10236400D50C32479747002083C7371E63F3E70C29
:10237400174700201307072040471747002003474B
:10238400E71C6305D406058B21CF51473304E402CF
:1023940063F1870A97200020E78060D4B247637313
:1023A400F400A287174700200347371A998F3E95F8
:1023B40097470020938747188387470163CD070217
:1023C400B707C0A86369F502B70740573E9525A033
:1023D40085071397170032970357E7FF21DB8280A5
:1023E400130790023304E40205805DB76207618736
:1023F400635707001D8D19E93705C0A801A8E37BC1
:10240400F5FE3707C0A8B307F7403E95974700206D
:1024140093878712DC53829709ED974700209387AF
:10242400E7279C4F99C7EF204130EF20B119EF20E7
:102434002124F2406244D2440561828097470020FF
:1024440093874713DC47E386A7FE1747002013074B
:10245400A70E83464701BA84858A9DC651443384B6
:1024640087029747002083C7570EE3F487FC972021
:102474000020E780C0C69747002083C7170D1D8C36
:102484002295838744011DBF13049002338487027D
:102494000580C1BF2A9609E582800505A30FB5FE14
:1024A400E31DC5FED5BF81473307F50003070700C9
:1024B40019E33E8582808507C5BF01112E8626CA91
:1024C400AA84131506019305F004418122CC06CE9B
:1024D40032C697200020E78000332A8419C532468B
:1024E400A68597200020E780609A2285F240624406
:1024F400D2440561828081476314F60005458280D9
:102504003307F5008507B386F5000347070083C644
:10251400F6FFE383E6FE014582809307F6FFBE954E
:102524002A966313C5008280FD1583C7150005052F
:10253400A30FF5FEFDB7814711E9014582803307FA
:10254400F50003470700E31AB7FE8507E319F6FE13
:10255400054582809747002083C7D701637FF50034
:10256400138701889317150008433E958357050088
:10257400DD8D2310B500014582800D458280FD5715
:10258400011117470020232DF7FE9387418922CCA0
:1025940080434EC697490020938909FA26CA4AC83F
:1025A40052C456C206CE5AC02A8981444E8A974ADA
:1025B4000020938A2AFC184481476374E900B30716
:1025C400274103A749021CC409CB03A7CA0063F629
:1025D400E700174700202325F7FAA1E783552400D5
:1025E4009DE95C44A1E823AAF188032BC400228559
:1025F40097200020E780C02A5A8455FC83274A028A
:1026040085CF6244F240D2444249B249224A924AB6
:10261400024B056121B3034504002D3F5C4081CB8F
:102624001CC483572400D5DFA2844044F9B71C445A
:10263400CDDBC5BFDCC455BFF2406244D24442493D
:10264400B249224A924A024B056182809747002090
:1026540083C757F26371F502138701889317150036
:10266400084393C5F5FF3E9583570500FD8D231060
:10267400B500014582800D4582809747002083C7BD
:1026840077EF6364F50001458280411122C426C2BC
:102694004AC006C62A842E89B284493E01C504C5AF
:1026A40005452DA0936504F0C205C18141459720DD
:1026B4000020E78040150DE1974700209387C7E786
:1026C4009C5B81C7A285114582970145B240224493
:1026D4009244024941018280938741899C438DE35E
:1026E40023AAA18885472326050004C523112501B3
:1026F40023008500A300F5002322050055B7BA87FF
:10270400D84775FFC8C7F9BF45C539715AD0138B6F
:10271400818822DC26DA4AD84ED652D45ECE66CAE6
:102724006AC86EC606DE56D262CC3689328AAE8953
:10273400AA8401445A8DB94D854BF94C03270B00EB
:10274400131C3400937AF40F62971C43A9EF13B55A
:10275400FA0013451500B3978B0063F65D019307E8
:1027640014FFB397FB0093950701C181528631375B
:102774001DC983270D000145E29784C323A23701B5
:102784006304090023005901F2506254D25442599F
:10279400B259225A925A025BF24B624CD24C424DCD
:1027A400B24D216182800504E31A94F92145E9BF01
:1027B40009458280411122C426C24AC006C6AA84A1
:1027C4002E8932845D3DCA8526858D3409C940C170
:1027D4000145B2402244924402494101828021458C
:1027E400CDBF411122C426C24AC006C6AA842E897E
:1027F400353C2A8419C1231105009747002083C75B
:1028040067D76394970023962189CA8526853D3D21
:10281400014511E01945B240224492440249410164
:1028240082807547636BA704138781881443411121
:1028340026C293143500A696944222C406C6AA87DB
:102844003A84094595C613B5F70039471345150071
:102854006373F700C5178545B395F500C205C181BB
:1028640049371C400145A69723A0070023A207006F
:10287400B240224492444101828009458280411140
:1028840006C6EFF0BF9A09C50845B24041018280EF
:102894000145E5BFF54763EDA704938781889C4311
:1028A40013173500BA979843894721C7011126CADF
:1028B40006CE9334F50022CCB94793C4140063F3D5
:1028C400A700451505443314A400420441802EC6D4
:1028D4002685A2856D378947324609C5A285268596
:1028E400693B8147F2406244D2443E85056182805F
:1028F40089473E858280411106C623A8A188029596
:10290400B2409747002023A1A7C801454101828016
:10291400994763E9B7008A05974700209387C7C79B
:10292400BE9588C18280411106C6EF70E1017146EF
:10293400814517450020130525C6A93E130640020C
:102944008145174500201305E5C2A93623AA01884D
:1029540023A801889747002083C7C7BF13D5270042
:102964008D8B3E958D473305F50293051010350583
:102974001375F50F97470020238FA7BE994733059A
:10298400F5021305050F97200020E780C0E723A474
:10299400A1882DC99947174600200346C6BD3306B2
:1029A400F60281451306060FF534938781889C430C
:1029B4009387070F23ACF188174700200347A7BB71
:1029C4000A07BA9723A0F188EFF0FF854D26938775
:1029D400818998439747002083C7D7B993962700E6
:1029E400BA96170600001306A68690C2938627009F
:1029F400850793F7F70F8A0797450020A38CD5B670
:102A0400BA9790C3B240410182809747002083C7A0
:102A140077B617470020034707B663F1E702138729
:102A2400818918439386170017460020A304D6B45F
:102A340093962700369708C33E8582809307F00F4C
:102A4400E5BF1C416380071A41777D8FB7060020DC
:102A54008947631AD71803574500630607184111BD
:102A640022C419462A849305F00F590506C6E13499
:102A740005478D476303E5161C4481CB5858994795
:102A8400630D0714185C630A07141306C003814519
:102A940017450020130545AAEFF0DF9F1306C00376
:102AA400A28517450020130525A997100020E7806B
:102AB400E03D9747002083D7E7A8974600209386F8
:102AC400A6A799E79307001017470020231CF7A631
:102AD4009747002083C727A791E78547174700201A
:102AE4002303F7A69747002083C7F7A591E7ED478F
:102AF40017470020A309F7A49747002083C7C7A45A
:102B040091E79547174700202300F7A49747002033
:102B140083C797A391E7854717470020A306F7A229
:102B24009747002083C797A299E783C706011747F1
:102B34000020A30DF7A09747002083C707A191E7C2
:102B4400D147174700202302F7A09747002083C7E7
:102B540087A095E7174700200347479F131687016F
:102B640061869307C002634806009377170093B702
:102B740017009387D70217470020230EF79C974727
:102B8400002083C7979C95E7174700200347079CBD
:102B94001316870161869307C00263480600937782
:102BA400170093B717009387D70217470020A30E87
:102BB400F7988347D40191E7894717470020A30B6F
:102BC400F7989C5691C78297974700202397A79A16
:102BD400993BFD57A38EF19E8147B24022443E8526
:102BE4004101828089473E858280011122CC06CE34
:102BF4002A842EC6EFF04FEDB245F240818D33A505
:102C0400A502229562441375F50F056182800111B6
:102C140022CC06CE2A842EC6EFF00FEBB245F2404A
:102C2400818D33A5A5022295624442054181056147
:102C34008280011122CC06CE2A842EC6EFF0CFE882
:102C4400B245F240818D33B5A502229562440561F7
:102C54008280974700209387278E985725C3411178
:102C640022C426C206C6BE84029717470020035713
:102C7400C7902A8441C7BA876373A700AA87C2078B
:102C8400C183BA866373E400A286C206C182958FAB
:102C940051476355F706DC5491C38297854717471C
:102CA40000202301F7A0EF10117E97470020239600
:102CB400878CB2402244924441018280974700208D
:102CC40083C7479E9DE7974700209387279D83C727
:102CD4009700850793F7F70F17470020A304F79C85
:102CE400A18B9DC7854717470020231DF79A6F10B6
:102CF400717F97470020A387079AD5BF9747002085
:102D040083C7479ADDD72244B24092444101C5B7F4
:102D140082809747002093872782D857011122CCBD
:102D240006CE3E8401C72AC60297324509CD23AE9A
:102D3400A188171500201305053C753EF240624436
:102D44000145056182808307440163DD07009747DD
:102D5400002023AD0782971700209387673423AEA2
:102D6400F188C1BF9717002093876737CDBF011142
:102D740022CC173400201304247C084406CE26CA2F
:102D84004AC801E90545F2406244D244424905611A
:102D940082805C58E5DB185C75D7700085458297A6
:102DA4001844B247E300F7FE9305E004173500200A
:102DB4000355457997200020E780E0A417370020C9
:102DC4002328A77C61D1173600200356A6779305E4
:102DD400F00FEFF02FEC81441739002013098979A3
:102DE4009737002083C727760326C90163C1F402FD
:102DF400328597200020E780A0AA0145973700205C
:102E040023A807789737002023A60778ADBF973506
:102E1400002083D52573B38795020844185C898103
:102E240085043E9508C2029765BF411122C4173438
:102E34000020130464701C4426C206C64AC097349A
:102E440000209384247391EBC84C35E9B2402244AA
:102E5400924402490145410182801C5CF5D7DC4C57
:102E640099EF9305E004173500200355A56D9720CD
:102E74000020E78040999737002023ABA770C84C07
:102E840061D5173600200356E66B9305F00FEFF07B
:102E94006FE001499737002083C7E76AD04CE355B8
:102EA400F9FA9735002083D5E569338525031C4459
:102EB400898105093E951C5C08C28297E1BF972071
:102EC4000020E780E09D9737002023A3076C973705
:102ED400002023A1076C9DBF011156C2973A002020
:102EE400938A8A6583A78A0022CC4AC84EC606CE36
:102EF40026CA52C45AC0AA892E84328963850722FD
:102F040003A74A03630707147D476366A71497342E
:102F140000209384246603AAC40163170A0A9565F2
:102F2400938515E0173500200355C56197200020CF
:102F3400E780608D9737002023ACA7642A86630A54
:102F4400051083A74A0303A58A009735002083D57B
:102F5400655F8981829783A78A0003AAC401173712
:102F640000202329F7628947639CF908C14763124B
:102F7400F40E9735002083D5E55C938505FC9147D5
:102F8400B3C5F5028A05D29503C705009307A005CA
:102F9400631DF70A83C715006399370B4A85228698
:102FA400910597100020E78060EEDC4C5285639316
:102FB40047150145F2406244D2444249B249224A8B
:102FC400924A024B056182809850E38EE7F895653A
:102FD400938525E0173500200355C556972000201A
:102FE400E78060822A8A35C52A8683A74A0303A517
:102FF4008A009735002083D5E55489818297A5B747
:103004008D47639DF900C1476315F404973500208B
:1030140083D54553938545FDF199B5B79147639A97
:10302400F900631834039735002083D5A551A11501
:10303400E5B7C147639FF900A14763EC8700973563
:10304400002083D52550C115C1BFDC4C5285639740
:10305400470D294585B71307F006568B6361A70A08
:10306400130A05FE1947334AEA02173700200357AB
:10307400674D973A0020938AEA4F330AEA023E9A50
:1030840083A70A026395470183A4CA019DE49305BB
:10309400E004173500200355E54A97100020E78027
:1030A4008076AA845DD583274B039735002083D58A
:1030B40065492A8689815285829791451307A0051F
:1030C400898193972500A69783C607006393E60436
:1030D40083C61700639C360385058A052286A69558
:1030E4004A8597100020E78060DA83A7CA01E3824B
:1030F40097EC268597100020E780807A5DBD130742
:10310400E007E368A7F4130A05F985B783D5270018
:1031140045BF83A7CA01E38E97F226859710002046
:10312400E78000783DB7973700209387A744CC4FBA
:103134008DD191479306A0058983139727002E9775
:1031440003460700E317D6F003461700631C360155
:1031540085078A072286BE954A8597100020E78056
:10316400E0D281BD83572700C1BF973700209387E2
:10317400A73C984739C79C5FA9C705476313E50473
:10318400411122C4173400201304C43E504C06C617
:103194000DC608509735002083D5C53A898182979A
:1031A400484C97100020E780A06F9737002023A198
:1031B400073E9737002023AF073CB2402244410129
:1031C400828082800111173700201307E7364EC62C
:1031D4008329870022CC26CA4AC806CE52C456C2C6
:1031E400AA842E843289638A09201C5FBA8A99EBE7
:1031F4002945F2406244D2444249B249224A924AA1
:10320400056182805C5BEDD7FD4763E9A70E9739C2
:1032140000209389293683A7C901B1CB03A58A006D
:1032240083A709026395A70689476393F408C147F6
:10323400E310F4FC173500200355C53091471305FE
:1032440005FC3345F5029317250003A5C901228621
:10325400CA853E959307A0052300F500A3009500B9
:10326400110597100020E78060C2014559B7930506
:10327400E004173500200355E52C97100020E78063
:1032840080589737002023A5A73049F995B783A71D
:103294004A0303A6C9019735002083D5A52A89814D
:1032A400829783A78A00173700202325F72EADBF06
:1032B4008D47639EF400C147E31CF4F217350020E8
:1032C40003554528130545FD9377C5FFBDBF9147B9
:1032D400639AF400E31E94F0173500200355852605
:1032E4002115DDB7C147E395F4F0A147E3E287F088
:1032F40017350020035505254115F9B79307F00646
:1033040063EAA706930705FE1947B3C7E702173711
:10331400002003572723173A0020130AAA25B3874E
:10332400E702BE998327CA01A9CF83270A02639AB9
:1033340037070325CA0191461308A005FD5593D705
:103344002600C207C183139727002A970346070064
:10335400631D0607834817000356270063959806E4
:10336400B306D64063CF860485078A072286CA85BA
:103374003E95C5BD9307E007E3ECA7E6930705F97F
:1033840079B79305E004173500200355A51B971062
:103394000020E78040479737002023ABA71E51F554
:1033A40081BD83A74A030326CA019735002083D52C
:1033B400651989814E8582979737002023AC371D84
:1033C4008DBFA300B700B2869DBFB38586001736B4
:1033D4000020035626179105130606FCE3FAC5E000
:1033E400130634001376C60F1106B29623000701A4
:1033F400A30097002311D70085BF97370020938738
:103404006717D44FBE89A1C203A5C9019146130809
:10341400A005FD5593D72600C207C1831397270043
:103424002A970346070063160605834817000356C8
:10343400270063989800B306D640E3D786F2A3002A
:10344400B700B286C1BF8357C700173500200345B4
:10345400850F9305E0043305F50242054181971079
:103464000020E780403A9737002023A3A71249FDA4
:1034740041B3173600200356E60C9735002083C568
:10348400850CB385C502338686001106E3E2C5D6F2
:1034940081BF01458280011106CE2EC6EF70B00CAB
:1034A40001C9B245F2400355250005616FA0304CB7
:1034B400F240494505618280A384018C2384018CF8
:1034C40023A8018A23AA018A23AC018A23AE018A94
:1034D40023A6018A23A4018A973700209387870DA6
:1034E4003707B40098C33747A000D8C33707100084
:1034F4009306070A94C7B7065000C106D4C79306BB
:1035040007054107D8CB3707D007410798CF3707BE
:10351400840398D337C70700130707B8D8D3416784
:1035240094CB93060701130717F8D8D7370781FF01
:1035340098DB7D5723AE070094D7239AE702828055
:10354400011126CAAA84214522CC06CE2E8432C675
:1035540036C43AC2EFE07FBD1DC9A24612473246C7
:10356400930700FD2300F5009947A300950023016C
:10357400F5002303D500A303E5002312C500AA85A3
:1035840022856244F240D24405616FE07FC4F24078
:103594006244D2440561828023A8A18A828023AA3E
:1035A400A18A828023ACA18A828023AEA18A8280F0
:1035B400011122CC4AC806CE26CA2A890144B30482
:1035C40089006368B400F2406244D2444249056110
:1035D40082802EC6EFE05FCF93170501C183A183DC
:1035E400B2452380F4009307140093F7F70F850482
:1035F40063F9B700CA9709042380A7001374F40F72
:103604007DBF3E847DBFC16717350020035565FE2D
:10361400FD176302F502411103C641959385018CA0
:1036240006C6EF708055B240FD57173700202312AD
:10363400F7FC41018280828009C925151375F50FB5
:103644001335850E13451500828001458280238041
:103654000500F94763E2C708797122D426D24ECE19
:1036640056CA5AC806D64AD052CC5EC63684B289E7
:10367400AE8A2A8B814463FF3405B307940003CADE
:103684000700138914001379F90F63050A04B307BB
:103694002A0163C1F904B307240183CB07005E85C3
:1036A400613F0DC99307FAFF2380FA0063906B030F
:1036B400130519002295B250225492540259F2492A
:1036C400624AD24A424BB24B45618280D29493F40F
:1036D400F40F55B70145C5B701458280411126C293
:1036E400AE8422C49737002023ACC7F0973700205C
:1036F40023A6B7F09737002023A0A7F02A844146D9
:103704009305F00F26854AC006C60549EFE0BFE2DF
:10371400631E250397370020938747ED884BC145E7
:10372400413D41469305F00F2285EFE0DFE08544FB
:1037340063169502224497370020938727EBB24003
:1037440092440249C847C14541019DB5414681455E
:103754002685EFE05FDEE31625FD6DBF414681451A
:103764002285EFE05FDDE30795FCB24022449244FA
:10377400024941018280411122C426C22E84AA84B6
:1037840013060002814517350020130525E606C6F9
:10379400EFE05FD097370020A38B97E4A38B81944D
:1037A400EFA0B01E854719C181474945B240224464
:1037B40017370020230CF7E29244410182808147AD
:1037C40081CD19C98547631BF50083C7550093E76D
:1037D40007FCA382F50085473E85828089476317ED
:1037E400F50083C7550093F7F703E5B70D47854701
:1037F400E314E5FE03C755001377F70313670704C3
:10380400A382E500D1BF81478DC105C103C755001F
:103814009306000C85471377070C6308D7009306BB
:1038240000048D476303D70089473E858280411198
:1038340022C4005D06C626C21DC8AA84085009C554
:1038440097100020E780C005485009C59710002054
:10385400E7800005085409C597100020E78040045C
:10386400228597100020E780A00323AC0402B24015
:10387400224492444101828009ED9737002083C796
:1038840007D7173500201305E5D781CB1385018AA7
:103894008280173500201305E5D682801735002075
:1038A4000345E5D4828097370020938727D4C847FF
:1038B400828097370020938767D3884B828097371D
:1038C40000209387A7D2DC4B88438280973700205F
:1038D4009387C7D1D84B1C4385071CC317350020D9
:1038E4000345F5D09307F00F6305F50091656FE08C
:1038F4007FC68280011122CC06CE2E8432C6EF70A0
:10390400C0559147B245631FF5009387C18B9C4313
:103914008DC303A30700630E030022856244F240B3
:10392400056102839387418B9C4381C703A34700AE
:10393400DDB7F2406244054505618280011122CC65
:103944002A840355450006CE26CA4AC84EC6EF70DF
:10395400A0312DC52A89834405008349C500C13D92
:103964004A85EF80202503554400EF70804A83C7C1
:10397400818CA9CB6398970483C5918C2685213EBD
:1039840019E12384018C03554400EF70004D9147E5
:10399400631FF500035744009737002083D767C59A
:1039A4006317F700FD57173700202314F7C4F240BC
:1039B4006244D2444249B2490561828081499304F8
:1039C400F00F75B79307F00FE38FF4FA83466400A2
:1039D40003564400034524004E87A685953665B7F3
:1039E40079715EC6AA8B2E8552CC56CA5AC806D6A1
:1039F40022D426D24AD04ECEAE8A328B368AEF708B
:103A0400A0266DC1045D2A89F1CC9C50614599C3FF
:103A1400130540039C5481C7510542054181630548
:103A24000A00710542054181DC5081C759054205F0
:103A34004181EFE08FEF2A8455C561468145EFE06F
:103A44007FA59739002083C9E9B9639409008349A4
:103A54000900930700FD2300F400A947A3007401A3
:103A64002301F400230364018C5023125401130531
:103A7400840191C908C47146930A44039700002045
:103A8400E780C04056858C5491C948C45146930A76
:103A9400450197000020E780603F5685630C0A00CB
:103AA40008C87146D285930AC50197000020E780B3
:103AB400E03D5685CC5099C548C85946970000202A
:103AC400E780C03CA2854E85EFE08FF02254B250CF
:103AD4009254F249624AD24A424BB24B4A85025945
:103AE4004561B1B3B250225492540259F249624A28
:103AF400D24A424BB24B4561828001114EC6AA891B
:103B04002E854AC806CE22CC26CA2E89EF70C0154F
:103B140031C59734002083C4E4AC99E083440500A4
:103B24001945EFE08FE02A8415C981451946EFE075
:103B34007F96930700FD2300F400B947A3003401E6
:103B44002301F40023122401A2856244F240424975
:103B5400B2492685D24405616FE08FE7F2406244A2
:103B6400D2444249B2490561828039715ECEAA8B42
:103B74002E8526DA4ED652D456D25AD006DE22DC10
:103B84004AD8AE84328BB68A3A8ABE8942C6EF706E
:103B9400A00D31C92A894145EFE02FD92A8421C5D6
:103BA40041468145EFE01F8F17350020034585A36B
:103BB40019E103450900930700FD2300F400BD4704
:103BC4002301F400B247A3007401231294002304D8
:103BD4006401A304540123054401A30534015CC416
:103BE400A285EFE0EFDEF2506254D2544259B2594A
:103BF400225A925A025BF24B21618280797126D259
:103C0400AA8439454AD04ECE06D622D42EC6B289CD
:103C14003689EFE08FD121C1B2459307000D2310FF
:103C2400F500B1472A842312B5002301F500CE859F
:103C34001905194697000020E78040252306240132
:103C4400A2852254B2500259F24913F5F40F92544A
:103C540045616FE0EFD7B250225492540259F249B1
:103C64004561828017370020034777989307F00F48
:103C7400630DF706411126C2AA84394522C406C63B
:103C84004AC0EFE08FCA2A8439C9930700FD230094
:103C9400F500A300950023010500973500209385C6
:103CA40065960D05194697000020E780201E1739F8
:103CB40000201309A99383578900A2851735002092
:103CC4000345F5922315F400834719002306F400F5
:103CD4002244B2409244024941016FE06FCFB240A6
:103CE400224492440249410182808280011156C2D9
:103CF400AA8A314526CA4AC84EC652C406CE22CC28
:103D0400AE84328AB6893A89EFE02FC229C92A845F
:103D14002685EF6070751DCD03450500930700FDF2
:103D24002300F4009D47A30054012301F40023124F
:103D34009400231344012314340123152401A28580
:103D44006244F240D2444249B249224A924A05614D
:103D54006FE00FC81735002003457589C1B7F240DD
:103D64006244D2444249B249224A924A056182805D
:103D7400397162CC2A8C594526DA4AD84ED652D4A7
:103D840056D25AD05ECE06DE22DCAE8432C636C4AB
:103D9400BA8B3E8BC28A468A835901040349410483
:103DA400EFE0AFB835C53246930700FDA2462300C5
:103DB400F5009547A301C500A30085012301F50083
:103DC4002A8419461105A9C2B68597000020E78008
:103DD400E00B23066401230A24012315740123172D
:103DE40054012318440123193401A2856254F2506A
:103DF4004259B259225A925A025BF24B624C2685BE
:103E0400D25421616FE0CFBC8145EFE0AFE8D1B778
:103E1400F2506254D2544259B259225A925A025B15
:103E2400F24B624C216182809727002083C7277C54
:103E34008DCB4111AA8519461385018A06C69700C0
:103E44000020E780A0049385018A172500200345FC
:103E5400057AEFF0DF96B2401385018A41016FA025
:103E64008033014582801727002003475778930742
:103E7400F00F6305F708411126C2AA84294522C41C
:103E840006C6EFE08FAA2A8429C1930700FD230008
:103E9400F500A1472301F500A30095009727002012
:103EA4009387C77483C727009385018A1105A30FDD
:103EB400F5FE194697000020E78040FDA2851725EE
:103EC40000200345D572EFE0AFB017270020034769
:103ED40007728D47631FF7009387818B9C4391CBB7
:103EE40003A38700630703002244B24092444101C4
:103EF4000283B24022449244410182801727002069
:103F04000347E76E8D47631AF7009387818B9C43C1
:103F140089C703A38700E31D03FC8280797122D43F
:103F240006D626D24AD04ECE52CC094445C92A8957
:103F3400035505002E8A5144EF601053AA8459CDCD
:103F440083C77195FD1793F7F70F054749446377C6
:103F5400F7080347C500A1476314F70063100A0874
:103F64009C5C4544A5EF9165938545711305C0029A
:103F740097100020E780208988DCAA894D4439CD38
:103F84001306C0028145EFE0EFD083570900938602
:103F9400490036852391F90071469305490036C6D8
:103FA40097000020E78080EE89472380F90003C54D
:103FB400C400B24603560900611583C54195133503
:103FC4001500EF90405D2A8463060A00D285268599
:103FD400EF70706901C42685EFF07F852285B250A9
:103FE400225492540259F249624A4561828083C73D
:103FF4007195FD1793F7F70F05476378F70889471D
:1040040051C6011122CC26CA4AC84EC652C406CE95
:10401400AA89368AB2842E89EF6010452A84D14752
:1040240029C9485509C597100020E7806087F145E4
:104034002685EFE08FC848D4CD4705CD8346C4001C
:1040440021478147639FE600630D0A000347A501EA
:104054000356050193062501AA854E85EF70805805
:10406400AA8703474400630F09001367670023020C
:10407400E400F2406244D2444249B249224A3E85B5
:104084000561828013674700DDB7C9473E8582809A
:10409400E54763EBA700972700209387A751060500
:1040A4003E9503550500828041657D15828001118E
:1040B40022CC2A842E8526CA06CEAE84EF60D03A5E
:1040C4000DCDB7470F009387F723094563E28702B5
:1040D40081450A854146EFE0EFBBA68523108100A8
:1040E4000A85418023018100A3010100EF90002D86
:1040F400F2406244D244056182804945D5BFA38A17
:10410400A19482806F90E041797152CC2A8A3285E1
:1041140022D426D24AD04ECE56CA5AC85EC606D635
:1041240062C4AE8BB28A368BBA843E89C289468415
:10413400EF60903315C92A8C63140A0213774B007D
:104144008347450015CF93E727012302FC008DEC3C
:10415400631C0902639A090205E8ED9B2302FC0033
:10416400832B8C03639F0B06B25022549254025942
:10417400F249624AD24A424BB24B224C4561828098
:10418400F59B93E70701D1B793E747002302FC00AF
:1041940001CC1C484146A2852324FC0213058C0152
:1041A40097000020E78080CE63910B02D5D80325C9
:1041B400CC0209C597000020E780806EF145268572
:1041C400EFE0AFAF2326AC0261BFE30B09F8032590
:1041D400CC0209C597000020E780806CF1454A8530
:1041E400C5B79DC483A70B0299EB9165938535717F
:1041F400714597000020E780006123A0AB0203A56E
:104204000B0219C57146A68597000020E78000C8F7
:104214006388090283A74B0299EB91659385257105
:10422400594597000020E780005E23A2AB0203A556
:104234004B0219C55946CE8597000020E78000C57A
:104244001DC483A78B0299EB916593851571514524
:1042540097000020E780205B23A4AB0203A58B0218
:1042640019C55146A28597000020E78020C2225438
:10427400B2509254F249B24B224CCA865A86025921
:10428400424BD6855285D24A624A45616FF04FF55A
:10429400011126CA52C406CE22CC4AC84EC62A8A66
:1042A400AE84EF60701C25C5AA893945EFD0FFE7BD
:1042B4002A8431CD172900200349C9326314090027
:1042C40003C909009307000D2310F400AD4723012F
:1042D400F400938569001305340019469700002003
:1042E400E780C0BA93F71400858085882306F4001C
:1042F400A306940023154401A2856244F240D244EB
:10430400B249224A4A85424905616FD07FECF240A6
:104314006244D2444249B249224A05618280938769
:10432400818A884301CD411106C697000020E780A9
:104334002057B24023A4018A410182808280011166
:1043440006CE22CC26CA4AC82EC6EF60F01139CD5B
:10435400B245172900200349E928AA840CD563141F
:104364000900034905004145EFD03FDC2A841DCDF7
:104374009307000D2310F500A5472301F50083C71B
:104384005400938564001105A30FF5FE19469700A8
:104394000020E780A0AF9C54A285F2405CC4624434
:1043A400D2444A85424905616FD09FE2F24062449B
:1043B400D244424905618280797122D406D62A8486
:1043C4002EC6EF60700A0DCD8346C5001147AA873B
:1043D40049456393E6029C5FB24599C383C567016F
:1043E4000808EF705031978600009386C63910088C
:1043F40089452285EF70C023B250225445618280E2
:104404005145DDBF83C77195FD1793F7F70F054736
:10441400637AF704894721CA411122C426C24AC0DB
:1044240006C6B2842E89EF6030042A84D14705C5BC
:10443400630809008347450093E727002302F5003A
:104444004146A6851305840197000020E78000A457
:104454009C481CD48147B2402244924402493E8580
:1044640041018280C9473E858280797122D406D673
:104474002A842EC6EF60407F01CDB2452285230EEB
:10448400B1006C08EF70B01AB250225445618280BA
:104494005145DDBF6F603012C1671387E7FF639436
:1044A400E5029387418B9C4391EB494582804945C2
:1044B400B2402244924402494101828003A307008E
:1044C400E30503FE0283411122C426C24AC006C684
:1044D400FD172A892E84B2846395F5029387418B54
:1044E4009C4391CB9C4381CB829711E52384218DFE
:1044F400A384918C75BFA6854A85EFE0DFF94DF959
:10450400F5B72E85EF6040765DD1834705000D45F4
:10451400E39027FB22852244B2400249A6859244B7
:1045240041016F90D04465476362A704411141671C
:1045340022C406C626C27D172A8409456383E50280
:10454400C547AE846315F4002E85EF90D04B9317C6
:104554001400172400201304E405A2972390970065
:104564000145B2402244924441018280094582803F
:10457400011106CE2AC6EFE03FF4EF10601FEF00F2
:10458400E075EF50E117324597270020938707061F
:10459400130700F02391E700238207007D579387D8
:1045A4004195A380E7002380A700F240954505616B
:1045B4006F5040071D7193970501CAC886CEA2CCDF
:1045C400A6CACEC6D2C4D6C2DAC05EDE62DC66DA61
:1045D4006AD8C1872E8963D0074C03C54195EFD0B3
:1045E400BFB88964416A856A797B2A84938BD40035
:1045F4007D1AA50A691B15E021653345A900F6401B
:104604006644D6444649B649264A964A064BF25B66
:10461400625CD25C425D256182808347040013079B
:10462400200A639DE70003552400172C0020034C47
:104634001CFC2286D285EFF0EFAB3DAA13071009CC
:1046440003CC51956397E716834714001547639E7F
:10465400E7002285EFF08FAE2285EFD05FAA03C575
:104664004195EFD07FB02A8479B739476399E7162B
:1046740003554400631B55050C4483C90500639D21
:104684000900850591C9194617250020130585F7EA
:1046940097F0FF1FE780807F17270020034707F567
:1046A40085476318F710638A090097270020238F32
:1046B40007F24E85EFF00FDB45B789471727002037
:1046C4002306F7F2EF90F02C41BF93872400631A7E
:1046D400F50683298400638E090C83C709008DE3E2
:1046E40083C7290003C71900A207D98F1727002001
:1046F4002312F7F083C7390017270020A308F7EE29
:1047040017270020034787EE89476314F70A83C7F6
:10471400090081CB97270020238A07EC03C50900F1
:1047240051BF8D479725002083C555EC17250020E0
:10473400035545EC17270020230AF7EAEF40907150
:10474400F1BF938754006318F5001C4403C50700A8
:10475400EFF06FF111B7B3076501C207C1831147C9
:10476400636FF7009387818B9C43E38707EE9C4339
:10477400E38407EE22858297E31005EE1DA8938754
:10478400B400631FF5009387018B9C43E38607EC19
:104794009C43E38307ECA2851385B4008297E9BFA9
:1047A4009387C4006310F5021C4483C70700E385A4
:1047B40007EA9307F00FE301FCEAA2856285EFD0D4
:1047C4003FA171BD9387E400E315F5FE9387418B08
:1047D4009C43E38307E8DC43A285E9F3B5BD3D4789
:1047E4006397E70403554400E30275FF938794013C
:1047F400E30EF5FC93873401E31DF5FA97270020B7
:1048040083D727DF639E47019387418B9C43E385CE
:1048140007E4DC43E38207E4A28513853401BDBFCA
:104824009387C18B9C43E38907E29C43E5B7130755
:10483400E003E390E7F88347240005476396E70E17
:1048440083476400138D818AF1E383270D00D5CB60
:1048540003CC0700A14903457400930C8400E6854A
:10486400EFE07FFA83474401A303A40083580401C3
:104874000358E400035744002A86034534003EC22B
:1048840083572401E686E2853EC0CE87EFF04FCE03
:104894008347340095E7DD47835804010358E40057
:1048A40083467400835544003EC2835724016687BF
:1048B40005463EC06285CE87EF60C06BA301A400AD
:1048C40083270D0081C71145EFF07FA503C5818CB7
:1048D400E30405D883C5918CEFE0FFBBE30E05D656
:1048E4008346340093071003638AF600035644009A
:1048F4004E8783C5818C3685EFE09FC42384018C69
:10490400A1BB172C0020034C9CCEA9B79387818BA5
:104914009C43172C0020034C9CCD91498DDFDC4334
:104924009DDB0145829705BF29476390E70C8347C8
:104934006400938C818AC1E783A70C00A5CF03CCC4
:104944000700A1490345740093068400937725006A
:10495400C9C713761500130D440183470402835815
:10496400C4010358A40103574400034534003EC264
:104974008357E401E2853EC0CE87EFF06FBF8347E3
:10498400340095E7DD478358C4010358A4018346E6
:104994007400835544003EC28357E4016A87054688
:1049A4003EC06285CE87EF60E05CA301A40083A7CC
:1049B4000C0009BF172C0020034C7CC359B7938704
:1049C400818B9C43172C0020034C7CC29149BDDB96
:1049D400DC43ADDB01458297B5B7B68536CEEFE053
:1049E4009FE2F2462A86368D8DBF0947639DE70014
:1049F4009387018B9C43E38107C6DC43E38E07C4A2
:104A04002285829791B92D476399E7009387018B9B
:104A14009C43E38307C49C47D5B70D476397E700DE
:104A240022868D450355440039B11947E393E7D8ED
:104A34009305610213051031EF40D1562C10130574
:104A44002031EF40315603566400835781020355E9
:104A5400440063E8C700835684000357610263F788
:104A6400E60093050002EF900079FDB66374E6005A
:104A74002313E40063F4D7002314F4000357C400A1
:104A84008356A4000356840083556400014881477B
:104A9400EF902076D1B693F7150081CF9387018BE1
:104AA4009C4389C7DC4399C3014582971345190088
:104AB400B9B693F7250081CF9387818B9C4389C72F
:104AC400DC4399C305458297134529000DBE93F72E
:104AD40045000145E38507B29387C18A9C4391CF82
:104AE4008547172700202305F7B09387818B9C43C4
:104AF40089C7DC4399C3054582979727002093878C
:104B0400E7AEC8472C10EF8080742810EFF0CFB1C7
:104B14009727002083D727AC91CB130600643386F4
:104B2400C702914503C54195EFD03FB513454900F0
:104B3400F9B4411122C42A84554506C6EFF04FD575
:104B4400B335A00022852244B24041016F90A06594
:104B5400797122D406D68D472E84631FF50003D7BE
:104B6400A50083D6850003D665000345340083D5AC
:104B74004500EFF0AF9709A889671387D700631042
:104B8400E50403C5250019E58547B25022543E8546
:104B9400456182809387818A9443FDD603C636009B
:104BA40083C50600814802C202C00148814701470B
:104BB4009106EFF0EF9B0545EFF06FF6F1B7138721
:104BC400E700E303E5FC13873701631AE50003C537
:104BD40025005DD9014781460146814559BFE50756
:104BE400E304F5FA41677D178147E310E5FA03C74B
:104BF4005500C947E31AF7F883D6E50003D6C50084
:104C04000355840083D5A500EF90606041C95D45DC
:104C1400EFF00FC83335A000231CA10083454400E6
:104C2400035524003008EF50B07683578101A9FF63
:104C34006C0813051031EF40F1369305E1011305BB
:104C44002031EF4031368357C10103578400637428
:104C5400F7002314F4008357E1010357A40063F41D
:104C6400E7002315F400835784000357A4006374FA
:104C7400F7002315F40003552400EFB0101D03576B
:104C8400E4008356C4000356A400835584000355EE
:104C9400240001488147EF90C053FDB58547231C8C
:104CA400F100ADBFC1671387E7FF639DE5009387FC
:104CB400818A9C4395C383C707000D47639CA70063
:104CC4006F906050FD1749476396F5009387818A7A
:104CD4009C43FDF73A8582804947EDBF238A018CC6
:104CE40023AE018C23AC018C972700209387079275
:104CF400170700001307874798C317070000130717
:104D0400A74AD8C3170700001307E75A98C7938721
:104D1400C18C17070000130727F998C31707000071
:104D2400130747E3D8C38280797122D406D626D2EA
:104D34004AD04ECE52CC56CA5AC8034705008547BE
:104D44002A84630AF70403468500930695009305B5
:104D5400F1000545EFE0BF8F814719C18347050086
:104D64008346040011476380E6041387818D18434A
:104D74008D46034717006308D70295C70DC719ED81
:104D84000145B250225492540259F249624AD24A1D
:104D9400424B4561828081470145D9B785466318F6
:104DA400D7028D8BF1DF03451400130A2400D2854A
:104DB400EFE07FA5A300A4001389C18D8327090018
:104DC400AA8A81499304F00F99EB05455DBF894692
:104DD400E318D7FA858BF9B7850993F9F90F83C7D7
:104DE400418D63FBF90203250900139B49005A9581
:104DF40083470500E38297FE83471500E39E57FD32
:104E04001946D2850905EFD00FEF79D5832409001F
:104E140003470400DA9485EC834604009147E38158
:104E2400F6F683270900A9DF03C6418D01479305E0
:104E3400F00FE307E6F4BE84C10703C507FF630C64
:104E4400B50A05071377F70FEDB788C4E5A09147B6
:104E5400631AF706C84405C5834784000346050062
:104E64006304F606034704009147631BF706C8442E
:104E740019C597000020E780A0A223A604000345DB
:104E8400840091659385E571050597000020E7800E
:104E9400809705C5034704009147631CF704C8C401
:104EA40083478400930594000505A30FF5FE03468C
:104EB400840097F0FF1FE78060FD034584003335CD
:104EC400A000C1B5884441BF930594000505EFD007
:104ED4008FE28547E318F5F85545EFF06F9BBDA8C1
:104EE400884451DD97000020E780809B23A40400C0
:104EF40079B788C475B72380D40083471400D2855A
:104F040013852400A380F400194697F0FF1FE7805F
:104F1400E0F70345840091659385F57105059700D5
:104F24000020E780408E05C5034704009147E31E37
:104F3400F7F0C8C483478400930594000505A30FC4
:104F4400F5FE0346840097F0FF1FE78020F48347B3
:104F54008400E39C07E6034504007D151335150022
:104F64000DB5011122CC1384C18D1C4006CE26CA76
:104F74004AC84EC652C499CF2E8AAA840149084011
:104F840063129902630C0A0497000020E7804091A1
:104F940023AE018CF2406244D2444249B249224ACF
:104FA4000561828093194900B3073501884709C90F
:104FB40097000020E780C08E1C40CE9723A40700F2
:104FC4001C40CE97C84709C997000020E780408D50
:104FD4001C40BE9923A60900050955B745DD139663
:104FE40044008145EFD00FCB144081477D5613F721
:104FF400F70FE37197FA1397470036972300C7001A
:105004008507F5B7011152C4138A818D83270A00DD
:1050140006CE22CC26CA4AC84EC656C25AC0C9CFEA
:105024002A89014419ED9387C18D944399CA03C613
:10503400418D2A8481479305F00F13F7F70F6367B7
:10504400C708131534002105EFD02F8EAA8401E977
:105054002145EFD08F8DAA8421C501444D49930782
:1050640000FD2380F4008547A38024012381F400FC
:10507400A38184005DC41389840023A2240181498F
:10508400938AC18D130BF00F83C7418D63F3F9002D
:1050940031E883270A00A68503C50700EFD04F93A4
:1050A400814503C5418D753D03250A0097F0FF1F17
:1050B400E780007F23AC018CF2406244D244424931
:1050C400B249224A924A024B0561828013974700F3
:1050D4003697034707006305B70005041374F40FFC
:1050E4008507A1BF83A70A0093954900BE9583C78E
:1050F4000500638467032300F90083C715001305C3
:1051040029007D14A300F900194689051374F40FCE
:1051140097F0FF1FE78080D72109850993F9F90FDC
:10512400A5B723A20400B5B7411122C406C62A8438
:1051340005E10945EFE0DFF52A8611C5854503C57C
:105144004195EFD08FD30545EFF0BF9E2A8401C966
:10515400854503C54195EFD0CFE822856535B2403A
:10516400224405454101828089671387B700631A89
:10517400E5009387818D9C439DC39C4503C507002F
:1051840065B71387C7008147631CE5009C4503C5C9
:105194000700854711C59387818D9C43F5F38147AB
:1051A4003E858280797106D622D426D24AD04ECE4C
:1051B40052CC56CA5AC85EC679C983473500AA89F3
:1051C40085C7404115C05945EFE09FEC931A85010E
:1051D40093DA8A410149138A818D130B000DB54B73
:1051E40083C73900636DF900B250225492540259B6
:1051F400F249624AD24A424BB24B456182808307EC
:10520400840263CD570783270A00ADCB2285EFF0D4
:10521400BFB12DC5034584005105EFC01FF1AA8419
:1052240031CD23106501230175018347040019461C
:1052340093052400A301F5008307840215052303C5
:10524400F50083471400A30FF5FE97F0FF1FE780D6
:10525400E0C3034684002386C4001DC613854401AD
:1052640088C89305940097F0FF1FE78020C2832726
:105274000A00A68503C50700EFC09FF505091304BE
:1052840094021379F90FA9BF23A80400CDB793871B
:10529400818D9C43B1DBBD332254B25092540259E8
:1052A400F249624AD24A424BB24B014545616FF022
:1052B4005F88797106D622D426D24AD04ECE52CCFB
:1052C40056CA5AC85EC671C183473500AA8985C7C4
:1052D400444195C05945EFE0BFDB931A850193DA49
:1052E4008A410149138A818D130B00FDC14B83C789
:1052F4003900636DF900B250225492540259F249B4
:10530400624AD24A424BB24B456182808387F400A1
:1053140063C8570783270A00A5C75145EFC0FFE0BC
:105324002A8439CD23006501A300050023017501FA
:1053340083C70400194693852400A301F5008387DD
:10534400F4001505A306F50083C71400A30FF5FEAA
:1053540097F0FF1FE78080B383C784009385940090
:105364001305C400A305F400194697F0FF1FE78056
:10537400E0B183270A00A28503C50700EFC05FE5FB
:105384000509C1041379F90F9DB79387818D9C4357
:10539400BDD3EFF03FC72254B25092540259F249A0
:1053A400624AD24A424BB24B014545616FF06FF8F5
:1053B4009387818D9C43C1E703C77195298BC947A6
:1053C40041C37971916522D49385D5712A8411459D
:1053D40006D626D297F0FF1FE780E04223ACA18CCB
:1053E400CD4721C91146A28597F0FF1FE78000AA87
:1053F4001545EFE0FFC9AA841945EFE07FC92AC625
:105404009305F1011305F041EF3041360347F101F3
:105414009717002083C7A71DB336F000324611C387
:1054240089060347340003452400A685EF8070579E
:10543400AA87B250225492543E8545618280C54762
:105444003E8582805D7183C77195A2C486C6A6C25B
:10545400CAC04EDE52DC56DA5AD8A18B494463885E
:10546400070E9387818D9C4341446392070E2A89DA
:10547400EFF04F8283C781955544637AF50C93848A
:10548400818A9C404544E1E791659385C57129452E
:1054940097F0FF1FE780203723A4A18A4D4445C914
:1054A4002946CA8597F0FF1FE780409E9C4083C72A
:1054B4001700CDCB2D45EFE0BFBD2A843145EFE089
:1054C4003FBD2A899305F1021305F041EF30012A0B
:1054D4008346F1021717002003476711B337E00032
:1054E40091C2890741453ECEEFE09FBA2A8B3D45E4
:1054F400EFE01FBAAA8A3545EFE09FB92A8A3945F9
:10550400EFE01FB9AA892145EFE09FB82ACC1D45D9
:10551400EFE01FB898402ACA0345370093054700B7
:10552400EFE0EFA99840E248524803462700F247CB
:10553400AA865AC6228556C452C24EC01107CA85CD
:10554400EF80B0462A8401C50D45EFE05FDD22857A
:10555400B640264496440649F259625AD25A425BEE
:10556400616182802545EFE0BFB22A84294581BF6D
:1055740083C77195A18B1385C18C91E301456FE0BD
:105584000F82411122C485452A8403C5418D06C674
:10559400EFF03F9D83C77195A98BA5CB171500200C
:1055A4001305C506238A818CEFD01FFF1384C18D98
:1055B4001C4091C74D45B24022444101828003C53D
:1055C400418D19E10145C5BF91659385B5711205FA
:1055D40097F0FF1FE780202323AEA18C61DD03C673
:1055E400418D12068145EFC0FFEA104083C6418D0C
:1055F4008147FD5513F7F70FE376D7FC1397470060
:1056040032972300B7008507F5B70145238A018C3B
:10561400EFD09FF845BF9387C18A884301CD4111DC
:1056240006C697F0FF1FE780A027B24023A6018A91
:10563400410182808280011122CC06CE8D472E84C6
:105644006316F50603C73500E94703D5450063181B
:10565400F7009717002083D7C7F96385A706EF5093
:10566400A06009C5835764002317F5000357A400FD
:105674008356840003566400835544000345340074
:10568400EFE0CFE6035744009717002083D767F66F
:105694006308F7008547F24062443E8505618280D5
:1056A400FD57171700202316F7F4EDB78967CD07C8
:1056B400631DF50083C7250031476385E70045472F
:1056C400E39AE7FCEFD03FF4F1B741677D178147D8
:1056D400E313E5FC83C655004947E39EE6FA83C518
:1056E400450003552400300023140100EF502045E9
:1056F40055B7797122D41384C18A1C4006D626D2A8
:105704004AD00545A5C30D45EFE09F98AA841145ED
:10571400EFE01F982A899305F1011305F041EF305A
:10572400E1040347F1019717002083C747ECB33620
:10573400F00011C389061C4036C603C537009385A3
:105744004700EFE0CF871040B2462A878348B6006F
:105754000348A6009307460003462600CA8526850B
:10576400EF80B023B2502254925402594561828092
:10577400FD57238EF1802390018E23A4018E23A64E
:10578400018E23A8018E971700209387E7E8170757
:1057940000001307A70798C3170700001307C725BE
:1057A400D8C317070000130707F598C79707000029
:1057B4009387A7E823A2F18E8280411126C29384A5
:1057C400C18A9C4006C622C49DCB2A840D45EFC0E5
:1057D400DF95AA8519CD930700FD2300F5008D47B9
:1057E400A30085002301F5009C4003C50700EFC01A
:1057F4003F9E11C42244B2409244410129BDB240AB
:105804002244924441018280797126D28354450016
:10581400896706D622D44AD04ECE52CC138767006D
:10582400639DE4029387C18A9C43014481CF184558
:10583400034507000DE10547A380E7000545EF8018
:10584400101605442285B250225492540259F2494A
:10585400624A456182809537EDB713879700636587
:10586400970403C7C1819307F00FE30CF7FC1C45B1
:10587400114503C40700EFC05F8BAA8579D1930754
:1058840000FD2300F50089472301F500F977E117AE
:10589400BE9493B41400A3008500A301950003C52E
:1058A400C181EFC0FF9271BFA9070144E39CF4F8E2
:1058B4001389C18A832709004A8AC9D7184503C4B2
:1058C4001700854783490700630EF40297170020E9
:1058D40083C707D2BDF70D45EFC03F85AA8505C133
:1058E400930700FD2300F5009147A3003501230130
:1058F400F5008327090003C50700EFC07F8DEFF093
:105904009FD181B79387818E9C4391EF0145EFE04E
:105914002FF82A8611C6894503C54195EFC0FFD5E6
:1059240083270A00A9A003C60700938617009305DE
:10593400F1000545EFD0BFD171D983470500858BB0
:10594400F1D70545EFE0CFF49307B003AA8463FDD4
:10595400A7025D6613060670894503C541959384C5
:1059640044FCEFC03FE52390918E8327090009474B
:10597400A380E7009717002083C787C799CB9717A1
:105984000020238707C67DBD130600643306C502C5
:1059940051B74E851D357DB5411126C29384C18A08
:1059A4009C4006C622C4A1C383C707000D44639D5F
:1059B400A702894503C54195EFC0BFE2914503C5E0
:1059C40041952390018EEFC0DFE197170020A3815A
:1059D40007C29C400145A38087002244B240924400
:1059E40041016F80C07B49442285B24022449244E5
:1059F40041018280411106C685476311F50683D7AC
:105A0400018EA1C717170020034787BE1DEF130798
:105A1400B0036367F702894503C54195EFC07FDC96
:105A24009307006403D6018E3306F602894503C545
:105A34004195EFC09FC42390018EB2404101828002
:105A4400938747FC2390F18ECDBF9387C18A9C43F3
:105A5400EDD7B24003C5070041013DBF9387C18A1A
:105A64009C43E1DF83C77195918BE1DB894503C5D5
:105A74004195EFC01FD7B2402390018E41016FF0D2
:105A84009FB983C77195918B99CF41111385418E2D
:105A940006C6EFD09FB1B240FD5717170020231A56
:105AA400F7B44101828001456FD03FB09387818E66
:105AB4008843411122C406C626C23E8419C597F004
:105AC400FF1FE780E0DD23A4018E9387018F8843C5
:105AD40019C597F0FF1FE780A0DC23A8018E9384EB
