:040000006F108037C6
:1000040000000000000000006F0080086F00E02284
:1000140000000000000000000000000000000000DC
:1000240000000000000000000000000000000000CC
:100034006F004006000000006F00E00500000000B3
:100044006F0080056F0060056F0040056F0020059C
:100054006F0000056F00E0046F00C00400000000A2
:100064006F0060046F0040046F0020046F00000400
:100074006F00E0236F00C003000000006F00600306
:100084006F0040036F0020036F0000036F00E00265
:1000940001A001A001A001A001A001A001A001A054
:1000A40001A001A001A001A001A001A001A001A044
:1000B40001A001A001A001A001A001A0B717004068
:1000C400130770052380E704130780FA2380E704ED
:1000D4002396A70223800704371700408347270588
:1000E400898BEDDF835707053717004083472705C2
:1000F400898BEDFF3717004083472705898BEDDF98
:10010400035507058280B7170040930670052380C6
:10011400D704130780FA2380E70403C6B7041376D1
:10012400F60DA385C70423800704137605022DC6A4
:1001340003C6A700118A0DE22380D7042380E704B5
:1001440003C7A700136747002385E7009307004B05
:1001540001000100FD17EDFFB7170040930670057D
:100164002380D704130780FA2380E7047D8923942E
:10017400A70001000100010001002380070423807F
:10018400D7042380E7049306100537270040A30310
:10019400D780238007048280137605046DDE03C6AE
:1001A400A700418A0DE22380D7042380E70403C714
:1001B400A700136707012385E7009307007D01006B
:1001C4000100FD17EDFFB71700409306700523806B
:1001D400D704130780FA7D892380E7041365050497
:1001E4002394A700010001000100010023800704FB
:1001F4002380D7042380E704930630053727004083
:1002040079B74111814601468145114506C6B52A93
:10021400B7170040130770052380E704130780FA1B
:100224002380E70403C76704136717002383E704E5
:1002340023800704B2404101828081460146814502
:100244001145A122B7170040930670052380D704F7
:10025400130780FA2380E7047D562396C702238080
:10026400D7042380E70403C76704136717002383B5
:10027400E7042380070401A0BD473305F50201000C
:100284007D1575FD8280411122C426C206C6AA844A
:10029400014463179400B240224492444101828095
:1002A40005041305803E4204C13F4180DDB7B71702
:1002B4000040130700032388E702854723A8F1823F
:1002C40073002030411106C6EF008076F5BF23038A
:1002D400048015472303E48001002302A480828064
:1002E40083076480E3CE07FE2303048082808307B0
:1002F4006480E3CE07FE03454480828083076480E4
:10030400E3CE07FE2302A4808280411126C44AC2A0
:100314004EC006C61377F50BAD47AA892E899544BE
:100324006306F70019456537653F8D444E854537AB
:10033400FD59FD1463983401B240A2441249824924
:1003440041018280135509011375F50F453F2209B8
:10035400CDB7011126CC06CEB70408005137154598
:10036400BD37713769372AC6A53F324593771500E3
:1003740089EB136515001375F50FF240E24405612E
:100384008280FD14E9FC0145CDBF397126DC4ADACF
:100394004ED852D656D45AD25ED006DE62CE66CC41
:1003A400B7E700E07D5783AA070022C603AA4700E7
:1003B40023A0E71823A2E718B71700401307700516
:1003C4002380E704130780FA2380E70483C74704E4
:1003D400930B75FFB684E20793FBFB0F8546AA894E
:1003E4002E8B328937240040E187015763FA760166
:1003F4006308D5008946130700026313D50001572B
:10040400D98F93F7F70FB71C00402382FC041147E0
:100414002303E4801305F00F5D3D094CD135636976
:100424007C11B70707003E9B378707007955637E29
:10043400EB02B3079B00636AF702A9476399F906C5
:1004440089E48144713D26850DA0DA850945753D11
:1004540005090345F9FFFD14050B4D3581C4937758
:10046400FB0FFDF7FD3569FD7D55B71700401307F8
:1004740070052380E704130780FA2380E70403C789
:100484004704418B2382E704F250B7E700E023A03E
:10049400571123A24711E25432445259C259325AD5
:1004A400A25A125B825B724CE24C21618280A547A6
:1004B4006395F90685691309F00FB3069900B374BF
:1004C4002B01B6941349F9FFB3749900856B337902
:1004D4006901416B9387F9FFB3F7270199E363FC43
:1004E400340193D94900C147E3E637FF99BF056951
:1004F400C1697D19D9B71305800D63886901130596
:1005040000026384790113051008CA85FD3B913507
:1005140021DD4E99B3843441D9B7DA852D45F533BD
:10052400CA94E30099F20509D933A30FA9FED5BFF4
:100534009387F9FF93F7F70F636CFC0803C75C0418
:10054400B70708001377070219E3B787070079553F
:10055400E37DFBF033079B00E3E9E7F08947639011
:10056400F9048980D549E38E04ECDA850945713BA9
:1005740011090327C9FF91472320E48003076480FE
:10058400E34E07FE23033481FD17EDFBFD14110B2D
:1005940081C49377FB0FE9FF6D3B71F5F1B5854796
:1005A400E387F9F4DA852D458D339389F4FFE38AE3
:1005B40004E8353B93F7390091EB83260480032745
:1005C400090093074900E39FE6E63E89CE84F1BF24
:1005D400B5476396F9001305900BD5399DB5B1471E
:1005E4001305B00AE38BF9FE9947639EF902DA8595
:1005F4002D45213B81448D4BA149D5396396740126
:10060400832704802320F9008504E39834FF83279B
:10061400048013172B01635507002312F90015B545
:100624002322F90039BD9D476399F90281451305D9
:10063400B004E139BD442320090023220900FD59F7
:100644007D3193F77400CA9703C70700FD14398DF1
:100654002380A700E39634FFEDB3A1476392F90426
:10066400CD398144630D0B008D479304C0036308A7
:10067400FB009304000563048B0193044004137589
:10068400C507E30095DC1945993199390545813150
:100694002685AD3109459D316D39E31405DAE9B399
:1006A40091476399F900130560061531153913054F
:1006B400900925B7E38709D8F15469B37D1662061A
:1006C400618693178601E18763D407000145828020
:1006D400931726003307F500AE9718439C4363E74E
:1006E400E7007D16E37FF7FC7D5582800545828017
:1006F400FD15E205E18513978501618793F7F50FF1
:1007040063480700FD15139725002A97584365D7BA
:10071400138517006205618582803308B5021C4287
:1007240083A80600B335B502C29733B50701AE9866
:10073400469585486367B5006394A50063E30701A4
:1007440081480C43C6950CC388C21CC28280814771
:100754001397870161876343B7008280139727004B
:100764002A97232007008507E5B781470147939619
:100774008701E18663C5B60013351700828093961E
:100784002700AA9694428507558FD5B793D755402D
:100794008A07AA979C4305453315B5007D8D828051
:1007A40017D3FFDFE702A34A2A84993705C59317B5
:1007B40025003E940327C4FF814711EB7D151605E0
:1007C4003E954205418517D3FFDF6700834A0583C1
:1007D4008507E5B70145C5BF814713978701618741
:1007E4006343C700828013972700B386E5009442D1
:1007F4002A97850714C3D5B77D166206618601471B
:1008040093178601E18763D50700133517008280AB
:1008140093172600B306F500AE9794429C437D16C9
:10082400B58F5D8FF1BF8A05AA9501476363B50053
:10083400828083A6C5FFF11593D71600D98F9CC17A
:100844001397F601E5B72A8301480147014563433D
:10085400D7008280B387050183A80700B307060188
:100864009C43C697AA976384F80033B5170105071C
:10087400B3080301620723A0F80061871108C1BF10
:100884002A8301478147014563C3D70082803388A7
:10089400E50083280800330EE600032E0E0033889B
:1008A400A8403308C8416384080133B508018507AB
:1008B400B308E300E20723A00801E1871107E9B7C1
:1008C40017D3FFDFE702A3380111B286B2842E8664
:1008D400AA850A8575372A84A6850A85793533342D
:1008E4008000060413351500018D056117D3FFDF61
:1008F4006700233817D3FFDFE702E3324111AA89E7
:10090400AE8A328BB68402C202C402C60144131CEE
:100914008401135C8C4163499C02939B1400FD1B6E
:100924000549138CF4FFF15C33048901620461848A
:10093400634D740592478E04CE9423AEF4FE4101B8
:1009440017D3FFDF6700A33113192400B30B2B0166
:10095400014A93172A00D69783A50B008843780091
:10096400340050005D3B050A93178A01E187F11BAF
:10097400E351FCFE92474E9905042320F900A24757
:100984003EC2B24702C63EC459B7131A8901135A6C
:100994008A41131D240093178A01E18763CF9700CE
:1009A40092470A044E941CC0A24705091379F90F13
:1009B4003EC2B24702C63EC485BFB3079A031315AD
:1009C4002A0056950841780034005000050AEA9739
:1009D400DA978C439933C1B709CDB7170040130791
:1009E40070052380E704130780FA2380E704239625
:1009F400A702828019C1814799E982803387F50073
:100A0400834607003307F50085072300D700E397E3
:100A1400C7FEE5B719C1FD5781E98280910503A797
:100A2400C5FF1105232EE5FE7D16E319F6FEF5B785
:100A3400797122D417340000130484C41C4006D6F0
:100A440026D24AD04ECE91C782979737000023A969
:100A540007C25C4089CB03D50184BD3F5C408297CB
:100A640003D52184953F1C406399071897370000EC
:100A740083C717C8858B95C797370000A38A07C615
:100A8400173700000347F7C6914763FCE7009D2131
:100A94009737000083C7F7C5F9178A07A2979C43C5
:100AA40082979737000083C767C9918B89C79730AE
:100AB40001E0E78080011C4491C382979387C1833E
:100AC400984317360000034676B93E8997340000F0
:100AD4009384C4B89737000083C747B89396170028
:100AE400BA9683D60600638006109737000083C742
:100AF400E7B663F2C70886073E97835507002310BD
:100B0400070003D501842EC623940184F13593870D
:100B140041859C4317350000034545B41317250050
:100B2400BA979C43B2458297AA8903D521846D352F
:100B34009737000083C787B21397170083270900EC
:100B440003D581841345F5FFBA9703D7070033759E
:100B54003501598D2390A70083C70400850793F7B7
:100B6400F70F17370000230BF7AE173700000347C2
:100B7400F7AE63E6E70097370000238107AE1C4019
:100B8400ADEF9387C18498433E8425CB973700000B
:100B940083C777B691CB9737000083C797B589E7AA
:100BA400973001E0E78040A81C4082972A8431C531
:100BB4009C48AA9717370000232AF7AA9387018530
:100BC4009C4385CF03D50184013D2285971001E024
:100BD400E780E0122254B25092540259F24903D5EC
:100BE40021844561D5BB850793F7F70F973600003D
:100BF4002386F6A6E3E0C7EECDBDB250225492544C
:100C04000259F249456182809167B7C600409387D3
:100C1400373023A6F6200F10000097370000938783
:100C2400E7A3884F938781899C4331671307373043
:100C3400F053B7071000FD17918F99833A0523A647
:100C4400E6205D8D82804111B7170040985F3AC657
:100C5400945F3247E39CE6FE3245410182804111B4
:100C640006C6D5379736000083C6C69C858AB1C6AA
:100C7400930730333307F502B337F5023983CA07D4
:100C8400D98F173700001307679D584B014563033D
:100C9400F7023385E740636BF70037653D0889C683
:100CA40037856F0813050590198D3E951737000099
:100CB4002320F79CB24041018280E5473307F502C7
:100CC400B337F5022583DE0765BF411122C41384BF
:100CD400818818404AC006C61C5F26C21389418811
:100CE4009983858BC1C31C5F97340000938404A04F
:100CF40093F7F7F91CDF9737000083C7279F93F713
:100D040007048DC3938781859C438297973700009E
:100D140023A6A79E83C7040093F7F70B1737000099
:100D24002306F79C854717370000A303F79C83C766
:100D3400440093F7070481EF938781899C43D84447
:100D4400B8D3930700FC173700002303F79A83876F
:100D5400640063D90700832709009C431737000008
:100D64002309F79818401C5F8583858BC9CBF557F9
:100D74001CDF01000100010001000100010001006D
:100D84000100010001000100010001000100010057
:100D94000100010001000100010001000100010047
:100DA4000100010001000100010001000100010037
:100DB4000100010001000100010001000100010027
:100DC4000100010001000100010001000100010017
:100DD4000100010001000100010001000100010007
:100DE40001000100010001000100010001000100F7
:100DF4000100938781899C4313075004B8CB1840A2
:100E04001C5F9183858B89CFBD571CDF93878189B4
:100E14009C4323A80704854717370000230AF78C4F
:100E240083270900D8430583058B19C7D843759BCD
:100E3400D8C3D843799BD8C3B240224492440249D0
:100E440041018280397106DE16DC1ADA1ED82AD6F0
:100E54002ED432D236D03ACE3ECC42CA46C872C61E
:100E640076C47AC27EC09535F250E2525253C253D0
:100E74003255A255125682567247E2475248C2482A
:100E8400324EA24E124F824F21617300203093875D
:100E9400818994431737000013074785BC5289CFD3
:100EA40083472700858B89EB83473700858BFDD7E4
:100EB40097370000238E0782828037C700401306CD
:100EC400C00393062003973500009385258283276A
:100ED4008720C18393F7F7036369F600832787208C
:100EE400C18393F7F70363E6F60083C74500858B58
:100EF400F9DF8280938781899443172700001307C1
:100F0400E77EBC5289CB83470700858B91CB97271B
:100F14000000238F077C97270000A38B077C828027
:100F240083471700858BF1DFDDB793878189904371
:100F340037C70040C145E54683278720C18393F71F
:100F4400F70363FBF50083278720C18393F7F70337
:100F540063E4F6003C52EDF38280138781881843E2
:100F6400AA87185F1583058B25EF03451500150522
:100F74001377C51F19C6B386E70083C6260023006E
:100F8400D60095C59726000083C6A67693F6060478
:100F94000945A1CAB386E70083C63600054693F522
:100FA400F6066390C504E206E18663CC0602338547
:100FB400E7008347150003470500A20793F707706E
:100FC400D98F1397070141839376074099C6136716
:100FD40007802398E188014582802398F188E5BF42
:100FE40005458280938681898C4236859726000048
:100FF4009386C66F984593170701C183137817200A
:101004003E86630408041377072079C303C72600C8
:101014001367170017280000230BE86C1307001947
:10102400B8D1130700F8972500002383E56C1387D4
:1010340081880C4337080010D855719B136727002B
:10104400D8D598413367070198C11377261005C393
:101054001376061059CE03C7060013671700172628
:1010640000002305E668172700002315076883C6D8
:10107400460093C7F7FFC207E206E186C183184121
:1010840063D106029396170163DE060630538D463C
:1010940063E9C600854617260000230BD664345343
:1010A400FDFE972600009386A6578386460163DDDE
:1010B400060093960701C18663DC060470538946D3
:1010C40063E4C6007453FDFE1447F58F1CC7828089
:1010D40003C716001367170097250000A388E5606F
:1010E4001727000023060760172700002314076052
:1010F400A9BF03C736001367170017260000A3080B
:10110400E65E95B78546172600002303D65E51BFD9
:1011140054471396060163510602B7061000FD16E4
:1011240074D39726000093866653944E850617263B
:1011340000002321D65449BFA166D58F71B73971F8
:1011440006DE16DC1ADA1ED82AD62ED432D236D0CF
:101154003ACE3ECC42CA46C872C676C47AC27EC073
:101164005135F250E2525253C2533255A2551256DF
:1011740082567247E2475248C248324EA24E124F3C
:10118400824F216173002030172700001307C757CF
:101194008346B7019727000083C7575AB69793F73A
:1011A400F70FFD4663EAF6044C4B97260000A38D27
:1011B400F6549727000083C7375505473317F700C0
:1011C40097260000A38CF6566D8F1DEF972600001E
:1011D40083C61657B3F6D70213050002814733D6E8
:1011E400F500058A13F8F70F09CE6399E6009727EF
:1011F4000000A38B0751828081177DB70507137701
:10120400F70F8507E39DA7FC82809387418A984363
:10121400B75702009387279F832607091396560022
:101224006358060083260709139666006344060084
:10123400FD17FDF3828051C9AA870145C9C98D07ED
:10124400C207C183F19BC207C18313074003636BC9
:10125400F7021387818B08431387018B144363962A
:10126400A602172700001307A73B185B014525C3F7
:101274004111C20706C60545DD8D0297B2400145FE
:10128400410182801387418BF9B70357650005EF4D
:10129400035745006369F702B306F74021466370BC
:1012A400D6021041938687001D8FAA96611790C2BB
:1012B4002392E6002393060014C12312F50023139E
:1012C400B50021058280084159BF01458280828092
:1012D40001CD9387818B03A807009387018B8C43EF
:1012E4000147C28763E3B70082809443636FF506C6
:1012F40063EDA60613868700E368C5FE03D5670081
:10130400216605066317C50003C631870506A38950
:10131400C18623930700638407031386418B10421D
:10132400630FF6000356670019EA83D7470014C316
:1013340083564700B697A1072312F700BA8798434C
:10134400E304B7FA9386418B9442E30FD7F88356AC
:101354006700D9FA83D64700035647001843A1060D
:10136400B2962392D70098C382803E87B6879DBFEA
:10137800974100209381813417710020130101C81F
:101388001305400097250020938545471736002010
:101398001306C67D63FAC5008322050023A0550005
:1013A80011059105E3EAC5FE17B501001305C55EF1
:1013B800973500209385857B1386018263FAC500E3
:1013C8008322050023A0550011059105E3EAC5FE17
:1013D8001385018297650020938545C16377B50021
:1013E800232005001105E36DB5FE9302800873A064
:1013F8000230972200209382624093E21200739099
:101408005230972200009382C2A673901234730060
:101418002030397101436EC619A0397141536AC829
:1014280066CA62CC5ECE19A0397101535AD056D221
:1014380052D44ED64AD826DA22DC06DE3301614081
:10144800828241114AC026C222C406C68282B24D97
:101458004101024D924C224CB24B4101024B924A3F
:10146800224AB2494101024992442244B240410110
:1014780082803D432A876373C3029377F700BDEFE9
:10148800ADE5937606FF3D8ABA960CC34CC30CC7EC
:101498004CC74107E36BD7FE11E28280B306C34015
:1014A8008A069702000096966780A6002307B70071
:1014B800A306B7002306B700A305B7002305B700A6
:1014C800A304B7002304B700A303B7002303B7009E
:1014D800A302B7002302B700A301B7002301B70096
:1014E800A300B7002300B700828093F5F50F939609
:1014F8008500D58D93960501D58D61B79396270004
:101508009702000096968682E78086FA9680C11731
:101518001D8F3E96E374C3F8A5B73367B500FD5336
:101528000D8B79E7B7877F7F9387F7F71041944151
:10153800B372F6003363F600BE92B3E262006397BB
:10154800720C6318D6065041D441B372F600336367
:10155800F600BE92B3E262006398720A631BD60477
:1015680010459445B372F6003363F600BE92B3E2B9
:1015780062006391720A631ED6025045D445B37265
:10158800F6003363F600BE92B3E26200639A720813
:101598006311D60210499449B372F6003363F6001A
:1015A800BE92B3E26200639372085105D105E30F5E
:1015B800D6F61317060193970601631CF700135715
:1015C800060193D706013305F7409375F50F91E9A6
:1015D80082804183C1833305F7409375F50F91E10C
:1015E80082801377F70F93F7F70F3305F740828060
:1015F8000346050083C60500050585056313D60067
:1016080065FA3305D640828011059105E312D6FEAE
:10161800014582802105A105E31CD6FC0145828095
:101628003105B105E316D6FC014582804105C105A7
:10163800E310D6FC01458280B717004003C7770541
:101648001377E70FA38BE704130700F8A38DE704CC
:101658003D47238CE70413075003A38CE7048280DB
:10166800B717004003D587005D715ED642054181FA
:1016780086C6A2C4A6C2CAC04EDE52DC56DA5AD802
:1016880062D466D26AD06ECE9377050C1307000831
:10169800814B6388E71813070004639CE714B72499
:1016A8000D8F7D8993840480B3D4A40291679387B6
:1016B80007E8BE94A167938707D0B3D4F402EF80FC
:1016C800816597A701009387E70D9043D443EF8086
:1016D8004119EF80D1262A8B939C040103D90182FA
:1016E80093DC0C0163150900056913090980B71714
:1016F8000040130770052380E704130780FA23804E
:10170800E704371A00400547939D0401096C856674
:101718002389E704D14A814E8145130D0A04130831
:101728007005130680FA894893DD0D01130C0C71BE
:101738002943FD1623000D012300CD0023162A039B
:1017480023000D0083472A05898BEDDF83570A059F
:1017580083472A05898BEDFF83472A05898BEDDFAF
:1017680083570A0523902183C207C1833385974194
:101778009319050193D90941638409163387B9027E
:10178800635E070C850EC20E93DE0E0163E8D80D6A
:1017980063D9050A3305B04093150501C185C20414
:1017A800C18063D7350B0965130505713385A5021B
:1017B800B7170040130770052380E704130780FA62
:1017C8002380E70423967703238007043345950293
:1017D80042054181B640264496440649F259625A68
:1017E800D25A425BB25B225C925C025DF24D61614F
:1017F8008280B1E3B77489097D8993840480B3C476
:10180800A4029167938707E8BE94A167938707D0DE
:10181800B3C4F402EF80215097A70100938707F91A
:101828006DB597A701009387A7F7856403AB0700F9
:101838009384843855B5130B0000954471BD3A89DB
:10184800D5BDB387FC409399070193D9094181BF5E
:101858000965130505713385A9028DBF3385B74125
:1018680063E4FC003385FD40330585033344B50349
:101878006345830013150401A9BF4E8536C642C4CB
:1018880032C2EF80617FDA85EF80E14FEF80A17887
:10189800931E050193DE0E41B307D941C207C183E8
:1018A800056E3E871246224889482943B24663E3BB
:1018B800C701368742074183631A270113071900B6
:1018C800634430011307F9FF42074183FD1A93FA75
:1018D800FA0FCA8BCE85E3940AF62390E18259BFAA
:1018E8000145CDBDB717004003D587005D7186C699
:1018F80042054181A2C4A6C2CAC04EDE52DC56DAF5
:101908005AD85ED662D466D26AD06ECE02C69377B3
:10191800050C13070008638BE71413070004639F83
:10192800E710B7240D8F7D8993840480B3D4A40273
:101938009167938707E8BE94A167938707D0B3D4CC
:10194800F402EF80413D97A701009387A7E59043F4
:10195800D443EF701171EF80817E2A89939A040134
:1019680003DB218293DA0A0163150B00056B130B65
:101978000B80B7170040130770052380E70413078F
:1019880080FA2380E704939B040105478969056A67
:101998002389E704D14D014D814C93DB0B019389D9
:1019A80009717D1A5A8597200020E780E0F0330CF2
:1019B8005541420C135C0C412391618363010C1661
:1019C800B3079C0363D1070E050D420D135D0D018E
:1019D800894763EAA70D63DB0C0A33059041931C22
:1019E800050193DC0C41C204C18063D88C0B0965E6
:1019F800130505713385AC02B7170040130770054E
:101A08002380E704130780FA2380E70432472396EC
:101A1800E702238007043345950242054181B64019
:101A2800264496440649F259625AD25A425BB25B3E
:101A3800225C925C025DF24D61618280B1E3B77411
:101A480089097D8993840480B3C4A402916793872C
:101A580007E8BE94A167938707D0B3C4F402EF8068
:101A6800812B97A70100938767D4D5B597A7010065
:101A7800938707D3856403A9070093848438F9BD45
:101A8800130900009544D9BD3E8B29BF3385AA4070
:101A9800131C0501135C0C41B9B7096513050571E1
:101AA8003305AC028DBF63FEAA00330575413305CB
:101AB8003503A9473344750363C887001315040128
:101AC800B1BF3385AB40E5B76285EF80E15ACA857F
:101AD800EF80612BEF802154131D0501135D0D412B
:101AE8003307AB41420741838565BA876363B70013
:101AF800D287C207C183639A670193071B006344B7
:101B080080019307FBFFC207C183FD1D93FDFD0FF5
:101B18005AC6E28CE39A0DF62391F18245B7014546
:101B2800FDBD41112A83014E930E407E130F00190B
:101B3800930F400663EB6E0A9308001913034006DF
:101B4800B3781503854E0D4FA14F337365020D8988
:101B58001335150063E5BE0C1308F6FF7946729835
:101B68004208135808013307C70213D61700BE07E7
:101B780032976146B3F6C60213068070B386C60272
:101B88003697A166F58F42075D8FB717004083C669
:101B9800F70293F60608A307D1000346F10083C6AF
:101BA800F70293F60608E394C6FE8346F10093F61F
:101BB800F60FF1DE930670052380D704930680FAAA
:101BC8002380D70423AA070383C6170393E60608CE
:101BD800A388D702D8DB03C7170313670704A388B2
:101BE800E70223800704410182807D133368E30301
:101BF8009308E016630E08003368F3039308D016C1
:101C0800630808009378330093B818009388D816AF
:101C180033081E01131E0801135E0E0121BF6393D2
:101C2800E5030548638608000148630303002A8822
:101C380071087298FD15131E0801C205135E0E0186
:101C4800C18109BF13F8150063F4BF007908D5B73F
:101C580013381800E5BF914763EEB70217A70100D4
:101C6800130747B58A05BA959C41BA978287B71773
:101C7800004003A7470B1345F5FF698F23AAE70A1E
:101C880003A7070B698F23A8E70A03A7070A798D1B
:101C980023A0A70A8280B717004083A6470B1347E3
:101CA800F5FFF98E23AAD70A83A6070B558D23A81B
:101CB800A70A83A6070A758F23A0E70A8280B717A9
:101CC800004003A7470B498F23AAE70A03A7070B7E
:101CD8001345F5FF45BFB717004083A6470B1347C9
:101CE800F5FF758F23AAE70A03A7070A598D4DB791
:101CF800B717004003A7470B498FEDB7914763EE2D
:101D0800B70217A70100130727AC8A05BA959C41AB
:101D1800BA978287B717004003A7470D1345F5FF09
:101D2800698F23AAE70C03A7070D698F23A8E70C7F
:101D380003A7070C798D23A0A70C8280B717004052
:101D480083A6470D1347F5FFF98E23AAD70C83A660
:101D5800070D558D23A8A70C83A6070C758F23A004
:101D6800E70C8280B717004003A7470D498F23AAC5
:101D7800E70C03A7070D1345F5FF45BFB71700404C
:101D880083A6470D1347F5FF758F23AAE70C03A712
:101D9800070C598D4DB7B717004003A7470D498F5A
:101DA800EDB7B717004003D5870042054181937707
:101DB800050491EB9377F5013755E8011305058084
:101DC8003345F50282809377050C13070004639767
:101DD800E7009377F50137459C1CCDB721651305BE
:101DE80005D08280B7F700E0C8439C4782808147CE
:101DF80037370040A14663C4C70032858280034557
:101E0800B740E38EA6FE3385F50003450500850738
:101E18002304A740CDB7973700209387270A9C4310
:101E2800175700201307871C3E95636EE500176758
:101E380000201307A7FC6368A70017370020232F8B
:101E4800A7063E858280FD57EDBF411122C406C614
:101E58002A84813F2947B307E502B2408D83B3D76F
:101E6800870222449507B3D7E70237370040C207F5
:101E7800C1832316F7404101828071654111130522
:101E8800052006C6D937B7370040130770F82381F5
:101E9800E7400D47A381E74013070004A380E7400C
:101EA80005472387E740B2404101828023820182AF
:101EB80023A40182B717004003A7070CB706C0FF89
:101EC800FD16758F23A0E70C03A7070DB706400082
:101ED800558F23A8E70C03A7070C3D9B23A0E70C0D
:101EE80003A7070D1367070123A8E70C828023A423
:101EF800A18213064006894503C5C1826F30616F10
:101F0800B717004003A5470C83A7470C5981134511
:101F18001500C18B058999E31365250083C74182A4
:101F2800638CA7002382A18201C99387818203A3BE
:101F380007006303030002838280411106C6EFF0A5
:101F48002FF2BD4763F4A700EFF08FF1613ABD4768
:101F580063F3A700413AB24083D5218203D50182B9
:101F680041016F30A177411193962500AA852D452F
:101F780006C697200020E78000C1B2400145410114
:101F88008280411126C29394250022C44AC02A8423
:101F98003289A686AA850146254506C697200020CF
:101FA800E78060BEA6864A86A2852945972000203C
:101FB800E78060BDB2402244924402490145410194
:101FC8008280011122CC06CE3714004026CA4AC8A6
:101FD8004EC652C483447405034AB4058349840534
:101FE80003499405EFF04FE58347A40593F4F40FF4
:101FF800137AFA0F93E71700230DF40493F9F90FF6
:102008001379F90FB717004003C7A705058B6DFFB4
:1020180003D5C705A38D4705238C3705A38C270552
:10202800A38B9704F2406244D2444249B249224AFF
:102038000561828041119397050122C406C6C187B4
:102048002E8463DA0700EF30010D19C1EF30010665
:102058002165218D1DA093F7150013C5150091EF7B
:1020680093F7250099CF693D1306000A894503C5F2
:10207800C182EF30015813452400B2402244410187
:1020880082809397250163D00702EF40916A7535E6
:1020980037F60200130606E0896503C5C182EF30F2
:1020A800415509657DB7939715010145E3D707FCAD
:1020B8001795010013050577EF8061481306006442
:1020C800916503C5C182EF30C152116559B71D71C1
:1020D8004946979501009385657017A5010013057A
:1020E800256686CEA2CCEF30813701E9179501002D
:1020F80013050570EF80A14401A037F700E0F957F8
:102108005CC7FD571CCB0564B7E700E023A0871028
:102118009306701014C3B843C146B4C323A08718EC
:10212800B8C3010001001306C00381454808EF3019
:10213800E131973700209387276E3ECAED47A30108
:10214800F1029307A0102312F102D1472303F102F1
:10215800A167938707E03ECE970700009387E7E0E3
:10216800BEC497070000938707E2BEC685472304CD
:10217800F102B5472308F102970700009387C7C605
:102188003EDAB7F50700970700009387C7E33EDEFE
:10219800814697070000938787DA7000E1051945A3
:1021A800BEC0231C810097200020E780C09D5808EE
:1021B8008147994670003E96034606008507050745
:1021C800A30AC700E398D7FED24791C703578101F6
:1021D80085676373F70001A04808EF30E165AA85B9
:1021E80001C9179501001305E561EF80012101A0E0
:1021F800F6406644256182804111170500001305E9
:10220800A5E306C622C4EF30A15F1384C182230070
:10221800A40031286139034504002244B24037F64E
:102228000200130606E0896541016F30813C4111C7
:1022380006C622C493067005371400402300D40450
:10224800130780FA2300E4048347F40293F7A70FE7
:10225800A307F4022300D4042300E4048347F40210
:1022680093E72700A307F402C9391305407E23002A
:10227800040481470147814605468545EFF07F8A7A
:102288002244B240014541016F30D1014111979577
:1022980001009385A55C179501001305257306C6F3
:1022A800EF80A1151795010013054573EF80E11420
:1022B8002945EF808118B24041016F205013411128
:1022C800979501009385C55717950100130505706B
:1022D80006C6EF80811213050002EF80011629451A
:1022E800EF80A115EF20D1798567138607773376BC
:1022F800C502B2409387873803C5418385454101AC
:102308003E966F30012F4111979501009385C55175
:10231800179501001305856B06C6EF80010E13059E
:102328000002EF8081112945EF802111B24003C5D9
:102338004183854541016F30C1349747002083C7E9
:10234800B75A411193F7E70F06C617470020A30DA8
:10235800F758EF90C07005E1EF20C02AEF20106514
:10236800B2403726090003C541831306067C85451C
:1023780041016F300128B240410182804111979597
:1023880001009385E54C179501001305256406C6E1
:10239800EF80A1062945EF80410AB240410171BF93
:1023A8004111979501009385E5481795010013059C
:1023B800E56106C622C426C24AC0EF800104294549
:1023C800EF80A107EF90A06919E52244B24092443A
:1023D800024941019DB717340020130464833C4827
:1023E8007179F5741D09FD14239027012391970035
:1023F800173500201305C585EFC050587C441735A4
:1024080000201305E5841734002013042487239043
:102418000700EFC010551C482285239027012391FF
:102428009700EFC0B0555C4422852244B2409244E4
:1024380002492390070041016FC0B052411197959E
:10244800010093856542179501001305255806C6B6
:1024580022C426C2EF70717A2945EF70117EEF9081
:10246800006005E9979501009385054017950100DF
:102478001305C555EF707178179501001305C557F9
:10248800EF70B1772244B2409244294541016F7000
:10249800D17A13050002EF00706F2A8405E1979541
:1024A80001009385653C1795010013052552EF70CF
:1024B800D174179501001305A555D9B7A547A300F1
:1024C800F5009307C0125CC1FD572306F500EF0025
:1024D800D06A2300A400084CB705D4009385851A58
:1024E8003105EF10C05A084C834504003105EF2030
:1024F800B068084C930500103105EF203069044C92
:102508000565EF00C07AB104AA852685EF20D0665C
:10251800084C9305A0103105EF205067044CED26B8
:10252800AA85B1042685EF20306522852244B24071
:10253800924441016F00306B93F71500B9CB4111FC
:1025480022C417950100130565482E84979501004C
:102558009385C53506C6EF70516A2945EF70F16D50
:10256800EF90E04F01C9D93D13451400B240224411
:10257800410182809747002083C7173793F7E70FF9
:1025880093E7170017470020A300F736EF2000094C
:10259800E1BF014582807971979501009385052EE9
:1025A800179501001305854206D6EF701165294578
:1025B800EF70B168614681452800EFE09FEBEF00BE
:1025C800D05BA547A304F1009307C0122304A10020
:1025D8003EC60565FD57230AF100EF00D002EF90D3
:1025E80000481DE597950100938545291795010039
:1025F8001305C53DEF707160179501001305C53FC0
:10260800EF70B15F2945EF705163B2504561828028
:102618002800EF00305ED5BF4111979501009385E2
:10262800E526179501001305653A06C622C4EF7022
:10263800D15C2945EF707160EF9060421DE5979578
:1026480001009385A5241795010013052538EF701F
:10265800D15A179501001305253AEF70115A2244F3
:10266800B240294541016F70515D4145EF0010525C
:102678002A8405E197950100938545211795010066
:102688001305C534EF7071571795010013054538C8
:10269800E9B7A547A300F5009307C0125CC197A747
:1026A80001009387E72C5CC9FD572306F500EF006E
:1026B800D04C2300A400084CB705D4009385851A94
:1026C8003105EF10C03C084C834504003105EF206C
:1026D800B04A084CBD65A5053105EF20304B084CC4
:1026E800930530023105EF20304922852244B2405B
:1026F80041016F00504F411122C497950100938505
:10270800251A2A84179501001305452C06C6EF7073
:10271800D14EA285179501001305452DEF70F14D97
:102728002945EF70915185476309F4008947630A89
:10273800F400B2402244410182802244B240410167
:1027480099BD2244B2404101C1BD0111354697955A
:1027580001009385251D179501001305256D06CEEB
:1027680022CCEF20D14F0DE59795010093850515F3
:102778001795010013058525EF703148179501005D
:1027880013050507EF70B15B2945EF70114B01A0E8
:10279800972700209387C77E3EC485679387078065
:1027A800340017A601001306261D9795010093858E
:1027B800254017950100130525413EC6EF20C00EA0
:1027C8002A840DC9979501009385450F1795010037
:1027D8001305C51FEF707142A285179501001305F7
:1027E8006515EF7091412945EF703145F24062441B
:1027F80005618280EF80C006179501001305050D5D
:10280800EF10402FEF50C011EFE0300B17250020DC
:1028180013050546EFE00078179501001305050C30
:10282800EFE0700B2A84EF103009EFA0E032EF00E0
:10283800B127EF20301FEF101064EFC0D00F97952D
:1028480001009385A507179501001305251809C8E8
:10285800EF70B13AA285179501001305E50F51B73E
:10286800EF70B1391795010013054511EF70F13874
:102878002945EF70913CEFC06072EF90401E29C56A
:102888009795010093858503179501001305051495
:10289800EF70B136179501001305C50FEF70F135CC
:1028A8002945EF7091399795010093852501179572
:1028B80001001305A511EF70513417950100130598
:1028C800A50FEF70913305B78D3CF1BF4111170586
:1028D80000001305A5C606C6EF209172238AA182BF
:1028E8001725002013058539EF003042B93DEFF078
:1028F800EFDB17050000130545E0EFF04FDFB240AE
:1029080081450565410165AE4111979501009385A3
:10291800A511179501001305650B06C622C4EF70B3
:10292800D12D1384E1808345040017950100130518
:10293800651BEF70912C2945EF7031300345040079
:10294800B24022444101828039711C0822DC3EC217
:102958002E84B7072000B705D30026DA9385851A99
:10296800AA843EC448001C0806DE3EC6EF102012AA
:10297800EF00B020AA854800EF2010209305A01092
:102988004800EF20B020493793150501C181480060
:10299800EF20D01F979501009385050A1795010030
:1029A8001305C502EF707125835584000356640032
:1029B8001795010013050510A18193F5F507EF7030
:1029C800D1232945EF707127834794000147814639
:1029D80093F7F707D917B337F000B307F04023058B
:1029E800F4005000A2852685EF10A02A15C52A8478
:1029F800979501009385450417950100130505FD7A
:102A0800EF70B11FA285179501001305250CEF7013
:102A1800D11E2945EF707122F2506254D2542161BF
:102A28008280411122C426C22A84AE8417950100EF
:102A38001305C5F9979501009385850106C6EF70C2
:102A4800D11B13050002EF70511F2945EF70F11ECD
:102A580022852244B240A68592444101F5B5797198
:102A680022D426D22E844AD08145B2842A8961464E
:102A7800280006D6EFE0FF9FEF003010A547A3041B
:102A8800F1009307C0123EC62304A100EF20417F46
:102A9800930720033375F50297950100938585FC0C
:102AA8002AC817950100130565F2EF7011158355B3
:102AB80084008306840003566400A18193F5F5071A
:102AC800179501001305C5FCEF7031132945EF7008
:102AD800D11698408347270083461700A207D58F51
:102AE800BD6663C7F604834737002387F1808347B1
:102AF8009400294793F7F7076385E700FD57230AF2
:102B0800F100831764006359F000FD57230AF100B0
:102B18009307400602C83EC62800EF007016A2853B
:102B28004A851D35B250225492540259456182801B
:102B3800AD06E39ED7FA83445700F93326952387D9
:102B4800A18075B70111979501009385E5F2179556
:102B580001001305A5E732C606CE22CCEF70F109B5
:102B680013050002EF70710D2945EF70110D324603
:102B780018428347270083461700A207D58FBD66F2
:102B880063CAF600834737002387F180F240624426
:102B980005618280AD06E39BD7FE03445700AD3341
:102BA80022952387A180DDB739711C0822DC3EC23B
:102BB8002E84B7072000A16526DA3EC4AA841C0823
:102BC80093854520480006DE3EC6EF00506CB717D7
:102BD800004083A5470C4800B18193C5150085893D
:102BE800EF20807997950100938545F117950100AD
:102BF8001305C5DDEF70710083558400035664002A
:102C080017950100130505EBA18193F5F507EF7002
:102C1800C17E2945EF7071028347940001478146C0
:102C280093F7F707D917B337F000B307F040230538
:102C3800F4005000A2852685EF10A00515C52A844A
:102C480097950100938585EB17950100130505D825
:102C5800EF70A17AA28517950100130525E7EF709B
:102C6800C1792945EF70617DF2506254D2542161D7
:102C78008280411122C426C22A84AE84179501009D
:102C88001305C5D497950100938585E806C6EF70AE
:102C9800C17613050002EF70417A2945EF70E1799A
:102CA80022852244B240A68592444101F5BDB7175A
:102CB800004083A7470C7D8D133515008280411194
:102CC80026C2AE848D4522C406C62A84EFF00F833F
:102CD800B717004099C803A5C70C418D23A6A70CB8
:102CE800B240224492444101828003A5870C418D61
:102CF80023A4A70CF5B7011197950100938545E327
:102D080017950100130585CC32C606CEEF70E16E2B
:102D180013050002EF7061722945EF7001723246A7
:102D2800B717004083A7470C1842B18383450700B3
:102D380093C71700858B6386F500F240056505612A
:102D4800BDBFF24005618280797122D426D22E84DB
:102D58004AD081453289AA846146280006D6EFE028
:102D68004FF1212DA547A304F1009307C0123EC6D9
:102D78002304A100EF20C150930720033375F50207
:102D8800979501009385C5D92AC8179501001305A1
:102D9800E5C3EF708166835584008306840003567B
:102DA8006400A18193F5F50717950100130585DCEB
:102DB800EF70A1642945EF70416883270900056514
:102DC80083C50700ED3D83479400294793F7F7072C
:102DD8006385E700FD57230AF100831764006359F0
:102DE800F000FD57230AF1009307400602C83EC6CB
:102DF80028000925A2852685453BB25022549254C5
:102E080002594561828041118D4522C406C62A8433
:102E1800EFE0DFEEB717004003A5870CB240218D25
:102E2800224423A4A70C41018280011135469795BD
:102E38000100938525AF17950100130525FF06CEE0
:102E4800EF20E16101E9179501001305E5D4EF7062
:102E5800016F01A0EF50212D2AC6EF00F106EF0007
:102E68002166EF60B06FF240324505618280411102
:102E78001305800406C697100020E78080A837173E
:102E880000408327870A8D451305002093E7072014
:102E98002324F70AEFE03FDCEFE03FFE17A501002F
:102EA8001305058AEF70A16917950100130505F848
:102EB800EF70E168EFF0AFA1EFF00FB4BD37EFF0BE
:102EC800FFA097100020E780A0BF01458280411134
:102ED800B2862E86AA852D4506C697100020E78063
:102EE80080CAB240014541018280AE860146AA856A
:102EF800254517130020670003C99307000463E6FC
:102F0800C7021D71A2CC2A84080886CE32C6EF708B
:102F18006143B2461008A285294597100020E78032
:102F280080C6F64066442561828039558280014713
:102F380097960100938686E03388E500834708006A
:102F4800050709059183B69783C70700230FF5FE88
:102F580083470800BD8BB69783C70700A30FF5FE0C
:102F680093170701C183E3E9C7FC82804111979554
:102F780001009385E5CC17950100130525A506C624
:102F8800EF70A14713050002EF70214BB2402945AD
:102F980041016F70814A5C49411122C406C62A84E6
:102FA80091C7DC4381C72E850C4882971C4CC84BBF
:102FB800EF20C10F1C4CB240224423AA0700410154
:102FC80082804111328506C622C426C22E844AC098
:102FD800EF20E044AA8497950100938565C517956D
:102FE80001001305A59EEF704141030784000356B5
:102FF800640083554400A68617950100130545D73C
:10300800EF70A13F2945EF70414317440020130496
:10301800E485174900201309698B83470400639BE3
:10302800970081452285853F8345C40103C5618397
:10303800EF20216513040402E31124FFB240224467
:1030480092440249410182801C42011126CA4AC8A1
:1030580006CE22CC03C4270003C71700AA84220483
:10306800598C3D672E896378870003C4470083C75E
:10307800370022045D8C97950100938525BA179532
:1030880001001305A59432C6EF702137A285179564
:1030980001001305A5D0EF7041362945EF70E139DD
:1030A8009307A01032466316F400CA852685EFF010
:1030B8007FA997950100938565B6179501001305BB
:1030C800E590EF70813313050002EF700137624419
:1030D800F240D2444249294505616F7001361C42CD
:1030E800011126CA4AC806CE22CC03C4270003C74A
:1030F8001700AA842204598C3D672E8963788700BB
:1031080003C4470083C7370022045D8C97950100EC
:10311800938505B0179501001305458B32C6EF70EE
:10312800C12DA28517950100130545C7EF70E12C45
:103138002945EF7081309307A0103246631BF400D5
:103148006244F240CA8526854249D24405616FF03F
:103158001F91F2406244D2444249056182801C4278
:10316800011126CA4AC806CE22CC03C4270003C7C9
:103178001700AA842204598C3D672E89637887003A
:1031880003C4470083C7370022045D8C979501006C
:10319800938545A7179501001305458332C6EF703F
:1031A800C125A28517950100130545BFEF70E124DD
:1031B8002945EF7081289307A0103246631BF4005D
:1031C8006244F240CA8526854249D24405616FF0BF
:1031D8005F85F2406244D2444249056182801D7194
:1031E8009737002083C7476ACEC686CEA2CCA6CA28
:1031F800CAC8D2C4ED8F9739002093892967D9EFBF
:103208009737002083C7476AED8FD9EB973700209F
:1032180083C7876BED8F0145B5CB894793945700DA
:103228001C103EC4B70720003EC6172A0020130A08
:10323800EAA41C103EC88327CA0002CA02CC02CEE8
:1032480083D7070033849900184C231BF100FD77BE
:10325800231CF1005C4B2E89B1E7979501009385FB
:1032680025A11785010013056576EF7001191795DB
:103278000100130565A7EF7041182945EF70E11BA0
:10328800B387990003C5C7013345A900F6406644D2
:10329800D6444649B649264A256182808147BDBF42
:1032A8008547ADBF83471400A555B9CFFD17035611
:1032B80007014C47A300F4008347C4002800230FEC
:1032C800F100EF20800952852287979601009386A6
:1032D800266B30004C08EF00D01B2A8A55D19795F1
:1032E80001009385E598178501001305256EEF7099
:1032F800C110D285179501001305C59FEF70E10F26
:103308002945EF708113D5552285713195BF9C4DA4
:10331800DC4B81CBD04183C5C50103C561836F20D8
:10332800412D82801C4EDC4BA1CBB9C5411126C270
:103338001785010013058569AE849795010093856B
:10334800659206C622C43284EF70210BA6851795B4
:1033580001001305E59FEF70410A2945EF70E10D63
:103368008345C4012244B240924403C561831306D5
:10337800400641016F20E12782809387518303C56E
:103388000700130715002380E7008280011122CC73
:10339800173400201304844D26CA044C06CE4AC8AC
:1033A800DC484EC699CF045CDC4895CB244CDC48FD
:1033B8008DCB0145F2406244D2444249B24905618D
:1033C80082800149AA891609EF101151C8C833052E
:1033D80024011C4D23993701DC4BE9FFD9BF05496E
:1033E800D5B70949C5B710458345C50103C56183EC
:1033F8006F202120411126C2AA84414506C622C455
:10340800713705E997950100938585871785010030
:103418001305C55BEF60717E178501001305455FD5
:10342800EF60B17D2244B2409244294541016F705A
:10343800C1006146A6852A84EF60D170084CB705A3
:10344800D4009385851A31059925084C83C5040055
:103458003105EF107072084C930500103105EF101C
:10346800F072044C0565EFF09F84B104AA852685A7
:10347800EF10907022852244B24092444101A5B7D2
:10348800411126C2AA84414506C622C4013705E96E
:10349800979501009385058017850100130505534D
:1034A800EF60B1751785010013058556EF60F1745B
:1034B8002244B2409244294541016F601178614627
:1034C800A6852A84EF601168084CB705D400938557
:1034D800851A31056D2B084C83C504003105EF10A2
:1034E800B069084C9305A0103105EF10306A044C00
:1034F800EFF08FC1AA85B1042685EF10F067228509
:103508002244B24092444101F9BDB707B1619387A3
:10351800871A173700202323F73CB78700209387A3
:10352800979917370020232DF73AB7976C14157120
:10353800938757B6173700202326F73A8810930742
:10354800802186CF173700202320F73AA2CDEF003D
:103558002143B78799619387079011464C0028103B
:103568003EC2EFF0DF9C978501009385257408180B
:10357800EF60B17D1946978501009385657A13053B
:103588001103EFF0DF9A97850100938525721305E3
:10359800D103EF60917B4146978501009385A5781B
:1035A8001305E103EFF0BF98130660032C10881091
:1035B800EF00C14385476308F50A978501009385A5
:1035C80025691785010013056540EF6011631785AC
:1035D80001001305E56DEF6051622945EF60F16563
:1035E800EF10114A9357850003C75183AA97BA97DA
:1035F80013570501BA976181AA97A38AF182973771
:1036080000209387672117370020232DF726854749
:1036180017370020230AF72697370020938787213A
:10362800173700202320F728894717370020230D54
:10363800F726973700209387A721173700202323E1
:10364800F728170500001305C5B99147173700205B
:10365800230CF726EF20C11AFE406E44238BA1826B
:1036680001452D6182802A848C102800EF00213EBC
:1036780063018502978501009385855D17850100A3
:103688001305C534EF607157178501001305C5632D
:1036980099B741462C001735002013052523EF6004
:1036A800714A3DBFEFD25FD82A8408452E89B28976
:1036B80009C900C1970500009385E5736105EFF01E
:1036C800905181447D5AEF10400463C3A40481449F
:1036D800EF10A00463C6A404973700209387C7217E
:1036E8009C43DC47B307F94091872302F4006381C8
:1036F80009048327C900B307F4409587A302F4009F
:103708001C4C89C79C4799C3228582976FD01FD5C7
:103718005C44139714008504BA972390470165B752
:103728001C48139714008504BA97239007004DB7D7
:10373800832789000547B307F4409587A302F4005F
:1037480083570400638EE7028DC309476384E70447
:103758000D47E397E7FA979701009387E7BB1CCCDF
:1037680097970100938747BC11A897970100938703
:1037780027821CCC97970100938787825CC849B73A
:10378800978701009387C76D1CCC978701009387A3
:10379800276EEDB7979701009387C7BC1CCC979706
:1037A8000100938727BDD9BF85E1EFD29FC90046A5
:1037B80018448347940075839D8B6315F700EF00C9
:1037C800D01948C46FD03FCA8280EFD2FFC5138991
:1037D8003500C16442094111AA890144F114135901
:1037E8000901054A2EC6EF005072B2456346A4008F
:1037F800014541016FD09FC683A709001317140024
:10380800BA9783D707006388B700639497006374F7
:103818002A010504C1BF0545E9BFEFD21FC0AA8927
:103828002E89328BB6843A8ABE8AEF8040234DC1F6
:103838002685EF10702E8D4763E5A7007D556FD064
:103848005FC183DB4400EF0050722A84EF003073BD
:103858009307740031443305850263C5A702EF005E
:10386800D070EF0090702A84EF0070719307740095
:1038780031443305850263CDA702EF00106F93072B
:10388800450019A8EF00B06F330585021307F0173C
:103898009307C017E357A7FC2D55E3C277FB6300D6
:1038A8000B02D6865286A6854A85EFE0303641BFA0
:1038B800EF00F06C330585029307C5FFF1BF83273E
:1038C80049001385C90083D52700013779F9BDB7A9
:1038D8006955B5B7973700202392A702973700207C
:1038E80093878701904381470C463307F5004207C9
:1038F80041836393B7008280544613984700850735
:10390800C2962390E600D5B7973700209387C7FE65
:103918009C4303C58700828017350020035505FEA8
:103928008280EFD21FB2C1671387D7FF6307E50212
:103938006368A700F117630EF50001456FD0BFB2A9
:103948001387E7FF630EE500FD171D8D133515007E
:10395800F5B7EF4060357D15D5BFEF40E012E5BF04
:10396800EF404011CDBFEFD2DFAD4111AA84014431
:103978002EC6EF00905AB2456346A40001454101A6
:103988006FD07FAE9C48131514003E9583570500F1
:10399800E387B7FE0504E9BF03485500814693F75E
:1039A800F60F63E5070181473E8582805845939766
:1039B8005600BA9703D727006316B70003D7070046
:1039C800E304C7FE8506E1BF8346450001479377B8
:1039D800F70F63E4D700814711A81C451316570059
:1039E8000507B29703D60700E313B6FE3E8582802B
:1039F800EFD29FA393170501C187973A0020938AB6
:103A0800AAEF6353F00883A70A00C0479C470357EF
:103A18000400198D420541816366F5000144228541
:103A28006FD0DFA312052A94DDBFDC471394490049
:103A3800014A3E94834744006341FA02014A83479E
:103A480054006346FA028509C20993D9090183A77C
:103A58000A009847E3EBE9FCD1B71C4413195A0054
:103A6800A6853E994A85013709ED050AE1B75C4408
:103A780013195A00A6853E994A85F53519E1050AB4
:103A88007DBFE30209FC61BFAA848149C9B7EFD2AF
:103A98005F9B1C452A8481E79307C5001CC51C440D
:103AA800231204001CC09307F00F63E9B70093F5D5
:103AB800F50F2285EF10500C6FD0FF9A93940501F3
:103AC800C167C18063F7F500A6852285EF10700EE7
:103AD800E5B7C18193F5F50F2285EF10F009A685AA
:103AE8002285EF10B00AC9BF973700209387C7E037
:103AF800884382801C4599C79737002023AEA7DEEC
:103B0800014582807D558280973700209387C7DEE4
:103B1800984383474500484792073E958280EFD2F5
:103B28005F92617100451C183EC6B70780013EC808
:103B38001C183ECA8357440002CE02D002CC231E72
:103B4800F100834784002A8902D22301F1023C084C
:103B58003ED402D6553F835705002316F102EF30B5
:103B680030642307A1025C4003556400F18313F716
:103B780017008347F10252055181F99BD98FA3079A
:103B8800F102EFE0007A39C5AA8403550500EF7009
:103B9800F06D83D704002AD26800231CF10083D774
:103BA8002400231DF1001C4803D647008C43EF1066
:103BB800C07A8347B400CA86178601001306C62355
:103BC8008117A305F4006C004810EFE030045D6134
:103BD8006FD07F892155E5BF1C45B1CF03C5A7002C
:103BE800894613576500630BD7028D46630ED702CB
:103BF80085466300D702130740063305E50203C76D
:103C0800B700418B15CB83C7B700BD8B3355F54043
:103C180082801375F5031307803EC5B709671375CE
:103C2800F50313070771D1BF372709001375F5038B
:103C38001307077CD9B701458280EFD29F8003A97B
:103C48008500630409048347B900AE8493F7070E1F
:103C580091CF03459900930520030D810505B30510
:103C6800B50288446105EFF0F00205A02E85AD3756
:103C78002A8401CDDD218325C900B307B54063F847
:103C880087002E94B305A440E9FD6FD0CFFD85458C
:103C9800C9BFEFD20FFB2A8403D50500011132C634
:103CA80036C43AC22EC002CA02CC02CEEF70105CF3
:103CB80082452ACA22852ECC813D03570500231E42
:103CC800E100EF30F04DA24632469247230FA100A3
:103CD80036874C08B28622850146EFF01FB405618D
:103CE8006FD06FF8EFD2EFF561711C183EC6B707B9
:103CF80080013EC81C183ECA3C0800453ED4AA8430
:103D080002CC02CE02D002D202D6EFF0FFDF8357F8
:103D1800050035592316F102EF3090482307A10218
:103D280009C48357440091E721594A855D616FD0E2
:103D38008FF30355640052055181EFE0805E2A89B4
:103D480065D58347B40093F7070E89C71305840127
:103D5800EFF0C07583574400231EF10083478400A9
:103D68002301F1025C4003550900D98313F70708C2
:103D780083471102231CA10093F7F707D98FA300EB
:103D8800F10283572900231DF1005C40F18313F7EA
:103D980017008347F102F99BD98FA307F102EF704F
:103DA800F04C2AD251D183479400680013975700EA
:103DB8008347B400FD8BD98FA305F4001C4803D6B4
:103DC80047008C43EF106059A68717870100130737
:103DD800A702740005464C102685EFF01FA42A8917
:103DE80029D58347B400A685FD8BA305F400B1351A
:103DF8002DBFEFD20FE5832485FE2A844111268545
:103E0800EFF09FDD834734FF93F7070E9DC32AC663
:103E18002685EFF0DFD019C9834734FFB245FD8B03
:103E2800A309F4FE81C52285EFF0C06641016FD079
:103E38008FE36DDD8327C4FF2685829765F9834765
:103E480034FF93F7070E81C72285EFF0206603251C
:103E580084FE493DE1BFEFD2CFDB9C4141112A8965
:103E680003C7070089472E8493566700638CF602C0
:103E78000D466382C6049307F0076302F7022E8596
:103E8800EF10E059AA848149C16B130C4900973798
:103E98000020938767A69C43984763ECE902410199
:103EA8006FD0EFDA03D745008547E3FAE7FE2E85A2
:103EB800EF10C05AC1BF03D74500E3F2E7FE2E85D5
:103EC800EF10E055AA842285EF10C056C204C98CB1
:103ED8005DBFDC470355A900139A49003E9A931722
:103EE8000501C187635DF00083570A006395A70247
:103EF80063E574038327CA00034D5A001DA0A16718
:103F08002167A98F1307F7EFE374F7FE639509009C
:103F1800EFF03FA171FD85099DBF83278A00034DFE
:103F28004A00835DA90003576900216A138BC70003
:103F38003AC6814A33CA4D01631E5D019737002096
:103F48009387079C9C43E1DBA28662868145268590
:103F58008297D1B7A1679387F7EF930C4BFF63F074
:103F68004703B2455A85EFF05F8619CD03278B00CA
:103F7800104719CA10436380C4023107D5BFEE85C4
:103F88006685EFF05F9E71FD93861A0093FAF60F2F
:103F9800130B0B0255B7835644005C43E3EDF6F66A
:103FA80022853AC6EF10A036A1679387D7042A8ADC
:103FB800035D4400324763E897008347D90093E7DD
:103FC80007F8A306F9001C4766852286E2858297D2
:103FD800C1670844FD17337AFA00529508C02312C6
:103FE800A40115BF9737002093870791984381470D
:103FF80015C31447814763FFD500939745004C4785
:10400800BE9519C903C7550081476375E600DC45AD
:104018001606B2973E85828003C745008147E37B39
:10402800E6FE16069C45F5B7EFD20FC0AA892E8A80
:104038008144973A0020938A2A8C83A70A009847DC
:1040480063E4E4006FD08FC1DC4713944400014956
:104058003E9413BB140083474400634BF9000149A5
:1040680013BB140083475400634FF9008504F1B76C
:104078000844931759005287DA860146A2853E956F
:1040880082990509C9BF4844931759005287DA86AF
:104098000546A2853E9582990509E9B7EFD26FBA20
:1040A800814517F5FFFF13052560973700202397F3
:1040B80007849D3F6FD02FBB973700209387C78316
:1040C8009C4399CBEFD2EFB7814517F5FFFF130556
:1040D800A55D993F6FD02FB98280EFD2EFB441111F
:1040E8002315E1002E89B284B6893A8681460147B4
:1040F800ED452A84EF1071502AC61DCD0356A10044
:10410800CE85EF602124CA852285EF1011630589C9
:1041180015C1228501462C0023149100EF10B178B7
:104128002A8409C5ED452800EF10B15B22854101BD
:104138006FD0CFB24944FDB76554CDBF5C41FD1780
:104148005CC18280EFD2EFAFEF104137954733055E
:10415800F50281450D816FD00FB1EFD28FAEEF1010
:10416800E13595473305F5020D816FD0CFAFEFD21A
:104178004FAD03550500EF1091246FD0CFAEEFD2AD
:104188004FAC035505003287AE861716002003563C
:10419800C6B5972500209385E57681376FD0AFACFB
:1041A800EFD22FAAEF50811B6FD0EFABEFD26FA9E0
:1041B8009725002093850575EF10D17501456FD0BF
:1041C8008FAAEFD20FA88145171500200355E5AD3A
:1041D800EF10D1606FD02FA9EFD2AFA6972500209E
:1041E80093854573EF10117301456FD0CFA7EFD2B8
:1041F8004FA5814517150020035525B1EF10115E15
:104208006FD06FA6EFD2EFA32E85EF60C064EF608A
:10421800C06D6FD04FA5EFD2CFA2EF6080756FD081
:104228008FA45C49E1175CC95CC583572501A107C8
:104238002319F50083570501A1072318F50082808B
:10424800F1473305F502972700209387A76E9C4313
:104258003E9582808D476317F60603D7460085474B
:1042680063F2E706EFD2EF9D368536842E89EF108C
:10427800001B39C18357440093140501C18063EDC5
:1042880097022285EF10A019FD14231294009307BA
:10429800A002630EF5009307B0026301F5029307CD
:1042A8009002631BF5002285EFC0F05631A001464D
:1042B800CA852285EF70506B6FD0EF9A2285EF0088
:1042C800F056DDBF8280972600209386E6669C42E2
:1042D800014599CF9843D44217260020232EE6643F
:1042E8006396D7009726002023AAE6641385C7FEA5
:1042F8008280EFD20F95D12671443305850291450E
:10430800EF70A03E01E565556FD0EF959727002027
:1043180023A0A7625D26330585029145EF70E03C36
:104328007DD19727002023A7A760412E972700203B
:10433800239AA75E5926972700202396A75E97877A
:1043480001009387A7B0172700202321F75E97075E
:104358000000938747ED172700202327F75C0145C6
:1043680065B7EFD20F8EAA85172500201305855B48
:10437800EF10C01E6FD02F8FEFD2AF8CDD37EF104C
:10438800601F972700209387275B9C4381CF138763
:10439800C7FE09CB83D5C7FF172500201305455A4B
:1043A800EFF0400F6FD02F8CEFD2AF89EFF0BFF155
:1043B80019C9834785002A8493F7070499E70355A9
:1043C800E500EFF07FFB6FD00F8A8347C5009304A9
:1043D8004501172900201309295685E38327090079
:1043E8005CC99727002023A9975483274900E1FF38
:1043F8009727002023A49754F9B7FD172306F50043
:104408006105EF60805C8307840063C90704834704
:10441800840093E707F82304F400EF00716642056F
:10442800A94741813375F5028347840093F707FC58
:10443800C98F2304F4008347D4003E951C402318F9
:10444800A40089CF984319CB8347C40050408145C5
:1044580085073305F5024205418102978327090044
:104468005CC89727002023A9974C8327490089E730
:104478009727002023A4974C8347C400A9D78355C6
:104488000401172500201305A54BEFF0A00025BF58
:10449800EFC23FFB972700209387075F9C470144A3
:1044A8008583858B81EFAE84B2853A86EF10E01163
:1044B8002A8409C5EF10E008829408CC22856FC0D1
:1044C8009FFAEFC27FF641112E8932C6AA89712C54
:1044D800324713060502CA8697050000938585D6DC
:1044E8001725002013050544EFF09FFA2A8429CDEB
:1044F8009304C50065261946AA852685EF00F06550
:1045080085452685EF00D062178501001305C59102
:104518004E95834505002685EF0010665C483146B8
:104528008145A1075CC85CC483572401E11723199E
:10453800F40083570401E1172318F4001C4C3E854E
:10454800EFC03FF3A3042501228541016FC01FF18D
:10455800EFC23FEF4111AA842EC632C4EF10C0004B
:10456800004DB2452246834784000CC050C093F7E3
:10457800F70393E707042304F400231804002685AF
:10458800EF00307C83479400A9462317A40013D773
:10459800370005073307D7029D8B85072306F400EC
:1045A800A306E40083C70401D8488507230FF7FE54
:1045B80017270020130747385843232A0400930776
:1045C80044011DEB17270020232AF7361727002060
:1045D8002324F73617240020130484362285EFE0BD
:1045E80030611C44858B5D8D09E581452285EFE0AE
:1045F800706A41016FC03FE71CC317270020232FB3
:10460800F732C9BFEFC2FFE3970500009385C5C421
:104618000145EFF03FBF01456FC0FFE4EFC27FE205
:10462800EFF07FBF6FC03FE48347C500A1E7EFC24B
:104638005FE12A840355E500EFF0BFD215C983472F
:10464800840093F7F7FB2304F4001C4091C7DC4374
:1046580081C74C4001458297EFF0FFC6172500201F
:104668001305052EEFE090640355E400EFF0DFD06A
:104678006FC07FDF8280EFC2DFDC9727002093873F
:10468800A72B97050000938565D2172500201305F1
:10469800252B23A0070023A20700EFE0D0536FC00B
:1046A8009FDC1C4D91CBDC4381CBEFC29FD9834566
:1046B800070082976FC03FDB82809727002093878F
:1046C800672A9C4303C507008280972700209387A9
:1046D80067299C4303C5170082809727002093878A
:1046E80067289C4303C5270082809727002093876B
:1046F80067279C4303C5470082809727002093873C
:1047080067269C4303C5370082809727002093873C
:1047180067259C4303C5570082809727002093870D
:1047280067249C4303C567008280972700209387EE
:1047380067239C4303C577008280972700209387CF
:1047480067229C4303C587008280972700209387B0
:1047580067219C4303C59700828097270020938791
:1047680067209C4303C5A700828097270020938772
:10477800671F9C4303C5B70011E11D458280972739
:1047880000209387271E9C4303C5C7008280972774
:1047980000209387271D9C4303C5D7008280972755
:1047A80000209387271C9C4303C5E7008280972736
:1047B80000209387271B9C4303D5070182809727F6
:1047C80000209387271A9C4303C5270182809727D7
:1047D8000020938727199C4303D547018280972798
:1047E8000020938727189C4303D567018280972769
:1047F8000020938727179C4303D58701828097273A
:104808000020938727169C4303C5A701828097271A
:104818000020938727159C4303C5B70182809727FB
:104828000020938727149C4303C5C70182809727DC
:104838000020938727139C4303C5D70182809727BD
:104848000020938727129C4388578280972700204F
:10485800938747119C4303D5C7028280972700207E
:10486800938747109C4303D5E70219E11305800C91
:104878008280972700209387E70E9C4303C5070390
:104888008280972700209387E70D9C43C85B82802E
:10489800972700209387870C8843828097270020DA
:1048A8009387070C8843828019E17D558280F5DE65
:1048B800984265DFFDD9172700201307E71C184722
:1048C800AA877155058B6319072203C50700154789
:1048D800E37DA7FC03C737001305F0057D171377A1
:1048E800F70FE364E5FC03C35700E30003FC83C848
:1048F8006700E38C08FA03C77700494579171377EF
:10490800F70FE364E5FA03C7A70011481305F7FF9B
:104918001375F50FE36BA8F803CE97000D48130540
:10492800FEFF1375F50FE362A8F803C8B700630923
:10493800080065181378F80F1305600DE36705F78D
:1049480003C5C700794879151375F50FE36FA8F407
:1049580003C8D7000D457D181378F80FE36705F5F0
:1049680003D80701930E401751184208135808013D
:10497800E3ED0EF303C8E7007D181378F80FE3663C
:1049880005F303C827017D181378F80FE36F05F1C5
:1049980003C88700C54E75181378F80FE3E70EF1C2
:1049A80003D86701856E938EBEE06D1842081358D0
:1049B8000801E3EC0EEF03D847016D1842081358BD
:1049C8000801E3E40EEF03D8870179184208135869
:1049D8000801E36C05ED03C8A7017D181378F80FEB
:1049E800E36505ED03C5B7011D487D151375F50F82
:1049F800E36DA8EA03C5D701714879151375F50F5A
:104A0800E365A8EA03D5E7011308E00F7D15420521
:104A18004181E36CA8E803C5070249487915137575
:104A2800F50FE364A8E8C85301C937C8340059151D
:104A3800130858BFE36BA8E603A8870237C53400FC
:104A4800130555BF5918E36205E7172500202329E8
:104A5800C5F003C60501172500202325F5F00545F7
:104A6800E375C5E403D82501D04933760603E31E70
:104A780006E203C61501E30A06E217260020232FE3
:104A8800B6EC83C5270001466387A50003C6170057
:104A9800F1453306B60283C707039305C002729730
:104AA8001A071307C70516031A9796084697B38778
:104AB800B70241553E97329742074183636EE80239
:104AC800EFC23F983685EF60704CEFD0407A2A8469
:104AD800EF80A0782A94EFC0207E2A94EF60F063DC
:104AE8002A94EFF01F812A94EF2010612A94EF5046
:104AF800606222956FC03F978280EFC29F944111F8
:104B0800A307A100EF7090799305F1001705000045
:104B1800130565B9EFF04FD1014541016FC0BF944E
:104B2800EFC2BF8F17240020130404F60328840063
:104B38007959936818009724002023AB14F513784B
:104B48001800631E0800BA84BE89368B328A2E8903
:104B5800AA8AEFE07FDB7D15269509E531594A855C
:104B68006FC03F8FEFE05FDA7D152695A167E357A9
:104B7800F5FE972700209387E72798433E8C814BC3
:104B880011C70145EFC05017933B15004A85DA86D7
:104B98005686D285EF7010132A8911CD1C44F99BD3
:104BA800172700202326F7EE83270C00CDDBE388A8
:104BB8000BFA82976DB726859727002023A807EC64
:104BC800EFE05FD14146CE8517250020130545F556
:104BD800EF504177EFA060630325040BEFA06065F9
:104BE8000545EFA0606B0545EFF03FF18DBF9727B6
:104BF8000020938767E99C47858BD5C7EFC27F84E0
:104C080017250020130505F09727002023AE07E697
:104C18009727002023AC07E69727002023AA07E65A
:104C2800EFE0D008EF30D07FEFE06060EFE0E064C5
:104C3800972700209387C7E39C4381C70545EF600A
:104C4800501097270020938727DD9C4389C741652B
:104C58007D15EF50C067EFC01013EFA0E05B9727FA
:104C68000020938727F79C43139717016354070085
:104C7800EFC0401E9727002023A407EA97270020AB
:104C880023A207EA9727002023A007EA97270020F6
:104C980023AE07E8EFF09F989D23EFF02FC0EFC0F9
:104CA80020406FC04FFC8280EFC20FF82A84930423
:104CB800140201112E85B289A685214636C63A8985
:104CC800EF50E1651DE1B24638082686CE8513050A
:104CD8009404EF40404121462C084A85EF50216456
:104CE8001335150005616FC06FF70145E5BFEFC2C9
:104CF8004FF593054506172500201305E5C6EFE097
:104D080060796FC04FF6EFC2CFF341112EC6EFF0B6
:104D1800CFC4B24588C141016FC0EFF4EFC2CFF0F4
:104D2800AA842E84EF60B056AA8985452285A925D4
:104D380083C7E4011389940899E313890403CE8592
:104D480022851D2D2146930519022285392597278D
:104D58000020938767D38C432285EF006068214643
:104D6800938584022285D52B6FC04FEFEFC2EFEAFF
:104D78003971EFC040299305400645EDEF60304E8C
:104D8800630E05109727002083C7C7BF13B7170006
:104D9800972600202388E6BE014489CFC1641729DD
:104DA8000020130969CE9309400EFD14EFF0FF9916
:104DB8006348A408EFF06FBA4169B7290900096A86
:104DC800FD7A2A8B81447D199389F97B130A0A712C
:104DD800938A8AC7EFF07F9763D5A4041304400E23
:104DE800B387840217270020130707CA0324070B79
:104DF8003E948357C4016386270918403307EB4064
:104E080063EAE900834744008507B3874703D697D9
:104E18006369F706014681450945EFF08FEAAA8BD9
:104E280029E1EF2090598547631FF504896593852B
:104E3800057117250020130525B3EFE0A065A1A88B
:104E4800B30734030327090BBA9703D7C7016308CD
:104E5800970003C75700A38207002382E7000504D1
:104E6800B1B79305C5002285EFF05FEB5E8522861A
:104E780097750100938585FCEFF08FED5E85EF0057
:104E8800606F850481BF972700209387E7BF9C4701
:104E98008D83858BC1FF21616FC0AFDB01468545DE
:104EA800094502D002D202D402D6EFF08FE1AA84DB
:104EB8007DD1EFC080141389C4002A8481454A85B6
:104EC80065290C4041464A8549298329440063885D
:104ED80009084E8502D802DA02DC02DEEF500168CA
:104EE8002ACE141005462C0808184ECCEF4040175F
:104EF8001375F50F2DE58355840093E525004A8544
:104F08004D2911460C104A858929014697750100DB
:104F1800938545F32685EFF0AFE32685EF0080659E
:104F28005C40B5DB014685450D45EFF08FD9AA8475
:104F38003DD148401389C400EF5041622AC64A85D2
:104F4800E12E3246636AC5004C404A853921014644
:104F580081452685EFF0CFDF2685292D2DBF835586
:104F6800840071BFEFC2EFCD972700209387C7B1A8
:104F78009C4719CD93E78700172500201305C59E88
:104F8800172700202326F7B0EFE0604F6FC0AFCDA2
:104F9800DD9B17270020232DF7AEEF2010427DF56B
:104FA800172500201305459CEFE04050C5B7EFC218
:104FB800CFC64169AA892E8AB28A368BBA8B8144B8
:104FC800172C0020130C4CAC930C400E7D19EFF0FD
:104FD800CFF763C4A40001442DA03384940383272E
:104FE8000C0B3E948357C401638027055A87D686E5
:104FF8005286CE8513050403EFF01FCB11C523801D
:105008000B0022856FC0EFC48347F40191CF5A8704
:10501800D6865286CE8513059408EFF0FFC809C5D9
:1050280085472380FB00F1BF850455B783574500AA
:10503800638D0716EFC24FBF01112A84CD2619C50B
:105048008547630AF50405616FC04FC1EFB0B07BB7
:105058007DF9835744004947ED9BE396E7FEC14538
:105068002285612CAA842285D52E0357440002CEBE
:1050780091472A896317F700228519293C082ACC09
:105088003ECEEFB090775C55DDDF74084A86A68582
:10509800054582974DBF03574400D147E3F5E7FA2A
:1050A800032A0400C1690149972A0020938ACA9DEE
:1050B800130B400EFD19EFF04FE96344A90C22854C
:1050C800032A0400A92EA1452A8922853D24AA8401
:1050D80022857D2E14402A86AA8978082685CA85C5
:1050E800EFF0FFECAA8425D103C7F40189476315C3
:1050F800F7008347C101A1DB5546D28513856400BB
:10510800EF5041240145EF60701601C583D7C401F3
:10511800B1EB97270020938727979C479355190051
:10512800858913D73700058B11CB8983858B6397C6
:10513800B70001452EC6EFF0FFE2B2454E85EF609D
:10514800D01A0346C1012A84937519002685EF7089
:10515800300E31C92685EF60D015268511C001456E
:10516800EF603040EF2070258547E31EF5EC83C7DC
:1051780054001307F00FE388E7EC8507A382F400D7
:10518800D9B5B304690383A70A0BBE9483D7C401B6
:10519800638937015546D28513856400EF5021187D
:1051A80071D1050909BF5DDC5DBF8280EFC2CFA761
:1051B800EF60F00A11CDC1640144172900201309DA
:1051C800A98C9309400EFD14EFF02FD8634AA40070
:1051D8001715002013054579EFE0602A6FC00FA866
:1051E800330534038327090B3E958357C50163862E
:1051F800970023120500EF60D00B0504F1B797273D
:105208000020938767889C478D83858B99EBEFC235
:105218004FA31715002013052575EFE020296FC04F
:105228008FA48280EFC2EFA197050000938545B453
:105238001715002013054573EFE0E0196FC0AFA202
:1052480083C7F5FF2E858507A38FF5FE828083C768
:10525800F5FFFD1793F7F70FA38FF5FE89EBEFC264
:105268004F9E1385F5FFEFF070646FC0CF9F82806B
:10527800EFC22F9D8841050542054181EFF0D065B9
:1052880009C585472300F50005056FC0CF9D1C4162
:10529800035745008D8FBA951CC12312B5003E8572
:1052A800828093D78500A2051441DD8D8357450080
:1052B8001387E6FF18C189072312F50013D6850066
:1052C8004111238FB6FEA38FC6FE4101828018418B
:1052D8009307F7FF1CC18357450085072312F50084
:1052E800A30FB7FE8280835745008D8F2312F500E8
:1052F8001C41BE950CC12E858280AA8703D7470022
:1053080008410D8FAA952392E7008CC3828018412B
:1053180008453305A7408280835745000357650039
:105328001D8F1C4108453385A7403305A74082805F
:10533800EFC22F9141112EC62A84EFF0FFFDB2452E
:105348006373B50001A0835744000840BE9523123B
:10535800B4003E9541016FC00F91EFC28F8E41118D
:105368002E84B28532C6EFF0BFFC3246A285EF40EC
:10537800717D41016FC02F8FEFC2AF8C2E848545A0
:10538800EFF01FFB230085006FC0EF8DEFC26F8B1E
:1053980041112317B1008945EFF09FF98347E100D8
:1053A8002300F5008347F100A300F50041016FC019
:1053B8008F8BEFC20F8993D78500A2054111DD8D30
:1053C8002317B1008945EFF0BFF68347E1002300BA
:1053D800F5008347F100A300F50041016FC0AF88D5
:1053E800EFC22F861397850193D78501C1669386EF
:1053F80006F0D98F13D78500758FD98FA205370787
:10540800FF00F98D4111DD8D2EC69145EFF05FF259
:105418006C001146EF40117341016FC0CF84EFC299
:105428004F821C41854503C40700EFF0DFEB22855E
:105438006FC06F83EFC2EF801C414111894503C7DC
:10544800070083C717002307E100A307F100EFF067
:105458009FE90355E10041016FC0EF80EFB27FFE85
:105468001C414111894503C7070083C7170023075B
:10547800E100A307F100EFF01FE78357E1004101C6
:1054880013D58700A2075D8D420541816FB0BFFD2E
:10549800EFB23FFB0C4141112A8411466800EF40EE
:1054A800716A91452285EFF01FE4B247C166938681
:1054B80006F01397870113D58701598D13D78700F5
:1054C800758F598DA2073707FF00F98F5D8D410150
:1054D8006FB07FF91C45BE950CC18280AE8794439E
:1054E80091E6584101EF0CC15CC1828003C75700A7
:1054F80013671700A382E700B687D5B70CC3EDB7CB
:10550800AA87084119CD1841D44398C36313D5001D
:10551800D8C32A87034657009376160081E62320CE
:1055280007008280944381CA8C4203A847008CC339
:1055380063930601CCC3799A14C3A302C7003687C4
:10554800D1BF1C45DC471D8DB777DBB6938777DB6A
:1055580009853305F502420541818280F147B3850B
:10556800F50248452E95828083474500850723022A
:10557800F5008280EFB2FFEC2A8419E06FB0BFEE2D
:1055880083474400E5DFFD1793F7F70F2302F40084
:10559800F5F71C4403D7270005072391E700DC43F0
:1055A80099C3228582974C4889CD83475400898BBB
:1055B80099E71C4422859C479C439C478297232A51
:1055C80004000040232004004DBFEFB29FE783573B
:1055D800250041112EC691E70144228541016FB093
:1055E8009FE8035705008147F146E307F7FEB385B7
:1055F800D702404585072E948345440008C4F5F535
:10560800B247AA8481E7232A040009A81C456C0034
:1056180022859C439C43829748C85DDD85472312B9
:10562800F400B24723200400231804002319F400CF
:105638005C485CC483D72400FD172391F40071BF34
:10564800EFB23FE09717002093870734884323265B
:105658000500232405004105EFD050656FB0BFE079
:10566800EFB23FDE17140020130404321C4041112E
:1056780089CF9C472300B5002AC65CC1EFF05FFCC8
:105688001C40DC4399C33245829741016FB0BFDDAE
:10569800034745001DEB584DAA877D550DCBEFB24A
:1056A8005FDA1CC3DC479716002023AFE62CF156BF
:1056B800130507012390D7009705000093858501FE
:1056C800EFD0705101456FB01FDA7D55828082801E
:1056D800EFB23FD70111614681452800EFB07FD96D
:1056E800971700209387472A9C4328009305F00FBB
:1056F800DC473EC6EFF0DFF605616FB0DFD69717DF
:105708000020938767289C43D847A1679387C702DF
:105718006312F70A397106DE22DC26DA80004AD8DD
:105728004ED652D456D23285B284EFF05FCFAA89D2
:105738002685EFF03FD02318A4FC2685EFF09FCFF5
:105748002319A4FC2685EFF0FFCE83D744000A8AEC
:10575800231AA4FC858393F7F70F230EF4FC86071E
:10576800BD0793F7073F3301F1408A8A0149834710
:10577800C4FD6365F902CE85130584FC232C54FD12
:10578800EFF01FEE5281130104FCF2506254D25420
:105798004259B259225A925A216182802685EFF0E5
:1057A8007FC993171900D69705092390A700137985
:1057B800F90F75BF8280971700209387E71C9C43D9
:1057C800D847A1679387A7026310F70A397106DEE5
:1057D80022DC26DA80004AD84ED652D456D23285F8
:1057E800B284EFF0DFC3AA892685EFF0BFC4FD5766
:1057F8002318A4FC26852319F4FCEFF0BFC383D734
:1058080044000A8A231AA4FC858393F7F70F230E12
:10581800F4FC8607BD0793F7073F3301F1408A8AF6
:1058280001498347C4FD6365F902CE85130584FCED
:10583800232C54FDEFF0DFE25281130104FCF250F7
:105848006254D2544259B259225A925A21618280E2
:105858002685EFF03FBE93171900D69705092390C8
:10586800A7001379F90F75BF8280971700209387D7
:10587800A7119C43D847A16789076318F7083971AE
:1058880006DE22DC26DA80004AD84ED652D456D21A
:1058980032853289EFF0BFB8AA894A85EFF09FB9FF
:1058A800835749000A8A2318A4FC858393F7F70FC6
:1058B800230CF4FC8607BD0793F7073F3301F1403B
:1058C8008A8A8144834784FD63E5F402CE85130503
:1058D80084FC232A54FDEFF0BFD85281130104FC45
:1058E800F2506254D2544259B259225A925A216102
:1058F80082804A85EFF01FB493971400D6978504E9
:105908002390A70093F4F40F75BF828097170020A7
:10591800938787079C43D847A1679387E704631257
:10592800F70A397106DE22DC26DA80004AD84ED61C
:1059380052D456D23285B284EFF07FAEAA8926853A
:10594800EFF05FAF2318A4FC2685EFF0BFAE231A53
:10595800A4FC2685EFF01FAE83D744000A8A2319DA
:10596800A4FC858393F7F70F230EF4FC8607BD0785
:1059780093F7073F3301F1408A8A01498347C4FD01
:105988006365F902CE85130584FC232C54FDEFF0E2
:105998003FCD5281130104FCF2506254D254425953
:1059A800B259225A925A216182802685EFF09FA827
:1059B80093171900D69705092390A7001379F90FB3
:1059C80075BF828097170020938707FC9C43D847B0
:1059D800A1679387C7046310F70A397106DE22DCD2
:1059E80026DA80004AD84ED652D456D23285B284AE
:1059F800EFF0FFA2AA892685EFF0DFA3FD57231851
:105A0800A4FC2685231AF4FCEFF0DFA283D7440018
:105A18000A8A2319A4FC858393F7F70F230EF4FC55
:105A28008607BD0793F7073F3301F1408A8A01498A
:105A38008347C4FD6365F902CE85130584FC232CD6
:105A480054FDEFF0FFC15281130104FCF25062547F
:105A5800D2544259B259225A925A216182802685DB
:105A6800EFF05F9D93171900D69705092390A700BB
:105A78001379F90F75BF8280971700209387C7F0B5
:105A88009C43D847A167DD07631BF702EFB27F9BF2
:105A9800797132853284EFF09F982AC62285EFF01B
:105AA8007F992311A1022285EFF07F97B245230049
:105AB800A1022808EFF0DFBA45616FB0DF9A828053
:105AC80097170020938747EC9C43D847A167938793
:105AD8008704631BF702EFB2DF967971328532844F
