:040000006F00C06D60
:1000040000000000000000006F0080086F00A026C0
:1000140000000000000000000000000000000000DC
:1000240000000000000000000000000000000000CC
:100034006F004006000000006F00E00500000000B3
:100044006F00C0076F0060056F0040056F0020055A
:100054006F0000056F00E0046F00C00400000000A2
:100064006F0020086F00600A6F0020046F00000416
:100074006F00E0036F00C003000000006F00600326
:100084006F0040036F0020036F0000036F00E00265
:1000940001A001A001A001A001A001A001A001A054
:1000A40001A001A001A001A001A001A001A001A044
:1000B40001A001A001A001A001A001A037270040D8
:1000C40083476700858B81CF85472303F700371764
:1000D40000408327870CA166B58F2324F70C730097
:1000E4002030B727004003C76740218B09CF03C7DF
:1000F40027401377770F2381E74021472383E74085
:1001040085472384F18073002030373700408347CC
:100114006780858B81C785472303F7803737004085
:1001240083476780A18B81CFA1472303F78017E51D
:10013400FFDF1305657097D0FFDFE780405373003E
:100144002030B7170040930670052380D7041307A7
:1001540080FA2380E70403C6B7041376F60DA3855B
:10016400C70423800704137605022DC603C6A7001F
:10017400118A0DE22380D7042380E70403C7A70074
:10018400136747002385E7009307004B0100010034
:10019400FD17EDFFB7170040930670052380D704C1
:1001A400130780FA2380E7047D892394A7000100C4
:1001B400010001000100238007042380D704238069
:1001C400E7049306100537270040A303D780238054
:1001D40007048280137605046DDE03C6A700418AF6
:1001E4000DE22380D7042380E70403C7A700136725
:1001F40007012385E7009307007D01000100FD1737
:10020400EDFFB7170040930670052380D70413074A
:1002140080FA7D892380E704136505042394A700ED
:100224000100010001000100238007042380D7049A
:100234002380E704930630053727004079B741113E
:10024400814601468145114506C6B12AB7170040CB
:10025400130770052380E704130780FA2380E7045B
:1002640003C76704136717002383E7042380070485
:10027400B2404101828081460146814511452522D3
:10028400B7170040930670052380D704130780FA3C
:100294002380E7047D562396C7022380D704238056
:1002A400E70403C76704136717002383E704238065
:1002B400070401A0BD473305F50201007D1575FD56
:1002C4008280411122C426C206C6AA84014463174F
:1002D4009400B240224492444101828005041305F3
:1002E400803E4204C13F4180DDB7230304801547AB
:1002F4002303E48001002302A480828083076480B6
:10030400E3CE07FE23030480828083076480E3CE68
:1003140007FE03454480828083076480E3CE07FEA2
:100324002302A4808280411126C44AC24EC006C65C
:100334001377F50BAD47AA892E8995446306F70018
:1003440019456537653F8D444E854537FD59FD1484
:1003540063983401B240A244124982494101828027
:10036400135509011375F50F453F2209CDB7011146
:1003740026CC06CEB704080051371545BD37713772
:1003840069372AC6A53F32459377150089EB136573
:1003940015001375F50FF240E24405618280FD14E7
:1003A400E9FC0145CDBF397126DC4ADA4ED852D674
:1003B40056D45AD25ED006DE62CE66CCB7E700E0F1
:1003C4007D5783AA070022C603AA470023A0E71883
:1003D40023A2E718B7170040130770052380E7042A
:1003E400130780FA2380E70483C74704930B75FF40
:1003F400B684E20793FBFB0F8546AA892E8B3289CC
:1004040037240040E187015763FA76016308D50079
:100414008946130700026313D5000157D98F93F758
:10042400F70FB71C00402382FC0411472303E48028
:100434001305F00F5D3D094CD13563697C11B70795
:1004440007003E9B378707007955637EEB02B307AD
:100454009B00636AF702A9476399F90689E481441A
:10046400713D26850DA0DA850945753D05090345CD
:10047400F9FFFD14050B4D3581C49377FB0FFDF790
:10048400FD3569FD7D55B7170040130770052380BE
:10049400E704130780FA2380E70403C74704418B6A
:1004A4002382E704F250B7E700E023A0571123A208
:1004B4004711E25432445259C259325AA25A125B79
:1004C400825B724CE24C21618280A5476395F906F8
:1004D40085691309F00FB3069900B3742B01B69420
:1004E4001349F9FFB3749900856B33796901416B42
:1004F4009387F9FFB3F7270199E363FC340193D998
:100504004900C147E3E637FF99BF0569C1697D1911
:10051400D9B71305800D638869011305000263844C
:10052400790113051008CA85FD3B913521DD4E99EB
:10053400B3843441D9B7DA852D45F533CA94E30041
:1005440099F20509D933A30FA9FED5BF9387F9FF03
:1005540093F7F70F636CFC0803C75C04B707080044
:100564001377070219E3B78707007955E37DFBF09A
:1005740033079B00E3E9E7F089476390F904898036
:10058400D549E38E04ECDA850945713B110903274B
:10059400C9FF91472320E48003076480E34E07FEEC
:1005A40023033481FD17EDFBFD14110B81C49377F4
:1005B400FB0FE9FF6D3B71F5F1B58547E387F9F46E
:1005C400DA852D458D339389F4FFE38A04E8353BBE
:1005D40093F7390091EB83260480032709009307DE
:1005E4004900E39FE6E63E89CE84F1BFB5476396B2
:1005F400F9001305900BD5399DB5B1471305B00A21
:10060400E38BF9FE9947639EF902DA852D45213B78
:1006140081448D4BA149D5396396740183270480A5
:100624002320F9008504E39834FF832704801317FB
:100634002B01635507002312F90015B52322F90095
:1006440039BD9D476399F90281451305B004E13929
:10065400BD442320090023220900FD597D3193F76D
:100664007400CA9703C70700FD14398D2380A700BF
:10067400E39634FFEDB3A1476392F904CD39814485
:10068400630D0B008D479304C0036308FB009304C0
:10069400000563048B01930440041375C507E3004C
:1006A40095DC194599319939054581312685AD3156
:1006B40009459D316D39E31405DAE9B3914763992E
:1006C400F90013056006153115391305900925B78E
:0806D400E38709D8F15469B372
:1006DC009741002093814118178100201301C1918B
:1006EC00130540009735002093850511173600201F
:1006FC001306067E63FAC5008322050023A055006D
:10070C0011059105E3EAC5FE172500001305059FA9
:10071C00974500209385458E1386818063FAC5002A
:10072C008322050023A0550011059105E3EAC5FEBF
:10073C00138581809385819A6377B500232005000A
:10074C001105E36DB5FE9302800873A00230973259
:10075C0000209382620A93E2120073905230970247
:10076C0000009382220E73901234730020303D43AC
:10077C002A876373C3029377F700BDEFADE59376D9
:10078C0006FF3D8ABA960CC34CC30CC74CC7410735
:10079C00E36BD7FE11E28280B306C3408A06970250
:1007AC00000096966780A6002307B700A306B70043
:1007BC002306B700A305B7002305B700A304B700B1
:1007CC002304B700A303B7002303B700A302B700A9
:1007DC002302B700A301B7002301B700A300B700A1
:1007EC002300B700828093F5F50F93968500D58D85
:1007FC0093960501D58D61B793962700970200005B
:10080C0096968682E78086FA9680C1171D8F3E9653
:10081C00E374C3F8A5B7371700408327870A411143
:10082C0006C693E707202324F70A85451305001015
:10083C0055228D4513050020712AB24041014DA16E
:10084C0001111305800406CE22CC26CA37140040B1
:10085C004AC84EC652C497300020E780000E653F50
:10086C0083451404171500001305057AB7240040BE
:10087C004D218327840C21678D45D98F2324F40CBB
:10088C002165E52A37955B00130505D8552683C7E6
:10089C00240037E900E03707400093E71700238175
:1008AC00F400C1672320F9108327C40C8D4537054C
:1008BC004000D98F2326F40CC92281450145E92E2D
:1008CC000567B73700409306077723A6D7C083C6C2
:1008DC0007C0130787BB854593F6B60F2380D7C097
:1008EC0023A8E7C003C707C001451367470023804F
:1008FC00E7C0A1248327C40A85451305004093E76C
:10090C0007402326F40AF92005452D2E1384419A1D
:10091C0093854181FD5713160401C20523A6F440AB
:10092C0081464182C18105451D2E83C72440138712
:10093C00818093E787002381F440B70700012320CF
:10094C00F9108347070093F7F70FE5DF370900022B
:10095C002384018093844181130AF9FF97190000C5
:10096C009389C96B8C404E859104B3F5450155268E
:10097C00E39A84FE2945C52605658945130505803E
:10098C00ED2891450545692A0945D52CB737004016
:10099C001307A03E23A6E78005472383E78037E7AC
:1009AC0000E02320271103C72780B7340040171419
:1009BC00000013042467136717002381E7801305D5
:1009CC00803E97300020E780400F83A584802285ED
:1009DC008926F5B7914763EEB70217170000130786
:1009EC0067658A05BA959C41BA978287B71700400C
:1009FC0003A7470B1345F5FF698F23AAE70A03A743
:100A0C00070B698F23A8E70A03A7070A798D23A090
:100A1C00A70A8280B717004083A6470B1347F5FF40
:100A2C00F98E23AAD70A83A6070B558D23A8A70AEC
:100A3C0083A6070A758F23A0E70A8280B7170040A8
:100A4C0003A7470B498F23AAE70A03A7070B1345F4
:100A5C00F5FF45BFB717004083A6470B1347F5FFBB
:100A6C00758F23AAE70A03A7070A598D4DB7B71745
:100A7C00004003A7470B498FEDB7914763EEB702D0
:100A8C00171700001307475C8A05BA959C41BA9763
:100A9C008287B717004003A7470D1345F5FF698FF1
:100AAC0023AAE70C03A7070D698F23A8E70C03A75C
:100ABC00070C798D23A0A70C8280B717004083A662
:100ACC00470D1347F5FFF98E23AAD70C83A6070D04
:100ADC00558D23A8A70C83A6070C758F23A0E70CB4
:100AEC008280B717004003A7470D498F23AAE70C54
:100AFC0003A7070D1345F5FF45BFB717004083A6A5
:100B0C00470D1347F5FF758F23AAE70C03A7070CB6
:100B1C00598D4DB7B717004003A7470D498FEDB757
:100B2C00B717004003D7870109C5D98D239CB7009F
:100B3C00828093C5F5FFF98DD5BF371700408347E9
:100B4C00A7000347F70293F7F70F1377F70F05ED9D
:100B5C0093F6C50193C6F6FF8D89FD8E93C7F5FFFD
:100B6C00B3F5E700B7170040130770052380E704BF
:100B7C00130780FA2380E7042385D700A387B702E5
:100B8C00238007048280E205E18593F6C5018D89F7
:100B9C00DD8ED98DC1BFB717004003D58700420544
:100BAC0041819377050491EB9377F5013755E80173
:100BBC00130505803345F50282809377050C1307E6
:100BCC0000046397E7009377F50137459C1CCDB77C
:100BDC002165130505D08280814737370040A14637
:100BEC0063C4C700328582800345B740E38EA6FEFE
:100BFC003385F5000345050085072304A740CDB7D1
:100C0C0097370020938747459C431387819A3E95DD
:100C1C00636EE500177700201307071E6368A700B3
:100C2C0017370020232AA7423E858280FD57EDBF4F
:100C3C00B7270040C8C709472380E7001147238026
:100C4C00E70082801A05B727004009471365550055
:100C5C002380E7401375F50F2380A7408280B727C8
:100C6C00004001E5A38007408280239CB740239E6F
:100C7C00C740154791E20547A380E74082801A05DB
:100C8C00B73700400947136555012380E78013757A
:100C9C00F50F2380A780828012059A054D8D136570
:100CAC00C5001375F50FB73700402380A7C08280AD
:100CBC00411122C406C62A84F93D2947B307E5022F
:100CCC00B2408D83B3D7870222449507B3D7E7028E
:100CDC0037370040C207C1832316F7404101828099
:100CEC00716541111305052006C6D937B737004089
:100CFC00130770F82381E7400D47A381E7401307E2
:100D0C000004A380E74005472387E740B240410138
:100D1C00828039713EDA2ED232D436D63AD842DCC1
:100D2C0046DE973700209387673322CC804326CA50
:100D3C0006CEAA8409C41C4C99E32285A92B0C4429
:100D4C0054102686228536C6EF00901AF240624473
:100D5C00D24421618280011197370020938707309C
:100D6C0022CC804306CEAA8519C41C4C89E72AC61E
:100D7C0022851523B245104422856244F240056158
:100D8C006F00F07B011126CA4AC806CE22CC4EC693
:100D9C0052C4AA842E8901C51C4D91E3ED299C4CAB
:100DAC00804499E32685C529971700009387072D62
:100DBC00631CF402C0408357C400A18BB1C71C480C
:100DCC00A1C7FD59294A1C4483450900FD17B1E907
:100DDC001CC463DE07062286A94526854128FD57DB
:100DEC006308F502294535A0971700009387072B58
:100DFC006314F4008044C1B797170000938707264B
:100E0C00E31BF4FAC04445BFA2852685052255D9BB
:100E1C007D55F2406244D2444249B249224A0561AE
:100E2C0082801CC4050963D70700184C63CBE7000C
:100E3C00638945011C401387170018C02380B70035
:100E4C0059B7228626851D20E31F35F7D1B71C40E4
:100E5C001387170018C029472380E70061B797371D
:100E6C0000209387A71FAA85884329BF011122CC94
:100E7C0026CA4AC806CE4EC6AA842E89328401C51B
:100E8C001C4D91E30929971700009387271F6319BD
:100E9C00F406C0401C4C1CC48357C400A18BC9C3AE
:100EAC001C48BDCF1C4808409379F90F1379F90FF2
:100EBC001D8D5C486346F500A2852685752C2DE5B5
:100ECC001C440505FD171CC41C401387170018C0D3
:100EDC00238037015C486389A7008357C400858B46
:100EEC0081CBA9476316F900A285268571240DEDE7
:100EFC00F24062444A85D2444249B249056182803B
:100F0C0097170000938787196314F400804459B72E
:100F1C009717000093878714E31EF4F6C0449DBF17
:100F2C00A285268521203DDD7D59D9B74111973702
:100F3C0000209387A71226C2844322C44AC006C647
:100F4C002A892E8489C49C4C99E32685A926971757
:100F5C0000009387A712631CF402C0400317C4005F
:100F6C0093170701C18393F68700B5EE93F607013B
:100F7C009DEEA5472320F900136707042316E40010
:100F8C007D55B24022449244024941018280971718
:100F9C0000009387A7106314F4008044C1B797171F
:100FAC0000009387A70BE31BF4FAC04445BF918B59
:100FBC008DC74C5889C9930744046384F5004A854E
:100FCC009123232A04028357C4002322040093F79D
:100FDC00B7FD2316F4001C481CC08357C40093E7CC
:100FEC0087002316F4001C4881EF8357C4001307B5
:100FFC00002093F707286385E700A2854A85A52181
:10100C008357C40013F7170005C75C48232404005A
:10101C00B307F0401CCC1C480145A5F78317C4004E
:10102C0013F7070839DF93E707042316F40089BF89
:10103C00898B014791E3584818C4F1BF83D7C50089
:10104C00011122CC26CA06CE4AC84EC613F7870019
:10105C00AA842E8471EFD841634DE000B841634AF5
:10106C00E0000145F2406244D2444249B249056174
:10107C00828058547DD703A904009396370123A08E
:10108C00040063DD060670488357C400918B99C732
:10109C005C401D8E5C5899C33C401D8E5C540C50BA
:1010AC00814626858297FD570357C400631DF500C2
:1010BC009440F54763E8D706B70740208507B3D7B8
:1010CC00D700858BA5C31C48232204001CC0931792
:1010DC00370163D80700FD576314F5009C4091E37A
:1010EC0068C84C5823A02401ADDD930744046384E5
:1010FC00F50026850129232A0402A5B70C500146C8
:10110C00854626850297FD572A86E31FF5F69C40F7
:10111C00A5DF75476385E70059476394E70423A06F
:10112C00240181B7136707042316E4007D551DBF06
:10113C0083A90501E38709F203A905008D8B23A080
:10114C00350133093941014791E3D84918C4E35AB1
:10115C0020F11C540C50CA864E8626858297634912
:10116C00A0008357C40093E707042316F4007DBF47
:10117C00AA993309A940E1BF9C49B9CF011122CCEE
:10118C0006CE2A8411C51C4D81E72EC62922B245F4
:10119C0097170000938787EE639BF5004C4083976D
:1011AC00C50095C722856244F240056141BD971781
:1011BC0000009387A7EE6394F5000C44CDB7971706
:1011CC0000009387A7E9E39CF5FC4C44C9BFF240AF
:1011DC00624401450561828001458280411122C42F
:1011EC0006C62A842316B5002317C5002320050044
:1011FC0023220500232405002322050623280500AD
:10120C00232A0500232C0500214681451305C5051D
:10121C00EFF0EFD5971700009387A7BD5CD0971719
:10122C000000938707C01CD497170000938747C40E
:10123C005CD497170000938707C700D01CD8B24026
:10124C0022444101828097050000938525F389AAE9
:10125C00411126C2130680069384F5FFB384C402A1
:10126C004AC02E8922C406C69385440781262A8447
:10127C0001CD2320050023222501310508C4138646
:10128C0084068145EFF0AFCE2285B24022449244D1
:10129C000249410182801C4DBDE3411106C622C4A6
:1012AC0097070000938767FA1CD597170000938760
:1012BC00A7E49C43232405042326050423280504C2
:1012CC006314F50085471CCD2A841D2848C022854F
:1012DC00052808C422852D2048C448400146914564
:1012EC00F53D08440546A545D53D48440946C94544
:1012FC00F53585471CCCB240224441018280828066
:10130C00411197170000938727DF26C284434AC0F8
:10131C0006C69C4C22C42A8999E32685AD3F93844A
:10132C0084048044DC40FD1763D607009C40B9CF91
:10133C008440C5BF0317C40039E7C1778507232252
:10134C0004062320040023220400232404005CC48C
:10135C0023280400232A0400232C04002146814561
:10136C001305C405EFF0AFC0232A0402232C04029A
:10137C0023240404232604042285B24022449244EC
:10138C000249410182801304840671BF91454A854C
:10139C00C13588C051FDB1472320F9000144E9BF94
:1013AC00797122D44AD052CC56CA5AC85EC606D6D7
:1013BC0026D24ECE2A8AAE8A130485040149054BE7
:1013CC00FD5B09ECB25022544A8592540259F24901
:1013DC00624AD24A424BB24B456182800444832913
:1013EC004400FD1963D409000040E1BF83D7C40059
:1013FC00637BFB008397E40063877701A6855285A6
:10140C00829A3369A90093848406E1BF1971A6DA24
:10141C00AE848395E500A2DC86DE328463DC0500B5
:10142C0083D7C40023A0060093F7070885E793072A
:10143C0000401DA0300836C6EF00702CB246E341C8
:10144C0005FE7247BD67F98F7977BA9793B7170086
:10145C009CC2F1BF930700041CC0F6506654D654CE
:10146C0001450961828083D7C500011122CC06CECB
:10147C0026CA4AC8898B2E8489CF930774041CC052
:10148C001CC885475CC8F2406244D244424905619D
:10149C00828074003000AA84953FA2452A89268553
:1014AC00312201ED8317C40013F7072069FFF19B6C
:1014BC0093E727002316F400C9B79707000093871A
:1014CC00C7D89CD48357C40008C008C893E7070842
:1014DC002316F400A2475CC8B24791CF8315E400F1
:1014EC002685EF00702401C98357C400F19B93E754
:1014FC0017002316F4008357C4003369F900231630
:10150C00240151B7DDC183A7C5FF411122C406C612
:10151C0026C21384C5FF63D307003E94AA84EF0050
:10152C0090279387C1809C4381EF2322040023A63C
:10153C0081802244B2402685924441016F00D0251F
:10154C00637EF40014403307D4006396E70098439D
:10155C00DC43369718C05CC0D9BFBA87D84319C3CF
:10156C00E37DE4FE94433386D700631F860010406E
:10157C00B29694C33386D700E31DC7FA1043584381
:10158C00B29694C3D8C375B76375C400B1479CC0F9
:10159C004DB71040B306C4006316D700144358432C
:1015AC00B29614C058C0C0C369B78280011126CA54
:1015BC0093843500F19806CE22CC4AC84EC6A104BD
:1015CC00B14763F5F404B14463E4B4042A89EF0031
:1015DC00901C9387C18098433A8429E493870181B6
:1015EC009C4399E781454A85EF00C07D23A8A180E3
:1015FC00A6854A85EF00007DFD5963193507B14773
:10160C002320F9004A85EF00301929A0E3DE04FA03
:10161C00B1471CC10145F2406244D2444249B2492F
:10162C00056182801C40858F63CF0702AD4663F64F
:10163C00F6001CC03E9404C031A05C4063138702CA
:10164C0023A6F1804A85EF0030151305B4009307EB
:10165C00440061993307F5405DDF3A94898F1CC0D3
:10166C005DBF5CC3C5B72287404085BF13043500FE
:10167C007198E30285FCB305A4404A85A127E31CBD
:10168C0035FBB5BF1C46FD171CC663DA0700184EA8
:10169C0063C5E700A9476394F5006FF02FFD1C426A
:1016AC002E851387170018C22380B7008280011182
:1016BC0022CC26CA4AC84EC652C406CE2A89AE8946
:1016CC003284B304D6007D5A63149400014509A8F2
:1016DC00834504004E864A8575370504E31645FF9D
:1016EC00F2406244D2444249B249224A05618280A6
:1016FC00357122CD26CB4AC94EC706CF52C556C32B
:10170C005AC1DEDEE2DCE6DAAA89AE84328936849E
:10171C0001C51C4D91E3413697170000938707963E
:10172C00639CF40C83A4490083D7C400A18BFDC730
:10173C009C48EDC793070002A304F1029307000332
:10174C0002D22305F10222C6930B5002971A000015
:10175C00938ACA96054C294B4A848347040099C343
:10176C006391770FB30C2441638D0C00E6864A8697
:10177C00A6854E852D3FFD576307F51E9256E696BE
:10178C0036D2834704006380071EFD5713091400EB
:10179C0002C802CE3ECA02CCA309010482D48345FE
:1017AC00090015465685EF00607D13041900C247E9
:1017BC0059E913F7070109C713070002A309E1044C
:1017CC0013F7870009C71307B002A309E104834686
:1017DC0009001307A0026380E608F2474A84814699
:1017EC0025460347040093051400130707FD63798E
:1017FC00E60AB5CA3ECE85A8971700009387078ADC
:10180C006395F40083A4890005B7971700009387AC
:10181C00E784E39BF4F083A4C90039B7A6854E8511
:10182C00EFF0CFF001D97D55FA406A44DA444A49C9
:10183C00BA492A4A9A4A0A4BF65B665CD65C0D6139
:10184C008280050419BF330555413315AC00C98F8F
:10185C003EC82289A9B7324793064700184336C6BB
:10186C00634907023ACE034704009307E002631F63
:10187C00F704034714009307A002631BF702B24757
:10188C000904138747009C433AC663C107023ECA4A
:10189C0035A83307E04093E727003ACE3EC8E1B7BE
:1018AC00B387670385462E84BA9725BFFD57C5B706
:1018BC00050402CA81468147254603470400930567
:1018CC001400130707FD6376E606F1F28345040066
:1018DC000D46170500001305E57E4D2511CD970724
:1018EC0000009387277E1D8D93070004B397A700F4
:1018FC00424505045D8D2AC8834504001946170529
:10190C0000001305657C130914002304B102BD25E6
:10191C003DC197E7FFFF9387276E95E74247B24794
:10192C001377071009CF91073EC69257D2973ED234
:10193C0025B5B387670385462E84BA97BDBF9D072F
:10194C00E19BA107D5B7780097060000938666D671
:10195C0026860C084E8597000000E7000000FD5716
:10196C002A8AE314F5FC83D7C40093F70704E39C9D
:10197C0007EA125555BD780097060000938666D38A
:10198C0026860C084E85012AD9BF797156CA9C4906
:10199C00BA8A984522D426D24ECE52CC06D64AD0FC
:1019AC005AC85EC6AA892E84B284368A63D3E700ED
:1019BC00BA879CC00347340419C385079CC01C40DC
:1019CC0093F7070281C79C4089079CC00329040038
:1019DC0013796900631A0900130B9401FD5B5C44D5
:1019EC009840998F634CF9041C408346340493F758
:1019FC000702B336D000A5EB13063404D2854E850E
:101A0C00829AFD576303F5041C4011469840998B4C
:101A1C00544481446397C700B384E64063D3040005
:101A2C0081441C4418486354F700998FBE940149B3
:101A3C0069047D5B63982405014509A885465A868F
:101A4C00D2854E85829A631E75017D55B250225403
:101A5C0092540259F249624AD24A424BB24B456106
:101A6C0082800509ADBF3307D40013060003A30120
:101A7C00C7040347540493871600A2978906A381D1
:101A8C00E7049DBF85462286D2854E85829AE30E59
:101A9C0065FB050945B7797122D426D24AD04ECEC2
:101AAC0006D652CC56CA5AC8B68983C68501930746
:101ABC0090063289AA842E8413863504638DF6022F
:101ACC0063E2D706930780056387F61863EDD700AA
:101ADC006380062293073004638EF60A930A24046B
:101AEC002301D404C9A0930730066385F60A930733
:101AFC004006E395F6FE1C40084393F60708930551
:101B0C004500C5C61C410CC363D807001307D0029F
:101B1C00B307F040A301E404970600009386465BEC
:101B2C0029476DA8930700076383F61663E5D70270
:101B3C009307E006638AF6189307F006E390F6FA2B
:101B4C000C401C4313F8050813854700630708066F
:101B5C0008C39C438DA893075007E383F6FE9307B5
:101B6C008007638AF61293073007E399F6F61C4355
:101B7C00D04181459386470014C383AA070056853C
:101B8C00F52E01C53305554148C05C401CC8A30166
:101B9C00040471A81C43930A2404938647009C43B5
:101BAC0014C32301F4048547D5B793F607041C41ED
:101BBC000CC3B9DAC207C18781BF93F5050408C30A
:101BCC00C9D983D707001307F0066387E60E97067B
:101BDC0000009386E64F2947A30104044C400CC433
:101BEC0063C5050008406D9908C099E3B28A91CD90
:101BFC00B28AB3F5E702FD1AB69583C505002380BA
:101C0C00BA00B3D5E70263FFE70AA147631EF700EA
:101C1C001C40858B91CB58401C4863C7E700930749
:101C2C000003A38FFAFEFD1A3306564110C84E87E7
:101C3C00CA867000A2852685893B7D5A631E450B9A
:101C4C007D55B250225492540259F249624AD24AFA
:101C5C00424B45618280A382D5049706000093868F
:101C6C0026470C40084313F805081C411105630D69
:101C7C00080208C313F7150001C793E505020CC051
:101C8C004147B9FB0C4093F5F5FD0CC0B1B79C4135
:101C9C0093E707029CC193078007A302F4049706FD
:101CAC0000009386264475BF13F8050408C3E303AC
:101CBC0008FCC207C1837DBF97060000938646418E
:101CCC00214719BFAE8735B794411C43CC4913F853
:101CDC000608138547006306080008C39C438CC3A1
:101CEC0001A808C393F606049C43F5DA2390B700C9
:101CFC0023280400B28A25BF14485686CA85268537
:101D0C008299E30F45F31C40898B8DE7B247484419
:101D1C00E359F5F23E8535B785465686CA85268544
:101D2C008299E30F65F1050A5C443247998FE345CC
:101D3C00FAFEE9BF014A930A94017D5BF5B70111E4
:101D4C0022CC06CE2A8409C91C4D99E732C62EC472
:101D5C00EFF06FD43246A245970700009387073205
:101D6C006316F60250401C46FD171CC663D00704D0
:101D7C00184E63C7E70093F7F50F29476398E702FE
:101D8C0022856244F24005616FF04F8E9707000088
:101D9C009387C7306314F6001044F1B7970700001F
:101DAC009387C72BE311F6FC504475BF1C4213F507
:101DBC00F50F1387170018C22380B700F240624456
:101DCC0005618280411122C42A842E8523A2019AA6
:101DDC0006C6EFE0FFE2FD576317F5009387419AC3
:101DEC009C4391C31CC0B2402244410182804111EA
:101DFC0022C42E848395E50006C64522634905005E
:101E0C007C48AA977CC8B240224441018280835707
:101E1C00C4007D777D17F98F2316F400EDB783D7B7
:101E2C00C500011122CC26CA4AC84EC606CE93F76D
:101E3C000710AA842E843289B68991C78395E50050
:101E4C008946014631228357C4007D777D17F98F6F
:101E5C002316F4008315E4006244F240CE864A86D1
:101E6C00B24942492685D24405613DA8411122C49C
:101E7C002E848395E50006C6E128FD570357C40060
:101E8C00631BF500FD77FD17F98F2316F400B240A4
:101E9C002244410182808567D98F2316F40068C8DB
:101EAC00FDB78395E50005A8411122C42A842E852F
:101EBC00B285368623A2019A06C6EFE0FFD1FD5704
:101ECC006317F5009387419A9C4391C31CC0B240A1
:101EDC00224441018280411122C42A842E8523A2EE
:101EEC00019A06C6CD20FD576317F5009387419ADA
:101EFC009C4391C31CC0B2402244410182804111D9
:101F0C0022C42A842E85B28523A2019A06C6D1202A
:101F1C00FD576317F5009387419A9C4391C31CC0EE
:101F2C00B240224441018280411122C42A842E8570
:101F3C0023A2019A06C66520FD576317F500938707
:101F4C00419A9C4391C31CC0B240224441018280FF
:101F5C00411122C42A842E85B285368623A2019A89
:101F6C0006C66120FD576317F5009387419A9C4381
:101F7C0091C31CC0B24022444101828093F5F50FFD
:101F8C002A966314C5000145828083470500E38DC2
:101F9C00B7FE0505FDB782808280411122C42A84D8
:101FAC002E85B285368623A2019A06C6A920FD5736
:101FBC006317F5009387419A9C4391C31CC0B240B0
:101FCC002244410182809307800523A2F19A7D551A
:101FDC0082809307800523A2F19A7D558280930716
:101FEC00800523A2F19A014582809307800523A2E4
:101FFC00F19A7D5582809307800523A2F19A7D5535
:10200C008280000053746172742040436869704987
:10201C00443D253032580A002530386C64200000CD
:10202C003D256C64200A0000444D4120656E64001F
:10203C00BCE9FFFFE4E9FFFF0CEAFFFF24EAFFFF26
:10204C003EEAFFFF4EEAFFFF76EAFFFF9EEAFFFF44
:10205C00B6EAFFFFD0EAFFFF00000000000000001E
:10206C000000000000000000000000000000000064
:10207C000000000000000000000000000000000054
:10208C000000000000000000000000000000000044
:10209C000000000000000000000000000000000034
:1020AC000000000000000000000000000000000024
:1020BC000000000000000000232D302B2000000049
:1020CC00686C4C006566674546470000303132331A
:1020DC003435363738394142434445460000000018
:1020EC003031323334353637383961626364656682
:0820FC0000000000004000207C
:102104000000000084200000A420000064200000DF
:1021140000000000000000000000000000000000BB
:1021240000000000000000000000000000000000AB
:10213400000000000000000000000000000000009B
:10214400000000000000000000000000000000008B
:10215400000000000000000000000000000000007B
:082164000842002000400020A9
:00000001FF
