:040000006F108037C6
:1000040000000000000000006F0080086F00E02284
:1000140000000000000000000000000000000000DC
:1000240000000000000000000000000000000000CC
:100034006F004006000000006F00E00500000000B3
:100044006F0080056F0060056F0040056F0020059C
:100054006F0000056F00E0046F00C00400000000A2
:100064006F0060046F0040046F0020046F00000400
:100074006F00E0236F00C003000000006F00600306
:100084006F0040036F0020036F0000036F00E00265
:1000940001A001A001A001A001A001A001A001A054
:1000A40001A001A001A001A001A001A001A001A044
:1000B40001A001A001A001A001A001A0B717004068
:1000C400130770052380E704130780FA2380E704ED
:1000D4002396A70223800704371700408347270588
:1000E400898BEDDF835707053717004083472705C2
:1000F400898BEDFF3717004083472705898BEDDF98
:10010400035507058280B7170040930670052380C6
:10011400D704130780FA2380E70403C6B7041376D1
:10012400F60DA385C70423800704137605022DC6A4
:1001340003C6A700118A0DE22380D7042380E704B5
:1001440003C7A700136747002385E7009307004B05
:1001540001000100FD17EDFFB7170040930670057D
:100164002380D704130780FA2380E7047D8923942E
:10017400A70001000100010001002380070423807F
:10018400D7042380E7049306100537270040A30310
:10019400D780238007048280137605046DDE03C6AE
:1001A400A700418A0DE22380D7042380E70403C714
:1001B400A700136707012385E7009307007D01006B
:1001C4000100FD17EDFFB71700409306700523806B
:1001D400D704130780FA7D892380E7041365050497
:1001E4002394A700010001000100010023800704FB
:1001F4002380D7042380E704930630053727004083
:1002040079B74111814601468145114506C6B52A93
:10021400B7170040130770052380E704130780FA1B
:100224002380E70403C76704136717002383E704E5
:1002340023800704B2404101828081460146814502
:100244001145A122B7170040930670052380D704F7
:10025400130780FA2380E7047D562396C702238080
:10026400D7042380E70403C76704136717002383B5
:10027400E7042380070401A0BD473305F50201000C
:100284007D1575FD8280411122C426C206C6AA844A
:10029400014463179400B240224492444101828095
:1002A40005041305803E4204C13F4180DDB7B71702
:1002B4000040130700032388E702854723A8F1823F
:1002C40073002030411106C6EF008076F5BF23038A
:1002D400048015472303E48001002302A480828064
:1002E40083076480E3CE07FE2303048082808307B0
:1002F4006480E3CE07FE03454480828083076480E4
:10030400E3CE07FE2302A4808280411126C44AC2A0
:100314004EC006C61377F50BAD47AA892E899544BE
:100324006306F70019456537653F8D444E854537AB
:10033400FD59FD1463983401B240A2441249824924
:1003440041018280135509011375F50F453F2209B8
:10035400CDB7011126CC06CEB70408005137154598
:10036400BD37713769372AC6A53F324593771500E3
:1003740089EB136515001375F50FF240E24405612E
:100384008280FD14E9FC0145CDBF397126DC4ADACF
:100394004ED852D656D45AD25ED006DE62CE66CC41
:1003A400B7E700E07D5783AA070022C603AA4700E7
:1003B40023A0E71823A2E718B71700401307700516
:1003C4002380E704130780FA2380E70483C74704E4
:1003D400930B75FFB684E20793FBFB0F8546AA894E
:1003E4002E8B328937240040E187015763FA760166
:1003F4006308D5008946130700026313D50001572B
:10040400D98F93F7F70FB71C00402382FC041147E0
:100414002303E4801305F00F5D3D094CD135636976
:100424007C11B70707003E9B378707007955637E29
:10043400EB02B3079B00636AF702A9476399F906C5
:1004440089E48144713D26850DA0DA850945753D11
:1004540005090345F9FFFD14050B4D3581C4937758
:10046400FB0FFDF7FD3569FD7D55B71700401307F8
:1004740070052380E704130780FA2380E70403C789
:100484004704418B2382E704F250B7E700E023A03E
:10049400571123A24711E25432445259C259325AD5
:1004A400A25A125B825B724CE24C21618280A547A6
:1004B4006395F90685691309F00FB3069900B374BF
:1004C4002B01B6941349F9FFB3749900856B337902
:1004D4006901416B9387F9FFB3F7270199E363FC43
:1004E400340193D94900C147E3E637FF99BF056951
:1004F400C1697D19D9B71305800D63886901130596
:1005040000026384790113051008CA85FD3B913507
:1005140021DD4E99B3843441D9B7DA852D45F533BD
:10052400CA94E30099F20509D933A30FA9FED5BFF4
:100534009387F9FF93F7F70F636CFC0803C75C0418
:10054400B70708001377070219E3B787070079553F
:10055400E37DFBF033079B00E3E9E7F08947639011
:10056400F9048980D549E38E04ECDA850945713BA9
:1005740011090327C9FF91472320E48003076480FE
:10058400E34E07FE23033481FD17EDFBFD14110B2D
:1005940081C49377FB0FE9FF6D3B71F5F1B5854796
:1005A400E387F9F4DA852D458D339389F4FFE38AE3
:1005B40004E8353B93F7390091EB83260480032745
:1005C400090093074900E39FE6E63E89CE84F1BF24
:1005D400B5476396F9001305900BD5399DB5B1471E
:1005E4001305B00AE38BF9FE9947639EF902DA8595
:1005F4002D45213B81448D4BA149D5396396740126
:10060400832704802320F9008504E39834FF83279B
:10061400048013172B01635507002312F90015B545
:100624002322F90039BD9D476399F90281451305D9
:10063400B004E139BD442320090023220900FD59F7
:100644007D3193F77400CA9703C70700FD14398DF1
:100654002380A700E39634FFEDB3A1476392F90426
:10066400CD398144630D0B008D479304C0036308A7
:10067400FB009304000563048B0193044004137589
:10068400C507E30095DC1945993199390545813150
:100694002685AD3109459D316D39E31405DAE9B399
:1006A40091476399F900130560061531153913054F
:1006B400900925B7E38709D8F15469B37D1662061A
:1006C400618693178601E18763D407000145828020
:1006D400931726003307F500AE9718439C4363E74E
:1006E400E7007D16E37FF7FC7D5582800545828017
:1006F400FD15E205E18513978501618793F7F50FF1
:1007040063480700FD15139725002A97584365D7BA
:10071400138517006205618582803308B5021C4287
:1007240083A80600B335B502C29733B50701AE9866
:10073400469585486367B5006394A50063E30701A4
:1007440081480C43C6950CC388C21CC28280814771
:100754001397870161876343B7008280139727004B
:100764002A97232007008507E5B781470147939619
:100774008701E18663C5B60013351700828093961E
:100784002700AA9694428507558FD5B793D755402D
:100794008A07AA979C4305453315B5007D8D828051
:1007A40017D3FFDFE702A34A2A84993705C59317B5
:1007B40025003E940327C4FF814711EB7D151605E0
:1007C4003E954205418517D3FFDF6700834A0583C1
:1007D4008507E5B70145C5BF814713978701618741
:1007E4006343C700828013972700B386E5009442D1
:1007F4002A97850714C3D5B77D166206618601471B
:1008040093178601E18763D50700133517008280AB
:1008140093172600B306F500AE9794429C437D16C9
:10082400B58F5D8FF1BF8A05AA9501476363B50053
:10083400828083A6C5FFF11593D71600D98F9CC17A
:100844001397F601E5B72A8301480147014563433D
:10085400D7008280B387050183A80700B307060188
:100864009C43C697AA976384F80033B5170105071C
:10087400B3080301620723A0F80061871108C1BF10
:100884002A8301478147014563C3D70082803388A7
:10089400E50083280800330EE600032E0E0033889B
:1008A400A8403308C8416384080133B508018507AB
:1008B400B308E300E20723A00801E1871107E9B7C1
:1008C40017D3FFDFE702A3380111B286B2842E8664
:1008D400AA850A8575372A84A6850A85793533342D
:1008E4008000060413351500018D056117D3FFDF61
:1008F4006700233817D3FFDFE702E3324111AA89E7
:10090400AE8A328BB68402C202C402C60144131CEE
:100914008401135C8C4163499C02939B1400FD1B6E
:100924000549138CF4FFF15C33048901620461848A
:10093400634D740592478E04CE9423AEF4FE4101B8
:1009440017D3FFDF6700A33113192400B30B2B0166
:10095400014A93172A00D69783A50B008843780091
:10096400340050005D3B050A93178A01E187F11BAF
:10097400E351FCFE92474E9905042320F900A24757
:100984003EC2B24702C63EC459B7131A8901135A6C
:100994008A41131D240093178A01E18763CF9700CE
:1009A40092470A044E941CC0A24705091379F90F13
:1009B4003EC2B24702C63EC485BFB3079A031315AD
:1009C4002A0056950841780034005000050AEA9739
:1009D400DA978C439933C1B709CDB7170040130791
:1009E40070052380E704130780FA2380E704239625
:1009F400A702828019C1814799E982803387F50073
:100A0400834607003307F50085072300D700E397E3
:100A1400C7FEE5B719C1FD5781E98280910503A797
:100A2400C5FF1105232EE5FE7D16E319F6FEF5B785
:100A3400797122D417340000130484C11C4006D6F3
:100A440026D24AD04ECE91C782979737000023A171
:100A540007C05C4089CB03D54185BD3F5C4082978C
:100A640003D56185953F1C406399071897370000AB
:100A740083C717C5858B95C797370000A38207C422
:100A8400173700000347F7C3914763FCE7009D2134
:100A94009737000083C7F7C2F9178A07A2979C43C8
:100AA40082979737000083C767C6918B89C79720C1
:100AB40001E0E78080731C4491C38297938701858A
:100AC400984317360000034676B63E8997340000F3
:100AD4009384C4B59737000083C747B5939617002E
:100AE400BA9683D60600638006109737000083C742
:100AF400E7B363F2C70886073E97835507002310C0
:100B0400070003D541852EC6239E0184F1359387C2
:100B140081869C4317350000034545B11317250012
:100B2400BA979C43B2458297AA8903D561856D35EE
:100B34009737000083C787AF1397170083270900EF
:100B440003D5C1851345F5FFBA9703D7070033755D
:100B54003501598D2390A70083C70400850793F7B7
:100B6400F70F173700002303F7AC173700000347CC
:100B7400F7AB63E6E70097370000238907AA1C4018
:100B8400ADEF9387018698433E8425CB97370000C9
:100B940083C777B391CB9737000083C797B289E7B0
:100BA400972001E0E780401A1C4082972A8431C5CF
:100BB4009C48AA97173700002322F7A893874186F9
:100BC4009C4385CF03D54185013D2285971001E0E3
:100BD400E780E0842254B25092540259F24903D57A
:100BE40061854561D5BB850793F7F70F97360000FC
:100BF400238EF6A2E3E0C7EECDBDB2502254925448
:100C04000259F249456182809167B7C600409387D3
:100C1400373023A6F6200F10000097370000938783
:100C2400E7A0884F9387C18A9C4331671307373005
:100C3400F053B7071000FD17918F99833A0523A647
:100C4400E6205D8D82804111B7170040985F3AC657
:100C5400945F3247E39CE6FE3245410182804111B4
:100C640006C6D5379736000083C6C699858AB1C6AD
:100C7400930730333307F502B337F5023983CA07D4
:100C8400D98F173700001307679A584B0145630340
:100C9400F7023385E740636BF70037653D0889C683
:100CA40037856F0813050590198D3E951737000099
:100CB4002328F798B24041018280E5473307F502C3
:100CC400B337F5022583DE0765BF411122C41384BF
:100CD400C18918404AC006C61C5F26C2138981898F
:100CE4009983858BC1C31C5F973400009384049D52
:100CF40093F7F7F91CDF9737000083C7279C93F716
:100D040007048DC39387C1869C438297973700005D
:100D140023AEA79A83C7040093F7F70B1737000095
:100D2400230EF798854717370000A30BF79883C75E
:100D3400440093F7070481EF9387C18A9C43D84406
:100D4400B8D3930700FC17370000230BF79683876B
:100D5400640063D90700832709009C431737000008
:100D64002301F79618401C5F8583858BC9CBF55703
:100D74001CDF01000100010001000100010001006D
:100D84000100010001000100010001000100010057
:100D94000100010001000100010001000100010047
:100DA4000100010001000100010001000100010037
:100DB4000100010001000100010001000100010027
:100DC4000100010001000100010001000100010017
:100DD4000100010001000100010001000100010007
:100DE40001000100010001000100010001000100F7
:100DF40001009387C18A9C4313075004B8CB184061
:100E04001C5F9183858B89CFBD571CDF9387C18A73
:100E14009C4323A807048547173700002302F78A59
:100E240083270900D8430583058B19C7D843759BCD
:100E3400D8C3D843799BD8C3B240224492440249D0
:100E440041018280397106DE16DC1ADA1ED82AD6F0
:100E54002ED432D236D03ACE3ECC42CA46C872C61E
:100E640076C47AC27EC09535F250E2525253C253D0
:100E74003255A255125682567247E2475248C2482A
:100E8400324EA24E124F824F21617300203093875D
:100E9400C18A94431737000013074782BC5289CF95
:100EA40083472700858B89EB83473700858BFDD7E4
:100EB4009737000023860780828037C700401306D7
:100EC400C00393062003972500009385257F83277D
:100ED4008720C18393F7F7036369F600832787208C
:100EE400C18393F7F70363E6F60083C74500858B58
:100EF400F9DF82809387C18A944317270000130780
:100F0400E77BBC5289CB83470700858B91CB97271E
:100F140000002387077A97270000A383077A82803B
:100F240083471700858BF1DFDDB79387C18A904330
:100F340037C70040C145E54683278720C18393F71F
:100F4400F70363FBF50083278720C18393F7F70337
:100F540063E4F6003C52EDF382801387C1891843A1
:100F6400AA87185F1583058B25EF03451500150522
:100F74001377C51F19C6B386E70083C6260023006E
:100F8400D60095C59726000083C6A67393F606047B
:100F94000945A1CAB386E70083C63600054693F522
:100FA400F6066390C504E206E18663CC0602338547
:100FB400E7008347150003470500A20793F707706E
:100FC400D98F1397070141839376074099C6136716
:100FD40007802392E18A014582802392F18AE5BF4A
:100FE400054582809386C18A8C4236859726000007
:100FF4009386C66C984593170701C183137817200D
:101004003E86630408041377072079C303C72600C8
:1010140013671700172800002303E86A1307001951
:10102400B8D1130700F897250000238BE5681387D0
:10103400C1890C4337080010D855719B13672700EA
:10104400D8D598413367070198C11377261005C393
:101054001376061059CE03C7060013671700172628
:101064000000230DE66417270000231D076483C6D0
:10107400460093C7F7FFC207E206E186C183184121
:1010840063D106029396170163DE060630538D463C
:1010940063E9C6008546172600002303D66234534D
:1010A400FDFE972600009386A6548386460163DDE1
:1010B400060093960701C18663DC060470538946D3
:1010C40063E4C6007453FDFE1447F58F1CC7828089
:1010D40003C716001367170097250000A380E55E79
:1010E40017270000230E075C17270000231C075C4A
:1010F400A9BF03C736001367170017260000A30013
:10110400E65C95B7854617260000230BD65A51BFD7
:1011140054471396060163510602B7061000FD16E4
:1011240074D39726000093866650944E850617263E
:1011340000002329D65049BFA166D58F71B73971F4
:1011440006DE16DC1ADA1ED82AD62ED432D236D0CF
:101154003ACE3ECC42CA46C872C676C47AC27EC073
:101164005135F250E2525253C2533255A2551256DF
:1011740082567247E2475248C248324EA24E124F3C
:10118400824F216173002030172700001307C754D2
:101194008346B7019727000083C75757B69793F73D
:1011A400F70FFD4663EAF6044C4B97260000A3852F
:1011B400F6529727000083C7375205473317F700C5
:1011C40097260000A384F6546D8F1DEF9726000028
:1011D40083C61654B3F6D70213050002814733D6EB
:1011E400F500058A13F8F70F09CE6399E6009727EF
:1011F4000000A383074F828081177DB7050713770B
:10120400F70F8507E39DA7FC82809387818B984322
:10121400B75702009387279F832607091396560022
:101224006358060083260709139666006344060084
:10123400FD17FDF3828051C9AA870145C9C98D07ED
:10124400C207C183F19BC207C18313074003636BC9
:10125400F7021387C18C08431387418C14436396A8
:10126400A602172700001307A738185B014525C3FA
:101274004111C20706C60545DD8D0297B2400145FE
:10128400410182801387818CF9B70357650005EF0C
:10129400035745006369F702B306F74021466370BC
:1012A400D6021041938687001D8FAA96611790C2BB
:1012B4002392E6002393060014C12312F50023139E
:1012C400B50021058280084159BF01458280828092
:1012D40001CD9387C18C03A807009387418C8C436D
:1012E4000147C28763E3B70082809443636FF506C6
:1012F40063EDA60613868700E368C5FE03D5670081
:10130400216605066317C50003C671880506A38315
:10131400C18823930700638407031386818C1042DA
:10132400630FF6000356670019EA83D7470014C316
:1013340083564700B697A1072312F700BA8798434C
:10134400E304B7FA9386818C9442E30FD7F883566B
:101354006700D9FA83D64700035647001843A1060D
:10136400B2962392D70098C382803E87B6879DBFEA
:10137800974100209381813A17710020130101C819
:101388001305400097250020938545471736002010
:101398001306C67D63FAC5008322050023A0550005
:1013A80011059105E3EAC5FE17B50100130585C3CC
:1013B800973500209385857B1386018263FAC500E3
:1013C8008322050023A0550011059105E3EAC5FE17
:1013D8001385018297650020938545BE6377B50024
:1013E800232005001105E36DB5FE9302800873A064
:1013F8000230972200209382624093E21200739099
:1014080052309712000093828264739012347300F2
:101418002030397101436EC619A0397141536AC829
:1014280066CA62CC5ECE19A0397101535AD056D221
:1014380052D44ED64AD826DA22DC06DE3301614081
:10144800828241114AC026C222C406C68282B24D97
:101458004101024D924C224CB24B4101024B924A3F
:10146800224AB2494101024992442244B240410110
:1014780082803D432A876373C3029377F700BDEFE9
:10148800ADE5937606FF3D8ABA960CC34CC30CC7EC
:101498004CC74107E36BD7FE11E28280B306C34015
:1014A8008A069702000096966780A6002307B70071
:1014B800A306B7002306B700A305B7002305B700A6
:1014C800A304B7002304B700A303B7002303B7009E
:1014D800A302B7002302B700A301B7002301B70096
:1014E800A300B7002300B700828093F5F50F939609
:1014F8008500D58D93960501D58D61B79396270004
:101508009702000096968682E78086FA9680C11731
:101518001D8F3E96E374C3F8A5B73367B500FD5336
:101528000D8B79E7B7877F7F9387F7F71041944151
:10153800B372F6003363F600BE92B3E262006397BB
:10154800720C6318D6065041D441B372F600336367
:10155800F600BE92B3E262006398720A631BD60477
:1015680010459445B372F6003363F600BE92B3E2B9
:1015780062006391720A631ED6025045D445B37265
:10158800F6003363F600BE92B3E26200639A720813
:101598006311D60210499449B372F6003363F6001A
:1015A800BE92B3E26200639372085105D105E30F5E
:1015B800D6F61317060193970601631CF700135715
:1015C800060193D706013305F7409375F50F91E9A6
:1015D80082804183C1833305F7409375F50F91E10C
:1015E80082801377F70F93F7F70F3305F740828060
:1015F8000346050083C60500050585056313D60067
:1016080065FA3305D640828011059105E312D6FEAE
:10161800014582802105A105E31CD6FC0145828095
:101628003105B105E316D6FC014582804105C105A7
:10163800E310D6FC01458280B717004003C7770541
:101648001377E70FA38BE704130700F8A38DE704CC
:101658003D47238CE70413075003A38CE7048280DB
:10166800B717004003D587005D715ED642054181FA
:1016780086C6A2C4A6C2CAC04EDE52DC56DA5AD802
:1016880062D466D26AD06ECE9377050C1307000831
:10169800814B6388E71813070004639CE714B72499
:1016A8000D8F7D8993840480B3D4A40291679387B6
:1016B80007E8BE94A167938707D0B3D4F402EF700C
:1016C8009157979701009387E77E9043D443EF7033
:1016D800510BEF80C1182A8B939C040103D9018216
:1016E80093DC0C0163150900056913090980B71714
:1016F8000040130770052380E704130780FA23804E
:10170800E704371A00400547939D0401096C856674
:101718002389E704D14A814E8145130D0A04130831
:101728007005130680FA894893DD0D01130C0C71BE
:101738002943FD1623000D012300CD0023162A039B
:1017480023000D0083472A05898BEDDF83570A059F
:1017580083472A05898BEDFF83472A05898BEDDFAF
:1017680083570A0523902183C207C1833385974194
:101778009319050193D90941638409163387B9027E
:10178800635E070C850EC20E93DE0E0163E8D80D6A
:1017980063D9050A3305B04093150501C185C20414
:1017A800C18063D7350B0965130505713385A5021B
:1017B800B7170040130770052380E704130780FA62
:1017C8002380E70423967703238007043345950293
:1017D80042054181B640264496440649F259625A68
:1017E800D25A425BB25B225C925C025DF24D61614F
:1017F8008280B1E3B77489097D8993840480B3C476
:10180800A4029167938707E8BE94A167938707D0DE
:10181800B3C4F402EF703142979701009387076AC7
:101828006DB59797010093876768856403AB0700D8
:101838009384843855B5130B0000954471BD3A89DB
:10184800D5BDB387FC409399070193D9094181BF5E
:101858000965130505713385A9028DBF3385B74125
:1018680063E4FC003385FD40330585033344B50349
:101878006345830013150401A9BF4E8536C642C4CB
:1018880032C2EF707171DA85EF70F141EF70B16AB1
:10189800931E050193DE0E41B307D941C207C183E8
:1018A800056E3E871246224889482943B24663E3BB
:1018B800C701368742074183631A270113071900B6
:1018C800634430011307F9FF42074183FD1A93FA75
:1018D800FA0FCA8BCE85E3940AF62390E18259BFAA
:1018E8000145CDBDB717004003D587005D7186C699
:1018F80042054181A2C4A6C2CAC04EDE52DC56DAF5
:101908005AD85ED662D466D26AD06ECE02C69377B3
:10191800050C13070008638BE71413070004639F83
:10192800E710B7240D8F7D8993840480B3D4A40273
:101938009167938707E8BE94A167938707D0B3D4CC
:10194800F402EF70512F979701009387A7569043A1
:10195800D443EF700163EF7091702A89939A040160
:1019680003DB218293DA0A0163150B00056B130B65
:101978000B80B7170040130770052380E70413078F
:1019880080FA2380E704939B040105478969056A67
:101998002389E704D14D014D814C93DB0B019389D9
:1019A80009717D1A5A8597200020E780E0F0330CF2
:1019B8005541420C135C0C412391618363010C1661
:1019C800B3079C0363D1070E050D420D135D0D018E
:1019D800894763EAA70D63DB0C0A33059041931C22
:1019E800050193DC0C41C204C18063D88C0B0965E6
:1019F800130505713385AC02B7170040130770054E
:101A08002380E704130780FA2380E70432472396EC
:101A1800E702238007043345950242054181B64019
:101A2800264496440649F259625AD25A425BB25B3E
:101A3800225C925C025DF24D61618280B1E3B77411
:101A480089097D8993840480B3C4A402916793872C
:101A580007E8BE94A167938707D0B3C4F402EF7078
:101A6800911D9797010093876745D5B59797010012
:101A78009387C743856403A9070093848438F9BD15
:101A8800130900009544D9BD3E8B29BF3385AA4070
:101A9800131C0501135C0C41B9B7096513050571E1
:101AA8003305AC028DBF63FEAA00330575413305CB
:101AB8003503A9473344750363C887001315040128
:101AC800B1BF3385AB40E5B76285EF70F14CCA858D
:101AD800EF70711DEF703146131D0501135D0D4147
:101AE8003307AB41420741838565BA876363B70013
:101AF800D287C207C183639A670193071B006344B7
:101B080080019307FBFFC207C183FD1D93FDFD0FF5
:101B18005AC6E28CE39A0DF62391F18245B7014546
:101B2800FDBD41112A83014E930E407E130F00190B
:101B3800930F400663EB6E0A9308001913034006DF
:101B4800B3781503854E0D4FA14F337365020D8988
:101B58001335150063E5BE0C1308F6FF7946729835
:101B68004208135808013307C70213D61700BE07E7
:101B780032976146B3F6C60213068070B386C60272
:101B88003697A166F58F42075D8FB717004083C669
:101B9800F70293F60608A307D1000346F10083C6AF
:101BA800F70293F60608E394C6FE8346F10093F61F
:101BB800F60FF1DE930670052380D704930680FAAA
:101BC8002380D70423AA070383C6170393E60608CE
:101BD800A388D702D8DB03C7170313670704A388B2
:101BE800E70223800704410182807D133368E30301
:101BF8009308E016630E08003368F3039308D016C1
:101C0800630808009378330093B818009388D816AF
:101C180033081E01131E0801135E0E0121BF6393D2
:101C2800E5030548638608000148630303002A8822
:101C380071087298FD15131E0801C205135E0E0186
:101C4800C18109BF13F8150063F4BF007908D5B73F
:101C580013381800E5BF914763EEB70217970100E4
:101C6800130747268A05BA959C41BA978287B71702
:101C7800004003A7470B1345F5FF698F23AAE70A1E
:101C880003A7070B698F23A8E70A03A7070A798D1B
:101C980023A0A70A8280B717004083A6470B1347E3
:101CA800F5FFF98E23AAD70A83A6070B558D23A81B
:101CB800A70A83A6070A758F23A0E70A8280B717A9
:101CC800004003A7470B498F23AAE70A03A7070B7E
:101CD8001345F5FF45BFB717004083A6470B1347C9
:101CE800F5FF758F23AAE70A03A7070A598D4DB791
:101CF800B717004003A7470B498FEDB7B717004048
:101D080003D58700420541819377050491EB9377CA
:101D1800F5013755E801130505803345F502828042
:101D28009377050C130700046397E7009377F50191
:101D380037459C1CCDB72165130505D08280B7F7C0
:101D480000E0C8439C478280814737370040A1465E
:101D580063C4C700328582800345B740E38EA6FE80
:101D68003385F5000345050085072304A740CDB753
:101D7800973700209387871A9C431757002013072B
:101D8800E7233E95636EE5001767002013070707F2
:101D98006368A700173700202322A7183E85828092
:101DA800FD57EDBF411122C406C62A84813F294749
:101DB800B307E502B2408D83B3D787022244950763
:101DC800B3D7E70237370040C207C1832316F7406D
:101DD80041018280716541111305052006C6D93776
:101DE800B7370040130770F82381E7400D47A381F8
:101DF800E74013070004A380E74005472387E7402F
:101E0800B240410182802382018223A40182B71754
:101E1800004003A7070CB706C0FFFD16758F23A067
:101E2800E70C03A7070DB7064000558F23A8E70C5A
:101E380003A7070C3D9B23A0E70C03A7070D136717
:101E4800070123A8E70C828023A4A1821306400679
:101E5800894503C5C1826F20D16BB717004003A520
:101E6800470C83A7470C598113451500C18B058979
:101E780099E31365250083C74182638CA7002382F9
:101E8800A18201C99387818203A30700630303002A
:101E980002838280411106C6EFF08FFCBD4763F4D0
:101EA800A700EFF0EFFB3D3CBD4763F3A7001D3CE7
:101EB800B24083D5218203D5018241016F2011747C
:101EC800411193962500AA852D4506C69720002026
:101ED800E78060CBB240014541018280411126C2B2
:101EE8009394250022C44AC02A843289A686AA85EA
:101EF8000146254506C697200020E780C0C8A6866B
:101F08004A86A285294597200020E780C0C7B240AD
:101F1800224492440249014541018280011122CCA8
:101F280006CE3714004026CA4AC84EC652C4834457
:101F38007405034AB4058349840503499405EFF001
:101F4800AFEF8347A40593F4F40F137AFA0F93E7DE
:101F58001700230DF40493F9F90F1379F90FB71744
:101F6800004003C7A705058B6DFF03D5C705A38DE3
:101F78004705238C3705A38C2705A38B9704F240CC
:101F88006244D2444249B249224A056182804111E1
:101F98009397050122C406C6C1872E8463DA070019
:101FA800EF20710919C1EF2071022165218D1DA053
:101FB80093F7150013C5150091EF93F7250099CFF6
:101FC800693D1306000A894503C5C182EF20715493
:101FD80013452400B2402244410182809397250191
:101FE80063D00702EF40E166753537F60200130645
:101FF80006E0896503C5C182EF20B15109657DB747
:10200800939715010145E3D707FC179501001305C0
:1020180025F1EF70D14413060064916503C5C182B0
:10202800EF20314F116559B71D7149469795010049
:10203800938585EA17A50100130545D686CEA2CC5F
:10204800EF20F13301E917950100130525EAEF7038
:10205800114101A037F700E0F9575CC7FD571CCBC9
:102068000564B7E700E023A087109306701014C337
:10207800B843C146B4C323A08718B8C30100010000
:102088001306C00381454808EF20512E97370020DA
:102098009387C77F3ECAED47A301F1029307A010BB
:1020A8002312F102D1472303F102A167938707E0C6
:1020B8003ECE970700009387E7E0BEC4970700006D
:1020C800938707E2BEC685472304F102B547230874
:1020D800F102970700009387C7C63EDAB7F50700F5
:1020E800970700009387C7E33EDE81469707000005
:1020F800938787DA7000E1051945BEC0231C81006B
:1021080097200020E78020A858088147994670004A
:102118003E960346060085070507A30AC700E3980D
:10212800D7FED24791C70357810185676373F700CC
:1021380001A04808EF205162AA8501C9179501003E
:10214800130505DCEF70711D01A0F640664425619A
:1021580082804111170500001305A5E306C622C4B5
:10216800EF20115C1384C1822300A4003128613957
:10217800034504002244B24037F60200130606E085
:10218800896541016F20F138411106C622C49306C2
:102198007005371400402300D404130780FA230085
:1021A800E4048347F40293F7A70FA307F40223007C
:1021B800D4042300E4048347F40293E72700A30729
:1021C800F402C9391305407E2300040481470147FE
:1021D800814605468545B1322244B2400145410158
:1021E8006F20517E411197950100938525D717954A
:1021F8000100130565E906C6EF7031121795010055
:10220800130585E9EF707111B240294541016F70DE
:10221800D114411197950100938585D51795010033
:10222800130585E606C6EF70510F179501001305D3
:1022380065E4EF70910EB240294541016F70F111CC
:102248004111979501009385E5D317950100130572
:10225800A5E306C6EF70710CB240294541016F70C5
:10226800D10F797122D426D24AD02E842A89B284F9
:1022780081457146480006D6EFF0AF9F973700209A
:10228800938787A1DC4783D70700231421012313F1
:10229800F100EF00703C8547A305F1009307001992
:1022A8002305A1003EC62686FD57A2854800230ABD
:1022B800F100EF00D03CB2502254925402594561CB
:1022C8008280411122C406C6834705002A849DC323
:1022D80097950100938585CF179501001305C5DAF9
:1022E800EF70B1034C40179501001305E5F0EF704E
:1022F800D10271A85841B707CF009387777D631A39
:10230800F71A97950100938565CC17950100130579
:10231800A5D7EF7091001C448356E4008355C40090
:1023280003C6070017950100130585EEEF70E17EDF
:102338002945EF7091020356C4000C441385810DA2
:1023480097200020E780C0EA83C7810D1307200A81
:10235800638AE7001307300A6380E712B240224419
:10236800410182800357C4008D47979501009385EA
:10237800E5C517950100130525D16300F702EF7035
:10238800C179179501001305A5EAEF700179224478
:10239800B240294541016F70417CEF700178179573
:1023A8000100130565EAEF7041772945EF70E17A7E
:1023B8000355E400930720F805469385810D238C87
:1023C800F10C45359377F50F2A8495C79795010049
:1023D8009385C5BF17950100130505CBEF70E17311
:1023E8009375F40F179501001305C5E9EF70E172B5
:1023F8002945EF70817697950100938525BD17953E
:102408000100130565C8EF704171179501001305A8
:10241800A5E8EF7081702945EF7021744165930735
:1024280030FA05469385810D7D15238CF10C153DF9
:102438009377F50F2A8495C797950100938505B979
:1024480017950100130545C4EF70216D9375F40FBE
:1024580017950100130505E3EF70216C2945EF700E
:10246800C16F0566130606C889452244B24003C5F4
:10247800418341016F20F1090357C4008547630177
:10248800F70297950100938565B417950100130528
:10249800A5BFEF70816817950100130525E3F5B511
:1024A8008357E4000566130606C8239FF182914509
:1024B8006DBFB707CC009387777D631AF7029795AE
:1024C80001009385A5B0179501001305E5BBEF70D2
:1024D800C1641C448356E4008355C40003C6070046
:1024E800179501001305C5D2EF7021634DB5B707E5
:1024F800CE009387777DE303F7E6979501009385F0
:10250800E5AC17950100130525B8EF7001614C4043
:1025180017950100130545DDD9BB011122CC97950C
:1025280001009385A5AC2A84179501001305C5B54C
:1025380006CEEF70815EA285179501001305C5F7D9
:10254800EF70A15D2945EF704161938781819843C0
:10255800DC4321462C0005453AC43EC6193315C54F
:102568002A8497950100938565A81795010013059E
:10257800A5B1EF70815AA285179501001305C5C44E
:10258800EF70A1592945EF70415DF2406244056141
:102598008280411122C406C6834705002A8485CB60
:1025A80097950100938545A1179501001305C5ADC1
:1025B800EF70A1564C40179501001305A5B9EF70AF
:1025C800C1552244B240294541016F700159584113
:1025D8001DEF979501009385259E1795010013051A
:1025E800A5AAEF70815317950100130525B8EF7060
:1025F800C1522945EF7061562244B240116603C5A5
:102608004183130606E8894541016F208170A1675F
:102618009386D7036311D702979501009385C599CF
:1026280017950100130545A6EF70214F1795010076
:102638001305C5B46DBFED07979501009385C59740
:1026480017950100130545A46315F702EF70E14CD7
:10265800179501001305C5B3EF70214C2945EF709C
:10266800C14F2244B24003C54183894541016F20CF
:102678004173EF70814A4C40179501001305C5C698
:102688003DBF411106C6EF80307319E5EF10F02DFC
:10269800B24041016F20E067B240410182804111A0
:1026A8009795010093858590179501001305C59DA1
:1026B80006C6EF7081462945EF70214AB2404101B4
:1026C800C9B7411122C4179501001305E59B2E8453
:1026D800979501009385C58B06C6EF70014429457F
:1026E800EF70A14705C8979501009385658A1795EE
:1026F800010013056599EF704142A2851795010005
:10270800130585ADEF7061412244B240294541016E
:102718006F70A144B240224441018280011122CC51
:102728002EC62A8497950100938545871795010041
:102738001305859506CEEF70413E3246A285179562
:102748000100130525AAEF70413D2945EF70E140CE
:1027580083C7018481EF972700209387E753DC47DD
:1027680003D70700C167FD17631DF7006244F240F5
:10277800116603C54183130606E8894505616F2084
:102788004159F240624405618280411122C406C663
:1027980093F715002E8499CF05661306069685458E
:1027A80003C54183EF20E15613451400B24022448B
:1027B8004101828093F725008DCB97950100938581
:1027C800A584179501001305258CEF700135178531
:1027D800010013052575EF7041342945EF70E13785
:1027E800EF10507713452400D1B793F74500014502
:1027F800D5DF854503D5E183EFE0601B97950100A0
:10280800938585801795010013050588EF70E130E1
:102818001785010013054572EF7021302945EF70C7
:10282800C1331345440059B7011135469795010046
:102838009385C58717950100130505D506CE22CCCB
:10284800EF20E13301E9178501001305256AEF70D0
:10285800014101A0972700209387C7793EC4B7F5A7
:102868000700856793870780814613868183E10582
:1028780019453EC697100020E780E0301946938539
:1028880081831385810F97200020E78060963400AC
:102898001386818397950100938505A817950100F4
:1028A800130505A9EF10B0362A840DC997850100D4
:1028B80093858574178501001305057DEF70E12563
:1028C800A285178501001305657FEF70012529454D
:1028D800EF70A128F240624405618280EF70F02D0C
:1028E8001785010013058573EF00D057EF40B03905
:1028F800EFE0A034172500201305C537EFE080214D
:102908001785010013058572EFE0E0342A84EF1083
:102918006031EF90105AEF002151EF200047EF107F
:10292800F00BEFC0E036978501009385E56C1785BD
:1029380001001305657509C8EF70211EA28517856A
:1029480001001305E57951B7EF70211D17850100C6
:102958001305457BEF70611C2945EF700120EFC01E
:10296800801985472380F184EF80104529C5978514
:10297800010093856568178501001305E570EF7000
:10298800C1191785010013056579EF7001192945EB
:10299800EF70A11C978501009385056617850100D6
:1029A8001305856EEF7061171785010013054579CA
:1029B800EF70A11629BFF131F1BF411117050000D1
:1029C8001305E5DC06C622C4EF2081551384418334
:1029D8002300A400172500201305052CEF00500143
:1029E800A135EFF04FC217050000130545B3EFF00E
:1029F800AFC5034504002244B24013060064854570
:102A080041016F20013101113546978501009385F9
:102A1800E56917950100130525B706CEEF202116A5
:102A280001E9179501001305A58DEF70412301A059
:102A3800EF4071612AC6EF003101EF006160EF607D
:102A48009067F24032450561828041111305800488
:102A580006C697100020E780C0EA37170040832792
:102A6800870A8D451305002093E707202324F70ADA
:102A7800EFF06F9EEFF00FB61795010013050532C2
:102A8800EF70E11D17950100130505B0EF70211DCA
:102A9800EFF08FD9EFF0EFEBBD3705379710002037
:102AA800E7800002014582804111B2862E86AA8500
:102AB8002D4506C697100020E780E00CB24001457E
:102AC80041018280AE860146AA852545171300205C
:102AD8006700630B9307000463E6C7021D71A2CC6D
:102AE8002A84080886CE32C6EF60D177B24610082D
:102AF800A285294597100020E780E008F640664443
:102B080025618280395582809387418418429C438D
:102B180083D645000345070083C5C7000356460012
:102B28006396A50083D5E700638DD502011106CE13
:102B38002386A7002397D700B705CF00DC4B9385E2
:102B4800757D05077D162EC2230001003AC42316A1
:102B5800C1002317D10099C30A858297F240056105
:102B6800828082806D713C083EC6B707E50023224B
:102B780091103EC8AA843C083285232611103ECA0B
:102B880023248110232021112E89EF20A03F2A849D
:102B9800978501009385057F178501001305C54EAC
:102BA800EF60B177A285179501001305A58DEF6039
:102BB800D1762945EF60717AB705CB009385757D8D
:102BC8006800EF00D023A2856800EF20403101475C
:102BD80081467000CA852685EF00B04215C52A8453
:102BE800978501009385057A178501001305C54966
:102BF800EF60B172A2851795010013056589EF6032
:102C0800D1712945EF6071758320C11003248110AB
:102C180083244110032901105161828093874184E4
:102C280018429C43797122D406D60348070083C80A
:102C380007012A8483D64500035546006396080198
:102C480083D82701638DD8022388070105072399B4
:102C5800D7003708CC00DC4B1308787D3ACC130733
:102C6800F5FF42CA23080100231EE100231FD100FB
:102C780099C7080832C62EC482973246A2452285D3
:102C8800D535B2502254456182806D713C083EC0F2
:102C9800B707E5003EC23C083EC423261110232492
:102CA80081102322911023170100231801002319F2
:102CB8000100231A0100231B01009727002083D756
:102CC800A70199E3C167FD172316F1009727002094
:102CD80083D7A70081EB938741849C439C43DC47BF
:102CE80083D7070017240020130404FF584C231728
:102CF800F10083574400484B2318F10005ED9785F0
:102D080001009385256F178501001305E537EF60EE
:102D1800D160178501001305256FEF601160294503
:102D2800EF60B1638320C110032481108324411014
:102D3800516182809727002083C777FA99E7EF10BF
:102D4800F1285C4C23AA0700F1BFFD179726002045
:102D5800A387F6F803560701834704014C470A8501
:102D6800230BF100EF20C015938741849C43014752
:102D7800814688430A866C00EF00B028AA8405C9FA
:102D88009785010093850567178501001305C52FF1
:102D9800EF60B158A685178501001305A567EF6098
:102DA800D1572945EF60715B5C4CC84B49BF9727E9
:102DB800002083C7D7F2EDDB1044854503C5818425
:102DC800EF10317585B7DC4DDC4B99C7904503C5CD
:102DD800818491456F10F17382805C4EDC4BA1C7F2
:102DE800B9C1411122C4178501001305E5292E84B4
:102DF800978501009385455E06C6EF601152A2854E
:102E08001785010013054563EF6031512945EF60CF
:102E1800D1542244B24003C581841306400691452B
:102E280041016F10116F8280411122C417240020C4
:102E3800130484E81C4C06C689C7DC4399C34C4874
:102E480082975C4CC84BEF1071185C4CB24022441E
:102E580023AA0700410182801387E1808347070086
:102E68009306F00B850793F7F70F63E7F6002387C0
:102E7800F180034507008280930700F8CDBF835790
:102E88004500638D070C01114AC817290020130952
:102E9800A9E452C4032AC90106CE22CC03274A0159
:102EA80026CA4EC6F15729EB1307D00DFD576365A7
:102EB800C7042A841305860042054181B284AE897D
:102EC800EF109113232AAA000325C9015C4995EF45
:102ED800978501009385454E178501001305C51A8E
:102EE800EF60B143178501001305455DEF60F142BE
:102EF8002945EF609146DD57F2406244D244424989
:102F0800B249224A3E850561828093874400B7050D
:102F1800CF002319F5009385757D3105EF00206EEC
:102F28000325C901834564003105EF10507B032553
:102F3800C9012686CE853105EF1090787146A285A5
:102F48004A85EF603132504401CA854503C5818402
:102F5800EF10315C81474DB70D3BEDBFFD573E8506
:102F68008280411122C4172400201304E4D65C4C4B
:102F780006C6C84BEF1091055C4C2244B24023AA08
:102F8800070003C58184854541016F109161411196
:102F980026C2938441849C4006C622C4BDCFDC432C
:102FA800ADCF5CC12300B5002A84978501009385C5
:102FB800E53B178501001305250DEF6011362945FE
:102FC800EF60B1399C4023A4070023A2070097278C
:102FD8000020938767CEDC4FDC4B99C32955A93570
:102FE80097270020938747CFDC4FDC4B91C3953F51
:102FF800894503C58184EF10D15A914503C5818461
:10300800EF10315A9C4003A347016308030022854F
:103018002244B240924441010283B2402244924485
:10302800410182800111328506CE22CC26CA2E8427
:10303800EF105075AA84978501009385653617852A
:10304800010013056504EF60512D03078400035642
:10305800640083554400A686178501001305C53F03
:10306800EF60B12B2945EF60512F9727002083C7C8
:1030780007C5639797000145453B81450A85013F90
:10308800F2406244D244056182806D71232481102C
:10309800232611102322911093F745002E84638F65
:1030A80007103C083EC0B707E5003EC23C083EC4D6
:1030B800231701002318010023190100231A010016
:1030C800231B01009727002083D707BF99E3C16717
:1030D800FD172316F1009727002083D707BE81EB41
:1030E800938741849C439C43DC4783D70700172779
:1030F8000020130767BC2317F100544F835747007C
:103108002318F100DC4A95EF978501009385852DFA
:1031180017850100130545F7EF6031201785010079
:103128001305852EEF60711F2945EF6011231345A4
:1031380044008320C110032481108324411051616D
:1031480082809727002083C797B72555B5C7FD17F5
:1031580017260020A305F6B603D606018347070104
:10316800CC460A85230BF100EF10905593874184D4
:103178009C4317270020130727B4979601009386CE
:10318800E6E488430A866C00AD2DAA844DD1978564
:10319800010093852525178501001305E5EEEF60ED
:1031A800D117A685178501001305C526EF60F1160E
:1031B8002945EF60911A2685853995BF93F7250033
:1031C80099CF414681452808EF10511A2555A9394C
:1031D80028089305F00F653B1345240099BF93F722
:1031E80015000145B9D7EFF05FAA1345140091B750
:1031F8005C4D411106C688C317050000130525E973
:1032080023A2F184EF10D151B2402384A184014557
:1032180041018280EFE24FA12A8408452E89B289B4
:1032280009C900C1970500009385C5736105EFF0D2
:10323800905281447D5AEF10A00363C3A4048144D3
:10324800EF10000463C6A4049737002093878767AC
:103258009C43DC47B307F94091872302F40063815C
:1032680009048327C900B307F4409587A302F40033
:103278001C4C89C79C4799C3228582976FE00F9E93
:103288005C44139714008504BA972390470165B7E7
:103298001C48139714008504BA97239007004DB76C
:1032A800832789000547B307F4409587A302F400F4
:1032B80083570400638EE7028DC309476384E704DC
:1032C8000D47E397E7FA978701009387A77A1CCC05
:1032D800978701009387077B11A897870100938739
:1032E800E7401CCC97870100938747415CC849B7E2
:1032F800978701009387872C1CCC978701009387B9
:10330800E72CEDB7978701009387877B1CCC9787BD
:1033180001009387E77BD9BF85E1EFE28F920046F2
:1033280018448347940075839D8B6315F700EF005D
:10333800901948C46FE02F938280EFE2EF8E1389D3
:103348003500C16442094111AA890144F114135995
:103358000901054A2EC6EF00B071B2456346A400C4
:10336800014541016FE08F8F83A7090013171400EF
:10337800BA9783D707006388B7006394970063748C
:103388002A010504C1BF0545E9BFEFE20F89AA89F3
:103398002E89328BB6843A8ABE8AEF80E0214DC1ED
:1033A8002685EF10D02D8D4763E5A7007D556FE08A
:1033B8004F8A83DB4400EF00B0712A84EF009072DB
:1033C8009307740031443305850263C5A702EF00F3
:1033D8003070EF00F06F2A84EF00D070930774000C
:1033E80031443305850263CDA702EF00706E930761
:1033F800450019A8EF00106F330585021307F01771
:103408009307C017E357A7FC2D55E3C277FB63006A
:103418000B02D6865286A6854A85EFE0303741BF33
:10342800EF00506C330585029307C5FFF1BF832772
:1034380049001385C90083D52700013779F9BDB73D
:103448006955B5B7973700202390A74897370020CC
:1034580093874747904381470C463307F500420757
:1034680041836393B70082805446139847008507C9
:10347800C2962390E600D5B79737002093878744F4
:103488009C4303C587008280173500200355C54338
:103498008280EFD21FFBC1671387D7FF6307E5025E
:1034A8006368A700F117630EF50001456FD0BFFBF5
:1034B8001387E7FF630EE500FD171D8D1335150013
:1034C800F5B7EF40C0347D15D5BFEF404012E5BFDA
:1034D800EF40A010CDBFEFD2DFF64111AA8401441E
:1034E8002EC6EF00F059B2456346A40001454101DC
:1034F8006FD07FF79C48131514003E95835705003D
:10350800E387B7FE0504E9BF03485500814693F7F2
:10351800F60F63E5070181473E85828058459397FA
:103528005600BA9703D727006316B70003D70700DA
:10353800E304C7FE8506E1BF83464500014793774C
:10354800F70F63E4D700814711A81C4513165700ED
:103558000507B29703D60700E313B6FE3E858280BF
:10356800EFD29FEC93170501C187973A0020938A01
:103578006A356353F00883A70A00C0479C4703577E
:103588000400198D420541816366F50001442285D6
:103598006FD0DFEC12052A94DDBFDC471394490095
:1035A800014A3E94834744006341FA02014A834733
:1035B80054006346FA028509C20993D9090183A711
:1035C8000A009847E3EBE9FCD1B71C4413195A00E9
:1035D800A6853E994A85013709ED050AE1B75C449D
:1035E80013195A00A6853E994A85F53519E1050A49
:1035F8007DBFE30209FC61BFAA848149C9B7EFD244
:103608005FE41C452A8481E79307C5001CC51C4458
:10361800231204001CC09307F00F63E9B70093F569
:10362800F50F2285EF10B00B6FD0FFE393940501DF
:10363800C167C18063F7F500A6852285EF10D00D1C
:10364800E5B7C18193F5F50F2285EF105009A685DE
:103658002285EF10100AC9BF973700209387872665
:10366800884382801C4599C79737002023ACA7243C
:10367800014582807D558280973700209387872473
:10368800984383474500484792073E958280EFD28A
:103698005FDB617100451C183EC6B70780013EC854
:1036A8001C183ECA8357440002CE02D002CC231E07
:1036B800F100834784002A8902D22301F1023C08E1
:1036C8003ED402D6553F835705002316F102EF304A
:1036D80090632307A1025C4003556400F18313F74C
:1036E80017008347F10252055181F99BD98FA3072F
:1036F800F102EFE0007B39C5AA8403550500EF709D
:10370800906C83D704002AD26800231CF10083D769
:103718002400231DF1001C4803D647008C43EF10FA
:10372800207A8347B400CA8617860100130686E20A
:103738008117A305F4006C004810EFE030055D61C7
:103748006FD07FD22155E5BF1C45B1CF03C5A70077
:10375800894613576500630BD7028D46630ED7025F
:1037680085466300D702130740063305E50203C701
:10377800B700418B15CB83C7B700BD8B3355F540D8
:1037880082801375F5031307803EC5B70967137563
:10379800F50313070771D1BF372709001375F50320
:1037A8001307077CD9B701458280EFD29FC903A9C7
:1037B8008500630409048347B900AE8493F7070EB4
:1037C80091CF03459900930520030D810505B305A5
:1037D800B50288446105EFF0F00305A02E85AD37EA
:1037E8002A8401CDCD218325C900B307B54063F8EC
:1037F80087002E94B305A440E9FD6FD0DFC6854548
:10380800C9BFEFD21FC42A8403D50500011132C6EF
:1038180036C43AC22EC002CA02CC02CEEF70B05AE9
:1038280082452ACA22852ECC813D03570500231ED6
:10383800E100EF30504DA24632469247230FA100D7
:1038480036874C08B28622850146EFF01FB4056121
:103858006FD07FC1EFD2FFBE61711C183EC6B7079B
:1038680080013EC81C183ECA3C0800453ED4AA84C4
:1038780002CC02CE02D002D202D6FD3B835705000D
:1038880035592316F102EF3010482307A10209C465
:103898008357440091E721594A855D616FD0BFBCC9
:1038A8000355640052055181EFE0A05F2A8965D570
:1038B8008347B40093F7070E89C713058401EFF017
:1038C800E07683574400231EF100834784002301D8
:1038D800F1025C4003550900D98313F707088347B1
:1038E8001102231CA10093F7F707D98FA300F10257
:1038F80083572900231DF1005C40F18313F717005B
:103908008347F102F99BD98FA307F102EF70B04BFF
:103918002AD251D1834794006800139757008347F0
:10392800B400FD8BD98FA305F4001C4803D64700CB
:103938008C43EF10E058A68717870100130787C14B
:10394800740005464C102685EFF03FA42A8929D536
:103958008347B400A685FD8BA305F400B9352DBFB8
:10396800EFD23FAE832485FE2A8441112685E93BA8
:10397800834734FF93F7070E9DC32AC62685EFF0C9
:103988001FD119C9834734FFB245FD8BA309F4FE43
:1039980081C52285EFF0006841016FD0DFAC6DDD95
:1039A8008327C4FF2685829765F9834734FF93F7F9
:1039B800070E81C72285EFF06067032584FE593D15
:1039C800E1BFEFD21FA59C4141112A8903C7070017
:1039D80089472E8493566700638CF6020D466382EE
:1039E800C6049307F0076302F7022E85EF1080598B
:1039F800AA848149C16B130C49009737002093872B
:103A080067EC9C43984763ECE90241016FD03FA4FF
:103A180003D745008547E3FAE7FE2E85EF10605A85
:103A2800C1BF03D74500E3F2E7FE2E85EF108055AE
:103A3800AA842285EF106056C204C98C5DBFDC479A
:103A48000355A900139A49003E9A93170501C187A7
:103A5800635DF00083570A006395A70263E574036A
:103A68008327CA00034D5A001DA0A1672167A98FAB
:103A78001307F7EFE374F7FE63950900EFF07FA1F2
:103A880071FD85099DBF83278A00034D4A00835D28
:103A9800A90003576900216A138BC7003AC6814AF7
:103AA80033CA4D01631E5D0197370020938707E2F3
:103AB8009C43E1DBA2866286814526858297D1B741
:103AC800A1679387F7EF930C4BFF63F04703B24569
:103AD8005A85EFF09F8619CD03278B00104719CA26
:103AE80010436380C4023107D5BFEE856685EFF0C9
:103AF8009F9E71FD93861A0093FAF60F130B0B0223
:103B080055B7835644005C43E3EDF6F622853AC682
:103B1800EF104036A1679387D7042A8A035D4400D3
:103B2800324763E897008347D90093E707F8A3066D
:103B3800F9001C4766852286E2858297C16708449A
:103B4800FD17337AFA00529508C02312A40115BF55
:103B580097370020938707D79843814715C31447A1
:103B6800814763FFD500939745004C47BE9519C917
:103B780003C7550081476375E600DC451606B29712
:103B88003E85828003C745008147E37BE6FE160633
:103B98009C45F5B7EFD25F89AA892E8A8144973A66
:103BA8000020938A2AD283A70A00984763E4E40096
:103BB8006FD0DF8ADC471394440001493E9413BB5D
:103BC800140083474400634BF900014913BB1400F8
:103BD80083475400634FF9008504F1B708449317ED
:103BE80059005287DA860146A2853E9582990509D1
:103BF800C9BF4844931759005287DA860546A285FB
:103C08003E9582990509E9B7EFD2BF83814517F53B
:103C1800FFFF1305656097370020239707CA9D3F6C
:103C28006FD07F84973700209387C7C99C4399CB6F
:103C3800EFD23F81814517F5FFFF1305E55D993FF9
:103C48006FD07F828280EFD22FFE41112315E100D1
:103C58002E89B284B6893A8681460147ED452A8481
:103C6800EF10B10B2AC61DCD0356A100CE85EF502B
:103C7800715FCA852285EF10511E058915C12285FD
:103C880001462C0023149100EF10F1332A8409C552
:103C9800ED452800EF10F116228541016FD00FFC89
:103CA8004944FDB76554CDBF5C41FD175CC18280B6
:103CB800EFD22FF9EF00917295473305F502814550
:103CC8000D816FD04FFAEFD2CFF7EF0031719547E2
:103CD8003305F5020D816FD00FF9EFD28FF603553A
:103CE8000500EF10C15F6FD00FF8EFD28FF50355C5
:103CF80005003287AE86171600200356C60497358E
:103D080000209385E5BC81376FD0EFF5EFD26FF3D4
:103D1800EF40D1566FD02FF5EFD2AFF29735002094
:103D2800938505BBEF10113101456FD0CFF3EFD26A
:103D38004FF18145171500200355E5FCEF10111CC4
:103D48006FD06FF2EFD2EFEF97350020938545B92A
:103D5800EF10512E01456FD00FF1EFD28FEE814554
:103D68001715002003552500EF1051196FD0AFEF3C
:103D7800EFD22FED2E85EF60A063EF60A06C6FD0BF
:103D88008FEEEFD20FECEF6060746FD0CFED5C492F
:103D9800E1175CC95CC583572501A1072319F50004
:103DA80083570501A1072318F5008280F1473305E1
:103DB800F502973700209387A7B49C433E958280ED
:103DC8008D476317F60603D74600854763F2E70673
:103DD800EFD22FE7368536842E89EF10A01A39C125
:103DE8008357440093140501C18063ED970222852F
:103DF800EF104019FD14231294009307A002630EDC
:103E0800F5009307B0026301F50293079002631B64
:103E1800F5002285EFC0305831A00146CA852285B9
:103E2800EF70306A6FD02FE42285EF009056DDBF27
:103E38008280973600209386E6AC9C42014599CF54
:103E48009843D44217360020232EE6AA6396D7005B
:103E58009736002023AAE6AA1385C7FE8280EFD2F0
:103E68004FDE7D2E7144330585029145EF70803D0C
:103E780001E565556FD02FDF9737002023A0A7A84D
:103E88004526330585029145EF70C03B7DD19737B4
:103E9800002023A7A7A6692697370020239AA7A45E
:103EA8004126973700202396A7A497770100938788
:103EB800A76F173700202321F7A4970700009387DF
:103EC80047ED173700202327F7A2014565B7EFD242
:103ED8004FD7AA8517350020130585A1EF10601E5E
:103EE8006FD06FD8EFD2EFD5DD37EF10001F9737BF
:103EF8000020938727A19C4381CF1387C7FE09CB56
:103F080083D5C7FF17350020130545A0EFF08010B3
:103F18006FD06FD5EFD2EFD2293F11C98347850003
:103F28002A8493F7070491E70355E500653F6FD0AE
:103F38008FD38347C500930445011739002013091F
:103F4800699C85E3832709005CC99737002023AB68
:103F5800979A83274900E1FF9737002023A6979A6D
:103F6800F9B7FD172306F5006105EF60A05B83072D
:103F7800840063C907048347840093E707F8230490
:103F8800F400EF00F1214205A94741813375F5029C
:103F98008347840093F707FCC98F2304F400834701
:103FA800D4003E951C402318A40089CF984319CB10
:103FB8008347C4005040814585073305F502420513
:103FC80041810297832709005CC89737002023ABFB
:103FD80097928327490089E79737002023A697926D
:103FE8008347C400A9D7835504011735002013055A
:103FF800E591EFF0200225BFEFD2AFC4973700203C
:10400800938747A59C4701448583858B81EFAE84C0
:10401800B2853A86EF10C0112A8409C5EF10C0088E
:10402800829408CC22856FD00FC4EFD2EFBF411124
:104038002E8932C6AA89692C324713060502CA8618
:10404800970500009385C5D6173500201305458AC6
:1040580065372A8429CD9304C50065261946AA85A3
:104068002685EF00F06585452685EF00D062177537
:104078000100130525514E95834505002685EF005F
:1040880010665C4831468145A1075CC85CC483570B
:104098002401E1172319F40083570401E1172318B9
:1040A800F4001C4C3E85EFD0CFBCA304250122852B
:1040B80041016FD0AFBAEFD2CFB84111AA842EC652
:1040C80032C4EF10C000004DB24522468347840039
:1040D8000CC050C093F7F70393E707042304F400D8
:1040E800231804002685EF00307C83479400A946F6
:1040F8002317A40013D7370005073307D7029D8B72
:1041080085072306F400A306E40083C70401D84802
:104118008507230FF7FE172700201307A77E5843AC
:10412800232A0400930744011DEB17270020232DA1
:10413800F77C172700202327F77C17240020130477
:10414800E47C2285EFE0D0621C44858B5D8D09E517
:1041580081452285EFE0106C41016FD0CFB01CC3C0
:10416800172700202322F77AC9BFEFD28FAD970512
:104178000000938525C50145EFF09FBF01456FD02D
:104188008FAEEFD20FACEFF0DFBF6FD0CFAD83476C
:10419800C500A1E7EFD2EFAA2A840355E500EFF0A6
:1041A8001FD315C98347840093F7F7FB2304F40052
:1041B8001C4091C7DC4381C74C4001458297EFF012
:1041C8005FC71725002013056574EFE030660355B7
:1041D800E400EFF03FD16FD00FA98280EFD26FA635
:1041E8009727002093870772970500009385C5D20B
:1041F800172500201305857123A0070023A20700B7
:10420800EFE070556FD02FA61C4D91CBDC4381CBCE
:10421800EFD22FA38345070082976FD0CFA4828067
:10422800972700209387C7709C4303C507008280A7
:10423800972700209387C76F9C4303C51700828088
:10424800972700209387C76E9C4303C52700828069
:10425800972700209387C76D9C4303C5470082803A
:10426800972700209387C76C9C4303C5370082803B
:10427800972700209387C76B9C4303C5570082800C
:10428800972700209387C76A9C4303C567008280ED
:10429800972700209387C7699C4303C577008280CE
:1042A800972700209387C7689C4303C587008280AF
:1042B800972700209387C7679C4303C59700828090
:1042C800972700209387C7669C4303C5A700828071
:1042D800972700209387C7659C4303C5B70011E162
:1042E8001D45828097270020938787649C4303C5D8
:1042F800C700828097270020938787639C4303C564
:10430800D700828097270020938787629C4303C544
:10431800E700828097270020938787619C4303D515
:104328000701828097270020938787609C4303C5F5
:1043380027018280972700209387875F9C4303D5B6
:1043480047018280972700209387875E9C4303D587
:1043580067018280972700209387875D9C4303D558
:1043680087018280972700209387875C9C4303C539
:10437800A7018280972700209387875B9C4303C50A
:10438800B7018280972700209387875A9C4303C5EB
:10439800C701828097270020938787599C4303C5CC
:1043A800D701828097270020938787589C43885796
:1043B8008280972700209387A7579C4303D5C7027D
:1043C8008280972700209387A7569C4303D5E7024E
:1043D80019E11305800C82809727002093874755A1
:1043E8009C4303C50703828097270020938747547F
:1043F8009C43C85B8280972700209387E7528843B5
:10440800828097270020938767528843828019E12A
:104418007D558280F5DE984265DFFDD9172700209B
:10442800130747631847AA877155058B6319072235
:1044380003C507001547E37DA7FC03C7370013052D
:10444800F0057D171377F70FE364E5FC03C3570006
:10445800E30003FC83C86700E38C08FA03C777000E
:10446800494579171377F70FE364E5FA03C7A700FF
:1044780011481305F7FF1375F50FE36BA8F803CE82
:1044880097000D481305FEFF1375F50FE362A8F8B2
:1044980003C8B7006309080065181378F80F1305F7
:1044A800600DE36705F703C5C700794879151375EB
:1044B800F50FE36FA8F403C8D7000D457D181378EE
:1044C800F80FE36705F503D80701930E4017511855
:1044D800420813580801E3ED0EF303C8E7007D18FE
:1044E8001378F80FE36605F303C827017D181378DE
:1044F800F80FE36F05F103C88700C54E75181378E8
:10450800F80FE3E70EF103D86701856E938EBEE0DE
:104518006D18420813580801E3EC0EEF03D8470161
:104528006D18420813580801E3E40EEF03D8870119
:104538007918420813580801E36C05ED03C8A70170
:104548007D181378F80FE36505ED03C5B7011D481D
:104558007D151375F50FE36DA8EA03C5D7017148FA
:1045680079151375F50FE365A8EA03D5E701130874
:10457800E00F7D1542054181E36CA8E803C50702F9
:10458800494879151375F50FE364A8E8C85301C9BC
:1045980037C834005915130858BFE36BA8E603A8B9
:1045A800870237C53400130555BF5918E36205E77C
:1045B80017250020232CC53603C605011725002022
:1045C8002328F5360545E375C5E403D82501D04908
:1045D80033760603E31E06E203C61501E30A06E284
:1045E800172600202322B63483C527000146638797
:1045F800A50003C61700F1453306B60283C70703B3
:104608009305C00272971A071307C70516031A976E
:1046180096084697B387B70241553E9732974207A7
:104628004183636EE802EFC2DFE13685EF60B04B8D
:10463800EFD0E07B2A84EF80E0772A94EFC0C07F38
:104648002A94EF6030632A94EFF07F812A94EF2058
:1046580010612A94EF50A06122956FC0DFE082803C
:10466800EFC23FDE4111A307A100EF70D078930598
:10467800F10017050000130565B9EFF0AFD101454A
:1046880041016FC05FDEEFC25FD917240020130419
:10469800643C032884007959936818009724002003
:1046A80023AE143B13781800631E0800BA84BE8931
:1046B800368B328A2E89AA8AEFE01FDC7D15269573
:1046C80009E531594A856FC0DFD8EFE0FFDA7D157B
:1046D8002695A167E357F5FE972700209387876EF5
:1046E80098433E8C814B11C70145EFC0F018933BAE
:1046F80015004A85DA865686D285EF7050122A89C7
:1047080011CD1C44F99B172700202329F734832750
:104718000C00CDDBE3880BFA82976DB726859727C7
:10472800002023AB0732EFE0FFD14146CE851725A5
:1047380000201305A53BEF50E132EFA0A06203254E
:10474800040BEFA0A0640545EFA0A06A0545EFF0B3
:104758003FF18DBF972700209387C72F9C47858BF4
:10476800D5C7EFC21FCE172500201305653697273A
:10477800002023A1072E9727002023AF072C972777
:10478800002023AD072CEFE0700AEF30D07FEFE078
:104798000062EFE08066972700209387272A9C43D2
:1047A80081C70545EF60900F9727002093878723DF
:1047B8009C4389C741657D15EF500067EFC0B01471
:1047C800EFA0205B972700209387C73D9C43139752
:1047D800170163540700EFC0E01F9727002023A7A5
:1047E80007309727002023A507309727002023A309
:1047F80007309727002023A10730EFF09F989D23CB
:10480800EFF08FC0EFC0C0416FC0FFC58280EFC21C
:10481800BFC12A849304140201112E85B289A6858A
:10482800214636C63A89EF5081211DE1B246380843
:104838002686CE8513059404EF40804021462C0837
:104848004A85EF50C11F1335150005616FC01FC1A0
:104858000145E5BFEFC2FFBE9305450617250020B9
:104868001305450DEFE0007B6FC0FFBFEFC27FBDB2
:1048780041112EC6EFF02FC5B24588C141016FC066
:104888009FBEEFC27FBAAA842E84EF60F055AA8932
:1048980085452285A92583C7E4011389940899E3EE
:1048A80013890403CE8522851D2D214693051902FF
:1048B80022853925972700209387C7198C4322859D
:1048C800EF0060682146938584022285D52B6FC04E
:1048D800FFB8EFC29FB43971EFC0E02A93054006D4
:1048E80045EDEF60704D630E05109727002083C7D4
:1048F800270613B7170097260020238BE6040144E8
:1049080089CFC164172900201309C9149309400EDF
:10491800FD14EFF0FF996348A408EFF0CFBA41699E
:10492800B7290900096AFD7A2A8B81447D19938980
:10493800F97B130A0A71938A8AC7EFF07F9763D5C8
:10494800A4041304400EB38784021727002013071A
:1049580067100324070B3E948357C4016386270915
:1049680018403307EB4063EAE900834744008507B2
:10497800B3874703D6976369F7060146814509451A
:10498800EFF0AFEAAA8B29E1EF2090598547631F22
:10499800F50489659385057117250020130585F9A8
:1049A800EFE04067A1A8B30734030327090BBA97C0
:1049B80003D7C7016308970003C75700A3820700FE
:1049C8002382E7000504B1B79305C5002285EFF0FF
:1049D8005FEB5E852286977501009385E5BBEFF056
:1049E8008FED5E85EF00606F850481BF97270020FB
:1049F800938747069C478D83858BC1FF21616FC0D4
:104A08005FA501468545094502D002D202D402D6E7
:104A1800EFF0AFE1AA847DD1EFC020161389C4005E
:104A28002A8481454A8565290C4041464A85492999
:104A380083294400638809084E8502D802DA02DC1B
:104A480002DEEF5081222ACE141005462C080818E1
:104A58004ECCEF4080161375F50F2DE58355840075
:104A680093E525004A854D2911460C104A85892968
:104A78000146977501009385A5B22685EFF0AFE34F
:104A88002685EF0080655C40B5DB014685450D4510
:104A9800EFF0AFD9AA843DD148401389C400EF5044
:104AA800C11C2AC64A85E12E3246636AC5004C40BD
:104AB8004A853921014681452685EFF0CFDF2685D5
:104AC800292D2DBF8355840071BFEFC29F9797276B
:104AD8000020938727F89C4719CD93E7870017256F
:104AE8000020130525E5172700202329F7F6EFE016
:104AF80000516FC05F97DD9B172700202320F7F632
:104B0800EF2010427DF5172500201305A5E2EFE000
:104B1800E051C5B7EFC27F904169AA892E8AB28A4F
:104B2800368BBA8B8144172C0020130CACF2930CF3
:104B3800400E7D19EFF0CFF763C4A40001442DA007
:104B48003384940383270C0B3E948357C4016380FA
:104B580027055A87D6865286CE8513050403EFF0BB
:104B68001FCB11C523800B0022856FC09F8E834702
:104B7800F40191CF5A87D6865286CE8513059408BC
:104B8800EFF0FFC809C585472380FB00F1BF850406
:104B980055B783574500638D0716EFC2FF8801118B
:104BA8002A84CD2619C58547630AF50405616FC0B7
:104BB800FF8AEFB0507D7DF9835744004947ED9B4C
:104BC800E396E7FEC1452285612CAA842285D52E6D
:104BD8000357440002CE91472A896317F7002285BC
:104BE80019293C082ACC3ECEEFB030795C55DDDF80
:104BF80074084A86A685054582974DBF0357440029
:104C0800D147E3F5E7FA032A0400C1690149972A65
:104C18000020938A2AE4130B400EFD19EFF04FE9A8
:104C28006344A90C2285032A0400A92EA1452A89D8
:104C380022853D24AA8422857D2E14402A86AA89AD
:104C480078082685CA85EFF0FFECAA8425D103C72A
:104C5800F40189476315F7008347C101A1DB554675
:104C6800D28513856400EF40F15F0145EF60B01510
:104C780001C583D7C401B1EB97270020938787DD4F
:104C88009C4793551900858913D73700058B11CB9D
:104C98008983858B6397B70001452EC6EFF0FFE245
:104CA800B2454E85EF60101A0346C1012A849375F8
:104CB80019002685EF70700D31C92685EF60101533
:104CC800268511C00145EF60703FEF2070258547AC
:104CD800E31EF5EC83C754001307F00FE388E7ECF5
:104CE8008507A382F400D9B5B304690383A70A0B27
:104CF800BE9483D7C401638937015546D28513858D
:104D08006400EF40D15371D1050909BF5DDC5DBF77
:104D18008280EFC26FF1EF60300A11CDC1640144A7
:104D280017290020130909D39309400EFD14EFF049
:104D38002FD8634AA400172500201305A5BFEFE06C
:104D4800002C6FC0AFF1330534038327090B3E9560
:104D58008357C5016386970023120500EF60100B87
:104D68000504F1B7972700209387C7CE9C478D830A
:104D7800858B99EBEFC2EFEC17250020130585BB57
:104D8800EFE0C02A6FC02FEE8280EFC28FEB97054D
:104D98000000938545B4172500201305A5B9EFE059
:104DA800801B6FC04FEC83C7F5FF2E858507A38F47
:104DB800F5FE828083C7F5FFFD1793F7F70FA38FE2
:104DC800F5FE89EBEFC2EFE71385F5FFEFF0102052
:104DD8006FC06FE98280EFC2CFE6884105054205C2
:104DE8004181EFF0702109C585472300F5000505CD
:104DF8006FC06FE71C41035745008D8FBA951CC1E2
:104E08002312B5003E85828093D78500A205144100
:104E1800DD8D835745001387E6FF18C189072312E4
:104E2800F50013D685004111238FB6FEA38FC6FE69
:104E38004101828018419307F7FF1CC18357450041
:104E480085072312F500A30FB7FE8280835745001C
:104E58008D8F2312F5001C41BE950CC12E858280D2
:104E6800AA8703D7470008410D8FAA952392E70028
:104E78008CC38280184108453305A7408280835738
:104E88004500035765001D8F1C4108453385A74021
:104E98003305A7408280EFC2CFDA41112EC62A849B
:104EA800EFF0FFFDB2456373B50001A083574400DE
:104EB8000840BE952312B4003E9541016FC0AFDA99
:104EC800EFC22FD841112E84B28532C6EFF0BFFC55
:104ED8003246A285EF40113941016FC0CFD8EFC2E9
:104EE8004FD62E848545EFF01FFB230085006FC049
:104EF8008FD7EFC20FD541112317B1008945EFF0C5
:104F08009FF98347E1002300F5008347F100A300E0
:104F1800F50041016FC02FD5EFC2AFD293D78500FE
:104F2800A2054111DD8D2317B1008945EFF0BFF6C9
:104F38008347E1002300F5008347F100A300F50053
:104F480041016FC04FD2EFC2CFCF1397850193D7DE
:104F58008501C166938606F0D98F13D78500758FB2
:104F6800D98FA2053707FF00F98D4111DD8D2EC6B7
:104F78009145EFF05FF26C001146EF40B12E410110
:104F88006FC06FCEEFC2EFCB1C41854503C407004D
:104F9800EFF0DFEB22856FC00FCDEFC28FCA1C4147
:104FA8004111894503C7070083C717002307E1009C
:104FB800A307F100EFF09FE90355E10041016FC03D
:104FC8008FCAEFC20FC81C414111894503C70700AA
:104FD80083C717002307E100A307F100EFF01FE7DD
:104FE8008357E100410113D58700A2075D8D420573
:104FF80041816FC04FC7EFC2CFC40C4141112A8411
:1050080011466800EF40112691452285EFF01FE414
:10501800B247C166938606F01397870113D58701B7
:10502800598D13D78700758F598DA2073707FF0051
:10503800F98F5D8D41016FC00FC31C45BE950CC132
:105048008280AE87944391E6584101EF0CC15CC160
:10505800828003C7570013671700A382E700B6874B
:10506800D5B70CC3EDB7AA87084119CD1841D44369
:1050780098C36313D500D8C32A870346570093768D
:10508800160081E6232007008280944381CA8C425F
:1050980003A847008CC363930601CCC3799A14C351
:1050A800A302C7003687D1BF1C45DC471D8DB777E3
:1050B800DBB6938777DB09853305F5024205418125
:1050C8008280F147B385F50248452E958280834753
:1050D800450085072302F5008280EFC28FB62A8437
:1050E80019E06FC04FB883474400E5DFFD1793F719
:1050F800F70F2302F400F5F71C4403D72700050730
:105108002391E700DC4399C3228582974C4889CDD7
:1051180083475400898B99E71C4422859C479C430C
:105128009C478297232A04000040232004004DBF97
:10513800EFC22FB18357250041112EC691E70144D4
:10514800228541016FC02FB2035705008147F14600
:10515800E307F7FEB385D702404585072E948345BC
:10516800440008C4F5F5B247AA8481E7232A04005D
:1051780009A81C456C0022859C439C43829748C81B
:105188005DDD85472312F400B2472320040023186D
:1051980004002319F4005C485CC483D72400FD177D
:1051A8002391F40071BFEFC2CFA99717002093870E
:1051B800677A884323260500232405004105EFD09C
:1051C800F0666FC04FAAEFC2CFA7171400201304D0
:1051D80064781C40411189CF9C472300B5002AC63A
:1051E8005CC1EFF05FFC1C40DC4399C332458297F9
:1051F80041016FC04FA7034745001DEB584DAA87D3
:105208007D550DCBEFC2EFA31CC3DC4797160020DA
:1052180023A2E674F156130507012390D7009705DA
:10522800000093858501EFD0105301456FC0AFA3EF
:105238007D5582808280EFC2CFA0011161468145F1
:105248002800EFC00FA3971700209387A7709C43EF
:1052580028009305F00FDC473EC6EFF0DFF6056146
:105268006FC06FA0971700209387C76E9C43D847DD
:10527800A1679387C7026312F70A397106DE22DC39
:1052880026DA80004AD84ED652D456D23285B28415
:10529800EFF05FCFAA892685EFF03FD02318A4FC52
:1052A8002685EFF09FCF2319A4FC2685EFF0FFCECB
:1052B80083D744000A8A231AA4FC858393F7F70F3F
:1052C800230EF4FC8607BD0793F7073F3301F1402F
:1052D8008A8A01498347C4FD6365F902CE851305AF
:1052E80084FC232C54FDEFF01FEE5281130104FCC3
:1052F800F2506254D2544259B259225A925A2161F8
:1053080082802685EFF07FC993171900D697050983
:105318002390A7001379F90F75BF82809717002093
:10532800938747639C43D847A1679387A702631075
:10533800F70A397106DE22DC26DA80004AD84ED612
:1053480052D456D23285B284EFF0DFC3AA892685BB
:10535800EFF0BFC4FD572318A4FC26852319F4FCDD
:10536800EFF0BFC383D744000A8A231AA4FC8583BD
:1053780093F7F70F230EF4FC8607BD0793F7073F53
:105388003301F1408A8A01498347C4FD6365F90204
:10539800CE85130584FC232C54FDEFF0DFE2528107
:1053A800130104FCF2506254D2544259B259225AA1
:1053B800925A216182802685EFF03FBE931719002B
:1053C800D69705092390A7001379F90F75BF828036
:1053D80097170020938707589C43D847A1678907E8
:1053E8006318F708397106DE22DC26DA80004AD80D
:1053F8004ED652D456D232853289EFF0BFB8AA8938
:105408004A85EFF09FB9835749000A8A2318A4FCFC
:10541800858393F7F70F230CF4FC8607BD0793F7F2
:10542800073F3301F1408A8A8144834784FD63E55D
:10543800F402CE85130584FC232A54FDEFF0BFD86F
:105448005281130104FCF2506254D2544259B259A9
:10545800225A925A216182804A85EFF01FB49397AD
:105468001400D69785042390A70093F4F40F75BF12
:105478008280971700209387E74D9C43D847A16700
:105488009387E7046312F70A397106DE22DC26DA0D
:1054980080004AD84ED652D456D23285B284EFF024
:1054A8007FAEAA892685EFF05FAF2318A4FC268576
:1054B800EFF0BFAE231AA4FC2685EFF01FAE83D70A
:1054C80044000A8A2319A4FC858393F7F70F230E57
:1054D800F4FC8607BD0793F7073F3301F1408A8A3A
:1054E80001498347C4FD6365F902CE85130584FC31
:1054F800232C54FDEFF03FCD5281130104FCF250F0
:105508006254D2544259B259225A925A2161828025
:105518002685EFF09FA893171900D69705092390C1
:10552800A7001379F90F75BF82809717002093871A
:1055380067429C43D847A1679387C7046310F70A5B
:10554800397106DE22DC26DA80004AD84ED652D4DB
:1055580056D23285B284EFF0FFA2AA892685EFF0F1
:10556800DFA3FD572318A4FC2685231AF4FCEFF0CB
:10557800DFA283D744000A8A2319A4FC858393F702
:10558800F70F230EF4FC8607BD0793F7073F330197
:10559800F1408A8A01498347C4FD6365F902CE85D3
:1055A800130584FC232C54FDEFF0FFC15281130135
:1055B80004FCF2506254D2544259B259225A925AB7
:1055C800216182802685EFF05F9D93171900D69799
:1055D80005092390A7001379F90F75BF82809717E3
:1055E8000020938727379C43D847A167DD07631BB3
:1055F800F702EFB21FE5797132853284EFF09F9898
:105608002AC62285EFF07F992311A1022285EFF0A7
:105618007F97B2452300A1022808EFF0DFBA456161
:105628006FB07FE48280971700209387A7329C434E
:10563800D847A16793878704631BF702EFB27FE01F
:10564800797132853284EFF0FF932AC62285EFF014
:10565800DF942311A1022285EFF0DF92B2452300E7
:10566800A1022808EFF03FB645616FB0DFDF828006
:10567800971700209387072E9C43D847A1679387E5
:10568800A704631CF700EFB2DFDB01112800814596
:10569800EFF07FB305616FB01FDD828097170020A0
:1056A8009387472B9C43D847A16793875702631179
:1056B800F702EFB21FD901113285EFF0BF8C230832
:1056C800A10081452800EFF01FB005616FB0BFD978
:1056D8008280971700209387E7279C43D847A167C4
:1056E8009387E702631FF702EFB2BFD50111328536
:1056F8003284EFF09F8AAA842285EFF01F8A8547BB
:1057080019E52285EFF01F884205B337A00028006D
:105718008145231891003ECAEFF0FFAA05616FB0DA
:105728009FD48280971700209387C7229C43D8472D
:105738009947631FF704EFB2DFD07971328532845D
:10574800EFF05F842AC62285EFF03F852310A1027F
:105758002285EFF03F832301A1022285EFF09F828B
:10576800A301A1022285EFF0FF812302A102228575
:10577800EFF05F812313A1022285EFF0BF80B245CD
:105788002314A1022808EFF01FA445616FB0BFCD14
:105798008280971700209387E71B9C43D847A1670F
:1057A8009387C703631FF704EFB2BFC979713285C6
:1057B8003284EFF02FFD2AC62285EFF00FFE23106A
:1057C800A1022285EFF06FFD2311A1022285EFF0DF
:1057D8006FFB2302A1022285EFF0CFFAA302A102F8
:1057E8002285EFF02FFA2303A1022285EFF08FF92B
:1057F800B245A303A1022808EFF0FF9C45616FB0F2
:105808009FC68280EFB2FFC301112A84EFF08FF7A1
:10581800AA842285EFF06FF82285EFF00FF803577E
:1058280044008D4763F5E7002285EFF00FF72285E6
:10583800EFF0AFF62800A685EFF0FF9805616FB08E
:105848009FC2971700209387E7109C43D847A1670A
:10585800FD076319F700EFB2DFBE3285EFF09FFA5C
:105868006FB07FC08280971700209387A70E9C4354
:10587800D847A167E5076311F706EFB29FBC7971B6
:1058880032853284EFF00FF02AC62285EFF0EFF070
:105898002285EFF08FF02310A1022285EFF0EFEFC1
:1058A800520551812311A102228523020102EFF042
:1058B8006FEDA302A1022285EFF0CFEC2303A10232
:1058C8002285EFF02FECB245A303A1022808EFF0E0
:1058D8009F8F45616FB03FB98280971700209387EB
:1058E80067079C43D847A1679387E7036319F700C5
:1058F800EFB23FB53285EFF0FFF06FB0DFB68280D0
:1059080097170020938707059C43D847A16793877B
:1059180047046314F702EFB2DFB27971328532843B
:10592800EFF04FE62AC62285EFF02FE7B2452808A8
:10593800EFF07F8945616FB01FB382809717002011
:10594800938747019C43D847A167938787026316CB
:10595800F702EFB21FAF797132853284EFF08FE230
:105968002AC62285EFF00FE2B2452300A1022808DB
:10597800EFF07F8545616FB01FAF8280EFB27FACDB
:105988000111EFF02FE0AA852800EFF0DF83056111
:105998006FB07FAD971700209387C7FB9C43D8470C
:1059A800A167D1076319F700EFB2BFA93285EFF0FD
:1059B800FFFC6FB05FAB828097170020938787F951
:1059C8009C43D847A167C5076319F700EFB27FA7C3
:1059D8003285EFF0BFFA6FB01FA9828097170020B9
:1059E800938747F79C43D847A167B9076319F7001E
:1059F800EFB23FA53285EFF07FF86FB0DFA6828067
:105A080097170020938707F59C43D847A167AD07F0
:105A18006319F700EFB2FFA23285EFF03FF66FB0DF
:105A28009FA48280971700209387C7F29C43D8478A
:105A380089476310F702EFB2DFA00111328532C83F
:105A4800EFF04FD4AA852800EFF0EFF705616FB0AB
:105A58009FA18280971700209387C7EF9C43D84760
:105A6800A1678D076317F702EFB2BF9D0111328559
:105A78003284EFF02FD113066100AA844C002285EE
:105A8800EF20D00C2800A685EFF0EFF305616FB08A
:105A98009F9D828097170020938707EC9C4381CBBA
:105AA800DC4391C7EFB2FF9982976FB0DF9B82808A
:105AB800EFB23F9979713C08AE843ED2A165B70731
:105AC8000A002A843ED448103C08DD053ED636C478
:105AD80032C63AC2EFD0BFB212474810BA85EFF0CB
